:020000040000FA
:2000000000800020BD01000059AC01001DAC01001DAC01001DAC01001DAC01001DAC01008A
:200020001DAC01001DAC01001DAC010059AC010059AC01001DAC010059AC01000DAC0100CC
:2000400059AC010059AC010059AC010059AC010059AC010059AC010059AC010059AC010070
:2000600059AC010059AC010059AC010059AC010059AC010059AC010059AC010059AC010050
:2000800059AC010059AC010059AC010059AC010059AC010059AC010059AC010059AC010030
:2000A000C12B0100D12B010059AC010059AC010059AC010059AC010059AC010059AC010032
:2000C00059AC010059AC010059AC010059AC010059AC010059AC010059AC010059AC0100F0
:2000E00059AC010059AC010059AC010059AC010059AC010061CF010059AC0100C5D601000F
:2001000059AC010041DC010059AC010059AC010059AC010059AC010059AC010059AC010097
:2001200059AC010059AC010059AC010059AC010059AC010059AC010059AC010059AC01008F
:2001400059AC010059AC010059AC010059AC010059AC010059AC010059AC010059AC01006F
:2001600059AC01002DB6010059AC010059AC010059AC010059AC010059AC010059AC010071
:2001800059AC010059AC010059AC010059AC010059AC010059AC010059AC010059AC01002F
:2001A00059AC010059AC010059AC010059AC010059AC010059AC010059AC0100574B4CF235
:2001C000205210B51A804DF628121A8000BF00BF1AF046FD524B4FF010621A60514A9A600F
:2001E000514ADA60A3F53043203B1A6812F4807204D14E490A604FF4A8521A604C4B1A7894
:20020000110703D51A7842F008021A70494B4A4C4A482A221A704A4A00239918A14203D2E4
:20022000195899500433F8E7464B474900228B4202D243F8042BFAE74448454900235A5830
:200240001A500433B3F5DE7FF9D1424B424A802103F8011B9342FBD1404B3C4A1A60404BA6
:200260008A221A70A3F5805324225A70A0221A709A799207FCD59A79D406FCD4394A9379B8
:2002800003F00C03082B374BF9D103221A714C225A719A799006FCD5324A9179314B490629
:2002A000FBD5314A4FF0017111600421516020221A709A7902F00C020C2AFAD12B4B2C4A2F
:2002C0001A602C4B2C4A1A6000225A60072243F8042C2A4AC3F80C2D62B61BF067F8134B85
:2002E0001B68DA0705D526481AF094FF254B264A1A60264B1B785B0609D5224C224A2368B3
:20030000934204D11E481AF085FF0023236020F0A3F901F0D7F81CF007F8FEE70E200540CA
:2003200030800440823F04000100002B14D0034002D0074000E00740A895FF1FD4540300EB
:200340006087FF1FC095FF1FB43E00200082FF1F0000000000E400E05FE400E008ED00E0B7
:2003600000500640004006404480044004800440C010050014E000E07F32020000002020F5
:200380003FC29F031CE00340A5C3945A00F00740FFFFFFFFFFFFFFFFFFFFFFFFFFFFFFFFFE
:2003A000FFFFFFFFFFFFFFFFFFFFFFFFFFFFFFFFFFFFFFFFFFFFFFFFFFFFFFFFFFFFFFFF5D
:2003C000FFFFFFFFFFFFFFFFFFFFFFFFFFFFFFFFFFFFFFFFFFFFFFFFFFFFFFFFFFFFFFFF3D
:2003E000FFFFFFFFFFFFFFFFFFFFFFFFFFFFFFFFFFFFFFFFFFFFFFFFFFFFFFFFFFFFFFFF1D
:20040000FFFFFFFFFFFFFFFFFFFFFFFFDEF9FFFF10B5054C237833B9044B13B10448AFF375
:2004200000800123237010BDC095FF1F00000000CC54030008B5064B1BB106480649AFF309
:2004400000800648036813B1054B03B1984708BD00000000CC540300C495FF1FA895FF1F02
:20046000000000002DE9F04F8FB006919246B2F80480D3884345C0F00881864B197801EBE1
:2004800081020A92844B1A78C2EB8273C2EB83030D93824B187800EB8007814B1B78C3EB8B
:2004A0008374C3EB840401947E4C24780794C3EB8334C3EB84033B4401EB810101EB810184
:2004C00003EB4111C2EBC20202EB021202EB021201EB421292B20892734B1B780993734BA0
:2004E0001B68029308EB88035B019BB200934FF00009CB463E4657460A9B4344772B00F3EF
:20050000B7800D9B18EB030F00F1B2803C887B88A342C0F0AD800BF10103C4F19F0200994C
:200520000A441FFA82F91FFA83FBCDF830800BF1FF339AB2A3199F2B00F38A80019BDC4216
:2005400000F18680079919B1009D2544ADB200E04D46089B1D44ADB20999022972D1069B4E
:2005600033F812200392524931F8151004914FF07E5002991FF0F8FC8246049A02F4FC60A8
:20058000C0081FF0A7FD014650461FF0F7FD8046039B03F4FC60C0081FF09CFD01460298F8
:2005A0001FF0ECFD014640461FF0E0FC1FF0D2FF5FFA80F808F01C03DB0005930499C800EB
:2005C00000F0F8001FF086FD014650461FF0D6FD0B90039AD00000F0F8001FF07BFD014624
:2005E00002981FF0CBFD01460B981FF0BFFC1FF0B1FFC0F3C400059B184305904FEA681857
:20060000049901F47840000A1FF064FD51461FF0B5FD8246039A02F47840000A1FF05AFD3B
:20062000014602981FF0AAFD014650461FF09EFC1FF090FF00F0F80048EA0008059B43EA10
:20064000082802E0069931F81280194A22F815800134A4B20BF101039AB209F1FF391FFAFA
:2006600089F97B88A34201D3934660E7DDF8308008F101031FFA83F8009901F1A0039BB28B
:200680000093FB884345BFF437AF01200FB0BDE8F08F00BF72370020749BFF1F1C380020F6
:2006A0009E9CFF1FA03A00202A38002040350020409FFF1F08B5083013F0BCFB08BD00BFA1
:2006C00000B583B002AB03F8011D08301946012213F0B0FB03B05DF804FB00BF08B500F58C
:2006E0008C6012F0ADFC08BD08B500F58C6012F089FD08BD08B500F58C6012F041FD08BD10
:2007000008B500F58C6012F007FE08BD38B51546846FA288E388D01AA84298BF054629B14F
:2007200022680846D1182A461AF052F9E3882B44E380284638BD00BFF8B505460C4614F086
:200740002FFE064614F022FE074614F015FEFFB2C0B240EA4717B6B2A6F2BC7647EA46271D
:200760002F8014F0EBFD054614F0F2FD064614F0F9FDF6B2EDB2ED0245EA4616C0F34600A0
:2007800006432680F8BD00BF08B51AF03DFD08BD00B583B0334B93F8243023B168463249EE
:2007A00015F050FE03E068462E4916F0D7F8BDF80030BDF80220A3F10F0189B2412908D824
:2007C000A2F10F0080B22D2803D80122274B1A7044E0A3F1C80080B2692808D8A2F1B4008C
:2007E00080B22D2803D80522204B1A7036E0282B0CD8A2F1640080B2282819D81C480068F8
:20080000012815D00322194B1A7027E0A3F58C7080B227280CD8A2F1640080B2282807D85F
:2008200013480068012803D00422104B1A7015E0F03B9BB2412B08D8A2F10F039BB22D2BEB
:2008400003D80222094B1A7008E07C2906D8B43A92B22D2A02D80622044B1A7003B05DF8E4
:2008600004FB00BFE895FF1FF895FF1F14380020583500202DE9F04186B0364B1B7813F0C7
:20088000FF0F64D1344B1B7813F0FF0F5FD1334B1B7813F0FF0F5AD1314B1B7813F0FF0F55
:2008A00055D1304B1B7813F0FF0F50D133E02E4C04F11007DFF8B48094F824301BB1384604
:2008C00015F020FE02E0204616F06EF878B1236A01221A70B5F57A7F2EDD08E00524234FAD
:2008E00020461AF0CBFC10B9B5F57A7F2ADD1F4B1B680593059B9E1BB6F57A7F03DA0122CC
:20090000144B1A7023E01A4B1B78012B1FD00122124B1A701BE0154C23680193019E0A208A
:200920001AF02EFD23680293029DAD1B0E4B93F82430002BBBD1D1E7D8F800300393039D1E
:20094000AD1BB9E73B680493049DAD1BC8E706B0BDE8F081E595FF1F153800207C9CFF1FD6
:20096000E695FF1F78370020E895FF1F9C3B00202A38002010B5044650491FF0B1FD00286E
:2009800076D120464E491FF0ABFD002872D120464FF081411FF0A4FD00286DD1204649497C
:2009A0001FF09EFD002869D1204647491FF098FD002865D1204645491FF092FD002861D147
:2009C000204643491FF08CFD00285DD1204641491FF086FD002859D120463F491FF080FDE9
:2009E000002855D120463D491FF07AFD002851D120463B491FF074FD00284DD12046394955
:200A00001FF06EFD002849D1204637491FF068FD002845D1204635491FF062FD002841D1F6
:200A2000204633491FF05CFD00283DD1204631491FF056FD002839D120462F491FF050FD88
:200A4000002835D120462D491FF04AFD002831D120462B491FF044FD00282DD120462949E4
:200A60001FF03EFD002814BF05204FF0FF3010BD642010BD5F2010BD5A2010BD552010BDAB
:200A8000502010BD4B2010BD462010BD412010BD3C2010BD372010BD322010BD2D2010BDFA
:200AA000282010BD232010BD1E2010BD192010BD142010BD0F2010BD0A2010BD33338340E3
:200AC0009A998140A4707D401F857B40713D7A40EC5178403D0A77408FC27540E17A744082
:200AE0003333734085EB7140D7A37040295C6F4052B86E40A4706D40CDCC6C401F856B4051
:200B0000713D6A400000404010B501460A4C204610F02AFC204610F0CBFB4FF496701AF090
:200B20002FFC20464FF4E13110F0FCFB20465F2110F052FC10BD00BF303A002008B5024887
:200B400010F078FC08BD00BF303A00202DE9F04782B02D4810F076FC1FFA80FA5046012162
:200B60001FF022FD0546BAF1000F20D057460024DFF89480A146402FB4BF3E464026F6B24B
:200B80004046314610F07EFCB64666B14B46C15CE21892B2A95401337345F8D10134731E67
:200BA00013FA84F4A4B2BF1BBFB2002FE3D1164E304610F08DFB154C2560A4F804A0002381
:200BC000E38040F61C401FF06FFD0246104B186000941048104940F61C4314F0DFFC30465B
:200BE00010F0DEFB22280B480C490CBF0022012214F07CFF28461FF05FFD054B18681FF0E3
:200C00005BFD02B0BDE8F087303A00208C9BFF1F183800207C3700200D070000650400001F
:200C200070B5124810F00EFC84B2114D2B681B682846210A98472B681B682846E1B2984713
:200C400084B10A4E402CB4BF25464025EDB23046294610F017FC29461BF06CF9641BA4B20D
:200C6000002CEFD1014810F033FB70BD303A0020A43C002010B400290ADD034644180020C1
:200C8000054913F8012B5040085CA342F9D100E000205DF8044B70477805030070B582B0FA
:200CA00004460E4623485A2111F06AF92CB1214803681B680621984704E01E4803681B68DA
:200CC000072198471B4C2169627B0025009520462B4611F02FFC2069617B012300930195D0
:200CE0005A22032311F03AFC2369D3F83821D3F83431D31A032B1CBF2B4633700D4C20694F
:200D000011F04AFC0546206911F046FC0646206911F042FC2169627B0023009320460123BA
:200D200011F008FC06F07F00EDB205EB002002B070BD00BFB83A002070B505460E46FFF720
:200D4000ADFF1FF0C7F914491FF018FA13491FF00BF913491FF008F9044675B111491FF0E6
:200D6000ABFB20B9204610491FF0C4FB10B10023337070BD0D4B1C6070BD0D491FF09CFBB6
:200D800020B920460B491FF0B5FB10B10023337070BD094B1C6070BD0AD7A33C0AD7233C50
:200DA00033938843000020C20000FA422438002000008CC20000BE43789BFF1FF0B48C4612
:200DC000234C2278234B196841F4806119604FF00041D9625A6304F1A3076678DA6A002A29
:200DE0001CDBFBE7D36A002B25DBFBE7184A527882420BD1142A0BD1174A1278012A09D1FA
:200E0000BCEB131F14BF002001201FE000201DE001201BE0012019E0002017E09A6B1D68F2
:200E200045F480651D60D9625E6304F8012BBC42D3D1084AD6E7074B9A6B054B83F8A3205D
:200E40001B7803F00F020F2AD0D1E5E7F0BC70472496FF1F00C00240649CFF1F30B583B0E2
:200E600005460C4C20462A2111F08AF823681B6820460021984723681B6820462946984765
:200E80002169627B002300932046012311F052FB03B030BDB83A002030B583B0FFF7DEFFC0
:200EA0000B4C2069617B01230093002301932A22022311F053FB206911F06EFB85B2206995
:200EC00011F06AFB2D02ADB2284380B203B030BDB83A002010B50446074800214FF400729B
:200EE0001FF06AFF34B1044B552283F8FE21AA2283F8FF2110BD00BF2C38002008B50146BA
:200F00000248034A12F07EF908BD00BFA49CFF1F2C380020044B1B78044A127802FB03F3AE
:200F2000B0FBF3F080B27047AC9DFF1F21380020064B1B78064A127803FB02F2B0FBF2F11C
:200F400001FB1200B0FBF3F0C0B2704721380020AC9DFF1F70B50120FFF7BCFF314C002355
:200F600084F8BE31304B1D682846FFF7D3FF021294F8C03162F3871384F8C03184F8C101A5
:200F80002846FFF7D5FF84F8BF01284B1E78B5FBF6F206FB1252013294F8C03162F30503CA
:200FA00084F8C031224B1B7884F8C231214B1B681D44013D2846FFF7ADFFB0F5806F19D238
:200FC000021294F8C43162F3871384F8C43184F8C5012846FFF7ACFF84F8C301B5FBF6F3F2
:200FE00006FB1355013594F8C43165F3050384F8C43109E00B4BFF2283F8C521FE2283F8A4
:20100000C321FF2283F8C421064B074A1268C3F8C621084A1268C3F8CA210020FFF76EFFB8
:2010200070BD00BF2C380020949CFF1F21380020C896FF1F849CFF1FF8B504460D46002055
:20104000FFF748FF094821462A4612F01BF94DB10024064F064E3846314612F0F5F8013431
:20106000AC42F8D1014812F035F9F8BDA49CFF1F2C38002010B5034B1C6824021AF05CF98D
:20108000204410BD8C9CFF1F00B583B06946052200231BF079FB68461FF082FA03B05DF838
:2010A00004FB00BF08B5064B00221A731A7101E01AF0CAFE1AF014FF0028F9DC08BD00BFD9
:2010C000A43C002038B50D4C23680D4D29881B682046090A984723681B6820462978984765
:2010E0002368084D29881B682046090A984723681B6820462978984738BD00BFA43C0020DC
:2011000066370020743700202DE9F0471C4B1B78012B00D020B11B4C04F516461A4D1EE012
:20112000DFF8608008F5164A4FF00009164E374613E038F8045033681B683846290A98474D
:2011400033681B683846E9B298470434B4F5A07FEFD108F52078D04510D04C46E9E7218824
:201160002B681B682846090A98472B6834F8021B1B682846C9B29847B442F0D1BDE8F087FF
:20118000649CFF1F409FFF1FA43C002010B5214B18781AF04DFF204C23681B6820461F4AD4
:2011A000117898471E4B18781AF042FF23681B6820461C4A1178984723681B6820461A4A69
:2011C00011789847194B1B781BB900201AF030FF05E0114803681B68154A11789847134B32
:2011E0001B781BB900201AF023FF05E00A4803681B68104A117898470F4B1B7823B10F4B3A
:20120000197881F0010100E00021034803681B68984710BD649CFF1FA43C0020A09DFF1F6B
:20122000BC9DFF1F9C9CFF1FA29CFF1FB09CFF1F809BFF1F68370020A19DFF1F819BFF1F8D
:2012400008B5FFF77BFCFFF7EBFC08BD2DE9F041ACB04E4B1B680293029D4C4C1AF040FEEF
:2012600030B923680393039B5B1BB3F57A7FF5D31AF036FE002800F0858004A844497822B9
:201280001BF0E2F80CA804A9002204231BF094FA10A84FF4FC610A221BF0CAF90CA810A967
:2012A0001BF06CFA014608A81BF0AEF908A8FFF7EBFE044608A81BF01FF910A81BF01CF990
:2012C0000CA81BF019F9002C59D014A804A90B220D231BF071FA14A8FFF7D6FE074618A819
:2012E00004A90E2210231BF067FA18A8FFF7CCFE06461CA804A9112213231BF05DFA1CA8A6
:20130000FFF7C2FE054620A804A908220A231BF053FA20A8FFF7B8FE044624A804A905224A
:2013200007231BF049FA24A8FFF7AEFE804628A804A9002204231BF03FFA28A8FFF7A4FE8F
:20134000CDF800800190384631462A46234614F02DF828A81BF0D0F824A81BF0CDF820A8B9
:201360001BF0CAF81CA81BF0C7F818A81BF0C4F814A81BF0C1F813F093FF19F04BFF04A877
:201380001BF0BAF82CB0BDE8F08100BF9C3B0020A43C002070B50A4C04F5C076094D21883F
:2013A0002B681B682846090A98472B6834F8021B1B682846C9B29847B442F0D170BD00BFED
:2013C000C09DFF1FA43C002008B5034803681B68024A1178984708BDA43C0020603700206C
:2013E00008B5024B18781AF023FE08BD7737002008B5034803681B68024A1178984708BD26
:20140000A43C00201638002008B5034803681B68D721984708BD00BFA43C002048F680004F
:20142000C0F20300D0F800D0D0F804F0704700BF1D4B4FF400721A601C490A601C4A1168E8
:2014400021F4802111604FF400021A604FF080721A604FF000721A604FF080621A604FF0F6
:2014600000621A60134A136813F0800FFBD1114B1B6813F0400F04D00E4B1A6842F0400206
:201480001A600D4B1B6813F0800F04D00A4B1A6842F080021A60A022084B1A700023084A78
:2014A000136004321360704788E100E088E200E03480044024B00B4000B00B40004006402E
:2014C0004480044008B5002019F068FBAE2808D10020014619F078FB72B6FFF7A9FFFFF76D
:2014E0009DFF08BD08B50020AE2119F06DFB024A024B1A6008BD00BF0400FA050CED00E0FB
:2015000008B5802019F04AFB022814D80C4B1870012805D10B480C49002211F00BFC06E074
:20152000022804D107480949002211F003FC0022074B1A7008BD0022014B1A7008BD00BFAA
:201540001F380020B09DFF1FE0930400804F1200889BFF1F08B50420012119F09DFE042045
:20156000002119F067FE0021024B1970022019F093FE08BD6037002008B50620012119F09F
:201580008BFE0920012119F087FE0A20012119F083FE0F20012119F07FFE1420012119F0DD
:2015A0007BFE1520012119F077FE0620012119F041FE0920012119F03DFE0A20012119F069
:2015C00039FE0F20012119F035FE1420012119F031FE1520012119F02DFE13F00DFC08BD5D
:2015E00030B587B00F4B1869597B002914BF032300230024009401930294039401250495A3
:201600002246234610F078FB064B18694FF47A72C0F86422597B009522462B4610F0CCFA3F
:2016200007B030BDB83A002038B50C201AF084FE05460FF069F80F4C2560284604214FF0F2
:20164000FF320FF0AFF820680C214FF0FF320FF089F8206802214FF0FF320FF093F82068E1
:2016600002214FF0FF320FF095F81720002119F013FE38BDF837002010B54FF48072184B38
:201680001A604FF4107203F57F631A6038B3154901F58C6001F26C411422022311F00EFC86
:2016A000E8B1104C04F23C4012F05CFA2046012113F00AFB20B92046002113F005FB70B157
:2016C000084901F23C4011F0E5FF40B1054B93F83C3413F0700F02D0034A044B1A6010BDF2
:2016E00014B004400497FF1F409BFF1FCC3A002008B5444B1B78012B3DD1434B1B78002BA5
:2017000028D072B6404B1B7813F0010F07D03F4B19683F4A12680A403E490A601A603A4B59
:201720001B7813F0020F07D03B4B1968384A52680A4038494A601A60334B1B7813F0040FD2
:2017400007D0364B1968324A92680A4031498A601A6062B6324BDB68B3F1384F47D0304B7D
:20176000304A1A604FF03842DA604FF078421A612D4A1A603BE0244B1B78002B28D072B6B5
:20178000214B1B7813F0010F07D0204B1968204A12680A401F490A601A601B4B1B7813F0FE
:2017A000020F07D01C4B1968194A52680A4019494A601A60144B1B7813F0040F07D0174B2B
:2017C0001968134A92680A4012498A601A6062B6134BDA68154B9A4209D0114B114A1A602A
:2017E000124ADA6002F180421A610F4A1A60104B1B7813B10020FFF73FFF0F20002119F0F1
:2018000019FD08BD649CFF1FEC3A002080E100E0D43A0020E03A002084E100E088E100E052
:2018200000C0024001401F0000001F80000001BAA03A00204FF41072034B1A604FF4807230
:2018400003F57F631A60704714B00440F8B512480FF0F8FD84B20020FFF70EFF9CB10E4F77
:201860000E4E402CB4BF25464025EDB2384629460FF008FE014630462A4612F0DBFA641B49
:20188000A4B2002CEDD1054812F06CF9FFF7D2FF01480FF01DFDF8BD303A0020E096FF1F58
:2018A00008B50122114B1A60114B1B78C3B113F0010F03D00F4B1A680F4B1A600C4B1B788F
:2018C00013F0020F03D00B4B5A680C4B1A60084B1B7813F0040F03D0064B9A68084B1A6049
:2018E000084B1B780BB1FFF7A5FF08BD84F00F40EC3A0020E03A002000E100E004E100E01E
:2019000008E100E0A03A002010B50120FFF7B4FE054C204613F08AF92479640804FB00F43D
:20192000FFF788FF204610BD0497FF1F10B50020FFF7A2FE064811F0B3FB0446054B1860B4
:20194000FFF778FF04F2FF70C0F3CF2010BD00BFA49CFF1F8C9CFF1F30B58DB0FFF7E6FFE6
:20196000044620B9174818491AF03CFE28E0FFF7CBFF810A04A80A221AF05AFE684604A958
:201980001AF024FE684611491AF0CEFE054608A8611E0A221AF04CFE284608A91AF0BAFE62
:2019A0000B491AF0C1FE014606481AF005FE08A81AF0A2FD68461AF09FFD04A81AF09CFD6C
:2019C0000DB030BD0438002030D2020038D202003CD20200F8B50020FFF74EFE974C204689
:2019E00004F109011422022311F068FA204611F057FB934B186000F2FF73C3F3CF23914A34
:201A00001380102B03D802218F4A11701FE0202B03D804218C4A117019E0402B03D8082197
:201A2000894A117013E0802B03D81021864A11700DE0B3F5806F03D82021834A117006E083
:201A4000B3F5004F94BF402180217F4A1170B3F5807F8CBF3F2120217C4A1170102B03D800
:201A600002227B4B1A7027E0202B03D80422784B1A7021E0802B03D80822754B1A701BE05C
:201A8000B3F5FC7F03D81022714B1A7014E0B3F57C7F03D820226E4B1A700DE0B3F5FC6FD9
:201AA00003D840226A4B1A7006E0B3F57C6F94BF8022FF22664B1A704FF48072654B1A6081
:201AC000614B1F78A0F58072B2FBF7F202F20111090A614B1960490001F1A104B4F5807FE0
:201AE00016D84FF480731C1B04F180005B4B186001205B4B188081345A480460213107FB8A
:201B00000212594B1A6047F6A7739A4218D91BE04D4B1F784FF4C073C21AB2FBF7F202F269
:201B200001152D0A690001F1A10403F18006A34204D34848036048480560D4E73346EBE734
:201B400001224A4B1A7006E0B2F5803F34BF04220622464B1A70FFF7FDF90120FFF7BAF9E5
:201B60004349EB230B7000234B7090238B704B1E073120220133DA708B42FBD13C4C00271B
:201B8000E77202232373304B1B786373344B1B88E3810223237423694FF4007262F317233B
:201BA0002361F82363752C4E3368E382274B1B782383274B1B786383284D2B68E3612A4BDD
:201BC0001B682362802384F82430292384F82630FFF750FAC4F82700264B03CBC4F82B0023
:201BE000C4F82F1019889B78A4F8331084F83530214B03CBC4F83600C4F83A102868FFF7BE
:201C00007DF9184D2B68134A11681846C91AFFF713FA3846FFF75EF94FF6F87323804FF6D9
:201C2000FF7363802868FFF769F930682B681844FFF764F9FFF7FEFDF8BD00BFA49CFF1FCA
:201C40008C9CFF1F789CFF1F9D9CFF1F21380020AC9DFF1F809CFF1F7C9BFF1F949CFF1F18
:201C6000CA96FF1F849BFF1F849CFF1FC896FF1F2C3800206487FF1F7887FF1F10B5054C2F
:201C800020460FF04FFA20460FF028FA003018BF012010BDB49CFF1F70B584B0294B1A685D
:201CA0000092009C1B680193019D2D1B254EFFF7E5FF40B3B5F57A7F2EDD24E0224B1B7807
:201CC000B72B03D1B422204B1A7038E01F4B1B7813F0FF0F08D11C4B1B78B62B21D103E0D4
:201CE000FFF7CCFF0028FBD1184B1B78DBB2022B25D1154B1B78B52B1AD120E0FFF7BEFF18
:201D00000028FBD11BE00F4A12680392039B1B1BB3F57A7FD2DBD9E733680293029D2D1B73
:201D2000C5E7B522084B1A700222084B1A70D7E7B622054B1A700022044B1A70DEE704B05E
:201D400070BD00BF9C3B00207087FF1F1538002070B584B02D4B1B7813F0FF0F23D12C4B3E
:201D60001B7813F0FF0F1ED12A4B1B7813F0FF0F19D1294B1B7813F0FF0F14D1274B1B78CB
:201D800013F0FF0F0FD128E0FFF778FF002831D0B4F57A7F32DD2DE002221F4B1A7002E0FC
:201DA00001221B4B1A701A4B1B78DBB2022B07D10322174B1A70FFF761FF0028FBD122E029
:201DC000134B1B78DBB2032B1DD10122104B1A70FFF754FF0028FBD115E0114C23680193B3
:201DE000019D0A2019F0CCFA23680293029C641B0B4EC9E7B4F57A7FCEDBD1E733680393D2
:201E0000039C641BC0E704B070BD00BFE595FF1F153800207C9CFF1FE695FF1F78370020BA
:201E20009C3B002008B51620002119F003FA08BD08B51620012119F0FDF908BD08B5162000
:201E400019F01CFA003018BF012008BD034B1B7843FA00F000F00100704700BF9087FF1FCC
:201E6000044B012202FA00F0197821EA00021A70704700BF9087FF1F10B5694C23685B6869
:201E8000204668491822984720461AF05DFA0020FFF7DCFF48B123685B68204662491022D0
:201EA000984720461AF050FA09E05D4C23685B6820465E491422984720461AF045FA0120B7
:201EC000FFF7C4FF50B1564C23685B68204658490C22984720461AF037FA09E0504C236893
:201EE0005B68204653491022984720461AF02CFA0220FFF7ABFF50B1494C23685B6820466A
:201F00004D491222984720461AF01EFA09E0444C23685B68204649491622984720461AF04A
:201F200013FA0320FFF792FF50B13D4C23685B68204643491122984720461AF005FA09E0B6
:201F4000374C23685B6820463E491522984720461AF0FAF90420FFF779FF50B1304C2368B0
:201F60005B68204638490C22984720461AF0ECF909E02B4C23685B682046344910229847B3
:201F800020461AF0E1F90520FFF760FF50B1244C23685B6820462E491222984720461AF05E
:201FA000D3F909E01E4C23685B68204629491622984720461AF0C8F90620FFF747FF50B131
:201FC000174C23685B68204623491222984720461AF0BAF909E0124C23685B6820461F49E5
:201FE0001622984720461AF0AFF90720FFF72EFF50B10B4C23685B682046194910229847E9
:2020000020461AF0A1F910BD054C23685B68204614491422984720461AF096F910BD00BFE7
:20202000A43C002040D202005CD2020070D2020088D2020098D20200ACD20200C0D202003C
:20204000D8D20200ECD2020004D3020014D3020028D302003CD3020054D3020068D30200DE
:2020600080D3020094D3020008B5114B1B787BB11048872117F006FE0F4B93F824301BB1BA
:2020800001220D4B1A7408BD01220B4B5A7008BD08482D2117F0F6FD074B93F824301BB1D5
:2020A0000022054B1A7408BD0022034B5A7008BDA09DFF1F949BFF1FE895FF1F10B582B022
:2020C000094C2046012117F007FFFFF7CDFF074B2360812018F062FDC82809D181200021EB
:2020E00018F072FD9DE200BF949BFF1F409FFF1FFA2018F053FDD72840F09382AC4C0A2306
:202100000093204619461A4614F05EFC20464FF4784115F04FFCA74B1B78002B28D072B627
:20212000A44B1B7813F0010F07D0A34B1968A34A12680A40A2490A601A609E4B1B7813F0C5
:20214000020F07D09F4B19689C4A52680A409C494A601A60974B1B7813F0040F07D09A4BF2
:202160001968964A92680A4095498A601A6062B6964BDB68B3F1384F0AD0944B944A1A6000
:202180004FF03842DA604FF078421A61914A1A60874B93F8CF301B0443F0004343F02A0332
:2021A0008A4A5363D36A13F0F00F18BF916B03F47043B3F5405FF5D87D4B93F8CE301B0455
:2021C00043F0104343F00A03804A5363D36A13F0F00F18BF916B03F47043B3F5405FF5D8E9
:2021E000734B93F8CE301B0443F0104343F00A03764A5363D36A13F0F00F18BF916B03F434
:202200007043B3F5405FF5D8694B93F8CF301B0443F0004343F02B036C4A5363D36A13F017
:20222000F00F18BF916B03F47043B3F5405FF5D85F4B93F8CE301B0443F0104343F00A03F6
:20224000624A5363D36A13F0F00F18BF916B03F47043B3F5405FF5D8554B93F8CE301B0404
:2022600043F0104343F00A03584A5363D36A13F0F00F18BF916B03F47043B3F5405FF5D870
:202280004B4B93F8CF301B0443F0004343F02E034E4A5363D36A13F0F00F18BF916B03F4CE
:2022A0007043B3F5405FF5D8484AD36A002BFCDA464B9A6B3E4A92F8CE20120442F0004267
:2022C0005A631A464FF2F001D36A13F0F00F18BF906B0B42F8D1364A92F8CE10090441F062
:2022E00000413A4B596392F8CE10090441F00041596392F8CE20120442F000625A631A467A
:20230000D36A13F0805FFBD0304B4FF08052DA629A6B996B986B9A6B264B1B78C3B113F07F
:20232000010F03D0264B1C682B4B1C60214B1B7813F0020F03D0224B5C68284B1C601D4B65
:202340001B7813F0040F03D01D4B9C68244B1C6001F0F80100F0FC03DB0043EA0123C2F3F0
:20236000C40213431BB213F5006F00F05A814FF47A7019F005F80E4C0A2300932046194620
:202380001A4614F021FB20464FF4784115F012FB084B1B78002B43D072B6064B1B7813F016
:2023A000010F22D0044B1968044A12680A4019E0949BFF1FEC3A002080E100E0D43A00203E
:2023C000E03A002084E100E088E100E000C0024001401F0000001F8000E100E004E100E0AE
:2023E00008E100E090490A601A60904B1B7813F0020F07D08E4B19688E4A52680A408A49F5
:202400004A601A60894B1B7813F0040F07D08A4B1968884A92680A4083498A601A6062B690
:20242000864BDB68B3F1384F0AD0844B844A1A604FF03842DA604FF078421A61814A1A60C0
:20244000814B93F8CF301B0443F0004343F02A037A4A5363D36A13F0F00F18BF916B03F4AE
:202460007043B3F5405FF5D8774B93F8CE301B0443F0104343F00A03704A5363D36A13F0B5
:20248000F00F18BF916B03F47043B3F5405FF5D86D4B93F8CE301B0443F0104343F00A0386
:2024A000664A5363D36A13F0F00F18BF916B03F47043B3F5405FF5D8634B93F8CF301B048F
:2024C00043F0004343F02B035C4A5363D36A13F0F00F18BF916B03F47043B3F5405FF5D8F9
:2024E000594B93F8CE301B0443F0104343F00A03524A5363D36A13F0F00F18BF916B03F46F
:202500007043B3F5405FF5D84F4B93F8CE301B0443F0104343F00A03484A5363D36A13F064
:20252000F00F18BF916B03F47043B3F5405FF5D8454B93F8CF301B0443F0004343F02E03F8
:202540003E4A5363D36A13F0F00F18BF916B03F47043B3F5405FF5D8384AD36A002BFCDAAD
:20256000364B9A6B384A92F8CE20120442F000425A631A464FF2F001D36A13F0F00F18BFEC
:20258000906B0B42F8D1304A92F8CE10090441F000412A4B596392F8CE10090441F00041B1
:2025A000596392F8CE20120442F000625A631A46D36A13F0805FFBD0204B4FF08052DA627E
:2025C0009A6B9A6B986B996B184B1B78C3B113F0010F03D0144B1C681C4B1C60134B1B78E3
:2025E00013F0020F03D0104B5C68194B1C600F4B1B7813F0040F03D00B4B9C68154B1C60E9
:2026000002F0F80200F0FC03DB0043EA0222C1F3C40313431BB213F5006F02D00120FFF7B5
:202620001FFC02B010BD00BFE03A0020EC3A002084E100E0D43A002088E100E000C0024003
:2026400001401F0000001F80949BFF1F00E100E004E100E008E100E038B5002425462046FD
:20266000294618F0B1FA0134B4F5006FF7D138BD10B5992018F092FA0446431EDBB2022BB7
:2026800000F28480012830D17E2018F087FAC8282DD10BE0902018F081FAC82868D129E0B5
:2026A000982018F07BFAC82862D142E07C2018F075FA374B1870792018F070FA354B187070
:2026C0007A2018F06BFA344B18707B2018F066FA324B18707D2018F061FA1DF0FBFC304967
:2026E0001DF000FE2F4B186010BD0228D2D0032C3ED1D5E78E2018F051FA254B18708B20A6
:2027000018F04CFA234B18708C2018F047FA224B18708D2018F042FA204B18708F2018F0F0
:202720003DFA1DF0D7FC1E491DF0DCFD1D4B186010BD942018F032FA154B1870912018F0FF
:202740002DFA144B1870922018F028FA124B1870932018F023FA114B1870952018F01EFA19
:202760001DF0B8FC0E491DF0BDFD0E4B186010BD0023074A1370094A1370064A1370064AEC
:2027800013704FF07C52074B1A6010BD0024AEE7723700209E9CFF1F1C380020749BFF1F95
:2027A0000000C8424035002008B5114B1B78022B05D110484FF4784115F0C4F808BD012BC5
:2027C00004D10C48002115F0BDF808BD032B05D108484FF4806115F0B5F808BD042B0548C5
:2027E0000CBF1F214FF6FF7115F0ACF808BD00BF17380020949BFF1F70B582B005460E463A
:20280000FFF7D2FF134C20464FF0FF3115F0BAF82046114916F0C6FC4EB100230093204663
:20282000294642F20E72AA2316F0EEFA08E0002300930848294642F20E72462316F0E4FA5C
:202840000448064916F0AEFC4FF47A7018F098FD02B070BD949BFF1FA83C03008C48030079
:2028600030B583B0054631B91848C8210A460B4615F04CF80FE0154C2046C8210A460B4698
:2028800015F052F8EA230093204606210A464FF49D7315F0ADFC0D4C20460D4916F082FCD2
:2028A0002046C8210A460B4615F05AF82046002115F048F8002300932046294642F20E72C6
:2028C0006E2316F0A1FA03B030BD00BF949BFF1F8C480300F8B5334C206817214FF0FF32E7
:2028E0000DF068FF0546206800210DF043FF064628461DF0EFFB4FF07F511DF03FFC2A49C6
:202900001DF03CFC054630461DF0E0FB014628461DF0E8FC0546206828214FF0FF320DF09A
:2029200049FF0746206800210DF024FF064638461DF0D0FB4FF07F511DF020FC1A491DF0EF
:202940001DFC044630461DF0C1FB014620461DF0C9FC0446284615491DF0A4FD88B12046F3
:202960004FF07E511DF0B2FD58B111480021FFF777FF4FF47A7018F003FD0520FFF770FAE4
:2029800005E020464FF07E511DF0A0FD20B1284608491DF0EBFA05462846FDF7EBFF064BCA
:2029A0001870F8BDF837002033335340000080BFACD30200CDCC4C3D1638002010B51E4C13
:2029C00020464FF4E1310EF0ADFC20465F210EF003FD20460EF02EFD10BB4FF47A7018F022
:2029E000CFFC20460EF064FC20464FF4E1310EF099FC20465F210EF0EFFC4FF47A7018F0F6
:202A0000BFFC20460EF016FD50B90C480021FFF727FF4FF47A7018F0B3FC0220FFF720FAD4
:202A2000054C20460EF054FC20460EF0B9FC10B10020FEF769F810BD303A0020CCD3020049
:202A400070B582B0012002A901F8010DFEF774F964240A2501260EE030460DF10701FEF7AD
:202A60006BF9631E13F0FF0405D108480021FFF7F7FE002008E0284618F082FC9DF8072081
:202A8000002AE9D0024B186802B070BDECD302002438002070B582B002A9012301F8013D0D
:202AA0000020FEF749F964240A2500260EE030460DF10701FEF740F9631E13F0FF0405D1ED
:202AC00008480021FFF7CCFE002008E0284618F057FC9DF80720002AE9D0034B186802B0D5
:202AE00070BD00BF10D40200789BFF1FF0B583B00B271E4C2A260025204631460FF040FAD4
:202B000023681B6820462946984723681B6820460421984723681B6820460221984723687A
:202B20001B682046422198472169627B0095204601230FF0FFFC90B10A2018F021FC013F1A
:202B400017F0FF07D8D10A480021FFF789FE4FF47A7018F015FC0620FFF782F903E04FF4CC
:202B6000FA6018F00DFC03B0F0BD00BFB83A002034D4020070B58CB0344C20462A210FF01E
:202B8000FFF923681B6820460021984723681B6820460421984723681B6820464821984795
:202BA00023681B6820461C2198472169627B00230093204601230FF0BDFC58B12448002190
:202BC000FFF74EFE4FF47A7018F0DAFB0620FFF747F938E01D482A210FF0D2F9022420462F
:202BE000FEF75AF910F0010FF9D10620FEF754F90346164C2069617B0125009500260196C3
:202C00002A220FF0ABFC204603A9202219F006FC2169627B009620462B460FF08BFC03A85E
:202C20000C491EF0D9FE10B10B4B1E700BE003A80A491EF0D1FE18B10122074B1A7002E045
:202C40000222054B1A700CB070BD00BFB83A002050D4020074D40200649CFF1F7CD40200DC
:202C60002DE9F04F83B04FF47A7018F089FBFFF781FF3F4B1B78022B05D001223D4B1A7049
:202C8000FFF734FF02E002223A4B1A703A4B1B680093009A394B1A600023394A1370002179
:202CA000384A11600121384A1170384A1370FEF71FFDDFF8E8C04FF0010BDE46344D354BF7
:202CC00005F1A304DFF8D8A0DFF8AC90DFF8AC80CCF800E02A78196841F4806119604FF05D
:202CE0000041D9625A6329464FF000474878DA6A002A22DBFBE7DA6A002A2ADBFBE7D9F873
:202D0000002001920199D8F800208A1AB2F57A7FDED3FEF7C5FD1E4B1B7803F00F030F2B8F
:202D200022D11D480021FFF79BFD4FF47A7018F027FB0720FFF794F816E09A6B1E6846F4D1
:202D400080661E60DF62586301F8012BA142CDD1D1E79A6B85F8A320CAF800B02A7802F06A
:202D60000F020F2AD5D1CAE703B0BDE8F08F00BF649CFF1F773700209C3B0020989CFF1FE7
:202D8000B09CFF1FE095FF1FA19DFF1F819BFF1F2496FF1F00C0024084D4020088F00F40A5
:202DA00084F00F4010B52848284919F01BFC284B1B78002B44D00020FEF75EFC254901F572
:202DC0008C6001F26C411422022310F077F800B3204C04F23C4010F0C5FE2046012111F0C0
:202DE00073FF20B92046002111F06EFF88B1194901F23C4010F04EFC034650B1154A92F80C
:202E00003C2412F0700F1DBF1349144A116000235BB913480021FFF723FD4FF47A7018F0CC
:202E2000AFFA0420FFF71CF806E00E49084609311422022310F042F8FEF7FCFCFEF78CFDF6
:202E4000094A0A4B1A6010BD04380020A0D40200A03A00200497FF1F409BFF1FCC3A0020DF
:202E6000ACD40200A49CFF1F39070000D03A002038B513480121FFF7F3FC4FF47A7018F084
:202E80007FFAFEF7CFFF0F4C04F1100594F824301BB1284613F036FB02E0204613F084FD77
:202EA0000028F3D0074B1B6A012119700648FFF7D7FCFEF7BDFF4FF47A7018F061FA38BD58
:202EC000C4D40200E895FF1FE8D4020010B50F480FF008FF98B10E4B1B7893B9002010BD6F
:202EE000FFF7C6FF09480FF01BFF012010BD0024084B1C7005480FF013FF204610BD00200B
:202F000010BD044B1B78002BF1D1E9E7B09DFF1F1F380020889BFF1F10B50446124B1B7823
:202F200083B10420002118F085F900220E4B1A70C4B10E480121FFF793FC4FF47A7018F0E6
:202F40001FFA10BD0420012118F074F90122064B1A703CB106481146FFF782FC4FF47A709F
:202F600018F00EFA10BD00BF60370020FCD4020010D5020000B583B0124812F02FFA12F0D6
:202F80000FFAB0F5FC6F1ADA962017F007FEC82815D10D480021FFF763FC40F2DC5018F05B
:202FA000EFF9012300934FF4FC62019200200146024612F0FBF912F073F918F02BF903B04C
:202FC0005DF804FB8907000024D5020010B51F4B1B78002B37D10020FEF74EFB1C4901F564
:202FE0008C6001F26C41142202230FF067FF00B3174C04F23C4010F0B5FD2046012111F0C2
:2030000063FE20B92046002111F05EFE88B1104901F23C4010F03EFB034650B10C4A92F82E
:203020003C2412F0700F1DBF0A490B4A1160002353B90A480021FFF713FC4FF47A7018F0DE
:203040009FF9002300E00123184610BDA03A00200497FF1F409BFF1FCC3A002048D5020095
:2030600010B582B00520002118F016F91548164B03621030802113F06FFA20B10122114B3C
:2030800083F824201BE00F4C204613F0C9FA94F82430A3B96846214613F060FCBDF9003059
:2030A00013B9BDF9023053B108480021FFF7D8FB4FF47A7018F064F90320FEF7D1FE02B0F3
:2030C00010BD00BFE895FF1F889BFF1F60D5020008B5FA2017F062FDD7283BD01E4B1B780E
:2030E00033B9FFF7B9FA1D480021FFF7B9FBFEE7D62823D8C72806D8FFF7AEFA1748002142
:20310000FFF7AEFBFEE7D4280FD89920002117F05BFD7E20002117F057FD9020002117F01D
:2031200053FD9820002117F04FFD0D480021FFF797FB4FF47A7018F023F907E0094800216B
:20314000FFF78EFB4FF47A7018F01AF9FA20D72117F03AFD08BD00BFA03A002080D5020083
:20316000A4D50200BCD5020030B583B0054631B11A48C8210A460B4614F0C8FB0FE0174CF7
:203180002046C8210A460B4614F0CEFBEA230093204606210A464FF49D7315F029F80F4C21
:2031A00020460F4915F0FEFF2046C8210A460B4614F0D6FB2046002114F0C4FB002300938A
:2031C0002046294642F20E72192315F01DFE2046044915F0E7FF03B030BD00BF949BFF1FC0
:2031E000A83C03008C480300F0B585B045480021FFF7BAFF444D2846002114F0A3FB434E87
:203200002846314615F0CEFF2846C8210A460B4614F0A6FB0024009428463D4942F20E72FA
:20322000412315F0F1FD009428463A4942F20E72552315F0E9FD00942846374942F20E7265
:20324000692315F0E1FD00942846344942F20E727D2315F0D9FD324D284617F0ADF9284649
:20326000304917F0B1FB372700972F4B0193029403942846A521A0228C2316F0B7FF0097FA
:203280002A4B01930294039428460F21A0228C2316F0ACFF284617F06BF92846314617F073
:2032A00093FB234C04F11006012594F824301BB1304613F027F902E0204613F075FB10B11F
:2032C000236A1D70F1E71A4C04F1100594F824301BB1284613F016F902E0204613F064FBB6
:2032E0000028F3D0236A012119700D48002217F093F910B10128E9D101E0012000E00020FB
:2033000005B0F0BDD4D50200949BFF1F8C480300E8D502000CD6020030D6020058D60200A1
:203320005C350020A83C03007CD6020080D60200E895FF1F08B50F4B1B7843B90E48002191
:20334000FFF78EFA4FF47A7018F01AF808BDFFF74BFF68B109480021FFF782FA40F2DC5048
:2033600018F00EF88120C82117F02EFCFEF7BAF808BD00BFA03A002084D60200A4D6020087
:2033800030B583B0894C2046C8210A460B4614F0BDFA2046864915F005FF2046C8210A46B8
:2033A0000B4614F0DDFA20461F2114F0CBFA0025009520467F4942F20E720A2315F024FD83
:2033C00020467D4915F0EEFE009520467B4942F20E72DC2315F018FD2046294614F0B2FABF
:2033E0000095204676493222134615F00DFD0095204674493222462315F006FD00952046DF
:20340000714932225A2315F0FFFC009520466F4932226E2315F0F8FC009520466C4932228C
:20342000822315F0F1FC009520466A493222962315F0EAFC0095204667493222AA2315F07E
:20344000E3FC0095204665493222BE2315F0DCFC2846FEF7FBFC38B1009520466049DC22ED
:20346000322315F0D1FC09E0002400944F485D49DC22322315F0C8FC5B4B1C700120FEF7E3
:20348000E5FC40B10023009348485549DC22462315F0BAFC07E00023009344485149DC2293
:2034A000462315F0B1FC0220FEF7D0FC40B1002300933E484A49DC225A2315F0A5FC09E044
:2034C0000024009439484749DC225A2315F09CFC464B1C700320FEF7B9FC40B1002300937A
:2034E00032483F49DC226E2315F08EFC07E0002300932E483B49DC226E2315F085FC0420DC
:20350000FEF7A4FC40B10023009328483449DC22822315F079FC07E00023009323483149E3
:20352000DC22822315F070FC0520FEF78FFC40B1002300931D482A49DC22962315F064FC37
:2035400007E00023009319482649DC22962315F05BFC0620FEF77AFC40B100230093134858
:203560001F49DC22AA2315F04FFC07E0002300930E481C49DC22AA2315F046FC0720FEF742
:2035800065FC40B10023009308481549DC22BE2315F03AFC07E00023009304481149DC221A
:2035A000BE2315F031FC03B030BD00BF949BFF1FA83C0300C4D602008C480300D4D6020046
:2035C000F8D6020008D7020018D7020028D7020038D7020048D7020058D7020068D70200A4
:2035E00078D70200D0D20200A29CFF1F6C9CFF1F08B5064B1B78FF2B07D0FEF73DFCFFF78E
:20360000BFFE4FF4FA6017F0BBFE08BD9087FF1F08B5104B1B7863B90F4B1B7823B90F48AF
:203620000021FFF7E9F811E00D480021FFF7E4F80CE0012B04D10B480021FFF7DDF805E048
:20364000022B03D108480021FFF7D6F80322074B1A7008BD2A3800206437002080D70200D8
:2036600094D70200A8D70200BCD70200E695FF1F30B583B00546104C2046104915F092FD1C
:203680002046002114F05EF92046C8210A460B4614F066F902230093302301932046294681
:2036A00042F20E72502315F085FC2046044915F079FD03B030BD00BF949BFF1FA83C03009C
:2036C0008C48030070B506460D4608460D491CF055FD1CF019FF0C4C84FB0034C217C2EB98
:2036E0006414642202FB140428461CF00DFF02463046064984EAE473A3EBE4731DF0AAFDC6
:2037000070BD00BF0000C8421F85EB51D0D7020070B584B0244E2548314617F055F9244CB6
:203720002046314615F03EFD2046FF210A460B4614F0ECF820461F4915F034FD2046FF21D3
:203740000A460B4614F00CF92046002114F0FAF895230093184B0193184B029320465A2127
:2037600023228C2313F0DCFB002500952046144942F20E72C22315F047FB2046314615F03C
:2037800011FD009520460F4942F20E720A2315F03BFB009520460C4942F20E72DC2315F0A4
:2037A00033FB04B070BD00BF8C4803005C350020949BFF1FA83C03005062020000C9020000
:2037C000D8D70200E0D70200F0D7020000B58BB00D4B1B680293029A0C4B1B68D21A0C4B9D
:2037E000A3FB0212920903A80A49C2F13C021DF031FD00230093084803A92D22C82315F061
:2038000003FB0BB05DF804FB9C3B0020989CFF1FD34D621010D80200949BFF1F10B582B092
:203820000020FFF757F8124B19784BB2B3F1FF3F14D0104C0323009320230193204649B225
:203840004FF48C72002315F0B5FB00230093204609494FF49B7215F0D7FA06E0002300931F
:2038600004480649F02215F0CFFA02B010BD00BF16380020949BFF1FA8E702002CD802003D
:203880002DE9F04182B03A4B1B79002B36D011F073FD0146364D4FF00208CDF80080302745
:2038A000019728460522002315F084FB314E00240094284631461722234615F0A5FA11F0D1
:2038C00065FD0146CDF80080019728461B22234615F070FB0094284631462D22234615F0A8
:2038E00093FA11F05DFD0146042300932023019328463122234615F05DFB35E011F03CFD32
:2039000001461B4D4FF00208CDF800803027019728460522002315F04DFB164E002400945A
:20392000284631461422234615F06EFA11F02EFD0146CDF80080019728461B22234615F02D
:2039400039FB0094284631462A22234615F05CFA11F026FD01460423009320230193284640
:203960003122234615F026FB02B0BDE8F08100BF949BFF1F50E7020030B58BB0204B1B7939
:203980009BB1204B1B78002B37D002A81E4918F01DFE002300931A4802A9CF22E42315F0B7
:2039A000E9FA02A818F0A8FD27E0164B1B78ABB9134C0025009520461449DC22E42315F088
:2039C00023FA0095202301932046D7214FF49172E42315F0EFFA0B4B1B7873B106A80A49B7
:2039E00018F0F4FD00230093054806A9E622E42315F0C0FA06A818F07FFD0BB030BD00BFB5
:203A0000949BFF1FA03A00200438002038D802002DE9F04182B0384B1B79002B34D011F031
:203A20008DFC0146344C022600963025019520460522E42315F0BEFA304F4FF00008CDF8B1
:203A40000080204639461722E42315F0DDF911F07FFC01460096019520461B22E42315F048
:203A6000A9FACDF80080204639462D22E42315F0CBF911F077FC01460096019520463122BA
:203A8000E42315F097FA33E011F058FC01461A4C022600963025019520460522E42315F032
:203AA00089FA164F4FF00008CDF80080204639461422E42315F0A8F911F04AFC01460096A6
:203AC000019520461B22E42315F074FACDF80080204639462A22E42315F096F911F042FCE3
:203AE00001460096019520463122E42315F062FA02B0BDE8F08100BF949BFF1F44D8020040
:203B000030B583B0194C204678210A460B4613F00BFFEA230093204606210A464FF49D73AB
:203B200014F066FB2046C8210A460B4613F0FCFEB42500952046062124224FF49D7313F09C
:203B40007FF82046002113F0FDFE2046062124224FF49D7314F0FCF9204606212A464FF40A
:203B60009D7314F0F5F903B030BD00BF949BFF1FF0B585B0264C204616F01EFD20462549F0
:203B800016F022FF4D270097234B0193002502950126039620460F212D22262316F026FB20
:203BA00000971E4B019302950396204640F20B112D22262316F01AFB28230093184B019305
:203BC0000295039520460F21BC22782316F00EFB23230093134B01930295039520465F21B8
:203BE0008422822316F002FB204616F0C1FC0E4C20461F2113F0A6FE6F23009320464121BA
:203C0000392240F2011314F0A3FC05B0F0BD00BF5C350020A83C030048D802004CD802005F
:203C200050D80200BCD20200949BFF1F30B583B005460D4C20460D4915F0B4FA2046782153
:203C40000A460B4613F08CFE20464FF6FF7113F079FE002300932046294642F20E720E2331
:203C600015F0D2F803B030BD949BFF1FA83C030030B583B00546114C20464FF6FF7113F0C3
:203C800061FE6F230093204642213A2240F2011312F0D6FF20464FF6FF7113F073FE204669
:203CA0001F2113F04FFE002300932046294642F20E724D2315F0A8F803B030BD949BFF1F33
:203CC000F0B585B0002849D1FFF71AFF3748FFF7ADFF374C2046002113F034FE2046C8210A
:203CE0000A460B4613F03CFE2046324915F05AFA002500952046304942F20E723F2315F0F8
:203D000083F8009520462D4942F20E72602315F07BF82B4E304616F04FFC2A4F304639465A
:203D200016F052FE28230093274B01930295039530465A21BC228C2316F058FA304616F0C8
:203D400017FC2046394615F02DFA009520461F4942F20E728C2315F057F825E0144C20465A
:203D6000C8210A460B4613F0D1FD2046154915F019FA2046C8210A460B4613F0F1FD2046C5
:203D8000002113F0DFFD002500952046074942F20E72642315F038F8009520460B4942F2C0
:203DA0000E728C2315F030F805B0F0BD58D80200949BFF1F8C48030068D8020088D802004B
:203DC0005C350020A83C0300ACD80200B4D8020070B584B0FFF794FE3448FFF727FF344D3D
:203DE0002846002113F0AEFD324E2846314615F0D9F92846C8210A460B4613F0B1FD00247D
:203E0000009428462C4942F20E72422314F0FCFF28462A4915F0C6F900942846284942F2C7
:203E20000E72C92314F0F0FF264D284616F0C4FB2846314616F0C8FD37260096224B0193D9
:203E4000029403942846A5216A228C2316F0CEF900961E4B01930294039428460F216A220F
:203E60008C2316F0C3F9284616F082FB184C04F1100594F824301BB1284612F043FB02E036
:203E8000204612F091FD0028F3D0236A012119700C48002216F0C0FB10B10128E9D101E04D
:203EA000012000E0002004B070BD00BFC0D80200949BFF1FA83C0300D0D802008C480300F2
:203EC000DCD802005C3500207CD6020080D60200E895FF1F08B5032803D8DFE800F00A04AC
:203EE0000608064806E0064804E0064802E0064800E00648FFF7BCFE08BD00BF2CEE020052
:203F00000CD9020018D9020024D9020000D9020008B5032803D8DFE800F00A040608064809
:203F200006E0064804E0064802E0064800E00648FFF79EFE08BD00BF2CEE02000CD90200A4
:203F400018D9020024D9020030D9020008B5042804D8DFE800F00D0507090B00064808E085
:203F6000064806E0064804E0064802E0064800E00648FFF77DFE08BD2CEE02003CD90200C6
:203F800044D9020048D9020050D9020034D9020070B5264B1B78022B04D0012B14BF002656
:203FA000042600E00226FFF7ABFD2148FFF73EFEFFF7DEFD3046FFF7C9FF1E4C04F110051D
:203FC00094F824301BB1284612F09CFA02E0204612F0EAFC0028F3D0236A0121197016487E
:203FE000002216F019FB032807D1144B1E708A20314616F0E9FD012070BD022814D018B95B
:204000006EB1013EF6B20BE0012809D1032E02D80136F6B204E0042E08BF002600E00426B5
:204020003046FFF793FFCBE7002070BD7637002058D90200E895FF1F5C3500201096FF1F73
:2040400008B512280BD8DFE800F0300C0E10121416181A1C1E20222426282A2C2E00154838
:2040600024E0154822E0154820E015481EE015481CE015481AE0154818E0154816E0154870
:2040800014E0154812E0154810E015480EE015480CE015480AE0154808E0154806E01548D0
:2040A00004E0154802E0154800E01548FFF7E0FD08BD00BF2CEE020070D902007CD902002E
:2040C00088D9020090D902009CD90200A8D90200B4D90200BCD90200C8D90200D0D90200A4
:2040E000DCD90200E4D90200ECD90200F4D90200FCD9020004DA02000CDA020018DA020021
:2041000068D9020070B584B0FFF7FAFC4548FFF78DFD454D284616F04FFA2846434916F0BB
:2041200053FC7A260096424B019300240294039428460F212D225A2316F058F800963D4BAA
:20414000019302940394284673212D225A2316F04DF80096384B0193029403942846D72145
:204160002D225A2316F042F828230093334B01930294039428460F21BC22782316F036F8CB
:20418000284616F0F5F92E4C04F1100594F824301BB1284612F0B6F902E0204612F004FC24
:2041A0000028F3D0236A012119701F48002216F033FA70B923480121FEF752FB0020FCF715
:2041C000A3FC0021204B1970712016F0FDFC012025E001280FD11B480121FEF741FB222074
:2041E000FCF792FC0124184B1C707120214616F0EBFC204613E002280ED112480121FEF772
:204200002FFB2220FCF780FC02210F4B1970712016F0DAFC012002E00328B7D1002004B0C6
:2042200070BD00BF20DA02005C3500208C4803002CDA020034DA02003CDA020050D80200B4
:20424000E895FF1F48DA02002A38002008B5092868D8DFE800F0050E172029323B444E5C6A
:20426000384B1878384B394A00280CBF1046184665E0374B1878374B374A00280CBF1046DB
:2042800018465CE0354B1878354B364A00280CBF1046184653E0344B1878344B344A002866
:2042A0000CBF104618464AE0324B1878324B334A00280CBF1046184641E0314B1878314BFE
:2042C000314A00280CBF1046184638E02F4B18782F4B304A00280CBF104618462FE02E4B77
:2042E0001B78022B20D02D4A2D48012B08BF104625E02C4B1B78012B18D0022B18D0032B73
:2043000018D0294A2948042B08BF104617E0284B1B788BB1012B11D0264A2748022B08BF6C
:2043200010460CE025480AE0254808E0254806E0254804E0254802E0254800E02548FFF7EC
:2043400097FC08BDD596FF1FC0DA020058DA0200FC370020CCDA020064DA0200909CFF1F27
:20436000D4DA020070DA0200A29CFF1FDCDA02007CDA0200809BFF1FE4DA020088DA020078
:2043800068370020ECDA020090DA020020380020F8DA02009CDA0200A49DFF1FA8DA020083
:2043A00010DB02001738002034DB020028DB02001D380020C8D9020058DB02002CEE020022
:2043C00004DB02001CDB0200B4DA020040DB02004CDB020088D90200F0B585B00546864CD3
:2043E0002046002113F0AEFAEB230093204605210A4640F23B1313F0FBFEEC23009320468A
:2044000004210A464FF49E7313F0F2FE2046C8210A460B4613F088FAEA230093204606213E
:204420000A464FF49D7313F0E3FE744816F0C4F8002D27D1714E50240094714B0193714B7F
:20444000029300270397304617211C22234615F0FBFE00946C4B01936C4B02930397304678
:2044600078211C22234615F0EFFE0094684B0193684B029303973046D9211C22234615F031
:20448000E3FE53E0012D27D15C4D50240094624B0193624B029300260396284617211C220B
:2044A000234615F0D1FE00945D4B01935D4B02930396284678211C22234615F0C5FE00940F
:2044C000594B0193594B029303962846D9211C22234615F0B9FE63E0022D27D1474D502495
:2044E0000094534B0193534B029300260396284617211C22234615F0A7FE00944E4B01934C
:204500004E4B02930396284678211C22234615F09BFE00944A4B01934A4B0293039628469A
:20452000D9211C22234615F08FFE39E0032D37D150230093444A0192444A029200220392F7
:204540002E4817211C2215F07FFE414B1B786BB9502300933F4A01923F4A029200220392B4
:20456000264878211C2215F06FFE0CE0502300933A4A01923A4A0292002203921F487821AC
:204580001C2215F061FE50230093364A0192364A0292002203921948D9211C2215F054FEA5
:2045A000164D50240094314B0193314B029300260396284617218422234615F045FE00941F
:2045C0002C4B01932C4B02930396284678218422234615F039FE0094284B0193284B029336
:2045E00003962846D9218422234615F02DFE284615F0BEFF05B0F0BD949BFF1F5C350020EB
:2046000038FF020098150300B08D0200205F0200580F0300A8F6020008A30200386202009E
:20462000B0180300A8180300F0AE0200902103009821030000A3020020C0020030B502006E
:2046400040560200E8AE020018090300305F02002A38002020C90200A0180300182E030004
:20466000F0F80200D827030048620200F0930200285F0200F8F80200D8B7020068F00200B7
:2046800040620200F0B583B007460E46FEF78CF8234C20464FF0FF3113F074F92046214900
:2046A00014F080FD0025009520461F49DC220A2314F0AAFB009520461C4905220A2314F065
:2046C000A3FB012F0ED00095204619490A226E2314F09AFB00952046164940F227126E2325
:2046E00014F092FB0E4C00250095204612490522D22314F089FB009520461049FA22D2234B
:2047000014F082FB20460E4914F04CFD00952046314650220C2314F077FB03B0F0BD00BF66
:20472000949BFF1FA83C030064DB02006CDB020048D802004CD8020074DB02007CDB0200C9
:204740008C4803002DE9F0418EB006465E480021FEF70AFD5D4D2846002113F0F3F85C4F1C
:204760002846394614F01EFD2846C8210A460B4613F0F6F8002400942846564942F20E72CB
:20478000422314F041FB00942846534942F20E72692314F039FB00942846504942F20E720F
:2047A0007D2314F031FB4E4D284615F005FF28464C4916F009F94FF03708CDF800804A4BB4
:2047C0000193029403942846A521A0228C2315F00DFDCDF80080454B019302940394284660
:2047E0000F21A0228C2315F001FD284615F0C0FE2846394616F0E8F83D4C04F1100594F8F2
:2048000024301BB1284611F07DFE02E0204612F0CBF80028F3D0236A0121197030480022C4
:2048200015F0FAFE002849D132480021FEF718F80020FCF721FF304831460FF0F7F906F191
:204840000E042E4B1868C6F80E001B7923712C4B1B787BB100238DF814308DF8153005A8C0
:204860002549324601230FF085F918B1224831460FF0DCF9234B1868C6F80E001B79237151
:20488000214B1B787BB100238DF814308DF8153005A81949324601230FF06CF918B1164801
:2048A00031460FF0C3F9FCF7C5FF18480021FDF7D7FF4FF47A7016F063FD01E001289ED1B8
:2048C0000EB0BDE8F08100BF84DB0200949BFF1F8C48030094DB0200B8DB0200D4DB020009
:2048E0005C350020A83C03007CD6020080D60200E895FF1FF0DB0200409BFF1F00DC020035
:204900006C9CFF1F08DC02006437002010DC0200F0B585B041480121FEF726FC404D28464B
:20492000002113F00FF83F4E2846314614F03AFC2846C8210A460B4613F012F800240094E3
:204940002846394942F20E72422314F05DFA00942846364942F20E72692314F055FA00944B
:204960002846334942F20E727D2314F04DFA314D284615F021FE28462F4916F025F8372737
:2049800000972E4B0193029403942846A521A0228C2315F02BFC0097294B019302940394A9
:2049A00028460F21A0228C2315F020FC284615F0DFFD2846314616F007F8224C04F1100615
:2049C000012594F824301BB1304611F09BFD02E0204611F0E9FF10B1236A1D70F1E7194CAD
:2049E00004F1100594F824301BB1284611F08AFD02E0204611F0D8FF0028F3D0236A012151
:204A000019700C48002215F007FE10B10128E9D101E0012000E0002005B0F0BD20DC020087
:204A2000949BFF1F8C48030034DC020050DC02006CDC02005C350020A83C03007CD60200DC
:204A400080D60200E895FF1F2DE9F04184B00F4690460021FEF788FB3B4C204615F0ACFD89
:204A600046250095394B0193002602960396204614213C222B4615F0B9FB0095344B0193FC
:204A8000029603962046E6213C222B4615F0AEFB0095304B019302960396204614219622D3
:204AA000822315F0A3FB00952B4B0193029603962046AA219622822315F098FB204615F04D
:204AC00057FD3868FEF7D4FD244C04F1100594F824301BB1284611F015FD02E0204611F02C
:204AE00063FF0028F3D0236A01221A70164800210A4615F091FD01280BD1002E01DD013E7D
:204B000002E00EB908F1FF3657F82600FEF7B0FDDDE768B908F1FF33B34201DD013602E0AB
:204B2000B34208BF002657F82600FEF7A1FDCEE7022803D00328CAD1304601E04FF0FF304E
:204B400004B0BDE8F08100BF5C35002000DF02008CDC020050D8020090DC0200E895FF1F9D
:204B60002DE9F04F8DB00390FDF71EFEBD4C2046BD4914F017FB20464FF0FF3112F002FF9D
:204B8000EB25009520469521E1229F2313F068FD009520469621E122A02313F061FD0095B9
:204BA00020469721E122A12313F05AFDE126009620469F212A46A92313F052FD0096204669
:204BC000A0212A46AA2313F04BFD00962046A1212A46AB2313F044FD4FF07709CDF8009038
:204BE00020460F216D22052313F03AFD4FF07808CDF8008020460F216E22052313F030FDAC
:204C00007927009720460F216F22052313F028FD4FF0810BCDF800B0204605214A460F2358
:204C200013F01EFD822300932046052142460F2313F016FD83230093204605213A460F234B
:204C400013F00EFD05250095204695210F229F2313F006FD0095204696210F22A02313F0C9
:204C6000FFFC0095204697210F22A12313F0F8FC4FF00F0ACDF800A020469F212A46A9237B
:204C800013F0EEFCCDF800A02046A0212A46AA2313F0E6FCCDF800A02046A1212A46AB23AE
:204CA00013F0DEFCCDF80090204640F231116D2240F23B1313F0D4FCCDF80080204640F229
:204CC00031116E2240F23B1313F0CAFC0097204640F231116F2240F23B1313F0C1FCCDF8B2
:204CE00000B0204640F23B114A4640F2311313F0B7FC82230093204640F23B11424640F28E
:204D0000311313F0ADFC83230093204640F23B113A4640F2311313F0A3FC04A8522117F0C8
:204D2000A9FC00270097204604A92A462B4614F021F904A817F0E0FB08A8412117F09AFCC1
:204D40000097204608A92A46334614F013F908A817F0D2FB039B002B3DD12046FF213A464B
:204D60003B4612F0E1FD1925009520464FF4937105224FF49D7313F073FC0095204640F239
:204D80002711052240F23B1313F06AFC009520464FF4947105224FF49E7313F061FC052682
:204DA000009620464FF493712A464FF49D7313F057FC0096204640F227112A4640F23B1341
:204DC00013F04EFC009620464FF494712A464FF49E7313F045FC234C20460021FF220B46D2
:204DE00012F0A2FDEB25009520464FF49371E1224FF4987313F034FC0095204640F22711D7
:204E0000E12240F2311313F02BFC009520464FF49471E1224FF4997313F022FCD7260096A6
:204E200020464FF498712A464FF49D7313F018FC0096204640F231112A4640F23B1313F083
:204E40000FFC009620464FF499712A464FF49E7313F006FC2046054914F0A4F90DB0BDE87E
:204E6000F08F00BF949BFF1FA83C03008C48030010B582B0FDF798FC0C4C20464FF0FF313D
:204E800012F080FD20460A4914F08CF9002300932046084942F20E726E2313F0B5FF204682
:204EA000054914F07FF902B010BD00BF949BFF1FA83C030048DA02008C48030008B50328D3
:204EC00003D8DFE800F00A040608064806E0064804E0064802E0064800E00648FEF7C8FE57
:204EE00008BD00BF2CEE02000CD9020018D9020024D9020000D9020070B5FEF701FE81487C
:204F0000FEF794FEFEF734FE0020FFF7D7FF00267D4C04F1100594F824301BB1284611F0E3
:204F2000F1FA02E0204611F03FFD0028F3D0236A012119707548002215F06EFB032840F036
:204F4000C480032E00F2D980DFE806F0020845829920002115F038FE012070BD79206C4B50
:204F6000197815F031FE7A206A4B197815F02CFE7B20694B197815F027FE7C20674B197874
:204F800015F022FE664B186866491BF0F7F8044600211BF0A5FA40B120464FF07C511AF090
:204FA000E5FF1BF0B1FA014607E020464FF07C511AF0DAFF1BF0A8FA01467D20C9B215F0C3
:204FC00003FE7E20C82115F0FFFD9920012115F0FBFD012070BD8B204D4B197815F0F4FD58
:204FE0008C204C4B197815F0EFFD8D204A4B197815F0EAFD8E20494B197815F0E5FD484BE0
:20500000186848491BF0BAF8044600211BF068FA40B120464FF07C511AF0A8FF1BF074FA5D
:20502000014607E020464FF07C511AF09DFF1BF06BFA01468F20C9B215F0C6FD9020C821E8
:2050400015F0C2FD9920022115F0BEFD012070BD91202F4B197815F0B7FD92202D4B197872
:2050600015F0B2FD93202C4B197815F0ADFD94202A4B197815F0A8FD294B186829491BF03D
:205080007DF8044600211BF02BFA40B120464FF07C511AF06BFF1BF037FA014607E0204659
:2050A0004FF07C511AF060FF1BF02EFA01469520C9B215F089FD9820C82115F085FD992065
:2050C000032115F081FD012070BD18B986B1013EF6B20EE0012808D1022E02D80136F6B213
:2050E00007E0032E08BF002603E0022801D106E003263046FFF7E2FE0DE7012070BD00200F
:2051000070BD00BF98DC0200E895FF1F5C3500209E9CFF1F1C380020749BFF1F723700201F
:20512000403500200000C84208B5032803D8DFE800F00A040608064806E0064804E0064886
:2051400002E0064800E00648FEF792FD08BD00BF2CEE02000CD9020018D9020024D90200F4
:2051600030D9020070B584B001461D48FDF7FCFF1C4D284615F020FA462600961A4B01933F
:20518000002402940394284614213C22822315F02DF80096154B0193029403942846AA21FE
:2051A0003C22822315F022F80096114B019302940394284614219622822315F017F8009670
:2051C0000C4B0193029403942846AA219622822315F00CF8284615F0CBF904B070BD00BF41
:2051E000A8DC02005C350020B0DC0200B4DC0200BCDC020050D802002DE9F04784B00146CC
:205200006F48FDF7B1FF6F4D284615F0D5F9462600966D4B019300240294039428461421F4
:205220003C22334614F0E2FF0096684B0193029403942846E6213C22334614F0D7FF0096EC
:20524000634B0193029403942846142196224FF48C7314F0CBFF284615F08AF910F08CF8FA
:20526000FEF706FA5B4C04F1100594F824301BB1284611F047F902E0204611F095FB00282C
:20528000F3D0236A012119704E48002215F0C4F9002842D110F070F80028E6DD10F06CF8A7
:2052A00001281ADD10F04AF8814610F051F8804610F058F8074610F05FF8064610F066F818
:2052C000824610F06DF8CDF800A00190484641463A46731E10F06AF81AE010F04DF80128BB
:2052E00016D110F02BF8804610F032F8074610F039F8064610F04AF8814610F051F8CDF8D3
:20530000009001904046394632461F2310F04EF810F032F8FEF7ACF9A7E7012842D110F0D9
:205320002BF81F28A1DC10F027F81E281ADC10F005F8814610F00CF8804610F013F8074645
:2053400010F01AF8064610F021F8824610F028F8CDF800A00190484641463A46731C10F0D4
:2053600025F81AE010F008F81F2816D10FF0E6FF80460FF0EDFF07460FF0F4FF064610F0C8
:2053800005F8814610F00CF8CDF800900190404639463246012310F009F80FF0EDFFFEF7DD
:2053A00067F962E702287FF460AF0FF079FF15F031FF0020FFF7D6FE04B0BDE8F08700BF73
:2053C000B0DC02005C35002000DF02008CDC020050D80200E895FF1F2DE9F04784B00146B6
:2053E0007048FDF7C1FE704D284615F0E5F8462600966E4B019300240294039428461421F2
:205400003C22334614F0F2FE0096694B0193029403942846E6213C22334614F0E7FE0096EB
:20542000644B0193029403942846142196224FF48C7314F0DBFE284615F09AF80FF0A6FFD9
:20544000FEF716F95C4C04F1100594F824301BB1284611F057F802E0204611F0A5FA00281C
:20546000F3D0236A012119704F48002215F0D4F8002843D10FF08AFF0028E6DD0FF086FF74
:2054800001281BDD0FF05AFF81460FF061FF80460FF068FF07460FF06FFF06460FF076FFC7
:2054A00082460FF07DFF0AF1FF3300930190484641463A4633460FF079FF1AE00FF066FF75
:2054C000012816D10FF03AFF81460FF041FF80460FF048FF07460FF04FFF06460FF060FF2E
:2054E0000C2300930190484641463A4633460FF05DFF0FF04BFFFEF7BBF8A6E7012843D135
:205500000FF044FF0C28A0DC0FF040FF0B281BDC0FF014FF81460FF01BFF80460FF022FF59
:2055200007460FF029FF06460FF030FF82460FF037FF0AF1010300930190484641463A46C8
:2055400033460FF033FF1AE00FF020FF0C2816D10FF0F4FE81460FF0FBFE80460FF002FFF8
:2055600007460FF009FF06460FF01AFF012300930190484641463A4633460FF017FF0FF009
:2055800005FFFEF775F860E702287FF45EAF0FF087FE15F03FFE0020FFF7E4FD04B0BDE89E
:2055A000F08700BFB4DC02005C35002000DF02008CDC020050D80200E895FF1F2DE9F04715
:2055C00084B001465048FDF7CFFD504D284614F0F3FF462600964E4B019300240294039477
:2055E000284614213C22334614F000FE0096494B0193029403942846E6213C22334614F0F4
:20560000F5FD0096444B0193029403942846142196224FF48C7314F0E9FD284614F0A8FF12
:205620000FF0BEFEFEF724F83C4C04F1100594F824301BB1284610F065FF02E0204611F045
:20564000B3F90028F3D0236A012119702F48002214F0E2FF20BB0FF0A3FEB0F5FC6FE6DDAF
:205660000FF06CFE81460FF073FE80460FF07AFE07460FF081FE06460FF088FE82460FF0EA
:205680008FFECDF800A001380190484641463A4633460FF08BFE0FF083FEFDF7E9FFC6E7AF
:2056A000012825D10FF07CFE40F632039842BEDC0FF044FE81460FF04BFE80460FF052FE0E
:2056C00007460FF059FE06460FF060FE82460FF067FECDF800A001300190484641463A4696
:2056E00033460FF063FE0FF05BFEFDF7C1FF9EE702289CD10FF0D4FD15F08CFD0020FFF735
:2057000031FD04B0BDE8F087BCDC02005C35002000DF02008CDC020050D80200E895FF1F30
:2057200070B584B001461D48FDF71EFD1C4D284614F042FF462600961A4B01930024029484
:205740000394284614213C22822314F04FFD0096154B0193029403942846AA213C228223C9
:2057600014F044FD0096114B019302940394284614219622822314F039FD00960C4B019376
:20578000029403942846AA219622822314F02EFD284614F0EDFE04B070BD00BFC4DC020078
:2057A0005C350020CCDC0200D4DC0200DCDC020050D802002DE9F04784B001466E48FDF786
:2057C000D3FC6E4D284614F0F7FE462600966C4B0193002402940394284614213C223346C0
:2057E00014F004FD0096674B0193029403942846E6213C22334614F0F9FC0096624B01937F
:20580000029403942846142196224FF48C7314F0EDFC284614F0ACFE0FF0A4FDFDF728FFFA
:205820005A4C04F1100594F824301BB1284610F069FE02E0204611F0B7F80028F3D0236AC7
:20584000012119704D48002214F0E6FE002841D10FF088FD0028E6DB0FF084FD00281ADDB8
:205860000FF06CFD81460FF073FD80460FF07AFD07460FF081FD06460FF088FD82460FF0ED
:205880008FFDCDF800A00190484641467A1E33460FF08CFD19E00FF065FDB0B90FF04EFDCB
:2058A00080460FF055FD07460FF066FD06460FF06DFD81460FF074FDCDF8009001904046CA
:2058C00039463B2233460FF071FD0FF04BFDFDF7CFFEA8E7012842D10FF044FD3B28A2DC12
:2058E0000FF040FD3A281ADC0FF028FD81460FF02FFD80460FF036FD07460FF03DFD064634
:205900000FF044FD82460FF04BFDCDF800A00190484641467A1C33460FF048FD1AE00FF0E1
:2059200021FD3B2816D10FF009FD80460FF010FD07460FF021FD06460FF028FD81460FF088
:205940002FFDCDF80090019040463946002233460FF02CFD0FF006FDFDF78AFE63E702287B
:205960007FF461AF0FF09CFC15F054FC0020FFF7D7FE04B0BDE8F087DCDC02005C35002092
:2059800000DF02008CDC020050D80200E895FF1F2DE9F04784B001466F48FDF7E5FB6F4DE8
:2059A000284614F009FE462600966D4B0193002402940394284614213C22334614F016FC3F
:2059C0000096684B0193029403942846E6213C22334614F00BFC0096634B01930294039461
:2059E0002846142196224FF48C7314F0FFFB284614F0BEFD0FF0ACFCFDF73AFE5B4C04F170
:205A0000100594F824301BB1284610F07BFD02E0204610F0C9FF0028F3D0236A01211970AC
:205A20004E48002214F0F8FD002842D10FF090FC0028E6DB0FF08CFC00281BDD0FF07EFCE6
:205A400081460FF085FC80460FF08CFC07460FF093FC06460FF09AFC82460FF0A1FCCDF8CD
:205A600000A00190484608F1FF313A4633460FF09DFC19E00FF06CFCB0B90FF05FFC8046C4
:205A80000FF070FC07460FF077FC06460FF07EFC81460FF085FCCDF80090019040463B2108
:205AA0003A4633460FF082FC0FF052FCFDF7E0FDA7E7012843D10FF04BFC3B28A1DC0FF062
:205AC00047FC3A281BDC0FF039FC81460FF040FC80460FF047FC07460FF04EFC06460FF00B
:205AE00055FC82460FF05CFCCDF800A00190484608F101013A4633460FF058FC1AE00FF072
:205B000027FC3B2816D10FF019FC80460FF02AFC07460FF031FC06460FF038FC81460FF05B
:205B20003FFCCDF800900190404600213A4633460FF03CFC0FF00CFCFDF79AFD61E7022869
:205B40007FF45FAF0FF0ACFB15F064FB0020FFF7E7FD04B0BDE8F087D4DC02005C3500208D
:205B600000DF02008CDC020050D80200E895FF1F2DE9F04784B001466F48FDF7F5FA6F4DF7
:205B8000284614F019FD462600966D4B0193002402940394284614213C22334614F026FB3F
:205BA0000096684B0193029403942846E6213C22334614F01BFB0096634B01930294039470
:205BC0002846142196224FF48C7314F00FFB284614F0CEFC0FF0B2FBFDF74AFD5B4C04F15B
:205BE000100594F824301BB1284610F08BFC02E0204610F0D9FE0028F3D0236A01211970AD
:205C00004E48002214F008FD002842D10FF096FB0028E6DB0FF092FB00281BDD0FF08EFBDB
:205C200081460FF095FB80460FF09CFB07460FF0A3FB06460FF0AAFB82460FF0B1FBCDF8A0
:205C400000A0019009F1FF3041463A4633460FF0ADFB19E00FF072FBB0B90FF079FB8046BC
:205C60000FF080FB07460FF087FB06460FF08EFB81460FF095FBCDF800900190172041460E
:205C80003A4633460FF092FB0FF058FBFDF7F0FCA7E7012843D10FF051FB1728A1DC0FF07C
:205CA0004DFB16281BDC0FF049FB81460FF050FB80460FF057FB07460FF05EFB06460FF00C
:205CC00065FB82460FF06CFBCDF800A0019009F1010041463A4633460FF068FB1AE00FF06A
:205CE0002DFB172816D10FF033FB80460FF03AFB07460FF041FB06460FF048FB81460FF053
:205D00004FFBCDF800900190002041463A4633460FF04CFB0FF012FBFDF7AAFC61E7022855
:205D20007FF45FAF0FF0BCFA15F074FA0020FFF7F7FC04B0BDE8F087CCDC02005C35002086
:205D400000DF02008CDC020050D80200E895FF1FF0B585B007461C483946FDF705FA1B4DCE
:205D6000284614F029FC46260096194B0193002402940394284614213C22822314F036FA67
:205D80000096144B0193029403942846AA213C22822314F02BFA00960F4B01930294039437
:205DA0002846142196224FF48C7314F01FFA2FB128460221094A234614F0ECFB034814F0C2
:205DC000D7FB05B0F0BD00BF08DF02005C350020C4DC0200A8DC0200E4DC0200ECDC020082
:205DE00070B50646164C04F1100594F824301BB1284610F087FB02E0204610F0D5FD0028E8
:205E0000F3D0236A01221A700E4800210A4614F003FC18B93046FFF7EFF9E6E7012803D1CC
:205E20003046FFF7D9FAE0E7022803D13046FFF7C5FBDAE70328D8D13046FFF789FF70BD7C
:205E4000E895FF1F5C35002070B50646164C04F1100594F824301BB1284610F053FB02E0CF
:205E6000204610F0A1FD0028F3D0236A01221A700E4800210A4614F0CFFB18B93046FFF727
:205E800077FEE6E7012803D13046FFF781FDE0E7022803D13046FFF78DFCDAE70328D8D18A
:205EA0003046FFF755FF70BDE895FF1F5C35002070B584B01D480021FDF756F91C4D2846B0
:205EC00014F07AFB462600961A4B0193002402940394284614213C22822314F087F900963D
:205EE000154B0193029403942846AA213C22822314F07CF90096114B0193029403942846AB
:205F000014219622822314F071F900960C4B0193029403942846AA219622822314F066F9DA
:205F2000284614F025FB04B070BD00BFF0DC02005C350020F8DC020008DD020018DD0200FC
:205F400050D80200F0B585B006464A483146FDF70BF9494D284614F02FFB46270097474B28
:205F60000193002402940394284614213C22822314F03CF90097424B01930294039428460A
:205F8000AA213C22822314F031F97EB100973D4B0193029403942846142196224FF48C7359
:205FA00014F024F90122384B1A700DE046230093364B01930023029303932F4814219622E0
:205FC0004FF48C7314F012F92B4814F0D1FA2E4B1B783BB92848002114F036FC2C4C04F1FA
:205FE000100504E02448012114F02EFCF6E794F824301BB1284610F085FA02E0204610F02E
:20600000D3FC0028F3D0236A01221A701A4800210A4614F001FB78B91B4B1B78002BE6D0AE
:206020000021194B1970144F384614F00DFC3846012114F069FCDAE701280FD1124B1B78A1
:20604000002BD4D10121104B19700B4F384614F0FBFB3846002114F057FCC8E70228C6D132
:206060006820094B197814F0AFFD0EB9FFF720FF05B0F0BD08DD02005C35002020DD02002E
:206080002CDD0200ECDC02006C9CFF1F50D80200E895FF1FF0B585B006464A483146FDF71D
:2060A00063F8494D284614F087FA46270097474B0193002402940394284614213C228223DB
:2060C00014F094F80097424B0193029403942846AA213C22822314F089F87EB100973D4B3C
:2060E0000193029403942846142196224FF48C7314F07CF80122384B1A700DE046230093B1
:20610000364B01930023029303932F48142196224FF48C7314F06AF82B4814F029FA2E4BFD
:206120001B783BB92848002114F08EFB2C4C04F1100504E02448012114F086FBF6E794F8D8
:2061400024301BB1284610F0DDF902E0204610F02BFC0028F3D0236A01221A701A480021C4
:206160000A4614F059FA78B91B4B1B78002BE6D00021194B1970144F384614F065FB38469C
:20618000012114F0C1FBDAE701280FD1124B1B78002BD4D10121104B19700B4F384614F0B1
:2061A00053FB3846002114F0AFFBC8E70228C6D16720094B197814F007FD0EB9FFF778FE2D
:2061C00005B0F0BDF8DC02005C35002038DD020044DD0200ECDC02006437002050D80200ED
:2061E000E895FF1FF0B585B0464B1B784BB946480021FCF735FBFCF7E9FE10B9FFF758FE41
:206200007EE042480021FCF7AFFF414D2846002111F098FB3F4E2846314612F0C3FF28467F
:20622000C8210A460B4611F09BFB002400942846394942F20E72422312F0E6FD0094284695
:20624000364942F20E72692312F0DEFD00942846334942F20E727D2312F0D6FD314D28460F
:2062600014F0AAF92846304914F0AEFB372700972E4B0193029403942846A521A0228C230F
:2062800013F0B4FF00972A4B01930294039428460F21A0228C2313F0A9FF284614F068F9EE
:2062A0002846314614F090FB224C04F1100594F824301BB1284610F025F902E0204610F072
:2062C00073FB0028F3D0236A012119701548002214F0A2F980B918480121FCF7C1FAFBF7B4
:2062E00079FB16480121FCF7BBFA4FF47A7015F047F8FBF731FB01E00128D8D1FFF7D8FDF5
:2063000005B0F0BDA03A002050DD0200F0DC0200949BFF1F8C48030064DD020084DD02005A
:20632000A0DD02005C350020A83C03007CD6020080D60200E895FF1FC4DD0200DCDD0200A1
:2063400070B584B01D480021FCF70EFF1C4D284614F032F9462600961A4B019300240294A3
:206360000394284614213C22822313F03FFF0096154B0193029403942846AA213C228223AC
:2063800013F034FF0096114B019302940394284614219622822313F029FF00960C4B019368
:2063A000029403942846AA219622822313F01EFF284614F0DDF804B070BD00BFF0DD020044
:2063C0005C350020F8DD020008DE020018DE020050D80200F0B585B0064645483146FCF70E
:2063E000C3FE444D284614F0E7F846270097424B0193002402940394284614213C228223DE
:2064000013F0F4FE00973D4B0193029403942846AA213C22822313F0E9FE0097384B0193D3
:20642000029403942846142196224FF48C7313F0DDFE3EB128460221324A234614F0AAF8A9
:20644000314B1C702B4814F093F82F4B1B783BB92848002114F0F8F92C4C04F1100504E045
:206460002448012114F0F0F9F6E794F824301BB1284610F047F802E0204610F095FA00286C
:20648000F3D0236A01221A701A4800210A4614F0C3F878B91C4B1B78002BE6D000211A4BDB
:2064A0001970144F384614F0CFF93846012114F02BFADAE701280FD1134B1B78002BD4D152
:2064C0000121114B19700B4F384614F0BDF93846002114F019FAC8E70228C6D165200A4B23
:2064E000197814F071FB0EB9FFF72AFF05B0F0BDCCDF02005C35002028DE020030DE0200DD
:20650000E4DC0200ECDC02009C9CFF1FE895FF1F2DE9F04184B0064647483146FCF724FE1C
:20652000464D284614F048F846270097444B0193002402940394284614213C22822313F0F5
:2065400055FE00973F4B0193029403942846AA213C22822313F04AFE00973B4B0193029438
:2065600003942846142196224FF48C7313F03EFE2EB128460221354A234614F00BF82F48D2
:2065800013F0F6FF324B1B783BB12C48002114F05BF9304C04F1100504E02848012114F01A
:2065A00053F9F6E794F824301BB128460FF0AAFF02E0204610F0F8F90028F3D0236A01221C
:2065C0001A701E4800210A4614F026F888B9204B1B78002BE6D101271D4B1F70DFF85C8045
:2065E0004046002114F030F94046394614F08CF9D8E7012811D1164B1B78002BD2D0002787
:20660000134B1F70DFF834804046012114F01CF94046394614F078F9C4E70228C2D17020CF
:206620000B4B197814F0D0FA1EB9FBF71DFDFFF787FE04B0BDE8F08108DE02005C350020E4
:206640003CDE020020DD0200E4DC0200ECDC0200A09DFF1FE895FF1F2DE9F04184B03A48A0
:206660000021FCF781FD394D284613F0A5FF46260096374B019300240294039428461421E1
:206680003C22822313F0B2FD0096324B0193029403942846AA213C22822313F0A7FD0096F8
:2066A0002D4B019302940394284614219622822313F09CFD0096294B0193029403942846CC
:2066C000AA219622822313F091FD284613F050FF2846234B197814F0B7F8224C04F11006A8
:2066E00094F824301BB130460FF00CFF02E0204610F05AF90028F3D0236A01221A70134853
:2067000000210A4613F088FF054602280ED80F4FDFF84C80384698F8001014F0F5F888F893
:2067200000503846E9B214F08FF8D9E70328D7D180200B4B197814F047FAFAF7E1FEFFF740
:20674000FFFD04B0BDE8F08118DE02005C35002020DD020044DE02004CDE020050D8020051
:206760001F380020E895FF1F70B584B01F480021FCF7FAFC1E4D284613F01EFF28461D4970
:2067800014F022F9462600961B4B0193002402940394284614213C22822313F027FD00962A
:2067A000164B0193029403942846AA213C22822313F01CFD0096124B01930294039428463D
:2067C00014219622822313F011FD00960D4B0193029403942846AA219622822313F006FDCB
:2067E000284613F0C5FE04B070BD00BF54DE02005C3500208C480300F0DD0200F0DC02006C
:2068000008DF020050D8020070B506461F4C04F1100594F824301BB128460FF073FE02E013
:20682000204610F0C1F80028F3D0236A01221A70174800210A4613F0EFFE30B93046FEF700
:206840006FFF3046FFF700FBE3E7012806D13046FEF788FC3046FFF7C3FADAE70228D8D1ED
:2068600086B10EF09DFDB0F5FC6F0DDA09480021FBF7F6FF4FF47A7014F082FD0120FFF732
:2068800067FAC6E7FFF770FF70BD00BFE895FF1F5C35002060DE020038B5154C04F11005B5
:2068A00094F824301BB128460FF02CFE02E0204610F07AF80028F3D0236A01221A700D4861
:2068C00000210A4613F0A8FE10B9FFF7E3FBE7E7012803D10020FFF735FBE1E7022802D12B
:2068E000FFF780FCDCE70328DAD1FFF73DFF38BDE895FF1F5C35002038B5154C04F11005C2
:2069000094F824301BB128460FF0FCFD02E0204610F04AF80028F3D0236A01221A700D4861
