:020000040000FA
:2000000000800020BD010000A5B1010069B1010069B1010069B1010069B1010069B10100A4
:2000200069B1010069B1010069B10100A5B10100A5B1010069B10100A5B1010059B1010044
:20004000A5B10100A5B10100A5B10100A5B10100A5B10100A5B10100A5B10100A5B10100E8
:20006000A5B10100A5B10100A5B10100A5B10100A5B10100A5B10100A5B10100A5B10100C8
:20008000A5B10100A5B10100A5B10100A5B10100A5B10100A5B10100A5B10100A5B10100A8
:2000A0006D2F01007D2F0100A5B10100A5B10100A5B10100A5B10100A5B10100A5B10100EC
:2000C000A5B10100A5B10100A5B10100A5B10100A5B10100A5B10100A5B10100A5B1010068
:2000E000A5B10100A5B10100A5B10100A5B10100A5B10100B1BD0100A5B1010009DA0100A3
:20010000A5B1010085DF0100A5B10100A5B10100A5B10100A5B10100A5B10100A5B1010019
:20012000A5B10100A5B10100A5B10100A5B10100A5B10100A5B10100A5B10100A5B1010007
:20014000A5B10100A5B10100A5B10100A5B10100A5B10100A5B10100A5B10100A5B10100E7
:20016000A5B1010099C00100A5B10100A5B10100A5B10100A5B10100A5B10100A5B10100C4
:20018000A5B10100A5B10100A5B10100A5B10100A5B10100A5B10100A5B10100A5B10100A7
:2001A000A5B10100A5B10100A5B10100A5B10100A5B10100A5B10100A5B10100574B4CF2FE
:2001C000205210B51A804DF628121A8000BF00BF1AF0ECFF524B4FF010621A60514A9A6067
:2001E000514ADA60A3F53043203B1A6812F4807204D14E490A604FF4A8521A604C4B1A7894
:20020000110703D51A7842F008021A70494B4A4C4A482A221A704A4A00239918A14203D2E4
:20022000195899500433F8E7464B474900228B4202D243F8042BFAE74448454900235A5830
:200240001A500433B3F5DE7FF9D1424B424A802103F8011B9342FBD1404B3C4A1A60404BA6
:200260008A221A70A3F5805324225A70A0221A709A799207FCD59A79D406FCD4394A9379B8
:2002800003F00C03082B374BF9D103221A714C225A719A799006FCD5324A9179314B490629
:2002A000FBD5314A4FF0017111600421516020221A709A7902F00C020C2AFAD12B4B2C4A2F
:2002C0001A602C4B2C4A1A6000225A60072243F8042C2A4AC3F80C2D62B61BF009FA134BE1
:2002E0001B68DA0705D526481BF036F9254B264A1A60264B1B785B0609D5224C224A236816
:20030000934204D11E481BF027F90023236020F043FB01F09FF81CF03DFDFEE70E20054088
:2003200030800440823F04000100002B14D0034002D0074000E007406897FF1F44550300B8
:200340006087FF1F8097FF1FE83F00200082FF1F0000000000E400E05FE400E008ED00E0C0
:2003600000500640004006404480044004800440C010050014E000E07F32020000002020F5
:2003800059052A031CE00340A5C3945A00F00740FFFFFFFFFFFFFFFFFFFFFFFFFFFFFFFF16
:2003A000FFFFFFFFFFFFFFFFFFFFFFFFFFFFFFFFFFFFFFFFFFFFFFFFFFFFFFFFFFFFFFFF5D
:2003C000FFFFFFFFFFFFFFFFFFFFFFFFFFFFFFFFFFFFFFFFFFFFFFFFFFFFFFFFFFFFFFFF3D
:2003E000FFFFFFFFFFFFFFFFFFFFFFFFFFFFFFFFFFFFFFFFFFFFFFFFFFFFFFFFFFFFFFFF1D
:20040000FFFFFFFFFFFFFFFFFFFFFFFFDEF9FFFF10B5054C237833B9044B13B10448AFF375
:2004200000800123237010BD8097FF1F000000003C55030008B5064B1BB106480649AFF3D6
:2004400000800648036813B1054B03B1984708BD000000003C5503008497FF1F6897FF1F0D
:20046000000000002DE9F04F8DB006919146B2F804B0D3885B45C0F00181824B197801EBA7
:2004800081020892804B1A78C2EB8273C2EB83030B937E4B1D787E4B187800EB80077D4B7E
:2004A0001B78C3EB8374C3EB840401947A4C247807947A4C24680294C3EB8334C3EB8403BA
:2004C0003B440BEB8B0003EB401301EB810101EB8101490111FA83F3C2EBC20202EB0212C2
:2004E00002EB021203EB42121FFA82F80026CDF80080C846D946B3462E46089B4B44772B4D
:2005000000F3AE800B9B19EB030F00F1A980B8F80040B8F80230A342C0F0A2800BF101035B
:200520001FFA83FBCDF828900BF1FF339AB21EB9C4F19F05EDB200E0E5B2EB199F2B00F326
:200540008280019BDD427ED4009B1D44ADB2079B022B72D1069B33F812200392504A32F8C8
:20056000152004924FF07E5002991FF09DFE8246049B03F4FC60C0081FF04CFF01465046A5
:200580001FF09CFF8146039A02F4FC60C0081FF041FF014602981FF091FF014648461FF080
:2005A00085FE20F077F95FFA80F909F01C03DB000593049BD80000F0F8001FF02BFF0146FC
:2005C00050461FF07BFF0990039AD00000F0F8001FF020FF014602981FF070FF0146099899
:2005E0001FF064FE20F056F9C0F3C400059B184305904FEA6919049A02F47840000A1FF004
:2006000009FF51461FF05AFF8246039B03F47840000A1FF0FFFE014602981FF04FFF014623
:2006200050461FF043FE20F035F900F0F80049EA0009059A42EA092902E0069B33F8129025
:20064000174A22F815900134A4B20BF101039AB2B8F80230A34201D3934665E7DDF8289056
:2006600009F101031FFA83F9009A02F1A0039BB20093B8F806304B45BFF43FAF01200DB0E2
:20068000BDE8F08F30390020389DFF1F5C3C0020DC3900205E9EFF1FEA3900200037002019
:2006A00000A1FF1F08B5083013F09AFD08BD00BF00B583B002AB03F8011D08301946012200
:2006C00013F08EFD03B05DF804FB00BF08B500F58C6012F08BFE08BD08B500F58C6012F038
:2006E00067FF08BD08B500F58C6012F01FFF08BD08B500F58C6012F0E5FF08BD38B51546BB
:20070000846FA288E388D01AA84298BF054629B122680846D1182A461AF000FCE3882B44F0
:20072000E380284638BD00BFF8B505460C4615F00DF8064615F000F8074614F0F3FFFFB2A3
:20074000C0B240EA4717B6B2A6F2BC7647EA46272F8014F0C9FF054614F0D0FF064614F0E6
:20076000D7FFF6B2EDB2ED0245EA4616C0F3460006432680F8BD00BF08B51AF0E7FE08BD15
:2007800010B582B0394B93F8243023B16846384916F02EF803E06846344916F0B5FABDF858
:2007A0000020BDF80230A2F10A0189B2822908D8A3F10A0080B2462803D801222D4B1A7090
:2007C00052E0A2F1B40080B2822847D8A3F1A004A4B2462C45D80522264B1A7044E0A3F1AE
:2007E0005A04A4B23C2C14D8234C2468012C32D00322204B1A7037E0A3F15A0080B23C2812
:2008000009D81D480068012805D00422194B1A702AE082280AD8A3F10A0080B2462803D869
:200820000222144B1A701FE0822908D8A3F1A00189B2462903D806220E4B1A7014E08D3AA1
:2008400092B2262A10D8513B9BB24E2B0CD80722084B1A7008E08228DDD9E7E78229BED988
:20086000E2E78229BBD9C7E702B010BDAC97FF1FBC97FF1FD4390020309EFF1F2DE9F04111
:2008800086B0364B1B7813F0FF0F64D1344B1B7813F0FF0F5FD1334B1B7813F0FF0F5AD128
:2008A000314B1B7813F0FF0F55D1304B1B7813F0FF0F50D133E02E4C04F11007DFF8B4800E
:2008C00094F824301BB1384615F0F2FF02E0204616F040FA78B1236A01221A70B5F57A7F6A
:2008E0002EDD08E00524234F20461AF069FE10B9B5F57A7F2ADD1F4B1B680593059B9E1B42
:20090000B6F57A7F03DA0122144B1A7023E01A4B1B78012B1FD00122124B1A701BE0154CCE
:2009200023680193019E0A201AF0CCFE23680293029DAD1B0E4B93F82430002BBBD1D1E7CD
:20094000D8F800300393039DAD1BB9E73B680493049DAD1BC8E706B0BDE8F081A997FF1F7D
:20096000D5390020409EFF1FAA97FF1F37390020AC97FF1FD03C0020EA39002038B5044657
:200980002B491FF04DFF00283ED120464FF081411FF046FF002839D1204626491FF040FF41
:2009A000002835D1204624491FF03AFF002831D1204622491FF034FF70BB204620491FF0A8
:2009C0002FFF58BB20461F491FF02AFF40BB20461D491FF025FF28BB20461C491FF020FFFA
:2009E00010BB20461A491FF01BFFF8B94FF00105204618491FF014FF08B94FF0000585F0E1
:200A0000010040F3000038BD642038BD5A2038BD502038BD462038BD3C2038BD322038BD6D
:200A2000282038BD1E2038BD142038BD0A2038BD333383401F857B40EC5178408FC275407B
:200A400033337340D7A3704052B86E40CDCC6C40713D6A400000404010B50146074C2046B9
:200A600010F07EFE204610F02BFE4FF496701AF029FE204610F05EFE10BD00BFF03B002058
:200A80002DE9F8438846461D0024254627464FF001091BF003F9002808DC48461AF012FED4
:200AA0000135EDB20A2D09D1BDE8F883651CEDB21BF004F908F804002C463D46B442E8D160
:200AC000BDE8F88308B5024810F094FE08BD00BFF03B00202DE9F04F85B0384810F092FEF4
:200AE00080B2039001211FF0FFFE814685201FF07BFF8246039B02934FF0000BDFF8BC80B6
:200B000028E0029D802DA8BF8025ECB226464046214610F097FE0028F8D020465146FFF706
:200B2000AFFF15F0FF0711D000230BEB030292B21AF8031009F802100133BB42F5D10BF18E
:200B4000010B013F17FA8BFB1FFA8BFB029B9E1BB6B20296029B002BD3D150461FF04CFF61
:200B6000164D284610F0BCFD154CC4F80090039BA3800023E38040F61C401FF035FF0246DA
:200B8000104B186000941048104940F61C4314F0DBFE284610F000FE22280B480C490CBFA2
:200BA0000022012215F078F948461FF025FF054B18681FF021FF05B0BDE8F08FF03B002096
:200BC000549DFF1FD83900203C390020FD060000650400002DE9F0471D4810F013FE1FFAF8
:200BE00080F91C4C23681B6820464FEA1921984723681B6820465FFA89F1984785201FF074
:200C0000F3FE8246124F17E0B9F1800FB4BF4D468025ECB23846214610F014FE0028F9D059
:200C200020465146FFF72CFF5046E9B21BF0B8FEC4EB09091FFA89F9B9F1000FE4D1504644
:200C40001FF0DAFE024810F04BFDBDE8F08700BFF03B0020703E002010B400290ADD03460A
:200C600044180020054913F8012B5040085CA342F9D100E000205DF8044B7047500303001F
:200C800070B582B004460E4623485A2111F04EFB2CB1214803681B680621984704E01E48AB
:200CA00003681B68072198471B4C2169627B0025009520462B4611F013FE2069617B012345
:200CC000009301955A22032311F01EFE2369D3F83821D3F83431D31A032B1CBF2B46337042
:200CE0000D4C206911F02EFE0546206911F02AFE0646206911F026FE2169627B00230093D1
:200D00002046012311F0ECFD06F07F00EDB205EB002002B070BD00BF743C002070B505465D
:200D20000E46FFF7ADFF1FF075FB14491FF0C6FB13491FF0B9FA13491FF0B6FA044675B168
:200D400011491FF059FD20B9204610491FF072FD10B10023337070BD0D4B1C6070BD0D49B3
:200D60001FF04AFD20B920460B491FF063FD10B10023337070BD094B1C6070BD0AD7A33CAA
:200D80000AD7233C33938843000020C20000FA42E439002000008CC20000BE433C9DFF1FE1
:200DA00070B582B0012002A901F8010DFFF7B6FF64240A25012608E030460DF10701FFF726
:200DC000ADFF631E13F0FF0409D028461AF07AFC9DF80720002AEFD0024B186800E00020A7
:200DE00002B070BDE439002070B582B002A9012301F8013D0020FFF791FF64240A250026F7
:200E000008E030460DF10701FFF788FF631E13F0FF0409D028461AF055FC9DF80720002AE2
:200E2000EFD0034B186800E0002002B070BD00BF3C9DFF1FF0B48C46234C2278234B196822
:200E400041F4806119604FF00041D9625A6304F1A3076678DA6A002A1CDBFBE7D36A002B5F
:200E600025DBFBE7184A527882420BD1142A0BD1174A1278012A09D1BCEB131F14BF0020EE
:200E800001201FE000201DE001201BE0012019E0002017E09A6B1D6845F480651D60D96268
:200EA0005E6304F8012BBC42D3D1084AD6E7074B9A6B054B83F8A3201B7803F00F020F2AE3
:200EC000D0D1E5E7F0BC7047E897FF1F00C002402C9EFF1F10B582B0154C20462A2111F0B1
:200EE00025FA23681B6820460021984723681B6820460421984723681B6820460221984771
:200F000023681B682046422198472169627B002300932046012311F0E3FC04464FF4FA60AD
:200F20001AF0D0FB201C18BF012002B010BD00BF743C002030B583B005460C4C20462A212E
:200F400011F0F4F923681B6820460021984723681B682046294698472169627B0023009350
:200F60002046012311F0BCFC03B030BD743C002030B583B0FFF7DEFF0B4C2069617B0123F3
:200F80000093002301932A22022311F0BDFC206911F0D8FC85B2206911F0D4FC2D02ADB25F
:200FA000284380B203B030BD743C002010B50446074800214FF4007220F09EF834B1044B16
:200FC000552283F8FE21AA2283F8FF2110BD00BFEC39002008B501460248034A12F0E8FA49
:200FE00008BD00BF649EFF1FEC390020044B1B78044A127802FB03F3B0FBF3F080B27047E4
:201000006C9FFF1FE1390020064B1B78064A127803FB02F2B0FBF2F101FB1200B0FBF3F093
:20102000C0B27047E13900206C9FFF1F70B50120FFF7BCFF314C002384F8BE31304B1D6822
:201040002846FFF7D3FF021294F8C03162F3871384F8C03184F8C1012846FFF7D5FF84F87B
:20106000BF01284B1E78B5FBF6F206FB1252013294F8C03162F3050384F8C031224B1B7830
:2010800084F8C231214B1B681D44013D2846FFF7ADFFB0F5806F19D2021294F8C43162F3DA
:2010A000871384F8C43184F8C5012846FFF7ACFF84F8C301B5FBF6F306FB1355013594F8D0
:2010C000C43165F3050384F8C43109E00B4BFF2283F8C521FE2283F8C321FF2283F8C42189
:2010E000064B074A1268C3F8C621084A1268C3F8CA210020FFF76EFF70BD00BFEC3900200C
:20110000549EFF1FE13900208C98FF1F449EFF1FF8B504460D460020FFF748FF09482146E4
:201120002A4612F085FA4DB10024064F064E3846314612F05FFA0134AC42F8D1014812F06C
:201140009FFAF8BD649EFF1FEC39002010B5034B1C6824021AF092FA204410BD4C9EFF1F50
:2011600000B583B06946052200231CF043F868461FF0B6FB03B05DF804FB00BF08B5064B05
:2011800000221A731A7101E01BF094FB1BF0DEFB0028F9DC08BD00BF703E002038B50D4C21
:2011A00023680D4D29881B682046090A984723681B682046297898472368084D29881B68B6
:2011C0002046090A984723681B6820462978984738BD00BF703E00202A3900203239002033
:2011E0002DE9F0471C4B1B78012B00D020B11B4C04F516461A4D1EE0DFF8608008F5164AA6
:201200004FF00009164E374613E038F8045033681B683846290A984733681B683846E9B249
:2012200098470434B4F5A07FEFD108F52078D04510D04C46E9E721882B681B682846090AE3
:2012400098472B6834F8021B1B682846C9B29847B442F0D1BDE8F0872C9EFF1F00A1FF1F0E
:20126000703E002010B5214B18781BF017FC204C23681B6820461F4A117898471E4B187817
:201280001BF00CFC23681B6820461C4A1178984723681B6820461A4A11789847194B1B78C2
:2012A0001BB900201BF0FAFB05E0114803681B68154A11789847134B1B781BB900201BF057
:2012C000EDFB05E00A4803681B68104A117898470F4B1B7823B10F4B197881F0010100E040
:2012E0000021034803681B68984710BD2C9EFF1F703E0020609FFF1F7C9FFF1F5C9EFF1FC4
:20130000629EFF1F709EFF1F363900202C390020619FFF1F489DFF1F08B5FFF7D3FBFFF7D7
:2013200059FC08BD70B50A4C04F5C076094D21882B681B682846090A98472B6834F8021B98
:201340001B682846C9B29847B442F0D170BD00BF809FFF1F703E002008B5034803681B689E
:20136000024A1178984708BD703E00202439002008B5024B18781BF091FB08BD3539002025
:2013800008B5034803681B68024A1178984708BD703E0020D639002008B5034803681B68EB
:2013A000DB21984708BD00BF703E002048F68000C0F20300D0F800D0D0F804F0704700BFC3
:2013C0001D4B4FF400721A601C490A601C4A116821F4802111604FF400021A604FF08072B1
:2013E0001A604FF000721A604FF080621A604FF000621A60134A136813F0800FFBD1114B00
:201400001B6813F0400F04D00E4B1A6842F040021A600D4B1B6813F0800F04D00A4B1A6842
:2014200042F080021A60A022084B1A700023084A136004321360704788E100E088E200E004
:201440003480044024B00B4000B00B40004006404480044008B5002019F046FEAE2808D113
:201460000020014619F056FE72B6FFF7A9FFFFF79DFF08BD08B50020AE2119F04BFE024A41
:20148000024B1A6008BD00BF0400FA050CED00E008B5802019F028FE022814D80C4B1870A4
:2014A000012805D10B480C49002211F019FE06E0022804D107480949002211F011FE002271
:2014C000074B1A7008BD0022014B1A7008BD00BFDF390020709FFF1FE0930400804F120032
:2014E0003839002010B5042001211AF077F8042000211AF041F80024054B1C7005202146C3
:201500001AF06CF8022021461AF068F810BD00BF2439002008B5062001211AF05FF80920D2
:2015200001211AF05BF80A2001211AF057F80F2001211AF053F8142001211AF04FF8152005
:2015400001211AF04BF8062001211AF015F8092001211AF011F80A2001211AF00DF80F20D5
:2015600001211AF009F8142001211AF005F8152001211AF001F813F015FE08BD30B587B090
:201580000F4B1869597B002914BF032300230024009401930294039401250495224623464E
:2015A00010F080FD064B18694FF47A72C0F86422597B009522462B4610F0D4FC07B030BDB9
:2015C000743C002038B50C201BF0ECFB05460FF0A3FA0F4C2560284604214FF0FF320FF067
:2015E000E9FA20680C214FF0FF320FF0C3FA206802214FF0FF320FF0CDFA206802214FF05C
:20160000FF320FF0CFFA1720002119F0E7FF38BDB839002010B54FF48072184B1A604FF46A
:20162000107203F57F631A6038B3154901F58C6001F26C411422022311F016FEE8B1104CA4
:2016400004F23C4012F064FC2046012113F012FD20B92046002113F00DFD70B1084901F24A
:201660003C4012F0EDF940B1054B93F83C3413F0700F02D0034A044B1A6010BD14B004408B
:20168000C898FF1F049DFF1F883C002008B5444B1B78012B3DD1434B1B78002B28D072B6A4
:2016A000404B1B7813F0010F07D03F4B19683F4A12680A403E490A601A603A4B1B7813F044
:2016C000020F07D03B4B1968384A52680A4038494A601A60334B1B7813F0040F07D0364B71
:2016E0001968324A92680A4031498A601A6062B6324BDB68B3F1384F47D0304B304A1A6042
:201700004FF03842DA604FF078421A612D4A1A603BE0244B1B78002B28D072B6214B1B780A
:2017200013F0010F07D0204B1968204A12680A401F490A601A601B4B1B7813F0020F07D075
:201740001C4B1968194A52680A4019494A601A60144B1B7813F0040F07D0174B1968134A95
:2017600092680A4012498A601A6062B6134BDA68154B9A4209D0114B114A1A60124ADA60D2
:2017800002F180421A610F4A1A60104B1B7813B10020FFF73FFF0F20002119F0EDFE08BD37
:2017A0002C9EFF1FA83C002080E100E0903C00209C3C002084E100E088E100E000C0024088
:2017C00001401F0000001F80000001BA5C3C00204FF41072034B1A604FF4807203F57F63FB
:2017E0001A60704714B004402DE9F84F1C4810F009F81FFA80F90020FFF70CFF85201FF087
:20180000F3F88246164FDFF860B019E0B9F1800FB4BF4D468025ECB23846214610F012F85F
:201820000028F9D020465146FFF72AF90BF108005146EAB212F0D4FCC4EB09091FFA89F93C
:20184000B9F1000FE2D150461FF0D6F804480FF047FF044812F05CFBFFF7BAFFBDE8F88F98
:20186000F03B0020A498FF1F9C98FF1F08B50122114B1A60114B1B78C3B113F0010F03D072
:201880000F4B1A680F4B1A600C4B1B7813F0020F03D00B4B5A680C4B1A60084B1B7813F0F5
:2018A000040F03D0064B9A68084B1A60084B1B780BB1FFF78DFF08BD84F00F40A83C002072
:2018C0009C3C002000E100E004E100E008E100E05C3C002010B50120FFF79CFE054C2046DC
:2018E00013F07AFB2479640804FB00F4FFF770FF204610BDC898FF1F10B50020FFF78AFEFB
:20190000064811F0A3FD0446054B1860FFF760FF04F2FF70C0F3CF2010BD00BF649EFF1FBE
:201920004C9EFF1F30B58DB0FFF7E6FF044620B9174818491BF08CFB28E0FFF7CBFF810ADA
:2019400004A80A221BF0AAFB684604A91BF074FB684611491BF01EFC054608A8611E0A2257
:201960001BF09CFB284608A91BF00AFC0B491BF011FC014606481BF055FB08A81BF0F2FA92
:2019800068461BF0EFFA04A81BF0ECFA0DB030BDC439002098CC0200A0CC0200A4CC0200FB
:2019A000F8B50020FFF736FE974C204604F109011422022311F058FC204611F047FD934BAF
:2019C000186000F2FF73C3F3CF23914A1380102B03D802218F4A11701FE0202B03D8042138
:2019E0008C4A117019E0402B03D80821894A117013E0802B03D81021864A11700DE0B3F544
:201A0000806F03D82021834A117006E0B3F5004F94BF402180217F4A1170B3F5807F8CBFFF
:201A20003F2120217C4A1170102B03D802227B4B1A7027E0202B03D80422784B1A7021E093
:201A4000802B03D80822754B1A701BE0B3F5FC7F03D81022714B1A7014E0B3F57C7F03D8A9
:201A600020226E4B1A700DE0B3F5FC6F03D840226A4B1A7006E0B3F57C6F94BF8022FF22D6
:201A8000664B1A704FF48072654B1A60614B1F78A0F58072B2FBF7F202F20111090A614B87
:201AA0001960490001F1A104B4F5807F16D84FF480731C1B04F180005B4B186001205B4B70
:201AC000188081345A480460213107FB0212594B1A6047F6A7739A4218D91BE04D4B1F78DF
:201AE0004FF4C073C21AB2FBF7F202F201152D0A690001F1A10403F18006A34204D34848F7
:201B0000036048480560D4E73346EBE701224A4B1A7006E0B2F5803F34BF04220622464B07
:201B20001A70FFF783FA0120FFF740FA4349EB230B7000234B7090238B704B1E07312022D3
:201B40000133DA708B42FBD13C4C0027E77202232373304B1B786373344B1B88E38102231C
:201B6000237423694FF4007262F317232361F82363752C4E3368E382274B1B782383274BF0
:201B80001B786383284D2B68E3612A4B1B682362802384F82430292384F82630FFF7D6FAAC
:201BA000C4F82700264B03CBC4F82B00C4F82F1019889B78A4F8331084F83530214B03CB73
:201BC000C4F83600C4F83A102868FFF703FA184D2B68134A11681846C91AFFF799FA384674
:201BE000FFF7E4F94FF6F87323804FF6FF7363802868FFF7EFF930682B681844FFF7EAF957
:201C0000FFF7E6FDF8BD00BF649EFF1F4C9EFF1F3C9EFF1F5D9EFF1FE13900206C9FFF1FDB
:201C2000449DFF1F409DFF1F549EFF1F8E98FF1F4C9DFF1F449EFF1F8C98FF1FEC390020C8
:201C40004888FF1F5C88FF1F10B5054C20460FF071FC20460FF04AFC003018BF012010BD0C
:201C6000749EFF1F70B584B0294B1A680092009C1B680193019D2D1B254EFFF7E5FF40B37A
:201C8000B5F57A7F2EDD24E0224B1B78B72B03D1B422204B1A7038E01F4B1B7813F0FF0FEB
:201CA00008D11C4B1B78B62B21D103E0FFF7CCFF0028FBD1184B1B78DBB2022B25D1154BE0
:201CC0001B78B52B1AD120E0FFF7BEFF0028FBD11BE00F4A12680392039B1B1BB3F57A7F27
:201CE000D2DBD9E733680293029D2D1BC5E7B522084B1A700222084B1A70D7E7B622054B19
:201D00001A700022044B1A70DEE704B070BD00BFD03C00205488FF1FD539002070B584B02C
:201D20002D4B1B7813F0FF0F23D12C4B1B7813F0FF0F1ED12A4B1B7813F0FF0F19D1294B12
:201D40001B7813F0FF0F14D1274B1B7813F0FF0F0FD128E0FFF778FF002831D0B4F57A7FC4
:201D600032DD2DE002221F4B1A7002E001221B4B1A701A4B1B78DBB2022B07D10322174B29
:201D80001A70FFF761FF0028FBD122E0134B1B78DBB2032B1DD10122104B1A70FFF754FF82
:201DA0000028FBD115E0114C23680193019D0A2019F088FC23680293029C641B0B4EC9E723
:201DC000B4F57A7FCEDBD1E733680393039C641BC0E704B070BD00BFA997FF1FD5390020DE
:201DE000409EFF1FAA97FF1F37390020D03C002008B51620002119F0BFFB08BD08B516203D
:201E0000012119F0B9FB08BD08B5162019F0D8FB003018BF012008BD034B1B7843FA00F054
:201E200000F00100704700BF7488FF1F08B50120FFF7F2FF50B90320FFF7EEFF40B9042030
:201E4000FFF7EAFF80F00100C0B208BD002008BD002008BD2DE9F041ACB0FFF7E7FF00288A
:201E600040F099804D4B1B680293029D4B4C1AF06DFD30B923680393039B5B1BB3F57A7F00
:201E8000F5D31AF063FD002800F0858004A8444978221BF00FF80CA804A9002204231BF059
:201EA000C1F910A84FF4FC610A221BF0F7F80CA810A91BF099F9014608A81BF0DBF808A85B
:201EC000FFF74EF9044608A81BF04CF810A81BF049F80CA81BF046F8002C59D014A804A9BD
:201EE0000B220D231BF09EF914A8FFF739F9074618A804A90E2210231BF094F918A8FFF794
:201F00002FF906461CA804A9112213231BF08AF91CA8FFF725F9054620A804A908220A23F6
:201F20001BF080F920A8FFF71BF9044624A804A9052207231BF076F924A8FFF711F980462B
:201F400028A804A9002204231BF06CF928A8FFF707F9CDF800800190384631462A462346E1
:201F600013F0FAFB28A81AF0FDFF24A81AF0FAFF20A81AF0F7FF1CA81AF0F4FF18A81AF071
:201F8000F1FF14A81AF0EEFF13F060FB19F0E4FA04A81AF0E7FF2CB0BDE8F081D03C00209F
:201FA000703E002010B50020FFF736FF48B9224C23685B68204621491222984720461AF033
:201FC000F9FE0620FFF728FF48B91B4C23685B6820461B491122984720461AF0EBFE0720B5
:201FE000FFF71AFF48B9144C23685B68204615491122984720461AF0DDFE0023124A137000
:202000000D21124A11701249124A11604FF48071114A11800121114A1170114A1370114A36
:2020200013701149114A1160114A1370114A1370114A137010BD00BF703E0020A8CC02008D
:20204000BCCC0200D0CC02005C9EFF1F7C9FFF1FF0AB020020390020E8390020649FFF1F8F
:20206000EA39002034390020C1A8243D18370020DD390020629EFF1F2C390020044B01220C
:2020800002FA00F0197821EA00021A70704700BF7488FF1F70B58CB0314C20462A2110F00D
:2020A00045F923681B6820460021984723681B6820460421984723681B682046482198473A
:2020C00023681B6820461C2198472169627B002300932046012310F003FC30B10620FFF7CD
:2020E000CDFF02221F4B1A7038E01D482A2110F01DF902242046FEF73BFF10F0010FF9D189
:202100000620FEF735FF0346154C2069617B01250095002601962A2210F0F6FB204603A99A
:2021200020221AF0B1FE2169627B009620462B4610F0D6FB03A80C491FF0EEFD10B1094BF0
:202140001E700BE003A809491FF0E6FD18B10122044B1A7002E00222024B1A700CB070BD8C
:20216000743C00202C9EFF1FE4CC0200ECCC02002DE9F04F83B0FFF78DFF3D4B1B78022BE9
:2021800009D001223B4B1A70FEF7A4FE30B10620FFF774FF02E00222364B1A70364B1B6817
:2021A0000093009A354B1A600023354A13700021344A11600121344A1170344A1370FFF7AB
:2021C00065FADFF8D4C04FF0010BDE46304D314B05F1A304DFF8C4A0DFF89C90DFF89C80FF
:2021E000CCF800E02A78196841F4806119604FF00041D9625A6329464FF000474878DA6A18
:20220000002A1ADBFBE7DA6A002A22DBFBE7D9F8002001920199D8F800208A1AB2F57A7F1E
:20222000DED3FFF723FB1A4B1B7803F00F030F2B1AD10720FFF722FF16E09A6B1E6846F4BE
:2022400080661E60DF62586301F8012BA142D5D1D9E79A6B85F8A320CAF800B02A7802F065
:202260000F020F2ADDD1D2E703B0BDE8F08F00BF2C9EFF1F35390020D03C0020589EFF1F61
:20228000709EFF1FA497FF1F619FFF1F489DFF1FE897FF1F00C0024088F00F4084F00F406F
:2022A00010B5244824491AF0D3FE244B1B78002B3CD00020FFF7AEF9214901F58C6001F270
:2022C0006C411422022310F0CFFF00B31C4C04F23C4011F01DFE2046012112F0CBFE20B953
:2022E0002046002112F0C6FE88B1154901F23C4011F0A6FB034650B1114A92F83C2412F058
:20230000700F1DBF0F49104A116000231BB90420FFF7B4FE06E00D4908460931142202235D
:2023200010F0A2FFFFF754FAFFF7FCFA084A094B1A6010BDC4390020F4CC02005C3C002048
:20234000C898FF1F049DFF1F883C0020649EFF1F290700008C3C002010B5694C23685B685C
:20236000204668491822984720461AF023FD0020FFF752FD48B123685B68204662491022AE
:20238000984720461AF016FD09E05D4C23685B6820465E491422984720461AF00BFD012040
:2023A000FFF73AFD50B1564C23685B68204658490C22984720461AF0FDFC09E0504C236872
:2023C0005B68204653491022984720461AF0F2FC0220FFF721FD50B1494C23685B68204649
:2023E0004D491222984720461AF0E4FC09E0444C23685B68204649491622984720461AF09E
:20240000D9FC0320FFF708FD50B13D4C23685B68204643491122984720461AF0CBFC09E0CD
:20242000374C23685B6820463E491522984720461AF0C0FC0420FFF7EFFC50B1304C23688F
:202440005B68204638490C22984720461AF0B2FC09E02B4C23685B68204634491022984705
:2024600020461AF0A7FC0520FFF7D6FC50B1244C23685B6820462E491222984720461AF03D
:2024800099FC09E01E4C23685B68204629491622984720461AF08EFC0620FFF7BDFC50B147
:2024A000174C23685B68204623491222984720461AF080FC09E0124C23685B6820461F4937
:2024C0001622984720461AF075FC0720FFF7A4FC50B10B4C23685B682046194910229847C8
:2024E00020461AF067FC10BD054C23685B68204614491422984720461AF05CFC10BD00BF71
:20250000703E002000CD02001CCD020030CD020048CD020058CD02006CCD020080CD02006C
:2025200098CD0200ACCD0200C4CD0200D4CD0200E8CD0200FCCD020014CE020028CE020025
:2025400040CE020054CE020008B5114B1B787BB11048872117F06CFD0F4B93F824301BB1FA
:2025600001220D4B1A7408BD01220B4B5A7008BD08482D2117F05CFD074B93F824301BB18A
:202580000022054B1A7408BD0022034B5A7008BD609FFF1F5C9DFF1FAC97FF1FF8B51848D5
:2025A000012117F06FFEE02811D00A242746144E0125384619F086F83046294617F062FE28
:2025C000E02804D0631E13F0FF04F2D113E0702018F08AFD012805D8003018BF0120094B41
:2025E000187002E00022074B1A70FFF7ADFF064A034B1A60F8BD0120FFF740FDE7E700BF23
:202600005C9DFF1F609FFF1F00A1FF1F2DE9F04383B02148214B03621030802114F072F9C1
:2026200020B101221C4B83F8242032E01A4C204614F0CCF994F824305BBB6846214614F0CA
:2026400063FBBDF80090BDF802800A2019F03AF8052018F0B5FF0A240125052726463846F0
:2026600018F0AEFF002808BF0025304619F02AF8013CF4D1B9F1000F04D1B8F1000F05D1D2
:202680003DB903E0B8F1000F00D015B10320FFF7F5FC03B0BDE8F083AC97FF1F383900204C
:2026A00038B5002425462046294618F033FD0134B4F5006FF7D138BD10B5992018F014FDF0
:2026C0000446431EDBB2022B00F2BC80012850D17E2018F009FDC8284DD121E0902018F0AA
:2026E00003FDC82840F09C8048E0982018F0FCFCC82840F095806AE0544B1C682046544919
:202700001EF07AF838B920464FF07E511EF092F8002800F099804FF07E524C4B1A6010BD1E
:202720007C2018F0E1FC4B4B1870792018F0DCFC494B18707A2018F0D7FC484B18707B203A
:2027400018F0D2FC464B18707D2018F0CDFC1DF061FE44491DF066FF434B1860A52018F0DE
:20276000C3FC1DF057FE3F491DF05CFF374B1860C2E70228B2D0032C52D1B6E78E2018F054
:20278000B3FC344B18708B2018F0AEFC324B18708C2018F0A9FC314B18708D2018F0A4FC6F
:2027A0002F4B18708F2018F09FFC1DF033FE2D491DF038FF2C4B1860A62018F095FC1DF072
:2027C00029FE28491DF02EFF204B186094E7942018F08AFC1F4B1870912018F085FC1E4BF2
:2027E0001870922018F080FC1C4B1870932018F07BFC1B4B1870952018F076FC1DF00AFEC8
:2028000018491DF00FFF184B1860A72018F06CFC1DF000FE13491DF005FF0C4B18606BE791
:2028200000230C4A13700E4A13700B4A13700B4A13704FF07C520C4B1A604FF07E52034BD6
:202840001A6010BD002496E710BD00BF509DFF1F3333333F303900205E9EFF1FDC39002049
:20286000389DFF1F0000C8420037002008B5114B1B78022B05D110484FF4784115F038FACA
:2028800008BD012B04D10C48002115F031FA08BD032B05D108484FF4806115F029FA08BDA3
:2028A000042B05480CBF1F214FF6FF7115F020FA08BD00BFD73900205C9DFF1F30B583B0DA
:2028C0000546FFF7D3FF154C20464FF0FF3115F02FFA2046124916F03BFE124B1B784BB195
:2028E000002300932046294642F20E72462316F061FC08E0002300930848294642F20E72BC
:202900006E2316F057FC0548074916F021FE4FF47A7018F0D7FE03B030BD00BF5C9DFF1F8B
:20292000183D0300629EFF1FFC48030030B583B0054631B91848C8210A460B4615F0BCF9E9
:202940000FE0154C2046C8210A460B4615F0C2F9EA230093204606210A464FF49D7315F0A2
:202960001DFE0D4C20460D4916F0F2FD2046C8210A460B4615F0CAF92046002115F0B8F93D
:20298000002300932046294642F20E726E2316F011FC03B030BD00BF5C9DFF1FFC48030097
:2029A000F8B5374C206817214FF0FF320EF00AF90546206800210EF0E5F8064628461DF020
:2029C00029FD4FF07F511DF079FD2E491DF076FD054630461DF01AFD014628461DF022FE81
:2029E0000546206828214FF0FF320EF0EBF80746206800210EF0C6F8064638461DF00AFDDA
:202A00004FF07F511DF05AFD1E491DF057FD044630461DF0FBFC014620461DF003FE0446B2
:202A2000284619491DF0DEFE48B120464FF07E511DF0ECFE18B10520FFF720FB05E020462F
:202A40004FF07E511DF0E2FE20B128460F491DF02DFC05462846FDF791FFC0B20C4B187020
:202A600043B2142B0ADCB3F1FF3F07D009480021FFF75CFF4FF47A7018F024FEF8BD00BFF5
:202A8000B839002033335340000080BFCDCC4C3DD63900206CCE020010B5164C20460EF0D5
:202AA00049FE20460EF0A6FEB8B9642018F00AFE20460EF005FE20460EF03CFE20460EF059
:202AC00099FE50B90C480021FFF730FF4FF47A7018F0F8FD0220FFF7D1FA064C20460EF0F9
:202AE000FFFD20460EF058FE10B10020FDF7B4FF10BD00BFF03B00208CCE020038B513481D
:202B00000121FFF713FF4FF47A7018F0DBFDFFF76FF90F4C04F1100594F824301BB12846A1
:202B200013F0C6FE02E0204614F014F90028F3D0074B1B6A012119700648FFF7F7FEFFF7D9
:202B40005DF94FF47A7018F0BDFD38BDACCE0200AC97FF1FD0CE020010B50F4810F098FA10
:202B600098B10E4B1B7893B9002010BDFFF7C6FF094810F0ABFA012010BD0024084B1C7045
:202B8000054810F0A3FA204610BD002010BD044B1B78002BF1D1E9E7709FFF1FDF39002027
:202BA0003839002010B50446124B1B7883B10420002118F0E1FC00220E4B1A70C4B10E4857
:202BC0000121FFF7B3FE4FF47A7018F07BFD10BD0420012118F0D0FC0122064B1A703CB1AD
:202BE00006481146FFF7A2FE4FF47A7018F06AFD10BD00BF24390020E4CE0200F8CE020079
:202C000000B583B0124812F0BFFD12F09FFDB0F5FC6F1ADA962018F067FAC82815D10D48C8
:202C20000021FFF783FE4FF47A7018F04BFD012300934FF4FC62019200200146024612F0E3
:202C40008BFD12F003FD18F087FC03B05DF804FB790700000CCF020010B5224B1B78002B0B
:202C60003CD10020FEF7D6FC1F4901F58C6001F26C411422022310F0F7FA00B31A4C04F21B
:202C80003C4011F045F92046012112F0F3F920B92046002112F0EEF988B1134901F23C40B6
:202CA00010F0CEFE044650B10F4B93F83C3413F0700F1DBF0D4A0E4B1A6000245CB90D4892
:202CC0000021FFF733FE4FF47A7018F0FBFCFEF77FFD002403E0FEF77BFD00E00124204630
:202CE00010BD00BF5C3C0020C898FF1F049DFF1F883C002030CF020010B5FA2018F0F4F99A
:202D00000446DB283BD01E4B1B78ABBB972018F0EBF9C82829D12FE0FEE7C72C01D8FFF7B6
:202D2000BFFCD42C0FD89920002118F0F3F97E20002118F0EFF99020002118F0EBF99820FF
:202D4000002118F0E7F90F480021FFF7EFFDFA20DB2118F0DFF9FEE70B480021FFF7E6FDE8
:202D6000FA20DB2118F0D6F9FEE7FFF799FC05480021FFF7DBFDCFE7DA2CCED9ECE710BDB7
:202D80005C3C002048CF02006CCF020030B583B0054631B11A48C8210A460B4614F08CFF65
:202DA0000FE0174C2046C8210A460B4614F092FFEA230093204606210A464FF49D7315F067
:202DC000EDFB0F4C20460F4916F0C2FB2046C8210A460B4614F09AFF2046002114F088FF90
:202DE000002300932046294642F20E72192316F0E1F92046044916F0ABFB03B030BD00BFBA
:202E00005C9DFF1F183D0300FC480300F0B585B045480021FFF7BAFF444D2846002114F0A1
:202E200067FF434E2846314616F092FB2846C8210A460B4614F06AFF0024009428463D4912
:202E400042F20E72412316F0B5F9009428463A4942F20E72552316F0ADF9009428463749C7
:202E600042F20E72692316F0A5F900942846344942F20E727D2316F09DF9324D284617F00B
:202E800041FE2846304918F045F8372700972F4B0193029403942846A521A0228C2317F0EB
:202EA0004BFC00972A4B01930294039428460F21A0228C2317F040FC284617F0FFFD2846CD
:202EC000314618F027F8234C04F11006012594F824301BB1304613F0EBFC02E0204613F05D
:202EE00039FF10B1236A1D70F1E71A4C04F1100594F824301BB1284613F0DAFC02E020463C
:202F000013F028FF0028F3D0236A012119700D48002217F027FE10B10128E9D101E001201B
:202F200000E0002005B0F0BD94CF02005C9DFF1FFC480300A8CF0200CCCF0200ECCF020099
:202F40000CD002001C370020183D030030D0020034D00200AC97FF1F08B50F4B1B7843B9B9
:202F60000E480021FFF7E2FC4FF47A7018F0AAFB08BDFFF74BFF68B109480021FFF7D6FCD4
:202F80008120C82118F0C6F840F2DC5018F09AFBFEF770FA08BD00BF5C3C002038D0020041
:202FA00058D0020030B583B0894C2046C8210A460B4614F081FE2046864916F0C9FA204623
:202FC000C8210A460B4614F0A1FE20461F2114F08FFE0025009520467F4942F20E720A23C4
:202FE00016F0E8F820467D4916F0B2FA009520467B4942F20E72DC2316F0DCF820462946EC
:2030000014F076FE0095204676493222134616F0D1F80095204674493222462316F0CAF8C5
:2030200000952046714932225A2316F0C3F8009520466F4932226E2316F0BCF800952046FC
:203040006C493222822316F0B5F8009520466A493222962316F0AEF80095204667493222A9
:20306000AA2316F0A7F80095204665493222BE2316F0A0F82846FEF7CFFE38B1009520464E
:203080006049DC22322316F095F809E0002400944F485D49DC22322316F08CF85B4B1C70B4
:2030A0000120FEF7B9FE40B10023009348485549DC22462316F07EF807E000230093444862
:2030C0005149DC22462316F075F80220FEF7A4FE40B1002300933E484A49DC225A2316F082
:2030E00069F809E00024009439484749DC225A2316F060F8464B1C700320FEF78DFE40B133
:203100000023009332483F49DC226E2316F052F807E0002300932E483B49DC226E2316F0EC
:2031200049F80420FEF778FE40B10023009328483449DC22822316F03DF807E000230093B0
:2031400023483149DC22822316F034F80520FEF763FE40B1002300931D482A49DC22962304
:2031600016F028F807E00023009319482649DC22962316F01FF80620FEF74EFE40B100236D
:20318000009313481F49DC22AA2316F013F807E0002300930E481C49DC22AA2316F00AF8D2
:2031A0000720FEF739FE40B10023009308481549DC22BE2315F0FEFF07E00023009304489D
:2031C0001149DC22BE2315F0F5FF03B030BD00BF5C9DFF1F183D030078D00200FC4803005E
:2031E00088D00200ACD00200BCD00200CCD00200DCD00200ECD00200FCD002000CD10200B2
:203200001CD102002CD1020090CD0200629EFF1F2D9EFF1F08B5812017F066FFC82807D1C8
:203220008120002117F076FFFF220A4B1A7008BD084B1B78FF2B0CD00120FEF7EDFD30B1BE
:20324000FFF7B0FE4FF4FA6018F03CFA08BDFFF783F808BD7488FF1F08B50348FFF72EFBB3
:203260000322024B1A7008BD34D10200AA97FF1F30B583B00546104C2046104916F068F942
:203280002046002114F034FD2046C8210A460B4614F03CFD022300933023019320462946D1
:2032A00042F20E72502316F05BF82046044916F04FF903B030BD00BF5C9DFF1F183D0300BF
:2032C000FC48030070B506460D4608460D491DF0F5F81DF0B9FA0C4C84FB0034C217C2EBF4
:2032E0006414642202FB140428461DF0ADFA02463046064984EAE473A3EBE4731EF04AF991
:2033000070BD00BF0000C8421F85EB5140D1020070B584B0244E2548314617F0FBFD244CA6
:203320002046314616F014F92046FF210A460B4614F0C2FC20461F4916F00AF92046FF2157
:203340000A460B4614F0E2FC2046002114F0D0FC95230093184B0193184B029320465A2178
:2033600023228C2313F0B2FF002500952046144942F20E72C22315F01DFF2046314616F08B
:20338000E7F8009520460F4942F20E720A2315F011FF009520460C4942F20E72DC2315F0FD
:2033A00009FF04B070BD00BFFC4803001C3700205C9DFF1F183D03009065020068C3020018
:2033C00048D1020050D1020060D1020000B58BB00D4B1B680293029A0C4B1B68D21A0C4B63
:2033E000A3FB0212920903A80A49C2F13C021EF0D1F800230093084803A92D22C82315F0C9
:20340000D9FE0BB05DF804FBD03C0020589EFF1FD34D621080D102005C9DFF1F10B586B08F
:20342000254B1B682BB9254B1B680393039A224B1A60224B1B680493049A1F4B1B68D21AAA
:203440004EF660239A4208D90020FFF7A9FA1B4B1B680593059A184B1A60194B19784BB240
:20346000B3F1FF3F07D10023009316481649F02215F0A0FE1DE041B9002300931148134908
:203480004FF4877215F096FE13E00E4C0323009320230193204649B24FF48C72002315F0B0
:2034A0005FFF00230093204609494FF49B7215F081FE06B010BD00BF9C97FF1FD03C0020AD
:2034C000D63900205C9DFF1F9CD10200A8D1020008DF02002DE9F04182B03A4B1B79002B16
:2034E00036D012F01FF90146364D4FF00208CDF800803027019728460522002315F030FF79
:20350000314E00240094284631461722234615F051FE12F011F90146CDF8008001972846FB
:203520001B22234615F01CFF0094284631462D22234615F03FFE12F009F90146042300934D
:203540002023019328463122234615F009FF35E012F0E8F801461B4D4FF00208CDF8008029
:203560003027019728460522002315F0F9FE164E00240094284631461422234615F01AFEEB
:2035800012F0DAF80146CDF80080019728461B22234615F0E5FE0094284631462A22234609
:2035A00015F008FE12F0D2F80146042300932023019328463122234615F0D2FE02B0BDE806
:2035C000F08100BF5C9DFF1FDCDE020030B58BB0204B1B799BB1204B1B78002B37D002A8A3
:2035E0001E4919F029FD002300931A4802A9CF22E42315F095FE02A819F0B4FC27E0164B17
:203600001B78ABB9134C0025009520461449DC22E42315F0CFFD0095202301932046DB2133
:203620004FF49172E42315F09BFE0B4B1B7873B106A80A4919F000FD00230093054806A9D9
:20364000E622E42315F06CFE06A819F08BFC0BB030BD00BF5C9DFF1F5C3C0020C43900205B
:20366000ACD102002DE9F04182B0384B1B79002B34D012F039F80146344C022600963025FF
:20368000019520460522E42315F06AFE304F4FF00008CDF80080204639461722E42315F05E
:2036A00089FD12F02BF801460096019520461B22E42315F055FECDF80080204639462D2271
:2036C000E42315F077FD12F023F801460096019520463122E42315F043FE33E012F004F8C3
:2036E00001461A4C022600963025019520460522E42315F035FE164F4FF00008CDF80080B7
:20370000204639461422E42315F054FD11F0F6FF01460096019520461B22E42315F020FEFB
:20372000CDF80080204639462A22E42315F042FD11F0EEFF01460096019520463122E423A7
:2037400015F00EFE02B0BDE8F08100BF5C9DFF1FB8D1020030B583B0194C204678210A4663
:203760000B4614F0B7FAEA230093204606210A464FF49D7314F012FF2046C8210A460B466E
:2037800014F0A8FAB42500952046062124224FF49D7313F02BFC2046002114F0A9FA204631
:2037A000062124224FF49D7314F0A8FD204606212A464FF49D7314F0A1FD03B030BD00BF4F
:2037C0005C9DFF1FF0B585B0264C204617F09AF92046254917F09EFB4D270097234B019305
:2037E000002502950126039620460F212D22262316F0A2FF00971E4B01930295039620464E
:2038000040F20B112D22262316F096FF28230093184B01930295039520460F21BC22782314
:2038200016F08AFF23230093134B01930295039520465F218422822316F07EFF204617F0DE
:203840003DF90E4C20461F2114F052FA6F23009320464121392240F2011315F04FF805B053
:20386000F0BD00BF1C370020183D0300BCD10200C0D10200C4D102007CCD02005C9DFF1FF6
:2038800030B583B005460D4C20460D4915F060FE204678210A460B4614F038FA20464FF6CC
:2038A000FF7114F025FA002300932046294642F20E720E2315F07EFC03B030BD5C9DFF1FCF
:2038C000183D030030B583B00546114C20464FF6FF7114F00DFA6F230093204642213A2260
:2038E00040F2011313F082FB20464FF6FF7114F01FFA20461F2114F0FBF900230093204610
:20390000294642F20E724D2315F054FC03B030BD5C9DFF1FF0B585B0002849D1FFF71AFFDD
:203920003748FFF7ADFF374C2046002114F0E0F92046C8210A460B4614F0E8F920463249C9
:2039400015F006FE002500952046304942F20E723F2315F02FFC009520462D4942F20E725A
:20396000602315F027FC2B4E304617F0CBF82A4F3046394617F0CEFA28230093274B0193C2
:203980000295039530465A21BC228C2316F0D4FE304617F093F82046394615F0D9FD009545
:2039A00020461F4942F20E728C2315F003FC25E0144C2046C8210A460B4614F07DF920469D
:2039C000154915F0C5FD2046C8210A460B4614F09DF92046002114F08BF900250095204609
:2039E000074942F20E72642315F0E4FB009520460B4942F20E728C2315F0DCFB05B0F0BD68
:203A0000CCD102005C9DFF1FFC480300DCD10200FCD102001C370020183D030020D202006C
:203A200028D2020070B584B0FFF794FE3448FFF727FF344D2846002114F05AF9324E2846BC
:203A4000314615F085FD2846C8210A460B4614F05DF90024009428462C4942F20E72422362
:203A600015F0A8FB28462A4915F072FD00942846284942F20E72C92315F09CFB264D2846B9
:203A800017F040F82846314617F044FA37260096224B0193029403942846A5216A228C232D
:203AA00016F04AFE00961E4B01930294039428460F216A228C2316F03FFE284616F0FEFF6B
:203AC000184C04F1100594F824301BB1284612F0EFFE02E0204613F03DF90028F3D0236A76
:203AE000012119700C48002217F03CF810B10128E9D101E0012000E0002004B070BD00BF24
:203B000034D202005C9DFF1F183D030044D20200FC48030050D202001C37002030D0020036
:203B200034D00200AC97FF1F08B5032803D8DFE800F00A040608064806E0064804E00648D4
:203B400002E0064800E00648FFF7BCFE08BD00BF18E7020080D202008CD2020098D20200B2
:203B600074D2020008B5032803D8DFE800F00A040608064806E0064804E0064802E0064883
:203B800000E00648FFF79EFE08BD00BF18E7020080D202008CD2020098D20200A4D2020048
:203BA00008B5042804D8DFE800F00D0507090B00064808E0064806E0064804E0064802E090
:203BC000064800E00648FFF77DFE08BD18E70200B0D20200B8D20200BCD20200C4D20200FA
:203BE000A8D2020070B5264B1B78022B04D0012B14BF0026042600E00226FFF7ABFD2148C1
:203C0000FFF73EFEFFF7DEFD3046FFF7C9FF1E4C04F1100594F824301BB1284612F048FE97
:203C200002E0204613F096F80028F3D0236A012119701648002216F095FF032807D1144B0C
:203C40001E708A20314617F065FA012070BD022814D018B96EB1013EF6B20BE0012809D12E
:203C6000032E02D80136F6B204E0042E08BF002600E004263046FFF793FFCBE7002070BD50
:203C800034390020CCD20200AC97FF1F1C370020D497FF1F08B512280BD8DFE800F0300CCD
:203CA0000E10121416181A1C1E20222426282A2C2E00154824E0154822E0154820E015488C
:203CC0001EE015481CE015481AE0154818E0154816E0154814E0154812E0154810E0154844
:203CE0000EE015480CE015480AE0154808E0154806E0154804E0154802E0154800E01548A4
:203D0000FFF7E0FD08BD00BF18E70200E4D20200F0D20200FCD2020004D3020010D3020041
:203D20001CD3020028D3020030D302003CD3020044D3020050D3020058D3020060D30200DF
:203D400068D3020070D3020078D3020080D302008CD30200DCD2020070B584B0FFF7FAFCE9
:203D60005248FFF78DFD524D284616F0CBFE2846504917F0CFF87A2600964F4B01930024F0
:203D80000294039428460F212D225A2316F0D4FC00964A4B019302940394284673212D2279
:203DA0005A2316F0C9FC0096454B0193029403942846D7212D225A2316F0BEFC2823009304
:203DC000404B01930294039428460F21BC22782316F0B2FC284616F071FE3B4C04F1100558
:203DE00094F824301BB1284612F062FD02E0204612F0B0FF0028F3D0236A012119702C48B8
:203E0000002216F0AFFE70B930480121FEF78EFD0020FCF721FE00212D4B1970712017F09E
:203E200079F901243EE001281BD10220FDF7F4FF044640B927480121FEF778FD4FF47A7044
:203E400017F040FC2EE021480121FEF76FFD2220FCF702FE01211E4B1970712017F05AF9F1
:203E600020E002281BD10220FDF7D6FF044640B918480121FEF75AFD4FF47A7017F022FCDE
:203E800010E012480121FEF751FD2220FCF7E4FD02210F4B1970712017F03CF902E003287D
:203EA0009ED10024204604B070BD00BF94D302001C370020FC480300A0D30200A8D3020054
:203EC000B0D30200C4D10200AC97FF1FBCD30200EA390020CCD3020008B5092868D8DFE8FB
:203EE00000F0050E172029323B444E5C384B1878384B394A00280CBF1046184665E0374B7D
:203F00001878374B374A00280CBF104618465CE0354B1878354B364A00280CBF1046184674
:203F200053E0344B1878344B344A00280CBF104618464AE0324B1878324B334A00280CBF77
:203F40001046184641E0314B1878314B314A00280CBF1046184638E02F4B18782F4B304ACC
:203F600000280CBF104618462FE02E4B1B78022B20D02D4A2D48012B08BF104625E02C4BB1
:203F80001B78012B18D0022B18D0032B18D0294A2948042B08BF104617E0284B1B788BB1E6
:203FA000012B11D0264A2748022B08BF10460CE025480AE0254808E0254806E0254804E08F
:203FC000254802E0254800E02548FFF77BFC08BD9998FF1F48D40200E0D30200BC3900206F
:203FE00054D40200ECD30200509EFF1F5CD40200F8D30200629EFF1F64D4020004D4020099
:20400000363900206CD4020010D402002C39002074D4020018D40200E039002080D402009D
:2040200024D40200649FFF1F30D4020098D40200D7390020BCD40200B0D40200DD39002073
:204040003CD30200E0D4020018E702008CD40200A4D402003CD40200C8D40200D4D4020062
:20406000FCD20200F0B585B00546864C2046002113F03EFEEB230093204605210A4640F204
:204080003B1314F08BFAEC230093204604210A464FF49E7314F082FA2046C8210A460B4608
:2040A00013F018FEEA230093204606210A464FF49D7314F073FA744816F024FD002D27D19E
:2040C000714E50240094714B0193714B029300270397304617211C22234616F05BFB009472
:2040E0006C4B01936C4B02930397304678211C22234616F04FFB0094684B0193684B029366
:2041000003973046D9211C22234616F043FB53E0012D27D15C4D50240094624B0193624BB2
:20412000029300260396284617211C22234616F031FB00945D4B01935D4B02930396284698
:2041400078211C22234616F025FB0094594B0193594B029303962846D9211C22234616F046
:2041600019FB63E0022D27D1474D50240094534B0193534B029300260396284617211C221D
:20418000234616F007FB00944E4B01934E4B02930396284678211C22234616F0FBFA0094E9
:2041A0004A4B01934A4B029303962846D9211C22234616F0EFFA39E0032D37D150230093BE
:2041C000444A0192444A0292002203922E4817211C2216F0DFFA414B1B786BB950230093D1
:2041E0003F4A01923F4A029200220392264878211C2216F0CFFA0CE0502300933A4A0192B2
:204200003A4A0292002203921F4878211C2216F0C1FA50230093364A0192364A0292002281
:2042200003921948D9211C2216F0B4FA164D50240094314B0193314B0293002603962846E3
:2042400017218422234616F0A5FA00942C4B01932C4B02930396284678218422234616F012
:2042600099FA0094284B0193284B029303962846D9218422234616F08DFA284616F01EFCDD
:2042800005B0F0BD5C9DFF1F1C37002010FD0200D00F0300F09002006062020028190300B7
:2042A000C0F6020010A0020078650200E8120300E0120300F8AE0200309702000822030025
:2042C00008A0020028BD020038B5020080590200F0AE02009009030070620200EA39002030
:2042E00088C30200D8120300882E0300C8F60200482803008865020080F00200686202006B
:20430000D0F60200E0B7020000E8020080650200F0B583B007460E46FEF7A8FA234C204686
:204320004FF0FF3113F004FD2046214915F010F90025009520461F49DC220A2314F03AFF3C
:20434000009520461C4905220A2314F033FF012F0ED00095204619490A226E2314F02AFF1E
:2043600000952046164940F227126E2314F022FF0E4C00250095204612490522D22314F0CD
:2043800019FF009520461049FA22D22314F012FF20460E4915F0DCF8009520463146502211
:2043A0000C2314F007FF03B0F0BD00BF5C9DFF1F183D0300ECD40200F4D40200BCD102001B
:2043C000C0D10200FCD4020004D50200FC4803002DE9F0418EB006465E480121FEF7D6FCF6
:2043E0005D4D2846002113F083FC5C4F2846394615F0AEF82846C8210A460B4613F086FC42
:20440000002400942846564942F20E72422314F0D1FE00942846534942F20E72692314F009
:20442000C9FE00942846504942F20E727D2314F0C1FE4E4D284616F065FB28464C4916F08B
:2044400069FD4FF03708CDF800804A4B0193029403942846A521A0228C2316F06DF9CDF807
:204460000080454B01930294039428460F21A0228C2316F061F9284616F020FB2846394680
:2044800016F048FD3D4C04F1100594F824301BB1284612F00DFA02E0204612F05BFC002852
:2044A000F3D0236A012119703048002216F05AFB002849D132480021FEF738FA0020FDF7F4
:2044C000A9F8304831460FF087FD06F10E042E4B1868C6F80E001B7923712C4B1B787BB19D
:2044E00000238DF814308DF8153005A82549324601230FF015FD18B1224831460FF06CFD2C
:20450000234B1868C6F80E001B792371214B1B787BB100238DF814308DF8153005A81949C9
:20452000324601230FF0FCFC18B1164831460FF053FDFDF74DF918480021FEF7F7F94FF418
:204540007A7017F0BFF801E001289ED10EB0BDE8F08100BF0CD502005C9DFF1FFC48030066
:204560001CD5020040D502005CD502001C370020183D030030D0020034D00200AC97FF1FCA
:2045800078D50200049DFF1F88D502002D9EFF1F90D502002839002098D50200F0B585B094
:2045A00041480121FEF7F2FB404D2846002113F09FFB3F4E2846314614F0CAFF2846C8211F
:2045C0000A460B4613F0A2FB002400942846394942F20E72422314F0EDFD0094284636496A
:2045E00042F20E72692314F0E5FD00942846334942F20E727D2314F0DDFD314D284616F0F3
:2046000081FA28462F4916F085FC372700972E4B0193029403942846A521A0228C2316F0D8
:204620008BF80097294B01930294039428460F21A0228C2316F080F8284616F03FFA284683
:20464000314616F067FC224C04F11006012594F824301BB1304612F02BF902E0204612F049
:2046600079FB10B1236A1D70F1E7194C04F1100594F824301BB1284612F01AF902E020462D
:2046800012F068FB0028F3D0236A012119700C48002216F067FA10B10128E9D101E001200F
:2046A00000E0002005B0F0BDA8D502005C9DFF1FFC480300BCD50200D8D50200F4D50200AE
:2046C0001C370020183D030030D0020034D00200AC97FF1F2DE9F04184B00F4690460021DF
:2046E000FEF754FB3B4C204616F00CFA46250095394B0193002602960396204614213C2215
:204700002B4616F019F80095344B0193029603962046E6213C222B4616F00EF80095304BE0
:20472000019302960396204614219622822316F003F800952B4B0193029603962046AA21BA
:204740009622822315F0F8FF204616F0B7F93868FEF78EFD244C04F1100594F824301BB19E
:20476000284612F0A5F802E0204612F0F3FA0028F3D0236A01221A70164800210A4616F0FB
:20478000F1F901280BD1002E01DD013E02E00EB908F1FF3657F82600FEF76AFDDDE768B952
:2047A00008F1FF33B34201DD013602E0B34208BF002657F82600FEF75BFDCEE7022803D08C
:2047C0000328CAD1304601E04FF0FF3004B0BDE8F08100BF1C37002088D8020014D6020004
:2047E000C4D1020018D60200AC97FF1F2DE9F04F87B0FEF73BF8BC4C2046BC4914F0A8FE00
:2048000020464FF0FF3113F093FAEB26009620469521E1229F2314F0F9F800962046962103
:20482000E122A02314F0F2F8009620469721E122A12314F0EBF8E127009720469F21324625
:20484000A92314F0E3F800972046A0213246AA2314F0DCF800972046A1213246AB2314F0C9
:20486000D5F84FF0770BCDF800B020460F216D22052314F0CBF84FF0780ACDF800A0204695
:204880000F216E22052314F0C1F84FF07909CDF8009020460F216F22052314F0B7F88123B7
:2048A0000093204605215A460F2314F0AFF8822300932046052152460F2314F0A7F8832385
:2048C0000093204605214A460F2314F09FF805250095204695210F229F2314F097F8009566
:2048E000204696210F22A02314F090F80095204697210F22A12314F089F84FF00F08CDF8D3
:20490000008020469F212A46A92314F07FF8CDF800802046A0212A46AA2314F077F8CDF859
:2049200000802046A1212A46AB2314F06FF8CDF800B0204640F231116D2240F23B1314F0C4
:2049400065F8CDF800A0204640F231116E2240F23B1314F05BF8CDF80090204640F2311125
:204960006F2240F23B1314F051F881230093204640F23B115A4640F2311314F047F88223C0
:204980000093204640F23B11524640F2311314F03DF883230093204640F23B114A4640F27A
:2049A000311314F033F8E022009220462946192314F02CF80097204629463A46192314F08B
:2049C00025F8E222009220462946192314F01EF84FF00E0ACDF800A0204629465246192394
:2049E00014F014F8CDF80080204629464246192314F00CF84FF01009CDF80090204629463F
:204A00004A46192314F002F84FF0190BCDF800B0204651462A46534613F0F8FFCDF800B07F
:204A2000204641462A46434613F0F0FFCDF800B0204649462A464B4613F0E8FF02A841213D
:204A400018F04EFB4FF00008CDF80080204602A94FF496722B4614F063FC02A818F082FA1B
:204A600020464146FF22434613F034F9009620464FF493713A464FF4987313F0C7FF0096FF
:204A8000204640F227113A4640F2311313F0BEFF009620464FF494713A464FF4997313F07A
:204AA000B5FFD725009520464FF4987132464FF49D7313F0ABFF0095204640F231113246A0
:204AC00040F23B1313F0A2FF009520464FF4997132464FF49E7313F099FF2046044914F04C
:204AE00037FD07B0BDE8F08F5C9DFF1F183D0300FC48030010B582B0FDF7B8FE0C4C204692
:204B00004FF0FF3113F014F920460A4914F020FD002300932046084942F20E726E2314F086
:204B200049FB2046054914F013FD02B010BD00BF5C9DFF1F183D0300BCD30200FC480300E4
:204B400008B5032803D8DFE800F00A040608064806E0064804E0064802E0064800E00648AD
:204B6000FEF7B0FE08BD00BF18E7020080D202008CD2020098D2020074D2020070B582B04E
:204B8000B34C2046002113F0B3F8EB230093204605210A4640F23B1313F000FDEC23009342
:204BA000204604210A464FF49E7313F0F7FCFEF7D1FDA848FEF764FEFEF704FE0020FFF7B9
:204BC000BFFF0026A44C04F1100594F824301BB1284611F06DFE02E0204612F0BBF800284C
:204BE000F3D0236A012119709C48002215F0BAFF032840F02181032E00F24C81DFE806F04C
:204C0000020864C09920002116F084FA012044E17920934B197816F07DFA7A20914B197836
:204C200016F078FA7B20904B197816F073FA7C208E4B197816F06EFA8D4B18688D491BF0D5
:204C40003DFC044600211BF0EBFD40B120464FF07C511BF02BFB1BF0F7FD014607E0204696
:204C60004FF07C511BF020FB1BF0EEFD01467D20C9B216F04FFA804B18687E491BF01EFC27
:204C8000044600211BF0CCFD40B120464FF07C511BF00CFB1BF0D8FD014607E020464FF0AD
:204CA0007C511BF001FB1BF0CFFD0146A520C9B216F030FA7E20C82116F02CFA9920012104
:204CC00016F028FA0120E8E08B20654B197816F021FA8C20634B197816F01CFA8D20624B55
:204CE000197816F017FA8E20604B197816F012FA5F4B18685F491BF0E1FB044600211BF0E1
:204D00008FFD40B120464FF07C511BF0CFFA1BF09BFD014607E020464FF07C511BF0C4FAC4
:204D20001BF092FD01468F20C9B216F0F3F9524B186850491BF0C2FB044600211BF070FD15
:204D400040B120464FF07C511BF0B0FA1BF07CFD014607E020464FF07C511BF0A5FA1BF062
:204D600073FD0146A620C9B216F0D4F99020C82116F0D0F99920022116F0CCF901208CE0CC
:204D80009120374B197816F0C5F99220354B197816F0C0F99320344B197816F0BBF99420D8
:204DA000324B197816F0B6F9314B186831491BF085FB044600211BF033FD40B120464FF0F3
:204DC0007C511BF073FA1BF03FFD014607E020464FF07C511BF068FA1BF036FD0146952000
:204DE000C9B216F097F9244B186822491BF066FB044600211BF014FD40B120464FF07C51F2
:204E00001BF054FA1BF020FD014607E020464FF07C511BF049FA1BF017FD0146A720C9B27B
:204E200016F078F99820C82116F074F99920032116F070F9012030E018B936B3013EF6B2C9
:204E400024E001281ED1022E18D80136F6B21DE05C9DFF1F20D60200AC97FF1F1C37002057
:204E60005E9EFF1FDC390020389DFF1F30390020003700200000C842509DFF1F032E08BF03
:204E8000002603E0022801D106E003263046FFF757FE9AE6012000E0002002B070BD00BFFE
:204EA00008B5032803D8DFE800F00A040608064806E0064804E0064802E0064800E006484A
:204EC000FEF700FD08BD00BF18E7020080D202008CD2020098D20200A4D2020070B584B06A
:204EE00001461D48FDF752FF1C4D284615F00AFE462600961A4B0193002402940394284623
:204F000014213C22822315F017FC0096154B0193029403942846AA213C22822315F00CFC41
:204F20000096114B019302940394284614219622822315F001FC00960C4B0193029403940E
:204F40002846AA219622822315F0F6FB284615F0B5FD04B070BD00BF30D602001C37002085
:204F600038D602003CD6020044D60200C4D102002DE9F04784B001466F48FDF707FF6F4D25
:204F8000284615F0BFFD462600966D4B0193002402940394284614213C22334615F0CCFBFD
:204FA0000096684B0193029403942846E6213C22334615F0C1FB0096634B019302940394D5
:204FC0002846142196224FF48C7315F0B5FB284615F074FD10F0A6FBFEF74AF95B4C04F126
:204FE000100594F824301BB1284611F061FC02E0204611F0AFFE0028F3D0236A012119700B
:205000004E48002215F0AEFD002842D110F08AFB0028E6DD10F086FB01281ADD10F064FB7D
:20502000814610F06BFB804610F072FB074610F079FB064610F080FB824610F087FBCDF879
:2050400000A00190484641463A46731E10F084FB1AE010F067FB012816D110F045FB804608
:2050600010F04CFB074610F053FB064610F064FB814610F06BFBCDF800900190404639468B
:2050800032461F2310F068FB10F04CFBFEF7F0F8A7E7012842D110F045FB1F28A1DC10F001
:2050A00041FB1E281ADC10F01FFB814610F026FB804610F02DFB074610F034FB064610F0C0
:2050C0003BFB824610F042FBCDF800A00190484641463A46731C10F03FFB1AE010F022FB2A
:2050E0001F2816D110F000FB804610F007FB074610F00EFB064610F01FFB814610F026FB1B
:20510000CDF800900190404639463246012310F023FB10F007FBFEF7ABF862E702287FF46A
:2051200060AF10F093FA16F017FA0020FFF7D6FE04B0BDE8F08700BF38D602001C370020C0
:2051400088D8020014D60200C4D10200AC97FF1F2DE9F04784B001467048FDF717FE704DC3
:20516000284615F0CFFC462600966E4B0193002402940394284614213C22334615F0DCFAFC
:205180000096694B0193029403942846E6213C22334615F0D1FA0096644B019302940394E2
:2051A0002846142196224FF48C7315F0C5FA284615F084FC10F0C0FAFEF75AF85C4C04F1FD
:2051C000100594F824301BB1284611F071FB02E0204611F0BFFD0028F3D0236A012119700B
:2051E0004F48002215F0BEFC002843D110F0A4FA0028E6DD10F0A0FA01281BDD10F074FA49
:20520000814610F07BFA804610F082FA074610F089FA064610F090FA824610F097FA0AF116
:20522000FF3300930190484641463A46334610F093FA1AE010F080FA012816D110F054FAAB
:20524000814610F05BFA804610F062FA074610F069FA064610F07AFA0C23009301904846BF
:2052600041463A46334610F077FA10F065FAFDF7FFFFA6E7012843D110F05EFA0C28A0DC1A
:2052800010F05AFA0B281BDC10F02EFA814610F035FA804610F03CFA074610F043FA0646A0
:2052A00010F04AFA824610F051FA0AF1010300930190484641463A46334610F04DFA1AE025
:2052C00010F03AFA0C2816D110F00EFA814610F015FA804610F01CFA074610F023FA06460F
:2052E00010F034FA012300930190484641463A46334610F031FA10F01FFAFDF7B9FF60E7F3
:2053000002287FF45EAF10F0A1F916F025F90020FFF7E4FD04B0BDE8F08700BF3CD602008B
:205320001C37002088D8020014D60200C4D10200AC97FF1F2DE9F04784B001465048FDF760
:2053400025FD504D284615F0DDFB462600964E4B0193002402940394284614213C22334649
:2053600015F0EAF90096494B0193029403942846E6213C22334615F0DFF90096444B019378
:20538000029403942846142196224FF48C7315F0D3F9284615F092FB10F0D8F9FDF768FF46
:2053A0003C4C04F1100594F824301BB1284611F07FFA02E0204611F0CDFC0028F3D0236A3D
:2053C000012119702F48002215F0CCFB20BB10F0BDF9B0F5FC6FE6DD10F086F9814610F013
:2053E0008DF9804610F094F9074610F09BF9064610F0A2F9824610F0A9F9CDF800A0013804
:205400000190484641463A46334610F0A5F910F09DF9FDF72DFFC6E7012825D110F096F93E
:2054200040F632039842BEDC10F05EF9814610F065F9804610F06CF9074610F073F90646E1
:2054400010F07AF9824610F081F9CDF800A001300190484641463A46334610F07DF910F0EC
:2054600075F9FDF705FF9EE702289CD110F0EEF816F072F80020FFF731FD04B0BDE8F08740
:2054800044D602001C37002088D8020014D60200C4D10200AC97FF1F70B584B001461D4832
:2054A000FDF774FC1C4D284615F02CFB462600961A4B0193002402940394284614213C2238
:2054C000822315F039F90096154B0193029403942846AA213C22822315F02EF90096114BDF
:2054E000019302940394284614219622822315F023F900960C4B0193029403942846AA21E3
:205500009622822315F018F9284615F0D7FA04B070BD00BF4CD602001C37002054D6020071
:205520005CD6020064D60200C4D102002DE9F04784B001466E48FDF729FC6E4D284615F09F
:20554000E1FA462600966C4B0193002402940394284614213C22334615F0EEF80096674B25
:205560000193029403942846E6213C22334615F0E3F80096624B0193029403942846142197
:2055800096224FF48C7315F0D7F8284615F096FA10F0BEF8FDF76CFE5A4C04F1100594F8EA
:2055A00024301BB1284611F083F902E0204611F0D1FB0028F3D0236A012119704D480022F1
:2055C00015F0D0FA002841D110F0A2F80028E6DB10F09EF800281ADD10F086F8814610F045
:2055E0008DF8804610F094F8074610F09BF8064610F0A2F8824610F0A9F8CDF800A00190AF
:20560000484641467A1E334610F0A6F819E010F07FF8B0B910F068F8804610F06FF8074613
:2056200010F080F8064610F087F8814610F08EF8CDF800900190404639463B22334610F019
:205640008BF810F065F8FDF713FEA8E7012842D110F05EF83B28A2DC10F05AF83A281ADCB9
:2056600010F042F8814610F049F8804610F050F8074610F057F8064610F05EF8824610F0D4
:2056800065F8CDF800A00190484641467A1C334610F062F81AE010F03BF83B2816D110F0C2
:2056A00023F8804610F02AF8074610F03BF8064610F042F8814610F049F8CDF800900190F3
:2056C000404639460022334610F046F810F020F8FDF7CEFD63E702287FF461AF0FF0B6FF6A
:2056E00015F03AFF0020FFF7D7FE04B0BDE8F08764D602001C37002088D8020014D60200B4
:20570000C4D10200AC97FF1F2DE9F04784B001466F48FDF73BFB6F4D284615F0F3F9462661
:2057200000966D4B0193002402940394284614213C22334615F000F80096684B019302944C
:2057400003942846E6213C22334614F0F5FF0096634B0193029403942846142196224FF4CB
:205760008C7314F0E9FF284615F0A8F90FF0C6FFFDF77EFD5B4C04F1100594F824301BB19A
:20578000284611F095F802E0204611F0E3FA0028F3D0236A012119704E48002215F0E2F92C
:2057A000002842D10FF0AAFF0028E6DB0FF0A6FF00281BDD0FF098FF81460FF09FFF804699
:2057C0000FF0A6FF07460FF0ADFF06460FF0B4FF82460FF0BBFFCDF800A00190484608F131
:2057E000FF313A4633460FF0B7FF19E00FF086FFB0B90FF079FF80460FF08AFF07460FF0D4
:2058000091FF06460FF098FF81460FF09FFFCDF80090019040463B213A4633460FF09CFF57
:205820000FF06CFFFDF724FDA7E7012843D10FF065FF3B28A1DC0FF061FF3A281BDC0FF024
:2058400053FF81460FF05AFF80460FF061FF07460FF068FF06460FF06FFF82460FF076FF0A
:20586000CDF800A00190484608F101013A4633460FF072FF1AE00FF041FF3B2816D10FF0BE
:2058800033FF80460FF044FF07460FF04BFF06460FF052FF81460FF059FFCDF80090019098
:2058A000404600213A4633460FF056FF0FF026FFFDF7DEFC61E702287FF45FAF0FF0C6FE4C
:2058C00015F04AFE0020FFF7E7FD04B0BDE8F0875CD602001C37002088D8020014D60200BC
:2058E000C4D10200AC97FF1F2DE9F04784B001466F48FDF74BFA6F4D284615F003F9462661
:2059000000966D4B0193002402940394284614213C22334614F010FF0096684B0193029454
:2059200003942846E6213C22334614F005FF0096634B0193029403942846142196224FF4D9
:205940008C7314F0F9FE284615F0B8F80FF0CCFEFDF78EFC5B4C04F1100594F824301BB186
:20596000284610F0A5FF02E0204611F0F3F90028F3D0236A012119704E48002215F0F2F816
:20598000002842D10FF0B0FE0028E6DB0FF0ACFE00281BDD0FF0A8FE81460FF0AFFE80468F
:2059A0000FF0B6FE07460FF0BDFE06460FF0C4FE82460FF0CBFECDF800A0019009F1FF3071
:2059C00041463A4633460FF0C7FE19E00FF08CFEB0B90FF093FE80460FF09AFE07460FF05F
:2059E000A1FE06460FF0A8FE81460FF0AFFECDF800900190172041463A4633460FF0ACFE5E
:205A00000FF072FEFDF734FCA7E7012843D10FF06BFE1728A1DC0FF067FE16281BDC0FF06C
:205A200063FE81460FF06AFE80460FF071FE07460FF078FE06460FF07FFE82460FF086FECE
:205A4000CDF800A0019009F1010041463A4633460FF082FE1AE00FF047FE172816D10FF0F3
:205A60004DFE80460FF054FE07460FF05BFE06460FF062FE81460FF069FECDF80090019061
:205A8000002041463A4633460FF066FE0FF02CFEFDF7EEFB61E702287FF45FAF0FF0D6FD38
:205AA00015F05AFD0020FFF7F7FC04B0BDE8F08754D602001C37002088D8020014D60200C4
:205AC000C4D10200AC97FF1FF0B585B007461C483946FDF75BF91B4D284615F013F846262A
:205AE0000096194B0193002402940394284614213C22822314F020FE0096144B01930294E0
:205B000003942846AA213C22822314F015FE00960F4B0193029403942846142196224FF44C
:205B20008C7314F009FE2FB128460221094A234614F0D6FF034814F0C1FF05B0F0BD00BF25
:205B400090D802001C3700204CD6020030D602006CD6020074D6020070B50646164C04F1E4
:205B6000100594F824301BB1284610F0A1FE02E0204611F0EFF80028F3D0236A01221A7002
:205B80000E4800210A4614F0EDFF18B93046FFF7EFF9E6E7012803D13046FFF7D9FAE0E759
:205BA000022803D13046FFF7C5FBDAE70328D8D13046FFF789FF70BDAC97FF1F1C37002031
:205BC00070B50646164C04F1100594F824301BB1284610F06DFE02E0204611F0BBF800283F
:205BE000F3D0236A01221A700E4800210A4614F0B9FF18B93046FFF777FEE6E7012803D1A9
:205C00003046FFF781FDE0E7022803D13046FFF78DFCDAE70328D8D13046FFF755FF70BD5E
:205C2000AC97FF1F1C37002070B584B01D480021FDF7ACF81C4D284614F064FF46260096D9
:205C40001A4B0193002402940394284614213C22822314F071FD0096154B0193029403942B
:205C60002846AA213C22822314F066FD0096114B019302940394284614219622822314F0CA
:205C80005BFD00960C4B0193029403942846AA219622822314F050FD284614F00FFF04B0E3
:205CA00070BD00BF78D602001C37002080D6020090D60200A0D60200C4D10200F0B585B08C
:205CC00006464A483146FDF761F8494D284614F019FF46270097474B019300240294039487
:205CE000284614213C22822314F026FD0097424B0193029403942846AA213C22822314F0B2
:205D00001BFD7EB100973D4B0193029403942846142196224FF48C7314F00EFD0122384B0A
:205D20001A700DE046230093364B01930023029303932F48142196224FF48C7314F0FCFCEB
:205D40002B4814F0BBFE2E4B1B783BB92848002115F020F82C4C04F1100504E02448012171
:205D600015F018F8F6E794F824301BB1284610F09FFD02E0204610F0EDFF0028F3D0236ACF
:205D800001221A701A4800210A4614F0EBFE78B91B4B1B78002BE6D00021194B1970144F1A
:205DA000384614F0F7FF3846012115F053F8DAE701280FD1124B1B78002BD4D10121104B74
:205DC00019700B4F384614F0E5FF3846002115F041F8C8E70228C6D16820094B197815F0BB
:205DE00099F90EB9FFF720FF05B0F0BD90D602001C370020A8D60200B4D6020074D60200A0
:205E00002D9EFF1FC4D10200AC97FF1FF0B585B006464A483146FCF7B9FF494D284614F0BF
:205E200071FE46270097474B0193002402940394284614213C22822314F07EFC0097424B30
:205E40000193029403942846AA213C22822314F073FC76B100973D4B01930294039428465D
:205E6000142196224FF48C7314F066FC384B1C700DE046230093374B019300230293039331
:205E80002F48142196224FF48C7314F055FC2C4814F014FE2E4B1B783BB92948002114F0E7
:205EA00079FF2D4C04F1100504E02548012114F071FFF6E794F824301BB1284610F0F8FC15
:205EC00002E0204610F046FF0028F3D0236A01221A701B4800210A4614F044FE78B91C4B5E
:205EE0001B78002BE6D00021194B1970144F384614F050FF3846012114F0ACFFDAE70128B3
:205F00000FD1134B1B78002BD4D10121104B19700B4F384614F03EFF3846002114F09AFF85
:205F2000C8E70228C6D16720094B197815F0F2F80EB9FFF779FE05B0F0BD00BF80D60200E9
:205F40001C370020C0D60200CCD6020074D6020028390020C4D10200AC97FF1FF0B585B0F3
:205F6000464B1B784BB946480021FCF7DFFCFCF773FE10B9FFF758FE7EE042480021FCF707
:205F800005FF414D2846002111F0B2FE3F4E2846314613F0DDFA2846C8210A460B4611F0EA
:205FA000B5FE002400942846394942F20E72422313F000F900942846364942F20E726923B0
:205FC00013F0F8F800942846334942F20E727D2313F0F0F8314D284614F094FD28463049A9
:205FE00014F098FF372700972E4B0193029403942846A521A0228C2314F09EFB00972A4B89
:2060000001930294039428460F21A0228C2314F093FB284614F052FD2846314614F07AFFFB
:20602000224C04F1100594F824301BB1284610F03FFC02E0204610F08DFE0028F3D0236A48
:20604000012119701548002214F08CFD80B918480121FCF76BFCFBF7A3FC16480121FCF770
:2060600065FC4FF47A7015F02DFBFBF75BFC01E00128D8D1FFF7D8FD05B0F0BD5C3C002084
:20608000D8D6020078D602005C9DFF1FFC480300ECD602000CD7020028D702001C37002085
:2060A000183D030030D0020034D00200AC97FF1F4CD7020064D7020070B584B01D480021DE
:2060C000FCF764FE1C4D284614F01CFD462600961A4B0193002402940394284614213C222A
:2060E000822314F029FB0096154B0193029403942846AA213C22822314F01EFB0096114BD1
:20610000019302940394284614219622822314F013FB00960C4B0193029403942846AA21C5
:206120009622822314F008FB284614F0C7FC04B070BD00BF78D702001C37002080D7020009
:2061400090D70200A0D70200C4D10200F0B585B0064645483146FCF719FE444D284614F08F
:20616000D1FC46270097424B0193002402940394284614213C22822314F0DEFA00973D4B3B
:206180000193029403942846AA213C22822314F0D3FA0097384B01930294039428461421B3
:2061A00096224FF48C7314F0C7FA3EB128460221324A234614F094FC314B1C702B4814F0A8
:2061C0007DFC2F4B1B783BB92848002114F0E2FD2C4C04F1100504E02448012114F0DAFD02
:2061E000F6E794F824301BB1284610F061FB02E0204610F0AFFD0028F3D0236A01221A7033
:206200001A4800210A4614F0ADFC78B91C4B1B78002BE6D000211A4B1970144F384614F0FE
:20622000B9FD3846012114F015FEDAE701280FD1134B1B78002BD4D10121114B19700B4F05
:20624000384614F0A7FD3846002114F003FEC8E70228C6D165200A4B197814F05BFF0EB974
:20626000FFF72AFF05B0F0BD54D902001C370020B0D70200B8D702006CD6020074D6020051
:206280005C9EFF1FAC97FF1F2DE9F04184B0064647483146FCF77AFD464D284614F032FC1B
:2062A00046270097444B0193002402940394284614213C22822314F03FFA00973F4B0193CE
:2062C000029403942846AA213C22822314F034FA00973B4B019302940394284614219622EA
:2062E0004FF48C7314F028FA2EB128460221354A234614F0F5FB2F4814F0E0FB324B1B7884
:206300003BB12C48002114F045FD304C04F1100504E02848012114F03DFDF6E794F82430BF
:206320001BB1284610F0C4FA02E0204610F012FD0028F3D0236A01221A701E4800210A4612
:2063400014F010FC88B9204B1B78002BE6D101271D4B1F70DFF85C804046002114F01AFD78
:206360004046394614F076FDD8E7012811D1164B1B78002BD2D00027134B1F70DFF8348077
:206380004046012114F006FD4046394614F062FDC4E70228C2D170200B4B197814F0BAFE4B
:2063A0001EB9FCF7D1F8FFF787FE04B0BDE8F08190D702001C370020C4D70200A8D602000C
:2063C0006CD6020074D60200609FFF1FAC97FF1F2DE9F04184B03A480021FCF7D7FC394D45
:2063E000284614F08FFB46260096374B0193002402940394284614213C22822314F09CF9F9
:206400000096324B0193029403942846AA213C22822314F091F900962D4B0193029403940F
:20642000284614219622822314F086F90096294B0193029403942846AA219622822314F074
:206440007BF9284614F03AFB2846234B197814F0A1FC224C04F1100694F824301BB1304678
:2064600010F026FA02E0204610F074FC0028F3D0236A01221A70134800210A4614F072FBE2
:20648000054602280ED80F4FDFF84C80384698F8001014F0DFFC88F800503846E9B214F0B6
:2064A00079FCD9E70328D7D180200B4B197814F031FEFAF7EDFFFFF7FFFD04B0BDE8F08181
:2064C000A0D702001C370020A8D60200CCD70200D4D70200C4D10200DF390020AC97FF1FCE
:2064E00070B584B01F480021FCF750FC1E4D284614F008FB28461D4914F00CFD46260096B9
:206500001B4B0193002402940394284614213C22822314F011F90096164B019302940394C4
:206520002846AA213C22822314F006F90096124B019302940394284614219622822314F064
:20654000FBF800960D4B0193029403942846AA219622822314F0F0F8284614F0AFFA04B048
:2065600070BD00BFDCD702001C370020FC48030078D7020078D6020090D80200C4D102001E
:2065800070B506461F4C04F1100594F824301BB1284610F08DF902E0204610F0DBFB00282F
:2065A000F3D0236A01221A70174800210A4614F0D9FA30B93046FEF76FFF3046FFF700FB0E
:2065C000E3E7012806D13046FEF788FC3046FFF7C3FADAE70228D8D186B10FF0B7F8B0F5BB
:2065E000FC6F0DDA09480021FCF7A0F94FF47A7015F068F80120FFF767FAC6E7FFF770FF2F
:2066000070BD00BFAC97FF1F1C370020E8D7020038B5154C04F1100594F824301BB1284687
:2066200010F046F902E0204610F094FB0028F3D0236A01221A700D4800210A4614F092FAC9
:2066400010B9FFF7E3FBE7E7012803D10020FFF735FBE1E7022802D1FFF780FCDCE7032867
:20666000DAD1FFF73DFF38BDAC97FF1F1C37002038B5154C04F1100594F824301BB1284602
:2066800010F016F902E0204610F064FB0028F3D0236A01221A700D4800210A4614F062FAF9
:2066A00010B9FFF753FDE7E7012803D10020FFF7EBFDE1E7022802D1FFF78AFEDCE70328D1
:2066C000DAD1FFF70DFF38BDAC97FF1F1C37002038B5184C04F1100594F824301BB12846CF
:2066E00010F0E6F802E0204610F034FB0028F3D0236A01221A70104800210A4614F032FA27
:2067000020B9FFF7D9FCFFF7B3FFE5E7012804D1FFF78AFAFFF77CFFDEE7022806D1002092
:20672000FFF7D2F90020FFF72BFFD5E70328D3D138BD00BFAC97FF1F1C370020F0B59BB055
:206740004E4C2046C8210A460B4611F0B5FA2046C8210A460B4611F0D9FA494F20463946BE
:2067600012F0F6FE02A8474916F048FC00250095204602A942F20E72142312F0ABFD02A895
:2067800016F0F0FB2046404912F0E2FE06A83F4916F034FC1F260096204606A942F20E7227
:2067A0003C2312F097FD06A816F0DCFB2046394612F0CEFE0AA8364916F020FC0095204658
:2067C0000AA942F20E726E2312F084FD0AA816F0C9FB0EA82F4916F011FC009520460EA9CF
:2067E00042F20E728C2312F075FD0EA816F0BAFB12A8294916F002FC0095204612A942F237
:206800000E72AA2312F066FD12A816F0ABFB16A8224916F0F3FB0096204616A942F20E72D4
:20682000D22312F057FD16A816F09CFB1C4C04F1100594F824301BB1284610F039F802E013
:20684000204610F087FA0028F3D0154B1B6A01221A70134C04F11006154694F824301BB163
:20686000304610F025F802E0204610F073FA10B1236A1D70F1E71BB0F0BD00BF5C9DFF1FCF
:20688000FC48030000D80200183D030050D1020010D8020030D8020050D8020070D80200F4
:2068A000AC97FF1FF0B5ABB005460F46704C2046C8210A460B4611F0FFF92046C8210A4693
:2068C0000B4611F023FA20466A4912F041FE02A8294616F0B1FB1F230093204602A942F20A
:2068E0000E72142312F0F6FC02A816F03BFB2046614912F02DFE06A805F1100116F09CFB78
:2069000000260096204606A942F20E72372312F0E1FC06A816F026FB0AA805F1200116F015
