:020000040000FA
:2000000000800020BD0100004DB3010005B3010005B3010005B3010005B3010005B30100E4
:2000200005B3010005B3010005B301004DB301004DB3010005B301004DB30100F5B2010031
:200040004DB301004DB301004DB301004DB301004DB301004DB301004DB301004DB3010098
:200060004DB301004DB301004DB301004DB301004DB301004DB301004DB301004DB3010078
:200080004DB301004DB301004DB301004DB301004DB301004DB301004DB301004DB3010058
:2000A000118401001D8401004DB301004DB301004DB301004DB301004DB301004DB3010002
:2000C0004DB301004DB301004DB301004DB301004DB301004DB301004DB301004DB3010018
:2000E0004DB301004DB301004DB301004DB301004DB301004DC101004DB30100FDDC010011
:200100004DB301006DE201004DB301004DB301004DB301004DB301004DB301004DB3010088
:200120004DB301004DB301004DB301004DB301004DB301004DB301004DB301004DB30100B7
:200140004DB301004DB301004DB301004DB301004DB301004DB301004DB301004DB3010097
:200160004DB30100C9C301004DB301004DB301004DB301004DB301004DB301004DB30100EB
:200180004DB301004DB301004DB301004DB301004DB301004DB301004DB301004DB3010057
:2001A0004DB301004DB301004DB301004DB301004DB301004DB301004DB30100564B4CF259
:2001C000205210B51A804DF628121A8000BF00BF1BF0C0F8514B4FF010621A60504A9A609B
:2001E000504ADA60504A136813F4807304D14F490B604FF4A85313604D4B1A78110703D579
:200200001A7842F008021A704A4B4B492A221A704A4A4B4B8B4204D252F8040F43F8040B13
:20022000F8E7484B484900228B4202D243F8042BFAE74649464A002352F8230041F82300A2
:2002400001336F2BF8D1434B434A802103F8011B9342FBD1414B3D4A1A60414B8A221A7044
:20026000A3F5805324225A70A0221A709A799207FCD59A79D406FCD43A4A937903F00C03EB
:20028000082B384BF9D103221A714C225A719A799006FCD5334A9179324B4906FBD5324ADC
:2002A0004FF0017111600421516020221A709A7902F00C020C2AFAD12C4B2D4A1A602D4B86
:2002C0002D4A1A6000225A60072243F8042C2B4AC3F80C2D62B61BF0CFFB144B1B68DA07A4
:2002E00005D527481BF028FB264B274A1A60274B1B785B0609D5234C234B22689A4204D1CF
:200300001F481BF019FB0023236020F0EDFC04F079FE1CF067FFFEE70E200540308004408F
:20032000823F04000100002B10D0034014D0034002D0074000E007406098FF1F4C65030078
:200340002087FF1F6098FF1F4CA9FF1F0082FF1F0000000000E400E05FE400E008ED00E053
:2003600000500640004006404480044004800440C010050014E000E07F32020000002020F5
:200380007A900C051CE00340A5C3945A00F00740FFFFFFFFFFFFFFFFFFFFFFFFFFFFFFFF86
:2003A000FFFFFFFFFFFFFFFFFFFFFFFFFFFFFFFFFFFFFFFFFFFFFFFFFFFFFFFFFFFFFFFF5D
:2003C000FFFFFFFFFFFFFFFFFFFFFFFFFFFFFFFFFFFFFFFFFFFFFFFFFFFFFFFFFFFFFFFF3D
:2003E000FFFFFFFFFFFFFFFFFFFFFFFFFFFFFFFFFFFFFFFFFFFFFFFFFFFFFFFFFFFFFFFF1D
:20040000FFFFFFFFFFFFFFFFFFFFFFFFDEF9FFFF10B5054C237833B9044B13B10448AFF375
:2004200000800123237010BD6098FF1F0000000048650300084B10B51BB108490848AFF3CB
:2004400000800848036803B910BD074B002BFBD0BDE81040184700BF000000006498FF1F63
:20046000486503006098FF1F000000002DE9F04F85B094880391D188A14266D33548364B09
:20048000007893F800E0354D354B95F800B01B78344E354F354DD6F800903F780097C0EBC8
:2004A0008078C0EB88080EEB8E0E0EEB080A4FF4C86000FB0BA0C3EB837605FB030AC3EBF6
:2004C000860302930020052313FB0B43EF2B38DC029BDC4235D4138856889E4231D303996F
:2004E000019404EB840C4FEA8C1C01EB40010AE0A7F8FE63568801339BB29E4200F10100BF
:2005000001F102011BD303EB0E05B5F5A07FF2DA13EB080F03EB0C05EDD455440E88A9EBCA
:20052000450707F515371EB94FF001040C800126009C002CDCD129F815605688DBE7019C11
:20054000D1880134A4B2A142BDD2012005B0BDE8F08F00BFA8A3FF1F90A3FF1F1CA0FF1FF8
:2005600058A3FF1F8898FF1F5AA3FF1FC0F9FFFF2DE9F04FD388B2F80480434591B0C0F0FB
:2005800093800292894A089189491078894C8A4A09788A4E8A4D94F800A0099114788949F1
:2005A000894A36782D78126807960495C0EB80360D6809990692C0EB86020AEB8A06164443
:2005C000059501EB810208EB8805C4EBC40106EB451502EB820201EB011105EB421501EB31
:2005E00001117A4F05EB411189B2C4EB847EC0EB80720191C0EB8202C4EB8E013F780F91FF
:2006000003924FF0050B0026C146BDF82410052212FB0192772A3DDC0F9A19EB020F39D494
:2006200002990C884A88A24234D30136B6B2CDF83890534623E0C4F19F05EDB21BFB0350A5
:200640009F2815DC0398C54212D4019A1544079A022AADB2089A31D032F81180049A3AB351
:20066000C5F59545059A7F3522F81580029A52880134A4B2711CA24289B206D30E46711E7B
:2006800089B2002FD7D0E5B2D8E79A46029BDDF83890DB8809F101021FFA82F9019AA03278
:2006A00092B24B450192B0D2012011B0BDE8F08F059A22F81580029A5288D9E732F811206C
:2006C00011124FEAE20AD2000B92049A01F0F8010A910AF0FC0A002A64D0C5F595427F32A0
:2006E000059931F8128006990D934FF07E501FF071FF81464FEAE80000F0FC0020F020F8DA
:20070000494620F071F80C90504620F019F8069920F06AF80C9A014610461FF05DFF20F0AF
:2007200065FA4FEAC8025FFA80FA02F0F80020F007F8494620F058F80B9B0C9003F0F8006F
:200740001FF0FEFF069920F04FF80C9A014610461FF042FF20F04AFA4FEA282E4FEACA0816
:2007600008F0E002C0F3C4010EF0F80041EA02081FF0E6FF494620F037F881460A981FF0C2
:20078000DFFF069920F030F8014648461FF024FF20F02CFA00F0F80040EA5A1A48EA0A287D
:2007A0000D9B5BE7059A32F815809CE7A8A3FF1F1CA0FF1F90A3FF1F58A3FF1F9198FF1F7A
:2007C0005AA3FF1F7C98FF1FA49AFF1FAFA5FF1F083018F053BB00BF00B583B002AB012239
:2007E00003F8011D0830194618F048FB03B05DF804FB00BF38B5856FAC88EB88E41A9442DC
:2008000028BF144631B108462968224619441AF0BDFAEB882344EB80204638BDF8B50E46AF
:2008200007461AF05DFA05461AF04AFA04461AF037FA6401C0B204F4FF54ADB2A5F2BC75A3
:20084000044344EA45243C801AF0FAF905461AF007FA04461AF014FAED02640105F4FF25D8
:2008600004F4FF542C43C0F3460004433480F8BD00F58C6019F044BE2DE9F0412F4B304FE9
:200880001B7884B00BB93B78B3B13A782C4B022A3BD01A78032A02D004B0BDE8F0810122D8
:2008A0001A70284816F028FC264816F003FC0028F7D104B0BDE8F081234B1B78002BE4D106
:2008C000DFF8908098F80030002BDED11F4B1B78002BDAD11E4D2B6802930A20029E1BF05C
:2008E0007BF82B680193019CA41B164816F004FC144816F0DFFBD0B1B4F57A7F12DD01232C
:200900003B703A780E4B022AC3D103221A700D4816F0F2FB0B4816F0CDFB0028F7D104B0A5
:20092000BDE8F0812B680393039CA41BDDE7B4F57A7FE4DA022388F80030A6E7C09AFF1F1C
:20094000B4A3FF1FD89AFF1FA3A1FF1F9098FF1F2CA6FF1F8098FF1F1AF0E8BF00F58C6032
:2009600019F0AEBE00F58C6019F058BD00F58C6019F098BC0F4A137A526A03F0080303F032
:20098000FF00B3B142F295539A4211D042F215739A420DD049F215639A4209D049F29573FB
:2009A0009A4205D0044BD01AB0FA80F040097047012070472CA3FF1F42600900024A1378EC
:2009C00023F00103137070472188FF1F08B51CF0C7F9C0B26438262818D8DFE800F0141748
:2009E000171717171717171717171717171717171717171717171717172A172317171717F8
:200A0000171717171B0064201CF08EFABDE808401CF096BA0B4B18781CF086FABDE808409F
:200A20001CF08EBAEA201CF07FFABDE808401CF087BA054B18781CF077FABDE808401CF043
:200A40007FBA00BF849BFF1F2188FF1F144938B5A1F10C000223142219F0E6FA00B938BDC0
:200A6000104817F061FE01210F4819F021F980B10D4C04F23C452846214617F0DBFF38B17C
:200A800094F83C3413F0700F1CBF084B1D6038BD38BD0146044819F00BF90028E8D138BDCD
:200AA000F49FFF1FC49FFF1F889BFF1FE0A5FF1FF0B43F4F3F4E404D404C414A4FF4807387
:200AC0003B604FF4107737604FF400762E60236015780DB372B61378DE0707D5394D3A4C83
:200AE0002F682468394E3C4034602C609D0707D5374D354C2F686468344E3C402C6074606A
:200B00005C0707D5334C304B26689B682F4D33402360AB6062B615782F4B304ADC689442DB
:200B200006D02F4F2F4E304C1F60DA601E611C60294B2E4CC0B210264FF000422660DA62DB
:200B40001C465863E36A244A002BFBDAC9B24FF00043906BD36210465163C36A1E4A002BC6
:200B6000FBDA234B926B10221A608DB1E90703D5164A204B12681A60AA0703D5134A1E4B75
:200B800052681A606B0703D5104A1C4B92681A60094E0A4C0649074A4FF480734FF4007567
:200BA0004FF41070336025600860F0BC1360704714B0044004C004400CC004401CB00440EC
:200BC00000A6FF1F80E100E0E8A5FF1FF4A5FF1F84E100E088E100E000C0024001100038D5
:200BE00001401F000110007800001F8088F00F4084F00F4000E100E004E100E008E100E094
:200C0000F0B4404C404D4149414A424F4FF4807323604FF410764FF400742E600C601360CB
:200C20003C780CB372B63B78DE0707D53A493B4A0D6812683A4C2A4022600A609D0707D552
:200C40003849364A0D685268354C2A400A6062605C0707D5344A314B14689B6830492340B9
:200C600013608B6062B63C78304B314AD968914206D0304E304D31491E60DA601D61196046
:200C80002A4B2F49C0B210254FF000420D60DA6219465863CB6A254A002BFBDA4FF0004158
:200CA0000023906BD16211465363CB6A1F4A002BFBDA906B234B1022C0B21A608CB1E1078C
:200CC00003D5174A204B12681A60A20703D5144A1E4B52681A60630703D5114A1C4B926802
:200CE0001A600A4F0A4D0749074A4FF480734FF400764FF410743B602E600C601360F0BCBF
:200D0000704700BF14B0044004C004400CC004401CB0044000A6FF1F80E100E0E8A5FF1F7D
:200D2000F4A5FF1F84E100E088E100E000C002400110003801401F000110007800001F809B
:200D400088F00F4084F00F4000E100E004E100E008E100E038B54220FFF752FF0446432077
:200D6000FFF74EFF05464420FFF74AFF44EA052400F07F0044EA004038BD00BFF0B4274946
:200D8000274E284D284C294A4FF480734FF400774FF4107037602B6023600860137803B381
:200DA00072B61378D90707D52149224A0C6812682148224002600A609A0707D51F491D4A1D
:200DC0000C6852681C4822400A6042605B0707D51B4A184B10689B681749034013608B6091
:200DE00062B6184B184AD968914206D0174C184818491C60DA6018611960124B1649102470
:200E00004FF000403C220C60D86219465A63CB6A0C4A002BFBDA936BF0BC704704C004403F
:200E20000CC004401CB0044014B0044000A6FF1F80E100E0E8A5FF1FF4A5FF1F84E100E0DE
:200E400088E100E000C002400110003801401F000110007800001F8088F00F4008B50121D0
:200E60008420FFF725FE01218420FFF721FE02218420BDE80840FFF71BBE00BF2DE9F04F43
:200E800083B0904681460191FFF778FFB8F1000F3AD0DFF880E19EF8003003F0FF009BBB7B
:200EA0004F4EFF2203468346B2464FF0004CC6F82CC0C6F834B0F16A0029FCDADAF83870BF
:200EC000FFB270B109F803700133142B72D0D92F44D0B8F1010817D09EF80020A2B93A46D1
:200EE000E5E7D82FF1D1FF2AEFD14FF0FF3389F80030B8F101086FF0270389F801304FF026
:200F000001004FF00203E7D1364A374B102111601B788BB1D90703D53449354A09681160CB
:200F20009A0703D53149334A496811605B0703D52E4A314B92681A603048314D3149324A91
:200F40004FF4807303604FF400764FF4107400202E600C60136003B0BDE8F08FFF2AB8D162
:200F6000204A214B102111601B788BB1DD0703D51E491F4A096811609C0703D51B491D4A76
:200F800049681160580703D5184A1B4B92681A601A481B4D1B491C4A4FF4807303604FF44C
:200FA00000764FF4107401202E600C60136003B0BDE8F08F019C002C89D114490978002965
:200FC00085D02346124D09F11301FF2401E015F8014F01F8014F0133642BF8D1782376E7B8
:200FE00000C0024084F00F4000A6FF1FF4A5FF1F00E100E004E100E008E100E00CC0044052
:201000001CB0044014B0044004C004405AA3FF1F48AA0200C09AFF1F002370B5064615463A
:201020000C461A4656210F481CF0E8F80E4B0D48197800231A461CF0E1F8002331461A46A3
:2010400008481CF0DBF865B1013D54FA85F5013C002314F8011F03481A461CF0CFF8AC424D
:20106000F6D170BDC4A7FF1F59A3FF1F2DE9F843124C00252570F1B1F0B188460746DFF83B
:2010800040900AE02678731C23701AF0EDFF09F8060000252078B8420ED01AF0D5FF00283E
:2010A000F0DC01350120EDB21AF096FCA845F1D12078BDE8F8830846BDE8F883C1A3FF1F7B
:2010C000B0A2FF1F094B1A78762A01D000207047074A597812789142F8D19A788242F5D18E
:2010E000D878B0FA80F04009704700BFB0A2FF1F59A3FF1FF0B583B005469DF820700E46A1
:201100001C4697B931462846FFF786FFC8212046FFF7ACFF844202D0002003B0F0BD284647
:2011200003B0BDE8F040FFF7CDBF0A2164200192FFF79CFF019AE5E710B5074A84B00123FD
:20114000148800930222052303A93620ADF80C40FFF7D0FF04B010BD905B020000B5074AE8
:2011600085B010680390012300930422052303A92420FFF7BFFF05B05DF804FB945B02008C
:20118000F0B585B0052501248DF80D00002002902B46009404271926062202A931208DF8CA
:2011A00008508DF80A408DF809708DF80C60FFF7A1FF05B0F0BD00BFF0B585B00124052539
:2011C0008DF80D002B46009412270426062202A931208DF808508DF809408DF80A408DF8F2
:2011E0000B708DF80C60FFF785FF05B0F0BD00BF2DE9F04100258846471D2E46AF420ED007
:201200001AF022FF6B1C0028DCB20ADD1AF02CFF08F805002546AF424FF00006F0D1BDE83E
:20122000F08101360120F6B21AF0D6FB0A2EE5D1BDE8F08130B585B004A900240123074DFB
:20124000ADF80C40022201F8043D3620009305232C80FFF74FFF05B030BD00BFC2A3FF1F5A
:2012600030B585B00124002500940923022203A934208DF80C408DF80D50FFF73BFF50B142
:20128000064B58799979DA791B7A41EA002042EA002043EA002005B030BD00BFB0A2FF1F7D
:2012A000F0B5124C238887B0002206461812039202920A25049200920C278DF80D008DF8E7
:2012C0000E3002A905230D2232208DF812608DF808708DF80A508DF81450FFF70BFF10B1FF
:2012E00023881E44268007B0F0BD00BFC2A3FF1F08B541F64C501AF07FFC0F201AF06CFBE0
:20130000FFF72CFF40F6C4101AF076FC0F20BDE808401AF061BB00BF10B584B0FFF7E8FF4F
:20132000FFF788FF88B9044664201AF055FB04A9012201F8044D052300922620FFF7DAFEDF
:20134000FFF7D6FFFFF776FF28B15F20FFF734FFFFF7F2FE012004B010BD00BF00B585B0A5
:20136000FFF70EFF04A90122002301F8043D262000920523FFF7BEFE4FF496701AF02CFB11
:20138000FFF7B6FF05B05DF804FB00BF074B1B7810B5044623B9064915F0FEF9204610BD8C
:2013A000044914F087FF204610BD00BF88A3FF1F98A2FF1F98A3FF1F10B582B06846FFF7CF
:2013C000E5FFBDF80020BDF80200A2F10A039BB2822B08D8A0F10A01462904D82C4B0122A2
:2013E0001A7002B010BDA2F1B40189B282290CD9822B14D98D3A262AF3D851384E28F0D88E
:20140000234B07221A7002B010BDA0F1A004462C03D81F4B05221A70E3E7822B19D85928A6
:2014200009D9962807D81B4C2468012C1DD0184B03221A70D5E7822903D8A0F10A03462BBD
:2014400019D9A0F1A003462BD4D8114B06221A70C7E7A0F15A013C2914D80E49096801295E
:2014600005D00B4B04221A70BBE78229E9D8A0F10A01462903D8064B02221A70B1E7822B59
:20148000DFD9B7E7A0F10A03462BF4D9B2E700BF71A3FF1F84A2FF1FF0B5802183B0234868
:2014A00014F092FF20B1224B01221A7003B0F0BD0446204814F0E4FF1D4B68461C70FFF71B
:2014C00065FF0A20BDF90060BDF902701AF084FA05201AF049FA0A24012505201AF044FA85
:2014E00000284FF00A0008BF00251AF075FA013CF3D1114B1B786BB92346B34210D0A742DB
:2015000001D0002DD2D00D4A137823F00803137003B0F0BD4FF4A073B3424FF0F004EED10B
:20152000A742F0D1002DC1D1EDE700BF98A3FF1F88A3FF1F98A2FF1F5AA3FF1F2188FF1FD3
:2015400008B5074B1B783BB1064814F013FF10B1054B01221A7008BD044815F049F9F6E7A6
:2015600088A3FF1F98A3FF1FA8A2FF1F98A2FF1F2DE9F0412A4D2B7886B0002B39D1294BC9
:201580001B78002B35D1284E3378002B31D1274B1B7873BB264B1B785BBBDFF8A080D8F825
:2015A000003004930A20049F1AF016FAD8F80020204B0592059C1B78E41B43B924E0B4F5AF
:2015C0007A7F08DCD8F800300393039CE41BFFF7B7FF0028F3D1D8F800300193019BDB1B3C
:2015E000B3F57A7F16DB144B1B78012B01D00123337006B0BDE8F081B4F57A7FEBDCD8F89E
:2016000000300293029CE41B05201AF0ADF90028E1D1F1E701232B7006B0BDE8F08100BF97
:20162000C09AFF1FB4A3FF1FA3A1FF1F8098FF1F9098FF1F88A3FF1F9198FF1F2CA6FF1F5F
:2016400010B4124B124A1B78146840EA034040F0006311465363104602E013F0F00F13D1D3
:20166000CB6A0B4A13F0805FF7D04FF08053D3621460D36A13F0F00F04D0936BD36A13F02B
:20168000F00FFAD110BC7047836BE9E7ACA5FF1F00C0024010B4124B124A1B78146840EA18
:2016A000034040F0006311465363104602E013F0F00F13D1CB6A0B4A13F0805FF7D04FF0B7
:2016C0008053D3621460D36A13F0F00F04D0936BD36A13F0F00FFAD110BC7047836BE9E732
:2016E000AC9AFF1F00C0024010B4124B124A1B78146840EA034040F0C053114653631046E5
:2017000002E013F0F00F13D1CB6A0B4A13F0805FF7D04FF08053D3621460D36A13F0F00FD4
:2017200004D0936BD36A13F0F00FFAD110BC7047836BE9E7AC9AFF1F00C00240F0B4324C04
:20174000324F2678360446F0004444F02A047C63FC6A04F4704514F0F00F18BFBC6BB5F5B7
:20176000405FF5D82A4C294F25782D04284340F010407863F86A00F4704410F0F00F18BF9B
:20178000B86BB4F5405FF5D82A43204C42F010426263E26A02F4704012F0F00F18BFA26B18
:2017A000B0F5405FF5D846F00046184C46F02B066663E26A02F4704012F0F00F18BFA26B31
:2017C000B0F5405FF5D82943104841F010414163C26A02F4704112F0F00F18BF826BB1F5D0
:2017E000405FF5D82B43094943F010434B63CB6A03F4704213F0F00F18BF8B6BB2F5405F96
:20180000F5D8F0BC704700BFACA5FF1F00C00240AC9AFF1FF8B5344C237803B372B62378C3
:20182000DF0707D5314D324A2F681268314E3A4032602A609E0707D52F4D2D4A2F68526801
:201840002C4E3A402A6072605D0707D52B4A284B16689B68274D33401360AB6062B6284D9D
:20186000EB68B3F1384F09D0264A2A60264B4FF038464FF07842EE602A612B608BB282B21B
:2018800019461046FFF75AFF204B1D491B781B0443F0004343F02C034B63CB6A03F470425D
:2018A00013F0F00F18BF8B6BB2F5405FF5D8184A184B10781B7843EA0020FFF715FF237874
:2018C0008BB1D90703D50B49134A096811609A0703D50849114A496811605B0703D5054AB1
:2018E0000F4B92681A60F8BD00A6FF1F80E100E0E8A5FF1FF4A5FF1F84E100E088E100E070
:2019000000C0024001401F0000001F80ACA5FF1F81A3FF1F89A3FF1F00E100E004E100E045
:2019200008E100E0F8B5474E8318B3F5A07F3378CCBFC0F5A075154623B372B63378DA0755
:2019400009D5414C414AD4F800E01268404F0EEA02023A6022609F0709D53E4C3B4AD4F865
:2019600000E052683A4F0EEA020222607A605C0707D5394A354B17689B68354C3B401360B9
:20198000A36062B6354BDA68B2F1384F09D0344C1C60344A4FF038474FF07844DF601C6178
:2019A0001A6080B2421E8BB22A44194692B2FFF7C5FE2D4B29491B781B0443F0004343F0CF
:2019C0002C034B63CB6A03F4704213F0F00F18BF8B6BB2F5405FF5D82449254A254B127894
:2019E00008781B781D4C42EA00202A4640EA0343012A43F010450DDD6563E36A03F47041E5
:201A000013F0F00F18BFA36BB1F5405FF5D8013A012AF1DCFFF768FE33788BB1D90703D59F
:201A20000B49154A096811609A0703D50849134A496811605B0703D5054A114B92681A606F
:201A4000F8BD00BF00A6FF1F80E100E0E8A5FF1FF4A5FF1F84E100E088E100E000C002401B
:201A600001401F0000001F80ACA5FF1F81A3FF1F89A3FF1FAC9AFF1F00E100E004E100E082
:201A800008E100E0F8B5464E8B18F02B3378CCBFC1F1F005154623B372B63378DA0709D5DE
:201AA000404C414AD4F800E01268404F0EEA02023A6022609F0709D53D4C3B4AD4F800E004
:201AC00052683A4F0EEA020222607A605C0707D5384A354B17689B68344C3B401360A36037
:201AE00062B6354BDA68B2F1384F09D0334C1C60334A4FF038474FF07844DF601C611A60A2
:201B000089B24B1E82B22B449BB21046FFF716FE2C4B29491B781B0443F0004343F02C035E
:201B20004B63CB6A03F4704213F0F00F18BF8B6BB2F5405FF5D82449244A254B12780878E2
:201B40001B781D4C42EA00202A4640EA0343012A43F010450DDD6563E36A03F4704113F000
:201B6000F00F18BFA36BB1F5405FF5D8013A012AF1DCFFF7B9FD33788BB1D90703D50B499D
:201B8000144A096811609A0703D50849124A496811605B0703D5054A104B92681A60F8BDB0
:201BA00000A6FF1F80E100E0E8A5FF1FF4A5FF1F84E100E088E100E000C0024001401F00CE
:201BC00000001F80ACA5FF1F81A3FF1F89A3FF1FAC9AFF1F00E100E004E100E008E100E0B8
:201BE000F0B45A4B1D780DB372B61A78D60707D5574D584C2F682468574E3C4034602C6028
:201C0000950707D5554D534C2F686468524E3C402C607460540707D5514C4E4A2668926838
:201C20004D4D32402260AA6062B61D784D4BDA68B2F1384F09D04C4C1C604C4A4FF038461B
:201C40004FF07844DE601C611A60464C4FF6FF73E26A013B12F4704F9BB201D0002BF7D1AD
:201C6000404B4FF00042DA621C464FF6FF73E26A013B002A9BB201DB002BF8D1394AD36A74
:201C8000C3F30313002B4FD1394A364E1478394F220442F0004444F0D90474633C78024395
:201CA0001031200442F0004201437163344672634FF6FF727063E16A013A11F4704F92B2CD
:201CC00001D0002AF7D1274A4FF00041D16211464FF6FF72C86A013A002892B201DB002A31
:201CE000F8D12049CA6A12F0F00F11D16DB1E80726D4A90703D518491F4A496811606A07AF
:201D000003D515491D4A896811601846F0BC70470F228B6BCC6A013A14F0F00FDBB292B297
:201D2000E4D0002AF5D1E1E70F24936BD66A013C16F0F00FDBB2A4B2A6D0002CF5D1A3E7AF
:201D400005490F4A09681160D3E700BF00A6FF1F80E100E0E8A5FF1FF4A5FF1F84E100E0D5
:201D600088E100E000C0024001401F0000001F80ACA5FF1FAC9AFF1F04E100E008E100E0B8
:201D800000E100E070B5404C237803B372B62378DA0707D53D493E4A0E6812683D4D324006
:201DA0002A600A609E0707D53B49394A0E685268384D32400A606A605D0707D5374A344B0C
:201DC00015689B6833492B4013608B6062B6344BDA68B2F1384F09D032491960324A4FF0B3
:201DE00038454FF07841DD6019611A602F4B2C491B781B0443F0004343F036034B63CB6AD7
:201E000003F4704213F0F00F18BF8B6BB2F5405FF5D800F00300264B022818702CD00328FA
:201E20001CD0012821D04820FFF734FC214B01221A7023788BB1D90703D516491E4A09682E
:201E400011609A0703D513491C4A496811605B0703D5104A1A4B92681A6070BDE820FFF71C
:201E600019FC144B00221A70E3E72820FFF712FC104B00221A70DCE78820FFF70BFC0D4B65
:201E800001221A70D5E700BF00A6FF1F80E100E0E8A5FF1FF4A5FF1F84E100E088E100E025
:201EA00000C0024001401F0000001F80ACA5FF1F88A2FF1F709BFF1F00E100E004E100E0BB
:201EC00008E100E02DE9F0410621152018F090FC28B9814A814B10701870BDE8F081152037
:201EE00018F09EFC7C4F7D4E3870062018F098FC3B787B4D034300210F203370FFF770FE28
:201F00002B780446DBB172B62A78D10700F1D980930709D57349744BD1F800E05B68734842
:201F20000EEA03030B604360500707D5704A6E4B10689B686D49034013608B6062B66D4B4D
:201F4000DA68B2F1384F09D06B4919606B4A4FF038404FF07841D86019611A6096F8008071
:201F60003F7867486349042303F1FF3E4FEA08483F045FFA8EFE9BB3437843EA080343F0D2
:201F800000434B6300F1020CCB6A03F4704213F0F00F18BF8B6BB2F5405FF5D80EF102068A
:201FA00006446046B04211D010F8013B3B4343F000434B63CB6A03F4704213F0F00F18BFC1
:201FC0008B6BB2F5405FF5D8B042EDD11CF80E300CEB0E0003F1FF3E5FFA8EFE002BCBD114
:201FE0001120FFF72DFB2B788BB1D90703D53F49444A096811609A0703D53C49424A4968C8
:2020000011605B0703D5394A404B92681A60782019F0E2FC2A78324B02B372B61A78D707A8
:2020200007D53B49304B0E681B683048334003600B60960707D52B492B4B0E685B682B4804
:2020400033400B604360500707D5294A264B10689B682649034013608B6062B6254BDA6893
:20206000B2F1384F09D024491960244A4FF038404FF07841D86019611A602920FFF7E0FA15
:202080002B788BB1D90703D518491E4A096811609A0703D515491C4A496811605B0703D565
:2020A000124A1A4B92681A601A4A1B4B00252D201D701560FFF766FE184B20461D70BDE858
:2020C000F0811349084BD1F800E01B6807480EEA030303600B601BE7AC9AFF1FACA5FF1FC4
:2020E00000A6FF1F84E100E0E8A5FF1FF4A5FF1F88E100E000C0024001401F0000001F802B
:202100005443030000E100E004E100E008E100E080E100E0689BFF1F9398FF1FC4A3FF1FA6
:2021200010B5FFF7CFFEE02818BF0A2410D00A2019F052FCFFF7C6FEE02804F1FF3307D0E9
:2021400013F0FF04F3D1084A137823F002031370702019F08DF8054B012895BF00F0010061
:20216000002218701A7010BD2188FF1F5AA3FF1FF8B53A4C2478012C07D0394C24787CB15B
:20218000384A394B10801980F8BDC2F1EF041A46C0F1EF0308462146314C2478002CEFD1F8
:2021A000324D2C7804B372B62C78E7070BD5304F304ED7F800C03668DFF8CCE00CEA0606FC
:2021C000CEF800603E60A6070BD52B4F294ED7F800C07668DFF8B0E00CEA06063E60CEF883
:2021E000046064072FD462B6244CE668B6F1384F09D0234F27604FF03847E760214E4FF084
:202200007847276126609BB292B289B280B2FFF795FA2C20FFF714FA2B78002BB4D0D907EC
:2022200003D51949194A096811609A0706D45B07AAD5154A164B92681A60F8BD1249154A20
:2022400049681160F3E7144E0A4CD6F800E0A4680D4F0EEA04043460BC60C4E7709BFF1F30
:20226000C4A3FF1F18A3FF1F1AA3FF1F00A6FF1F80E100E0E8A5FF1F84E100E000C002402E
:2022800001401F0000001F80F4A5FF1F00E100E008E100E004E100E088E100E0074B19780D
:2022A00031B10021084640F23F13EF22FFF760BFEF2340F23F120846FFF75ABF709BFF1F08
:2022C0003D4B1B7843B33D4B1B78012B10D03C4B3C4A1B88128803EB830302EB4313B3F51D
:2022E000964F04DA384A126822F8130070477047364B1B78002BEAD0314B324A1B88128856
:2023000003EB830302EB8313B3F5963FEFDA304A126822F81300704770B52E4C2378C3B1FA
:2023200072B62378DA0707D52B492C4A0E6812682B4D32402A600A609E0707D52949274A01
:202340000E685268264D32400A606A605D0729D462B6254BDA68B2F1384F09D02349196021
:20236000234A4FF038454FF07841DD6019611A6080B2FFF7B9F9237873B1D90703D5184959
:202380001C4A096811609A0707D45B0704D5144A194B92681A6070BD70BD1149174A496842
:2023A0001160F2E7164A0D4B15689B680C492B4013608B60CCE700BFC4A3FF1F849BFF1F49
:2023C0001AA3FF1F18A3FF1F7C98FF1FE89AFF1F8898FF1F00A6FF1F80E100E0E8A5FF1F89
:2023E000F4A5FF1F84E100E000C0024001401F0000001F8000E100E008E100E004E100E091
:2024000088E100E02DE9F04F564C267885B093461F4605460C46002E48D0534B1B78002B2C
:202420007CD104EBD47407EBD77764107F1005EBD5750BEBDB7BBC424FEA65054FEA6B0BFF
:2024400073D05D4536D1CBEB0503A74201934FF0FF3838DCE31B0293029A01998A424FF0F7
:20246000FF3938D8019BDFF80CA1CDF80C905E083E4B76422F46994623463A4621463846CA
:20248000FFF776FE9AF8000099F8003043EA0020FFF716FF5D45454449D0029BF61803D461
:2024A000039B1C44019BF61A4744E5E7994241D0904249D05D45C6DAC5EB0B03A7420193C7
:2024C0004FF00108C6DD3B1B0293029A01998A424FF00109C6D9254BDFF898A0CDF80C806C
:2024E00056087642A34698465B462A4659462846FFF73EFE9AF8000098F8003043EA002010
:20250000FFF7DEFEBC424C4411D0019BF61803D4039B1D44029BF61ACB44E5E7144B1B7880
:20252000002B3FF47EAFBC428BD1274689E705B0BDE8F08FB5F5A07F01DAEF2C0DDD05B0A2
:20254000BDE8F04FFFF7AABEB5F5A07FF7DAEF2CF5DC3A1BFFF796FAF1E7C5EB0B02FFF74D
:20256000E1F9ECE7C4A3FF1F849BFF1F89A3FF1FE89AFF1F81A3FF1F2DE9F041414D2B7848
:20258000064603B372B62A78D70707D53E493F4B0C681B683E48234003600B60940707D57F
:2025A0003C493A4B0C685B68394823400B604360500707D5384A354B10689B683449034078
:2025C00013608B6062B6354BDA68B2F1384F09D033491960334A4FF038404FF07841D86067
:2025E00019611A600021EF2340F23F120846FFF7A5F82D4B294A1B781B0443F0004343F00A
:202600002C0353631346DA6A02F4704112F0F00F18BF9A6BB1F5405FF5D8DFF89C801F4C44
:20262000B6B2F02798F8000046EA004040F0104040F23F116063E36A03F4704213F0F00F5E
:2026400018BFA36BB2F5405FF5D80139F2D13046FFF74AF8013FE5D12B788BB1D90703D54A
:202660000B49124A096811609A0703D50849104A496811605B0703D5054A0E4B92681A602C
:20268000BDE8F08100A6FF1F80E100E0E8A5FF1FF4A5FF1F84E100E088E100E000C002402D
:2026A00001401F0000001F80ACA5FF1F00E100E004E100E008E100E0AC9AFF1F90422DE911
:2026C000F041044617460D461E4601DD14460746B54202DD2B4635461E46B4F5A07F07DA17
:2026E000EF2DC4EB070812DDEF2E22DDBDE8F081B7F5A07F09DAEF2DF8DC761B32462946C9
:202700003846BDE8F041FFF7BDB9BDE8F081424629462046FFF706F9EF2E0ADD761B204696
:2027200032462946FFF7AEF9B7F5A07FE6DBBDE8F081424631462046FFF7F4F8EF2DEDDD46
:20274000BDE8F08190422DE9F84302DD044610462246994202DD0C4619462346B0F5A07FC1
:2027600080F29980EF2900F39680B2F5A07FDFF88091D4BF161AC0F5A076F02BD8BF5D1A48
:2027800099F80030C8BFC1F1F005E3B172B699F80020D30700F18380970709D5454C464B71
:2027A000D4F800E05B68454F0EEA030323607B60540707D5424A404B17689B683F4C3B40E4
:2027C0001360A36062B63F4BDA68B2F1384F09D03D4C1C604FF03844DC603C4A4FF078441F
:2027E0001C611A6089B280B24B1E421E2B4432449BB292B2FEF7A2FF354B32491B781B04F3
:2028000043F0004343F02C034B63CB6A03F4704213F0F00F18BF8B6BB2F5405FF5D82D4AFB
:202820002D4B17781B78002D43EA07271EDD254C1FFA87F8012E14DD284B187847EA0040DE
:2028400040F0104031466063E36A03F4704213F0F00F18BFA36BB2F5405FF5D8013901296A
:20286000F1D14046FEF740FF013DE3D199F800309BB1D90703D51149194A096811609A07E5
:2028800003D50E49174A496811605B0703D50B4A154B92681A60BDE8F883BDE8F883134C84
:2028A000054BD4F800E01B68044F0EEA03033B60236071E784E100E0E8A5FF1FF4A5FF1F2B
:2028C00088E100E000C0024001401F0000001F80ACA5FF1F81A3FF1F89A3FF1FAC9AFF1F4F
:2028E00000E100E004E100E008E100E080E100E000A6FF1F2DE9F04F904283B00546164683
:202900000C461F4601DD15460646BC4202DD23463C461F46C5EB0608B8F1040F39DDC4EB0F
:202920000709B9F1040F34DD05F1010ABAF5A07F04F1010330D306F1FF3BBBF5A07F32D3E9
:2029400005F1020ABAF5A07F05DAEF2CA8F1040846DDEF2F3EDDB5F5A07F04F10204A9F14E
:20296000040911DAEF2C14DC28464A462146FFF789F8B6F5A07F0CDA4A462146304603B0A8
:20298000BDE8F04FFFF77EB8B6F5A07F01DAEF2CF2DD03B0BDE8F08FEF2B2CD906F1FF3B71
:2029A000BBF5A07F2ED2EF2B20D9BAF5A07F07F1FF330CD2EF2BC3D8194650460193FEF72C
:2029C00029FF019B19465846FEF724FFB8E7EF2BB6D8F7E7424639465046FEF7A3FFBAE724
:2029E000424621465046FEF79DFFB2E719465846FEF710FFD9E7194650460193FEF70AFFE0
:202A0000019BCBE7791EEF299AD85046FEF702FF96E700BF2DE9F04F904283B005460F4685
:202A20001E4601DD15460246B74202DD3B4637461E46541B042C38DDC7EB0608B8F1040F47
:202A400033DD07F1010BA31E4FF00009CDF800B04FEA6808B34605F1010A264601934C46AF
:202A600034BB05F10209B9F5A07F06DAEF2FA6F1040420DDBBF1EF0F25DDBAF5A07F06DAA5
:202A8000009BEF2B34DD0BF1FF31EF292BDD0224B5F5A07F06DA3919EF291FDDC4EB0B0134
:202AA000EF2916DD01344445DADD03B0BDE8F08F012CE2D0ECE7224639464846FEF732FF72
:202AC000BBF1EF0FD9DC224648465946FEF72AFFD3E732462846FEF725FFE3E7324628467B
:202AE000FEF720FFDAE7019A5046FEF71BFFCEE7019A19465046FEF715FFC4E72DE9F04F73
:202B0000834B8BB01B7809900391924693B1814B1B78002B40F0F680099B03EBD371039B2C
:202B200003EBD37249100AEBDA735210099103924FEA630A039FDDF82480774C774D07EBFC
:202B40000A094FEA4A0649464B464246404676420896FFF70DFB2B782078CAEB070243EA31
:202B600000203E4607921746FFF7AAFB4246394610463B46FFF7FCFA2B78207808EB0A0B13
:202B800043EA0020FFF79CFB5A46584633463146FFF7EEFA2B782078CAEB08010F4643EAD4
:202BA00000200691FFF78CFB3A46384633463146FFF7DEFA2B78207843EA0020CAF10103DE
:202BC0000193FFF77DFBBAF1000F40F396800127CDF80890099904977E0001EB0709C6EB03
:202BE00009030093039B03EB0708C6EB080306F1010E019E0593002E4A46484607F1010756
:202C000012DB089B02331E440893039B01960AF1FF3A03EB0A06CAEB03030793CAEB01037D
:202C2000029601EB0A0B06930299019E0B4676440196FFF79DFA2B78207843EA0020FFF77B
:202C40003FFB029900980B460246FFF791FA2B78207843EA0020FFF733FB079E4A46314695
:202C600033464846FFF784FA2B78207843EA0020FFF726FB009A314610463346FFF778FAF2
:202C80002B78207843EA0020FFF71AFB414643465A465846FFF76CFA2B78207843EA00206F
:202CA000FFF70EFB069E4146434632463046FFF75FFA2B78207843EA0020FFF701FBDDF8D5
:202CC00014805A46414643465846FFF751FA2B78207843EA0020FFF7F3FA434632464146DE
:202CE0003046FFF745FA2B78207843EA0020FFF7E7FA049B9A453FF76DAF0BB0BDE8F04F5B
:202D0000FFF7CCBA064B1B78002B7FF413AF03E7C4A3FF1F849BFF1F81A3FF1F89A3FF1FBB
:202D2000E89AFF1F2DE9F04F924B85B01B7803910546019273B1904B1B78002B40F0C78053
:202D4000039B03EBD372019B03EBD37352105B1003920193894B1A78002A60D1884BDFF871
:202D600030A21C78002C00F0B8809AF804109AF805009AF806B0CB0813FB00F0CBEB050B7D
:202D800000FB0BFB0BF104040094002842D0DFF80892DFF8F88102920398029AB2FBF3F341
:202DA0000A1801990B441946013AFFF7E1F99AF80410CB085F1E0BB3724E734DDAF8003068
:202DC000DA19009BD45C4FF0000B44FA0BF3DA0747BF98F800002B7899F8000033780BF15D
:202DE000010B43EA0020FFF76BFABBF1080FECD117F1FF37E2D29AF80410CB0802989AF808
:202E00000520009C184403FB02F21C44824202900094C1D805B0BDE8F04FFFF73FBADFF861
:202E200070A19AF804209AF805109AF80600D20802FB01F32D1A03FB05F52B1D009300297E
:202E4000E8D0019B5F1C02F0FF038AB3DDF80CB007F1FF384FF00009DAF80030009A4B443F
:202E600058469E5C072402E0631C284617D0451C3B462A464146FFF77BF946FA04F313F05C
:202E8000010F04F1FF34EFD0404B18783E4B1B7843EA0020FFF714FA631C2846E7D19AF87C
:202EA000043009F10109DB084B450BF1080BD3DC019A00989AF80510BA1A1844914200903C
:202EC00007F10107A6D9324B1A79D208BBE7314B1B78002B7FF43EAF32E701999AF80530D3
:202EE0009AF8042003980B440244013B013AFFF73FF99AF804109AF806309AF80520C90851
:202F0000ED1A11FB02F202FB05F52B1D0093002A80D0DFF88490DFF86C801C4F1A4EA346F4
:202F2000DAF80030009A9C5C072544FA05F2D10747BF3878327899F8000098F8002042EAF7
:202F40000020FFF7BDF915F1FF35EED29AF804209AF80530D20812FB03F3009A0BF1010BAF
:202F600001325B450092DBD805B0BDE8F04FFFF795B900BFC4A3FF1F849BFF1F9398FF1F92
:202F8000709BFF1F7CA2FF1F89A3FF1F81A3FF1F689BFF1FE89AFF1FD4A1FF1F174BF0B4E6
:202FA0001B6804331A780A705C784C609E788E60DD78CD601C797F2CC8BFC4F580740C6164
:202FC0009F1D82425B794B610BD0FF2A12D016FB05F56EB16B1E48BFAB1D07EBE30301337D
:202FE000E0E7B2F1FF0018BF01208F61F0BC70473B46D7E700208F61F0BC7047689BFF1F4A
:203000002DE9F04F8BB08B4603A90192FFF7C6FF00284FD0354C364D364B21782A781B78BB
:2030200042EA01220092002B47D0059B002B40D0069A002A3DDD4FF00008099FC14646462C
:203040008025002B2EDD019A00210C4602EB080A09E02A4616424FEA550510D10134E4B298
:203060009C4221461DDA03FB08125207F1D13E78802216424FF0400507F10107EED0079A4E
:20308000049B5A440A44534419461046FFF770F80098FFF715F90134059BE4B29C422146AF
:2030A000E1DB069A09F101095FFA89F99145C846C7DB08980BB0BDE8F08F0F490F4B09789D
:2030C000089A5B790E482170019906782E705A440B4401325846FFF735FB009A2A70130AA8
:2030E0002370059B002BA3D1E3E700BF81A3FF1F89A3FF1F9398FF1FD4A1FF1F689BFF1FEC
:203100007CA2FF1F2DE9F04F93B008910BA909920593FFF743FF002800F08F80DDF8348073
:20312000B8F1000F00F086801C981DF009FB53491DF05AFB1CF0CEFE04460D461BF0ACFAF8
:203140001DF0F4F92946009020461BF0EFFA1DF0EDF90E9B002B83466CDD494849490078A8
:203160000978119A0692002741EA0022079202974FF0800AC146B9F1000F58DD08981DF07A
:20318000DFFA039009981DF0DBFA00240490C8463CE0CDF804A04FEA5A0A059BE0181DF0B3
:2031A000CFFA05460C9838441DF0CAFA2946064600981DF019FB3146814658461DF014FB9E
:2031C000014648461DF006FA03991DF005FA1DF0E7FC3146814600981DF006FB29460646D6
:2031E00058461DF001FB014630461DF0F5F904991DF0F2F91DF0D4FC029B019A13421FD181
:20320000214B1B7843B30134A0450EDD08FB07435B07BED1069A1378029313460133069390
:2032200080234FF0400A0193B7E70E9BC1460137BB42A0DCFFF732F8109813B0BDE8F08F20
:20324000034601464A464846FEF792FF0798FFF737F8DDF83480D6E7034601464A46484682
:20326000FEF786FF094B1878094B1B7843EA0020FFF726F8DDF83480C5E700BF295C8F3C64
:2032800081A3FF1F89A3FF1F9398FF1FD4A1FF1F7CA2FF1F2DE9F04F95B004461E9813924B
:2032A0009B4612911DF04CFA6449DFF8A0811DF09BFA1CF00FFE98F8046098F80630CDE967
:2032C000100198F80510F208E41A02FB01F303FB04F3181D0E90002900F0AA8000210F9183
:2032E00002F0FF03002A00F08B8012981CF0E0FDCDE90001DDE910011BF0CEF981468A462B
:203300000F98CDE9029A1CF0D3FD04460D46DDE910011BF00BFA02460B4620462946CDE930
:2033200004231CF02BFECDE9060113981CF0C0FD2B46CDE908012246484651461CF01EFE1B
:20334000CDE90A0100230D93D8F800300E9A0D9913444FEAC10913F801A009F10709072460
:20336000304608E0364B1B78002B58D014F1FF343DD398F80400C4EB09030BFB00301CF0AF
:2033800097FDDDE9022306460F461CF0F7FDDDE906231CF03FFCDDE900231CF03DFC1DF09C
:2033A0009DF8DDE904230546394630461CF0E6FDDDE90A231CF030FCDDE908231CF02CFC0C
:2033C0001DF08CF86A1C431C01462846FEF7D0FE4AFA04F3DB07C5D51A4A1B4B10781B7863
:2033E00043EA0020FEF76CFF14F1FF34C1D20D9B98F8046001331A460D93F3089342A3DC36
:203400000F990E9C98F8052010480131C9B21C448A420F910E940BD90679F20860E70C4B37
:2034200018780C4B1B7843EA0020FEF749FF9DE715B0BDE8F04FFEF731BF00BF295C8F3C67
:203440009398FF1F81A3FF1F89A3FF1F689BFF1FD4A1FF1F7CA2FF1F2DE9F04F83B0984641
:203460000C46174606461EF00BFD4E4B1B7882464BB14D4B1B78002B61D104EBD47407EB9A
:20348000D77764107F10494B1B78002B43D142F20F739C4277D042F20E739C425AD0BAF132
:2034A000000F16DD4FF0000BDFF804915D46B8F1000F11D199F8043021463A46CBB930783F
:2034C000FFF79EFD013004440135AA4506F10106EDD103B0BDE8F08F99F804005B463A4674
:2034E000214678B93078CDF80080FFF70BFE8344EAE721463A463078FFF714FC2C4B1B7910
:203500001C44E1E73078CDF800802B463A462146FFF7C0FED8E742F20F739C4226D042F20D
:203520000E739C42BBD1DFF8889099F804400AFB04F4C4F1F00404EBD4746410AFE71D4B8D
:203540001B78002B9FD104EBD47407EBD77764107F1098E7DFF8589099F804400AFB04F4B3
:20356000C4F5A07404EBD474641098E7DFF8409099F804400AFB04F4C4F1F00442F20E737D
:203580009C428CD1CFE7DFF8289099F804400AFB04F4C4F5A07442F20E739C427FF47FAFD8
:2035A000D8E700BFC4A3FF1F849BFF1F709BFF1F689BFF1FE89AFF1F2DE9F041856805F1B7
:2035C000080424F0070400AFADEB040D16460C4698466A1C694600231AF008F84346324679
:2035E00021466846FFF738FFBD46BDE8F08100BF2DE9F0418568DFF84080DFF840E088F86F
:20360000003005F1080424F0070400AFADEB040D4FEA132C0C46164669466A1C00238EF8FD
:2036200000C019F0E3FF3246214668460023FFF713FFBD46BDE8F08189A3FF1F81A3FF1F82
:203640002DE9F0478EB000289DF858C01CD1002B6FD0012B79DD07A89D1E05440DF11B0461
:2036600004F801CFA542FBD15C1E0EAD2C442B443026002504F81C6C03F81C5C0023FFF72C
:20368000EBFE0EB0BDE8F087B4BF01260026DFF8C4E0B8BF4042B0460DF1FF3700258EFB5B
:2036A0000049C417C4EBA90404EB8404A0EB4404001B8EFB00A9C0173034D0EBA90005F15E
:2036C000010507F8014FEAD10EAC2C4404F8380CB8F1000F02D02D208DF81C00AF19BB4233
:2036E0000EDD5B1B9B1B002B0ADD741E03EB040E07A88644044404F801CF7445FBD101E01C
:20370000002307A8F418013CEE4604446D4415F8016D04F8016F7545F9D10EAC23443B4456
:20372000002403F81C4C0023FFF796FE0EB0BDE8F08730208DF81D308DF81C00002307A8E6
:20374000FFF78AFE0EB0BDE8F0870446012307A88BE700BF676666662DE9F04F9F4D89B0B0
:203760002D78129C139F0493064693462DB372B69A4B1A78D30709D599489A4BD0F800E0E3
:203780001B68994D0EEA03032B600360950709D59648944BD0F800E05B68934D0EEA030354
:2037A00003606B60500707D5914A8E4B15689B688D482B401360836062B68E4BDA68B2F108
:2037C000384F09D08C4818604FF03840D8608B4A4FF0784018611A60012F894B00F0B98062
:2037E0001A78049B002A68D0002B44DDB3B2BAB20293013B1BFB02339BB203934FEA4B0393
:20380000079206938AB2002301920593069B002F04EB030AC8BF4FF000081EDD019B039A1E
:20382000029843449BB21946FDF788FF2C20FDF707FFBBF1000FC8BF56460ADD36F8029D68
:20384000002501354846FDF74FFFAF42F9D1B442F4D108F101084745E0D1019B079A1344F4
:2038600099461FFA89F2059B0192049A01339A4205935446CAD10021084640F23F13EF2223
:20388000FDF75CFF2C20FDF7DBFE544B1B788BB1D90703D554495B4A096811609A0703D5FD
:2038A0005149594A496811605B0703D54E4A574B92681A6009B0BDE8F08F002B3EDDB3B239
:2038C000B8B20693013B1BFB00339BB207934FEA4B03059089B201920293059B079A06981B
:2038E00001EB030A1FFA8AF30393FDF727FF2C20FDF7A6FE029B002F04EB0308C8BF4FF019
:20390000000913DDBBF1000FC8BFA2460ADD3AF8026B002501353046FDF7E6FEAF42F9D19A
:20392000D045F4D109F101094F45EBD1019B049A039901339A4201934446CED10021084647
:20394000EF2340F23F12FDF7F9FE2C20FDF778FE9BE71B7843B3049B002B8CDD049B06EB63
:203960000B080B44019308F1FF330D4602934FEA4B0A2746D9462B46029A29463046FEF73D
:20398000F7FBBBF1000FC8BF04EB490805DD38F8020DFDF7A9FE4745F9D1019B01359D42F0
:2039A0005744D944E7D166E7049D2B460B4406EB0B02013B0BFB05FB013A3046FEF7D8FB30
:2039C000BBF1000FC8BF04EB4B0BB7DD34F8020BFDF78AFEA345F9D1B0E700BF00A6FF1F4B
:2039E00080E100E0E8A5FF1FF4A5FF1F84E100E088E100E000C0024001401F0000001F8095
:203A0000709BFF1F00E100E004E100E008E100E02DE9F047DFF87482DDF820A098F80040AF
:203A2000099D16469946E4B172B698F80020D30700F10781970709D5874C884BD4F800E017
:203A40005B68874F0EEA030323607B60540707D5844A824B17689B68814C3B401360A3605F
:203A600062B6814BDA68B2F1384F09D07F4C1C604FF03844DC607E4A4FF078441C611A6025
:203A800089B280B209F1FF33721E0B4402449BB292B2FDF753FE774B73491B781B0443F02F
:203AA000004343F02C034B63CB6A03F4704213F0F00F18BF8B6BB2F5405FF5D8B9F1000F3A
:203AC00040F3A6806C4F684C3878042E51464FEA004054DDB6460B789B0935F81330034322
:203AE00043F010436363E36A03F4704213F0F00F18BFA36BB2F5405FF5D80B78C3F301133D
:203B000035F81330034343F010436363E36A03F4704213F0F00F18BFA36BB2F5405FF5D8B3
:203B20000B78C3F3810335F81330034343F010436363E36A03F4704213F0F00F18BFA36BE9
:203B4000B2F5405FF5D811F8013B03F0030335F81330034343F010436363E36A03F470421C
:203B600013F0F00F18BFA36BB2F5405FF5D8AEF1040E1FFA8EF3042B0FFA83FEABD80B7841
:203B80009B0935F81330034343F010436363E36A03F4704213F0F00F18BFA36BB2F5405F5C
:203BA000F5D80B78C3F3011335F81330034343F010436363E36A03F4704213F0F00F18BF1A
:203BC000A36BB2F5405FF5D80B78C3F3810335F81330034343F010436363E36A03F470420F
:203BE00013F0F00F18BFA36BB2F5405FF5D80B7803F0030301F1010A35F81300FDF774FDAD
:203C000009F1FF339BB20FFA83F9002B7FF45CAF98F800309BB1D90703D51149174A09680D
:203C200011609A0703D50E49154A496811605B0703D50B4A134B92681A60BDE8F087BDE8A0
:203C4000F087114C054BD4F800E01B68044F0EEA03033B602360EDE684E100E0E8A5FF1FDF
:203C6000F4A5FF1F88E100E000C0024001401F0000001F80ACA5FF1FAC9AFF1F00E100E0AF
:203C800004E100E008E100E080E100E000A6FF1F2DE9F047DFF8D881DDF820A098F80040AF
:203CA000099D16469946E4B172B698F80020D30700F1B980970709D5604C614BD4F800E032
:203CC0005B68604F0EEA030323607B60540707D55D4A5B4B17689B685A4C3B401360A36079
:203CE00062B65A4BDA68B2F1384F09D0584C1C604FF03844DC60574A4FF078441C611A6018
:203D000089B280B209F1FF33721E0B4402449BB292B2FDF713FD504B4C491B781B0443F03B
:203D2000004343F02C034B63CB6A03F4704213F0F00F18BF8B6BB2F5405FF5D8B9F1000FB7
:203D400058DD464F414C3878022E51464FEA00402EDDB6460B781B0935F81330034343F085
:203D600010436363E36A03F4704213F0F00F18BFA36BB2F5405FF5D811F8013B03F00F03F0
:203D800035F81330034343F010436363E36A03F4704213F0F00F18BFA36BB2F5405FF5D831
:203DA000AEF1020E1FFA8EF3022B0FFA83FED1D80B781B0935F81330034343F010436363B1
:203DC000E36A03F4704213F0F00F18BFA36BB2F5405FF5D80B7803F00F0301F1010A35F841
:203DE0001300FDF781FC09F1FF339BB20FFA83F9002BA8D198F800309BB1D90703D511497F
:203E0000174A096811609A0703D50E49154A496811605B0703D50B4A134B92681A60BDE808
:203E2000F087BDE8F087114C054BD4F800E01B68044F0EEA03033B6023603BE784E100E03D
:203E4000E8A5FF1FF4A5FF1F88E100E000C0024001401F0000001F80ACA5FF1FAC9AFF1FE3
:203E600000E100E004E100E008E100E080E100E000A6FF1F2DE9F843804D2B7880460C4615
:203E800003B372B62A78D70707D57D497D4B0E681B687D48334003600B60960707D57B491E
:203EA000784B0E685B68784833400B604360500707D5774A734B10689B6873490340136026
:203EC0008B6062B6734BDA68B2F1384F09D072491960724A4FF038404FF07841D86019618B
:203EE0001A600021EF2340F23F120846FDF726FC6B4B684A1B781B0443F0004343F02C033C
:203F000053631346DA6A02F4704112F0F00F18BF9A6BB1F5405FF5D8002C00F0908008F58F
:203F20001749604E5B4C08F59E7709F13C09A8F1020896F800E040464FEA0E4E30F8021F06
:203F400041EA0E0141F010416163E36A03F4704213F0F00F18BFA36BB2F5405FF5D861632D
:203F6000E36A03F4704213F0F00F18BFA36BB2F5405FF5D88742E1D1788840EA0E0343F068
:203F800010436363E36A03F4704213F0F00F18BFA36BB2F5405FF5D8FDF7A6FB96F800E015
:203FA00040464FEA0E4E30F8021F41EA0E0141F010416163E36A03F4704213F0F00F18BF4E
:203FC000A36BB2F5405FF5D86163E36A03F4704213F0F00F18BFA36BB2F5405FF5D8874243
:203FE000E1D1788840EA0E0343F010436363E36A03F4704213F0F00F18BFA36BB2F5405F65
:20400000F5D807F5A077FDF76FFBB94508F5A0788FD12B788BB1D90703D51B49224A096817
:2040200011609A0703D51849204A496811605B0703D5154A1E4B92681A60BDE8F883194BAF
:204040001449187808F51534000404F2FE3638F8023B034343F010434B63CB6A03F470423A
:2040600013F0F00F18BF8B6BB2F5405FF5D84645EDD1B4F8FE03FDF737FBCAE700A6FF1FCD
:2040800080E100E0E8A5FF1FF4A5FF1F84E100E088E100E000C0024001401F0000001F80EE
:2040A000ACA5FF1FAC9AFF1F00E100E004E100E008E100E010B52A4904461CF047FD08B153
:2040C000642010BD4FF0814120461CF03FFD08B15A2010BD234920461CF038FD08B15020A4
:2040E00010BD214920461CF031FD08B1462010BD1E4920461CF02AFD08B13C2010BD1C49B6
:2041000020461CF023FD08B1322010BD194920461CF01CFD08B1282010BD174920461CF0A8
:2041200015FD08B11E2010BD144920461CF00EFD08B1142010BD124920461CF007FD08B18B
:204140000A2010BD20460F491CF000FD4FF0010300B9034683F00100C0B2404210BD00BF68
:20416000333383401F857B40EC5178408FC2754033337340D7A3704052B86E40CDCC6C407C
:20418000713D6A40000040403E4B1B7810B43BB13D493E4B4FF480704FF4107208601A6092
:2041A0003B4B1B781BB93B4B1B78012B35D03A4B1A7882B9394B3A4AD968914206D0394CFF
:2041C00039483A491C60DA601861196000210F2010BC17F0C3BB72B61B78D90707D534499E
:2041E000344A0C6812683448224002600A609A0707D532492F4A0C6852682F4822400A60C7
:2042000042605B0707D52E4A2A4B10689B682A49034013608B6062B6CCE71F4B1A7802B3C6
:2042200072B61B78DA0707D52149224A0C6812682148224002600A609C0707D51F491D4A5D
:204240000C6852681C4822400A604260580707D51B4A184B10689B681749034013608B60DF
:2042600062B60E4BDA68B2F1384FAFD00D4919600E4A4FF038404FF07841D86019611A60E0
:20428000A4E700BFAFA5FF1F14B0044004C00440849BFF1F15A3FF1F00A6FF1F00C0024079
:2042A000000001BA01401F00000001FA00001F8080E100E0E8A5FF1FF4A5FF1F84E100E061
:2042C00088E100E008B5154A154B012111601B788BB1D90703D51349134A096811609A07C3
:2042E00003D51049114A496811605B0703D50D4A0F4B92681A600F4B1B783BB10E490F4B27
:204300004FF410704FF4807208601A60BA2017F063FBBDE80840FFF737BF00BF84F00F4029
:2043200000A6FF1FF4A5FF1F00E100E004E100E008E100E0AFA5FF1F14B0044004C0044031
:204340002DE9F04F00F001024308960003EB830316445A0187B002EB0612C2F59556DFF856
:2043600080E15B4F019605921646C2F5155202929EF8008097F800A0029A564C564B94F846
:2043800000901C68554BC6F59547C6F5605E019E04970139009106F11F0100EB800501913B
:2043A0001146049AAD013F31C5F595477F3200EB800B02910EF13F0104926E4203914FEA48
:2043C0004B1B7F37A03500221AE0B9F1000F25D002EB0B0104EB810E24F8210004EB450139
:2043E000AEF8020024F8150048800132502A03F10203A7F10207A6F1020605F1020535D034
:204400001879597951EA002031D0B8F1010F1DD0BAF1000FD9D1B9F1000FD9D002EB0B0178
:20442000A1F515513F3906F5944C06F5944EC1EB81710CF15F0C0EF15E0E24F8170024F890
:20444000210024F81C0024F81E00CEE70099B9F1000F05D10329C8D8DFE801F035302B26B2
:204460000329C2D8DFE801F01B140D06012007B0BDE8F08F0599511801F5615124F81100A4
:20448000B3E70599511801F5165124F81100ACE70599511801F5965124F81100A5E7059923
:2044A000511824F81100A0E70199891A24F811009BE70299891A24F8110096E70399891ACC
:2044C00024F8110091E70499891A24F811008CE7AFA5FF1F5AA3FF1F7C98FF1FD8A1FF1F01
:2044E00015A3FF1F2DE9F041264B274C1A682678A4464FF0004542F480621A608846DD628E
:2045000029461C4665465E630CF1A30E1A466F78E36A002BFCDA966B136843F48063136012
:20452000D162576305F8016B7545F0D11549CB6A144A002BFBDA9CF80030926B8CF8A320B1
:2045400003F00F020F2A104905D04A78824205D00320BDE8F0810120BDE8F081142802D017
:204560000020BDE8F081094A1278012AF8D11B1102D10420BDE8F081434514BF022000205E
:20458000BDE8F08100C00240D8A1FF1F15A3FF1F2DE9F843314BDFF8EC801B78012B0CBFFC
:2045A0004FF004094FF00109FFF7EEFD01260027FF2F48D0002405E02846FFF7C1FE50B1C4
:2045C0003C2C17D0E5B231462846FFF78BFF013431460028F0D017F0DBF90137FFB20446EE
:2045E00000E000BF17F0D4F9001BB0F5487FF8D33C2DDDD10136F6B2B145D8D2184A194B9A
:20460000012111601B788BB1D90703D51649174A096811609A0703D51349154A4968116088
:204620005B0703D5104A134B92681A60124B1B783BB11249124B4FF410704FF48072086020
:204640001A60BDE8F88398F8003003F0FF07002BD4D1FFF737FE0126ACE700BF15A3FF1FBD
:2046600084F00F4000A6FF1FF4A5FF1F00E100E004E100E008E100E0AFA5FF1F14B0044033
:2046800004C00440C09AFF1F2DE9F0410B4E0C4CDFF830804FF480754FF4107735602760FD
:2046A000FCF7D4F9404615F0ABFA98F8043037605B0800FB03F02560BDE8F08114B00440BB
:2046C00004C00440889BFF1FF8B50A4E0A4C0B484FF480754FF410773560276015F028FE9A
:2046E000074A00F2FF7310603760C3F3CF202560F8BD00BF14B0044004C00440E89FFF1FAB
:2047000084A3FF1F30B58DB0FFF7DEFF48B30446FFF7BAFF0A22810A684618F0B3FE69469E
:2047200004A818F07DFE104904A818F035FF0A220546611E08A818F0A5FE08A9284618F091
:2047400023FF0A4918F028FF0146094818F0C2FE08A818F011FE04A818F00EFE684618F018
:204760000BFE0DB030BD00BFF47F0200F87F02001CA3FF1F38B51D481D4B1E494FF4107216
:204780004FF4807404601A60A1F10C000223142215F04AFC48B900201449154B4FF410741B
:2047A0004FF480720C601A6038BD134813F0BCFF0121124815F07CFA88B1104C04F23C45CD
:2047C0002846214614F036F90028E4D094F83C3413F0700316BF0A4B18461D60DCE7014674
:2047E000064815F065FA0028E7D1D4E714B0044004C00440F49FFF1FC49FFF1F889BFF1FE9
:20480000E0A5FF1F08B50E490E4818F06BFEFFF7B1FF70B90C4B1B783BB10C4B1B7823B9AF
:204820000B4A137823F0100313700A4B0A4A1A6008BDFFF767FF074B074A1A6008BD00BF0A
:20484000FC7F02001CA3FF1FAFA5FF1F849BFF1F2188FF1FE4A5FF1F1D080000F8B5344C8F
:204860004FF40072002120461CF048FE314A3248324900780968324B12781E68B1FBF0F533
:2048800012FB00F200FB1515B1FBF2F39F080135DFF8B4E084F8C13107F0C00765F305078B
:2048A000AA259EF800E084F8FF518D19013D84F8C07184F8C2E1B5FBF2F71FFA87FE4FF0C1
:2048C000550CBEF5806F02FB131384F8FEC1B3FBF0F384F8BF3112D3FF20FE2284F8C50114
:2048E00084F8C32184F8C401C4F8C611C4F8CA610F4A14480021BDE8F84015F001BE94F89A
:20490000C431B5FBF0FE4FEA272C00FB1E5E0EF1010E6CF387136EF3050302FB175284F8AF
:20492000C571B2FBF0F084F8C43184F8C301DBE79898FF1F999AFF1FA9A3FF1FD49AFF1FAC
:20494000ACA1FF1FE89FFF1F9A9AFF1F38B54FF4007204460D460B4800211CF0CFFD214603
:204960002A46094815F024FE002435B101340549054815F0E9FDA542F8D10348BDE8384072
:2049800015F040BE9898FF1FE89FFF1F2DE9F84FDFF80492754BD9F800E01878744D754FD1
:2049A000AEF58071B1FBF0F101F201131B0A5C004FF4807204F1A10696422B603A6088BF39
:2049C0004FF4C07301D8CEE06346C3EB0E01B1FBF0F101F20112120A540004F1A1069E42F5
:2049E00003F1800CF0D83B602A609B1B04F12102614EDFF8A8A1614CDFF8A48101FB0021E7
:204A000003F18000306047F6A770813301228142CAF800102360A8F8002000F29C80584BDE
:204A20001A70DFF880B1FFF719FF4FF40072002158461CF063FD5A46EB2090218BF8000017
:204A4000552002F8021FAA218BF8FE018BF8FF110BF10A00202102F8011F8242FBD1DAF823
:204A600000204248CBF820204649474A90F800C0B8F8000091F800E0D9F800301278ABF8DA
:204A80000E0002204FF0000A29688BF80DC0ABF818E04FF0F80CABF81A208BF80C003268D8
:204AA0008BF810008BF812004FF0800E29208BF815C04FEA0329ABF81610CBF81C208BF8B0
:204AC00024E08BF80BA08BF811A08BF8260016F05FFF2E4ADFF8D0802D4B814403CACBF8F7
:204AE0002B00C8F8041003CBB2F800E0C8F80F1031689678CBF83600A8F12B02A8F808E092
:204B000088F80A602348CBF8279015F0F9FC20683968091AFFF71AFF5146A8F12B004FF4D3
:204B200000721CF0EBFC4FF6F877A8F12B0221681848ABF800704FF6FF76ABF8026015F0D6
:204B4000DFFC21682B681348A8F12B021944BDE8F84F15F0D5BCB1F5803F094B34BF04228C
:204B600006221A705DE713463FE700BF80A3FF1F8498FF1F00A0FF1FD49AFF1FB4A1FF1FC9
:204B80009A9AFF1FA9A3FF1F999AFF1F1488FF1F3088FF1FE89FFF1F84A3FF1FACA1FF1F23
:204BA00090A2FF1F9898FF1FC398FF1F2DE9F84F944F954ED7F8008096F800C0934D944C5E
:204BC000DFF87C92A8F58041B1FBFCF101F18103DB09580000F5005A4FF4804E0AF1090AD9
:204BE0004FF40052F2452B602260C9F800E018D94FF4C04E00E0D646CEEB0801B1FBFCF1A2
:204C000001F18103DB09580000F50052093272450EF5005AEFD8AEF50052C9F800E02B6064
:204C200092B27C4BDFF81CB2DFF81CA2DFF81C82DFF81C9201FB0CE1101A9942A1F500525F
:204C4000754BCAF8002080B294BF0B220C22ABF8000000F500501A70C9F80000FFF7FEFDAE
:204C60004FF40072002140461CF048FC4346EB21902288F80010552103F8022FAA2288F8C3
:204C8000FE1188F8FF2108F10A01202203F8012F8B42FBD16149624ADAF8003009781278F8
:204CA000C8F8203002233078A8F81810A8F81A2088F80C30226888F81030C8F82C30F8213A
:204CC0002B68BBF800E088F80D004FF0000B88F81510C8F81C2006218022C8F82430012038
:204CE0002923A8F80EE0A8F8321088F8402088F8423088F80BB0A8F830003F6816F048FE28
:204D0000484B494A4FEA072A824403CB474FC8F84700796003CAC7F80F10C8F8520018889C
:204D20009B78BB7221683881A7F14702C8F843A03F4815F0E5FB21683D48A7F147020631DB
:204D400015F0DEFB5946A7F147004FF400721CF0D5FB216836485523A7F1470288F8FE3157
:204D60000231AA2388F8FF3115F0CAFB21683048A7F14702083115F0C3FB21682D4BC8F81A
:204D800000302D48C8F8E4014FF0FF33C8F8E831C8F8EC31A7F147020131254815F0B0FB72
:204DA00021682348A7F14702073115F0A9FB33782968D9F8000003EB4101FFF7C7FD5946A7
:204DC000A7F147004FF400721CF098FB1B4BD9F80010C8F80030A7F147026FF0704314481A
:204DE000C8F80430C8F8083015F08AFBD9F800102B680F48A7F147021944BDE8F84F15F043
:204E00007FBB00BF84A3FF1F80A3FF1F8498FF1FD49AFF1F0004FB009A9AFF1FA9A3FF1F92
:204E2000999AFF1F1488FF1F2488FF1FDF98FF1FE89FFF1F5252614172724161F8FFFF0F92
:204E400000A0FF1F90A2FF1FACA1FF1F9898FF1FB4A1FF1F3D4B3E493E4810B54FF41072F9
:204E60004FF480740C601A6015F062FA3A4A3B4B106000F2FF70C0F3CF201028188015D87A
:204E8000374C3848384A02232021237003701170364B1B78DBB1FFF789FE2D492B4B4FF454
:204EA00010704FF4807208601A6010BD20282C4B10D804221A7020222B4B90421A7015D836
:204EC000284B04221A70294B1B78002BE3D1FFF75DFDE2E7402815D980281FD810221A70FF
:204EE000B0F5807FE7D9204B3F221A7080281D4B05D9B0F5FC7F08D810221A70C8E7082275
:204F00001A70C5E708221A70EAE7B0F57C7F12D9B0F5FC6F12D840221A70B9E7B0F5806F31
:204F200002D820221A70DBE7B0F5004F94BF402280221A70D4E720221A70A9E7B0F57C6F8D
:204F400094BF8022FF221A70A2E700BF04C0044014B00440E89FFF1F84A3FF1FA0A1FF1F10
:204F600080A3FF1F999AFF1FA9A3FF1F849BFF1FF0B41C4B1C4C1D481D494FF400721A608B
:204F80002260026822F4802202604FF400074FF080764FF000754FF080644FF000621F6095
:204FA0001E601D601C601A600B68114A1806FBD41368590603D5136843F0400313600D4BD7
:204FC0001A68120603D51A6842F080021A600A480A490B4AA024047000230B60F0BC1360D0
:204FE000704700BF88E100E088E200E03480044024B00B4000B00B40004006404480044008
:205000004880044008B5002016F032F9AE2800D008BD0021084616F045F972B6FFF7A8FF93
:2050200048F68000C0F20300D0F800D0D0F804F008BD00BF00B583B069460023052218F03C
:20504000D5FA68461BF0F8FD03B05DF804FB00BF38B5094D094C2888000A17F065FF2878B0
:2050600017F062FF2088000A17F05EFF2078BDE8384017F059BF00BF72A3FF1F78A3FF1FB3
:205080002DE9F041164B1B78012B17D0B0B9154E804608F5A077444633681D5B280A17F046
:2050A00043FF0434E8B217F03FFFA742F4D108F52078B8F5164FECD1BDE8F081094E0024F4
:2050C0003368185B000A17F02FFF3368185D023417F02AFFB4F5164FF2D1BDE8F08100BF67
:2050E00015A3FF1F7C98FF1F38B5124B1C7814B1114B1C7874B9114D2B68185B000A17F073
:2051000013FF2B68185D023417F00EFFB4F5164FF2D138BD0A4D00242B68185B000A17F0D3
:2051200003FF2B68185D023417F0FEFEB4F5163FF2D138BD849BFF1FE89AFF1F7C98FF1F67
:205140008898FF1F08B5174B187817F0EDFE164B187817F0E9FE154B187817F0E5FE144B58
:20516000187817F0E1FE134B187817F0DDFE124B187817F0D9FE114B187817F0D5FE104BFD
:20518000187817F0D1FE0F4B187817F0CDFE0E4B187818B10D4B187880F00100BDE80840F5
:2051A00017F0C2BE15A3FF1F5AA3FF1F16A3FF1FAEA5FF1FFC9FFF1FC0A3FF1F989AFF1FA5
:2051C00092A2FF1FC5A3FF1F9298FF1F729BFF1F70B51B4B82B01B6801ACD8B2190A1A0CC4
:2051E00025461B0E0DF107068DF804008DF805108DF806208DF8073017F096FEB54205D01F
:2052000015F8010F17F090FEB542F9D10D4B1B68D8B2190A1A0C1B0E8DF804008DF8051021
:205220008DF806208DF8073017F07EFEB44205D014F8010F17F078FEB442F9D102B070BD81
:205240008CA2FF1F789BFF1F30B50F4B1B6883B0D8B2190A1A0C01AC1B0E0DF107058DF8A4
:2052600004008DF805108DF806208DF8073017F05BFEAC4205D014F8010F17F055FEAC42A2
:20528000F9D103B030BD00BFF89FFF1F2DE9F041514CA0B023680293029D17F09DFD30B9B3
:2052A00023680393039B5B1BB3F57A7FF5D317F093FD78B304A87822484918F015F804237B
:2052C00004A918A8002218F0ABF90A224FF4FC611CA818F0D7F81CA918A818F081F90146DE
:2052E00014A818F0BBF814A8FFF7A4FE044614A818F042F81CA818F03FF818A818F03CF89C
:2053000074B9742017F010FE04A818F035F820B0BDE8F081742017F007FE20B0BDE8F0816A
:2053200004A908A80D230B2218F07AF908A8FFF781FE10230DEB030104460E220CA818F0AE
:205340006FF90CA8FFF776FE04A90546132310A8112218F065F910A8FFF76CFE04A9064637
:205360000A23082214A818F05BF914A8FFF762FE04A907460723052218A818F051F918A88F
:20538000FFF758FE04A98046042300221CA818F047F91CA8FFF74EFE3B46324629460190FA
:2053A000CDF80080204615F0ADFC1CA817F0E4FF18A817F0E1FF14A817F0DEFF10A817F0E0
:2053C000DBFF0CA817F0D8FF08A817F0D5FF15F0E7FB16F0B1FA94E72CA6FF1FD4A7FF1F3A
:2053E00070B50D4CA51C04F5C07635F8020C000A17F09AFD15F8020C17F096FD6088000AB5
:2054000017F092FD043414F8020C17F08DFDB44205F10405E9D170BD20A0FF1F08B517F095
:205420009FFCC0B280B1012804D08220BDE8084017F07ABD084A094B107000221A708220F0
:20544000BDE8084017F070BD044B01221A708220BDE8084017F068BD9298FF1F729BFF1F01
:2054600008B517F07DFCC1B2012904D98520BDE8084017F059BD064B01F0010265201A7072
:2054800015F010FF8520BDE8084017F04DBD00BFAEA5FF1F08B517F063FCC1B2012904D988
:2054A0008620BDE8084017F03FBD064B01F0010269201A7015F0F6FE8620BDE8084017F06B
:2054C00033BD00BFFC9FFF1F08B517F049FCC1B2012904D98720BDE8084017F025BD064B13
:2054E00001F001026A201A7015F0DCFE8720BDE8084017F019BD00BFC0A3FF1F08B517F050
:205500002FFCC3B2032B05D8054A19467F20137015F0C8FE8820BDE8084017F005BD00BF28
:20552000989AFF1F08B517F01BFCC3B2022B05D8054A19467320137015F0B4FE7A20BDE807
:20554000084017F0F1BC00BFC5A3FF1F034B187808B1034B187817F0E7BC00BF849BFF1FEF
:20556000E89AFF1F2DE9F041124D4FF6FF7705F5C0764FF0000817F0F3FB044617F0F0FB82
:2055800000EB042080B2B84214BF25F8020C25F8028C17F0E5FB044617F0E2FB00EB042003
:2055A00025F8040BB542E6D18920BDE8F04117F0BBBC00BF22A0FF1F70B5184D84B02B6824
:2055C00002930A20029E16F007FA2B680193019CA41B134811F090FD114811F06BFDA0B1E6
:2055E000B4F57A7F0CDD0F4BB6221A700C4811F083FD0B4811F05EFD0028F7D104B070BD0F
:205600002B680393039CA41BE3E7B4F57A7FEADA044BB4221A7004B070BD00BF2CA6FF1F94
:20562000D89AFF1F2088FF1F70B51C4D86B02B6802930A20029E16F0CFF92A68184B019208
:20564000019C1B78A41BFBB106E0B4F57A7F07DC2B680393039CA41BFBF772FF0028F4D16D
:205660002B680593059B9B1BB3F57A7F12DA0D4BB52200201A7006B070BDB4F57A7FEFDCF3
:205680002B680493049CA41B052016F06DF90028E6D1F2E7012006B070BD00BF2CA6FF1F85
:2056A00088A3FF1F2088FF1F70B5992015F0E0FD431EDBB2022B11D9514B524E524D534C9C
:2056C0005348544A4FF07C51196000234FF07E5133702B7023700370116070BD012835D1CA
:2056E0007E2015F0C5FDC828E6D17C2015F0C0FD444B434C1870792015F0BAFD434B454D25
:2057000018707A2015F0B4FD414B18707B2015F0AFFD3D4B18707D2015F0AAFD1BF010F8E5
:205720003D491BF015F92060A52015F0A1FD1BF007F839491BF00CF93849286004461BF0E8
:20574000F1F958B34FF07E532B6070BD022830D0982015F08DFDC828AED1942015F088FD6E
:20576000284B274C1870912015F082FD274B294D1870922015F07CFD254B1870932015F036
:2057800077FD214B1870952015F072FD1AF0D8FF21491BF0DDF82060A720C6E720464FF0B4
:2057A0007E511BF0DDF9002897D04FF07E532B6070BD902015F05CFDC8287FF47DAF8E2097
:2057C00015F056FD0F4B0E4C18708B2015F050FD0E4B104D18708C2015F04AFD0C4B187023
:2057E0008D2015F045FD084B18708F2015F040FD1AF0A6FF08491BF0ABF82060A62094E77A
:20580000A49AFF1F1CA0FF1F58A3FF1FA8A3FF1F90A3FF1FBC9AFF1F0000C8423333333F29
:2058200030B583B001AD8324204615F021FD0134872C05F8010BF7D1024B019A1A6003B0A4
:2058400030BD00BF789BFF1F10B5652015F010FD784B012896BF00F00100002218704FF0F4
:20586000660088BF1A7015F003FD734B12288CBF0D2218704FF0670088BF1A7015F0F8FC82
:205880006E4B01289ABF00F00100187000224FF0680088BF1A7015F0EBFC012840F2BF8034
:2058A000674B00221A706B2015F0E2FC654B012896BF00F00100002218704FF06C0088BF61
:2058C0001A7015F0D5FC604B012896BF00F00100002218704FF06D0088BF1A7015F0C8FC5E
:2058E0005A4B012896BF00F00100002218704FF06F0088BF1A7015F0BBFC554B01289ABF8D
:2059000000F00100187000224FF0690088BF1A7015F0AEFC012879D94E4B00221A70732071
:2059200015F0A6FC4C4B02288CBF012218704FF06A0088BF1A7015F09BFC484B01289ABFDE
:2059400000F00100187001224FF0710088BF1A7015F08EFC022803D8414B1B785B0748D4F9
:20596000404B00221A70722015F082FC3E4B042894BF187000224FF0870088BF1A7015F08D
:2059800077FC0228394B37D8187078B1892015F06FFC0446882015F06BFC354B00EB04241C
:2059A0008A201C8015F064FC324B1870822015F05FFCC82827D0304B304A1A607F2015F03B
:2059C00057FC2F4B03288ABF002218701A702D4B1C78012C09D1A82015F04AFC2A4B01288E
:2059E0009ABF00F0010018701C70BDE81040FFF75BBE1C4B1870B6E7002282201A7015F066
:205A000037FCC828D7D1FFF70BFFD7E7144B1B78DA0781D50F4B00F0010018707FE7104B40
:205A20001B7859077FF53CAF054B00F00100187039E700BFAEA5FF1F16A3FF1FA2A1FF1FC3
:205A4000AAA2FF1F9498FF1F8298FF1FADA5FF1FA6A3FF1FFC9FFF1FC5A3FF1FC0A3FF1FC3
:205A60002188FF1F9198FF1F92A2FF1F70A3FF1FC89AFF1F93A2FF1F789BFF1FC1A8243DC7
:205A8000989AFF1F849BFF1FE89AFF1F30B5134B1B6883B0180A8324D9B21A0C8DF80500DC
:205AA0001B0E20468DF804108DF806208DF8073015F0F8FB862C01AD07D0013415F8011FC6
:205AC000204615F0EFFB862CF7D1C821822015F0E9FB034B02221A7003B030BD789BFF1FB6
:205AE000ABA2FF1F30B583B001AC02AD17F038F904F8010BAC42F9D1034B019A1A6003B0B9
:205B0000BDE83040FFF7C2BF8CA2FF1F30B583B001AC02AD17F024F904F8010BAC42F9D155
:205B2000034B019A1A6003B0BDE83040FFF7AEBF789BFF1F38B5124C2578ADB1002105201A
:205B400015F020FF2378012B0CBF03210021022015F018FF0121162015F014FF0121162044
:205B6000BDE8384015F0FABE0121042015F00AFF2946042015F0F2FE024B1D70DEE700BF11
:205B8000849BFF1FA7A3FF1F08B50121062015F0F9FE0121092015F0F5FE01210F2015F0C6
:205BA000F1FE0121142015F0EDFE0121152015F0E9FE01210A2015F0E5FE0121062015F0EC
:205BC000CDFE0121092015F0C9FE01210F2015F0C5FE0121142015F0C1FE0121152015F054
:205BE000BDFE01210A2015F0B9FEBDE8084014F08BBD00BF2DE9F041174D6F7BD5F81080F8
:205C000086B0384611F0C6FB00240126134B019039464046039322462346049602940094A4
:205C200011F0C8FC0E4B28691A78697B4FF47A73B242C0F8683207D000963346324611F06A
:205C400039FD06B0BDE8F0810092234611F032FD06B0BDE8F08100BFCCA5FF1FA0860100D6
:205C6000849BFF1F38B54FF4B27017F0C3FA114C054610F0CDFD28464FF0FF3204212560D7
:205C800010F01CFE20684FF0FF320C2110F0EEFD20684FF0FF32022110F0FCFD206802211B
:205CA0004FF0FF3210F000FE00211720BDE8384015F068BE8CA3FF1F08B5094B1B78012BB9
:205CC00006D04FF416401BF055F8064B186008BD4FF416301BF04EF8034B1860F1E700BF38
:205CE000849BFF1F7C98FF1F8898FF1F084B1B78012B04D0074B01211868FEF7BBB8064B64
:205D00001B78002BF6D0054B00211868FEF7B2B8849BFF1F7C98FF1FE89AFF1F8898FF1F62
:205D20000E4B10B51C784CB18720FCF72BF80C4B1B7863B10B4B01221A7010BD2D20FCF7E9
:205D400021F8074B1B7833B9074A537010BD064B01225A7010BD034B1C7010BD5AA3FF1FAB
:205D600088A3FF1F98A3FF1F98A2FF1F10B516F0F7FFC0B2012804D98B20BDE8104017F049
:205D8000D3B8074C00F001002070FFF7C9FF2178702015F087FA8B20BDE8104017F0C4B814
:205DA0005AA3FF1F08B5802015F062FA02280D4B08D80128187008D002280CD00A4B0022A2
:205DC0001A7008BD00221A7008BD00220749084812F0C0FBF2E700220649054812F0BAFB36
:205DE000ECE700BFBCA1FF1FA8A2FF1FE093040008A0FF1F804F12002DE9F04F430089B03F
:205E0000DFF8CCB2DFF8CC82A74AA84E039003EB000A04939BF8000098F800301178A44A35
:205E2000A44C127827684FEACA0A06EB0A0943EA00230693B9F8083042EA01221907059270
:205E400042D5B9F90650D9F81430B9F9042036F90A00B9F9021001932B46D9F81050009570
:205E6000FDF7D6FDB9F80830DA0600F10581DD074CBF914B914B039A1B6888F800301B0A7F
:205E80008BF80030049BDFF850A21344DD0006EB0509705BB9F80210B9F80630B9F804206A
:205EA0000B440244FCF726FD705BB9F80210B9F80630B9F804200B440244013301320139B7
:205EC0000138FCF717FD94E07D4B36F80A001A68B9F804C0B9F80210B9F8063088F80020CD
:205EE0004FEA122E0B440CEB00028BF800E0FCF791FD724B36F80A001A68B9F804C0B9F860
:205F00000210B9F8063088F800204FEA122E0B440CEB00028BF800E0FCF7ECFC36F80A00B1
:205F2000B9F80210B9F80420B9F8063002440B440132013801330139FCF7DCFCB9F80830BF
:205F4000D8074CBF5C4A5F4A126888F8002099074FEA12228BF8002066D45B4B04991A683F
:205F60002260137823711D46039B92F801A084F805A0CB18DB0006EB03099178A171D27813
:205F8000D9F80C000793E2711BF07AFF079BB9F80610F35AB9F802E0B9F804204FEA5A0AF8
:205FA000CAEB510A03EB520900FB05F00AEB0E030793A9EB5009424BDFF81CA11B685A1CF1
:205FC0005DD03B4A384913701B0A00220B708AF80020039A049B134406EBC306079AF06861
:205FE00000234946FDF738FA338903F00603062B49D027603B7823717B786371BB78A371EB
:20600000069B059DFA7888F80030180A8BF800002748E27105702448290A002301708AF88A
:20602000003009B0BDE8F08F284B03981968049B216003EB000C0A7822714FEACC0C06EB93
:206040000C0E4B786371BEF806A091F80290BEF80400BEF802E084F806905B0836F80CC057
:20606000C978E1715208C3EB5A03C2EB5002734402EB0C0907939EE7DFF85CA0B9E70123BA
:206080008AF80030A5E7079D2179F068C1EB09012A460023FDF7E0F92179F0682A46494427
:2060A0000023FDF7D9F9A4E7D4A1FF1FCCA3FF1F7CA2FF1F689BFF1FACA2FF1FC49AFF1F07
:2060C000749BFF1FB0A5FF1F80A2FF1FB09AFF1F81A3FF1F89A3FF1F9398FF1F2DE9F04F4E
:2060E00089B0724FDFF8D481019006A88946FBF74DF93E7898F800306D4DBDF91A20BDF95E
:2061000018B043EA0623009392462B4600204FF0FF3402E00130142827D09A7A1E88B3F848
:2061200002C09988B3F806E02AB11E3EACF1140C3C310EF1280E1A8912F4004F03F118034E
:20614000E8D1D207E6D4621CE4D15E453144E1DC8B45DFDCD445DDDCE644F245D4BF044650
:206160004FF0FF3401301428D7D1601C0BD04FEA440A0AEB0403DB0005EB030E4C48BEF898
:206180000810C9066DD5B9F1000F4BD0DFF83091D9F800300293DDF808A0FBF7D1F938B1B2
:2061A000D9F800300393039BCAEB0303312BF4D9631C2ED04FEA440A0AEB0403DB0005EBFB
:2061C000030E3B48BEF80810CA0622D4394AC05A126888F80020120ABEF802103A70BEF89C
:2061E0000630BEF80420A24402440B444FEACA0AFCF780FB05EB0A0235F80A005188D38832
:2062000092880B4402440133013201390138FCF771FB009A88F80020130A20463B7009B075
:20622000BDE8F08F019B9BB1DFF89490D9F800300493DDF810A0FBF783F90028B8D0D9F84B
:2062400000300593059BCAEB0303952BF3D9AFE7FBF776F90028ABD0FBF772F90028F7D1A8
:20626000A6E7154AC05A126888F80020120ABEF802103A70BEF80630BEF80420A24402447E
:206280000B444FEACA0AFCF735FB05EB0A0235F80A005188D38892880B4402440133013202
:2062A00001390138FCF726FB6DE700BF81A3FF1FCCA3FF1FC49AFF1FB8A3FF1F89A3FF1F36
:2062C0002CA6FF1F2DE9F04F00EB40002D4FDFF8CCA0DFF8CCB0C600BC19B85B6188E3883A
:2062E000A2880B44024483B04FF0BE094FF07F08033B0331033A03308AF800908BF80080E9
:20630000FCF720FA204B214A186810600178117145781F4B5571D3F800E083789371E368CD
:2063200090F803C08BF800E018464FEA1E2E01918AF800E0009382F807C01BF0A1FDBE5B42
:20634000B4F806C0A78862880199124C009BDFF854E084F800906D0806EB570400FB01F15A
:206360000026C5EB5C050C4F8EF8008018462A44A4EB510133463E7003B0BDE8F04FFDF726
:206380006BB800BFCCA3FF1F80A2FF1F689BFF1FB0A5FF1FD4A1FF1F9398FF1F81A3FF1F9C
:2063A00089A3FF1F7CA2FF1F2DE9F04F00EB4000DFF8DC80DFF8DC90DFF8DCB0D9F80050DD
:2063C000DFF8D8A08BF80050C60008EB060438F806006188E388A2880B44024483B0033B1E
:2063E0000331033A03302D0A8AF80050FCF7AAF9214A224B116819600A781A714D785D71F0
:206400001F488F789F710068E76891F803E08BF80000010A384683F807E001928AF8001048
:206420001BF02EFDA18838F80630019AB4F806E0D9F80060648800FB02F003EB51036D08A9
:20644000C5EB5E05A3EB5001731C05EB04020ED00C480D4C0D4B0670360A002026701870EE
:206460003846002303B0BDE8F04FFCF7F5BF074B01201870F4E700BF80A2FF1F689BFF1F47
:20648000B0A5FF1F7CA2FF1FD4A1FF1F9398FF1FCCA3FF1F749BFF1F89A3FF1F81A3FF1F2B
:2064A000124BF0B4124D03F5F07400224FF400401A805A809A80DA801881DD601833A3428D
:2064C0004FF00001F4D10B4F0B4A0C4E0C4D0D4C0D480E4B39601F2717604FF6FF723160B1
:2064E0002960216001601A60F0BC7047CCA3FF1F7C8E0200C49AFF1FB8A3FF1F80A2FF1F86
:20650000B09AFF1FB0A5FF1FACA2FF1F749BFF1F134B14491B78022B10D0012B14D0032B6E
:2065200017D0042B04D0104AFF230B70137070470D4B00201F2208701A7070470A4BF82061
:20654000002208701A707047074A00230B7013707047054B0420002208701A70704700BF29
:2065600092A2FF1F81A3FF1F89A3FF1F10B516F0F7FBC0B2042807D8064C2070FFF7C8FF64
:206580002178722014F08EFE8320BDE8104016F0CBBC00BF92A2FF1F2DE9F041044669B35D
:2065A0001A4E1B4DCE220621592732700846EA234FF49D722F70FCF72DFA164A164B107823
:2065C0001871204654785C711A6094781349D278DA71DFF850E0124F9C71592200240A702E
:2065E000CE238EF800303C70234634702C706E2242F20E71BDE8F041FCF72EBF4CF65960AB
:20660000FBF7BAFF014E024DD7E700BF81A3FF1F89A3FF1F58570300689BFF1F7CA2FF1F19
:206620009398FF1FD4A1FF1F2DE9F0413D4D2C780746002C45D13C4E4FF0FF3230681721B0
:2066400010F046F921468046306810F019F9064640461AF075F84FF07F511AF0C5F8334989
:206660001AF0C2F8044630461AF066F8014620461AF06EF90446282014F034FD2C49064688
:2066800020461AF045FA78B1322E32DD2046FDF711FD284B40B21428187003DC013001D041
:2066A000002F2FD1BDE8F081322EEFDC2B78D3B9214B1B7820467BB3204919F08DFF044660
:2066C000E4E7194C4FF0FF321721206810F000F900218046206810F0D3F8064640461AF04B
:2066E0002FF81749B9E72046164919F075FF0446CCE7154A137823F0200313702B78002BC3
:20670000F1D1D5E711480021FFF746FF4FF47A70BDE8F04115F060B94FF07A5119F05CFFB7
:206720000446B3E7849BFF1F8CA3FF1F33335340000080BFA89AFF1FAFA5FF1FCDCC4C3DBF
:206740006666C63F9A99193E2188FF1F1480020038B5FA2014F08CFDEA283ED0244B1C78CA
:2067600005468CB9972014F083FDC8280CD020460021013414F096FDB4F5006FF7D100212E
:206780001C48FFF709FFFEE7E92D27D8C72D19D8002420460021013414F084FDB4F5006F3B
:2067A000F7D10021992014F07DFD00217E2014F079FD0021902014F075FD0021982014F05C
:2067C00071FD01E0D42DECD900210B48FFF7E4FEEA21FA2014F066FDFEE738BD0021074882
:2067E000FFF7DAFEEA21FA2014F05CFDFEE700BFAFA5FF1F34800200588002007C800200A5
:2068000000B5154883B014F0B3FA14F069FAB0F5FC6F04DA962014F02BFDC82802D003B0D6
:206820005DF804FB00210D48FFF7B6FE4FF47A7015F0D2F8002201234FF4FC6101910093DD
:206840001146104614F05EFA14F0AAF903B05DF804EB15F071B800BF59090000A48002001C
:2068600038B5174B1B7873B1164B1B78012B0AD0154D2B7804463BB10021042015F06EF82D
:2068800000232B708CB938BD0121042015F066F801212970002CF6D00C48FFF77DFE4FF4A2
:2068A0007A70BDE8384015F097B809480121FFF773FE4FF47A70BDE8384015F08DB800BF50
:2068C000AFA5FF1F849BFF1FA7A3FF1FDC800200C8800200F8B50546FFF71AFE164A174C30
:2068E000174B107857789678164920711B78D07822600122E0716771A6710A702846A3B9DD
:206900006E2242F20E71FCF7A7FD0F4B2360187859789A78DB78E37120716171A2714FF4ED
