:020000040000FA
:2000000000800020BD01000099AA01005DAA01005DAA01005DAA01005DAA01005DAA010016
:200020005DAA01005DAA01005DAA010099AA010099AA01005DAA010099AA01004DAA0100DC
:2000400099AA010099AA010099AA010099AA010099AA010099AA010099AA010099AA010080
:2000600099AA010099AA010099AA010099AA010099AA010099AA010099AA010099AA010060
:2000800099AA010099AA010099AA010099AA010099AA010099AA010099AA010099AA010040
:2000A000012A0100112A010099AA010099AA010099AA010099AA010099AA010099AA010040
:2000C00099AA010099AA010099AA010099AA010099AA010099AA010099AA010099AA010000
:2000E00099AA010099AA010099AA010099AA010099AA0100A1CD010099AA010005D501001E
:2001000099AA010081DA010099AA010099AA010099AA010099AA010099AA010099AA0100A7
:2001200099AA010099AA010099AA010099AA010099AA010099AA010099AA010099AA01009F
:2001400099AA010099AA010099AA010099AA010099AA010099AA010099AA010099AA01007F
:2001600099AA01006DB4010099AA010099AA010099AA010099AA010099AA010099AA010081
:2001800099AA010099AA010099AA010099AA010099AA010099AA010099AA010099AA01003F
:2001A00099AA010099AA010099AA010099AA010099AA010099AA010099AA0100574B4CF283
:2001C000205210B51A804DF628121A8000BF00BF1AF066FC524B4FF010621A60514A9A60F0
:2001E000514ADA60A3F53043203B1A6812F4807204D14E490A604FF4A8521A604C4B1A7894
:20020000110703D51A7842F008021A70494B4A4C4A482A221A704A4A00239918A14203D2E4
:20022000195899500433F8E7464B474900228B4202D243F8042BFAE74448454900235A5830
:200240001A500433B3F5DE7FF9D1424B424A802103F8011B9342FBD1404B3C4A1A60404BA6
:200260008A221A70A3F5805324225A70A0221A709A799207FCD59A79D406FCD4394A9379B8
:2002800003F00C03082B374BF9D103221A714C225A719A799006FCD5324A9179314B490629
:2002A000FBD5314A4FF0017111600421516020221A709A7902F00C020C2AFAD12B4B2C4A2F
:2002C0001A602C4B2C4A1A6000225A60072243F8042C2A4AC3F80C2D62B61AF087FF134B5F
:2002E0001B68DA0705D526481AF0B4FE254B264A1A60264B1B785B0609D5224C224A236894
:20030000934204D11E481AF0A5FE0023236020F0C3F801F0D7F81BF027FFFEE70E20054066
:2003200030800440823F04000100002B14D0034002D0074000E00740A895FF1F1C520300A5
:200340006087FF1FA895FF1FC03D00200082FF1F0000000000E400E05FE400E008ED00E0C4
:2003600000500640004006404480044004800440C010050014E000E07F32020000002020F5
:2003800046F0DD021CE00340A5C3945A00F00740FFFFFFFFFFFFFFFFFFFFFFFFFFFFFFFF8C
:2003A000FFFFFFFFFFFFFFFFFFFFFFFFFFFFFFFFFFFFFFFFFFFFFFFFFFFFFFFFFFFFFFFF5D
:2003C000FFFFFFFFFFFFFFFFFFFFFFFFFFFFFFFFFFFFFFFFFFFFFFFFFFFFFFFFFFFFFFFF3D
:2003E000FFFFFFFFFFFFFFFFFFFFFFFFFFFFFFFFFFFFFFFFFFFFFFFFFFFFFFFFFFFFFFFF1D
:20040000FFFFFFFFFFFFFFFFFFFFFFFFDEF9FFFF10B5054C237833B9044B13B10448AFF375
:2004200000800123237010BDA895FF1F000000001452030008B5064B1BB106480649AFF3DB
:2004400000800648036813B1054B03B1984708BD0000000014520300AC95FF1FA895FF1FD4
:20046000000000002DE9F04F8FB006919246B2F80480D3884345C0F00881864B197801EBE1
:2004800081020A92844B1A78C2EB8273C2EB83030D93824B187800EB8007814B1B78C3EB8B
:2004A0008374C3EB840401947E4C24780794C3EB8334C3EB84033B4401EB810101EB810184
:2004C00003EB4111C2EBC20202EB021202EB021201EB421292B20892734B1B780993734BA0
:2004E0001B68029308EB88035B019BB200934FF00009CB463E4657460A9B4344772B00F3EF
:20050000B7800D9B18EB030F00F1B2803C887B88A342C0F0AD800BF10103C4F19F0200994C
:200520000A441FFA82F91FFA83FBCDF830800BF1FF339AB2A3199F2B00F38A80019BDC4216
:2005400000F18680079919B1009D2544ADB200E04D46089B1D44ADB20999022972D1069B4E
:2005600033F812200392524931F8151004914FF07E5002991FF018FC8246049A02F4FC6088
:20058000C0081FF0C7FC014650461FF017FD8046039B03F4FC60C0081FF0BCFC014602989A
:2005A0001FF00CFD014640461FF000FC1FF0F2FE5FFA80F808F01C03DB0005930499C8008C
:2005C00000F0F8001FF0A6FC014650461FF0F6FC0B90039AD00000F0F8001FF09BFC0146C7
:2005E00002981FF0EBFC01460B981FF0DFFB1FF0D1FEC0F3C400059B184305904FEA6818FA
:20060000049901F47840000A1FF084FC51461FF0D5FC8246039A02F47840000A1FF07AFCDE
:20062000014602981FF0CAFC014650461FF0BEFB1FF0B0FE00F0F80048EA0008059B43EAB3
:20064000082802E0069931F81280194A22F815800134A4B20BF101039AB209F1FF391FFAFA
:2006600089F97B88A34201D3934660E7DDF8308008F101031FFA83F8009901F1A0039BB28B
:200680000093FB884345BFF437AF01200FB0BDE8F08F00BF7E3600205C9BFF1F28370020F8
:2006A000869CFF1FAC390020363700204C3400204C9EFF1F08B5083013F0DCFA08BD00BF6E
:2006C00000B583B002AB03F8011D08301946012213F0D0FA03B05DF804FB00BF08B500F56D
:2006E0008C6012F0CDFB08BD08B500F58C6012F0A9FC08BD08B500F58C6012F061FC08BDB3
:2007000008B500F58C6012F027FD08BD38B51546846FA288E388D01AA84298BF054629B130
:2007200022680846D1182A461AF072F8E3882B44E380284638BD00BFF8B505460C4614F067
:200740004FFD064614F042FD074614F035FDFFB2C0B240EA4717B6B2A6F2BC7647EA4627C0
:200760002F8014F00BFD054614F012FD064614F019FDF6B2EDB2ED0245EA4616C0F3460040
:2007800006432680F8BD00BF08B51AF05DFC08BD00B583B0334B93F8243023B168463249CF
:2007A00015F070FD03E068462E4915F0F7FFBDF80030BDF80220A3F10F0189B2412908D8DF
:2007C000A2F10F0080B22D2803D80122274B1A7044E0A3F1C80080B2692808D8A2F1B4008C
:2007E00080B22D2803D80222204B1A7036E0282B0CD8A2F1640080B2282819D81C480068FB
:20080000012815D00322194B1A7027E0A3F58C7080B227280CD8A2F1640080B2282807D85F
:2008200013480068012803D00422104B1A7015E0F03B9BB2412B08D8A2F10F039BB22D2BEB
:2008400003D80522094B1A7008E07C2906D8B43A92B22D2A02D80622044B1A7003B05DF8E1
:2008600004FB00BFD095FF1FE095FF1F20370020643400202DE9F04186B0364B1B7813F0E1
:20088000FF0F64D1344B1B7813F0FF0F5FD1334B1B7813F0FF0F5AD1314B1B7813F0FF0F55
:2008A00055D1304B1B7813F0FF0F50D133E02E4C04F11007DFF8B48094F824301BB1384604
:2008C00015F040FD02E0204615F08EFF78B1236A01221A70B5F57A7F2EDD08E00524234F68
:2008E00020461AF0EBFB10B9B5F57A7F2ADD1F4B1B680593059B9E1BB6F57A7F03DA0122AD
:20090000144B1A7023E01A4B1B78012B1FD00122124B1A701BE0154C23680193019E0A208A
:200920001AF04EFC23680293029DAD1B0E4B93F82430002BBBD1D1E7D8F800300393039DFF
:20094000AD1BB9E73B680493049DAD1BC8E706B0BDE8F081CD95FF1F21370020649CFF1FFB
:20096000CE95FF1F84360020D095FF1FA83A00203637002010B5044650491FF0D1FC00285E
:2009800076D120464E491FF0CBFC002872D120464FF081411FF0C4FC00286DD1204649493E
:2009A0001FF0BEFC002869D1204647491FF0B8FC002865D1204645491FF0B2FC002861D1EA
:2009C000204643491FF0ACFC00285DD1204641491FF0A6FC002859D120463F491FF0A0FC8C
:2009E000002855D120463D491FF09AFC002851D120463B491FF094FC00284DD12046394917
:200A00001FF08EFC002849D1204637491FF088FC002845D1204635491FF082FC002841D199
:200A2000204633491FF07CFC00283DD1204631491FF076FC002839D120462F491FF070FC2B
:200A4000002835D120462D491FF06AFC002831D120462B491FF064FC00282DD120462949A6
:200A60001FF05EFC002814BF05204FF0FF3010BD642010BD5F2010BD5A2010BD552010BD8C
:200A8000502010BD4B2010BD462010BD412010BD3C2010BD372010BD322010BD2D2010BDFA
:200AA000282010BD232010BD1E2010BD192010BD142010BD0F2010BD0A2010BD33338340E3
:200AC0009A998140A4707D401F857B40713D7A40EC5178403D0A77408FC27540E17A744082
:200AE0003333734085EB7140D7A37040295C6F4052B86E40A4706D40CDCC6C401F856B4051
:200B0000713D6A400000404010B501460A4C204610F04AFB204610F0EBFA4FF496701AF052
:200B20004FFB20464FF4E13110F01CFB20465F2110F072FB10BD00BF3C39002008B502481E
:200B400010F098FB08BD00BF3C3900202DE9F04782B02D4810F096FB1FFA80FA5046012119
:200B60001FF042FC0546BAF1000F20D057460024DFF89480A146402FB4BF3E464026F6B22C
:200B80004046314610F09EFBB64666B14B46C15CE21892B2A95401337345F8D10134731E48
:200BA00013FA84F4A4B2BF1BBFB2002FE3D1164E304610F0ADFA154C2560A4F804A0002362
:200BC000E38040F61C401FF08FFC0246104B186000941048104940F61C4314F0FFFB30461D
:200BE00010F0FEFA22280B480C490CBF0022012214F09CFE28461FF07FFC054B18681FF086
:200C00007BFC02B0BDE8F0873C390020749BFF1F24370020883600200D07000065040000F7
:200C200070B5124810F02EFB84B2114D2B681B682846210A98472B681B682846E1B29847F4
:200C400084B10A4E402CB4BF25464025EDB23046294610F037FB29461BF08CF8641BA4B2CF
:200C6000002CEFD1014810F053FA70BD3C390020B03B002010B400290ADD0346441800208C
:200C8000054913F8012B5040085CA342F9D100E000205DF8044B7047C002030070B582B0B5
:200CA00004460E4623485A2111F08AF82CB1214803681B680621984704E01E4803681B68BB
:200CC000072198471B4C2169627B0025009520462B4611F04FFB2069617B012300930195B1
:200CE0005A22032311F05AFB2369D3F83821D3F83431D31A032B1CBF2B4633700D4C206930
:200D000011F06AFB0546206911F066FB0646206911F062FB2169627B00230093204601235D
:200D200011F028FB06F07F00EDB205EB002002B070BD00BFC439002070B505460E46FFF7F6
:200D4000ADFF1FF0E7F814491FF038F913491FF02BF813491FF028F8044675B111491FF06A
:200D6000CBFA20B9204610491FF0E4FA10B10023337070BD0D4B1C6070BD0D491FF0BCFA59
:200D800020B920460B491FF0D5FA10B10023337070BD094B1C6070BD0AD7A33C0AD7233C31
:200DA00033938843000020C20000FA423037002000008CC20000BE43609BFF1FF0B48C461F
:200DC000234C2278234B196841F4806119604FF00041D9625A6304F1A3076678DA6A002A29
:200DE0001CDBFBE7D36A002B25DBFBE7184A527882420BD1142A0BD1174A1278012A09D1FA
:200E0000BCEB131F14BF002001201FE000201DE001201BE0012019E0002017E09A6B1D68F2
:200E200045F480651D60D9625E6304F8012BBC42D3D1084AD6E7074B9A6B054B83F8A3205D
:200E40001B7803F00F020F2AD0D1E5E7F0BC70470C96FF1F00C002404C9CFF1F30B583B012
:200E600005460C4C20462A2110F0AAFF23681B6820460021984723681B682046294698473F
:200E80002169627B002300932046012311F072FA03B030BDC439002030B583B0FFF7DEFF96
:200EA0000B4C2069617B01230093002301932A22022311F073FA206911F08EFA85B2206957
:200EC00011F08AFA2D02ADB2284380B203B030BDC439002010B50446074800214FF4007271
:200EE0001FF08AFE34B1044B552283F8FE21AA2283F8FF2110BD00BF3837002008B5014690
:200F00000248034A12F09EF808BD00BF8C9CFF1F38370020044B1B78044A127802FB03F39C
:200F2000B0FBF3F080B27047B89CFF1F2D370020064B1B78064A127803FB02F2B0FBF2F106
:200F400001FB1200B0FBF3F0C0B270472D370020B89CFF1F70B50120FFF7BCFF314C00233F
:200F600084F8BE31304B1D682846FFF7D3FF021294F8C03162F3871384F8C03184F8C101A5
:200F80002846FFF7D5FF84F8BF01284B1E78B5FBF6F206FB1252013294F8C03162F30503CA
:200FA00084F8C031224B1B7884F8C231214B1B681D44013D2846FFF7ADFFB0F5806F19D238
:200FC000021294F8C43162F3871384F8C43184F8C5012846FFF7ACFF84F8C301B5FBF6F3F2
:200FE00006FB1355013594F8C43165F3050384F8C43109E00B4BFF2283F8C521FE2283F8A4
:20100000C321FF2283F8C421064B074A1268C3F8C621084A1268C3F8CA210020FFF76EFFB8
:2010200070BD00BF383700207C9CFF1F2D370020B096FF1F6C9CFF1FF8B504460D46002087
:20104000FFF748FF094821462A4612F03BF84DB10024064F064E3846314612F015F80134F2
:20106000AC42F8D1014812F055F8F8BD8C9CFF1F3837002010B5034B1C6824021AF07CF85C
:20108000204410BD749CFF1F00B583B06946052200231BF099FA68461FF0A2F903B05DF812
:2010A00004FB00BF08B5064B00221A731A7101E01AF0EAFD1AF034FE0028F9DC08BD00BF9B
:2010C000B03B002038B50D4C23680D4D29881B682046090A984723681B682046297898475A
:2010E0002368084D29881B682046090A984723681B6820462978984738BD00BFB03B0020D1
:2011000072360020803600202DE9F0471C4B1B78012B00D020B11B4C04F516461A4D1EE0FC
:20112000DFF8608008F5164A4FF00009164E374613E038F8045033681B683846290A98474D
:2011400033681B683846E9B298470434B4F5A07FEFD108F52078D04510D04C46E9E7218824
:201160002B681B682846090A98472B6834F8021B1B682846C9B29847B442F0D1BDE8F087FF
:201180004C9CFF1F4C9EFF1FB03B002010B5214B18781AF06DFE204C23681B6820461F4AB7
:2011A000117898471E4B18781AF062FE23681B6820461C4A1178984723681B6820461A4A4A
:2011C00011789847194B1B781BB900201AF050FE05E0114803681B68154A11789847134B13
:2011E0001B781BB900201AF043FE05E00A4803681B68104A117898470F4B1B7823B10F4B1B
:20120000197881F0010100E00021034803681B68984710BD4C9CFF1FB03B0020AC9CFF1F6D
:20122000C89CFF1F849CFF1F8A9CFF1F989CFF1F689BFF1F74360020AD9CFF1F699BFF1FE4
:2012400008B5FFF77BFCFFF7EBFC08BD2DE9F041ACB04E4B1B680293029D4C4C1AF060FDD0
:2012600030B923680393039B5B1BB3F57A7FF5D31AF056FD002800F0858004A8444978229A
:201280001BF002F80CA804A9002204231BF0B4F910A84FF4FC610A221BF0EAF80CA810A909
:2012A0001BF08CF9014608A81BF0CEF808A8FFF7EBFE044608A81BF03FF810A81BF03CF814
:2012C0000CA81BF039F8002C59D014A804A90B220D231BF091F914A8FFF7D6FE074618A8DB
:2012E00004A90E2210231BF087F918A8FFF7CCFE06461CA804A9112213231BF07DF91CA868
:20130000FFF7C2FE054620A804A908220A231BF073F920A8FFF7B8FE044624A804A905222B
:2013200007231BF069F924A8FFF7AEFE804628A804A9002204231BF05FF928A8FFF7A4FE51
:20134000CDF800800190384631462A46234613F04DFF28A81AF0F0FF24A81AF0EDFF20A847
:201360001AF0EAFF1CA81AF0E7FF18A81AF0E4FF14A81AF0E1FF13F0B3FE19F06BFE04A8A1
:201380001AF0DAFF2CB0BDE8F08100BFA83A0020B03B002070B50A4C04F5C076094D218803
:2013A0002B681B682846090A98472B6834F8021B1B682846C9B29847B442F0D170BD00BFED
:2013C000CC9CFF1FB03B002008B5034803681B68024A1178984708BDB03B00206C36002040
:2013E00008B5024B18781AF043FD08BD8336002008B5034803681B68024A1178984708BDFC
:20140000B03B00202237002008B5034803681B68D621984708BD00BFB03B002048F680002F
:20142000C0F20300D0F800D0D0F804F0704700BF1D4B4FF400721A601C490A601C4A1168E8
:2014400021F4802111604FF400021A604FF080721A604FF000721A604FF080621A604FF0F6
:2014600000621A60134A136813F0800FFBD1114B1B6813F0400F04D00E4B1A6842F0400206
:201480001A600D4B1B6813F0800F04D00A4B1A6842F080021A60A022084B1A700023084A78
:2014A000136004321360704788E100E088E200E03480044024B00B4000B00B40004006402E
:2014C0004480044008B5002019F088FAAE2808D10020014619F098FA72B6FFF7A9FFFFF72F
:2014E0009DFF08BD08B50020AE2119F08DFA024A024B1A6008BD00BF0400FA050CED00E0DC
:2015000008B5802019F06AFA022814D80C4B1870012805D10B480C49002211F02BFB06E036
:20152000022804D107480949002211F023FB0022074B1A7008BD0022014B1A7008BD00BF8B
:201540002B370020BC9CFF1FE0930400804F1200709BFF1F08B50420012119F0BDFD042028
:20156000002119F087FD0021024B1970022019F0B3FD08BD6C36002008B50620012119F056
:20158000ABFD0920012119F0A7FD0A20012119F0A3FD0F20012119F09FFD1420012119F061
:2015A0009BFD1520012119F097FD0620012119F061FD0920012119F05DFD0A20012119F0ED
:2015C00059FD0F20012119F055FD1420012119F051FD1520012119F04DFD13F02DFB08BDC2
:2015E00030B587B00F4B1869597B002914BF032300230024009401930294039401250495A3
:201600002246234610F098FA064B18694FF47A72C0F86422597B009522462B4610F0ECF901
:2016200007B030BDC439002038B50C201AF0A4FD05460EF089FF0F4C2560284604214FF0A2
:20164000FF320EF0CFFF20680C214FF0FF320EF0A9FF206802214FF0FF320EF0B3FF20686F
:2016600002214FF0FF320EF0B5FF1720002119F033FD38BD0437002010B54FF48072184BE7
:201680001A604FF4107203F57F631A6038B3154901F58C6001F26C411422022311F02EFB67
:2016A000E8B1104C04F23C4012F07CF92046012113F02AFA20B92046002113F025FA70B1FA
:2016C000084901F23C4011F005FF40B1054B93F83C3413F0700F02D0034A044B1A6010BDD2
:2016E00014B00440EC96FF1F289BFF1FD839002008B5444B1B78012B3DD1434B1B78002BCB
:2017000028D072B6404B1B7813F0010F07D03F4B19683F4A12680A403E490A601A603A4B59
:201720001B7813F0020F07D03B4B1968384A52680A4038494A601A60334B1B7813F0040FD2
:2017400007D0364B1968324A92680A4031498A601A6062B6324BDB68B3F1384F47D0304B7D
:20176000304A1A604FF03842DA604FF078421A612D4A1A603BE0244B1B78002B28D072B6B5
:20178000214B1B7813F0010F07D0204B1968204A12680A401F490A601A601B4B1B7813F0FE
:2017A000020F07D01C4B1968194A52680A4019494A601A60144B1B7813F0040F07D0174B2B
:2017C0001968134A92680A4012498A601A6062B6134BDA68154B9A4209D0114B114A1A602A
:2017E000124ADA6002F180421A610F4A1A60104B1B7813B10020FFF73FFF0F20002119F0F1
:2018000039FC08BD4C9CFF1FF839002080E100E0E0390020EC39002084E100E088E100E02A
:2018200000C0024001401F0000001F80000001BAAC3900204FF41072034B1A604FF4807225
:2018400003F57F631A60704714B00440F8B512480FF018FD84B20020FFF70EFF9CB10E4F57
:201860000E4E402CB4BF25464025EDB2384629460FF028FD014630462A4612F0FBF9641B0B
:20188000A4B2002CEDD1054812F08CF8FFF7D2FF01480FF03DFCF8BD3C390020C896FF1F27
:2018A00008B50122114B1A60114B1B78C3B113F0010F03D00F4B1A680F4B1A600C4B1B788F
:2018C00013F0020F03D00B4B5A680C4B1A60084B1B7813F0040F03D0064B9A68084B1A6049
:2018E000084B1B780BB1FFF7A5FF08BD84F00F40F8390020EC39002000E100E004E100E008
:2019000008E100E0AC39002010B50120FFF7B4FE054C204613F0AAF82479640804FB00F413
:20192000FFF788FF204610BDEC96FF1F10B50020FFF7A2FE064811F0D3FA0446054B1860AE
:20194000FFF778FF04F2FF70C0F3CF2010BD00BF8C9CFF1F749CFF1F30B58DB0FFF7E6FF16
:20196000044620B9174818491AF05CFD28E0FFF7CBFF810A04A80A221AF07AFD684604A91A
:201980001AF044FD684611491AF0EEFD054608A8611E0A221AF06CFD284608A91AF0DAFDE6
:2019A0000B491AF0E1FD014606481AF025FD08A81AF0C2FC68461AF0BFFC04A81AF0BCFCD1
:2019C0000DB030BD103700202CD0020034D0020038D00200F8B50020FFF74EFE974C204690
:2019E00004F109011422022311F088F9204611F077FA934B186000F2FF73C3F3CF23914AF6
:201A00001380102B03D802218F4A11701FE0202B03D804218C4A117019E0402B03D8082197
:201A2000894A117013E0802B03D81021864A11700DE0B3F5806F03D82021834A117006E083
:201A4000B3F5004F94BF402180217F4A1170B3F5807F8CBF3F2120217C4A1170102B03D800
:201A600002227B4B1A7027E0202B03D80422784B1A7021E0802B03D80822754B1A701BE05C
:201A8000B3F5FC7F03D81022714B1A7014E0B3F57C7F03D820226E4B1A700DE0B3F5FC6FD9
:201AA00003D840226A4B1A7006E0B3F57C6F94BF8022FF22664B1A704FF48072654B1A6081
:201AC000614B1F78A0F58072B2FBF7F202F20111090A614B1960490001F1A104B4F5807FE0
:201AE00016D84FF480731C1B04F180005B4B186001205B4B188081345A480460213107FB8A
:201B00000212594B1A6047F6A7739A4218D91BE04D4B1F784FF4C073C21AB2FBF7F202F269
:201B200001152D0A690001F1A10403F18006A34204D34848036048480560D4E73346EBE734
:201B400001224A4B1A7006E0B2F5803F34BF04220622464B1A70FFF7FDF90120FFF7BAF9E5
:201B60004349EB230B7000234B7090238B704B1E073120220133DA708B42FBD13C4C00271B
:201B8000E77202232373304B1B786373344B1B88E3810223237423694FF4007262F317233B
:201BA0002361F82363752C4E3368E382274B1B782383274B1B786383284D2B68E3612A4BDD
:201BC0001B682362802384F82430292384F82630FFF750FAC4F82700264B03CBC4F82B0023
:201BE000C4F82F1019889B78A4F8331084F83530214B03CBC4F83600C4F83A102868FFF7BE
:201C00007DF9184D2B68134A11681846C91AFFF713FA3846FFF75EF94FF6F87323804FF6D9
:201C2000FF7363802868FFF769F930682B681844FFF764F9FFF7FEFDF8BD00BF8C9CFF1FE2
:201C4000749CFF1F609CFF1F859CFF1F2D370020B89CFF1F689CFF1F649BFF1F7C9CFF1F92
:201C6000B296FF1F6C9BFF1F6C9CFF1FB096FF1F383700206487FF1F7887FF1F10B5054C84
:201C800020460FF06FF920460FF048F9003018BF012010BD9C9CFF1F70B584B0294B1A6837
:201CA0000092009C1B680193019D2D1B254EFFF7E5FF40B3B5F57A7F2EDD24E0224B1B7807
:201CC000B72B03D1B422204B1A7038E01F4B1B7813F0FF0F08D11C4B1B78B62B21D103E0D4
:201CE000FFF7CCFF0028FBD1184B1B78DBB2022B25D1154B1B78B52B1AD120E0FFF7BEFF18
:201D00000028FBD11BE00F4A12680392039B1B1BB3F57A7FD2DBD9E733680293029D2D1B73
:201D2000C5E7B522084B1A700222084B1A70D7E7B622054B1A700022044B1A70DEE704B05E
:201D400070BD00BFA83A00207087FF1F2137002070B584B02D4B1B7813F0FF0F23D12C4B28
:201D60001B7813F0FF0F1ED12A4B1B7813F0FF0F19D1294B1B7813F0FF0F14D1274B1B78CB
:201D800013F0FF0F0FD128E0FFF778FF002831D0B4F57A7F32DD2DE002221F4B1A7002E0FC
:201DA00001221B4B1A701A4B1B78DBB2022B07D10322174B1A70FFF761FF0028FBD122E029
:201DC000134B1B78DBB2032B1DD10122104B1A70FFF754FF0028FBD115E0114C23680193B3
:201DE000019D0A2019F0ECF923680293029C641B0B4EC9E7B4F57A7FCEDBD1E733680393B3
:201E0000039C641BC0E704B070BD00BFCD95FF1F21370020649CFF1FCE95FF1F84360020EC
:201E2000A83A002008B51620002119F023F908BD08B51620012119F01DF908BD08B51620B6
:201E400019F03CF9003018BF012008BD034B1B7843FA00F000F00100704700BF9087FF1FAD
:201E6000044B012202FA00F0197821EA00021A70704700BF9087FF1F10B5694C23685B6869
:201E8000204668491822984720461AF07DF90020FFF7DCFF48B123685B68204662491022B1
:201EA000984720461AF070F909E05D4C23685B6820465E491422984720461AF065F9012079
:201EC000FFF7C4FF50B1564C23685B68204658490C22984720461AF057F909E0504C236874
:201EE0005B68204653491022984720461AF04CF90220FFF7ABFF50B1494C23685B6820464B
:201F00004D491222984720461AF03EF909E0444C23685B68204649491622984720461AF02B
:201F200033F90320FFF792FF50B13D4C23685B68204643491122984720461AF025F909E078
:201F4000374C23685B6820463E491522984720461AF01AF90420FFF779FF50B1304C236890
:201F60005B68204638490C22984720461AF00CF909E02B4C23685B68204634491022984793
:201F800020461AF001F90520FFF760FF50B1244C23685B6820462E491222984720461AF03E
:201FA000F3F809E01E4C23685B68204629491622984720461AF0E8F80620FFF747FF50B1F3
:201FC000174C23685B68204623491222984720461AF0DAF809E0124C23685B6820461F49C6
:201FE0001622984720461AF0CFF80720FFF72EFF50B10B4C23685B682046194910229847CA
:2020000020461AF0C1F810BD054C23685B68204614491422984720461AF0B6F810BD00BFA9
:20202000B03B00203CD0020058D002006CD0020084D0020094D00200A8D00200BCD002005B
:20204000D4D00200E8D0020000D1020010D1020024D1020038D1020050D1020064D102000E
:202060007CD1020090D1020008B5114B1B787BB11048872117F026FD0F4B93F824301BB1A7
:2020800001220D4B1A7408BD01220B4B5A7008BD08482D2117F016FD074B93F824301BB1B5
:2020A0000022054B1A7408BD0022034B5A7008BDAC9CFF1F7C9BFF1FD095FF1F10B582B047
:2020C000094C2046012117F027FEFFF7CDFF074B2360812018F082FCC82809D181200021AD
:2020E00018F092FC97E200BF7C9BFF1F4C9EFF1FAC4C0A230093204619461A4614F084FB75
:2021000020464FF4784115F075FBA74B1B78002B28D072B6A44B1B7813F0010F07D0A34BBE
:202120001968A34A12680A40A2490A601A609E4B1B7813F0020F07D09F4B19689C4A52682C
:202140000A409C494A601A60974B1B7813F0040F07D09A4B1968964A92680A4095498A6078
:202160001A6062B6964BDB68B3F1384F0AD0944B944A1A604FF03842DA604FF078421A6106
:20218000914A1A60874B93F8CF301B0443F0004343F02A038A4A5363D36A13F0F00F18BFF9
:2021A000916B03F47043B3F5405FF5D87D4B93F8CE301B0443F0104343F00A03804A5363AF
:2021C000D36A13F0F00F18BF916B03F47043B3F5405FF5D8734B93F8CE301B0443F0104343
:2021E00043F00A03764A5363D36A13F0F00F18BF916B03F47043B3F5405FF5D8694B93F81A
:20220000CF301B0443F0004343F02B036C4A5363D36A13F0F00F18BF916B03F47043B3F5F9
:20222000405FF5D85F4B93F8CE301B0443F0104343F00A03624A5363D36A13F0F00F18BFA2
:20224000916B03F47043B3F5405FF5D8554B93F8CE301B0443F0104343F00A03584A53635E
:20226000D36A13F0F00F18BF916B03F47043B3F5405FF5D84B4B93F8CF301B0443F00043D9
:2022800043F02E034E4A5363D36A13F0F00F18BF916B03F47043B3F5405FF5D8484AD36AED
:2022A000002BFCDA464B9A6B3E4A92F8CE20120442F000425A631A464FF2F001D36A13F06E
:2022C000F00F18BF906B0B42F8D1364A92F8CE10090441F000413A4B596392F8CE100904FA
:2022E00041F00041596392F8CE20120442F000625A631A46D36A13F0805FFBD0304B4FF0CD
:202300008052DA629A6B996B986B9A6B264B1B78C3B113F0010F03D0264B1C682B4B1C6059
:20232000214B1B7813F0020F03D0224B5C68284B1C601D4B1B7813F0040F03D01D4B9C6847
:20234000244B1C6001F0F80100F0FC03DB0043EA0123C2F3C40213431BB213F5006F00F088
:202360005A814FF47A7018F02BFF0E4C0A230093204619461A4614F047FA20464FF478413D
:2023800015F038FA084B1B78002B43D072B6064B1B7813F0010F22D0044B1968044A126839
:2023A0000A4019E07C9BFF1FF839002080E100E0E0390020EC39002084E100E088E100E007
:2023C00000C0024001401F0000001F8000E100E004E100E008E100E090490A601A60904B15
:2023E0001B7813F0020F07D08E4B19688E4A52680A408A494A601A60894B1B7813F0040FB5
:2024000007D08A4B1968884A92680A4083498A601A6062B6864BDB68B3F1384F0AD0844B49
:20242000844A1A604FF03842DA604FF078421A61814A1A60814B93F8CF301B0443F00043BD
:2024400043F02A037A4A5363D36A13F0F00F18BF916B03F47043B3F5405FF5D8774B93F885
:20246000CE301B0443F0104343F00A03704A5363D36A13F0F00F18BF916B03F47043B3F5A5
:20248000405FF5D86D4B93F8CE301B0443F0104343F00A03664A5363D36A13F0F00F18BF2E
:2024A000916B03F47043B3F5405FF5D8634B93F8CF301B0443F0004343F02B035C4A5363D8
:2024C000D36A13F0F00F18BF916B03F47043B3F5405FF5D8594B93F8CE301B0443F010435A
:2024E00043F00A03524A5363D36A13F0F00F18BF916B03F47043B3F5405FF5D84F4B93F855
:20250000CE301B0443F0104343F00A03484A5363D36A13F0F00F18BF916B03F47043B3F52C
:20252000405FF5D8454B93F8CF301B0443F0004343F02E033E4A5363D36A13F0F00F18BFC8
:20254000916B03F47043B3F5405FF5D8384AD36A002BFCDA364B9A6B384A92F8CE2012046B
:2025600042F000425A631A464FF2F001D36A13F0F00F18BF906B0B42F8D1304A92F8CE108F
:20258000090441F000412A4B596392F8CE10090441F00041596392F8CE20120442F00062C6
:2025A0005A631A46D36A13F0805FFBD0204B4FF08052DA629A6B9A6B986B996B184B1B7855
:2025C000C3B113F0010F03D0144B1C681C4B1C60134B1B7813F0020F03D0104B5C68194B80
:2025E0001C600F4B1B7813F0040F03D00B4B9C68154B1C6002F0F80200F0FC03DB0043EA70
:202600000222C1F3C40313431BB213F5006F02D00120FFF725FC02B010BD00BFEC390020F4
:20262000F839002084E100E0E039002088E100E000C0024001401F0000001F807C9BFF1F4C
:2026400000E100E004E100E008E100E038B5002425462046294618F0D7F90134B4F5006FB5
:20266000F7D138BD10B5992018F0B8F90446431EDBB2022B00F28480012830D17E2018F03B
:20268000ADF9C8282DD10BE0902018F0A7F9C82868D129E0982018F0A1F9C82862D142E092
:2026A0007C2018F09BF9374B1870792018F096F9354B18707A2018F091F9344B18707B20D2
:2026C00018F08CF9324B18707D2018F087F91DF021FC30491DF026FD2F4B186010BD022887
:2026E000D2D0032C3ED1D5E78E2018F077F9254B18708B2018F072F9234B18708C2018F058
:202700006DF9224B18708D2018F068F9204B18708F2018F063F91DF0FDFB1E491DF002FDCA
:202720001D4B186010BD942018F058F9154B1870912018F053F9144B1870922018F04EF90A
:20274000124B1870932018F049F9114B1870952018F044F91DF0DEFB0E491DF0E3FC0E4B37
:20276000186010BD0023074A1370094A1370064A1370064A13704FF07C52074B1A6010BDFB
:202780000024AEE77E360020869CFF1F283700205C9BFF1F0000C8424C34002008B5114B15
:2027A0001B78022B05D110484FF4784114F0EAFF08BD012B04D10C48002114F0E3FF08BD5C
:2027C000032B05D108484FF4806114F0DBFF08BD042B05480CBF1F214FF6FF7114F0D2FFCD
:2027E00008BD00BF233700207C9BFF1F70B582B005460E46FFF7D2FF134C20464FF0FF31B5
:2028000014F0E0FF2046114916F0ECFB4EB1002300932046294642F20E72AA2316F014FA09
:2028200008E0002300930848294642F20E72462316F00AFA0448064916F0D4FB4FF47A7077
:2028400018F0BEFC02B070BD7C9BFF1FF0390300D445030030B583B0054631B91848C821C4
:202860000A460B4614F072FF0FE0154C2046C8210A460B4614F078FFEA230093204606215A
:202880000A464FF49D7315F0D3FB0D4C20460D4916F0A8FB2046C8210A460B4614F080FF91
:2028A0002046002114F06EFF002300932046294642F20E726E2316F0C7F903B030BD00BF2B
:2028C0007C9BFF1FD4450300F8B5334C206817214FF0FF320DF08EFE0546206800210DF0D1
:2028E00069FE064628461DF015FB4FF07F511DF065FB2A491DF062FB054630461DF006FB72
:20290000014628461DF00EFC0546206828214FF0FF320DF06FFE0746206800210DF04AFEBA
:20292000064638461DF0F6FA4FF07F511DF046FB1A491DF043FB044630461DF0E7FA0146D0
:2029400020461DF0EFFB0446284615491DF0CAFC88B120464FF07E511DF0D8FC58B1114841
:202960000021FFF777FF4FF47A7018F029FC0520FFF776FA05E020464FF07E511DF0C6FCBD
:2029800020B1284608491DF011FA05462846FDF7F1FF064B1870F8BD043700203333534010
:2029A000000080BFA8D10200CDCC4C3D2237002010B51E4C20464FF4E1310EF0D3FB2046A6
:2029C0005F210EF029FC20460EF054FC10BB4FF47A7018F0F5FB20460EF08AFB20464FF41E
:2029E000E1310EF0BFFB20465F210EF015FC4FF47A7018F0E5FB20460EF03CFC50B90C480A
:202A00000021FFF727FF4FF47A7018F0D9FB0220FFF726FA054C20460EF07AFB20460EF0AA
:202A2000DFFB10B10020FEF76FF810BD3C390020C8D1020070B582B0012002A901F8010D58
:202A4000FEF77AF964240A2501260EE030460DF10701FEF771F9631E13F0FF0405D10848BA
:202A60000021FFF7F7FE002008E0284618F0A8FB9DF80720002AE9D0024B186802B070BDDE
:202A8000E8D102003037002070B582B002A9012301F8013D0020FEF74FF964240A2500265D
:202AA0000EE030460DF10701FEF746F9631E13F0FF0405D108480021FFF7CCFE002008E0E2
:202AC000284618F07DFB9DF80720002AE9D0034B186802B070BD00BF0CD20200609BFF1F04
:202AE000F0B583B00B271E4C2A260025204631460FF066F923681B68204629469847236865
:202B00001B6820460421984723681B6820460221984723681B682046422198472169627B35
:202B20000095204601230FF025FC90B10A2018F047FB013F17F0FF07D8D10A480021FFF742
:202B400089FE4FF47A7018F03BFB0620FFF788F903E04FF4FA6018F033FB03B0F0BD00BF11
:202B6000C439002030D2020070B58CB0344C20462A210FF025F923681B6820460021984711
:202B800023681B6820460421984723681B6820464821984723681B6820461C2198472169E7
:202BA000627B00230093204601230FF0E3FB58B124480021FFF74EFE4FF47A7018F000FB13
:202BC0000620FFF74DF938E01D482A210FF0F8F802242046FEF760F910F0010FF9D1062002
:202BE000FEF75AF90346164C2069617B01250095002601962A220FF0D1FB204603A920229A
:202C000019F02CFB2169627B009620462B460FF0B1FB03A80C491EF0FFFD10B10B4B1E7056
:202C20000BE003A80A491EF0F7FD18B10122074B1A7002E00222054B1A700CB070BD00BF59
:202C4000C43900204CD2020070D202004C9CFF1F78D202002DE9F04F83B04FF47A7018F0E4
:202C6000AFFAFFF781FF3F4B1B78022B05D001223D4B1A70FFF734FF02E002223A4B1A70A3
:202C80003A4B1B680093009A394B1A600023394A13700021384A11600121384A1170384A1D
:202CA0001370FEF725FDDFF8E8C04FF0010BDE46344D354B05F1A304DFF8D8A0DFF8AC908C
:202CC000DFF8AC80CCF800E02A78196841F4806119604FF00041D9625A6329464FF000472E
:202CE0004878DA6A002A22DBFBE7DA6A002A2ADBFBE7D9F8002001920199D8F800208A1AC0
:202D0000B2F57A7FDED3FEF7CBFD1E4B1B7803F00F030F2B22D11D480021FFF79BFD4FF420
:202D20007A7018F04DFA0720FFF79AF816E09A6B1E6846F480661E60DF62586301F8012B6B
:202D4000A142CDD1D1E79A6B85F8A320CAF800B02A7802F00F020F2AD5D1CAE703B0BDE8F6
:202D6000F08F00BF4C9CFF1F83360020A83A0020809CFF1F989CFF1FC895FF1FAD9CFF1FC6
:202D8000699BFF1F0C96FF1F00C0024080D2020088F00F4084F00F4010B52848284919F0C2
:202DA00041FB284B1B78002B44D00020FEF764FC254901F58C6001F26C41142202230FF0D3
:202DC0009DFF00B3204C04F23C4010F0EBFD2046012111F099FE20B92046002111F094FECB
:202DE00088B1194901F23C4010F074FB034650B1154A92F83C2412F0700F1DBF1349144AB0
:202E0000116000235BB913480021FFF723FD4FF47A7018F0D5F90420FFF722F806E00E4904
:202E200008460931142202230FF068FFFEF702FDFEF792FD094A0A4B1A6010BD103700207B
:202E40009CD20200AC390020EC96FF1F289BFF1FD8390020A8D202008C9CFF1F3907000049
:202E6000DC39002038B513480121FFF7F3FC4FF47A7018F0A5F9FEF7D5FF0F4C04F11005CD
:202E800094F824301BB1284613F05CFA02E0204613F0AAFC0028F3D0074B1B6A0121197061
:202EA0000648FFF7D7FCFEF7C3FF4FF47A7018F087F938BDC0D20200D095FF1FE4D20200CB
:202EC00010B50F480FF02EFE98B10E4B1B7893B9002010BDFFF7C6FF09480FF041FE0120D2
:202EE00010BD0024084B1C7005480FF039FE204610BD002010BD044B1B78002BF1D1E9E7C0
:202F0000BC9CFF1F2B370020709BFF1F10B50446124B1B7883B10420002118F0ABF800224B
:202F20000E4B1A70C4B10E480121FFF793FC4FF47A7018F045F910BD0420012118F09AF81C
:202F40000122064B1A703CB106481146FFF782FC4FF47A7018F034F910BD00BF6C360020BD
:202F6000F8D202000CD3020000B583B0104812F055F912F035F9B0F5FC6F15DA0D4800216F
:202F8000FFF768FC40F2DC5018F01AF9012300934FF4FC62019200200146024612F026F9A3
:202FA00012F09EF818F056F803B05DF804FB00BF8907000020D3020010B51F4B1B78002BEB
:202FC00037D10020FEF758FB1C4901F58C6001F26C41142202230FF091FE00B3174C04F2A5
:202FE0003C4010F0DFFC2046012111F08DFD20B92046002111F088FD88B1104901F23C4080
:2030000010F068FA034650B10C4A92F83C2412F0700F1DBF0A490B4A1160002353B90A48CD
:203020000021FFF717FC4FF47A7018F0C9F8002300E00123184610BDAC390020EC96FF1F79
:20304000289BFF1FD839002044D3020010B582B00520002118F040F81548164B0362103065
:20306000802113F099F920B10122114B83F824201BE00F4C204613F0F3F994F82430A3B924
:203080006846214613F08AFBBDF9003013B9BDF9023053B108480021FFF7DCFB4FF47A708A
:2030A00018F08EF80320FEF7DBFE02B010BD00BFD095FF1F709BFF1F5CD3020008B5FA209F
:2030C00017F08CFCD6283BD01E4B1B7833B9FFF7BDFA1D480021FFF7BDFBFEE7D52823D8B2
:2030E000C72806D8FFF7B2FA17480021FFF7B2FBFEE7D4280FD89920002117F085FC7E2076
:20310000002117F081FC9020002117F07DFC9820002117F079FC0D480021FFF79BFB4FF41F
:203120007A7018F04DF807E009480021FFF792FB4FF47A7018F044F8FA20D62117F064FC93
:2031400008BD00BFAC3900207CD30200A0D30200B8D3020030B583B0054631B11A48C82103
:203160000A460B4614F0F2FA0FE0174C2046C8210A460B4614F0F8FAEA2300932046062159
:203180000A464FF49D7314F053FF0F4C20460F4915F028FF2046C8210A460B4614F000FB02
:2031A0002046002114F0EEFA002300932046294642F20E72192315F047FD2046044915F020
:2031C00011FF03B030BD00BF7C9BFF1FF0390300D445030030B583B0894C2046C8210A4677
:2031E0000B4614F0B3FA2046864915F0FBFE2046C8210A460B4614F0D3FA20461F2114F02F
:20320000C1FA0025009520467F4942F20E720A2315F01AFD20467D4915F0E4FE0095204600
:203220007B4942F20E72DC2315F00EFD2046294614F0A8FA0095204676493222134615F020
:2032400003FD0095204674493222462315F0FCFC00952046714932225A2315F0F5FC0095EB
:2032600020466F4932226E2315F0EEFC009520466C493222822315F0E7FC009520466A491D
:203280003222962315F0E0FC0095204667493222AA2315F0D9FC0095204665493222BE23BC
:2032A00015F0D2FC2846FEF7D1FD38B1009520466049DC22322315F0C7FC09E000240094C1
:2032C0004F485D49DC22322315F0BEFC5B4B1C700120FEF7BBFD40B10023009348485549CA
:2032E000DC22462315F0B0FC07E00023009344485149DC22462315F0A7FC0220FEF7A6FD2A
:2033000040B1002300933E484A49DC225A2315F09BFC09E00024009439484749DC225A23A9
:2033200015F092FC464B1C700320FEF78FFD40B10023009332483F49DC226E2315F084FC7C
:2033400007E0002300932E483B49DC226E2315F07BFC0420FEF77AFD40B100230093284824
:203360003449DC22822315F06FFC07E00023009323483149DC22822315F066FC0520FEF717
:2033800065FD40B1002300931D482A49DC22962315F05AFC07E00023009319482649DC22CF
:2033A000962315F051FC0620FEF750FD40B10023009313481F49DC22AA2315F045FC07E038
:2033C000002300930E481C49DC22AA2315F03CFC0720FEF73BFD40B10023009308481549CB
:2033E000DC22BE2315F030FC07E00023009304481149DC22BE2315F027FC03B030BD00BF14
:203400007C9BFF1FF0390300D0D30200D4450300E0D3020004D4020014D4020024D4020017
:2034200034D4020044D4020054D4020064D4020074D4020084D40200CCD002008A9CFF1F7E
:20344000549CFF1F70B5174B1B78FF2B28D0FEF713FDFFF7BFFE144C04F1100594F8243020
:203460001BB1284612F06EFF02E0204613F0BCF90028F3D00C4B1B6A01221A700A4C04F1E4
:203480001006154694F824301BB1304612F05AFF02E0204613F0A8F910B1236A1D70F1E79F
:2034A00070BD00BF9087FF1FD095FF1F08B5104B1B7863B90F4B1B7823B90F480021FFF76A
:2034C00095F911E00D480021FFF790F90CE0012B04D10B480021FFF789F905E0022B03D1B9
:2034E00008480021FFF782F90322074B1A7008BD36370020703600208CD40200A0D40200F9
:20350000B4D40200C8D40200CE95FF1F30B583B00546104C2046104915F064FD2046002197
:2035200014F030F92046C8210A460B4614F038F902230093302301932046294642F20E7211
:20354000502315F057FC2046044915F04BFD03B030BD00BF7C9BFF1FF0390300D4450300C4
:2035600070B506460D4608460D491CF027FD1CF0EBFE0C4C84FB0034C217C2EB641464222F
:2035800002FB140428461CF0DFFE02463046064984EAE473A3EBE4731DF07CFD70BD00BF96
:2035A0000000C8421F85EB51DCD4020070B584B0244E2548314617F027F9244C204631464C
:2035C00015F010FD2046FF210A460B4614F0BEF820461F4915F006FD2046FF210A460B46FB
:2035E00014F0DEF82046002114F0CCF895230093184B0193184B029320465A2123228C2393
:2036000013F0AEFB002500952046144942F20E72C22315F019FB2046314615F0E3FC009579
:2036200020460F4942F20E720A2315F00DFB009520460C4942F20E72DC2315F005FB04B022
:2036400070BD00BFD4450300683400207C9BFF1FF03903004C600200FCC60200E4D4020019
:20366000ECD40200FCD4020000B58BB00D4B1B680293029A0C4B1B68D21A0C4BA3FB0212EB
:20368000920903A80A49C2F13C021DF003FD00230093084803A92D22C82315F0D5FA0BB018
:2036A0005DF804FBA83A0020809CFF1FD34D62101CD502007C9BFF1F10B582B00020FFF7B3
:2036C00003F9124B19784BB2B3F1FF3F14D0104C0323009320230193204649B24FF48C72AF
:2036E000002315F087FB00230093204609494FF49B7215F0A9FA06E0002300930448064983
:20370000F02215F0A1FA02B010BD00BF223700207C9BFF1FACE4020038D502002DE9F04123
:2037200082B03A4B1B79002B36D011F045FD0146364D4FF00208CDF8008030270197284615
:203740000522002315F056FB314E00240094284631461722234615F077FA11F037FD014619
:20376000CDF80080019728461B22234615F042FB0094284631462D22234615F065FA11F080
:203780002FFD0146042300932023019328463122234615F02FFB35E011F00EFD01461B4DFC
:2037A0004FF00208CDF800803027019728460522002315F01FFB164E0024009428463146B4
:2037C0001422234615F040FA11F000FD0146CDF80080019728461B22234615F00BFB009436
:2037E000284631462A22234615F02EFA11F0F8FC014604230093202301932846312223460B
:2038000015F0F8FA02B0BDE8F08100BF7C9BFF1F54E4020030B58BB0204B1B799BB1204BE5
:203820001B78002B37D002A81E4918F0EFFD002300931A4802A9CF22E42315F0BBFA02A89F
:2038400018F07AFD27E0164B1B78ABB9134C0025009520461449DC22E42315F0F5F9009521
:20386000202301932046D6214FF49172E42315F0C1FA0B4B1B7873B106A80A4918F0C6FD2E
:2038800000230093054806A9E622E42315F092FA06A818F051FD0BB030BD00BF7C9BFF1F36
:2038A000AC3900201037002044D502002DE9F04182B0384B1B79002B34D011F05FFC01461F
:2038C000344C022600963025019520460522E42315F090FA304F4FF00008CDF8008020462B
:2038E00039461722E42315F0AFF911F051FC01460096019520461B22E42315F07BFACDF8B2
:203900000080204639462D22E42315F09DF911F049FC01460096019520463122E42315F0D3
:2039200069FA33E011F02AFC01461A4C022600963025019520460522E42315F05BFA164F41
:203940004FF00008CDF80080204639461422E42315F07AF911F01CFC01460096019520464F
:203960001B22E42315F046FACDF80080204639462A22E42315F068F911F014FC01460096ED
:20398000019520463122E42315F034FA02B0BDE8F08100BF7C9BFF1F50D5020030B583B0A3
:2039A000194C204678210A460B4613F0DDFEEA230093204606210A464FF49D7314F038FB1D
:2039C0002046C8210A460B4613F0CEFEB42500952046062124224FF49D7313F051F82046E2
:2039E000002113F0CFFE2046062124224FF49D7314F0CEF9204606212A464FF49D7314F091
:203A0000C7F903B030BD00BF7C9BFF1FF0B585B0264C204616F0F0FC2046254916F0F4FEE2
:203A20004D270097234B0193002502950126039620460F212D22262316F0F8FA00971E4BD7
:203A4000019302950396204640F20B112D22262316F0ECFA28230093184B01930295039566
:203A600020460F21BC22782316F0E0FA23230093134B01930295039520465F21842282232C
:203A800016F0D4FA204616F093FC0E4C20461F2113F078FE6F23009320464121392240F264
:203AA000011314F075FC05B0F0BD00BF68340020F039030054D5020058D502005CD50200E7
:203AC000B8D002007C9BFF1F30B583B005460D4C20460D4915F086FA204678210A460B468A
:203AE00013F05EFE20464FF6FF7113F04BFE002300932046294642F20E720E2315F0A4F8EF
:203B000003B030BD7C9BFF1FF039030030B583B00546114C20464FF6FF7113F033FE6F2303
:203B20000093204642213A2240F2011312F0A8FF20464FF6FF7113F045FE20461F2113F0D4
:203B400021FE002300932046294642F20E724D2315F07AF803B030BD7C9BFF1FF0B585B071
:203B6000002849D1FFF71AFF3748FFF7ADFF374C2046002113F006FE2046C8210A460B46D2
:203B800013F00EFE2046324915F02CFA002500952046304942F20E723F2315F055F8009574
:203BA00020462D4942F20E72602315F04DF82B4E304616F021FC2A4F3046394616F024FE00
:203BC00028230093274B01930295039530465A21BC228C2316F02AFA304616F0E9FB204664
:203BE000394615F0FFF9009520461F4942F20E728C2315F029F825E0144C2046C8210A4659
:203C00000B4613F0A3FD2046154915F0EBF92046C8210A460B4613F0C3FD2046002113F0C6
:203C2000B1FD002500952046074942F20E72642315F00AF8009520460B4942F20E728C2372
:203C400015F002F805B0F0BD64D502007C9BFF1FD445030074D5020094D502006834002005
:203C6000F0390300B8D50200C0D5020070B584B0FFF794FE3448FFF727FF344D2846002169
:203C800013F080FD324E2846314615F0ABF92846C8210A460B4613F083FD002400942846F5
:203CA0002C4942F20E72422314F0CEFF28462A4915F098F900942846284942F20E72C9231B
:203CC00014F0C2FF264D284616F096FB2846314616F09AFD37260096224B01930294039404
:203CE0002846A5216A228C2316F0A0F900961E4B01930294039428460F216A228C2316F017
:203D000095F9284616F054FB184C04F1100594F824301BB1284612F015FB02E0204612F06E
:203D200063FD0028F3D0236A012119700C48002216F092FB10B10128E9D101E0012000E071
:203D4000002004B070BD00BFCCD502007C9BFF1FF0390300DCD50200D4450300E8D5020011
:203D6000683400200CD6020010D60200D095FF1F08B5032803D8DFE800F00A040608064854
:203D800006E0064804E0064802E0064800E00648FFF7BCFE08BD00BF74EB020020D60200D2
:203DA0002CD6020038D6020014D6020008B5032803D8DFE800F00A040608064806E00648EB
:203DC00004E0064802E0064800E00648FFF79EFE08BD00BF74EB020020D602002CD60200E0
:203DE00038D6020044D6020008B5042804D8DFE800F00D0507090B00064808E0064806E084
:203E0000064804E0064802E0064800E00648FFF77DFE08BD74EB020050D6020058D60200D5
:203E20005CD6020064D6020048D6020070B5264B1B78022B04D0012B14BF0026042600E099
:203E40000226FFF7ABFD2148FFF73EFEFFF7DEFD3046FFF7C9FF1E4C04F1100594F82430A8
:203E60001BB1284612F06EFA02E0204612F0BCFC0028F3D0236A012119701648002216F0F3
:203E8000EBFA032807D1144B1E708A20314616F0BBFD012070BD022814D018B96EB1013EE3
:203EA000F6B20BE0012809D1032E02D80136F6B204E0042E08BF002600E004263046FFF709
:203EC00093FFCBE7002070BD823600206CD60200D095FF1F68340020F895FF1F08B5122854
:203EE0000BD8DFE800F0300C0E10121416181A1C1E20222426282A2C2E00154824E0154830
:203F000022E0154820E015481EE015481CE015481AE0154818E0154816E0154814E01548E1
:203F200012E0154810E015480EE015480CE015480AE0154808E0154806E0154804E0154841
:203F400002E0154800E01548FFF7E0FD08BD00BF74EB020084D6020090D602009CD60200F5
:203F6000A4D60200B0D60200BCD60200C8D60200D0D60200DCD60200E4D60200F0D6020029
:203F8000F8D6020000D7020008D7020010D7020018D7020020D702002CD702007CD602006B
:203FA00070B584B0FFF7FAFC4548FFF78DFD454D284616F021FA2846434916F025FC7A26CD
:203FC0000096424B019300240294039428460F212D225A2316F02AF800963D4B01930294FF
:203FE0000394284673212D225A2316F01FF80096384B0193029403942846D7212D225A2333
:2040000016F014F828230093334B01930294039428460F21BC22782316F008F8284616F0E0
:20402000C7F92E4C04F1100594F824301BB1284612F088F902E0204612F0D6FB0028F3D099
:20404000236A012119701F48002216F005FA70B923480121FEF7FEFB0020FCF755FD002170
:20406000204B1970712016F0CFFC012025E001280FD11B480121FEF7EDFB2220FCF744FDE3
:204080000124184B1C707120214616F0BDFC204613E002280ED112480121FEF7DBFB22206A
:2040A000FCF732FD02210F4B1970712016F0ACFC012002E00328B7D1002004B070BD00BF23
:2040C00034D7020068340020D445030040D7020048D7020050D702005CD50200D095FF1FE2
:2040E0005CD702003637002008B5092868D8DFE800F0050E172029323B444E5C384B187838
:20410000384B394A00280CBF1046184665E0374B1878374B374A00280CBF104618465CE0B5
:20412000354B1878354B364A00280CBF1046184653E0344B1878344B344A00280CBF104640
:2041400018464AE0324B1878324B334A00280CBF1046184641E0314B1878314B314A0028DD
:204160000CBF1046184638E02F4B18782F4B304A00280CBF104618462FE02E4B1B78022BBB
:2041800020D02D4A2D48012B08BF104625E02C4B1B78012B18D0022B18D0032B18D0294A39
:2041A0002948042B08BF104617E0284B1B788BB1012B11D0264A2748022B08BF10460CE0E7
:2041C00025480AE0254808E0254806E0254804E0254802E0254800E02548FFF797FC08BD38
:2041E000BD96FF1FD4D702006CD7020008370020E0D7020078D70200789CFF1FE8D7020000
:2042000084D702008A9CFF1FF0D7020090D70200689BFF1FF8D702009CD70200743600209A
:2042200000D80200A4D702002C3700200CD80200B0D70200B09CFF1FBCD7020024D8020038
:204240002337002048D802003CD8020029370020DCD602006CD8020074EB020018D80200DF
:2042600030D80200C8D7020054D8020060D802009CD60200F0B585B00546864C2046002139
:2042800013F080FAEB230093204605210A4640F23B1313F0CDFEEC230093204604210A4659
:2042A0004FF49E7313F0C4FE2046C8210A460B4613F05AFAEA230093204606210A464FF4DE
:2042C0009D7313F0B5FE744816F096F8002D27D1714E50240094714B0193714B0293002714
:2042E0000397304617211C22234615F0CDFE00946C4B01936C4B02930397304678211C22ED
:20430000234615F0C1FE0094684B0193684B029303973046D9211C22234615F0B5FE53E0B1
:20432000012D27D15C4D50240094624B0193624B029300260396284617211C22234615F012
:20434000A3FE00945D4B01935D4B02930396284678211C22234615F097FE0094594B019302
:20436000594B029303962846D9211C22234615F08BFE63E0022D27D1474D50240094534B2A
:204380000193534B029300260396284617211C22234615F079FE00944E4B01934E4B0293DF
:2043A0000396284678211C22234615F06DFE00944A4B01934A4B029303962846D9211C2220
:2043C000234615F061FE39E0032D37D150230093444A0192444A0292002203922E48172111
:2043E0001C2215F051FE414B1B786BB9502300933F4A01923F4A02920022039226487821EB
:204400001C2215F041FE0CE0502300933A4A01923A4A0292002203921F4878211C2215F0FF
:2044200033FE50230093364A0192364A0292002203921948D9211C2215F026FE164D5024CE
:204440000094314B0193314B029300260396284617218422234615F017FE00942C4B01937A
:204460002C4B02930396284678218422234615F00BFE0094284B0193284B029303962846C9
:20448000D9218422234615F0FFFD284615F090FF05B0F0BD7C9BFF1F6834002080FC02003F
:2044A000E0120300AC8B02001C5D0200A00C0300F0F3020004A1020034600200F815030072
:2044C000F0150300ECAC0200D81E0300E01E0300FCA002001CBE02002CB302003C54020053
:2044E000E4AC0200600603002C5D0200363700201CC70200E8150300602B030038F6020006
:204500002025030044600200EC910200245D020040F60200D4B50200B0ED02003C600200AB
:20452000F0B583B007460E46FEF738F9234C20464FF0FF3113F046F92046214914F052FD33
:204540000025009520461F49FA220A2314F07CFB009520461C4905220A2314F075FB012FB7
:204560000ED00095204619490A226E2314F06CFB00952046164940F227126E2314F064FB1F
:204580000E4C00250095204612490522D22314F05BFB009520461049DC22D22314F054FB36
:2045A00020460E4914F01EFD00952046314642F20E720C2314F048FB03B0F0BD7C9BFF1FEE
:2045C000F039030078D8020080D8020054D5020058D5020088D8020090D80200D4450300C1
:2045E0002DE9F0418EB006465E480021FEF7B2FD5D4D2846002113F0C5F85C4F28463946EE
:2046000014F0F0FC2846C8210A460B4613F0C8F8002400942846564942F20E72422314F00D
:2046200013FB00942846534942F20E72692314F00BFB00942846504942F20E727D2314F091
:2046400003FB4E4D284615F0D7FE28464C4916F0DBF84FF03708CDF800804A4B019302941B
:20466000039428460F21A0228C2315F0DFFCCDF80080454B0193029403942846A521A02228
:204680008C2315F0D3FC284615F092FE2846394616F0BAF83D4C04F1100594F824301BB1B0
:2046A000284611F04FFE02E0204612F09DF80028F3D0236A012119703048002215F0CCFED3
:2046C000002849D132480021FEF7C4F80020FCF7D3FF304831460FF0C9F906F10E042E4B35
:2046E0001868C6F80E001B7923712C4B1B787BB100238DF814308DF8153005A825493246C7
:2047000001230FF057F918B1224831460FF0AEF9234B1868C6F80E001B792371214B1B78F5
:204720007BB100238DF814308DF8153005A81949324601230FF03EF918B1164831460FF019
:2047400095F9FDF777F818480021FEF783F84FF47A7016F035FD01E001289ED10EB0BDE836
:20476000F08100BF98D802007C9BFF1FD4450300A8D80200CCD80200E8D8020068340020A0
:20478000F03903000CD6020010D60200D095FF1F04D90200289BFF1F14D90200549CFF1FE1
:2047A0001CD902007036002024D90200F0B585B041480121FEF7CEFC404D2846002112F0DB
:2047C000E1FF3F4E2846314614F00CFC2846C8210A460B4612F0E4FF0024009428463949F6
:2047E00042F20E72422314F02FFA00942846364942F20E72692314F027FA0094284633490F
:2048000042F20E727D2314F01FFA314D284615F0F3FD28462F4915F0F7FF372700972E4BF7
:204820000193029403942846A521A0228C2315F0FDFB0097294B01930294039428460F21AB
:20484000A0228C2315F0F2FB284615F0B1FD2846314615F0D9FF224C04F11006012594F8E7
:2048600024301BB1304611F06DFD02E0204611F0BBFF10B1236A1D70F1E7194C04F1100512
:2048800094F824301BB1284611F05CFD02E0204611F0AAFF0028F3D0236A012119700C483B
:2048A000002215F0D9FD10B10128E9D101E0012000E0002005B0F0BD34D902007C9BFF1FAF
:2048C000D445030048D9020064D9020080D9020068340020F03903000CD6020010D602004B
:2048E000D095FF1F2DE9F04184B00F4690460021FEF730FC3B4C204615F07EFD46250095E0
:20490000394B0193002602960396204614213C222B4615F08BFB0095344B0193029603965A
:204920002046E6213C222B4615F080FB0095304B019302960396204614219622822315F0E9
:2049400075FB00952B4B0193029603962046AA219622822315F06AFB204615F029FD3868EE
:20496000FEF7D4FD244C04F1100594F824301BB1284611F0E7FC02E0204611F035FF002854
:20498000F3D0236A01221A70164800210A4615F063FD01280BD1002E01DD013E02E00EB9ED
:2049A00008F1FF3657F82600FEF7B0FDDDE768B908F1FF33B34201DD013602E0B34208BFFA
:2049C000002657F82600FEF7A1FDCEE7022803D00328CAD1304601E04FF0FF3004B0BDE813
:2049E000F08100BF6834002004DC0200A0D902005CD50200A4D90200D095FF1F2DE9F04FE4
:204A00008DB00390FDF7CAFEBD4C2046BD4914F0E9FA20464FF0FF3112F0D4FEEB25009560
:204A200020469521E1229F2313F03AFD009520469621E122A02313F033FD009520469721FD
:204A4000E122A12313F02CFDE126009620469F212A46A92313F024FD00962046A0212A4613
:204A6000AA2313F01DFD00962046A1212A46AB2313F016FD4FF07709CDF8009020460F2190
:204A80006D22052313F00CFD4FF07808CDF8008020460F216E22052313F002FD79270097C8
:204AA00020460F216F22052313F0FAFC4FF0810BCDF800B0204605214A460F2313F0F0FC31
:204AC000822300932046052142460F2313F0E8FC83230093204605213A460F2313F0E0FC1B
:204AE00005250095204695210F229F2313F0D8FC0095204696210F22A02313F0D1FC009506
:204B0000204697210F22A12313F0CAFC4FF00F0ACDF800A020469F212A46A92313F0C0FCDB
:204B2000CDF800A02046A0212A46AA2313F0B8FCCDF800A02046A1212A46AB2313F0B0FC7B
:204B4000CDF80090204640F231116D2240F23B1313F0A6FCCDF80080204640F231116E22C3
:204B600040F23B1313F09CFC0097204640F231116F2240F23B1313F093FCCDF800B020462B
:204B800040F23B114A4640F2311313F089FC82230093204640F23B11424640F2311313F0EC
:204BA0007FFC83230093204640F23B113A4640F2311313F075FC04A8522117F07BFC00272F
:204BC0000097204604A92A462B4614F0F3F804A817F0B2FB08A8412117F06CFC009720467D
:204BE00008A92A46334614F0E5F808A817F0A4FB039B002B3DD12046FF213A463B4612F084
:204C0000B3FD1925009520464FF4937105224FF49D7313F045FC0095204640F2271105221A
:204C200040F23B1313F03CFC009520464FF4947105224FF49E7313F033FC052600962046A2
:204C40004FF493712A464FF49D7313F029FC0096204640F227112A4640F23B1313F020FCAD
:204C6000009620464FF494712A464FF49E7313F017FC234C20460021FF220B4612F074FD3B
:204C8000EB25009520464FF49371E1224FF4987313F006FC0095204640F22711E12240F2D2
:204CA000311313F0FDFB009520464FF49471E1224FF4997313F0F4FBD726009620464FF4F2
:204CC00098712A464FF49D7313F0EAFB0096204640F231112A4640F23B1313F0E1FB00964B
:204CE00020464FF499712A464FF49E7313F0D8FB2046054914F076F90DB0BDE8F08F00BFA0
:204D00007C9BFF1FF0390300D445030010B582B0FDF744FD0C4C20464FF0FF3112F052FD6C
:204D200020460A4914F05EF9002300932046084942F20E726E2313F087FF2046054914F06C
:204D400051F902B010BD00BF7C9BFF1FF03903005CD70200D445030008B5032803D8DFE88F
:204D600000F00A040608064806E0064804E0064802E0064800E00648FEF7C8FE08BD00BFD6
:204D800074EB020020D602002CD6020038D6020014D6020070B5FEF701FE8148FEF794FE51
:204DA000FEF734FE0020FFF7D7FF00267D4C04F1100594F824301BB1284611F0C3FA02E02D
:204DC000204611F011FD0028F3D0236A012119707548002215F040FB032840F0C480032E4C
:204DE00000F2D980DFE806F0020845829920002115F00AFE012070BD79206C4B197815F0BF
:204E000003FE7A206A4B197815F0FEFD7B20694B197815F0F9FD7C20674B197815F0F4FD01
:204E2000664B186866491BF0C9F8044600211BF077FA40B120464FF07C511AF0B7FF1BF0B1
:204E400083FA014607E020464FF07C511AF0ACFF1BF07AFA01467D20C9B215F0D5FD7E202D
:204E6000C82115F0D1FD9920012115F0CDFD012070BD8B204D4B197815F0C6FD8C204C4B9F
:204E8000197815F0C1FD8D204A4B197815F0BCFD8E20494B197815F0B7FD484B18684849FD
:204EA0001BF08CF8044600211BF03AFA40B120464FF07C511AF07AFF1BF046FA014607E05A
:204EC00020464FF07C511AF06FFF1BF03DFA01468F20C9B215F098FD9020C82115F094FD6C
:204EE0009920022115F090FD012070BD91202F4B197815F089FD92202D4B197815F084FD6E
:204F000093202C4B197815F07FFD94202A4B197815F07AFD294B186829491BF04FF804461D
:204F200000211BF0FDF940B120464FF07C511AF03DFF1BF009FA014607E020464FF07C51F8
:204F40001AF032FF1BF000FA01469520C9B215F05BFD9820C82115F057FD9920032115F061
:204F600053FD012070BD18B986B1013EF6B20EE0012808D1022E02D80136F6B207E0032EB3
:204F800008BF002603E0022801D106E003263046FFF7E2FE0DE7012070BD002070BD00BF9C
:204FA000ACD90200D095FF1F68340020869CFF1F283700205C9BFF1F7E3600204C340020E3
:204FC0000000C84208B5032803D8DFE800F00A040608064806E0064804E0064802E006484D
:204FE00000E00648FEF792FD08BD00BF74EB020020D602002CD6020038D6020044D60200F2
:2050000070B584B001461D48FEF7A4F81C4D284615F0F2F9462600961A4B0193002402947E
:205020000394284614213C22822314F0FFFF0096154B0193029403942846AA213C2282233E
:2050400014F0F4FF0096114B019302940394284614219622822314F0E9FF00960C4B019339
:20506000029403942846AA219622822314F0DEFF284615F09DF904B070BD00BFBCD902004C
:2050800068340020C4D90200C8D90200D0D902005CD502002DE9F04784B001466F48FEF7C0
:2050A00059F86F4D284615F0A7F9462600966D4B0193002402940394284614213C223346B7
:2050C00014F0B4FF0096684B0193029403942846E6213C22334614F0A9FF0096634B01933F
:2050E000029403942846142196224FF48C7314F09DFF284615F05CF910F05EF8FEF706FA33
:205100005B4C04F1100594F824301BB1284611F019F902E0204611F067FB0028F3D0236A8E
:20512000012119704E48002215F096F9002842D110F042F80028E6DD10F03EF801281ADDC2
:2051400010F01CF8814610F023F8804610F02AF8074610F031F8064610F038F8824610F0B7
:205160003FF8CDF800A00190484641463A46731E10F03CF81AE010F01FF8012816D10FF088
:20518000FDFF804610F004F8074610F00BF8064610F01CF8814610F023F8CDF800900190D9
:2051A0004046394632461F2310F020F810F004F8FEF7ACF9A7E7012842D10FF0FDFF1F2876
:2051C000A1DC0FF0F9FF1E281ADC0FF0D7FF81460FF0DEFF80460FF0E5FF07460FF0ECFFC7
:2051E00006460FF0F3FF82460FF0FAFFCDF800A00190484641463A46731C0FF0F7FF1AE0A9
:205200000FF0DAFF1F2816D10FF0B8FF80460FF0BFFF07460FF0C6FF06460FF0D7FF814656
:205220000FF0DEFFCDF80090019040463946324601230FF0DBFF0FF0BFFFFEF767F962E7D7
:2052400002287FF460AF0FF04BFF15F003FF0020FFF7D6FE04B0BDE8F08700BFC4D902003A
:205260006834002004DC0200A0D902005CD50200D095FF1F2DE9F04784B001467048FDF7EB
:2052800069FF704D284615F0B7F8462600966E4B0193002402940394284614213C223346AD
:2052A00014F0C4FE0096694B0193029403942846E6213C22334614F0B9FE0096644B01933D
:2052C000029403942846142196224FF48C7314F0ADFE284615F06CF80FF078FFFEF716F904
:2052E0005C4C04F1100594F824301BB1284611F029F802E0204611F077FA0028F3D0236A8E
:20530000012119704F48002215F0A6F8002843D10FF05CFF0028E6DD0FF058FF01281BDD8E
:205320000FF02CFF81460FF033FF80460FF03AFF07460FF041FF06460FF048FF82460FF068
:205340004FFF0AF1FF3300930190484641463A4633460FF04BFF1AE00FF038FF012816D117
:205360000FF00CFF81460FF013FF80460FF01AFF07460FF021FF06460FF032FF0C230093C3
:205380000190484641463A4633460FF02FFF0FF01DFFFEF7BBF8A6E7012843D10FF016FFA0
:2053A0000C28A0DC0FF012FF0B281BDC0FF0E6FE81460FF0EDFE80460FF0F4FE07460FF06C
:2053C000FBFE06460FF002FF82460FF009FF0AF1010300930190484641463A4633460FF089
:2053E00005FF1AE00FF0F2FE0C2816D10FF0C6FE81460FF0CDFE80460FF0D4FE07460FF06E
:20540000DBFE06460FF0ECFE012300930190484641463A4633460FF0E9FE0FF0D7FEFEF779
:2054200075F860E702287FF45EAF0FF059FE15F011FE0020FFF7E4FD04B0BDE8F08700BF1E
:20544000C8D902006834002004DC0200A0D902005CD50200D095FF1F2DE9F04784B0014612
:205460005048FDF777FE504D284614F0C5FF462600964E4B01930024029403942846142135
:205480003C22334614F0D2FD0096494B0193029403942846E6213C22334614F0C7FD0096CD
:2054A000444B0193029403942846142196224FF48C7314F0BBFD284614F07AFF0FF090FECB
:2054C000FEF724F83C4C04F1100594F824301BB1284610F037FF02E0204611F085F90028EA
:2054E000F3D0236A012119702F48002214F0B4FF20BB0FF075FEB0F5FC6FE6DD0FF03EFE06
:2055000081460FF045FE80460FF04CFE07460FF053FE06460FF05AFE82460FF061FECDF848
:2055200000A001380190484641463A4633460FF05DFE0FF055FEFDF7E9FFC6E7012825D19F
:205540000FF04EFE40F632039842BEDC0FF016FE81460FF01DFE80460FF024FE07460FF0FA
:205560002BFE06460FF032FE82460FF039FECDF800A001300190484641463A4633460FF055
:2055800035FE0FF02DFEFDF7C1FF9EE702289CD10FF0A6FD15F05EFD0020FFF731FD04B0E4
:2055A000BDE8F087D0D902006834002004DC0200A0D902005CD50200D095FF1F70B584B0FC
:2055C00001461D48FDF7C6FD1C4D284614F014FF462600961A4B01930024029403942846C0
:2055E00014213C22822314F021FD0096154B0193029403942846AA213C22822314F016FD47
:205600000096114B019302940394284614219622822314F00BFD00960C4B0193029403941D
:205620002846AA219622822314F000FD284614F0BFFE04B070BD00BFD8D902006834002095
:20564000E0D90200E8D90200F0D902005CD502002DE9F04784B001466E48FDF77BFD6E4D29
:20566000284614F0C9FE462600966C4B0193002402940394284614213C22334614F0D6FC03
:205680000096674B0193029403942846E6213C22334614F0CBFC0096624B019302940394E6
:2056A0002846142196224FF48C7314F0BFFC284614F07EFE0FF076FDFDF728FF5A4C04F178
:2056C000100594F824301BB1284610F03BFE02E0204611F089F80028F3D0236A0121197075
:2056E0004D48002214F0B8FE002841D10FF05AFD0028E6DB0FF056FD00281ADD0FF03EFD15
:2057000081460FF045FD80460FF04CFD07460FF053FD06460FF05AFD82460FF061FDCDF84B
:2057200000A00190484641467A1E33460FF05EFD19E00FF037FDB0B90FF020FD80460FF042
:2057400027FD07460FF038FD06460FF03FFD81460FF046FDCDF800900190404639463B22CC
:2057600033460FF043FD0FF01DFDFDF7CFFEA8E7012842D10FF016FD3B28A2DC0FF012FDCB
:205780003A281ADC0FF0FAFC81460FF001FD80460FF008FD07460FF00FFD06460FF016FD78
:2057A00082460FF01DFDCDF800A00190484641467A1C33460FF01AFD1AE00FF0F3FC3B288D
:2057C00016D10FF0DBFC80460FF0E2FC07460FF0F3FC06460FF0FAFC81460FF001FDCDF864
:2057E0000090019040463946002233460FF0FEFC0FF0D8FCFDF78AFE63E702287FF461AFA9
:205800000FF06EFC15F026FC0020FFF7D7FE04B0BDE8F087F0D902006834002004DC0200D4
:20582000A0D902005CD50200D095FF1F2DE9F04784B001466F48FDF78DFC6F4D284614F00D
:20584000DBFD462600966D4B0193002402940394284614213C22334614F0E8FB0096684B27
:205860000193029403942846E6213C22334614F0DDFB0096634B0193029403942846142197
:2058800096224FF48C7314F0D1FB284614F090FD0FF07EFCFDF73AFE5B4C04F1100594F85D
:2058A00024301BB1284610F04DFD02E0204610F09BFF0028F3D0236A012119704E48002253
:2058C00014F0CAFD002842D10FF062FC0028E6DB0FF05EFC00281BDD0FF050FC81460FF0F2
:2058E00057FC80460FF05EFC07460FF065FC06460FF06CFC82460FF073FCCDF800A00190AA
:20590000484608F1FF313A4633460FF06FFC19E00FF03EFCB0B90FF031FC80460FF042FCA3
:2059200007460FF049FC06460FF050FC81460FF057FCCDF80090019040463B213A46334665
:205940000FF054FC0FF024FCFDF7E0FDA7E7012843D10FF01DFC3B28A1DC0FF019FC3A28CF
:205960001BDC0FF00BFC81460FF012FC80460FF019FC07460FF020FC06460FF027FC8246DE
:205980000FF02EFCCDF800A00190484608F101013A4633460FF02AFC1AE00FF0F9FB3B28F1
:2059A00016D10FF0EBFB80460FF0FCFB07460FF003FC06460FF00AFC81460FF011FCCDF82B
:2059C00000900190404600213A4633460FF00EFC0FF0DEFBFDF79AFD61E702287FF45FAFA7
:2059E0000FF07EFB15F036FB0020FFF7E7FD04B0BDE8F087E8D902006834002004DC0200CE
:205A0000A0D902005CD50200D095FF1F2DE9F04784B001466F48FDF79DFB6F4D284614F01C
:205A2000EBFC462600966D4B0193002402940394284614213C22334614F0F8FA0096684B27
:205A40000193029403942846E6213C22334614F0EDFA0096634B01930294039428461421A6
:205A600096224FF48C7314F0E1FA284614F0A0FC0FF084FBFDF74AFD5B4C04F1100594F849
:205A800024301BB1284610F05DFC02E0204610F0ABFE0028F3D0236A012119704E48002253
:205AA00014F0DAFC002842D10FF068FB0028E6DB0FF064FB00281BDD0FF060FB81460FF0E8
:205AC00067FB80460FF06EFB07460FF075FB06460FF07CFB82460FF083FBCDF800A001907D
:205AE00009F1FF3041463A4633460FF07FFB19E00FF044FBB0B90FF04BFB80460FF052FB8D
:205B000007460FF059FB06460FF060FB81460FF067FBCDF800900190172041463A4633467A
:205B20000FF064FB0FF02AFBFDF7F0FCA7E7012843D10FF023FB1728A1DC0FF01FFB162808
:205B40001BDC0FF01BFB81460FF022FB80460FF029FB07460FF030FB06460FF037FB8246B1
:205B60000FF03EFBCDF800A0019009F1010041463A4633460FF03AFB1AE00FF0FFFA172817
:205B800016D10FF005FB80460FF00CFB07460FF013FB06460FF01AFB81460FF021FBCDF8F2
:205BA00000900190002041463A4633460FF01EFB0FF0E4FAFDF7AAFC61E702287FF45FAFA2
:205BC0000FF08EFA15F046FA0020FFF7F7FC04B0BDE8F087E0D902006834002004DC0200C7
:205BE000A0D902005CD50200D095FF1FF0B585B007461C483946FDF7ADFA1B4D284614F0F5
:205C0000FBFB46260096194B0193002402940394284614213C22822314F008FA0096144BA2
:205C20000193029403942846AA213C22822314F0FDF900960F4B0193029403942846142119
:205C400096224FF48C7314F0F1F92FB128460221094A234614F0BEFB034814F0A9FB05B0CA
:205C6000F0BD00BF0CDC020068340020D8D90200BCD90200F8D9020000DA020070B50646A8
:205C8000164C04F1100594F824301BB1284610F059FB02E0204610F0A7FD0028F3D0236AC6
:205CA00001221A700E4800210A4614F0D5FB18B93046FFF7EFF9E6E7012803D13046FFF741
:205CC000D9FAE0E7022803D13046FFF7C5FBDAE70328D8D13046FFF789FF70BDD095FF1FC7
:205CE0006834002070B50646164C04F1100594F824301BB1284610F025FB02E0204610F089
:205D000073FD0028F3D0236A01221A700E4800210A4614F0A1FB18B93046FFF777FEE6E708
:205D2000012803D13046FFF781FDE0E7022803D13046FFF78DFCDAE70328D8D13046FFF7C1
:205D400055FF70BDD095FF1F6834002070B584B01D480021FDF7FEF91C4D284614F04CFB97
:205D6000462600961A4B0193002402940394284614213C22822314F059F90096154B019351
:205D8000029403942846AA213C22822314F04EF90096114B01930294039428461421962241
:205DA000822314F043F900960C4B0193029403942846AA219622822314F038F9284614F013
:205DC000F7FA04B070BD00BF04DA0200683400200CDA02001CDA02002CDA02005CD502007B
:205DE000F0B585B006464A483146FDF7B3F9494D284614F001FB46270097474B0193002482
:205E000002940394284614213C22822314F00EF90097424B0193029403942846AA213C2228
:205E2000822314F003F97EB100973D4B0193029403942846142196224FF48C7314F0F6F81F
:205E40000122384B1A700DE046230093364B01930023029303932F48142196224FF48C7320
:205E600014F0E4F82B4814F0A3FA2E4B1B783BB92848002114F008FC2C4C04F1100504E02F
:205E80002448012114F000FCF6E794F824301BB1284610F057FA02E0204610F0A5FC00281B
:205EA000F3D0236A01221A701A4800210A4614F0D3FA78B91B4B1B78002BE6D00021194BB1
:205EC0001970144F384614F0DFFB3846012114F03BFCDAE701280FD1124B1B78002BD4D115
:205EE0000121104B19700B4F384614F0CDFB3846002114F029FCC8E70228C6D16820094BE4
:205F0000197814F081FD0EB9FFF720FF05B0F0BD1CDA02006834002034DA020040DA020050
:205F200000DA0200549CFF1F5CD50200D095FF1FF0B585B006464A483146FDF70BF9494D04
:205F4000284614F059FA46270097474B0193002402940394284614213C22822314F066F8F9
:205F60000097424B0193029403942846AA213C22822314F05BF87EB100973D4B0193029431
:205F800003942846142196224FF48C7314F04EF80122384B1A700DE046230093364B019355
:205FA0000023029303932F48142196224FF48C7314F03CF82B4814F0FBF92E4B1B783BB94A
:205FC0002848002114F060FB2C4C04F1100504E02448012114F058FBF6E794F824301BB1FD
:205FE000284610F0AFF902E0204610F0FDFB0028F3D0236A01221A701A4800210A4614F04F
:206000002BFA78B91B4B1B78002BE6D00021194B1970144F384614F037FB3846012114F087
:2060200093FBDAE701280FD1124B1B78002BD4D10121104B19700B4F384614F025FB3846C8
:20604000002114F081FBC8E70228C6D16720094B197814F0D9FC0EB9FFF778FE05B0F0BD55
:206060000CDA0200683400204CDA020058DA020000DA0200703600205CD50200D095FF1FC8
:20608000F0B585B0464B1B784BB946480021FCF7E1FBFCF791FF10B9FFF758FE7EE0424800
:2060A0000021FDF757F8414D2846002111F06AFB3F4E2846314612F095FF2846C8210A464A
:2060C0000B4611F06DFB002400942846394942F20E72422312F0B8FD00942846364942F2D9
:2060E0000E72692312F0B0FD00942846334942F20E727D2312F0A8FD314D284614F07CF907
:206100002846304914F080FB372700972E4B0193029403942846A521A0228C2313F086FFBD
:2061200000972A4B01930294039428460F21A0228C2313F07BFF284614F03AF9284631467C
:2061400014F062FB224C04F1100594F824301BB1284610F0F7F802E0204610F045FB0028AD
:20616000F3D0236A012119701548002214F074F980B918480121FCF76DFBFBF72BFC1648A7
:206180000121FCF767FB4FF47A7015F019F8FBF7E3FB01E00128D8D1FFF7D8FD05B0F0BD95
:2061A000AC39002064DA020004DA02007C9BFF1FD445030078DA020098DA0200B4DA020011
:2061C00068340020F03903000CD6020010D60200D095FF1FD8DA0200F0DA020070B584B0AF
:2061E0001D480021FCF7B6FF1C4D284614F004F9462600961A4B01930024029403942846DF
:2062000014213C22822313F011FF0096154B0193029403942846AA213C22822313F006FF38
:206220000096114B019302940394284614219622822313F0FBFE00960C4B01930294039401
:206240002846AA219622822313F0F0FE284614F0AFF804B070BD00BF04DB02006834002061
:206260000CDB02001CDB02002CDB02005CD50200F0B585B0064645483146FCF76BFF444DE8
:20628000284614F0B9F846270097424B0193002402940394284614213C22822313F0C6FEF8
:2062A00000973D4B0193029403942846AA213C22822313F0BBFE0097384B0193029403942B
:2062C0002846142196224FF48C7313F0AFFE3EB128460221324A234614F07CF8314B1C708C
:2062E0002B4814F065F82F4B1B783BB92848002114F0CAF92C4C04F1100504E0244801217D
:2063000014F0C2F9F6E794F824301BB1284610F019F802E0204610F067FA0028F3D0236A95
:2063200001221A701A4800210A4614F095F878B91C4B1B78002BE6D000211A4B1970144FCE
:20634000384614F0A1F93846012114F0FDF9DAE701280FD1134B1B78002BD4D10121114B7E
:2063600019700B4F384614F08FF93846002114F0EBF9C8E70228C6D165200A4B197814F0CA
:2063800043FB0EB9FFF72AFF05B0F0BDD0DC0200683400203CDB020044DB0200F8D9020000
:2063A00000DA0200849CFF1FD095FF1F2DE9F04184B0064647483146FCF7CCFE464D2846B5
:2063C00014F01AF846270097444B0193002402940394284614213C22822313F027FE0097CA
:2063E0003F4B0193029403942846AA213C22822313F01CFE00973B4B0193029403942846AD
:20640000142196224FF48C7313F010FE2EB128460221354A234613F0DDFF2F4813F0C8FFC4
:20642000324B1B783BB12C48002114F02DF9304C04F1100504E02848012114F025F9F6E7A6
:2064400094F824301BB128460FF07CFF02E0204610F0CAF90028F3D0236A01221A701E4812
:2064600000210A4613F0F8FF88B9204B1B78002BE6D101271D4B1F70DFF85C804046002117
:2064800014F002F94046394614F05EF9D8E7012811D1164B1B78002BD2D00027134B1F70FE
:2064A000DFF834804046012114F0EEF84046394614F04AF9C4E70228C2D170200B4B197894
:2064C00014F0A2FA1EB9FBF7CFFDFFF787FE04B0BDE8F0811CDB02006834002050DB020060
:2064E00034DA0200F8D9020000DA0200AC9CFF1FD095FF1F2DE9F04184B03A480021FCF7E3
:2065000029FE394D284613F077FF46260096374B0193002402940394284614213C228223D8
:2065200013F084FD0096324B0193029403942846AA213C22822313F079FD00962D4B0193AC
:2065400002940394284614219622822313F06EFD0096294B0193029403942846AA219622E4
:20656000822313F063FD284613F022FF2846234B197814F089F8224C04F1100694F8243036
:206580001BB130460FF0DEFE02E0204610F02CF90028F3D0236A01221A70134800210A4680
:2065A00013F05AFF054602280ED80F4FDFF84C80384698F8001014F0C7F888F800503846F4
:2065C000E9B214F061F8D9E70328D7D180200B4B197814F019FAFAF793FFFFF7FFFD04B069
:2065E000BDE8F0812CDB02006834002034DA020058DB020060DB02005CD502002B37002089
:20660000D095FF1F70B584B01F480021FCF7A2FD1E4D284613F0F0FE28461D4914F0F4F8F6
:20662000462600961B4B0193002402940394284614213C22822313F0F9FC0096164B0193E4
:20664000029403942846AA213C22822313F0EEFC0096124B019302940394284614219622D5
:20666000822313F0E3FC00960D4B0193029403942846AA219622822313F0D8FC284613F006
:2066800097FE04B070BD00BF68DB020068340020D445030004DB020004DA02000CDC0200FD
:2066A0005CD5020070B506461F4C04F1100594F824301BB128460FF045FE02E0204610F01D
:2066C00093F80028F3D0236A01221A70174800210A4613F0C1FE30B93046FEF76FFF304640
:2066E000FFF700FBE3E7012806D13046FEF788FC3046FFF7C3FADAE70228D8D186B10EF0FE
:206700006FFDB0F5FC6F0DDA09480021FCF7A2F84FF47A7014F054FD0120FFF767FAC6E770
:20672000FFF770FF70BD00BFD095FF1F6834002074DB020038B5154C04F1100594F8243040
:206740001BB128460FF0FEFD02E0204610F04CF80028F3D0236A01221A700D4800210A468E
:2067600013F07AFE10B9FFF7E3FBE7E7012803D10020FFF735FBE1E7022802D1FFF780FCB9
:20678000DCE70328DAD1FFF73DFF38BDD095FF1F6834002038B5154C04F1100594F82430C2
:2067A0001BB128460FF0CEFD02E0204610F01CF80028F3D0236A01221A700D4800210A468E
:2067C00013F04AFE10B9FFF753FDE7E7012803D10020FFF7EBFDE1E7022802D1FFF78AFE53
:2067E000DCE70328DAD1FFF70DFF38BDD095FF1F6834002038B5184C04F1100594F824308F
:206800001BB128460FF09EFD02E020460FF0ECFF0028F3D0236A01221A70104800210A4684
:2068200013F01AFE20B9FFF7D9FCFFF7B3FFE5E7012804D1FFF78AFAFFF77CFFDEE702284D
:2068400006D10020FFF7D2F90020FFF72BFFD5E70328D3D138BD00BFD095FF1F68340020C2
:20686000F0B59BB04E4C2046C8210A460B4610F06DFF2046C8210A460B4610F091FF494F1A
:206880002046394612F0AEFB02A8474915F0A0FD00250095204602A942F20E72142312F0D4
:2068A00063FA02A815F048FD2046404912F09AFB06A83F4915F08CFD1F260096204606A94D
:2068C00042F20E723C2312F04FFA06A815F034FD2046394612F086FB0AA8364915F078FD63
:2068E000009520460AA942F20E726E2312F03CFA0AA815F021FD0EA82F4915F069FD00956A
:2069000020460EA942F20E728C2312F02DFA0EA815F012FD12A8294915F05AFD0095204681
