:020000040000FA
:2000000000800020BD0100007DAC010041AC010041AC010041AC010041AC010041AC0100B2
:2000200041AC010041AC010041AC01007DAC01007DAC010041AC01007DAC010031AC0100AC
:200040007DAC01007DAC01007DAC01007DAC01007DAC01007DAC01007DAC01007DAC010050
:200060007DAC01007DAC01007DAC01007DAC01007DAC01007DAC01007DAC01007DAC010030
:200080007DAC01007DAC01007DAC01007DAC01007DAC01007DAC01007DAC01007DAC010010
:2000A000E52B0100F52B01007DAC01007DAC01007DAC01007DAC01007DAC01007DAC010012
:2000C0007DAC01007DAC01007DAC01007DAC01007DAC01007DAC01007DAC01007DAC0100D0
:2000E0007DAC01007DAC01007DAC01007DAC01007DAC010085CF01007DAC0100E9D60100EF
:200100007DAC010065DC01007DAC01007DAC01007DAC01007DAC01007DAC01007DAC010077
:200120007DAC01007DAC01007DAC01007DAC01007DAC01007DAC01007DAC01007DAC01006F
:200140007DAC01007DAC01007DAC01007DAC01007DAC01007DAC01007DAC01007DAC01004F
:200160007DAC010051B601007DAC01007DAC01007DAC01007DAC01007DAC01007DAC010051
:200180007DAC01007DAC01007DAC01007DAC01007DAC01007DAC01007DAC01007DAC01000F
:2001A0007DAC01007DAC01007DAC01007DAC01007DAC01007DAC01007DAC0100574B4CF239
:2001C000205210B51A804DF628121A8000BF00BF1AF058FD524B4FF010621A60514A9A60FD
:2001E000514ADA60A3F53043203B1A6812F4807204D14E490A604FF4A8521A604C4B1A7894
:20020000110703D51A7842F008021A70494B4A4C4A482A221A704A4A00239918A14203D2E4
:20022000195899500433F8E7464B474900228B4202D243F8042BFAE74448454900235A5830
:200240001A500433B3F5DE7FF9D1424B424A802103F8011B9342FBD1404B3C4A1A60404BA6
:200260008A221A70A3F5805324225A70A0221A709A799207FCD59A79D406FCD4394A9379B8
:2002800003F00C03082B374BF9D103221A714C225A719A799006FCD5324A9179314B490629
:2002A000FBD5314A4FF0017111600421516020221A709A7902F00C020C2AFAD12B4B2C4A2F
:2002C0001A602C4B2C4A1A6000225A60072243F8042C2A4AC3F80C2D62B61BF079F8134B73
:2002E0001B68DA0705D526481AF0A6FF254B264A1A60264B1B785B0609D5224C224A2368A1
:20030000934204D11E481AF097FF0023236020F0B3F901F073F81CF019F8FEE70E200540FA
:2003200030800440823F04000100002B14D0034002D0074000E00740A895FF1FDC540300E3
:200340006087FF1FC095FF1FB43E00200082FF1F0000000000E400E05FE400E008ED00E0B7
:2003600000500640004006404480044004800440C010050014E000E07F32020000002020F5
:20038000D906EC031CE00340A5C3945A00F00740FFFFFFFFFFFFFFFFFFFFFFFFFFFFFFFFD3
:2003A000FFFFFFFFFFFFFFFFFFFFFFFFFFFFFFFFFFFFFFFFFFFFFFFFFFFFFFFFFFFFFFFF5D
:2003C000FFFFFFFFFFFFFFFFFFFFFFFFFFFFFFFFFFFFFFFFFFFFFFFFFFFFFFFFFFFFFFFF3D
:2003E000FFFFFFFFFFFFFFFFFFFFFFFFFFFFFFFFFFFFFFFFFFFFFFFFFFFFFFFFFFFFFFFF1D
:20040000FFFFFFFFFFFFFFFFFFFFFFFFDEF9FFFF10B5054C237833B9044B13B10448AFF375
:2004200000800123237010BDC095FF1F00000000D454030008B5064B1BB106480649AFF301
:2004400000800648036813B1054B03B1984708BD00000000D4540300C495FF1FA895FF1FFA
:20046000000000002DE9F04F8DB006919146B2F804B0D3885B45C0F00181824B197801EBA7
:2004800081020892804B1A78C2EB8273C2EB83030B937E4B1D787E4B187800EB80077D4B7E
:2004A0001B78C3EB8374C3EB840401947A4C247807947A4C24680294C3EB8334C3EB8403BA
:2004C0003B440BEB8B0003EB401301EB810101EB8101490111FA83F3C2EBC20202EB0212C2
:2004E00002EB021203EB42121FFA82F80026CDF80080C846D946B3462E46089B4B44772B4D
:2005000000F3AE800B9B19EB030F00F1A980B8F80040B8F80230A342C0F0A2800BF101035B
:200520001FFA83FBCDF828900BF1FF339AB21EB9C4F19F05EDB200E0E5B2EB199F2B00F326
:200540008280019BDD427ED4009B1D44ADB2079B022B72D1069B33F812200392504A32F8C8
:20056000152004924FF07E5002991FF00DFD8246049B03F4FC60C0081FF0BCFD01465046C8
:200580001FF00CFE8146039A02F4FC60C0081FF0B1FD014602981FF001FE014648461FF034
:2005A000F5FC1FF0E7FF5FFA80F909F01C03DB000593049BD80000F0F8001FF09BFD0146AB
:2005C00050461FF0EBFD0990039AD00000F0F8001FF090FD014602981FF0E0FD014609984F
:2005E0001FF0D4FC1FF0C6FFC0F3C400059B184305904FEA6919049A02F47840000A1FF021
:2006000079FD51461FF0CAFD8246039B03F47840000A1FF06FFD014602981FF0BFFD01466A
:2006200050461FF0B3FC1FF0A5FF00F0F80049EA0009059A42EA092902E0069B33F8129042
:20064000174A22F815900134A4B20BF101039AB2B8F80230A34201D3934665E7DDF8289056
:2006600009F101031FFA83F9009A02F1A0039BB20093B8F806304B45BFF43FAF01200DB0E2
:20068000BDE8F08F72370020749BFF1FA03A00201C3800209E9CFF1F2A3800204035002063
:2006A000409FFF1F08B5083013F0D6FB08BD00BF00B583B002AB03F8011D08301946012288
:2006C00013F0CAFB03B05DF804FB00BF08B500F58C6012F0C7FC08BD08B500F58C6012F0C4
:2006E000A3FD08BD08B500F58C6012F05BFD08BD08B500F58C6012F021FE08BD38B515460C
:20070000846FA288E388D01AA84298BF054629B122680846D1182A461AF06CF9E3882B4487
:20072000E380284638BD00BFF8B505460C4614F049FE064614F03CFE074614F02FFEFFB2E6
:20074000C0B240EA4717B6B2A6F2BC7647EA46272F8014F005FE054614F00CFE064614F070
:2007600013FEF6B2EDB2ED0245EA4616C0F3460006432680F8BD00BF08B51AF057FD08BD6B
:2007800000B583B0334B93F8243023B16846324915F06AFE03E068462E4916F0F1F8BDF8FE
:2007A0000020BDF80230A2F10A0189B2822908D8A3F10A0080B2462803D80122274B1A7096
:2007C00044E0B43A92B2822A3AD8A3F1A00080B2462838D80522214B1A7037E0A3F15A00FF
:2007E00080B23C2814D81E480068012825D003221A4B1A702AE0A3F15A0292B23C2A09D8F2
:20080000174A1268012A05D00422144B1A701DE0822A0AD8A3F10A0292B2462A03D8022210
:200820000E4B1A7012E0822910D8A03B9BB2462B0CD80622094B1A7008E0822AEAD9F4E79B
:200840008229CBD9EFE78229C8D9D4E703B05DF804FB00BFE895FF1FF895FF1F14380020F4
:20086000583500202DE9F04186B0364B1B7813F0FF0F64D1344B1B7813F0FF0F5FD1334B23
:200880001B7813F0FF0F5AD1314B1B7813F0FF0F55D1304B1B7813F0FF0F50D133E02E4C76
:2008A00004F11007DFF8B48094F824301BB1384615F03AFE02E0204616F088F878B1236A36
:2008C00001221A70B5F57A7F2EDD08E00524234F20461AF0E5FC10B9B5F57A7F2ADD1F4B0C
:2008E0001B680593059B9E1BB6F57A7F03DA0122144B1A7023E01A4B1B78012B1FD00122BE
:20090000124B1A701BE0154C23680193019E0A201AF048FD23680293029DAD1B0E4B93F8F2
:200920002430002BBBD1D1E7D8F800300393039DAD1BB9E73B680493049DAD1BC8E706B04E
:20094000BDE8F081E595FF1F153800207C9CFF1FE695FF1F78370020E895FF1F9C3B00204C
:200960002A38002038B504462B491FF0C9FD00283ED120464FF081411FF0C2FD002839D1D7
:20098000204626491FF0BCFD002835D1204624491FF0B6FD002831D1204622491FF0B0FD40
:2009A00070BB204620491FF0ABFD58BB20461F491FF0A6FD40BB20461D491FF0A1FD28BB9C
:2009C00020461C491FF09CFD10BB20461A491FF097FDF8B94FF00105204618491FF090FD14
:2009E00008B94FF0000585F0010040F3000038BD642038BD5A2038BD502038BD462038BDAC
:200A00003C2038BD322038BD282038BD1E2038BD142038BD0A2038BD333383401F857B40FE
:200A2000EC5178408FC2754033337340D7A3704052B86E40CDCC6C40713D6A4000004040A3
:200A400010B501460A4C204610F0A0FC204610F041FC4FF496701AF0A5FC20464FF4E131E0
:200A600010F072FC20465F2110F0C8FC10BD00BF303A002008B5024810F0EEFC08BD00BFD3
:200A8000303A00202DE9F04782B02D4810F0ECFC1FFA80FA504601211FF096FD0546BAF10D
:200AA000000F20D057460024DFF89480A146402FB4BF3E464026F6B24046314610F0F4FC43
:200AC000B64666B14B46C15CE21892B2A95401337345F8D10134731E13FA84F4A4B2BF1BEA
:200AE000BFB2002FE3D1164E304610F003FC154C2560A4F804A00023E38040F61C401FF07C
:200B0000E3FD0246104B186000941048104940F61C4314F055FD304610F054FC22280B4847
:200B20000C490CBF0022012214F0F2FF28461FF0D3FD054B18681FF0CFFD02B0BDE8F08795
:200B4000303A00208C9BFF1F183800207C370020FD0600006504000070B5124810F084FC18
:200B600084B2114D2B681B682846210A98472B681B682846E1B2984784B10A4E402CB4BFF1
:200B800025464025EDB23046294610F08DFC29461BF0E2F9641BA4B2002CEFD1014810F019
:200BA000A9FB70BD303A0020A43C002010B400290ADD034644180020054913F8012B50402C
:200BC000085CA342F9D100E000205DF8044B70477C05030070B582B004460E4623485A2148
:200BE00011F0E0F92CB1214803681B680621984704E01E4803681B68072198471B4C2169B1
:200C0000627B0025009520462B4611F0A5FC2069617B0123009301955A22032311F0B0FCC3
:200C20002369D3F83821D3F83431D31A032B1CBF2B4633700D4C206911F0C0FC0546206957
:200C400011F0BCFC0646206911F0B8FC2169627B002300932046012311F07EFC06F07F00BA
:200C6000EDB205EB002002B070BD00BFB83A002070B505460E46FFF7ADFF1FF03BFA14490E
:200C80001FF08CFA13491FF07FF913491FF07CF9044675B111491FF01FFC20B92046104970
:200CA0001FF038FC10B10023337070BD0D4B1C6070BD0D491FF010FC20B920460B491FF029
:200CC00029FC10B10023337070BD094B1C6070BD0AD7A33C0AD7233C33938843000020C2CB
:200CE0000000FA422438002000008CC20000BE43789BFF1FF0B48C46234C2278234B19684E
:200D000041F4806119604FF00041D9625A6304F1A3076678DA6A002A1CDBFBE7D36A002BA0
:200D200025DBFBE7184A527882420BD1142A0BD1174A1278012A09D1BCEB131F14BF00202F
:200D400001201FE000201DE001201BE0012019E0002017E09A6B1D6845F480651D60D962A9
:200D60005E6304F8012BBC42D3D1084AD6E7074B9A6B054B83F8A3201B7803F00F020F2A24
:200D8000D0D1E5E7F0BC70472496FF1F00C00240649CFF1F30B583B005460C4C20462A211F
:200DA00011F000F923681B6820460021984723681B682046294698472169627B00230093E6
:200DC0002046012311F0C8FB03B030BDB83A002030B583B0FFF7DEFF0B4C2069617B012348
:200DE0000093002301932A22022311F0C9FB206911F0E4FB85B2206911F0E0FB2D02ADB2E0
:200E0000284380B203B030BDB83A002010B50446074800214FF400721FF0DEFF34B1044B2F
:200E2000552283F8FE21AA2283F8FF2110BD00BF2C38002008B501460248034A12F0F4F9A0
:200E400008BD00BFA49CFF1F2C380020044B1B78044A127802FB03F3B0FBF3F080B2704708
:200E6000AC9DFF1F21380020064B1B78064A127803FB02F2B0FBF2F101FB1200B0FBF3F0B8
:200E8000C0B2704721380020AC9DFF1F70B50120FFF7BCFF314C002384F8BE31304B1D6847
:200EA0002846FFF7D3FF021294F8C03162F3871384F8C03184F8C1012846FFF7D5FF84F81D
:200EC000BF01284B1E78B5FBF6F206FB1252013294F8C03162F3050384F8C031224B1B78D2
:200EE00084F8C231214B1B681D44013D2846FFF7ADFFB0F5806F19D2021294F8C43162F37C
:200F0000871384F8C43184F8C5012846FFF7ACFF84F8C301B5FBF6F306FB1355013594F871
:200F2000C43165F3050384F8C43109E00B4BFF2283F8C521FE2283F8C321FF2283F8C4212A
:200F4000064B074A1268C3F8C621084A1268C3F8CA210020FFF76EFF70BD00BF2C3800206E
:200F6000949CFF1F21380020C896FF1F849CFF1FF8B504460D460020FFF748FF0948214691
:200F80002A4612F091F94DB10024064F064E3846314612F06BF90134AC42F8D1014812F0F8
:200FA000ABF9F8BDA49CFF1F2C38002010B5034B1C6824021AF0D2F9204410BD8C9CFF1FED
:200FC00000B583B06946052200231BF0EFFB68461FF0F6FA03B05DF804FB00BF08B5064BBA
:200FE00000221A731A7101E01AF040FF1AF08AFF0028F9DC08BD00BFA43C002038B50D4C33
:2010000023680D4D29881B682046090A984723681B682046297898472368084D29881B6857
:201020002046090A984723681B6820462978984738BD00BFA43C0020663700207437002028
:201040002DE9F0471C4B1B78012B00D020B11B4C04F516461A4D1EE0DFF8608008F5164A47
:201060004FF00009164E374613E038F8045033681B683846290A984733681B683846E9B2EB
:2010800098470434B4F5A07FEFD108F52078D04510D04C46E9E721882B681B682846090A85
:2010A00098472B6834F8021B1B682846C9B29847B442F0D1BDE8F087649CFF1F409FFF1F3C
:2010C000A43C002010B5214B18781AF0C3FF204C23681B6820461F4A117898471E4B1878D9
:2010E0001AF0B8FF23681B6820461C4A1178984723681B6820461A4A11789847194B1B78B6
:201100001BB900201AF0A6FF05E0114803681B68154A11789847134B1B781BB900201AF04A
:2011200099FF05E00A4803681B68104A117898470F4B1B7823B10F4B197881F0010100E031
:201140000021034803681B68984710BD649CFF1FA43C0020A09DFF1FBC9DFF1F9C9CFF1F43
:20116000A29CFF1FB09CFF1F809BFF1F68370020A19DFF1F819BFF1F08B5FFF77BFCFFF7FB
:20118000EBFC08BD2DE9F041ACB04E4B1B680293029D4C4C1AF0B6FE30B923680393039BB2
:2011A0005B1BB3F57A7FF5D31AF0ACFE002800F0858004A8444978221BF058F90CA804A9EF
:2011C000002204231BF00AFB10A84FF4FC610A221BF040FA0CA810A91BF0E2FA014608A8A2
:2011E0001BF024FA08A8FFF7EBFE044608A81BF095F910A81BF092F90CA81BF08FF9002CE3
:2012000059D014A804A90B220D231BF0E7FA14A8FFF7D6FE074618A804A90E2210231BF045
:20122000DDFA18A8FFF7CCFE06461CA804A9112213231BF0D3FA1CA8FFF7C2FE054620A8CC
:2012400004A908220A231BF0C9FA20A8FFF7B8FE044624A804A9052207231BF0BFFA24A8A4
:20126000FFF7AEFE804628A804A9002204231BF0B5FA28A8FFF7A4FECDF8008001903846CA
:2012800031462A46234614F0A3F828A81BF046F924A81BF043F920A81BF040F91CA81BF057
:2012A0003DF918A81BF03AF914A81BF037F914F009F819F0C1FF04A81BF030F92CB0BDE8D4
:2012C000F08100BF9C3B0020A43C002070B50A4C04F5C076094D21882B681B682846090AA7
:2012E00098472B6834F8021B1B682846C9B29847B442F0D170BD00BFC09DFF1FA43C0020CA
:2013000008B5034803681B68024A1178984708BDA43C00206037002008B5024B18781AF003
:2013200099FE08BD7737002008B5034803681B68024A1178984708BDA43C002016380020A6
:2013400008B5034803681B68D821984708BD00BFA43C002048F68000C0F20300D0F800D030
:20136000D0F804F0704700BF1D4B4FF400721A601C490A601C4A116821F4802111604FF48C
:2013800000021A604FF080721A604FF000721A604FF080621A604FF000621A60134A13686D
:2013A00013F0800FFBD1114B1B6813F0400F04D00E4B1A6842F040021A600D4B1B6813F023
:2013C000800F04D00A4B1A6842F080021A60A022084B1A700023084A1360043213607047BE
:2013E00088E100E088E200E03480044024B00B4000B00B40004006404480044008B50020DD
:2014000019F0DEFBAE2808D10020014619F0EEFB72B6FFF7A9FFFFF79DFF08BD08B50020E8
:20142000AE2119F0E3FB024A024B1A6008BD00BF0400FA050CED00E008B5802019F0C0FB62
:20144000022814D80C4B1870012805D10B480C49002211F081FC06E0022804D107480949CA
:20146000002211F079FC0022074B1A7008BD0022014B1A7008BD00BF1F380020B09DFF1FB3
:20148000E0930400804F1200889BFF1F08B50420012119F013FF0420002119F0DDFE00214B
:2014A000024B1970022019F009FF08BD6037002008B50620012119F001FF0920012119F045
:2014C000FDFE0A20012119F0F9FE0F20012119F0F5FE1420012119F0F1FE1520012119F0CA
:2014E000EDFE0620012119F0B7FE0920012119F0B3FE0A20012119F0AFFE0F20012119F09A
:20150000ABFE1420012119F0A7FE1520012119F0A3FE13F083FC08BD30B587B00F4B1869DF
:20152000597B002914BF0323002300240094019302940394012504952246234610F0EEFBA0
:20154000064B18694FF47A72C0F86422597B009522462B4610F042FB07B030BDB83A002017
:2015600038B50C201AF0FAFE05460FF0DFF80F4C2560284604214FF0FF320FF025F92068A7
:201580000C214FF0FF320FF0FFF8206802214FF0FF320FF009F9206802214FF0FF320FF082
:2015A0000BF91720002119F089FE38BDF837002010B54FF48072184B1A604FF4107203F567
:2015C0007F631A6038B3154901F58C6001F26C411422022311F084FCE8B1104C04F23C40A1
:2015E00012F0D2FA2046012113F080FB20B92046002113F07BFB70B1084901F23C4012F05B
:201600005BF840B1054B93F83C3413F0700F02D0034A044B1A6010BD14B004400497FF1F43
:20162000409BFF1FCC3A002008B5444B1B78012B3DD1434B1B78002B28D072B6404B1B78E8
:2016400013F0010F07D03F4B19683F4A12680A403E490A601A603A4B1B7813F0020F07D0DA
:201660003B4B1968384A52680A4038494A601A60334B1B7813F0040F07D0364B1968324ABC
:2016800092680A4031498A601A6062B6324BDB68B3F1384F47D0304B304A1A604FF03842E6
:2016A000DA604FF078421A612D4A1A603BE0244B1B78002B28D072B6214B1B7813F0010F11
:2016C00007D0204B1968204A12680A401F490A601A601B4B1B7813F0020F07D01C4B196801
:2016E000194A52680A4019494A601A60144B1B7813F0040F07D0174B1968134A92680A409A
:2017000012498A601A6062B6134BDA68154B9A4209D0114B114A1A60124ADA6002F18042C1
:201720001A610F4A1A60104B1B7813B10020FFF73FFF0F20002119F08FFD08BD649CFF1F8D
:20174000EC3A002080E100E0D43A0020E03A002084E100E088E100E000C0024001401F00AA
:2017600000001F80000001BAA03A00204FF41072034B1A604FF4807203F57F631A60704748
:2017800014B00440F8B512480FF06EFE84B20020FFF70EFF9CB10E4F0E4E402CB4BF254626
:2017A0004025EDB2384629460FF07EFE014630462A4612F051FB641BA4B2002CEDD1054836
:2017C00012F0E2F9FFF7D2FF01480FF093FDF8BD303A0020E096FF1F08B50122114B1A6004
:2017E000114B1B78C3B113F0010F03D00F4B1A680F4B1A600C4B1B7813F0020F03D00B4BC9
:201800005A680C4B1A60084B1B7813F0040F03D0064B9A68084B1A60084B1B780BB1FFF7AE
:20182000A5FF08BD84F00F40EC3A0020E03A002000E100E004E100E008E100E0A03A0020B3
:2018400010B50120FFF7B4FE054C204613F000FA2479640804FB00F4FFF788FF204610BD9A
:201860000497FF1F10B50020FFF7A2FE064811F029FC0446054B1860FFF778FF04F2FF70DC
:20188000C0F3CF2010BD00BFA49CFF1F8C9CFF1F30B58DB0FFF7E6FF044620B91748184996
:2018A0001AF0B2FE28E0FFF7CBFF810A04A80A221AF0D0FE684604A91AF09AFE6846114966
:2018C0001AF044FF054608A8611E0A221AF0C2FE284608A91AF030FF0B491AF037FF014618
:2018E00006481AF07BFE08A81AF018FE68461AF015FE04A81AF012FE0DB030BD04380020B0
:2019000050D2020058D202005CD20200F8B50020FFF74EFE974C204604F109011422022395
:2019200011F0DEFA204611F0CDFB934B186000F2FF73C3F3CF23914A1380102B03D8022196
:201940008F4A11701FE0202B03D804218C4A117019E0402B03D80821894A117013E0802B32
:2019600003D81021864A11700DE0B3F5806F03D82021834A117006E0B3F5004F94BF40218B
:2019800080217F4A1170B3F5807F8CBF3F2120217C4A1170102B03D802227B4B1A7027E0F1
:2019A000202B03D80422784B1A7021E0802B03D80822754B1A701BE0B3F5FC7F03D8102268
:2019C000714B1A7014E0B3F57C7F03D820226E4B1A700DE0B3F5FC6F03D840226A4B1A704E
:2019E00006E0B3F57C6F94BF8022FF22664B1A704FF48072654B1A60614B1F78A0F58072F4
:201A0000B2FBF7F202F20111090A614B1960490001F1A104B4F5807F16D84FF480731C1B0F
:201A200004F180005B4B186001205B4B188081345A480460213107FB0212594B1A6047F636
:201A4000A7739A4218D91BE04D4B1F784FF4C073C21AB2FBF7F202F201152D0A690001F1F1
:201A6000A10403F18006A34204D34848036048480560D4E73346EBE701224A4B1A7006E075
:201A8000B2F5803F34BF04220622464B1A70FFF7FDF90120FFF7BAF94349EB230B70002396
:201AA0004B7090238B704B1E073120220133DA708B42FBD13C4C0027E77202232373304B85
:201AC0001B786373344B1B88E3810223237423694FF4007262F317232361F82363752C4E9A
:201AE0003368E382274B1B782383274B1B786383284D2B68E3612A4B1B682362802384F868
:201B00002430292384F82630FFF750FAC4F82700264B03CBC4F82B00C4F82F1019889B785B
:201B2000A4F8331084F83530214B03CBC4F83600C4F83A102868FFF77DF9184D2B68134A62
:201B400011681846C91AFFF713FA3846FFF75EF94FF6F87323804FF6FF7363802868FFF78A
:201B600069F930682B681844FFF764F9FFF7FEFDF8BD00BFA49CFF1F8C9CFF1F789CFF1FEE
:201B80009D9CFF1F21380020AC9DFF1F809CFF1F7C9BFF1F949CFF1FCA96FF1F849BFF1F96
:201BA000849CFF1FC896FF1F2C3800206487FF1F7887FF1F10B5054C20460FF0C5FA204621
:201BC0000FF09EFA003018BF012010BDB49CFF1F70B584B0294B1A680092009C1B68019377
:201BE000019D2D1B254EFFF7E5FF40B3B5F57A7F2EDD24E0224B1B78B72B03D1B422204B16
:201C00001A7038E01F4B1B7813F0FF0F08D11C4B1B78B62B21D103E0FFF7CCFF0028FBD1D6
:201C2000184B1B78DBB2022B25D1154B1B78B52B1AD120E0FFF7BEFF0028FBD11BE00F4A45
:201C400012680392039B1B1BB3F57A7FD2DBD9E733680293029D2D1BC5E7B522084B1A701C
:201C60000222084B1A70D7E7B622054B1A700022044B1A70DEE704B070BD00BF9C3B00209C
:201C80007087FF1F1538002070B584B02D4B1B7813F0FF0F23D12C4B1B7813F0FF0F1ED14F
:201CA0002A4B1B7813F0FF0F19D1294B1B7813F0FF0F14D1274B1B7813F0FF0F0FD128E026
:201CC000FFF778FF002831D0B4F57A7F32DD2DE002221F4B1A7002E001221B4B1A701A4B3E
:201CE0001B78DBB2022B07D10322174B1A70FFF761FF0028FBD122E0134B1B78DBB2032BB6
:201D00001DD10122104B1A70FFF754FF0028FBD115E0114C23680193019D0A2019F042FB11
:201D200023680293029C641B0B4EC9E7B4F57A7FCEDBD1E733680393039C641BC0E704B0B0
:201D400070BD00BFE595FF1F153800207C9CFF1FE695FF1F783700209C3B002008B516200A
:201D6000002119F079FA08BD08B51620012119F073FA08BD08B5162019F092FA003018BF22
:201D8000012008BD034B1B7843FA00F000F00100704700BF9087FF1F044B012202FA00F055
:201DA000197821EA00021A70704700BF9087FF1F10B5184C20464FF4E1310FF0C5FA204648
:201DC0005F210FF01BFB20460FF046FBA8B9642019F0E8FA20460FF07DFA20464FF4E13161
:201DE0000FF0B2FA20465F210FF008FB20460FF033FB10B90220FFF7CFFF064C20460FF057
:201E000079FA20460FF0DEFA10B10020FEF718FE10BD00BF303A002010B5694C23685B6848
:201E2000204668491822984720461AF09FFA0020FFF7A8FF48B123685B6820466249102222
:201E4000984720461AF092FA09E05D4C23685B6820465E491422984720461AF087FA012093
:201E6000FFF790FF50B1564C23685B68204658490C22984720461AF079FA09E0504C2368E5
:201E80005B68204653491022984720461AF06EFA0220FFF777FF50B1494C23685B682046BC
:201EA0004D491222984720461AF060FA09E0444C23685B68204649491622984720461AF069
:201EC00055FA0320FFF75EFF50B13D4C23685B68204643491122984720461AF047FA09E0C7
:201EE000374C23685B6820463E491522984720461AF03CFA0420FFF745FF50B1304C236802
:201F00005B68204638490C22984720461AF02EFA09E02B4C23685B682046344910229847D0
:201F200020461AF023FA0520FFF72CFF50B1244C23685B6820462E491222984720461AF0AF
:201F400015FA09E01E4C23685B68204629491622984720461AF00AFA0620FFF713FF50B13F
:201F6000174C23685B68204623491222984720461AF0FCF909E0124C23685B6820461F4903
:201F80001622984720461AF0F1F90720FFF7FAFE50B10B4C23685B6820461949102298473C
:201FA00020461AF0E3F910BD054C23685B68204614491422984720461AF0D8F910BD00BFC4
:201FC000A43C002060D202007CD2020090D20200A8D20200B8D20200CCD20200E0D20200BD
:201FE000F8D202000CD3020024D3020034D3020048D302005CD3020074D3020088D302003E
:20200000A0D30200B4D3020008B5114B1B787BB11048872117F048FE0F4B93F824301BB198
:2020200001220D4B1A7408BD01220B4B5A7008BD08482D2117F038FE074B93F824301BB1F2
:202040000022054B1A7408BD0022034B5A7008BDA09DFF1F949BFF1FE895FF1F10B582B082
:20206000094C2046012117F049FFFFF7CDFF074B2360812018F0A4FDC82809D181200021C7
:2020800018F0B4FD9DE200BF949BFF1F409FFF1FFA2018F095FDD82840F09382AC4C0A23E1
:2020A0000093204619461A4614F0A0FC20464FF4784115F091FCA74B1B78002B28D072B604
:2020C000A44B1B7813F0010F07D0A34B1968A34A12680A40A2490A601A609E4B1B7813F026
:2020E000020F07D09F4B19689C4A52680A409C494A601A60974B1B7813F0040F07D09A4B53
:202100001968964A92680A4095498A601A6062B6964BDB68B3F1384F0AD0944B944A1A6060
:202120004FF03842DA604FF078421A61914A1A60874B93F8CF301B0443F0004343F02A0392
:202140008A4A5363D36A13F0F00F18BF916B03F47043B3F5405FF5D87D4B93F8CE301B04B5
:2021600043F0104343F00A03804A5363D36A13F0F00F18BF916B03F47043B3F5405FF5D849
:20218000734B93F8CE301B0443F0104343F00A03764A5363D36A13F0F00F18BF916B03F494
:2021A0007043B3F5405FF5D8694B93F8CF301B0443F0004343F02B036C4A5363D36A13F078
:2021C000F00F18BF916B03F47043B3F5405FF5D85F4B93F8CE301B0443F0104343F00A0357
:2021E000624A5363D36A13F0F00F18BF916B03F47043B3F5405FF5D8554B93F8CE301B0465
:2022000043F0104343F00A03584A5363D36A13F0F00F18BF916B03F47043B3F5405FF5D8D0
:202220004B4B93F8CF301B0443F0004343F02E034E4A5363D36A13F0F00F18BF916B03F42E
:202240007043B3F5405FF5D8484AD36A002BFCDA464B9A6B3E4A92F8CE20120442F00042C7
:202260005A631A464FF2F001D36A13F0F00F18BF906B0B42F8D1364A92F8CE10090441F0C2
:2022800000413A4B596392F8CE10090441F00041596392F8CE20120442F000625A631A46DA
:2022A000D36A13F0805FFBD0304B4FF08052DA629A6B996B986B9A6B264B1B78C3B113F0E0
:2022C000010F03D0264B1C682B4B1C60214B1B7813F0020F03D0224B5C68284B1C601D4BC6
:2022E0001B7813F0040F03D01D4B9C68244B1C6001F0F80100F0FC03DB0043EA0123C2F351
:20230000C40213431BB213F5006F00F05A81642019F048F80E4C0A230093204619461A4686
:2023200014F064FB20464FF4784115F055FB094B1B78002B44D072B6064B1B7813F0010F3E
:2023400023D0054B1968054A12680A401AE000BF949BFF1FEC3A002080E100E0D43A0020EB
:20236000E03A002084E100E088E100E000C0024001401F0000001F8000E100E004E100E00E
:2023800008E100E090490A601A60904B1B7813F0020F07D08E4B19688E4A52680A408A4955
:2023A0004A601A60894B1B7813F0040F07D08A4B1968884A92680A4083498A601A6062B6F1
:2023C000864BDB68B3F1384F0AD0844B844A1A604FF03842DA604FF078421A61814A1A6021
:2023E000814B93F8CF301B0443F0004343F02A037A4A5363D36A13F0F00F18BF916B03F40F
:202400007043B3F5405FF5D8774B93F8CE301B0443F0104343F00A03704A5363D36A13F015
:20242000F00F18BF916B03F47043B3F5405FF5D86D4B93F8CE301B0443F0104343F00A03E6
:20244000664A5363D36A13F0F00F18BF916B03F47043B3F5405FF5D8634B93F8CF301B04EF
:2024600043F0004343F02B035C4A5363D36A13F0F00F18BF916B03F47043B3F5405FF5D859
:20248000594B93F8CE301B0443F0104343F00A03524A5363D36A13F0F00F18BF916B03F4CF
:2024A0007043B3F5405FF5D84F4B93F8CE301B0443F0104343F00A03484A5363D36A13F0C5
:2024C000F00F18BF916B03F47043B3F5405FF5D8454B93F8CF301B0443F0004343F02E0359
:2024E0003E4A5363D36A13F0F00F18BF916B03F47043B3F5405FF5D8384AD36A002BFCDA0E
:20250000364B9A6B384A92F8CE20120442F000425A631A464FF2F001D36A13F0F00F18BF4C
:20252000906B0B42F8D1304A92F8CE10090441F000412A4B596392F8CE10090441F0004111
:20254000596392F8CE20120442F000625A631A46D36A13F0805FFBD0204B4FF08052DA62DE
:202560009A6B9A6B986B996B184B1B78C3B113F0010F03D0144B1C681C4B1C60134B1B7843
:2025800013F0020F03D0104B5C68194B1C600F4B1B7813F0040F03D00B4B9C68154B1C6049
:2025A00002F0F80200F0FC03DB0043EA0222C1F3C40313431BB213F5006F02D00120FFF716
:2025C000EBFB02B010BD00BFE03A0020EC3A002084E100E0D43A002088E100E000C0024099
:2025E00001401F0000001F80949BFF1F00E100E004E100E008E100E010B582B00520002103
:2026000018F05CFE1148124B03621030802113F0B5FF20B101220D4B83F8242013E00B4C50
:20262000204614F00FF894F8243063B96846214614F0A6F9BDF9003013B9BDF9023013B117
:202640000320FFF7A9FB02B010BD00BFE895FF1F889BFF1F38B5002425462046294618F04A
:20266000C5FA0134B4F5006FF7D138BD10B5992018F0A6FA0446431EDBB2022B00F2848010
:20268000012830D17E2018F09BFAC8282DD10BE0902018F095FAC82868D129E0982018F0C3
:2026A0008FFAC82862D142E07C2018F089FA374B1870792018F084FA354B18707A2018F052
:2026C0007FFA344B18707B2018F07AFA324B18707D2018F075FA1DF00DFD30491DF012FE9D
:2026E0002F4B186010BD0228D2D0032C3ED1D5E78E2018F065FA254B18708B2018F060FA3B
:20270000234B18708C2018F05BFA224B18708D2018F056FA204B18708F2018F051FA1DF0BE
:20272000E9FC1E491DF0EEFD1D4B186010BD942018F046FA154B1870912018F041FA144B71
:202740001870922018F03CFA124B1870932018F037FA114B1870952018F032FA1DF0CAFC90
:202760000E491DF0CFFD0E4B186010BD0023074A1370094A1370064A1370064A13704FF0D9
:202780007C52074B1A6010BD0024AEE7723700209E9CFF1F1C380020749BFF1F0000C8424D
:2027A0004035002008B5114B1B78022B05D110484FF4784115F0D8F808BD012B04D10C4892
:2027C000002115F0D1F808BD032B05D108484FF4806115F0C9F808BD042B05480CBF1F21BB
:2027E0004FF6FF7115F0C0F808BD00BF17380020949BFF1F70B582B005460E46FFF7D2FF6A
:20280000134C20464FF0FF3115F0CEF82046114916F0DAFC4EB1002300932046294642F25F
:202820000E72AA2316F002FB08E0002300930848294642F20E72462316F0F8FA044806493B
:2028400016F0C2FC4FF47A7018F0ACFD02B070BD949BFF1FB03C03009448030030B583B0C4
:20286000054631B91848C8210A460B4615F060F80FE0154C2046C8210A460B4615F066F839
:20288000EA230093204606210A464FF49D7315F0C1FC0D4C20460D4916F096FC2046C821AA
:2028A0000A460B4615F06EF82046002115F05CF8002300932046294642F20E726E2316F056
:2028C000B5FA03B030BD00BF949BFF1F94480300F8B5334C206817214FF0FF320DF07CFFEA
:2028E0000546206800210DF057FF064628461DF001FC4FF07F511DF051FC2A491DF04EFC9A
:20290000054630461DF0F2FB014628461DF0FAFC0546206828214FF0FF320DF05DFF074612
:20292000206800210DF038FF064638461DF0E2FB4FF07F511DF032FC1A491DF02FFC0446D7
:2029400030461DF0D3FB014620461DF0DBFC0446284615491DF0B6FD88B120464FF07E5112
:202960001DF0C4FD58B111480021FFF777FF4FF47A7018F017FD0520FFF70EFA05E02046E3
:202980004FF07E511DF0B2FD20B1284608491DF0FDFA05462846FDF7E5FF064B1870F8BDBA
:2029A000F837002033335340000080BFCCD30200CDCC4C3D1638002070B582B0012002A93C
:2029C00001F8010DFEF754F964240A2501260EE030460DF10701FEF74BF9631E13F0FF04A6
:2029E00005D108480021FFF739FF002008E0284618F0D8FC9DF80720002AE9D0024B1868A4
:202A000002B070BDECD302002438002070B582B002A9012301F8013D0020FEF729F964247E
:202A20000A2500260EE030460DF10701FEF720F9631E13F0FF0405D108480021FFF70EFFF8
:202A4000002008E0284618F0ADFC9DF80720002AE9D0034B186802B070BD00BF10D402005E
:202A6000789BFF1FF0B583B00B271E4C2A260025204631460FF096FA23681B6820462946ED
:202A8000984723681B6820460421984723681B6820460221984723681B68204642219847B3
:202AA0002169627B0095204601230FF055FD90B10A2018F077FC013F17F0FF07D8D10A4811
:202AC0000021FFF7CBFE4FF47A7018F06BFC0620FFF762F903E04FF4FA6018F063FC03B069
:202AE000F0BD00BFB83A002034D4020070B58CB0344C20462A210FF055FA23681B682046FA
:202B00000021984723681B6820460421984723681B6820464821984723681B6820461C21D0
:202B200098472169627B00230093204601230FF013FD58B124480021FFF790FE4FF47A70B9
:202B400018F030FC0620FFF727F938E01D482A210FF028FA02242046FEF73AF910F0010F58
:202B6000F9D10620FEF734F90346164C2069617B01250095002601962A220FF001FD20460C
:202B800003A9202219F05CFC2169627B009620462B460FF0E1FC03A80C491EF02DFF10B13B
:202BA0000B4B1E700BE003A80A491EF025FF18B10122074B1A7002E00222054B1A700CB0B2
:202BC00070BD00BFB83A002050D4020074D40200649CFF1F7CD402002DE9F04F83B040F25D
:202BE000DC5018F0DFFBFFF781FF3F4B1B78022B05D001223D4B1A70FFF734FF02E00222CE
:202C00003A4B1A703A4B1B680093009A394B1A600023394A13700021384A11600121384A91
:202C20001170384A1370FEF7FFFCDFF8E8C04FF0010BDE46344D354B05F1A304DFF8D8A043
:202C4000DFF8AC90DFF8AC80CCF800E02A78196841F4806119604FF00041D9625A63294621
:202C60004FF000474878DA6A002A22DBFBE7DA6A002A2ADBFBE7D9F8002001920199D8F87E
:202C800000208A1AB2F57A7FDED3FEF7A5FD1E4B1B7803F00F030F2B22D11D480021FFF7DE
:202CA000DDFD4FF47A7018F07DFB0720FFF774F816E09A6B1E6846F480661E60DF625863E9
:202CC00001F8012BA142CDD1D1E79A6B85F8A320CAF800B02A7802F00F020F2AD5D1CAE7AA
:202CE00003B0BDE8F08F00BF649CFF1F773700209C3B0020989CFF1FB09CFF1FE095FF1F0C
:202D0000A19DFF1F819BFF1F2496FF1F00C0024084D4020088F00F4084F00F4010B528482A
:202D2000284919F071FC284B1B78002B44D00020FEF73EFC254901F58C6001F26C411422F2
:202D4000022310F0CDF800B3204C04F23C4010F01BFF2046012111F0C9FF20B9204600212D
:202D600011F0C4FF88B1194901F23C4010F0A4FC034650B1154A92F83C2412F0700F1DBFF5
:202D80001349144A116000235BB913480021FFF765FD4FF47A7018F005FB0420FEF7FCFFB4
:202DA00006E00E49084609311422022310F098F8FEF7DCFCFEF76CFD094A0A4B1A6010BD49
:202DC00004380020A0D40200A03A00200497FF1F409BFF1FCC3A0020ACD40200A49CFF1F6F
:202DE00029070000D03A002038B513480121FFF735FD4FF47A7018F0D5FAFEF7AFFF0F4CE5
:202E000004F1100594F824301BB1284613F08CFB02E0204613F0DAFD0028F3D0074B1B6A20
:202E2000012119700648FFF719FDFEF79DFF4FF47A7018F0B7FA38BDC4D40200E895FF1FEC
:202E4000E8D4020010B50F480FF05EFF98B10E4B1B7893B9002010BDFFF7C6FF09480FF0C3
:202E600071FF012010BD0024084B1C7005480FF069FF204610BD002010BD044B1B78002B10
:202E8000F1D1E9E7B09DFF1F1F380020889BFF1F10B50446124B1B7883B10420002118F0FD
:202EA000DBF900220E4B1A70C4B10E480121FFF7D5FC4FF47A7018F075FA10BD04200121CE
:202EC00018F0CAF90122064B1A703CB106481146FFF7C4FC4FF47A7018F064FA10BD00BFC2
:202EE00060370020FCD4020010D5020000B583B0124812F085FA12F065FAB0F5FC6F1ADA3A
:202F0000962017F05DFEC82815D10D480021FFF7A5FC4FF47A7018F045FA012300934FF448
:202F2000FC62019200200146024612F051FA12F0C9F918F081F903B05DF804FB79070000D7
:202F400024D5020010B51F4B1B78002B37D10020FEF72EFB1C4901F58C6001F26C41142226
:202F600002230FF0BDFF00B3174C04F23C4010F00BFE2046012111F0B9FE20B92046002140
:202F800011F0B4FE88B1104901F23C4010F094FB034650B10C4A92F83C2412F0700F1DBF07
:202FA0000A490B4A1160002353B90A480021FFF755FC4FF47A7018F0F5F9002300E00123C5
:202FC000184610BDA03A00200497FF1F409BFF1FCC3A002048D5020008B5FA2017F0F0FD0A
:202FE000D8283BD01E4B1B7833B9FFF733FB1D480021FFF733FCFEE7D72823D8C72806D863
:20300000FFF728FB17480021FFF728FCFEE7D4280FD89920002117F0E9FD7E20002117F0A8
:20302000E5FD9020002117F0E1FD9820002117F0DDFD0D480021FFF711FC4FF47A7018F090
:20304000B1F907E009480021FFF708FC4FF47A7018F0A8F9FA20D82117F0C8FD08BD00BF3A
:20306000A03A002060D5020084D502009CD5020030B583B0054631B11A48C8210A460B4620
:2030800014F056FC0FE0174C2046C8210A460B4614F05CFCEA230093204606210A464FF47C
:2030A0009D7315F0B7F80F4C20460F4916F08CF82046C8210A460B4614F064FC20460021CE
:2030C00014F052FC002300932046294642F20E72192315F0ABFE2046044916F075F803B09C
:2030E00030BD00BF949BFF1FB03C030094480300F0B585B045480021FFF7BAFF444D2846D3
:20310000002114F031FC434E2846314616F05CF82846C8210A460B4614F034FC00240094A9
:2031200028463D4942F20E72412315F07FFE009428463A4942F20E72552315F077FE009442
:203140002846374942F20E72692315F06FFE00942846344942F20E727D2315F067FE324D13
:20316000284617F03BFA2846304917F03FFC372700972F4B0193029403942846A521A02256
:203180008C2317F045F800972A4B01930294039428460F21A0228C2317F03AF8284617F0B2
:2031A000F9F92846314617F021FC234C04F11006012594F824301BB1304613F0B5F902E0BF
:2031C000204613F003FC10B1236A1D70F1E71A4C04F1100594F824301BB1284613F0A4F9AA
:2031E00002E0204613F0F2FB0028F3D0236A012119700D48002217F021FA10B10128E9D137
:2032000001E0012000E0002005B0F0BDB4D50200949BFF1F94480300C8D50200ECD5020031
:203220000CD602002CD602005C350020B03C030050D6020054D60200E895FF1F08B50F4B00
:203240001B7843B90E480021FFF708FB4FF47A7018F0A8F808BDFFF74BFF68B1094800210A
:20326000FFF7FCFA40F2DC5018F09CF88120C82117F0BCFCFEF7D2F808BD00BFA03A0020E2
:2032800058D6020078D6020030B583B0894C2046C8210A460B4614F04BFB2046864915F04D
:2032A00093FF2046C8210A460B4614F06BFB20461F2114F059FB0025009520467F4942F208
:2032C0000E720A2315F0B2FD20467D4915F07CFF009520467B4942F20E72DC2315F0A6FDC7
:2032E0002046294614F040FB0095204676493222134615F09BFD0095204674493222462341
:2033000015F094FD00952046714932225A2315F08DFD009520466F4932226E2315F086FDE2
:20332000009520466C493222822315F07FFD009520466A493222962315F078FD0095204633
:2033400067493222AA2315F071FD0095204665493222BE2315F06AFD2846FEF713FD38B183
:20336000009520466049DC22322315F05FFD09E0002400944F485D49DC22322315F056FD6C
:203380005B4B1C700120FEF7FDFC40B10023009348485549DC22462315F048FD07E000235C
:2033A000009344485149DC22462315F03FFD0220FEF7E8FC40B1002300933E484A49DC22F3
:2033C0005A2315F033FD09E00024009439484749DC225A2315F02AFD464B1C700320FEF7AD
:2033E000D1FC40B10023009332483F49DC226E2315F01CFD07E0002300932E483B49DC2215
:203400006E2315F013FD0420FEF7BCFC40B10023009328483449DC22822315F007FD07E00E
:203420000023009323483149DC22822315F0FEFC0520FEF7A7FC40B1002300931D482A4913
:20344000DC22962315F0F2FC07E00023009319482649DC22962315F0E9FC0620FEF792FC0B
:2034600040B10023009313481F49DC22AA2315F0DDFC07E0002300930E481C49DC22AA2316
:2034800015F0D4FC0720FEF77DFC40B10023009308481549DC22BE2315F0C8FC07E00023BB
:2034A000009304481149DC22BE2315F0BFFC03B030BD00BF949BFF1FB03C030098D6020029
:2034C00094480300A8D60200CCD60200DCD60200ECD60200FCD602000CD702001CD70200C3
:2034E0002CD702003CD702004CD70200F0D20200A29CFF1F6C9CFF1F08B5064B1B78FF2B7C
:2035000007D0FEF789FCFFF7BFFE4FF4FA6017F049FF08BD9087FF1F08B5104B1B7863B9FA
:203520000F4B1B7823B90F480021FFF763F911E00D480021FFF75EF90CE0012B04D10B4804
:203540000021FFF757F905E0022B03D108480021FFF750F90322074B1A7008BD2A38002026
:203560006437002054D7020068D702007CD7020090D70200E695FF1F30B583B00546104C0C
:203580002046104915F020FE2046002114F0ECF92046C8210A460B4614F0F4F90223009340
:2035A000302301932046294642F20E72502315F013FD2046044915F007FE03B030BD00BFF7
:2035C000949BFF1FB03C03009448030070B506460D4608460D491CF0E1FD1CF0A5FF0C4C76
:2035E00084FB0034C217C2EB6414642202FB140428461CF099FF02463046064984EAE4739B
:20360000A3EBE4731DF036FE70BD00BF0000C8421F85EB51A4D7020070B584B0244E2548F9
:20362000314617F0E3F9244C2046314615F0CCFD2046FF210A460B4614F07AF920461F49A9
:2036400015F0C2FD2046FF210A460B4614F09AF92046002114F088F995230093184B01939A
:20366000184B029320465A2123228C2313F06AFC002500952046144942F20E72C22315F0F9
:20368000D5FB2046314615F09FFD009520460F4942F20E720A2315F0C9FB009520460C498F
:2036A00042F20E72DC2315F0C1FB04B070BD00BF944803005C350020949BFF1FB03C03002A
:2036C0007062020020C90200ACD70200B4D70200C4D7020000B58BB00D4B1B680293029A80
:2036E0000C4B1B68D21A0C4BA3FB0212920903A80A49C2F13C021DF0BDFD002300930848A4
:2037000003A92D22C82315F091FB0BB05DF804FB9C3B0020989CFF1FD34D6210E4D702008B
:20372000949BFF1F10B582B00020FFF7D1F8174B19784BB2B3F1FF3F07D1002300931448AA
:203740001449F02215F072FB1DE041B9002300930F4811494FF4877215F068FB13E00C4C3B
:203760000323009320230193204649B24FF48C72002315F031FC00230093204607494FF413
:203780009B7215F053FB02B010BD00BF16380020949BFF1F00D802000CD802000CE602001C
:2037A0002DE9F04182B03A4B1B79002B36D011F0F5FD0146364D4FF00208CDF800803027A4
:2037C000019728460522002315F006FC314E00240094284631461722234615F027FB11F0AC
:2037E000E7FD0146CDF80080019728461B22234615F0F2FB0094284631462D22234615F085
:2038000015FB11F0DFFD0146042300932023019328463122234615F0DFFB35E011F0BEFD09
:2038200001461B4D4FF00208CDF800803027019728460522002315F0CFFB164E00240094B9
:20384000284631461422234615F0F0FA11F0B0FD0146CDF80080019728461B22234615F00A
:20386000BBFB0094284631462A22234615F0DEFA11F0A8FD0146042300932023019328469B
:203880003122234615F0A8FB02B0BDE8F08100BF949BFF1FB4E5020030B58BB0204B1B7936
:2038A0009BB1204B1B78002B37D002A81E4918F09FFE002300931A4802A9CF22E42315F016
:2038C0006BFB02A818F02AFE27E0164B1B78ABB9134C0025009520461449DC22E42315F063
:2038E000A5FA0095202301932046D8214FF49172E42315F071FB0B4B1B7873B106A80A4992
:2039000018F076FE00230093054806A9E622E42315F042FB06A818F001FE0BB030BD00BF0C
:20392000949BFF1FA03A00200438002010D802002DE9F04182B0384B1B79002B34D011F03A
:203940000FFD0146344C022600963025019520460522E42315F040FB304F4FF00008CDF88C
:203960000080204639461722E42315F05FFA11F001FD01460096019520461B22E42315F023
:203980002BFBCDF80080204639462D22E42315F04DFA11F0F9FC0146009601952046312213
:2039A000E42315F019FB33E011F0DAFC01461A4C022600963025019520460522E42315F00E
:2039C0000BFB164F4FF00008CDF80080204639461422E42315F02AFA11F0CCFC01460096FF
:2039E000019520461B22E42315F0F6FACDF80080204639462A22E42315F018FA11F0C4FC3D
:203A000001460096019520463122E42315F0E4FA02B0BDE8F08100BF949BFF1F1CD80200C6
:203A200030B583B0194C204678210A460B4613F08DFFEA230093204606210A464FF49D730A
:203A400014F0E8FB2046C8210A460B4613F07EFFB42500952046062124224FF49D7313F078
:203A600001F92046002113F07FFF2046062124224FF49D7314F07EFA204606212A464FF462
:203A80009D7314F077FA03B030BD00BF949BFF1FF0B585B0264C204616F0A0FD20462549CC
:203AA00016F0A4FF4D270097234B0193002502950126039620460F212D22262316F0A8FBFD
:203AC00000971E4B019302950396204640F20B112D22262316F09CFB28230093184B019364
:203AE0000295039520460F21BC22782316F090FB23230093134B01930295039520465F2117
:203B00008422822316F084FB204616F043FD0E4C20461F2113F028FF6F2300932046412112
:203B2000392240F2011314F025FD05B0F0BD00BF5C350020B03C030020D8020024D8020005
:203B400028D80200DCD20200949BFF1F30B583B005460D4C20460D4915F036FB20467821B9
:203B60000A460B4613F00EFF20464FF6FF7113F0FBFE002300932046294642F20E720E230D
:203B800015F054F903B030BD949BFF1FB03C030030B583B00546114C20464FF6FF7113F019
:203BA000E3FE6F230093204642213A2240F2011313F058F820464FF6FF7113F0F5FE2046CA
:203BC0001F2113F0D1FE002300932046294642F20E724D2315F02AF903B030BD949BFF1F0F
:203BE000F0B585B0002849D1FFF71AFF3748FFF7ADFF374C2046002113F0B6FE2046C82169
:203C00000A460B4613F0BEFE2046324915F0DCFA002500952046304942F20E723F2315F0D4
:203C200005F9009520462D4942F20E72602315F0FDF82B4E304616F0D1FC2A4F30463946B4
:203C400016F0D4FE28230093274B01930295039530465A21BC228C2316F0DAFA304616F0A5
:203C600099FC2046394615F0AFFA009520461F4942F20E728C2315F0D9F825E0144C2046B5
:203C8000C8210A460B4613F053FE2046154915F09BFA2046C8210A460B4613F073FE20461E
:203CA000002113F061FE002500952046074942F20E72642315F0BAF8009520460B4942F29C
:203CC0000E728C2315F0B2F805B0F0BD30D80200949BFF1F9448030040D8020060D802001A
:203CE0005C350020B03C030084D802008CD8020070B584B0FFF794FE3448FFF727FF344D66
:203D00002846002113F030FE324E2846314615F05BFA2846C8210A460B4613F033FE0024D4
:203D2000009428462C4942F20E72422315F07EF828462A4915F048FA00942846284942F2A9
:203D40000E72C92315F072F8264D284616F046FC2846314616F04AFE37260096224B019338
:203D6000029403942846A5216A228C2316F050FA00961E4B01930294039428460F216A226D
:203D80008C2316F045FA284616F004FC184C04F1100594F824301BB1284612F0C5FB02E08F
:203DA000204612F013FE0028F3D0236A012119700C48002216F042FC10B10128E9D101E028
:203DC000012000E0002004B070BD00BF98D80200949BFF1FB03C0300A8D802009448030013
:203DE000B4D802005C35002050D6020054D60200E895FF1F08B5032803D8DFE800F00A040D
:203E00000608064806E0064804E0064802E0064800E00648FFF7BCFE08BD00BF30EE02002E
:203E2000E4D80200F0D80200FCD80200D8D8020008B5032803D8DFE800F00A04060806488E
:203E400006E0064804E0064802E0064800E00648FFF79EFE08BD00BF30EE0200E4D80200AA
:203E6000F0D80200FCD8020008D9020008B5042804D8DFE800F00D0507090B00064808E0E0
:203E8000064806E0064804E0064802E0064800E00648FFF77DFE08BD30EE020014D90200CB
:203EA0001CD9020020D9020028D902000CD9020070B5264B1B78022B04D0012B14BF0026D7
:203EC000042600E00226FFF7ABFD2148FFF73EFEFFF7DEFD3046FFF7C9FF1E4C04F11005FE
:203EE00094F824301BB1284612F01EFB02E0204612F06CFD0028F3D0236A01211970164859
:203F0000002216F09BFB032807D1144B1E708A20314616F06BFE012070BD022814D018B936
:203F20006EB1013EF6B20BE0012809D1032E02D80136F6B204E0042E08BF002600E0042696
:203F40003046FFF793FFCBE7002070BD7637002030D90200E895FF1F5C3500201096FF1F7C
:203F600008B512280BD8DFE800F0300C0E10121416181A1C1E20222426282A2C2E00154819
:203F800024E0154822E0154820E015481EE015481CE015481AE0154818E0154816E0154851
:203FA00014E0154812E0154810E015480EE015480CE015480AE0154808E0154806E01548B1
:203FC00004E0154802E0154800E01548FFF7E0FD08BD00BF30EE020048D9020054D902005B
:203FE00060D9020068D9020074D9020080D902008CD9020094D90200A0D90200A8D90200C5
:20400000B4D90200BCD90200C4D90200CCD90200D4D90200DCD90200E4D90200F0D9020044
:2040200040D9020070B584B0FFF7FAFC4548FFF78DFD454D284616F0D1FA2846434916F042
:20404000D5FC7A260096424B019300240294039428460F212D225A2316F0DAF800963D4B87
:20406000019302940394284673212D225A2316F0CFF80096384B0193029403942846D721A4
:204080002D225A2316F0C4F828230093334B01930294039428460F21BC22782316F0B8F8A8
:2040A000284616F077FA2E4C04F1100594F824301BB1284612F038FA02E0204612F086FC7D
:2040C0000028F3D0236A012119701F48002216F0B5FA70B923480121FEF7C0FB0020FCF706
:2040E000AFFC0021204B1970712016F07FFD012025E001280FD11B480121FEF7AFFB222058
:20410000FCF79EFC0124184B1C707120214616F06DFD204613E002280ED112480121FEF7C3
:204120009DFB2220FCF78CFC02210F4B1970712016F05CFD012002E00328B7D1002004B0AA
:2041400070BD00BFF8D902005C3500209448030004DA02000CDA020014DA020028D8020056
:20416000E895FF1F20DA02002A38002008B5092868D8DFE800F0050E172029323B444E5C73
:20418000384B1878384B394A00280CBF1046184665E0374B1878374B374A00280CBF1046BC
:2041A00018465CE0354B1878354B364A00280CBF1046184653E0344B1878344B344A002847
:2041C0000CBF104618464AE0324B1878324B334A00280CBF1046184641E0314B1878314BDF
:2041E000314A00280CBF1046184638E02F4B18782F4B304A00280CBF104618462FE02E4B58
:204200001B78022B20D02D4A2D48012B08BF104625E02C4B1B78012B18D0022B18D0032B53
:2042200018D0294A2948042B08BF104617E0284B1B788BB1012B11D0264A2748022B08BF4D
:2042400010460CE025480AE0254808E0254806E0254804E0254802E0254800E02548FFF7CD
:2042600097FC08BDD596FF1F98DA020030DA0200FC370020A4DA02003CDA0200909CFF1FA8
:20428000ACDA020048DA0200A29CFF1FB4DA020054DA0200809BFF1FBCDA020060DA020049
:2042A00068370020C4DA020068DA020020380020D0DA020074DA0200A49DFF1F80DA02002C
:2042C000E8DA0200173800200CDB020000DB02001D380020A0D9020030DB020030EE0200C8
:2042E000DCDA0200F4DA02008CDA020018DB020024DB020060D90200F0B585B00546864CA6
:204300002046002113F030FBEB230093204605210A4640F23B1313F07DFFEC230093204664
:2043200004210A464FF49E7313F074FF2046C8210A460B4613F00AFBEA2300932046062119
:204340000A464FF49D7313F065FF744816F046F9002D27D1714E50240094714B0193714B5A
:20436000029300270397304617211C22234615F07DFF00946C4B01936C4B029303973046D6
:2043800078211C22234615F071FF0094684B0193684B029303973046D9211C22234615F08F
:2043A00065FF53E0012D27D15C4D50240094624B0193624B029300260396284617211C2269
:2043C000234615F053FF00945D4B01935D4B02930396284678211C22234615F047FF0094EA
:2043E000594B0193594B029303962846D9211C22234615F03BFF63E0022D27D1474D5024F3
:204400000094534B0193534B029300260396284617211C22234615F029FF00944E4B0193A9
:204420004E4B02930396284678211C22234615F01DFF00944A4B01934A4B029303962846F8
:20444000D9211C22234615F011FF39E0032D37D150230093444A0192444A02920022039255
:204460002E4817211C2215F001FF414B1B786BB9502300933F4A01923F4A02920022039212
:20448000264878211C2215F0F1FE0CE0502300933A4A01923A4A0292002203921F4878210B
:2044A0001C2215F0E3FE50230093364A0192364A0292002203921948D9211C2215F0D6FE82
:2044C000164D50240094314B0193314B029300260396284617218422234615F0C7FE00947E
:2044E0002C4B01932C4B02930396284678218422234615F0BBFE0094284B0193284B029395
:2045000003962846D9218422234615F0AFFE284616F040F805B0F0BD949BFF1F5C350020CD
:204520003CFF02009C150300D08D0200405F02005C0F0300ACF6020028A3020058620200EF
:20454000B4180300AC18030010AF0200942103009C21030020A3020040C0020050B50200BE
:204560006056020008AF02001C090300505F02002A38002040C90200A41803001C2E030058
:20458000F4F80200DC2703006862020010940200485F0200FCF80200F8B702006CF0020007
:2045A00060620200F0B583B007460E46FEF7FAF8234C20464FF0FF3113F0F6F920462149D1
:2045C00014F002FE0025009520461F49DC220A2314F02CFC009520461C4905220A2314F040
:2045E00025FC012F0ED00095204619490A226E2314F01CFC00952046164940F227126E2300
:2046000014F014FC0E4C00250095204612490522D22314F00BFC009520461049FA22D22325
:2046200014F004FC20460E4914F0CEFD00952046314650220C2314F0F9FB03B0F0BD00BFC0
:20464000949BFF1FB03C03003CDB020044DB020020D8020024D802004CDB020054DB020092
:20466000944803002DE9F0418EB006465E480021FEF7FEFC5D4D2846002113F075F95C4F7F
:204680002846394614F0A0FD2846C8210A460B4613F078F9002400942846564942F20E72A7
:2046A000422314F0C3FB00942846534942F20E72692314F0BBFB00942846504942F20E72EC
:2046C0007D2314F0B3FB4E4D284615F087FF28464C4916F08BF94FF03708CDF800804A4B0F
:2046E0000193029403942846A521A0228C2315F08FFDCDF80080454B0193029403942846BF
:204700000F21A0228C2315F083FD284615F042FF2846394616F06AF93D4C04F1100594F84A
:2047200024301BB1284611F0FFFE02E0204612F04DF90028F3D0236A0121197030480022A0
:2047400015F07CFF002849D132480021FEF786F80020FCF72DFF304831460FF079FA06F1F2
:204760000E042E4B1868C6F80E001B7923712C4B1B787BB100238DF814308DF8153005A8A1
:204780002549324601230FF007FA18B1224831460FF05EFA234B1868C6F80E001B7923712C
:2047A000214B1B787BB100238DF814308DF8153005A81949324601230FF0EEF918B1164860
:2047C00031460FF045FAFCF7D1FF18480021FEF745F84FF47A7016F0E5FD01E001289ED120
:2047E0000EB0BDE8F08100BF5CDB0200949BFF1F944803006CDB020090DB0200ACDB020082
:204800005C350020B03C030050D6020054D60200E895FF1FC8DB0200409BFF1FD8DB0200B6
:204820006C9CFF1FE0DB020064370020E8DB0200F0B585B041480121FEF71AFC404D28468A
:20484000002113F091F83F4E2846314614F0BCFC2846C8210A460B4613F094F8002400943E
:204860002846394942F20E72422314F0DFFA00942846364942F20E72692314F0D7FA009428
:204880002846334942F20E727D2314F0CFFA314D284615F0A3FE28462F4916F0A7F8372792
:2048A00000972E4B0193029403942846A521A0228C2315F0ADFC0097294B01930294039408
:2048C00028460F21A0228C2315F0A2FC284615F061FE2846314616F089F8224C04F110066F
:2048E000012594F824301BB1304611F01DFE02E0204612F06BF810B1236A1D70F1E7194C8F
:2049000004F1100594F824301BB1284611F00CFE02E0204612F05AF80028F3D0236A012132
:2049200019700C48002215F089FE10B10128E9D101E0012000E0002005B0F0BDF8DB02000F
:20494000949BFF1F944803000CDC020028DC020044DC02005C350020B03C030050D6020051
:2049600054D60200E895FF1F2DE9F04184B00F4690460021FEF77CFB3B4C204615F02EFE1F
:2049800046250095394B0193002602960396204614213C222B4615F03BFC0095344B01935A
:2049A000029603962046E6213C222B4615F030FC0095304B01930296039620461421962231
:2049C000822315F025FC00952B4B0193029603962046AA219622822315F01AFC204615F028
:2049E000D9FD3868FEF7C8FD244C04F1100594F824301BB1284611F097FD02E0204611F015
:204A0000E5FF0028F3D0236A01221A70164800210A4615F013FE01280BD1002E01DD013E58
:204A200002E00EB908F1FF3657F82600FEF7A4FDDDE768B908F1FF33B34201DD013602E098
:204A4000B34208BF002657F82600FEF795FDCEE7022803D00328CAD1304601E04FF0FF303B
:204A600004B0BDE8F08100BF5C35002040DF020064DC020028D8020068DC0200E895FF1FB6
:204A80002DE9F04F8DB00390FDF78CFEBD4C2046BD4914F099FB20464FF0FF3112F084FF0C
:204AA000EB25009520469521E1229F2313F0EAFD009520469621E122A02313F0E3FD009596
:204AC00020469721E122A12313F0DCFDE126009620469F212A46A92313F0D4FD0096204646
:204AE000A0212A46AA2313F0CDFD00962046A1212A46AB2313F0C6FD4FF07709CDF8009015
:204B000020460F216D22052313F0BCFD4FF07808CDF8008020460F216E22052313F0B2FD88
:204B20007927009720460F216F22052313F0AAFD4FF0810BCDF800B0204605214A460F23B7
:204B400013F0A0FD822300932046052142460F2313F098FD83230093204605213A460F2328
:204B600013F090FD05250095204695210F229F2313F088FD0095204696210F22A02313F0A6
:204B800081FD0095204697210F22A12313F07AFD4FF00F0ACDF800A020469F212A46A92356
:204BA00013F070FDCDF800A02046A0212A46AA2313F068FDCDF800A02046A1212A46AB2389
:204BC00013F060FDCDF80090204640F231116D2240F23B1313F056FDCDF80080204640F204
:204BE00031116E2240F23B1313F04CFD0097204640F231116F2240F23B1313F043FDCDF88D
:204C000000B0204640F23B114A4640F2311313F039FD82230093204640F23B11424640F2EB
:204C2000311313F02FFD83230093204640F23B113A4640F2311313F025FD04A8522117F0A3
:204C40002BFD00270097204604A92A462B4614F0A3F904A817F062FC08A8412117F01CFD97
:204C60000097204608A92A46334614F095F908A817F054FC039B002B3DD12046FF213A4627
:204C80003B4612F063FE1925009520464FF4937105224FF49D7313F0F5FC0095204640F215
:204CA0002711052240F23B1313F0ECFC009520464FF4947105224FF49E7313F0E3FC05265F
:204CC000009620464FF493712A464FF49D7313F0D9FC0096204640F227112A4640F23B13A0
:204CE00013F0D0FC009620464FF494712A464FF49E7313F0C7FC234C20460021FF220B46AF
:204D000012F024FEEB25009520464FF49371E1224FF4987313F0B6FC0095204640F22711B2
:204D2000E12240F2311313F0ADFC009520464FF49471E1224FF4997313F0A4FCD726009683
:204D400020464FF498712A464FF49D7313F09AFC0096204640F231112A4640F23B1313F0E2
:204D600091FC009620464FF499712A464FF49E7313F088FC2046054914F026FA0DB0BDE8D8
:204D8000F08F00BF949BFF1FB03C03009448030010B582B0FDF706FD0C4C20464FF0FF319F
:204DA00012F002FE20460A4914F00EFA002300932046084942F20E726E2314F037F82046E1
:204DC000054914F001FA02B010BD00BF949BFF1FB03C030020DA02009448030008B5032849
:204DE00003D8DFE800F00A040608064806E0064804E0064802E0064800E00648FEF7C8FE38
:204E000008BD00BF30EE0200E4D80200F0D80200FCD80200D8D8020070B5FEF701FE8148FC
:204E2000FEF794FEFEF734FE0020FFF7D7FF00267D4C04F1100594F824301BB1284611F0C4
:204E400073FB02E0204611F0C1FD0028F3D0236A012119707548002215F0F0FB032840F090
:204E6000C480032E00F2D980DFE806F0020845829920002115F0BAFE012070BD79206C4BAF
:204E8000197815F0B3FE7A206A4B197815F0AEFE7B20694B197815F0A9FE7C20674B1978CF
:204EA00015F0A4FE664B186866491BF077F9044600211BF025FB40B120464FF07C511BF0EC
:204EC00065F81BF031FB014607E020464FF07C511BF05AF81BF028FB01467D20C9B215F0AF
:204EE00085FE7E20C82115F081FE9920012115F07DFE012070BD8B204D4B197815F076FE2E
:204F00008C204C4B197815F071FE8D204A4B197815F06CFE8E20494B197815F067FE484B37
:204F2000186848491BF03AF9044600211BF0E8FA40B120464FF07C511BF028F81BF0F4FA43
:204F4000014607E020464FF07C511BF01DF81BF0EBFA01468F20C9B215F048FE9020C8214C
:204F600015F044FE9920022115F040FE012070BD91202F4B197815F039FE92202D4B1978CA
:204F800015F034FE93202C4B197815F02FFE94202A4B197815F02AFE294B186829491BF095
:204FA000FDF8044600211BF0ABFA40B120464FF07C511AF0EBFF1BF0B7FA014607E020463A
:204FC0004FF07C511AF0E0FF1BF0AEFA01469520C9B215F00BFE9820C82115F007FE992040
:204FE000032115F003FE012070BD18B986B1013EF6B20EE0012808D1022E02D80136F6B271
:2050000007E0032E08BF002603E0022801D106E003263046FFF7E2FE0DE7012070BD0020EF
:2050200070BD00BF70DC0200E895FF1F5C3500209E9CFF1F1C380020749BFF1F7237002028
:20504000403500200000C842F0B585B041480121FEF70EF8404D2846002112F085FC3F4E05
:205060002846314614F0B0F82846C8210A460B4612F088FC002400942846394942F20E72C5
:20508000502313F0D3FE00942846364942F20E72642313F0CBFE00942846334942F20E720F
:2050A000782313F0C3FE314D284615F097FA28462F4915F09BFC372700972E4B01930294F5
:2050C00003942846A521A0228C2315F0A1F80097294B01930294039428460F21A0228C231B
:2050E00015F096F8284615F055FA2846314615F07DFC224C04F11006012594F824301BB1AD
:20510000304611F011FA02E0204611F05FFC10B1236A1D70F1E7194C04F1100594F8243067
:205120001BB1284611F000FA02E0204611F04EFC0028F3D0236A012119700C48002215F009
:205140007DFA10B10128E9D101E0012000E0002005B0F0BD80DC0200949BFF1F9448030046
:2051600090DC0200ACDC0200C8DC02005C350020B03C030050D6020054D60200E895FF1F02
:2051800008B5032803D8DFE800F00A040608064806E0064804E0064802E0064800E0064867
:2051A000FEF7F6FC08BD00BF30EE0200E4D80200F0D80200FCD8020008D9020070B584B0CA
:2051C00001461D48FDF754FF1C4D284615F006FA462600961A4B0193002402940394284646
:2051E00014213C22822315F013F80096154B0193029403942846AA213C22822315F008F86F
:205200000096114B019302940394284614219622822314F0FDFF00960C4B0193029403942D
:205220002846AA219622822314F0F2FF284615F0B1F904B070BD00BFE8DC02005C350020AF
:20524000F0DC0200F4DC0200FCDC020028D802002DE9F04784B001466F48FDF709FF6F4D9B
:20526000284615F0BBF9462600966D4B0193002402940394284614213C22334614F0C8FF23
:205280000096684B0193029403942846E6213C22334614F0BDFF0096634B019302940394F3
:2052A0002846142196224FF48C7314F0B1FF284615F070F910F072F8FEF75EF95B4C04F16F
:2052C000100594F824301BB1284611F02DF902E0204611F07BFB0028F3D0236A0121197096
:2052E0004E48002215F0AAF9002842D110F056F80028E6DD10F052F801281ADD10F030F848
:20530000814610F037F8804610F03EF8074610F045F8064610F04CF8824610F053F8CDF8A9
:2053200000A00190484641463A46731E10F050F81AE010F033F8012816D110F011F88046CA
:2053400010F018F8074610F01FF8064610F030F8814610F037F8CDF8009001904046394684
:2053600032461F2310F034F810F018F8FEF704F9A7E7012842D110F011F81F28A1DC10F0AE
:205380000DF81E281ADC0FF0EBFF81460FF0F2FF80460FF0F9FF074610F000F8064610F0DE
:2053A00007F8824610F00EF8CDF800A00190484641463A46731C10F00BF81AE00FF0EEFF1D
:2053C0001F2816D10FF0CCFF80460FF0D3FF07460FF0DAFF06460FF0EBFF81460FF0F2FF2D
:2053E000CDF80090019040463946324601230FF0EFFF0FF0D3FFFEF7BFF862E702287FF4D6
:2054000060AF0FF05FFF15F017FF0020FFF7D6FE04B0BDE8F08700BFF0DC02005C3500200D
:2054200040DF020064DC020028D80200E895FF1F2DE9F04784B001467048FDF719FE704D24
:20544000284615F0CBF8462600966E4B0193002402940394284614213C22334614F0D8FE22
:205460000096694B0193029403942846E6213C22334614F0CDFE0096644B01930294039400
:205480002846142196224FF48C7314F0C1FE284615F080F80FF08CFFFEF76EF85C4C04F13F
:2054A000100594F824301BB1284611F03DF802E0204611F08BFA0028F3D0236A0121197096
:2054C0004F48002215F0BAF8002843D10FF070FF0028E6DD0FF06CFF01281BDD0FF040FFFE
:2054E00081460FF047FF80460FF04EFF07460FF055FF06460FF05CFF82460FF063FF0AF124
:20550000FF3300930190484641463A4633460FF05FFF1AE00FF04CFF012816D10FF020FF58
:2055200081460FF027FF80460FF02EFF07460FF035FF06460FF046FF0C230093019048469C
:2055400041463A4633460FF043FF0FF031FFFEF713F8A6E7012843D10FF02AFF0C28A0DCB9
:205560000FF026FF0B281BDC0FF0FAFE81460FF001FF80460FF008FF07460FF00FFF0646AE
:205580000FF016FF82460FF01DFF0AF1010300930190484641463A4633460FF019FF1AE0D2
:2055A0000FF006FF0C2816D10FF0DAFE81460FF0E1FE80460FF0E8FE07460FF0EFFE064620
:2055C0000FF000FF012300930190484641463A4633460FF0FDFE0FF0EBFEFDF7CDFF60E78E
:2055E00002287FF45EAF0FF06DFE15F025FE0020FFF7E4FD04B0BDE8F08700BFF4DC020017
:205600005C35002040DF020064DC020028D80200E895FF1F2DE9F04784B001465048FDF785
:2056200027FD504D284614F0D9FF462600964E4B0193002402940394284614213C22334665
:2056400014F0E6FD0096494B0193029403942846E6213C22334614F0DBFD0096444B019397
:20566000029403942846142196224FF48C7314F0CFFD284614F08EFF0FF0A4FEFDF77CFF81
:205680003C4C04F1100594F824301BB1284610F04BFF02E0204611F099F90028F3D0236AC1
:2056A000012119702F48002214F0C8FF20BB0FF089FEB0F5FC6FE6DD0FF052FE81460FF092
:2056C00059FE80460FF060FE07460FF067FE06460FF06EFE82460FF075FECDF800A0013810
:2056E0000190484641463A4633460FF071FE0FF069FEFDF741FFC6E7012825D10FF062FED8
:2057000040F632039842BEDC0FF02AFE81460FF031FE80460FF038FE07460FF03FFE0646BE
:205720000FF046FE82460FF04DFECDF800A001300190484641463A4633460FF049FE0FF09A
:2057400041FEFDF719FF9EE702289CD10FF0BAFD15F072FD0020FFF731FD04B0BDE8F087A4
:20576000FCDC02005C35002040DF020064DC020028D80200E895FF1F70B584B001461D4899
:20578000FDF776FC1C4D284614F028FF462600961A4B0193002402940394284614213C2254
:2057A000822314F035FD0096154B0193029403942846AA213C22822314F02AFD0096114BFE
:2057C000019302940394284614219622822314F01FFD00960C4B0193029403942846AA2101
:2057E0009622822314F014FD284614F0D3FE04B070BD00BF04DD02005C3500200CDD0200D5
:2058000014DD02001CDD020028D802002DE9F04784B001466E48FDF72BFC6E4D284614F0D2
:20582000DDFE462600966C4B0193002402940394284614213C22334614F0EAFC0096674B43
:205840000193029403942846E6213C22334614F0DFFC0096624B01930294039428461421B5
:2058600096224FF48C7314F0D3FC284614F092FE0FF08AFDFDF780FE5A4C04F1100594F825
:2058800024301BB1284610F04FFE02E0204611F09DF80028F3D0236A012119704D48002275
:2058A00014F0CCFE002841D10FF06EFD0028E6DB0FF06AFD00281ADD0FF052FD81460FF0F4
:2058C00059FD80460FF060FD07460FF067FD06460FF06EFD82460FF075FDCDF800A00190BB
:2058E000484641467A1E33460FF072FD19E00FF04BFDB0B90FF034FD80460FF03BFD0746F1
:205900000FF04CFD06460FF053FD81460FF05AFDCDF800900190404639463B2233460FF0C7
:2059200057FD0FF031FDFDF727FEA8E7012842D10FF02AFD3B28A2DC0FF026FD3A281ADC81
:205940000FF00EFD81460FF015FD80460FF01CFD07460FF023FD06460FF02AFD82460FF0E2
:2059600031FDCDF800A00190484641467A1C33460FF02EFD1AE00FF007FD3B2816D10FF06F
:20598000EFFC80460FF0F6FC07460FF007FD06460FF00EFD81460FF015FDCDF80090019001
:2059A00040463946002233460FF012FD0FF0ECFCFDF7E2FD63E702287FF461AF0FF082FC0B
:2059C00015F03AFC0020FFF7D7FE04B0BDE8F0871CDD02005C35002040DF020064DC0200C2
:2059E00028D80200E895FF1F2DE9F04784B001466F48FDF73DFB6F4D284614F0EFFD4626D9
:205A000000966D4B0193002402940394284614213C22334614F0FCFB0096684B019302946B
:205A200003942846E6213C22334614F0F1FB0096634B0193029403942846142196224FF4F0
:205A40008C7314F0E5FB284614F0A4FD0FF092FCFDF792FD5B4C04F1100594F824301BB1E3
:205A6000284610F061FD02E0204610F0AFFF0028F3D0236A012119704E48002214F0DEFDAA
:205A8000002842D10FF076FC0028E6DB0FF072FC00281BDD0FF064FC81460FF06BFC804692
:205AA0000FF072FC07460FF079FC06460FF080FC82460FF087FCCDF800A00190484608F12A
:205AC000FF313A4633460FF083FC19E00FF052FCB0B90FF045FC80460FF056FC07460FF0CD
:205AE0005DFC06460FF064FC81460FF06BFCCDF80090019040463B213A4633460FF068FC51
:205B00000FF038FCFDF738FDA7E7012843D10FF031FC3B28A1DC0FF02DFC3A281BDC0FF0D2
:205B20001FFC81460FF026FC80460FF02DFC07460FF034FC06460FF03BFC82460FF042FC71
:205B4000CDF800A00190484608F101013A4633460FF03EFC1AE00FF00DFC3B2816D10FF049
:205B6000FFFB80460FF010FC07460FF017FC06460FF01EFC81460FF025FCCDF800900190C9
:205B8000404600213A4633460FF022FC0FF0F2FBFDF7F2FC61E702287FF45FAF0FF092FBFB
:205BA00015F04AFB0020FFF7E7FD04B0BDE8F08714DD02005C35002040DF020064DC0200CA
:205BC00028D80200E895FF1F2DE9F04784B001466F48FDF74DFA6F4D284614F0FFFC4626D9
:205BE00000966D4B0193002402940394284614213C22334614F00CFB0096684B019302947A
:205C000003942846E6213C22334614F001FB0096634B0193029403942846142196224FF4FE
:205C20008C7314F0F5FA284614F0B4FC0FF098FBFDF7A2FC5B4C04F1100594F824301BB1CF
:205C4000284610F071FC02E0204610F0BFFE0028F3D0236A012119704E48002214F0EEFC9B
:205C6000002842D10FF07CFB0028E6DB0FF078FB00281BDD0FF074FB81460FF07BFB804688
:205C80000FF082FB07460FF089FB06460FF090FB82460FF097FBCDF800A0019009F1FF306A
:205CA00041463A4633460FF093FB19E00FF058FBB0B90FF05FFB80460FF066FB07460FF058
:205CC0006DFB06460FF074FB81460FF07BFBCDF800900190172041463A4633460FF078FB57
:205CE0000FF03EFBFDF748FCA7E7012843D10FF037FB1728A1DC0FF033FB16281BDC0FF01B
:205D00002FFB81460FF036FB80460FF03DFB07460FF044FB06460FF04BFB82460FF052FB35
:205D2000CDF800A0019009F1010041463A4633460FF04EFB1AE00FF013FB172816D10FF07E
:205D400019FB80460FF020FB07460FF027FB06460FF02EFB81460FF035FBCDF80090019091
:205D6000002041463A4633460FF032FB0FF0F8FAFDF702FC61E702287FF45FAF0FF0A2FAE6
:205D800015F05AFA0020FFF7F7FC04B0BDE8F0870CDD02005C35002040DF020064DC0200D2
:205DA00028D80200E895FF1FF0B585B007461C483946FDF75DF91B4D284614F00FFC4626A1
:205DC0000096194B0193002402940394284614213C22822314F01CFA0096144B0193029405
:205DE00003942846AA213C22822314F011FA00960F4B0193029403942846142196224FF472
:205E00008C7314F005FA2FB128460221094A234614F0D2FB034814F0BDFB05B0F0BD00BF5A
:205E200048DF02005C35002004DD0200E8DC020024DD02002CDD020070B50646164C04F109
:205E4000100594F824301BB1284610F06DFB02E0204610F0BBFD0028F3D0236A01221A7086
:205E60000E4800210A4614F0E9FB18B93046FFF7EFF9E6E7012803D13046FFF7D9FAE0E77E
:205E8000022803D13046FFF7C5FBDAE70328D8D13046FFF789FF70BDE895FF1F5C350020D6
:205EA00070B50646164C04F1100594F824301BB1284610F039FB02E0204610F087FD0028C3
:205EC000F3D0236A01221A700E4800210A4614F0B5FB18B93046FFF777FEE6E7012803D1CE
:205EE0003046FFF781FDE0E7022803D13046FFF78DFCDAE70328D8D13046FFF755FF70BD7C
:205F0000E895FF1F5C35002070B584B01D480021FDF7AEF81C4D284614F060FB4626009684
:205F20001A4B0193002402940394284614213C22822314F06DF90096154B01930294039450
:205F40002846AA213C22822314F062F90096114B019302940394284614219622822314F0EF
:205F600057F900960C4B0193029403942846AA219622822314F04CF9284614F00BFB04B018
:205F800070BD00BF30DD02005C35002038DD020048DD020058DD020028D80200F0B585B004
:205FA00006464A483146FDF763F8494D284614F015FB46270097474B0193002402940394AA
:205FC000284614213C22822314F022F90097424B0193029403942846AA213C22822314F0D7
:205FE00017F97EB100973D4B0193029403942846142196224FF48C7314F00AF90122384B38
:206000001A700DE046230093364B01930023029303932F48142196224FF48C7314F0F8F810
:206020002B4814F0B7FA2E4B1B783BB92848002114F01CFC2C4C04F1100504E02448012197
:2060400014F014FCF6E794F824301BB1284610F06BFA02E0204610F0B9FC0028F3D0236A5B
:2060600001221A701A4800210A4614F0E7FA78B91B4B1B78002BE6D00021194B1970144F3F
:20608000384614F0F3FB3846012114F04FFCDAE701280FD1124B1B78002BD4D10121104B9A
:2060A00019700B4F384614F0E1FB3846002114F03DFCC8E70228C6D16820094B197814F0E2
:2060C00095FD0EB9FFF720FF05B0F0BD48DD02005C35002060DD02006CDD02002CDD020083
:2060E0006C9CFF1F28D80200E895FF1FF0B585B006464A483146FCF7BBFF494D284614F0F9
:206100006DFA46270097474B0193002402940394284614213C22822314F07AF80097424B5D
:206120000193029403942846AA213C22822314F06FF87EB100973D4B01930294039428467A
:20614000142196224FF48C7314F062F80122384B1A700DE046230093364B019300230293CC
:2061600003932F48142196224FF48C7314F050F82B4814F00FFA2E4B1B783BB92848002186
:2061800014F074FB2C4C04F1100504E02448012114F06CFBF6E794F824301BB1284610F036
:2061A000C3F902E0204610F011FC0028F3D0236A01221A701A4800210A4614F03FFA78B968
:2061C0001B4B1B78002BE6D00021194B1970144F384614F04BFB3846012114F0A7FBDAE7A5
:2061E00001280FD1124B1B78002BD4D10121104B19700B4F384614F039FB3846002114F01D
:2062000095FBC8E70228C6D16720094B197814F0EDFC0EB9FFF778FE05B0F0BD38DD020079
:206220005C35002078DD020084DD02002CDD02006437002028D80200E895FF1FF0B585B0B6
:20624000464B1B784BB946480021FCF707FBFCF779FE10B9FFF758FE7EE042480021FCF7F7
:2062600007FF414D2846002111F07EFB3F4E2846314612F0A9FF2846C8210A460B4611F06C
:2062800081FB002400942846394942F20E72422312F0CCFD00942846364942F20E72692335
:2062A00012F0C4FD00942846334942F20E727D2312F0BCFD314D284614F090F9284630492E
:2062C00014F094FB372700972E4B0193029403942846A521A0228C2313F09AFF00972A4BAF
:2062E00001930294039428460F21A0228C2313F08FFF284614F04EF92846314614F076FB2A
:20630000224C04F1100594F824301BB1284610F00BF902E0204610F059FB0028F3D0236AD3
:20632000012119701548002214F088F980B918480121FCF793FAFBF7E9FA16480121FCF72B
:206340008DFA4FF47A7015F02DF8FBF7A1FA01E00128D8D1FFF7D8FD05B0F0BDA03A0020F8
:2063600090DD020030DD0200949BFF1F94480300A4DD0200C4DD0200E0DD02005C350020DD
:20638000B03C030050D6020054D60200E895FF1F04DE02001CDE020070B584B01D48002160
:2063A000FCF766FE1C4D284614F018F9462600961A4B0193002402940394284614213C224D
:2063C000822313F025FF0096154B0193029403942846AA213C22822313F01AFF0096114BF0
:2063E000019302940394284614219622822313F00FFF00960C4B0193029403942846AA21E4
:206400009622822313F004FF284614F0C3F804B070BD00BF30DE02005C35002038DE020073
:2064200048DE020058DE020028D80200F0B585B0064645483146FCF71BFE444D284614F0C1
:20644000CDF846270097424B0193002402940394284614213C22822313F0DAFE00973D4B61
:206460000193029403942846AA213C22822313F0CFFE0097384B01930294039428461421D1
:2064800096224FF48C7313F0C3FE3EB128460221324A234614F090F8314B1C702B4814F0CE
:2064A00079F82F4B1B783BB92848002114F0DEF92C4C04F1100504E02448012114F0D6F937
:2064C000F6E794F824301BB1284610F02DF802E0204610F07BFA0028F3D0236A01221A70BE
:2064E0001A4800210A4614F0A9F878B91C4B1B78002BE6D000211A4B1970144F384614F024
:20650000B5F93846012114F011FADAE701280FD1134B1B78002BD4D10121114B19700B4F32
:20652000384614F0A3F93846002114F0FFF9C8E70228C6D165200A4B197814F057FB0EB9AA
:20654000FFF72AFF05B0F0BD0CE002005C35002068DE020070DE020024DD02002CDD020075
:206560009C9CFF1FE895FF1F2DE9F04184B0064647483146FCF77CFD464D284614F02EF8C6
:2065800046270097444B0193002402940394284614213C22822313F03BFE00973F4B0193EC
:2065A000029403942846AA213C22822313F030FE00973B4B01930294039428461421962208
:2065C0004FF48C7313F024FE2EB128460221354A234613F0F1FF2F4813F0DCFF324B1B78A4
:2065E0003BB12C48002114F041F9304C04F1100504E02848012114F039F9F6E794F82430ED
:206600001BB128460FF090FF02E0204610F0DEF90028F3D0236A01221A701E4800210A4697
:2066200014F00CF888B9204B1B78002BE6D101271D4B1F70DFF85C804046002114F016F9A5
:206640004046394614F072F9D8E7012811D1164B1B78002BD2D00027134B1F70DFF834809C
:206660004046012114F002F94046394614F05EF9C4E70228C2D170200B4B197814F0B6FA80
:206680001EB9FBF7C1FCFFF787FE04B0BDE8F08148DE02005C3500207CDE020060DD0200BB
:2066A00024DD02002CDD0200A09DFF1FE895FF1F2DE9F04184B03A480021FCF7D9FC394D6A
:2066C000284613F08BFF46260096374B0193002402940394284614213C22822313F098FD18
:2066E0000096324B0193029403942846AA213C22822313F08DFD00962D4B0193029403942E
:20670000284614219622822313F082FD0096294B0193029403942846AA219622822313F093
:2067200077FD284613F036FF2846234B197814F09DF8224C04F1100694F824301BB130469E
:206740000FF0F2FE02E0204610F040F90028F3D0236A01221A70134800210A4613F06EFF68
:20676000054602280ED80F4FDFF84C80384698F8001014F0DBF888F800503846E9B214F0DB
:2067800075F8D9E70328D7D180200B4B197814F02DFAFAF751FEFFF7FFFD04B0BDE8F0814B
:2067A00058DE02005C35002060DD020084DE02008CDE020028D802001F380020E895FF1FCD
:2067C00070B584B01F480021FCF752FC1E4D284613F004FF28461D4914F008F946260096DD
:2067E0001B4B0193002402940394284614213C22822313F00DFD0096164B019302940394E3
:206800002846AA213C22822313F002FD0096124B019302940394284614219622822313F083
:20682000F7FC00960D4B0193029403942846AA219622822313F0ECFC284613F0ABFE04B067
:2068400070BD00BF94DE02005C3500209448030030DE020030DD020048DF020028D80200FE
:2068600070B506461F4C04F1100594F824301BB128460FF059FE02E0204610F0A7F80028B3
:20688000F3D0236A01221A70174800210A4613F0D5FE30B93046FEF76FFF3046FFF700FB2C
:2068A000E3E7012806D13046FEF788FC3046FFF7C3FADAE70228D8D186B10EF083FDB0F508
:2068C000FC6F0DDA09480021FBF7C8FF4FF47A7014F068FD0120FFF767FAC6E7FFF770FF1B
:2068E00070BD00BFE895FF1F5C350020A0DE020038B5154C04F1100594F824301BB128466E
:206900000FF012FE02E0204610F060F80028F3D0236A01221A700D4800210A4613F08EFE4E
