:020000040000FA
:2000000000800020BD010000E9BB0100A1BB0100A1BB0100A1BB0100A1BB0100A1BB01000C
:20002000A1BB0100A1BB0100A1BB0100E9BB0100E9BB0100A1BB0100E9BB010091BB010010
:20004000E9BB0100E9BB0100E9BB0100E9BB0100E9BB0100E9BB0100E9BB0100E9BB010078
:20006000E9BB0100E9BB0100E9BB0100E9BB0100E9BB0100E9BB0100E9BB0100E9BB010058
:20008000E9BB0100E9BB0100E9BB0100E9BB0100E9BB0100E9BB0100E9BB0100E9BB010038
:2000A000AD8C0100B98C0100E9BB0100E9BB0100E9BB0100E9BB0100E9BB0100E9BB0100E2
:2000C000E9BB0100E9BB0100E9BB0100E9BB0100E9BB0100E9BB0100E9BB0100E9BB0100F8
:2000E000E9BB0100E9BB0100E9BB0100E9BB0100E9BB0100E9C90100E9BB0100A9E50100E0
:20010000E9BB010019EB0100E9BB0100E9BB0100E9BB0100E9BB0100E9BB0100E9BB010057
:20012000E9BB0100E9BB0100E9BB0100E9BB0100E9BB0100E9BB0100E9BB0100E9BB010097
:20014000E9BB0100E9BB0100E9BB0100E9BB0100E9BB0100E9BB0100E9BB0100E9BB010077
:20016000E9BB010065CC0100E9BB0100E9BB0100E9BB0100E9BB0100E9BB0100E9BB0100CA
:20018000E9BB0100E9BB0100E9BB0100E9BB0100E9BB0100E9BB0100E9BB0100E9BB010037
:2001A000E9BB0100E9BB0100E9BB0100E9BB0100E9BB0100E9BB0100E9BB0100564B4CF2DD
:2001C000205210B51A804DF628121A8000BF00BF1BF00EFD514B4FF010621A60504A9A6048
:2001E000504ADA60504A136813F4807304D14F490B604FF4A85313604D4B1A78110703D579
:200200001A7842F008021A704A4B4B492A221A704A4A4B4B8B4204D252F8040F43F8040B13
:20022000F8E7484B484900228B4202D243F8042BFAE74649464A002352F8230041F82300A2
:2002400001336F2BF8D1434B434A802103F8011B9342FBD1414B3D4A1A60414B8A221A7044
:20026000A3F5805324225A70A0221A709A799207FCD59A79D406FCD43A4A937903F00C03EB
:20028000082B384BF9D103221A714C225A719A799006FCD5334A9179324B4906FBD5324ADC
:2002A0004FF0017111600421516020221A709A7902F00C020C2AFAD12C4B2D4A1A602D4B86
:2002C0002D4A1A6000225A60072243F8042C2B4AC3F80C2D62B61CF01DF8144B1B68DA0758
:2002E00005D527481BF076FF264B274A1A60274B1B785B0609D5234C234B22689A4204D17D
:200300001F481BF067FF0023236021F041F904F077FE1DF0BBFBFEE70E200540308004409C
:20032000823F04000100002B10D0034014D0034002D0074000E007406098FF1F5C6F03005E
:200340002087FF1F6098FF1F4CA9FF1F0082FF1F0000000000E400E05FE400E008ED00E053
:2003600000500640004006404480044004800440C010050014E000E07F32020000002020F5
:20038000D9C225021CE00340A5C3945A00F00740FFFFFFFFFFFFFFFFFFFFFFFFFFFFFFFFDF
:2003A000FFFFFFFFFFFFFFFFFFFFFFFFFFFFFFFFFFFFFFFFFFFFFFFFFFFFFFFFFFFFFFFF5D
:2003C000FFFFFFFFFFFFFFFFFFFFFFFFFFFFFFFFFFFFFFFFFFFFFFFFFFFFFFFFFFFFFFFF3D
:2003E000FFFFFFFFFFFFFFFFFFFFFFFFFFFFFFFFFFFFFFFFFFFFFFFFFFFFFFFFFFFFFFFF1D
:20040000FFFFFFFFFFFFFFFFFFFFFFFFDEF9FFFF10B5054C237833B9044B13B10448AFF375
:2004200000800123237010BD6098FF1F00000000586F0300084B10B51BB108490848AFF3B1
:2004400000800848036803B910BD074B002BFBD0BDE81040184700BF000000006498FF1F63
:20046000586F03006098FF1F000000002DE9F04F85B094880391D188A14266D33548364BEF
:20048000007893F800E0354D354B95F800B01B78344E354F354DD6F800903F780097C0EBC8
:2004A0008078C0EB88080EEB8E0E0EEB080A4FF4C86000FB0BA0C3EB837605FB030AC3EBF6
:2004C000860302930020052313FB0B43EF2B38DC029BDC4235D4138856889E4231D303996F
:2004E000019404EB840C4FEA8C1C01EB40010AE0A7F8FE63568801339BB29E4200F10100BF
:2005000001F102011BD303EB0E05B5F5A07FF2DA13EB080F03EB0C05EDD455440E88A9EBCA
:20052000450707F515371EB94FF001040C800126009C002CDCD129F815605688DBE7019C11
:20054000D1880134A4B2A142BDD2012005B0BDE8F08F00BFB0A3FF1F98A3FF1F1AA0FF1FEA
:200560005CA3FF1F8898FF1F5EA3FF1FC0F9FFFF2DE9F04FD388B2F80480434591B0C0F0F3
:2005800093800292894A089189491078894C8A4A09788A4E8A4D94F800A0099114788949F1
:2005A000894A36782D78126807960495C0EB80360D6809990692C0EB86020AEB8A06164443
:2005C000059501EB810208EB8805C4EBC40106EB451502EB820201EB011105EB421501EB31
:2005E00001117A4F05EB411189B2C4EB847EC0EB80720191C0EB8202C4EB8E013F780F91FF
:2006000003924FF0050B0026C146BDF82410052212FB0192772A3DDC0F9A19EB020F39D494
:2006200002990C884A88A24234D30136B6B2CDF83890534623E0C4F19F05EDB21BFB0350A5
:200640009F2815DC0398C54212D4019A1544079A022AADB2089A31D032F81180049A3AB351
:20066000C5F59545059A7F3522F81580029A52880134A4B2711CA24289B206D30E46711E7B
:2006800089B2002FD7D0E5B2D8E79A46029BDDF83890DB8809F101021FFA82F9019AA03278
:2006A00092B24B450192B0D2012011B0BDE8F08F059A22F81580029A5288D9E732F811206C
:2006C00011124FEAE20AD2000B92049A01F0F8010A910AF0FC0A002A64D0C5F595427F32A0
:2006E000059931F8128006990D934FF07E5020F0C5FB81464FEAE80000F0FC0020F074FC31
:20070000494620F0C5FC0C90504620F06DFC069920F0BEFC0C9A0146104620F0B1FB20F056
:20072000B9FE4FEAC8025FFA80FA02F0F80020F05BFC494620F0ACFC0B9B0C9003F0F80067
:2007400020F052FC069920F0A3FC0C9A0146104620F096FB20F09EFE4FEA282E4FEACA08C3
:2007600008F0E002C0F3C4010EF0F80041EA020820F03AFC494620F08BFC81460A9820F017
:2007800033FC069920F084FC0146484620F078FB20F080FE00F0F80040EA5A1A48EA0A282B
:2007A0000D9B5BE7059A32F815809CE7B0A3FF1F1AA0FF1F98A3FF1F5CA3FF1F8E98FF1F6B
:2007C0005EA3FF1F7C98FF1FA89AFF1FAFA5FF1F083018F0A1BF00BF00B583B002AB0122DF
:2007E00003F8011D0830194618F096FF03B05DF804FB00BF38B5856FAC88EB88E41A94428A
:2008000028BF144631B108462968224619441AF00BFFEB882344EB80204638BDF8B50E465C
:2008200007461AF0ABFE05461AF098FE04461AF085FE6401C0B204F4FF54ADB2A5F2BC75AD
:20084000044344EA45243C801AF048FE05461AF055FE04461AF062FEED02640105F4FF25E1
:2008600004F4FF542C43C0F3460004433480F8BD00F58C601AF092BA2DE9F0412F4B304F9E
:200880001B7884B00BB93B78B3B13A782C4B022A3BD01A78032A02D004B0BDE8F0810122D8
:2008A0001A70284817F076F8264817F051F80028F7D104B0BDE8F081234B1B78002BE4D170
:2008C000DFF8908098F80030002BDED11F4B1B78002BDAD11E4D2B6802930A20029E1BF05C
:2008E000C9FC2B680193019CA41B164817F052F8144817F02DF8D0B1B4F57A7F12DD012343
:200900003B703A780E4B022AC3D103221A700D4817F040F80B4817F01BF80028F7D104B00D
:20092000BDE8F0812B680393039CA41BDDE7B4F57A7FE4DA022388F80030A6E7C09AFF1F1C
:2009400074A3FF1FDC9AFF1F9FA1FF1F8D98FF1F2CA6FF1F8098FF1F1BF036BC00F58C6029
:200960001AF0FCBA00F58C601AF0A6B900F58C601AF0E6B80F4A137A526A03F0080303F051
:20098000FF00B3B142F295539A4211D042F215739A420DD049F215639A4209D049F29573FB
:2009A0009A4205D0044BD01AB0FA80F0400970470120704730A3FF1F42600900024A1378E8
:2009C00023F00103137070472188FF1F00201CF0FFBE00BF144938B5A1F10C000223142214
:2009E00019F070FF00B938BD104818F0EBFA01210F4819F0ABFD80B10D4C04F23C452846F3
:200A0000214618F065FC38B194F83C3413F0700F1CBF084B1D6038BD38BD0146044819F06E
:200A200095FD0028E8D138BDF89FFF1FC89FFF1F8C9BFF1FE0A5FF1FF0B43F4F3F4E404DE0
:200A4000404C414A4FF480733B604FF4107737604FF400762E60236015780DB372B6137883
:200A6000DE0707D5394D3A4C2F682468394E3C4034602C609D0707D5374D354C2F6864687B
:200A8000344E3C402C6074605C0707D5334C304B26689B682F4D33402360AB6062B615780C
:200AA0002F4B304ADC68944206D02F4F2F4E304C1F60DA601E611C60294B2E4CC0B2102691
:200AC0004FF000422660DA621C465863E36A244A002BFBDAC9B24FF00043906BD362104678
:200AE0005163C36A1E4A002BFBDA234B926B10221A608DB1E90703D5164A204B12681A60D1
:200B0000AA0703D5134A1E4B52681A606B0703D5104A1C4B92681A60094E0A4C0649074A86
:200B20004FF480734FF400754FF41070336025600860F0BC1360704714B0044004C004409E
:200B40000CC004401CB0044000A6FF1F80E100E0E8A5FF1FF4A5FF1F84E100E088E100E080
:200B600000C002400110013801401F000110017800001F8088F00F4084F00F4000E100E055
:200B800004E100E008E100E0F0B4404C404D4149414A424F4FF4807323604FF410764FF49F
:200BA00000742E600C6013603C780CB372B63B78DE0707D53A493B4A0D6812683A4C2A405E
:200BC00022600A609D0707D53849364A0D685268354C2A400A6062605C0707D5344A314B29
:200BE00014689B683049234013608B6062B63C78304B314AD968914206D0304E304D31491B
:200C00001E60DA601D6119602A4B2F49C0B210254FF000420D60DA6219465863CB6A254AA9
:200C2000002BFBDA4FF000410023906BD16211465363CB6A1F4A002BFBDA906B234B10229D
:200C4000C0B21A608CB1E10703D5174A204B12681A60A20703D5144A1E4B52681A60630705
:200C600003D5114A1C4B92681A600A4F0A4D0749074A4FF480734FF400764FF410743B60C4
:200C80002E600C601360F0BC704700BF14B0044004C004400CC004401CB0044000A6FF1FD1
:200CA00080E100E0E8A5FF1FF4A5FF1F84E100E088E100E000C002400110013801401F0057
:200CC0000110017800001F8088F00F4084F00F4000E100E004E100E008E100E038B54220C3
:200CE000FFF752FF04464320FFF74EFF05464420FFF74AFF44EA052400F07F0044EA00409B
:200D000038BD00BFF0B42749274E284D284C294A4FF480734FF400774FF4107037602B6065
:200D200023600860137803B372B61378D90707D52149224A0C6812682148224002600A60BD
:200D40009A0707D51F491D4A0C6852681C4822400A6042605B0707D51B4A184B10689B68C6
:200D60001749034013608B6062B6184B184AD968914206D0174C184818491C60DA60186158
:200D80001960124B164910244FF000403C220C60D86219465A63CB6A0C4A002BFBDA936BC2
:200DA000F0BC704704C004400CC004401CB0044014B0044000A6FF1F80E100E0E8A5FF1FF0
:200DC000F4A5FF1F84E100E088E100E000C002400110013801401F000110017800001F80F9
:200DE00088F00F4008B501218420FFF725FE01218420FFF721FE02218420BDE80840FFF70B
:200E00001BBE00BF002370B5064615460C461A4656210F481CF046FE0E4B0D481978002319
:200E20001A461CF03FFE002331461A4608481CF039FE65B1013D54FA85F5013C002314F8F4
:200E4000011F03481A461CF02DFEAC42F6D170BDC4A7FF1F5DA3FF1F2DE9F843124C002533
:200E60002570F1B1F0B188460746DFF840900AE02678731C23701BF045FD09F806000025B5
:200E80002078B8420ED01BF02DFD0028F0DC01350120EDB21BF0EEF9A845F1D12078BDE8E5
:200EA000F8830846BDE8F883C5A3FF1FB4A2FF1F094B1A78762A01D000207047074A5978FF
:200EC00012789142F8D19A788242F5D1D878B0FA80F04009704700BFB4A2FF1F5DA3FF1F95
:200EE000F0B583B005469DF820700E461C4697B931462846FFF786FFC8212046FFF7ACFF54
:200F0000844202D0002003B0F0BD284603B0BDE8F040FFF7CDBF0A2164200192FFF79CFF6E
:200F2000019AE5E710B5074A84B00123148800930222052303A93620ADF80C40FFF7D0FFA9
:200F400004B010BD5064020000B5074A85B010680390012300930422052303A92420FFF729
:200F6000BFFF05B05DF804FB54640200F0B585B0052501248DF80D00002002902B4600947E
:200F800004271926062202A931208DF808508DF80A408DF809708DF80C60FFF7A1FF05B0DD
:200FA000F0BD00BFF0B585B0012405258DF80D002B46009412270426062202A931208DF8F9
:200FC00008508DF809408DF80A408DF80B708DF80C60FFF785FF05B0F0BD00BF2DE9F04149
:200FE00000258846471D2E46AF420ED01BF07AFC6B1C0028DCB20ADD1BF084FC08F8050022
:201000002546AF424FF00006F0D1BDE8F08101360120F6B21BF02EF90A2EE5D1BDE8F08122
:2010200030B585B004A900240123074DADF80C40022201F8043D3620009305232C80FFF74B
:201040004FFF05B030BD00BFC6A3FF1F2DE9F04F704C83B0814601919246A046FFF752FEB9
:201060000026DAF800306C4F32469A424FF0FF05B4464FF0004E1DD23B78012B00F09E8093
:20108000C4F82CE0C4F834C0E36A002BFCDAD8F838305FFA83FB002E69D009F802B001322E
:2010A000142A75D0BBF1D90F34D05D46DAF800309A42E1D3594A10231360594B1B788BB124
:2010C000D90703D55749584A096811609A0703D5544A564952680A605B0703D5514B544AE6
:2010E0009B681360534D54485449554A4FF480732B604FF4007505604FF410700860136086
:20110000019B002B30D04F4B1B78012B7FD0FFF787FFA3E7FF2DC8D1404B10211960404BD5
:201120001B788BB1DD0703D53E483F49006808609C0703D53B483D4940680860580703D57B
:2011400038493B4B896819603A4C3B4D3B483C494FF4807323604FF400764FF410742E6041
:2011600004600B60CAF8002003B0BDE8F08FBBF1D80F95D1FF2D93D14FF0FF3389F800303C
:201180006FF0270389F80130012602225D468DE70199002986D12C4B1B78002B82D00B46C0
:2011A0002A4809F11302FF2101E010F8011F02F8011F0133642BF8D1782273E7174B102257
:2011C0001A60174B1B788BB1DA0703D51549164A096811609F0703D51249144A49681160B2
:2011E0005E0703D50F4A124B92681A60114E124C1249134A4FF480734FF400754FF4107062
:20120000336025600860136003B0BDE8F08FFFF7E9FD23E700C00240C09AFF1F84F00F40E1
:2012200000A6FF1FF4A5FF1F00E100E004E100E008E100E00CC004401CB0044014B00440BC
:2012400004C00440889BFF1F5EA3FF1F94B3020030B585B00124002500940923022203A9E9
:2012600034208DF80C408DF80D50FFF739FE50B1064B58799979DA791B7A41EA002042EAA6
:20128000002043EA002005B030BD00BFB4A2FF1FF0B5124C238887B00022064618120392FA
:2012A00002920A25049200920C278DF80D008DF80E3002A905230D2232208DF812608DF8EB
:2012C00008708DF80A508DF81450FFF709FE10B123881E44268007B0F0BD00BFC6A3FF1FB3
:2012E00008B541F64C501BF0D5F80F201AF0C2FFFFF72AFE40F6C4101BF0CCF80F20BDE8C1
:2013000008401AF0B7BF00BF10B584B0FFF7E8FFFFF786FE88B9044664201AF0ABFF04A986
:20132000012201F8044D052300922620FFF7D8FDFFF7D6FFFFF774FE28B15F20FFF732FEC4
:20134000FFF7F0FD012004B010BD00BF00B585B0FFF70CFE04A90122002301F8043D2620EC
:2013600000920523FFF7BCFD4FF496701AF082FFFFF7B6FF05B05DF804FB00BF074B1B78D8
:2013800010B5044623B9064915F054FE204610BD044915F0DDFB204610BD00BF90A3FF1F1C
:2013A00094A2FF1FA0A3FF1F10B582B06846FFF7E5FFBDF80020BDF80200A2F10A039BB280
:2013C000822B08D8A0F10A01462904D82C4B01221A7002B010BDA2F1B40189B282290CD9E3
:2013E000822B14D98D3A262AF3D851384E28F0D8234B07221A7002B010BDA0F1A004462C63
:2014000003D81F4B05221A70E3E7822B19D8592809D9962807D81B4C2468012C1DD0184BFE
:2014200003221A70D5E7822903D8A0F10A03462B19D9A0F1A003462BD4D8114B06221A705B
:20144000C7E7A0F15A013C2914D80E490968012905D00B4B04221A70BBE78229E9D8A0F135
:201460000A01462903D8064B02221A70B1E7822BDFD9B7E7A0F10A03462BF4D9B2E700BF49
:2014800076A3FF1F80A2FF1FF0B5802183B0234815F0E8FB20B1224B01221A7003B0F0BDBE
:2014A0000446204815F03AFC1D4B68461C70FFF765FF0A20BDF90060BDF902701AF0DAFEF9
:2014C00005201AF09FFE0A24012505201AF09AFE00284FF00A0008BF00251AF0CBFE013CB8
:2014E000F3D1114B1B786BB92346B34210D0A74201D0002DD2D00D4A137823F008031370CB
:2015000003B0F0BD4FF4A073B3424FF0F004EED1A742F0D1002DC1D1EDE700BFA0A3FF1FD1
:2015200090A3FF1F94A2FF1F5EA3FF1F2188FF1F08B5074B1B783BB1064815F069FB10B11A
:20154000054B01221A7008BD044815F09FFDF6E790A3FF1FA0A3FF1FA4A2FF1F94A2FF1F95
:201560002DE9F0412A4D2B7886B0002B39D1294B1B78002B35D1284E3378002B31D1274BA7
:201580001B7873BB264B1B785BBBDFF8A080D8F8003004930A20049F1AF06CFED8F80020B1
:2015A000204B0592059C1B78E41B43B924E0B4F57A7F08DCD8F800300393039CE41BFFF746
:2015C000B7FF0028F3D1D8F800300193019BDB1BB3F57A7F16DB144B1B78012B01D001239E
:2015E000337006B0BDE8F081B4F57A7FEBDCD8F800300293029CE41B05201AF003FE002889
:20160000E1D1F1E701232B7006B0BDE8F08100BFC09AFF1F74A3FF1F9FA1FF1F8098FF1FB5
:201620008D98FF1F90A3FF1F8E98FF1F2CA6FF1F10B4124B124A1B78146840EA034040F0B9
:20164000006311465363104602E013F0F00F13D1CB6A0B4A13F0805FF7D04FF08053D36282
:201660001460D36A13F0F00F04D0936BD36A13F0F00FFAD110BC7047836BE9E7ACA5FF1F2B
:2016800000C0024010B4124B124A1B78146840EA034040F0006311465363104602E013F074
:2016A000F00F13D1CB6A0B4A13F0805FF7D04FF08053D3621460D36A13F0F00F04D0936B48
:2016C000D36A13F0F00FFAD110BC7047836BE9E7AF9AFF1F00C0024010B4124B124A1B7846
:2016E000146840EA034040F0C05311465363104602E013F0F00F13D1CB6A0B4A13F0805F27
:20170000F7D04FF08053D3621460D36A13F0F00F04D0936BD36A13F0F00FFAD110BC7047A9
:20172000836BE9E7AF9AFF1F00C00240F0B4324C324F2678360446F0004444F02A047C634C
:20174000FC6A04F4704514F0F00F18BFBC6BB5F5405FF5D82A4C294F25782D04284340F008
:2017600010407863F86A00F4704410F0F00F18BFB86BB4F5405FF5D82A43204C42F01042C9
:201780006263E26A02F4704012F0F00F18BFA26BB0F5405FF5D846F00046184C46F02B0655
:2017A0006663E26A02F4704012F0F00F18BFA26BB0F5405FF5D82943104841F0104141638E
:2017C000C26A02F4704112F0F00F18BF826BB1F5405FF5D82B43094943F010434B63CB6A36
:2017E00003F4704213F0F00F18BF8B6BB2F5405FF5D8F0BC704700BFACA5FF1F00C00240CB
:20180000AF9AFF1FF8B5344C237803B372B62378DF0707D5314D324A2F681268314E3A405A
:2018200032602A609E0707D52F4D2D4A2F6852682C4E3A402A6072605D0707D52B4A284B4F
:2018400016689B68274D33401360AB6062B6284DEB68B3F1384F09D0264A2A60264B4FF014
:2018600038464FF07842EE602A612B608BB282B219461046FFF75AFF204B1D491B781B0495
:2018800043F0004343F02C034B63CB6A03F4704213F0F00F18BF8B6BB2F5405FF5D8184AA0
:2018A000184B10781B7843EA0020FFF715FF23788BB1D90703D50B49134A096811609A0790
:2018C00003D50849114A496811605B0703D5054A0F4B92681A60F8BD00A6FF1F80E100E051
:2018E000E8A5FF1FF4A5FF1F84E100E088E100E000C0024001401F0000001F80ACA5FF1F88
:2019000089A3FF1F91A3FF1F00E100E004E100E008E100E0F8B5474E8318B3F5A07F33788D
:20192000CCBFC0F5A075154623B372B63378DA0709D5414C414AD4F800E01268404F0EEACA
:2019400002023A6022609F0709D53E4C3B4AD4F800E052683A4F0EEA020222607A605C072A
:2019600007D5394A354B17689B68354C3B401360A36062B6354BDA68B2F1384F09D0344C37
:201980001C60344A4FF038474FF07844DF601C611A6080B2421E8BB22A44194692B2FFF788
:2019A000C5FE2D4B29491B781B0443F0004343F02C034B63CB6A03F4704213F0F00F18BF8B
:2019C0008B6BB2F5405FF5D82449254A254B127808781B781D4C42EA00202A4640EA034380
:2019E000012A43F010450DDD6563E36A03F4704113F0F00F18BFA36BB1F5405FF5D8013A59
:201A0000012AF1DCFFF768FE33788BB1D90703D50B49154A096811609A0703D50849134A17
:201A2000496811605B0703D5054A114B92681A60F8BD00BF00A6FF1F80E100E0E8A5FF1F07
:201A4000F4A5FF1F84E100E088E100E000C0024001401F0000001F80ACA5FF1F89A3FF1F87
:201A600091A3FF1FAF9AFF1F00E100E004E100E008E100E0F8B5464E8B18F02B3378CCBF29
:201A8000C1F1F005154623B372B63378DA0709D5404C414AD4F800E01268404F0EEA020214
:201AA0003A6022609F0709D53D4C3B4AD4F800E052683A4F0EEA020222607A605C0707D5F2
:201AC000384A354B17689B68344C3B401360A36062B6354BDA68B2F1384F09D0334C1C6039
:201AE000334A4FF038474FF07844DF601C611A6089B24B1E82B22B449BB21046FFF716FE86
:201B00002C4B29491B781B0443F0004343F02C034B63CB6A03F4704213F0F00F18BF8B6BF7
:201B2000B2F5405FF5D82449244A254B127808781B781D4C42EA00202A4640EA0343012AEA
:201B400043F010450DDD6563E36A03F4704113F0F00F18BFA36BB1F5405FF5D8013A012AF7
:201B6000F1DCFFF7B9FD33788BB1D90703D50B49144A096811609A0703D50849124A4968E2
:201B800011605B0703D5054A104B92681A60F8BD00A6FF1F80E100E0E8A5FF1FF4A5FF1F60
:201BA00084E100E088E100E000C0024001401F0000001F80ACA5FF1F89A3FF1F91A3FF1F8B
:201BC000AF9AFF1F00E100E004E100E008E100E0F0B45A4B1D780DB372B61A78D60707D53E
:201BE000574D584C2F682468574E3C4034602C60950707D5554D534C2F686468524E3C4001
:201C00002C607460540707D5514C4E4A266892684D4D32402260AA6062B61D784D4BDA6851
:201C2000B2F1384F09D04C4C1C604C4A4FF038464FF07844DE601C611A60464C4FF6FF73C1
:201C4000E26A013B12F4704F9BB201D0002BF7D1404B4FF00042DA621C464FF6FF73E26A79
:201C6000013B002A9BB201DB002BF8D1394AD36AC3F30313002B4FD1394A364E1478394FEF
:201C8000220442F0004444F0D90474633C7802431031200442F00042014371633446726387
:201CA0004FF6FF727063E16A013A11F4704F92B201D0002AF7D1274A4FF00041D1621146CF
:201CC0004FF6FF72C86A013A002892B201DB002AF8D12049CA6A12F0F00F11D16DB1E80719
:201CE00026D4A90703D518491F4A496811606A0703D515491D4A896811601846F0BC704745
:201D00000F228B6BCC6A013A14F0F00FDBB292B2E4D0002AF5D1E1E70F24936BD66A013C3D
:201D200016F0F00FDBB2A4B2A6D0002CF5D1A3E705490F4A09681160D3E700BF00A6FF1F03
:201D400080E100E0E8A5FF1FF4A5FF1F84E100E088E100E000C0024001401F0000001F8051
:201D6000ACA5FF1FAF9AFF1F04E100E008E100E000E100E070B5404C237803B372B6237879
:201D8000DA0707D53D493E4A0E6812683D4D32402A600A609E0707D53B49394A0E685268E0
:201DA000384D32400A606A605D0707D5374A344B15689B6833492B4013608B6062B6344B5C
:201DC000DA68B2F1384F09D032491960324A4FF038454FF07841DD6019611A602F4B2C497A
:201DE0001B781B0443F0004343F036034B63CB6A03F4704213F0F00F18BF8B6BB2F5405FAE
:201E0000F5D800F00300264B022818702CD003281CD0012821D04820FFF734FC214B012295
:201E20001A7023788BB1D90703D516491E4A096811609A0703D513491C4A496811605B0721
:201E400003D5104A1A4B92681A6070BDE820FFF719FC144B00221A70E3E72820FFF712FC16
:201E6000104B00221A70DCE78820FFF70BFC0D4B01221A70D5E700BF00A6FF1F80E100E06E
:201E8000E8A5FF1FF4A5FF1F84E100E088E100E000C0024001401F0000001F80ACA5FF1FE2
:201EA00084A2FF1F749BFF1F00E100E004E100E008E100E02DE9F0410621152019F0E6F8D8
:201EC00028B9814A814B10701870BDE8F081152019F0F4F87C4F7D4E3870062019F0EEF8EF
:201EE0003B787B4D034300210F203370FFF770FE2B780446DBB172B62A78D10700F1D98065
:201F0000930709D57349744BD1F800E05B6873480EEA03030B604360500707D5704A6E4BF5
:201F200010689B686D49034013608B6062B66D4BDA68B2F1384F09D06B4919606B4A4FF099
:201F400038404FF07841D86019611A6096F800803F7867486349042303F1FF3E4FEA0848E4
:201F60003F045FFA8EFE9BB3437843EA080343F000434B6300F1020CCB6A03F4704213F0F4
:201F8000F00F18BF8B6BB2F5405FF5D80EF1020606446046B04211D010F8013B3B4343F0A3
:201FA00000434B63CB6A03F4704213F0F00F18BF8B6BB2F5405FF5D8B042EDD11CF80E306E
:201FC0000CEB0E0003F1FF3E5FFA8EFE002BCBD11120FFF72DFB2B788BB1D90703D53F49B1
:201FE000444A096811609A0703D53C49424A496811605B0703D5394A404B92681A60782071
:202000001AF038F92A78324B02B372B61A78D70707D53B49304B0E681B68304833400360F7
:202020000B60960707D52B492B4B0E685B682B4833400B604360500707D5294A264B106816
:202040009B682649034013608B6062B6254BDA68B2F1384F09D024491960244A4FF0384095
:202060004FF07841D86019611A602920FFF7E0FA2B788BB1D90703D518491E4A09681160E1
:202080009A0703D515491C4A496811605B0703D5124A1A4B92681A601A4A1B4B00252D2036
:2020A0001D701560FFF766FE184B20461D70BDE8F0811349084BD1F800E01B6807480EEA36
:2020C000030303600B601BE7AF9AFF1FACA5FF1F00A6FF1F84E100E0E8A5FF1FF4A5FF1FE9
:2020E00088E100E000C0024001401F0000001F80684D030000E100E004E100E008E100E08F
:2021000080E100E06C9BFF1F9098FF1FC8A3FF1F10B5FFF7CFFEE02818BF0A2410D00A20EB
:202120001AF0A8F8FFF7C6FEE02804F1FF3307D013F0FF04F3D1084A137823F002031370F3
:20214000702019F0E3FC054B012895BF00F00100002218701A7010BD2188FF1F5EA3FF1F62
:20216000F8B53A4C2478012C07D0394C24787CB1384A394B10801980F8BDC2F1EF041A4654
:20218000C0F1EF0308462146314C2478002CEFD1324D2C7804B372B62C78E7070BD5304FEF
:2021A000304ED7F800C03668DFF8CCE00CEA0606CEF800603E60A6070BD52B4F294ED7F8DE
:2021C00000C07668DFF8B0E00CEA06063E60CEF8046064072FD462B6244CE668B6F1384FBE
:2021E00009D0234F27604FF03847E760214E4FF07847276126609BB292B289B280B2FFF799
:2022000095FA2C20FFF714FA2B78002BB4D0D90703D51949194A096811609A0706D45B0751
:20222000AAD5154A164B92681A60F8BD1249154A49681160F3E7144E0A4CD6F800E0A4680E
:202240000D4F0EEA04043460BC60C4E7749BFF1FC8A3FF1F1CA3FF1F1EA3FF1F00A6FF1F91
:2022600080E100E0E8A5FF1F84E100E000C0024001401F0000001F80F4A5FF1F00E100E0B4
:2022800008E100E004E100E088E100E0074B197831B10021084640F23F13EF22FFF760BF89
:2022A000EF2340F23F120846FFF75ABF749BFF1F3D4B1B7843B33D4B1B78012B10D03C4B40
:2022C0003C4A1B88128803EB830302EB4313B3F5964F04DA384A126822F813007047704782
:2022E000364B1B78002BEAD0314B324A1B88128803EB830302EB8313B3F5963FEFDA304AF9
:20230000126822F81300704770B52E4C2378C3B172B62378DA0707D52B492C4A0E68126857
:202320002B4D32402A600A609E0707D52949274A0E685268264D32400A606A605D0729D4B1
:2023400062B6254BDA68B2F1384F09D023491960234A4FF038454FF07841DD6019611A6079
:2023600080B2FFF7B9F9237873B1D90703D518491C4A096811609A0707D45B0704D5144A4E
:20238000194B92681A6070BD70BD1149174A49681160F2E7164A0D4B15689B680C492B405D
:2023A00013608B60CCE700BFC8A3FF1F889BFF1F1EA3FF1F1CA3FF1F7C98FF1FEC9AFF1FF1
:2023C0008898FF1F00A6FF1F80E100E0E8A5FF1FF4A5FF1F84E100E000C0024001401F00B1
:2023E00000001F8000E100E008E100E004E100E088E100E02DE9F04F564C267885B0934603
:202400001F4605460C46002E48D0534B1B78002B7CD104EBD47407EBD77764107F1005EB61
:20242000D5750BEBDB7BBC424FEA65054FEA6B0B73D05D4536D1CBEB0503A74201934FF050
:20244000FF3838DCE31B0293029A01998A424FF0FF3938D8019BDFF80CA1CDF80C905E082E
:202460003E4B76422F46994623463A4621463846FFF776FE9AF8000099F8003043EA0020EF
:20248000FFF716FF5D45454449D0029BF61803D4039B1C44019BF61A4744E5E7994241D07E
:2024A000904249D05D45C6DAC5EB0B03A74201934FF00108C6DD3B1B0293029A01998A42DC
:2024C0004FF00109C6D9254BDFF898A0CDF80C8056087642A34698465B462A465946284649
:2024E000FFF73EFE9AF8000098F8003043EA0020FFF7DEFEBC424C4411D0019BF61803D449
:20250000039B1D44029BF61ACB44E5E7144B1B78002B3FF47EAFBC428BD1274689E705B0CB
:20252000BDE8F08FB5F5A07F01DAEF2C0DDD05B0BDE8F04FFFF7AABEB5F5A07FF7DAEF2C22
:20254000F5DC3A1BFFF796FAF1E7C5EB0B02FFF7E1F9ECE7C8A3FF1F889BFF1F91A3FF1F7B
:20256000EC9AFF1F89A3FF1F2DE9F041414D2B78064603B372B62A78D70707D53E493F4B5E
:202580000C681B683E48234003600B60940707D53C493A4B0C685B68394823400B604360E3
:2025A000500707D5384A354B10689B683449034013608B6062B6354BDA68B2F1384F09D070
:2025C00033491960334A4FF038404FF07841D86019611A600021EF2340F23F120846FFF7B4
:2025E000A5F82D4B294A1B781B0443F0004343F02C0353631346DA6A02F4704112F0F00FCE
:2026000018BF9A6BB1F5405FF5D8DFF89C801F4CB6B2F02798F8000046EA004040F010406F
:2026200040F23F116063E36A03F4704213F0F00F18BFA36BB2F5405FF5D80139F2D13046F2
:20264000FFF74AF8013FE5D12B788BB1D90703D50B49124A096811609A0703D50849104AFF
:20266000496811605B0703D5054A0E4B92681A60BDE8F08100A6FF1F80E100E0E8A5FF1F1C
:20268000F4A5FF1F84E100E088E100E000C0024001401F0000001F80ACA5FF1F00E100E0C4
:2026A00004E100E008E100E0AF9AFF1F90422DE9F041044617460D461E4601DD1446074629
:2026C000B54202DD2B4635461E46B4F5A07F07DAEF2DC4EB070812DDEF2E22DDBDE8F08130
:2026E000B7F5A07F09DAEF2DF8DC761B324629463846BDE8F041FFF7BDB9BDE8F081424666
:2027000029462046FFF706F9EF2E0ADD761B204632462946FFF7AEF9B7F5A07FE6DBBDE83F
:20272000F081424631462046FFF7F4F8EF2DEDDDBDE8F08190422DE9F84302DD0446104643
:202740002246994202DD0C4619462346B0F5A07F80F29980EF2900F39680B2F5A07FDFF830
:202760008091D4BF161AC0F5A076F02BD8BF5D1A99F80030C8BFC1F1F005E3B172B699F855
:202780000020D30700F18380970709D5454C464BD4F800E05B68454F0EEA030323607B604E
:2027A000540707D5424A404B17689B683F4C3B401360A36062B63F4BDA68B2F1384F09D0E6
:2027C0003D4C1C604FF03844DC603C4A4FF078441C611A6089B280B24B1E421E2B4432446A
:2027E0009BB292B2FEF7A2FF354B32491B781B0443F0004343F02C034B63CB6A03F47042A1
:2028000013F0F00F18BF8B6BB2F5405FF5D82D4A2D4B17781B78002D43EA07271EDD254CD1
:202820001FFA87F8012E14DD284B187847EA004040F0104031466063E36A03F4704213F0B9
:20284000F00F18BFA36BB2F5405FF5D801390129F1D14046FEF740FF013DE3D199F80030EE
:202860009BB1D90703D51149194A096811609A0703D50E49174A496811605B0703D50B4AD3
:20288000154B92681A60BDE8F883BDE8F883134C054BD4F800E01B68044F0EEA03033B605A
:2028A000236071E784E100E0E8A5FF1FF4A5FF1F88E100E000C0024001401F0000001F804C
:2028C000ACA5FF1F89A3FF1F91A3FF1FAF9AFF1F00E100E004E100E008E100E080E100E0F6
:2028E00000A6FF1F2DE9F04F904283B0054616460C461F4601DD15460646BC4202DD234691
:202900003C461F46C5EB0608B8F1040F39DDC4EB0709B9F1040F34DD05F1010ABAF5A07FE4
:2029200004F1010330D306F1FF3BBBF5A07F32D305F1020ABAF5A07F05DAEF2CA8F1040827
:2029400046DDEF2F3EDDB5F5A07F04F10204A9F1040911DAEF2C14DC28464A462146FFF75F
:2029600089F8B6F5A07F0CDA4A462146304603B0BDE8F04FFFF77EB8B6F5A07F01DAEF2C36
:20298000F2DD03B0BDE8F08FEF2B2CD906F1FF3BBBF5A07F2ED2EF2B20D9BAF5A07F07F199
:2029A000FF330CD2EF2BC3D8194650460193FEF729FF019B19465846FEF724FFB8E7EF2B42
:2029C000B6D8F7E7424639465046FEF7A3FFBAE7424621465046FEF79DFFB2E7194658460A
:2029E000FEF710FFD9E7194650460193FEF70AFF019BCBE7791EEF299AD85046FEF702FF91
:202A000096E700BF2DE9F04F904283B005460F461E4601DD15460246B74202DD3B463746C5
:202A20001E46541B042C38DDC7EB0608B8F1040F33DD07F1010BA31E4FF00009CDF800B070
:202A40004FEA6808B34605F1010A264601934C4634BB05F10209B9F5A07F06DAEF2FA6F1EF
:202A6000040420DDBBF1EF0F25DDBAF5A07F06DA009BEF2B34DD0BF1FF31EF292BDD0224BF
:202A8000B5F5A07F06DA3919EF291FDDC4EB0B01EF2916DD01344445DADD03B0BDE8F08F15
:202AA000012CE2D0ECE7224639464846FEF732FFBBF1EF0FD9DC224648465946FEF72AFFB7
:202AC000D3E732462846FEF725FFE3E732462846FEF720FFDAE7019A5046FEF71BFFCEE7C3
:202AE000019A19465046FEF715FFC4E72DE9F04F834B8BB01B7809900391924693B1814B8C
:202B00001B78002B40F0F680099B03EBD371039B03EBD37249100AEBDA735210099103927E
:202B20004FEA630A039FDDF82480774C774D07EB0A094FEA4A0649464B46424640467642D9
:202B40000896FFF70DFB2B782078CAEB070243EA00203E4607921746FFF7AAFB4246394677
:202B600010463B46FFF7FCFA2B78207808EB0A0B43EA0020FFF79CFB5A4658463346314647
:202B8000FFF7EEFA2B782078CAEB08010F4643EA00200691FFF78CFB3A46384633463146BA
:202BA000FFF7DEFA2B78207843EA0020CAF101030193FFF77DFBBAF1000F40F396800127D3
:202BC000CDF80890099904977E0001EB0709C6EB09030093039B03EB0708C6EB080306F143
:202BE000010E019E0593002E4A46484607F1010712DB089B02331E440893039B01960AF151
:202C0000FF3A03EB0A06CAEB03030793CAEB0103029601EB0A0B06930299019E0B467644F8
:202C20000196FFF79DFA2B78207843EA0020FFF73FFB029900980B460246FFF791FA2B78C8
:202C4000207843EA0020FFF733FB079E4A46314633464846FFF784FA2B78207843EA0020BC
:202C6000FFF726FB009A314610463346FFF778FA2B78207843EA0020FFF71AFB4146434652
:202C80005A465846FFF76CFA2B78207843EA0020FFF70EFB069E4146434632463046FFF77B
:202CA0005FFA2B78207843EA0020FFF701FBDDF814805A46414643465846FFF751FA2B78A6
:202CC000207843EA0020FFF7F3FA4346324641463046FFF745FA2B78207843EA0020FFF77B
:202CE000E7FA049B9A453FF76DAF0BB0BDE8F04FFFF7CCBA064B1B78002B7FF413AF03E7DA
:202D0000C8A3FF1F889BFF1F89A3FF1F91A3FF1FEC9AFF1F2DE9F04F924B85B01B7803911B
:202D20000546019273B1904B1B78002B40F0C780039B03EBD372019B03EBD37352105B1013
:202D400003920193894B1A78002A60D1884BDFF830A21C78002C00F0B8809AF804109AF8ED
:202D600005009AF806B0CB0813FB00F0CBEB050B00FB0BFB0BF104040094002842D0DFF8C5
:202D80000892DFF8F88102920398029AB2FBF3F30A1801990B441946013AFFF7E1F99AF8E4
:202DA0000410CB085F1E0BB3724E734DDAF80030DA19009BD45C4FF0000B44FA0BF3DA074A
:202DC00047BF98F800002B7899F8000033780BF1010B43EA0020FFF76BFABBF1080FECD14E
:202DE00017F1FF37E2D29AF80410CB0802989AF80520009C184403FB02F21C448242029077
:202E00000094C1D805B0BDE8F04FFFF73FBADFF870A19AF804209AF805109AF80600D20846
:202E200002FB01F32D1A03FB05F52B1D00930029E8D0019B5F1C02F0FF038AB3DDF80CB0CD
:202E400007F1FF384FF00009DAF80030009A4B4458469E5C072402E0631C284617D0451CF6
:202E60003B462A464146FFF77BF946FA04F313F0010F04F1FF34EFD0404B18783E4B1B7808
:202E800043EA0020FFF714FA631C2846E7D19AF8043009F10109DB084B450BF1080BD3DC41
:202EA000019A00989AF80510BA1A18449142009007F10107A6D9324B1A79D208BBE7314B1E
:202EC0001B78002B7FF43EAF32E701999AF805309AF8042003980B440244013B013AFFF707
:202EE0003FF99AF804109AF806309AF80520C908ED1A11FB02F202FB05F52B1D0093002AA1
:202F000080D0DFF88490DFF86C801C4F1A4EA346DAF80030009A9C5C072544FA05F2D1072A
:202F200047BF3878327899F8000098F8002042EA0020FFF7BDF915F1FF35EED29AF8042048
:202F40009AF80530D20812FB03F3009A0BF1010B01325B450092DBD805B0BDE8F04FFFF784
:202F600095B900BFC8A3FF1F889BFF1F9098FF1F749BFF1F78A2FF1F91A3FF1F89A3FF1F33
:202F80006C9BFF1FEC9AFF1FD0A1FF1F174BF0B41B6804331A780A705C784C609E788E6089
:202FA000DD78CD601C797F2CC8BFC4F580740C619F1D82425B794B610BD0FF2A12D016FBB7
:202FC00005F56EB16B1E48BFAB1D07EBE3030133E0E7B2F1FF0018BF01208F61F0BC7047C0
:202FE0003B46D7E700208F61F0BC70476C9BFF1F2DE9F04F8BB08B4603A90192FFF7C6FF9F
:2030000000284FD0354C364D364B21782A781B7842EA01220092002B47D0059B002B40D018
:20302000069A002A3DDD4FF00008099FC14646468025002B2EDD019A00210C4602EB080A42
:2030400009E02A4616424FEA550510D10134E4B29C4221461DDA03FB08125207F1D13E785B
:20306000802216424FF0400507F10107EED0079A049B5A440A44534419461046FFF770F83E
:203080000098FFF715F90134059BE4B29C422146E1DB069A09F101095FFA89F99145C846C5
:2030A000C7DB08980BB0BDE8F08F0F490F4B0978089A5B790E482170019906782E705A440B
:2030C0000B4401325846FFF735FB009A2A70130A2370059B002BA3D1E3E700BF89A3FF1FB4
:2030E00091A3FF1F9098FF1FD0A1FF1F6C9BFF1F78A2FF1F2DE9F04F93B008910BA90992CC
:203100000593FFF743FF002800F08F80DDF83480B8F1000F00F086801C981DF065FF5349C0
:203120001DF0B6FF1DF02AFB04460D461BF00AFF1DF050FE2946009020461BF04DFF1DF0C6
:2031400049FE0E9B002B83466CDD4948494900780978119A0692002741EA0022079202973D
:203160004FF0800AC146B9F1000F58DD08981DF03BFF039009981DF037FF00240490C8466D
:203180003CE0CDF804A04FEA5A0A059BE0181DF02BFF05460C9838441DF026FF29460646E6
:2031A00000981DF075FF3146814658461DF070FF014648461DF062FE03991DF061FE1EF046
:2031C00043F93146814600981DF062FF2946064658461DF05DFF014630461DF051FE0499F7
:2031E0001DF04EFE1EF030F9029B019A13421FD1214B1B7843B30134A0450EDD08FB07437B
:203200005B07BED1069A1378029313460133069380234FF0400A0193B7E70E9BC146013791
:20322000BB42A0DCFFF732F8109813B0BDE8F08F034601464A464846FEF792FF0798FFF79D
:2032400037F8DDF83480D6E7034601464A464846FEF786FF094B1878094B1B7843EA0020B9
:20326000FFF726F8DDF83480C5E700BF295C8F3C89A3FF1F91A3FF1F9098FF1FD0A1FF1F85
:2032800078A2FF1F2DE9F04F95B004461E9813929B4612911DF0A8FE6449DFF8A0811DF0CE
:2032A000F7FE1DF06BFA98F8046098F80630CDE9100198F80510F208E41A02FB01F303FB9A
:2032C00004F3181D0E90002900F0AA8000210F9102F0FF03002A00F08B8012981DF03CFA1A
:2032E000CDE90001DDE910011BF02CFE81468A460F98CDE9029A1DF02FFA04460D46DDE9E2
:2033000010011BF069FE02460B4620462946CDE904231DF087FACDE9060113981DF01CFAC6
:203320002B46CDE908012246484651461DF07AFACDE90A0100230D93D8F800300E9A0D997D
:2033400013444FEAC10913F801A009F107090724304608E0364B1B78002B58D014F1FF3435
:203360003DD398F80400C4EB09030BFB00301DF0F3F9DDE9022306460F461DF053FADDE913
:2033800006231DF09BF8DDE900231DF099F81DF0F9FCDDE904230546394630461DF042FA65
:2033A000DDE90A231DF08CF8DDE908231DF088F81DF0E8FC6A1C431C01462846FEF7D0FEBD
:2033C0004AFA04F3DB07C5D51A4A1B4B10781B7843EA0020FEF76CFF14F1FF34C1D20D9B31
:2033E00098F8046001331A460D93F3089342A3DC0F990E9C98F8052010480131C9B21C44EA
:203400008A420F910E940BD90679F20860E70C4B18780C4B1B7843EA0020FEF749FF9DE71B
:2034200015B0BDE8F04FFEF731BF00BF295C8F3C9098FF1F89A3FF1F91A3FF1F6C9BFF1FE8
:20344000D0A1FF1F78A2FF1F2DE9F04F83B098460C46174606461FF073F94E4B1B788246D5
:203460004BB14D4B1B78002B61D104EBD47407EBD77764107F10494B1B78002B43D142F2B4
:203480000F739C4277D042F20E739C425AD0BAF1000F16DD4FF0000BDFF804915D46B8F119
:2034A000000F11D199F8043021463A46CBB93078FFF79EFD013004440135AA4506F1010616
:2034C000EDD103B0BDE8F08F99F804005B463A46214678B93078CDF80080FFF70BFE834456
:2034E000EAE721463A463078FFF714FC2C4B1B791C44E1E73078CDF800802B463A462146EE
:20350000FFF7C0FED8E742F20F739C4226D042F20E739C42BBD1DFF8889099F804400AFBC6
:2035200004F4C4F1F00404EBD4746410AFE71D4B1B78002B9FD104EBD47407EBD777641028
:203540007F1098E7DFF8589099F804400AFB04F4C4F5A07404EBD474641098E7DFF840902E
:2035600099F804400AFB04F4C4F1F00442F20E739C428CD1CFE7DFF8289099F804400AFBC1
:2035800004F4C4F5A07442F20E739C427FF47FAFD8E700BFC8A3FF1F889BFF1F749BFF1FBD
:2035A0006C9BFF1FEC9AFF1F2DE9F041856805F1080424F0070400AFADEB040D16460C46E7
:2035C00098466A1C694600231AF066FC4346324621466846FFF738FFBD46BDE8F08100BF2E
:2035E0002DE9F0418568DFF84080DFF840E088F8003005F1080424F0070400AFADEB040DE0
:203600004FEA132C0C46164669466A1C00238EF800C01AF041FC3246214668460023FFF7F9
:2036200013FFBD46BDE8F08191A3FF1F89A3FF1F2DE9F0478EB000289DF858C01CD1002B4B
:203640006FD0012B79DD07A89D1E05440DF11B0404F801CFA542FBD15C1E0EAD2C442B4446
:203660003026002504F81C6C03F81C5C0023FFF7EBFE0EB0BDE8F087B4BF01260026DFF865
:20368000C4E0B8BF4042B0460DF1FF3700258EFB0049C417C4EBA90404EB8404A0EB4404EB
:2036A000001B8EFB00A9C0173034D0EBA90005F1010507F8014FEAD10EAC2C4404F8380CAE
:2036C000B8F1000F02D02D208DF81C00AF19BB420EDD5B1B9B1B002B0ADD741E03EB040EF2
:2036E00007A88644044404F801CF7445FBD101E0002307A8F418013CEE4604446D4415F882
:20370000016D04F8016F7545F9D10EAC23443B44002403F81C4C0023FFF796FE0EB0BDE814
:20372000F08730208DF81D308DF81C00002307A8FFF78AFE0EB0BDE8F0870446012307A808
:203740008BE700BF676666662DE9F04F9F4D89B02D78129C139F0493064693462DB372B65C
:203760009A4B1A78D30709D599489A4BD0F800E01B68994D0EEA03032B600360950709D5DD
:203780009648944BD0F800E05B68934D0EEA030303606B60500707D5914A8E4B15689B688E
:2037A0008D482B401360836062B68E4BDA68B2F1384F09D08C4818604FF03840D8608B4A2D
:2037C0004FF0784018611A60012F894B00F0B9801A78049B002A68D0002B44DDB3B2BAB222
:2037E0000293013B1BFB02339BB203934FEA4B03079206938AB2002301920593069B002FB7
:2038000004EB030AC8BF4FF000081EDD019B039A029843449BB21946FDF788FF2C20FDF722
:2038200007FFBBF1000FC8BF56460ADD36F8029D002501354846FDF74FFFAF42F9D1B44214
:20384000F4D108F101084745E0D1019B079A134499461FFA89F2059B0192049A01339A427C
:2038600005935446CAD10021084640F23F13EF22FDF75CFF2C20FDF7DBFE544B1B788BB1A1
:20388000D90703D554495B4A096811609A0703D55149594A496811605B0703D54E4A574B00
:2038A00092681A6009B0BDE8F08F002B3EDDB3B2B8B20693013B1BFB00339BB207934FEA64
:2038C0004B03059089B201920293059B079A069801EB030A1FFA8AF30393FDF727FF2C2038
:2038E000FDF7A6FE029B002F04EB0308C8BF4FF0000913DDBBF1000FC8BFA2460ADD3AF868
:20390000026B002501353046FDF7E6FEAF42F9D1D045F4D109F101094F45EBD1019B049A6E
:20392000039901339A4201934446CED100210846EF2340F23F12FDF7F9FE2C20FDF778FE79
:203940009BE71B7843B3049B002B8CDD049B06EB0B080B44019308F1FF330D4602934FEA57
:203960004B0A2746D9462B46029A29463046FEF7F7FBBBF1000FC8BF04EB490805DD38F8F9
:20398000020DFDF7A9FE4745F9D1019B01359D425744D944E7D166E7049D2B460B4406EB67
:2039A0000B02013B0BFB05FB013A3046FEF7D8FBBBF1000FC8BF04EB4B0BB7DD34F8020BEB
:2039C000FDF78AFEA345F9D1B0E700BF00A6FF1F80E100E0E8A5FF1FF4A5FF1F84E100E0B7
:2039E00088E100E000C0024001401F0000001F80749BFF1F00E100E004E100E008E100E001
:203A00002DE9F047DFF87482DDF820A098F80040099D16469946E4B172B698F80020D307FF
:203A200000F10781970709D5874C884BD4F800E05B68874F0EEA030323607B60540707D513
:203A4000844A824B17689B68814C3B401360A36062B6814BDA68B2F1384F09D07F4C1C601B
:203A60004FF03844DC607E4A4FF078441C611A6089B280B209F1FF33721E0B4402449BB28A
:203A800092B2FDF753FE774B73491B781B0443F0004343F02C034B63CB6A03F4704213F006
:203AA000F00F18BF8B6BB2F5405FF5D8B9F1000F40F3A6806C4F684C3878042E51464FEAF4
:203AC000004054DDB6460B789B0935F81330034343F010436363E36A03F4704213F0F00F58
:203AE00018BFA36BB2F5405FF5D80B78C3F3011335F81330034343F010436363E36A03F43B
:203B0000704213F0F00F18BFA36BB2F5405FF5D80B78C3F3810335F81330034343F0104300
:203B20006363E36A03F4704213F0F00F18BFA36BB2F5405FF5D811F8013B03F0030335F864
:203B40001330034343F010436363E36A03F4704213F0F00F18BFA36BB2F5405FF5D8AEF101
:203B6000040E1FFA8EF3042B0FFA83FEABD80B789B0935F81330034343F010436363E36AE7
:203B800003F4704213F0F00F18BFA36BB2F5405FF5D80B78C3F3011335F81330034343F04C
:203BA00010436363E36A03F4704213F0F00F18BFA36BB2F5405FF5D80B78C3F3810335F812
:203BC0001330034343F010436363E36A03F4704213F0F00F18BFA36BB2F5405FF5D80B789D
:203BE00003F0030301F1010A35F81300FDF774FD09F1FF339BB20FFA83F9002B7FF45CAF83
:203C000098F800309BB1D90703D51149174A096811609A0703D50E49154A496811605B0790
:203C200003D50B4A134B92681A60BDE8F087BDE8F087114C054BD4F800E01B68044F0EEA26
:203C400003033B602360EDE684E100E0E8A5FF1FF4A5FF1F88E100E000C0024001401F001B
:203C600000001F80ACA5FF1FAF9AFF1F00E100E004E100E008E100E080E100E000A6FF1F7B
:203C80002DE9F047DFF8D881DDF820A098F80040099D16469946E4B172B698F80020D3071A
:203CA00000F1B980970709D5604C614BD4F800E05B68604F0EEA030323607B60540707D555
:203CC0005D4A5B4B17689B685A4C3B401360A36062B65A4BDA68B2F1384F09D0584C1C605C
:203CE0004FF03844DC60574A4FF078441C611A6089B280B209F1FF33721E0B4402449BB22F
:203D000092B2FDF713FD504B4C491B781B0443F0004343F02C034B63CB6A03F4704213F012
:203D2000F00F18BF8B6BB2F5405FF5D8B9F1000F58DD464F414C3878022E51464FEA0040A4
:203D40002EDDB6460B781B0935F81330034343F010436363E36A03F4704213F0F00F18BFE4
:203D6000A36BB2F5405FF5D811F8013B03F00F0335F81330034343F010436363E36A03F492
:203D8000704213F0F00F18BFA36BB2F5405FF5D8AEF1020E1FFA8EF3022B0FFA83FED1D8CE
:203DA0000B781B0935F81330034343F010436363E36A03F4704213F0F00F18BFA36BB2F5D6
:203DC000405FF5D80B7803F00F0301F1010A35F81300FDF781FC09F1FF339BB20FFA83F943
:203DE000002BA8D198F800309BB1D90703D51149174A096811609A0703D50E49154A4968DE
:203E000011605B0703D50B4A134B92681A60BDE8F087BDE8F087114C054BD4F800E01B68BC
:203E2000044F0EEA03033B6023603BE784E100E0E8A5FF1FF4A5FF1F88E100E000C00240FF
:203E400001401F0000001F80ACA5FF1FAF9AFF1F00E100E004E100E008E100E080E100E0FD
:203E600000A6FF1F2DE9F843804D2B7880460C4603B372B62A78D70707D57D497D4B0E6867
:203E80001B687D48334003600B60960707D57B49784B0E685B68784833400B6043605007C8
:203EA00007D5774A734B10689B687349034013608B6062B6734BDA68B2F1384F09D07249F9
:203EC0001960724A4FF038404FF07841D86019611A600021EF2340F23F120846FDF726FCB8
:203EE0006B4B684A1B781B0443F0004343F02C0353631346DA6A02F4704112F0F00F18BFFE
:203F00009A6BB1F5405FF5D8002C00F0908008F51749604E5B4C08F59E7709F13C09A8F1C2
:203F2000020896F800E040464FEA0E4E30F8021F41EA0E0141F010416163E36A03F470422F
:203F400013F0F00F18BFA36BB2F5405FF5D86163E36A03F4704213F0F00F18BFA36BB2F51F
:203F6000405FF5D88742E1D1788840EA0E0343F010436363E36A03F4704213F0F00F18BF04
:203F8000A36BB2F5405FF5D8FDF7A6FB96F800E040464FEA0E4E30F8021F41EA0E0141F02E
:203FA00010416163E36A03F4704213F0F00F18BFA36BB2F5405FF5D86163E36A03F4704242
:203FC00013F0F00F18BFA36BB2F5405FF5D88742E1D1788840EA0E0343F010436363E36A98
:203FE00003F4704213F0F00F18BFA36BB2F5405FF5D807F5A077FDF76FFBB94508F5A0789A
:204000008FD12B788BB1D90703D51B49224A096811609A0703D51849204A496811605B072F
:2040200003D5154A1E4B92681A60BDE8F883194B1449187808F51534000404F2FE3638F857
:20404000023B034343F010434B63CB6A03F4704213F0F00F18BF8B6BB2F5405FF5D846455E
:20406000EDD1B4F8FE03FDF737FBCAE700A6FF1F80E100E0E8A5FF1FF4A5FF1F84E100E052
:2040800088E100E000C0024001401F0000001F80ACA5FF1FAF9AFF1F00E100E004E100E07A
:2040A00008E100E010B52A4904461DF0A3F908B1642010BD4FF0814120461DF09BF908B141
:2040C0005A2010BD234920461DF094F908B1502010BD214920461DF08DF908B1462010BDE8
:2040E0001E4920461DF086F908B13C2010BD1C4920461DF07FF908B1322010BD1949204695
:204100001DF078F908B1282010BD174920461DF071F908B11E2010BD144920461DF06AF91F
:2041200008B1142010BD124920461DF063F908B10A2010BD20460F491DF05CF94FF0010388
:2041400000B9034683F00100C0B2404210BD00BF333383401F857B40EC5178408FC27540E6
:2041600033337340D7A3704052B86E40CDCC6C40713D6A40000040403E4B1B7810B43BB15B
:204180003D493E4B4FF480704FF4107208601A603B4B1B781BB93B4B1B78012B35D03A4B7A
:2041A0001A7882B9394B3A4AD968914206D0394C39483A491C60DA601861196000210F20BF
:2041C00010BC18F019B872B61B78D90707D53449344A0C6812683448224002600A609A078F
:2041E00007D532492F4A0C6852682F4822400A6042605B0707D52E4A2A4B10689B682A49C3
:20420000034013608B6062B6CCE71F4B1A7802B372B61B78DA0707D52149224A0C68126845
:204220002148224002600A609C0707D51F491D4A0C6852681C4822400A604260580707D55E
:204240001B4A184B10689B681749034013608B6062B60E4BDA68B2F1384FAFD00D491960EF
:204260000E4A4FF038404FF07841D86019611A60A4E700BFAFA5FF1F14B0044004C004403F
:20428000889BFF1F19A3FF1F00A6FF1F00C00240000001BA01401F00000001FA00001F8088
:2042A00080E100E0E8A5FF1FF4A5FF1F84E100E088E100E008B5154A154B012111601B782B
:2042C0008BB1D90703D51349134A096811609A0703D51049114A496811605B0703D50D4A6F
:2042E0000F4B92681A600F4B1B783BB10E490F4B4FF410704FF4807208601A60BA2017F0AB
:20430000B9FFBDE80840FFF737BF00BF84F00F4000A6FF1FF4A5FF1F00E100E004E100E089
:2043200008E100E0AFA5FF1F14B0044004C004402DE9F04F00F001024308960003EB830395
:2043400016445A0187B002EB0612C2F59556DFF880E15B4F019605921646C2F515520292AC
:204360009EF8008097F800A0029A564C564B94F800901C68554BC6F59547C6F5605E019E2A
:2043800004970139009106F11F0100EB800501911146049AAD013F31C5F595477F3200EB59
:2043A000800B02910EF13F0104926E4203914FEA4B1B7F37A03500221AE0B9F1000F25D0D2
:2043C00002EB0B0104EB810E24F8210004EB4501AEF8020024F8150048800132502A03F1B2
:2043E0000203A7F10207A6F1020605F1020535D01879597951EA002031D0B8F1010F1DD011
:20440000BAF1000FD9D1B9F1000FD9D002EB0B01A1F515513F3906F5944C06F5944EC1EB05
:2044200081710CF15F0C0EF15E0E24F8170024F8210024F81C0024F81E00CEE70099B9F1DD
:20444000000F05D10329C8D8DFE801F035302B260329C2D8DFE801F01B140D06012007B0A5
:20446000BDE8F08F0599511801F5615124F81100B3E70599511801F5165124F81100ACE77E
:204480000599511801F5965124F81100A5E70599511824F81100A0E70199891A24F811005A
:2044A0009BE70299891A24F8110096E70399891A24F8110091E70499891A24F811008CE7CE
:2044C000AFA5FF1F5EA3FF1F7C98FF1FD4A1FF1F19A3FF1F2DE9F041264B274C1A68267861
:2044E000A4464FF0004542F480621A608846DD6229461C4665465E630CF1A30E1A466F787D
:20450000E36A002BFCDA966B136843F480631360D162576305F8016B7545F0D11549CB6AE0
:20452000144A002BFBDA9CF80030926B8CF8A32003F00F020F2A104905D04A78824205D04F
:204540000320BDE8F0810120BDE8F081142802D00020BDE8F081094A1278012AF8D11B11AA
:2045600002D10420BDE8F081434514BF02200020BDE8F08100C00240D4A1FF1F19A3FF1F0C
:204580002DE9F843344BDFF8F8801B78012B0CBF4FF004094FF00109FFF7EEFD01260027AE
:2045A000FF2F36D0002405E02846FFF7C1FE50B13C2C17D0E5B231462846FFF78BFF01341A
:2045C00031460028F0D017F031FE0137FFB2044600E000BF17F02AFE001BB0F5487FF8D3F3
:2045E0003C2DDDD10136F6B2B145D8D21B4A1C4B012111601B78E3B91A4B1B783BB11A4950
:204600001A4B4FF410704FF4807208601A60BDE8F88398F80030DBB2012B04D0FFF74AFEB0
:2046200001260027BEE70D490D4A0B601378002BE2D0D90703D50E490E4A096811609A071D
:2046400003D50B490C4A496811605B07D4D5084A0A4B92681A60CFE719A3FF1F84F00F403D
:2046600000A6FF1FAFA5FF1F14B0044004C00440F4A5FF1F00E100E004E100E008E100E0EE
:20468000C09AFF1F2DE9F0410B4E0C4CDFF830804FF480754FF4107735602760FCF79AF97F
:2046A000404615F0FBFE98F8043037605B0800FB03F02560BDE8F08114B0044004C004401F
:2046C0008C9BFF1FF8B50A4E0A4C0B484FF480754FF410773560276016F078FA074A00F20E
:2046E000FF7310603760C3F3CF202560F8BD00BF14B0044004C00440EC9FFF1F8CA3FF1F9D
:2047000030B58DB0FFF7DEFF48B30446FFF7BAFF0A22810A684619F00BFB694604A819F0D8
:20472000D5FA104904A819F08DFB0A220546611E08A819F0FDFA08A9284619F07BFB0A497D
:2047400019F080FB0146094819F01AFB08A819F069FA04A819F066FA684619F063FA0DB01D
:2047600030BD00BF808802008488020020A3FF1F38B51D481D4B1E494FF410724FF4807477
:2047800004601A60A1F10C000223142216F09AF848B900201449154B4FF410744FF48072D0
:2047A0000C601A6038BD134814F00CFC0121124815F0CCFE88B1104C04F23C45284621468B
:2047C00014F086FD0028E4D094F83C3413F0700316BF0A4B18461D60DCE70146064815F0A2
:2047E000B5FE0028E7D1D4E714B0044004C00440F89FFF1FC89FFF1F8C9BFF1FE0A5FF1F39
:2048000008B50E490E4819F0C3FAFFF7B1FF70B90C4B1B783BB10C4B1B7823B90B4A13781D
:2048200023F0100313700A4B0A4A1A6008BDFFF767FF074B074A1A6008BD00BF88880200D8
:2048400020A3FF1FAFA5FF1F889BFF1F2188FF1FE4A5FF1F1D080000F8B5344C4FF400724F
:20486000002120461DF0A2FA314A3248324900780968324B12781E68B1FBF0F512FB00F292
:2048800000FB1515B1FBF2F39F080135DFF8B4E084F8C13107F0C00765F30507AA259EF825
:2048A00000E084F8FF518D19013D84F8C07184F8C2E1B5FBF2F71FFA87FE4FF0550CBEF512
:2048C000806F02FB131384F8FEC1B3FBF0F384F8BF3112D3FF20FE2284F8C50184F8C321C8
:2048E00084F8C401C4F8C611C4F8CA610F4A14480021BDE8F84016F051BA94F8C431B5FB08
:20490000F0FE4FEA272C00FB1E5E0EF1010E6CF387136EF3050302FB175284F8C571B2FB71
:20492000F0F084F8C43184F8C301DBE79C98FF1F9D9AFF1FB1A3FF1FD89AFF1FA8A1FF1F14
:20494000EC9FFF1F9E9AFF1F38B54FF4007204460D460B4800211DF029FA21462A4609484D
:2049600016F074FA002435B101340549054816F039FAA542F8D10348BDE8384016F090BA48
:204980009C98FF1FEC9FFF1F2DE9F84FDFF80492754BD9F800E01878744D754FAEF5807138
:2049A000B1FBF0F101F201131B0A5C004FF4807204F1A10696422B603A6088BF4FF4C07357
:2049C00001D8CEE06346C3EB0E01B1FBF0F101F20112120A540004F1A1069E4203F1800CEB
:2049E000F0D83B602A609B1B04F12102614EDFF8A8A1614CDFF8A48101FB002103F18000F3
:204A0000306047F6A770813301228142CAF800102360A8F8002000F29C80584B1A70DFF8F1
:204A200080B1FFF719FF4FF40072002158461DF0BDF95A46EB2090218BF80000552002F8B2
:204A4000021FAA218BF8FE018BF8FF110BF10A00202102F8011F8242FBD1DAF800204248E8
:204A6000CBF820204649474A90F800C0B8F8000091F800E0D9F800301278ABF80E00022054
:204A80004FF0000A29688BF80DC0ABF818E04FF0F80CABF81A208BF80C0032688BF8100075
:204AA0008BF812004FF0800E29208BF815C04FEA0329ABF81610CBF81C208BF824E08BF8BC
:204AC0000BA08BF811A08BF8260017F0AFFB2E4ADFF8D0802D4B814403CACBF82B00C8F846
:204AE000041003CBB2F800E0C8F80F1031689678CBF83600A8F12B02A8F808E088F80A6093
:204B00002348CBF8279016F049F920683968091AFFF71AFF5146A8F12B004FF400721DF0F0
:204B200045F94FF6F877A8F12B0221681848ABF800704FF6FF76ABF8026016F02FF921684B
:204B40002B681348A8F12B021944BDE8F84F16F025B9B1F5803F094B34BF042206221A70F0
:204B60005DE713463FE700BF88A3FF1F8498FF1F04A0FF1FD89AFF1FB0A1FF1F9E9AFF1F19
:204B8000B1A3FF1F9D9AFF1F1488FF1F3088FF1FEC9FFF1F8CA3FF1FA8A1FF1F8CA2FF1F15
:204BA0009C98FF1FC798FF1F2DE9F84F944F954ED7F8008096F800C0934D944CDFF87C92C1
:204BC000A8F58041B1FBFCF101F18103DB09580000F5005A4FF4804E0AF1090A4FF4005229
:204BE000F2452B602260C9F800E018D94FF4C04E00E0D646CEEB0801B1FBFCF101F18103C1
:204C0000DB09580000F50052093272450EF5005AEFD8AEF50052C9F800E02B6092B27C4BCF
:204C2000DFF81CB2DFF81CA2DFF81C82DFF81C9201FB0CE1101A9942A1F50052754BCAF8E8
:204C4000002080B294BF0B220C22ABF8000000F500501A70C9F80000FFF7FEFD4FF400727B
:204C6000002140461DF0A2F84346EB21902288F80010552103F8022FAA2288F8FE1188F892
:204C8000FF2108F10A01202203F8012F8B42FBD16149624ADAF8003009781278C8F8203077
:204CA00002233078A8F81810A8F81A2088F80C30226888F81030C8F82C30F8212B68BBF804
:204CC00000E088F80D004FF0000B88F81510C8F81C2006218022C8F8243001202923A8F892
:204CE0000EE0A8F8321088F8402088F8423088F80BB0A8F830003F6817F098FA484B494AA1
:204D00004FEA072A824403CB474FC8F84700796003CAC7F80F10C8F8520018889B78BB7282
:204D200021683881A7F14702C8F843A03F4816F035F821683D48A7F14702063116F02EF8A1
:204D40005946A7F147004FF400721DF02FF8216836485523A7F1470288F8FE310231AA23DD
:204D600088F8FF3116F01AF821683048A7F14702083116F013F821682D4BC8F800302D48D9
:204D8000C8F8E4014FF0FF33C8F8E831C8F8EC31A7F147020131254816F000F821682348D5
:204DA000A7F14702073115F0F9FF33782968D9F8000003EB4101FFF7C7FD5946A7F1470068
:204DC0004FF400721CF0F2FF1B4BD9F80010C8F80030A7F147026FF070431448C8F80430A7
:204DE000C8F8083015F0DAFFD9F800102B680F48A7F147021944BDE8F84F15F0CFBF00BF96
:204E00008CA3FF1F88A3FF1F8498FF1FD89AFF1F0004FB009E9AFF1FB1A3FF1F9D9AFF1F16
:204E20001488FF1F2488FF1FE398FF1FEC9FFF1F5252614172724161F8FFFF0F04A0FF1F19
:204E40008CA2FF1FA8A1FF1F9C98FF1FB0A1FF1F3D4B3E493E4810B54FF410724FF4807488
:204E60000C601A6015F0B2FE3A4A3B4B106000F2FF70C0F3CF201028188015D8374C38485A
:204E8000384A02232021237003701170364B1B78DBB1FFF789FE2D492B4B4FF410704FF494
:204EA000807208601A6010BD20282C4B10D804221A7020222B4B90421A7015D8284B042260
:204EC0001A70294B1B78002BE3D1FFF75DFDE2E7402815D980281FD810221A70B0F5807FF4
:204EE000E7D9204B3F221A7080281D4B05D9B0F5FC7F08D810221A70C8E708221A70C5E7E3
:204F000008221A70EAE7B0F57C7F12D9B0F5FC6F12D840221A70B9E7B0F5806F02D820224B
:204F20001A70DBE7B0F5004F94BF402280221A70D4E720221A70A9E7B0F57C6F94BF8022B4
:204F4000FF221A70A2E700BF04C0044014B00440EC9FFF1F8CA3FF1F9CA1FF1F88A3FF1FB4
:204F60009D9AFF1FB1A3FF1F889BFF1FF0B41C4B1C4C1D481D494FF400721A6022600268D0
:204F800022F4802202604FF400074FF080764FF000754FF080644FF000621F601E601D6086
:204FA0001C601A600B68114A1806FBD41368590603D5136843F0400313600D4B1A68120638
:204FC00003D51A6842F080021A600A480A490B4AA024047000230B60F0BC1360704700BFF4
:204FE00088E100E088E200E03480044024B00B4000B00B4000400640448004404880044072
:2050000008B5002016F082FDAE2800D008BD0021084616F095FD72B6FFF7A8FF48F6800039
:20502000C0F20300D0F800D0D0F804F008BD00BF00B583B069460023052218F02DFF684620
:205040001CF04EFA03B05DF804FB00BF38B5094D094C2888000A18F0BBFB287818F0B8FBCB
:205060002088000A18F0B4FB2078BDE8384018F0AFBB00BF78A3FF1F80A3FF1F2DE9F04120
:20508000164B1B78012B17D0B0B9154E804608F5A077444633681D5B280A18F099FB0434C0
:2050A000E8B218F095FBA742F4D108F52078B8F5164FECD1BDE8F081094E00243368185B0D
:2050C000000A18F085FB3368185D023418F080FBB4F5164FF2D1BDE8F08100BF19A3FF1FF5
:2050E0007C98FF1F38B5124B1C7814B1114B1C7874B9114D2B68185B000A18F069FB2B6851
:20510000185D023418F064FBB4F5164FF2D138BD0A4D00242B68185B000A18F059FB2B683D
:20512000185D023418F054FBB4F5163FF2D138BD889BFF1FEC9AFF1F7C98FF1F8898FF1F62
:2051400008B5194B1878032808BF002018F040FB164B187818F03CFB154B187818F038FBEE
:20516000144B187818F034FB134B187818F030FB124B187818F02CFB114B187818F028FBB5
:20518000104B187818F024FB0F4B187818F020FB0E4B187818B10E4B187880F00100BDE83F
:2051A000084018F015BB00BF19A3FF1F5EA3FF1F1AA3FF1FAEA5FF1FFC9FFF1FC4A3FF1F8D
:2051C0009C9AFF1F8EA2FF1FC9A3FF1F8F98FF1F769BFF1F10B50F4C82B0207818F0F8FA4B
:2051E000237823B1002018F0F3FA02B010BD0A4B0A4A1B680193019B126809489B1AA0FB35
:2052000003308009C0F11E00C0B218F0E1FA02B010BD00BFAFA2FF1F2CA6FF1FA4A1FF1FAE
:20522000D34D621070B51B4B82B01B6801ACD8B2190A1A0C25461B0E0DF107068DF80400F4
:205240008DF805108DF806208DF8073018F0C0FAB54205D015F8010F18F0BAFAB542F9D125
:205260000D4B1B68D8B2190A1A0C1B0E8DF804008DF805108DF806208DF8073018F0A8FA23
:20528000B44205D014F8010F18F0A2FAB442F9D102B070BD88A2FF1F7C9BFF1F30B50F4B28
:2052A0001B6883B0D8B2190A1A0C01AC1B0E0DF107058DF804008DF805108DF806208DF832
:2052C000073018F085FAAC4205D014F8010F18F07FFAAC42F9D103B030BD00BF00A0FF1FDB
:2052E0002DE9F041514CA0B023680293029D18F0C1F930B923680393039B5B1BB3F57A7F3A
:20530000F5D318F0B7F978B304A87822484918F03FFC042304A918A8002218F0D7FD0A220A
:2053200040F2E1711CA818F003FD1CA918A818F0ADFD014614A818F0E7FC14A8FFF778FED0
:20534000044614A818F06EFC1CA818F06BFC18A818F068FC74B9742018F03AFA04A818F0C5
:2053600061FC20B0BDE8F081742018F031FA20B0BDE8F08104A908A80D230B2218F0A6FDD8
:2053800008A8FFF755FE10230DEB030104460E220CA818F09BFD0CA8FFF74AFE04A905462D
:2053A000132310A8112218F091FD10A8FFF740FE04A906460A23082214A818F087FD14A8F6
:2053C000FFF736FE04A907460723052218A818F07DFD18A8FFF72CFE04A98046042300227A
:2053E0001CA818F073FD1CA8FFF722FE3B46324629460190CDF80080204616F0D1F81CA860
:2054000018F010FC18A818F00DFC14A818F00AFC10A818F007FC0CA818F004FC08A818F0A6
:2054200001FC16F00BF816F0D5FE94E72CA6FF1FD4A7FF1F70B50D4CA51C04F5C07635F8EE
:20544000020C000A18F0C4F915F8020C18F0C0F96088000A18F0BCF9043414F8020C18F08A
:20546000B7F9B44205F10405E9D170BD1CA0FF1F08B518F0FFF800281DDD18F0BFF8C0B2B7
:20548000012808D860B90E4B01221A708220BDE8084018F09DB90020BDE8084018F098B991
:2054A000074B08490120002208701A708220BDE8084018F08DB9BDE80840FBF787BA00BF48
:2054C000769BFF1F8F98FF1F08B518F0D3F8002809DD18F093F8C1B2012908D90020BDE8E4
:2054E000084018F075B9BDE80840FBF76FBA064B01F0010265201A7016F022FB8520BDE865
:20550000084018F065B900BFAEA5FF1F08B518F0B1F8002809DD18F071F8C1B2012908D982
:205520000020BDE8084018F053B9BDE80840FBF74DBA064B01F0010269201A7016F000FB0B
:205540008620BDE8084018F043B900BFFC9FFF1F08B518F08FF8002809DD18F04FF8C1B220
:20556000012908D90020BDE8084018F031B9BDE80840FBF72BBA064B01F001026A201A7004
:2055800016F0DEFA8720BDE8084018F021B900BFC4A3FF1F08B518F06DF8002814DD18F028
:2055A0002DF8C3B2032B04D90020BDE8084018F00FB9074A19467F20137016F0C1FA88202E
:2055C000BDE8084018F004B9BDE80840FBF7FEB99C9AFF1F08B518F04DF8002814DD18F004
:2055E0000DF8C3B2022B04D90020BDE8084018F0EFB8074A19467320137016F0A1FA7A206A
:20560000BDE8084018F0E4B8BDE80840FBF7DEB9C9A3FF1F044B1B781BB1044B187818F064
:20562000D7B8FBF7D3B900BF889BFF1FEC9AFF1F08B517F0E3FFC0B26438292819D8DFE8FC
:2056400000F01518181818181818181818181822181818181818181818182818183018383B
:2056600018181818181818183F18181C642018F0AFF8BDE8084018F0B7B8FFF7CBFFBDE8E3
:20568000084018F0B1B8FFF7A5FDBDE8084018F0ABB80F4B187818F09BF8BDE8084018F0E7
:2056A000A3B80C4B187818F093F8BDE8084018F09BB8EF2018F08CF8BDE8084018F094B8F1
:2056C000054B187818F084F8BDE8084018F08CB88C98FF1F2188FF1F889BFF1F2DE9F0419C
:2056E00017F0C8FFB0F5C07F24DB144D4FF6FF7705F5C0764FF0000817F080FF044617F08F
:205700007DFF00EB042080B2B84214BF25F8020C25F8028C17F072FF044617F06FFF00EB07
:20572000042025F8040BB542E6D18920BDE8F04118F04EB8BDE8F041FBF748B91EA0FF1F39
:2057400070B5184D84B02B6802930A20029E16F091FD2B680193019CA41B134812F01AF912
:20576000114812F0F5F8A0B1B4F57A7F0CDD0F4BB6221A700C4812F00DF90B4812F0E8F8B8
:205780000028F7D104B070BD2B680393039CA41BE3E7B4F57A7FEADA044BB4221A7004B01E
:2057A00070BD00BF2CA6FF1FDC9AFF1F2088FF1F70B51C4D86B02B6802930A20029E16F0F7
:2057C00059FD2A68184B0192019C1B78A41BFBB106E0B4F57A7F07DC2B680393039CA41B5E
:2057E000FBF7A6FE0028F4D12B680593059B9B1BB3F57A7F12DA0D4BB52200201A7006B089
:2058000070BDB4F57A7FEFDC2B680493049CA41B052016F0F7FC0028E6D1F2E7012006B0B8
:2058200070BD00BF2CA6FF1F90A3FF1F2088FF1F70B5992016F06AF9431EDBB2022B11D929
:20584000514B524E524D534C5348544A4FF07C51196000234FF07E5133702B70237003709B
:20586000116070BD012835D17E2016F04FF9C828E6D17C2016F04AF9444B434C18707920A4
:2058800016F044F9434B454D18707A2016F03EF9414B18707B2016F039F93D4B18707D20B2
:2058A00016F034F91BF0A0FB3D491BF0A5FC2060A52016F02BF91BF097FB39491BF09CFCAC
:2058C0003849286004461BF081FD58B34FF07E532B6070BD022830D0982016F017F9C82831
:2058E000AED1942016F012F9284B274C1870912016F00CF9274B294D1870922016F006F913
:20590000254B1870932016F001F9214B1870952016F0FCF81BF068FB21491BF06DFC20606D
:20592000A720C6E720464FF07E511BF06DFD002897D04FF07E532B6070BD902016F0E6F81F
:20594000C8287FF47DAF8E2016F0E0F80F4B0E4C18708B2016F0DAF80E4B104D18708C2083
:2059600016F0D4F80C4B18708D2016F0CFF8084B18708F2016F0CAF81BF036FB08491BF012
:205980003BFC2060A62094E7A89AFF1F1AA0FF1F5CA3FF1FB0A3FF1F98A3FF1FBC9AFF1F7C
:2059A0000000C8423333333F30B583B001AD8324204616F0ABF80134872C05F8010BF7D1D0
:2059C000024B019A1A6003B030BD00BF7C9BFF1F10B5652016F09AF87A4B012896BF00F0BC
:2059E0000100002218704FF0660088BF1A7016F08DF8754B12288CBF0D2218704FF0670059
:205A000088BF1A7016F082F8704B01289ABF00F00100187000224FF0680088BF1A7016F0DF
:205A200075F8012840F2C080694B00221A706B2016F06CF8674B012896BF00F001000022C6
:205A400018704FF06C0088BF1A7016F05FF8624B012896BF00F00100002218704FF06D0073
:205A600088BF1A7016F052F85C4B012896BF00F00100002218704FF06F0088BF1A7016F0C0
:205A800045F8574B01289ABF00F00100187000224FF0690088BF1A7016F038F801287AD9DF
:205AA000504B00221A70732016F030F84E4B02288CBF012218704FF06A0088BF1A7016F0A5
:205AC00025F84A4B01289ABF00F00100187001224FF0710088BF1A7016F018F8022803D85A
:205AE000434B1B785B074CD4424B00221A70722016F00CF8404B042894BF187000224FF03B
:205B0000870088BF1A7016F001F802283B4B3BD8187078B1892015F0F9FF0446882015F01D
:205B2000F5FF374B00EB04248A201C8015F0EEFF344B1870822015F0E9FF334B1B78032BCF
:205B400025D0C8283AD0314B314A1A607F2015F0DDFF304B03288ABF002218701A702E4BC9
:205B60001C78012C09D1A82015F0D0FF2B4B01289ABF00F0010018701C70BDE81040FFF706
:205B800057BE1C4B1870B2E700221A70D2E71F4B234A1A60DAE7164B1B78DA0780D5114B6B
:205BA00000F0010018707EE7114B1B7859077FF53BAF074B00F00100187038E7FFF7F4FE88
:205BC000C4E700BFAEA5FF1F1AA3FF1F9EA1FF1FAEA2FF1F9898FF1F8298FF1FADA5FF1F4E
:205BE000AEA3FF1FFC9FFF1FC9A3FF1FC4A3FF1F2188FF1F8E98FF1F8EA2FF1F75A3FF1FDF
:205C0000C89AFF1F8FA2FF1F19A3FF1F7C9BFF1F8FC2F53C9C9AFF1F889BFF1FEC9AFF1FEB
:205C20000AD7233C30B5134B1B6883B0180A8324D9B21A0C8DF805001B0E20468DF80410FF
:205C40008DF806208DF8073015F07AFF862C01AD07D0013415F8011F204615F071FF862C39
:205C6000F7D1C821822015F06BFF034B02221A7003B030BD7C9BFF1FAFA2FF1F30B583B00A
:205C800017F0F8FC032816DD0E4B1B78032B12D001AC02AD17F0B2FC04F8010BAC42F9D11E
:205CA000094B019A1A60FFF7BDFF7E2003B0BDE8304017F08DBD002003B0BDE8304017F023
:205CC00087BD00BF19A3FF1F88A2FF1F30B583B017F0D0FC032816DD0E4B1B78032B12D09A
:205CE00001AC02AD17F08AFC04F8010BAC42F9D1094B019A1A60FFF795FF7D2003B0BDE813
:205D0000304017F065BD002003B0BDE8304017F05FBD00BF19A3FF1F7C9BFF1F38B5124CC6
:205D20002578ADB10021052016F07AFA2378012B0CBF03210021022016F072FA01211620E5
:205D400016F06EFA01211620BDE8384016F054BA0121042016F064FA2946042016F04CFAC3
:205D6000024B1D70DEE700BF889BFF1FAFA3FF1F08B50121062016F053FA0121092016F06B
:205D80004FFA01210F2016F04BFA0121142016F047FA0121152016F043FA01210A2016F095
:205DA0003FFA0121062016F027FA0121092016F023FA01210F2016F01FFA0121142016F001
:205DC0001BFA0121152016F017FA01210A2016F013FABDE8084015F0E5B800BF2DE9F0414C
:205DE000174D6F7BD5F8108086B0384611F020FF00240126134B01903946404603932246E7
:205E0000234604960294009412F022F80E4B28691A78697B4FF47A73B242C0F8683207D08C
:205E200000963346324612F093F806B0BDE8F0810092234612F08CF806B0BDE8F08100BF76
:205E4000CCA5FF1FA0860100889BFF1F38B54FF4B27017F023FE114C054611F027F928469A
:205E60004FF0FF320421256011F076F920684FF0FF320C2111F048F920684FF0FF32022116
:205E800011F056F9206802214FF0FF3211F05AF900211720BDE8384016F0C2B994A3FF1FF8
:205EA00008B5094B1B78012B06D04FF416401BF0B5FB064B186008BD4FF416301BF0AEFB1D
:205EC000034B1860F1E700BF889BFF1F7C98FF1F8898FF1F084B1B78012B04D0074B01215A
:205EE0001868FDF7BFBF064B1B78002BF6D0054B00211868FDF7B6BF889BFF1F7C98FF1F0E
:205F0000EC9AFF1F8898FF1F0E4B10B51C784CB18720FBF72FFF0C4B1B7863B10B4B0122B2
:205F20001A7010BD2D20FBF725FF074B1B7833B9074A537010BD064B01225A7010BD034B9C
:205F40001C7010BD5EA3FF1F90A3FF1FA0A3FF1F94A2FF1F10B517F08DFB002809DD17F05A
:205F60004DFBC0B2012808D90020BDE8104017F02FBCBDE81040FAF729BD074C00F0010046
:205F80002070FFF7C1FF2178702015F0D9FD8B20BDE8104017F01CBC5EA3FF1F08B58020BC
:205FA00015F0B4FD02280D4B08D80128187008D002280CD00A4B00221A7008BD00221A70C8
:205FC00008BD00220749084812F012FFF2E700220649054812F00CFFECE700BFB8A1FF1F7A
:205FE000A4A2FF1FE09304000CA0FF1F804F12002DE9F04F430089B0DFF8CCB2DFF8CC82D0
:20600000A74AA84E039003EB000A04939BF8000098F800301178A44AA44C127827684FEA6B
:20602000CA0A06EB0A0943EA00230693B9F8083042EA01221907059242D5B9F90650D9F8C0
:206040001430B9F9042036F90A00B9F9021001932B46D9F810500095FDF7D2FCB9F80830B3
:20606000DA0600F10581DD074CBF914B914B039A1B6888F800301B0A8BF80030049BDFF804
:2060800050A21344DD0006EB0509705BB9F80210B9F80630B9F804200B440244FCF722FCEB
:2060A000705BB9F80210B9F80630B9F804200B4402440133013201390138FCF713FC94E0B1
:2060C0007D4B36F80A001A68B9F804C0B9F80210B9F8063088F800204FEA122E0B440CEBC0
:2060E00000028BF800E0FCF78DFC724B36F80A001A68B9F804C0B9F80210B9F8063088F8A9
:2061000000204FEA122E0B440CEB00028BF800E0FCF7E8FB36F80A00B9F80210B9F8042095
:20612000B9F8063002440B440132013801330139FCF7D8FBB9F80830D8074CBF5C4A5F4A21
:20614000126888F8002099074FEA12228BF8002066D45B4B04991A682260137823711D4672
:20616000039B92F801A084F805A0CB18DB0006EB03099178A171D278D9F80C000793E2714B
:206180001CF0DEFA079BB9F80610F35AB9F802E0B9F804204FEA5A0ACAEB510A03EB520907
:2061A00000FB05F00AEB0E030793A9EB5009424BDFF81CA11B685A1C5DD03B4A3849137092
:2061C0001B0A00220B708AF80020039A049B134406EBC306079AF06800234946FDF734F942
:2061E000338903F00603062B49D027603B7823717B786371BB78A371069B059DFA7888F88C
:206200000030180A8BF800002748E27105702448290A002301708AF8003009B0BDE8F08FB0
:20622000284B03981968049B216003EB000C0A7822714FEACC0C06EB0C0E4B786371BEF837
:2062400006A091F80290BEF80400BEF802E084F806905B0836F80CC0C978E1715208C3EB21
:206260005A03C2EB5002734402EB0C0907939EE7DFF85CA0B9E701238AF80030A5E7079D71
:206280002179F068C1EB09012A460023FDF7DCF82179F0682A4649440023FDF7D5F8A4E79D
:2062A000D0A1FF1FCCA3FF1F78A2FF1F6C9BFF1FB0A2FF1FA8A2FF1F789BFF1FB0A5FF1FE9
:2062C0007CA2FF1FB09AFF1F89A3FF1F91A3FF1F9098FF1F2DE9F04F89B0724FDFF8D481BD
:2062E000019006A88946FBF749F83E7898F800306D4DBDF91A20BDF918B043EA06230093D6
:2063000092462B4600204FF0FF3402E00130142827D09A7A1E88B3F802C09988B3F806E083
:206320002AB11E3EACF1140C3C310EF1280E1A8912F4004F03F11803E8D1D207E6D4621CF6
:20634000E4D15E453144E1DC8B45DFDCD445DDDCE644F245D4BF04464FF0FF340130142839
:20636000D7D1601C0BD04FEA440A0AEB0403DB0005EB030E4C48BEF80810C9066DD5B9F1A2
:20638000000F4BD0DFF83091D9F800300293DDF808A0FBF7CDF838B1D9F800300393039B53
:2063A000CAEB0303312BF4D9631C2ED04FEA440A0AEB0403DB0005EB030E3B48BEF80810CC
:2063C000CA0622D4394AC05A126888F80020120ABEF802103A70BEF80630BEF80420A24406
:2063E00002440B444FEACA0AFCF77CFA05EB0A0235F80A005188D38892880B440244013348
:20640000013201390138FCF76DFA009A88F80020130A20463B7009B0BDE8F08F019B9BB14F
:20642000DFF89490D9F800300493DDF810A0FBF77FF80028B8D0D9F800300593059BCAEB3D
:206440000303952BF3D9AFE7FBF772F80028ABD0FBF76EF80028F7D1A6E7154AC05A12684D
:2064600088F80020120ABEF802103A70BEF80630BEF80420A24402440B444FEACA0AFCF7AD
:2064800031FA05EB0A0235F80A005188D38892880B4402440133013201390138FCF722FAD2
:2064A0006DE700BF89A3FF1FCCA3FF1FA8A2FF1FBCA3FF1F91A3FF1F2CA6FF1F2DE9F04F76
:2064C00000EB40002D4FDFF8CCA0DFF8CCB0C600BC19B85B6188E388A2880B44024483B08B
:2064E0004FF0BE094FF07F08033B0331033A03308AF800908BF80080FCF71CF9204B214AFB
:20650000186810600178117145781F4B5571D3F800E083789371E36890F803C08BF800E000
:2065200018464FEA1E2E01918AF800E0009382F807C01CF005F9BE5BB4F806C0A788628802
:206540000199124C009BDFF854E084F800906D0806EB570400FB01F10026C5EB5C050C4F51
:206560008EF8008018462A44A4EB510133463E7003B0BDE8F04FFCF767BF00BFCCA3FF1F45
:206580007CA2FF1F6C9BFF1FB0A5FF1FD0A1FF1F9098FF1F89A3FF1F91A3FF1F78A2FF1F7E
:2065A0002DE9F04F00EB4000DFF8DC80DFF8DC90DFF8DCB0D9F80050DFF8D8A08BF800503F
:2065C000C60008EB060438F806006188E388A2880B44024483B0033B0331033A03302D0A63
:2065E0008AF80050FCF7A6F8214A224B116819600A781A714D785D711F488F789F710068E8
:20660000E76891F803E08BF80000010A384683F807E001928AF800101CF092F8A18838F83D
:206620000630019AB4F806E0D9F80060648800FB02F003EB51036D08C5EB5E05A3EB500144
:20664000731C05EB04020ED00C480D4C0D4B0670360A0020267018703846002303B0BDE8E5
:20666000F04FFCF7F1BE074B01201870F4E700BF7CA2FF1F6C9BFF1FB0A5FF1F78A2FF1F98
:20668000D0A1FF1F9098FF1FCCA3FF1F789BFF1F91A3FF1F89A3FF1F124BF0B4124D03F573
:2066A000F07400224FF400401A805A809A80DA801881DD601833A3424FF00001F4D10B4F84
:2066C0000B4A0C4E0C4D0D4C0D480E4B39601F2717604FF6FF7231602960216001601A6029
:2066E000F0BC7047CCA3FF1FC4970200A8A2FF1FBCA3FF1F7CA2FF1FB09AFF1FB0A5FF1F51
:20670000B0A2FF1F789BFF1F134B14491B78022B10D0012B14D0032B17D0042B04D0104AFB
:20672000FF230B70137070470D4B00201F2208701A7070470A4BF820002208701A707047C8
:20674000074A00230B7013707047054B0420002208701A70704700BF8EA2FF1F89A3FF1F6A
:2067600091A3FF1F10B516F085FF002816DD16F045FFC0B2042804D90020BDE8104017F07C
:2067800027B8084C2070FFF7BFFF2178722015F0D7F98320BDE8104017F01AB8BDE810401C
:2067A000FAF714B98EA2FF1F2DE9F041044669B31A4E1B4DCE220621592732700846EA23BC
:2067C0004FF49D722F70FCF71DF9164A164B10781871204654785C711A6094781349D278C2
:2067E000DA71DFF850E0124F9C71592200240A70CE238EF800303C70234634702C706E2234
:2068000042F20E71BDE8F041FCF71EBE4CF65960FBF7AAFE014E024DD7E700BF89A3FF1F26
:2068200091A3FF1F6C6103006C9BFF1F78A2FF1F9098FF1FD0A1FF1F2DE9F041574C4FF0DB
:20684000FF3206460D462068172110F08FFC00218046206810F062FC074640461AF0C4FBB4
:206860004FF07F511AF014FC4D491AF011FC044638461AF0B5FB014620461AF0BDFC044606
:20688000282015F07DF84749074620461AF094FD00284BD0322F4FDC434A137823F020033B
:2068A0001370424B1B78002B50D1414B1B782046002B5DD03F491AF0E3FA0446002D3CD01A
:2068C00021463D481AF0DAFA3C491AF0E1FB002105461AF08FFD002855D04FF07C512846BA
:2068E0001AF0CEFA1AF0B0FD43B2C1B2344DAA202B7015F025F91EBB95F9000048B11AF034
:2069000073FB2E491AF078FC014620461AF0B8FA04462046FDF7C6FB2A4B40B2142818701B
