:1000000000000320D10100003D310200F530020064
:10001000F5300200F5300200F5300200F530020044
:10002000F5300200F5300200F53002003D310200EB
:100030003D310200F53002003D310200E5300200A2
:100040003D3102003D3102003D3102003D310200F0
:100050003D3102003D3102003D3102003D310200E0
:100060003D3102003D3102003D3102003D310200D0
:100070003D3102003D3102003D3102003D310200C0
:100080003D3102003D3102003D3102003D310200B0
:100090003D3102003D3102003D3102003D310200A0
:1000A000A9C20100F9C701003D3102003D31020043
:1000B0003D3102003D3102003D310200D9400200D5
:1000C0003D310200F16302003D3102000D6A020081
:1000D0003D310200C17002003D3102003D3102009D
:1000E0003D3102003D3102003D3102003D31020050
:1000F0003D3102003D3102003D3102003D31020040
:100100003D3102003D3102003D3102003D3102002F
:100110003D310200994302003D3102003D310200B1
:100120003D3102003D3102003D3102003D3102000F
:100130003D3102003D3102003D3102003D310200FF
:100140003D3102003D310200A97602003D3102003E
:100150003D3102003D3102003D3102003D310200DF
:100160003D3102003D310200A5CD01003D310200CC
:100170003D3102003D3102003D3102003D310200BF
:100180003D3102003D3102003D3102003D310200AF
:100190003D3102003D310200897D02003D31020007
:1001A0003D3102003D3102003D31020051D30100DA
:1001B0003D3102003D3102003D3102003D3102007F
:1001C0003D3102003D3102003D3102003D3102006F
:1001D0005C4B4CF2205210B51A804DF628121A8052
:1001E00000BF00BF22F0AEFF574B4FF030621A60E5
:1001F000564A9A60564ADA60564B4FF470021A60BB
:10020000554B564A1A60564A136813F4807304D14A
:1002100054490B604FF4A8531360534B1A781107DD
:1002200003D51A7842F008021A70504B5049AA229E
:100230001A70504A504B8B4204D252F8040F43F8C4
:10024000040BF8E74D4B4E4900228B4202D243F893
:10025000042BFAE74B494C4A002352F8230041F89B
:1002600023000133742BF8D1484B494A802103F80D
:10027000011B9342FBD1474B424A1A60464B8A22EC
:100280001A70A3F5805324225A70A0221A709A790A
:100290009207FCD59A79D406FCD4404A937903F0AE
:1002A0000C03082BFAD13E4B60221A7002331A78E5
:1002B000802AFCD1394B00221A714E225A719A7948
:1002C0009006FCD59979354A4906FBD5354B364918
:1002D00019600821596020231370937903F00C03EF
:1002E0000C2BFAD1314B324A1A60324B324A1A6027
:1002F00000225A60072243F8042C304AC3F80C2D20
:1003000062B623F0DBF9174B1B68DA0705D52C48DA
:1003100023F0C2F92B4B2C4A1A602C4B1B785B063E
:1003200009D5284C284B22689A4204D1244823F04E
:10033000B3F9002323602AF02BFA04F0C7FE25F05E
:1003400019F9FEE70E20054030800440823F04008A
:100350000100002B88ED00E0002008E0030000858C
:1003600010D0034014D0034002D0074000E0074003
:10037000201EFF1F9C0B04003007FF1F201EFF1FC5
:10038000C830FF1F0002FF1F0000000000E400E073
:1003900064E400E008ED00E0005006400040064044
:1003A00001E007404480044000000703048004404B
:1003B000C010050014E000E07FA903000000202029
:1003C000B5752B031CE00340A5C3945A00F0074009
:1003D000FFFFFFFFFFFFFFFFFFFFFFFFFFFFFFFF2D
:1003E000FFFFFFFFFFFFFFFFFFFFFFFFFFFFFFFF1D
:1003F000FFFFFFFFFFFFFFFFFFFFFFFFFFFFFFFF0D
:10040000FFFFFFFFFFFFFFFFFFFFFFFFDEF9FFFF23
:1004100010B5054C237833B9044B13B10448AFF33E
:1004200000800123237010BD201EFF1F000000006C
:10043000980B0400084B10B51BB108490848AFF3EE
:1004400000800848036803B910BD074B002BFBD0A0
:10045000BDE81040184700BF00000000241EFF1F29
:10046000980B0400201EFF1F000000002DE9F04F34
:100470009088D58885B0A84202915BD84149424B0B
:1004800009781E78414C424B94F800B01B78414FDC
:10049000DFF804E1DFF804C1D7F800A09EF80040BF
:1004A0000394C1EB8178C1EB880806EB860608EB64
:1004B00006094FF4C86101FB0B91C3EB83770CFB7A
:1004C0000319C3EB870301930021052313FB0B03DF
:1004D000EF2B2BDC019BD84228D413885488A342ED
:1004E00024D8039D00EB800C4FEA8C1C35BB029D89
:1004F00005EB41059F19B7F5A07F0EDA13EB080F46
:1005000003EB0C0709D42C884F441CB94FF00104AD
:100510002C8001242AF81740548801339BB29C4256
:1005200001F1010105F10205E4D2D588013080B264
:10053000A842CAD9012005B0BDE8F08F029D05EBA5
:10054000410503EB060EBEF5A07F03F1010701F1A3
:10055000010111DA13EB080F63440DD44B442C88CE
:10056000AAEB430303F515331CB94FF001042C80AB
:100570000124A3F8FE435488BBB2A34205F102054F
:10058000DFD9D2E75429FF1F3C29FF1F691EFF1F37
:100590000829FF1F481EFF1F0A29FF1FC0F9FFFF80
:1005A0002DE9F04F89B0B2F804E00191D1888E4571
:1005B00000F291807B4B7C481C787C4F7C4B90F800
:1005C00000801D783F787B4B029792467A4A7B4E9B
:1005D00012780392C4EB84377948D3ED004A367819
:1005E00000680096C4EB870308EB88071F44039B51
:1005F00007900EEB8E0603EB8303C5EBC50007EBFC
:10060000461603EB83036F4A00EB001006EB43161C
:10061000C5EB857900EB0010C5EB890306EB401CA8
:10062000C4EB847B127806931FFA8CFCC4EB8B0B13
:100630004FF005090027B7EE004ABDF80C0005236E
:1006400013FB00E3772B3CDC069B1EEB030F38D437
:10065000BAF80030BAF802509D4232D30137CDF8D3
:1006600014E0BFB2DDF81CE021E0C3F19F01C9B284
:1006700019FB08149F2C13DC11EB0B0F10D4029CF8
:100680006144022C89B2019C2ED034F810400098AD
:1006900028B3C1F595417F312EF81140BAF80250C8
:1006A00001339BB2791C9D4289B206D30F46781E56
:1006B00080B2002AD9D0D9B2DAE7DDF814E0BAF86E
:1006C00006100EF1010E1FFA8EFE0CF1A00C8E45E5
:1006D0001FFA8CFCB1D9012009B0BDE8F08F2EF8CB
:1006E0001140BAF80250DBE734F810000412C510CC
:1006F00004F0F80407EE904A05F0FC0406EE904A78
:10070000009CC000002C4AD0C1F595467F363EF8CB
:100710001640E51005F0FC0507EE105AF8EEE66A03
:10072000C0B2F8EEC75A34EE646A07EE100A66EEFD
:10073000A46AE000C0B22512E6EE256A05F0F804CE
:1007400005EE900AB8EEC77AB8EEE55AF8EEE77A09
:1007500005EE904A27EE247AF8EEE55A67EEA47A81
:10076000A6EE057AE5EE867AFCEEE66ABCEEC77A7E
:10077000CDED046AFCEEE77A9DF8106017EE105A92
:1007800017EE900AF40004F0E004C5F3C40500F08D
:10079000F8002C4340EA561044EA002477E73EF87C
:1007A0001140B6E75429FF1F3C29FF1F2A29FF1FCC
:1007B0000829FF1F641EFF1F691EFF1F0A29FF1F54
:1007C0003C1EFF1F562BFF1F08301EF03FBF00BF0F
:1007D00000B583B002AB012203F8011D08301946B1
:1007E0001EF034FF03B05DF804FB00BF38B5856F21
:1007F000AC88EB88E41A944228BF144631B108460D
:1008000029682246194422F0AFF9EB882344EB8093
:10081000204638BDF8B50E46074622F057F8054683
:1008200022F040F8044622F029F86401C0B204F432
:10083000FF54ADB2A5F2BC75044344EA45243C80A4
:1008400021F0E0FF054621F0F1FF044622F002F816
:10085000ED02640105F4FF2504F4FF542C43C0F3BA
:10086000460004433480F8BD00F58C6021F012B9D5
:100870002DE9F0412F4B304F1B7884B00BB93B78FA
:10088000B3B13A782C4B022A3BD01A78032A02D013
:1008900004B0BDE8F08101221A7028481BF002FC68
:1008A00026481BF037FC0028F7D104B0BDE8F081E2
:1008B000234B1B78002BE4D1DFF8908098F80030B0
:1008C000002BDED11F4B1B78002BDAD11E4D2B687D
:1008D00002930A20029E23F07FF82B680193019C6B
:1008E000A41B16481BF0DEFB14481BF013FCD0B110
:1008F000B4F57A7F12DD01233B703A780E4B022A61
:10090000C3D103221A700D481BF0CCFB0B481BF01F
:1009100001FC0028F7D104B0BDE8F0812B680393F7
:10092000039CA41BDDE7B4F57A7FE4DA022388F8A0
:100930000030A6E77C20FF1F6029FF1F9020FF1FCB
:10094000DF22FF1F501EFF1F042CFF1F401EFF1F32
:1009500022F09CBE00F58C6021F09ABB00F58C6003
:1009600020F00ABE00F58C6020F080BD2DE9F04F2C
:100970002DED028B4FF0000A8FB04FF0000BCDE948
:1009800004ABCDE902ABCDE900AB01F5C8730C4671
:10099000D046D9460992851E069335F8026F304637
:1009A00029F008FB02460B464046494629F0B6F9B5
:1009B00080463046894629F0EDFA02460B4629F07A
:1009C0005FFB02460B46DDE9000129F0A7F907EEBF
:1009D000906AB4EC018AF8EEE77ACDE9000167EE9F
:1009E000887A17EE900A29F0F7FA02460B46DDE9FD
:1009F000020129F093F9CDE9020118EE100A29F05D
:100A0000EBFA06460F4602460B46DDE9040129F0E3
:100A100085F93246CDE904013B463046394629F096
:100A20002FFB0B4602465946504629F077F9069BA4
:100A3000A34282468B46B0D142464B464046494689
:100A400029F01EFB002204460D46524BDDE9000151
:100A500029F016FB22462B4629F05EF900220023DE
:100A6000CDE9060129F074FD064600287DD1DDE9B7
:100A700004234046494629F003FB0022CDE90A0140
:100A8000444B454FDDE9020129F0FAFADDE90A237A
:100A900029F042F9DDE9062329F01CFC29F0C8FD04
:100AA0003E4B1860DDE90423DDE9000129F0E8FA96
:100AB000DDE90223CDE90C014046494629F0E0FA80
:100AC00002460B46DDE90C0129F026F9DDE9062393
:100AD00029F000FC29F0ACFD3860099F002F52D0AE
:100AE000DDE904231046194629F0CAFA0022294BF1
:100AF00029F0F0FB02460B465046594629F00CF906
:100B0000002280468946234B2046294629F0E2FBF5
:100B100002460B46DDE9000129F0FEF802460B46CD
:100B20004046494629F0ACFA41EC100B27F048FE4C
:100B3000DDE90A010022174B8DED000B29F0CAFBFD
:100B400002460B46DDE9020129F0E6F89DED000BB7
:100B500053EC102B29F0BEFB29F06AFD38603046BB
:100B60000FB0BDEC028BBDE8F08F0B4A0B490023A0
:100B700013600126099A0B60304613600FB0BDEC7C
:100B8000028BBDE8F08F3E4630460FB0BDEC028BC5
:100B9000BDE8F08F000059403428FF1F3021FF1FAF
:100BA000364A374B9FED373ADFED373AF0B51768E5
:100BB0001C68023F0026B7EE004A07EE906AF8EE86
:100BC000E77A384667EE837A0022BDEEE77AB8EE20
:100BD000C75A17EE105A37EEC55A05EB850574EE65
:100BE000454A6D0107EE902AB8EEE77A013267EECA
:100BF000236AB2F5A07FBDEEE67A17EE103A2B44D9
:100C000004EB4301B8EEC77AB1F802E034F81330D0
:100C100007EE90EA36EEC77A06EE103AF8EEE77A7B
:100C2000B1F84031B1F8421174EE475A67EE877A55
:100C3000B8EEC66A06EE903A67EEA47A26EE256A0A
:100C4000F8EEE66AE6EE247A66EE856A27EE057A25
:100C5000E5EEA67A06EE901AF8EEE66AE6EE877AF8
:100C6000FCEEE77A17EE903A20F8023FBAD101364F
:100C7000F02E07F52077A0D1F0BD00BF481EFF1F62
:100C80003C1EFF1FDEDDFD3E6666FE3E70B502784F
:100C90008AB000232F2A8DF804308DF805301BD040
:100CA0000246012301A814491EF0EAF9064660B184
:100CB0009DF8043013F070030AD001AC0FCC0E4D38
:100CC0000FC50FCC0FC523682B6030460AB070BD2E
:100CD0001E4630460AB070BD4378002BE0D106486E
:100CE0001EF088F8054901F23C401EF049FA06461C
:100CF00030460AB070BD00BF4827FF1F0C23FF1FFE
:100D0000144938B5A1F10C000223142220F03AFA5C
:100D100000B938BD10481EF06DF801210F481FF0D2
:100D2000E5FF80B10D4C04F23C45284621461EF0FB
:100D300027FA38B194F83C3413F0700F1CBF084BFD
:100D40001D6038BD38BD014604481FF0CFFF0028A4
:100D5000E8D138BD7827FF1F4827FF1F0C23FF1F4E
:100D6000B02BFF1F10B53A4B1B7882B0002B4BD134
:100D7000384968461AF0C4F8BDF80020BDF80200F2
:100D8000A2F10A039BB2822B08D8A0F10A014629DE
:100D900004D8314B01221A7002B010BDA2F1B40187
:100DA00089B282290CD9822B14D98D3A262AF3D8FC
:100DB00051384E28F0D8284B07221A7002B010BDC7
:100DC000A0F1A004462C03D8234B05221A70E3E7B8
:100DD000822B28D8592809D9962807D81F4C24686F
:100DE000012C16D01C4B03221A70D5E7822903D898
:100DF000A0F10A03462B12D9A0F1A003462BD4D8A8
:100E0000154B06221A70C7E71549684619F070FF9E
:100E1000B2E78229F0D8A0F10A0146290FD80E4B7B
:100E200002221A70B8E7A0F15A013C290AD80B49EE
:100E300009680129EFD0084B04221A70ACE7822B15
:100E4000DAD9B2E7A0F10A03462BE8D9ADE700BF33
:100E50003429FF1F4028FF1F2129FF1F2C28FF1FB7
:100E60004429FF1F10B582B024F0AEF8C0B2643838
:100E7000292820D8DFE800F02C1F1F1F1F1F1F1F6D
:100E80001F1F1F1F1F151F1F1F1F1F1F1F1F1F1F7C
:100E9000331F1F3B1F431F1F1F1F1F1F1F1F4A1FE3
:100EA0001F23274C207824F0CBF92378002B35D052
:100EB000002024F0C5F924F0CFF902B010BD214B79
:100EC0001B78002BF4D0204B187824F0B9F9F2E706
:100ED000642024F0B5F924F0BFF902B010BD1B4B1B
:100EE000187824F0ADF924F0B7F902B010BD184B12
:100EF000187824F0A5F924F0AFF902B010BDEF2066
:100F000024F09EF924F0A8F902B010BD0D4B18781A
:100F100024F096F924F0A0F902B010BD0D4B0E4A52
:100F20001B680193019B12680C489B1AA0FB0330BD
:100F30008009C0F11E00C0B224F082F9BBE700BFF7
:100F40005B28FF1F3C21FF1FA020FF1F681EFF1F03
:100F50003108FF1F042CFF1FE422FF1FD34D621036
:100F6000002AF0B5144FDFF858E014BF4FF0605579
:100F70004FF06455002602E0172C08D0264637F8BB
:100F8000022F9EFBF2F2914206F10104F4D31A07FC
:100F900001D545F08065094A5B0752F8262007D540
:100FA000130903F4706322F4704245F000751A438C
:100FB00015430560F0BD00BFEE00040020010400F1
:100FC0000087930330B41E4B1A7812B372B61B78A5
:100FD000DC0707D51B491C4A0D6812681B4C2A40C8
:100FE00022600A60990707D51949174A0D685268A7
:100FF000164C2A400A6062605A0707D51549124A02
:101000000D689268114C2A400A60A2601B070ED43A
:1010100062B6114BDA68824207D010491960104A53
:10102000D86040F0804119611A6030BC70470D4AA9
:10103000054B1468DB68054923401360CB60E7E784
:10104000D82BFF1F80E100E0B82BFF1FC82BFF1F2C
:1010500084E100E088E100E000C0024001401F00A0
:1010600000001F808CE100E00D4B1B78BBB1D8075E
:1010700003D50C490C4A09681160990703D5094941
:101080000A4A496811605A0703D50649084A89681F
:1010900011601B0703D5034A064BD2681A607047DC
:1010A000D82BFF1FC82BFF1F00E100E004E100E088
:1010B00008E100E00CE100E0F0B5DFF8B4C0254B3A
:1010C000254A264F83B04FF4107E4FF480760C46AD
:1010D0004FF40071CCF800600546C3F800E001A8A9
:1010E0001160002301221E493E60FFF739FF01987D
:1010F000FFF768FF1B4B1C49EDB210204FF0004278
:101100000860DA6219465D63CB6A164A002BFBDA87
:10111000E4B24FF00043916BD36210465463C36A4C
:10112000104A002BFBDA114B926B0B4E0B4C10222A
:101130001A60FFF799FF0E49064A4FF480734FF487
:1011400000754FF41070336025600860136003B0C1
:10115000F0BD00BF04C004400CC004401CB00440FB
:1011600000093D0000C0024088F00F4084F00F40AD
:1011700014B004402DE9F041264BDFF8B4E0264AD4
:10118000264E274982B04FF4807504464FF41077FD
:101190004FF40070CEF800501F6010600023012251
:1011A000356001A8FFF7DCFE0198FFF70BFF1D4B30
:1011B0001D49E4B210204FF000420860DA6219467F
:1011C0005C63CB6A174A002BFBDA4FF00041002327
:1011D000906BD16211465363CB6A124A002BFBDA43
:1011E000124BD2F838800C4F0C4D10221A60FFF7CA
:1011F0003BFF0F49074A4FF480734FF400764FF4DA
:1012000010745FFA88F03B602E600C60136002B0CF
:10121000BDE8F08104C004400CC004401CB0044090
:1012200000093D0000C0024088F00F4084F00F40EC
:1012300014B0044008B501218420FFF73DFF0121CF
:101240008420FFF739FF02218420BDE80840FFF722
:1012500033BF00BF2DE9F84F9DF8284080460D466A
:1012600091461E46002C5CD13D4C3E483E4F00232B
:101270001A46562124F09EF900231A463978394837
:1012800024F098F900231A464146364824F092F992
:10129000B9F1000F0DD009F1FF3955FA89F9013D77
:1012A000002315F8011F2F481A4624F083F9A94599
:1012B000F6D10022134622709146DFF8B0A009E073
:1012C00025786B1C237022F095FE0AF805004FF07C
:1012D000000923789E4213D022F07CFE0028EFDC28
:1012E00009F1010901205FFA89F922F075FBB9F1D2
:1012F000C80FEED12378B34202D00020BDE8F88FAA
:101300001A4B1A78762AF8D13A7859789142F4D162
:101310009A784245F1D1D878B0FA80F04009BDE81A
:10132000F88F0F4CDFF844B0002727700CE094F8DA
:1013300000A00AF10103237022F05CFE0BF80A0002
:1013400000272378642B90D022F044FE0028EEDCA6
:1013500001370120FFB222F03FFB0A2FF1D184E7D1
:101360006D29FF1F9C2DFF1F0929FF1F6028FF1FEC
:1013700030B585B004A900240123074DADF80C4019
:10138000022201F8043D3620009305232C80FFF74C
:1013900061FF05B030BD00BF6E29FF1F2DE9F04F82
:1013A000604C85B082469046A1460F465E4B5F4931
:1013B0004FF400721A60A3F57F634FF480724FF40C
:1013C00010701A600A6000230122C1F8F00F58491A
:1013D00003A8FFF7C5FD0398FFF7F4FD554910205A
:1013E0004FF000423C230860E2626363E36A002B33
:1013F000FCDA0026D9F83830D8F80030DFF850B1E0
:10140000314699424FF0FF051CD29BF80030012B6A
:101410006ED04FF000420023E2626363E36A002B68
:10142000FCDAD9F83830DBB2002E43D00AF80130AC
:10143000013114294CD0D92B20D01D46D8F80030CA
:101440009942E2D33C4B10221A60FFF70DFE364959
:10145000364A4FF480730B60A1F57F614FF4007042
:1014600008604FF410711160C2F8F03FFFB1334BC8
:101470001B78012B52D0FFF77BFF97E7FF2DDCD1C4
:101480002D4B019110221A60274C2D4DFFF7ECFDDA
:101490004FF4807325482B4A23604FF400764FF4B5
:1014A000107401992E6004601360C8F8001005B034
:1014B000BDE8F08FD82BBCD1FF2DBAD1FF21D822A7
:1014C0008AF800108AF80120012602211D46B5E79E
:1014D000002FB0D11C4A1278002AACD01B490193CE
:1014E00064220AF1140021F03FFB7821019BA2E75E
:1014F000114B0D4E124C10221A60FFF7B5FD0B492F
:10150000104A4FF480734FF400754FF4107033603D
:1015100025600860136005B0BDE8F08FFFF78AFE14
:1015200044E700BF00C002400CC0044014B00440B7
:1015300000093D0088F00F4084F00F403C21FF1F60
:101540001CB0044004C004400A29FF1F904103005E
:101550007C20FF1F70B543F2D40084B0394D3A4E61
:1015600022F08AFA0F2022F037FA0124286802902C
:1015700002A90523042200942420FFF76BFE41F208
:10158000470022F079FA0F2022F026FA0020ADF869
:101590000800009402A930800523022236208DF82D
:1015A0000840FFF757FE30BB0646642022F014FACD
:1015B0000523224602A9009426208DF80860FFF733
:1015C00049FE43F2D40022F057FA0F2022F004FA29
:1015D000286802900523042202A900942420FFF722
:1015E00039FE41F2470022F047FA0F2022F0F4F9C9
:1015F000FFF7BEFE18B301240525122104202B4657
:1016000006228DF80B108DF80C0002A900945F26BD
:1016100031208DF808508DF809408DF80A408DF87A
:101620000D60FFF717FE094A00941288ADF80820F4
:101630002B4602A902223620FFF70CFE204604B0FA
:1016400070BD00BF7CF602006E29FF1F78F6020015
:10165000F0B585B0012405254FF0190E8DF80D0069
:10166000002702A92B4604260094062231208DF87B
:101670000CE002978DF808508DF80A408DF809604B
:10168000FFF7E8FD2B46224602A9009426208DF89C
:101690000870FFF7DFFD4FF4967022F09DF943F2DA
:1016A000D40022F0E9F90F2022F096F9094B0094BA
:1016B000186802902B46324602A92420FFF7CAFD83
:1016C00041F2470022F0D8F90F2022F085F905B049
:1016D000F0BD00BF7CF60200F0B5802183B0234846
:1016E00019F06AFB20B1224B01221A7003B0F0BD41
:1016F0000446204819F0ECFB1D4B1E491C7068463F
:1017000019F0FEFB0A20BDF90060BDF9027022F05D
:1017100063F9052022F0F2F80A240125052022F0C1
:10172000EDF800284FF00A0008BF002522F054F918
:10173000013CF3D1104B1B786BB92346B34210D058
:10174000BC4201D0002DD1D00C4A137823F00803FD
:10175000137003B0F0BD4FF4A073B3424FF0F00428
:10176000EED1BC42F0D1002DC0D1EDE74429FF1FDE
:101770003429FF1F4028FF1F0A29FF1F3108FF1FC0
:1017800008B5074B1B783BB1064819F0DFFA10B1DA
:10179000054B01221A7008BD044819F0BFFDF6E799
:1017A0003429FF1F4429FF1F5028FF1F4028FF1F17
:1017B0002DE9F0412A4D2B7886B0002B39D1294BE9
:1017C0001B78002B35D1284E3378002B31D1274B95
:1017D0001B7873BB264B1B785BBBDFF8A080D8F867
:1017E000003004930A20049F22F0F6F8D8F8002075
:1017F000204B0592059C1B78E41B43B924E0B4F50B
:101800007A7F08DCD8F800300393039CE41BFFF7D1
:10181000B7FF0028F3D1D8F800300193019BDB1B00
:10182000B3F57A7F16DB144B1B78012B01D0012313
:10183000337006B0BDE8F081B4F57A7FEBDCD8F800
:1018400000300293029CE41B052022F057F8002888
:10185000E1D1F1E701232B7006B0BDE8F08100BFB4
:101860007C20FF1F6029FF1FDF22FF1F401EFF1F7C
:10187000501EFF1F3429FF1F2A29FF1F042CFF1FA2
:1018800010B4134B134A1B78146840EA034040F02D
:10189000006311465363104602E013F0F00F14D1B9
:1018A000CB6A0C4A13F0805FF7D04FF08053D362BD
:1018B0001460D36A13F0F00F04D0936BD36A13F063
:1018C000F00FFAD15DF8044B7047836BE8E700BF77
:1018D000542BFF1F00C0024010B4134B134A1B7857
:1018E000146840EA034040F0006311465363104619
:1018F00002E013F0F00F14D1CB6A0C4A13F0805FB2
:10190000F7D04FF08053D3621460D36A13F0F00F16
:1019100004D0936BD36A13F0F00FFAD15DF8044B47
:101920007047836BE8E700BF6C1EFF1F00C00240DA
:1019300010B4134B134A1B78146840EA034040F07C
:10194000C05311465363104602E013F0F00F14D158
:10195000CB6A0C4A13F0805FF7D04FF08053D3620C
:101960001460D36A13F0F00F04D0936BD36A13F0B2
:10197000F00FFAD15DF8044B7047836BE8E700BFC6
:101980006C1EFF1F00C00240F0B4324C324F26786C
:10199000360446F0004444F02A047C63FC6A04F4F4
:1019A000704514F0F00F18BFBC6BB5F5405FF5D86B
:1019B0002A4C294F25782D04284340F010407863A5
:1019C000F86A00F4704410F0F00F18BFB86BB4F56B
:1019D000405FF5D82A43204C42F010426263E26A2D
:1019E00002F4704012F0F00F18BFA26BB0F5405F28
:1019F000F5D846F00046184C46F02B066663E26ABE
:101A000002F4704012F0F00F18BFA26BB0F5405F07
:101A1000F5D82943104841F010414163C26A02F4ED
:101A2000704112F0F00F18BF826BB1F5405FF5D82E
:101A30002B43094943F010434B63CB6A03F47042D4
:101A400013F0F00F18BF8B6BB2F5405FF5D8F0BC08
:101A5000704700BF542BFF1F00C002406C1EFF1FC9
:101A600038B50D4604464FF03840FFF7ABFAA2B246
:101A7000ABB219461046FFF787FF0F4B0F4A1B7892
:101A80001B0443F0004343F02C035363D36A03F475
:101A9000704113F0F00F18BF936BB1F5405FF5D8AC
:101AA000074A084B10781B7843EA0020FFF740FFF5
:101AB000FFF7DAFA38BD00BF542BFF1F00C0024009
:101AC0002C29FF1F3529FF1F8318B3F5A07F70B5A0
:101AD000C8BFC0F5A07504464FF03840D8BF1546C2
:101AE0000E46FFF76FFAA0B2421EB3B22A4419465F
:101AF00092B2FFF749FF1B4B1B491B781B0443F0B5
:101B0000004343F02C034B63CB6A03F4704213F0A1
:101B1000F00F18BF8B6BB2F5405FF5D81349144A2C
:101B2000144B127808781B780F4C42EA00202A46A2
:101B300040EA0343012A43F010450DDD6563E36A83
:101B400003F4704113F0F00F18BFA36BB1F5405FC1
:101B5000F5D8013A012AF1DCFFF7EAFEFFF784FA33
:101B600070BD00BF542BFF1F00C002402C29FF1F77
:101B70003529FF1F6C1EFF1F8B1870B5F02B0C460C
:101B800006464FF03840CCBFC1F1F0051546FFF7CF
:101B900019FAA1B24B1EB2B22B449BB21046FFF70A
:101BA000F3FE1B4B1B491B781B0443F0004343F01F
:101BB0002C034B63CB6A03F4704213F0F00F18BF91
:101BC0008B6BB2F5405FF5D81349144A144B127869
:101BD00008781B780F4C42EA00202A4640EA03436B
:101BE000012A43F010450DDD6563E36A03F470419B
:101BF00013F0F00F18BFA36BB1F5405FF5D8013AB1
:101C0000012AF1DCFFF794FEFFF72EFA70BD00BF4A
:101C1000542BFF1F00C002402C29FF1F3529FF1F36
:101C20006C1EFF1F70B505464FF038400E46FFF79B
:101C3000C9F989494FF6FF73CA6A013B12F4704F24
:101C40009BB201D0002BF7D1834B4FF00042DA62F8
:101C50001A464FF6FF73D16A013B00299BB201DBA4
:101C6000002BF8D17C4BDC6AC4F30314002C35D173
:101C70007A4B794A18787A49000440F0004343F0DF
:101C8000D90353630B78284310361D0440F00040FD
:101C90002E435663114650634FF6FF735563CA6A6D
:101CA000013B12F4704F9BB201D0002BF7D16A4B6D
:101CB0004FF00042DA621A464FF6FF73D16A013BD9
:101CC00000299BB201DB002BF8D1634BDA6A12F0DA
:101CD000F00F5ED1FFF7C8F9204670BD9C6BDA6A41
:101CE00012F0F00FE4B2C3D09C6BDA6A12F0F00F7E
:101CF000E4B2BDD09C6BDA6A12F0F00FE4B2B7D058
:101D00009C6BDA6A12F0F00FE4B2B1D09C6BDA6A25
:101D100012F0F00FE4B2ABD09C6BDA6A12F0F00F65
:101D2000E4B2A5D09C6BDA6A12F0F00FE4B29FD057
:101D30009C6BDA6A12F0F00FE4B299D09C6BDB6A0C
:101D400013F0F00FE4B293D0434B9C6BDA6A12F0BD
:101D5000F00FE4B28CD09C6BDA6A12F0F00FE4B2B0
:101D600086D09C6BDA6A12F0F00FE4B280D09C6BE4
:101D7000DA6A12F0F00FE4B23FF47AAF9C6BDA6AE1
:101D800012F0F00FE4B23FF473AF9C6BDB6AE4B285
:101D90006EE79C6BDA6A12F0F00FE4B29AD09C6B9B
:101DA000DA6A12F0F00FE4B294D09C6BDA6A12F0A7
:101DB000F00FE4B28ED09C6BDA6A12F0F00FE4B24E
:101DC00088D09C6BDA6A12F0F00FE4B282D09C6B80
:101DD000DA6A12F0F00FE4B23FF47CAF9C6BDA6A7F
:101DE00012F0F00FE4B23FF475AF9C6BDA6A12F0B8
:101DF000F00FE4B23FF46EAF9C6BDB6A13F0F00FB0
:101E0000E4B23FF467AF144B9C6BDA6A12F0F00F48
:101E1000E4B23FF45FAF9C6BDA6A12F0F00FE4B209
:101E20003FF458AF9C6BDA6A12F0F00FE4B23FF463
:101E300051AF9C6BDA6A12F0F00FE4B23FF44AAF94
:101E40009C6BDA6A12F0F00FE4B23FF443AF9C6B84
:101E5000DB6AE4B23EE700BF00C00240542BFF1F24
:101E60006C1EFF1F10B504464FF03840FFF7AAF86C
:101E7000204B214A1B781B0443F0004343F03603F8
:101E80005363D36A03F4704113F0F00F18BF936BE0
:101E9000B1F5405FF5D804F00300184B0228187024
:101EA0001ED003280AD0012811D04820FFF714FDC6
:101EB000134B01221A70FFF7D7F810BDE820FFF787
:101EC0000BFD0F4B00221A70FFF7CEF810BD282033
:101ED000FFF702FD0A4B00221A70FFF7C5F810BD8C
:101EE0008820FFF7F9FC064B01221A70FFF7BCF8B7
:101EF00010BD00BF542BFF1F00C002403028FF1F41
:101F00002821FF1FF8B5152020F07EFA344D354EFC
:101F10002870062020F078FA2B78002103430F2048
:101F20003370FFF77FFE04464FF03840FFF74AF862
:101F3000042796F800E02D782B482C497E1E4FEAA6
:101F40000E4E2D04F6B277B3437843EA0E0343F006
:101F500000434B63871CCB6A03F4704213F0F00F0D
:101F600018BF8B6BB2F5405FF5D8B31C00EB030CC8
:101F70003846604511D010F8013B2B4343F0004335
:101F80004B63CB6A03F4704213F0F00F18BF8B6BF6
:101F9000B2F5405FF5D86045EDD1B819BF5D7E1E42
:101FA000F6B2002FD0D11120FFF76AFCFFF75CF8E2
:101FB000782021F011FD4FF03840FFF703F8292079
:101FC000FFF75EFCFFF750F8094A0A4B17602D2017
:101FD0001F70FFF747FF084B20461F70F8BD00BF7A
:101FE0006C1EFF1F542BFF1FC4E6030000C00240FD
:101FF0002021FF1F521EFF1F7029FF1F2DE9F041F6
:102000001A4C2678012E82B005460C461746984693
:1020100009D0174B1B788BB1164A174B15801C80C3
:1020200002B0BDE8F081C2F1EF031C46104B1B78F3
:1020300047460D46C0F1EF08002BEDD101220F49B4
:1020400001A8FEF78DFF0198FEF7BCFF1FFA88F389
:10205000BAB2A1B2A8B2FFF797FC2C20FFF710FC90
:10206000FFF702F802B0BDE8F08100BF2821FF1F92
:102070007029FF1FC828FF1FCA28FF1F80C3C9017E
:10208000F8B505464FF03840FEF79CFF204B1B7813
:1020900003B330263346EF2231465020FFF7AEFF20
:1020A00005F5A0773C4634F8020DFFF741FCAC4241
:1020B000F9D10136A82E3D46ECD10021084640F268
:1020C0003F13EF22FFF760FC2C20FFF7D9FBFEF750
:1020D000CBFFF8BDA723EF2230215020FFF78EFF62
:1020E00005F51546FE36AC1E34F8020FFFF720FC4E
:1020F000A642F9D100210846EF2340F23F12FFF734
:1021000043FC2C20FFF7BCFBFEF7AEFFF8BD00BF81
:102110002821FF1F074B197831B10021084640F2F2
:102120003F13EF22FFF76ABFEF2340F23F1208464A
:10213000FFF764BF2821FF1F1E4B1B7843B31E4BC4
:102140001B78012B10D01D4B1D4A1B88128803EBF6
:10215000830302EB4313B3F5964F04DA194A12686E
:1021600022F8130070477047174B1B78002BEAD0FA
:10217000124B134A1B88128803EB830302EB831371
:10218000B3F5963FEFDA114A126822F81300704750
:1021900010B582B001220E49044601A8FEF7E0FE08
:1021A0000198FEF70FFFA0B2FFF7C2FBFEF75CFF3E
:1021B00002B010BD7029FF1F3C21FF1FCA28FF1F5E
:1021C000C828FF1F3C1EFF1FA020FF1F481EFF1F27
:1021D00080C3C9012DE9F04F4E4C277883B091465A
:1021E0001E4605460C46DFB14B4B1B78002B4FD1EA
:1021F00004EBD47406EBD6766410761005EBD57537
:1022000009EBD979B4424FEA65054FEA690945D02F
:102210004D4509D14FF0FF33C9EB0507019309E0A4
:1022200099425FD0904267D04D45F3DA0123C5EB68
:1022300009070193A642CBBFC4EB0608C6EB04080E
:1022400001234FF0FF33B84500932CD94FEA5809CA
:10225000DFF8CCB0DFF8CCA0C9F100092346214655
:102260002A462846FFF7CAFE9AF800309BF800007D
:1022700043EA0020FFF760FF009BB4421C440FD0EC
:1022800019EB0709EAD4019BC8EB09091D44E5E7EE
:10229000224B1B78002BABD0B442B9D12646B7E70E
:1022A00003B0BDE8F08F7E08DFF874B0DFF874A0EB
:1022B00076422A46284623462146FFF79FFE9AF893
:1022C00000309BF8000043EA0020FFF735FF019B38
:1022D0004D451D44E4D016EB0806EAD4009BF61BDE
:1022E0001C44E6E7B5F5A07F01DAEF2C0DDD03B065
:1022F000BDE8F04FFFF70EBFB5F5A07FF7DAEF2C82
:10230000F5DC321BFFF738FCF1E7C5EB0902FFF7FC
:10231000DBFBECE77029FF1F3C21FF1FA020FF1F04
:102320002C29FF1F3529FF1FF8B505464FF038400F
:10233000FEF748FE0021EF2340F23F120846FFF768
:1023400023FB1A4B1A4A1B781B0443F0004343F04B
:102350002C0353631346DA6A02F4704112F0F00F53
:1023600018BF9A6BB1F5405FF5D8124E104CADB264
:10237000F027307845EA004040F0104040F23F112D
:102380006063E36A03F4704213F0F00F18BFA36BAD
:10239000B2F5405FF5D80139F2D12846FFF7C8FA07
:1023A000013FE6D1FEF760FEF8BD00BF542BFF1FD2
:1023B00000C002406C1EFF1F90422DE9F041044610
:1023C00017460D461E4601DD14460746B54202DD9E
:1023D0002B4635461E46B4F5A07F07DAEF2DC4EB39
:1023E000070812DDEF2E22DDBDE8F081B7F5A07FF2
:1023F00009DAEF2DF8DC761B324629463846BDE86F
:10240000F041FFF7B9BBBDE8F081424629462046BE
:10241000FFF75AFBEF2E0ADD761B2046324629468F
:10242000FFF7AAFBB7F5A07FE6DBBDE8F0814246E7
:1024300031462046FFF748FBEF2DEDDDBDE8F0818A
:102440002DE9F041904282B004460F4601DD14466A
:1024500002469F4202DD39461F460B46B4F5A07F77
:102460005EDAEF2F5CDCB2F5A07FD4BF161BC4F59B
:10247000A076F02BD8BFDD1B4FF001024FF0000318
:10248000294901A8C8BFC7F1F005FEF769FD019809
:10249000FEF798FDB9B2A0B24B1E421E2B44324447
:1024A0009BB292B2FFF770FA204B21491B781B04B4
:1024B00043F0004343F02C034B63CB6A03F47042B8
:1024C00013F0F00F18BF8B6BB2F5405FF5D8194AC7
:1024D000194B17781B78002D43EA07271EDD144C93
:1024E0001FFA87F8012E14DD144B187847EA0040D4
:1024F00040F0104031466063E36A03F4704213F029
:10250000F00F18BFA36BB2F5405FF5D80139012970
:10251000F1D14046FFF70CFA013DE3D1FEF7A4FDEF
:1025200002B0BDE8F08100BF80C3C901542BFF1F7A
:1025300000C002402C29FF1F3529FF1F6C1EFF1F02
:102540002DE9F04F904283B0054616460C461F46D3
:1025500001DD15460646BC4202DD23463C461F46C9
:10256000C5EB0608B8F1040F39DDC4EB0709B9F172
:10257000040F34DD05F1010ABAF5A07F04F101036F
:1025800030D306F1FF3BBBF5A07F32D305F1020A41
:10259000BAF5A07F05DAEF2CA8F1040846DDEF2F8D
:1025A0003EDDB5F5A07F04F10204A9F1040911DABA
:1025B000EF2C14DC28464A462146FFF7DDFAB6F533
:1025C000A07F0CDA4A462146304603B0BDE8F04F02
:1025D000FFF7D2BAB6F5A07F01DAEF2CF2DD03B037
:1025E000BDE8F08FEF2B2CD906F1FF3BBBF5A07FA8
:1025F0002ED2EF2B20D9BAF5A07F07F1FF330CD2F2
:10260000EF2BC3D8194650460193FFF729FA019BD7
:1026100019465846FFF724FAB8E7EF2BB6D8F7E784
:10262000424639465046FFF74FFABAE7424621463E
:102630005046FFF749FAB2E719465846FFF710FA35
:10264000D9E7194650460193FFF70AFA019BCBE7F9
:10265000791EEF299AD85046FFF702FA96E700BF95
:102660002DE9F04F904285B006460F469B4601DDAE
:10267000164602465F4502DD39465F468B46951B8E
:10268000042D34DDC7EB0B08B8F1040F2FDD7B1CE4
:1026900000930BF1FF330193AB1E02932B1F4FEA04
:1026A000680806F1020A06F10109002403930CBB35
:1026B000BAF5A07F04DAEF2F1FDDBBF1EF0F24DDA9
:1026C000B9F5A07F05DA009BEF2B34DD019BEF2BE2
:1026D0002BDD0224B6F5A07F06DA3919EF291FDDBC
:1026E000C4EB0B01EF2916DD01344445DFDD05B0F5
:1026F000BDE8F08F012CE3D0ECE7039A3946504651
:10270000FFF7E2F9BBF1EF0FDADC039A59465046C6
:10271000FFF7DAF9D4E72A463046FFF7D5F9E3E7C1
:102720002A463046FFF7D0F9DAE71946029A4846BA
:10273000FFF7CAF9CDE7029A19464846FFF7C4F9F0
:10274000C4E700BF2DE9F04F834B8BB01B78099095
:102750000391924693B1814B1B78002B40F0F68099
:10276000099B03EBD371039B03EBD37249100AEB74
:10277000DA735210099103924FEA630A039FDDF85E
:102780002480774D774C07EB0A094FEA4A06494601
:102790004B464246404676420896FFF72FFC237888
:1027A0002878CAEB070243EA00203E460792174604
:1027B000FFF7C2FC4246394610463B46FFF71EFC77
:1027C0002378287808EB0A0B43EA0020FFF7B4FCD3
:1027D0005A46584633463146FFF710FC237828788E
:1027E000CAEB08010F4643EA00200691FFF7A4FC5C
:1027F0003A46384633463146FFF700FC23782878BE
:1028000043EA0020CAF101030193FFF795FCBAF1F6
:10281000000F40F396800127CDF80890099904979E
:102820007E0001EB0709C6EB09030093039B03EB52
:102830000708C6EB080306F1010E019E0593002E62
:102840004A46484607F1010713DB089B02331E4442
:102850000893039B01960AF1FF3A03EB0A06CAEBC1
:10286000030302960793019ECAEB010301EB0A0BD7
:102870000693029976440B460196FFF7BFFB237837
:10288000287843EA0020FFF757FC029900980B468E
:102890000246FFF7B3FB2378287843EA0020FFF7CE
:1028A0004BFC079E4A46314633464846FFF7A6FB97
:1028B0002378287843EA0020FFF73EFC009A31464F
:1028C00010463346FFF79AFB2378287843EA002026
:1028D000FFF732FC414643465A465846FFF78EFB07
:1028E0002378287843EA0020FFF726FC069E41461D
:1028F000434632463046FFF781FB2378287843EA87
:102900000020FFF719FCDDF814805A464146434683
:102910005846FFF773FB2378287843EA0020FFF737
:102920000BFC4346324641463046FFF767FB2378AF
:10293000287843EA0020FFF7FFFB049B9A453FF706
:102940006DAF0BB0BDE8F04FFFF7E4BB064B1B7853
:10295000002B7FF413AF03E77029FF1F3C21FF1FFB
:102960002C29FF1F3529FF1FA020FF1F2DE9F04F45
:10297000DFF8A0928BB099F80030039105460292DF
:1029800073B1944B1B78002B40F01E81039B03EB2B
:10299000D372029B03EBD37352105B10039202932A
:1029A0008D4B1A78002A5ED18C4BDFF860A21C7820
:1029B000002C00F033819AF804109AF805009AF878
:1029C0000640CB0813FB00F02C1B00FB04F404347E
:1029D0000094002842D0DFF84092DFF82C82019268
:1029E0000398019AB2FBF3F30A1802990B441946B3
:1029F000013AFFF703FB9AF80410CB085D1E0BB3F6
:102A0000774F784EDAF800305A19009BD45C4FF0BB
:102A1000000B44FA0BF3D90747BF98F8000033784E
:102A200099F800003B780BF1010B43EA0020FFF717
:102A300083FBBBF1080FECD115F1FF35E2D29AF818
:102A40000410CB0801989AF80520009C184403FB59
:102A500002F21C44824201900094C1D80BB0BDE840
:102A6000F04FFFF757BBDFF8A4A19AF804309AF8AB
:102A700005109AF80600DB0803FB01F22D1A02FB91
:102A800005F52A1D05920029E8D0029ACDF818A074
:102A900002F1010B03F0FF02002B00F08980039B81
:102AA0000093C3F1EE03019300230BF1FF3A04936B
:102AB000069B059A1B68019F009D1344049A0724F6
:102AC00013F8028013E099F800005B463246514645
:102AD000D8B1454B454A1980158048FA04F3DA0706
:102AE00046D4013C631C354607F1FF374ED03B4BC3
:102AF0001B78012B05F10106E5D199F800007B1C3C
:102B00005A46394655460028E3D14FF038400992DD
:102B100008910793FEF756FA079B099A08999BB20A
:102B200092B289B2A8B2FEF72FFF2C20FEF7A8FEC2
:102B30002F4B1B78002BD0D0DA0703D52D492E4A16
:102B4000096811609D0703D52A4A2C4952680A601A
:102B5000580703D5274A2A4992680A601907BCD545
:102B6000244B284ADB68136048FA04F3DA07B8D527
:102B7000254A1C4B10781B78013C43EA0020FFF7E4
:102B8000DBFA631C354607F1FF37B0D1069B009C8A
:102B9000049A1B791D4908340132DB080094019C1A
:102BA00004921046DAB2083C8242019480DC4979F2
:102BB0000298059CC0EB0B001444814205940BF174
:102BC000010B3FF667AF49E7114B1B78002B7FF4F1
:102BD000E7AEDBE63C21FF1F521EFF1F2821FF1F2F
:102BE0002428FF1F3529FF1FCA28FF1FC828FF1FE1
:102BF000D82BFF1FC82BFF1F00E100E004E100E01D
:102C000008E100E00CE100E02C29FF1F2021FF1F5C
:102C1000A020FF1F7029FF1F7E27FF1F9AF8053095
:102C20009AF80420029903980B440244013B013AAC
:102C3000FFF7E4F99AF804209AF805309AF806901C
:102C4000D20812FB03F3C9EB050903FB09F909F1EB
:102C50000409002B3FF402AFDFF86880164F174ECF
:102C6000174D0094DAF8003013F809404FF0070BC5
:102C700044FA0BF2D00747BF30782A7898F8000062
:102C80003A7842EA0020FFF757FA1BF1FF3BEFD2F8
:102C90009AF8042000999AF80530D208013112FB05
:102CA00003F38B42009109F10109DBD80BB0BDE8B9
:102CB000F04FFFF72FBA00BF2428FF1F2C29FF1F5A
:102CC0003529FF1F7E27FF1F174BF0B41B68043305
:102CD0001A780A705C784C609E788E60DD78CD60E2
:102CE0001C797F2CC8BFC4F580740C619F1D824283
:102CF0005B794B610BD0FF2A12D016FB05F56EB144
:102D00006B1E48BFAB1D07EBE3030133E0E7B2F1F5
:102D1000FF0018BF01208F61F0BC70473B46D7E72A
:102D200000208F61F0BC70472021FF1F2DE9F04F7C
:102D30008BB08B4603A90192FFF7C6FF00284FD046
:102D4000354C364D364B21782A781B7842EA0122E1
:102D50000092002B47D0059B002B40D0069A002AFA
:102D60003DDD4FF00008099FC14646468025002BF7
:102D70002EDD019A00210C4602EB080A09E02A46E2
:102D800016424FEA550510D10134E4B29C42214667
:102D90001DDA03FB08125207F1D13E788022164259
:102DA0004FF0400507F10107EED0079A049B5A4403
:102DB0000A44534419461046FFF720F90098FFF7DC
:102DC000BBF90134059BE4B29C422146E1DB069A43
:102DD00009F101095FFA89F99145C846C7DB0898EE
:102DE0000BB0BDE8F08F0F490F4B0978089A5B795B
:102DF0000E482170019906782E705A440B44013216
:102E00005846FFF71DFB009A2A70130A2370059B92
:102E1000002BA3D1E3E700BF2C29FF1F3529FF1F9B
:102E2000521EFF1F7E27FF1F2021FF1F2428FF1F88
:102E30002DE9F04F2DED068B8BB009EE101A03A98A
:102E4000994609EE902AFFF73FFF002879D0059AAE
:102E5000002A73D0DDED1A7A9FED4E7A0192F8EEDA
:102E6000E77A67EE877A17EE900A27F0B5F841EC1B
:102E7000100B41EC1A0B25F0E3FB51EC100B27F083
:102E8000D7FBB0EE4A0AF0EE6A0A08EE100A25F007
:102E900037FC51EC100B27F0CBFB069B002B08EE08
:102EA000900A4BDD3C483D4990F800B00978DDF8C8
:102EB0002480DFF8F4A0019A002541EA0B2B2F466D
:102EC0008026002A37DDF8EEC9AAB8EEE9AA002468
:102ED00025E031467608049BEB1806EE903A04EBA9
:102EE000090307EE903AF8EEE66AB8EEE76A66EE96
:102EF000E87A28EE867AE8EE067A0F42A8EE267A7D
:102F000077EEAA7A37EE0A7AFDEEE77ABDEEC77A57
:102F10001CD19AF8003043B3013494420ADA02FB20
:102F200005435B07D5D198F80070402608F10108E9
:102F30008021D0E7069B01359D42C2DBFFF7EAF80E
:102F400008980BB0BDEC068BBDE8F08F17EE902A09
:102F500017EE900A17EE103A17EE101AFFF74EF818
:102F60005846FFF7E9F8059AD6E717EE103A17EE3C
:102F7000902A17EE900A17EE101AFFF73FF8084B49
:102F80001878084B1B7843EA0020FFF7D5F8059A1C
:102F9000C2E700BF295C8F3C2C29FF1F3529FF1F8A
:102FA0007E27FF1F2428FF1F521EFF1F2DE9F04F11
:102FB0002DED028B95B0DDED207A9FED5E7ADFF886
:102FC00088811392F8EEE77A044667EE877A0E93CB
:102FD00017EE900A129126F0FFFF98F8046041EC7A
:102FE000180B98F8060098F80510F30803FB01F297
:102FF000201A02FB00F0021D1092002900F0A382AB
:103000004D4A92F800B00022119203F0FF02002B0B
:1030100000F09281129826F0CDFFB0EE480AF0EE53
:10302000680ACDE9020125F00BFB11985AEC109BC0
:103030008DED040B26F0BEFFB0EE480AF0EE680AF4
:1030400004460D4625F05CFB204653EC102B294628
:103050008DED060B27F014F8CDE90801139826F042
:10306000A9FF2B46CDE90A0122465146484627F0E2
:1030700007F8CDE90C010023DFF8D0A00F93D8F8B2
:103080000030109A0F9913444FEAC1095B5C019319
:1030900009F10709072530460E9AC5EB090302FB23
:1030A000003026F087FFDDE9042306460F4626F0B0
:1030B000E7FFDDE9082326F02FFEDDE9022326F0F5
:1030C0002DFE27F08DFADDE9062304463946304609
:1030D00026F0D6FFDDE90C2326F020FEDDE90A23E9
:1030E00026F01CFE27F07CFABBF1010F00F1010372
:1030F00004F101022CD09AF80010002933D0019B72
:103100000E4A0F4E2B41A4B280B2DB0714803080F0
:1031100000F1EB800B4B1B78002B00F02781064B56
:1031200093F800B015F1FF35C0F0F98098F804006D
:10313000B2E700BF295C8F3C2821FF1FC828FF1F72
:10314000CA28FF1F521EFF1F2021FF1F7029FF1FCB
:10315000C2F1EF011A46C4F1EF03044608469AF89B
:1031600000100029CBD196490978002930D072B6D9
:1031700093490978CE070BD5924F934ED7F800C0EC
:103180003668DFF85CE20CEA0606CEF800603E60C6
:103190008F070BD58D4F8C4ED7F800C07668DFF8BF
:1031A00040E20CEA06063E60CEF804604E070BD5FE
:1031B000874F854ED7F800C0B668DFF824E20CEAE6
:1031C00006063E60CEF808600F0700F16D8162B61A
:1031D0008049CE68B6F1384F09D07F4F0F604FF06D
:1031E0003847CF607D4E4FF078470F610E609BB23D
:1031F00092B281B2A0B2FEF7C7FB2C20FEF740FBD3
:103200006F4B1A78A2B1D60703D57549754B09687B
:103210001960940703D5724B73495B680B605007C4
:1032200000F13D81110703D56D4B7049DB680B60E0
:10323000019B2B41DF0700F1F1806D4B1B78002BC8
:103240007FF46DAF6B4A6C4B10781A789AF80030A7
:1032500042EA0020002B40F08881594B1B78002B5C
:103260002CD072B6564B1B78DA0707D55549564A0B
:103270000E6812685A4C324022600A609F0707D5D8
:103280005249514A0E685268554C32400A60626099
:103290005E0707D54E494C4A0E689268504C324042
:1032A0000A60A2601C0708D5544A474B1168DB68C6
:1032B0004B4A0B4051490B60D36062B6454BDA680C
:1032C000B2F1384F09D0444919604FF03841D96004
:1032D000424A4FF0784119611A60FEF729FB384BDA
:1032E0001B78002B40F0BE8019E7454A454B127809
:1032F0001B7843EA0223444A1278012A00EB80003B
:103300004ED004EB4014B4F5964FBFF60BAF3F4AD6
:10331000126815F1FF3522F81430BFF407AF0F9A89
:1033200098F804603A490132F30810460F92DAB275
:1033300082423FF7A4AE49791198109C0130C0B287
:103340001444884211901094FFF45FAEBBF1000F5B
:1033500000F0FD800021084640F23F13EF2215B037
:10336000BDEC028BBDE8F04FFEF748BE2149224B71
:1033700008781B7843EA0020234B1B78012B00F0D0
:10338000CB803388128803EB830302EB4313B3F53E
:10339000964FBFF6C4AE1D4A126822F81300BEE66F
:1033A0001C4A1278002AACD004EB8014B4F5963F86
:1033B000BFF6B8AE184A126822F81430B2E600BF61
:1033C000D82BFF1F80E100E0B82BFF1F84E100E055
:1033D00088E100E000C0024001401F0000001F80A3
:1033E000C82BFF1F00E100E004E100E00CE100E079
:1033F000521EFF1F7E27FF1F2428FF1F8CE100E0C5
:103400002C29FF1F3529FF1F3C21FF1F3C1EFF1FDA
:103410002021FF1FA020FF1F481EFF1F5449554BAE
:1034200008781B789AF8001043EA0023002940F03E
:103430009480002A42D1504AD168B1F1384F09D066
:103440004E4810604FF03840D0604D494FF0784002
:10345000106111601846FEF76BFA4A4B1B78002B7F
:103460003FF45DAED80703D54749484A0968116063
:10347000990703D5444A464952680A605A0703D55A
:10348000414A444992680A601B077FF548AE3E4BAB
:10349000414ADB681360414B93F800B042E63A4B77
:1034A0003C499B680B60BDE63D4E3E493768C968A4
:1034B000354E39403A4F3960F16088E672B6314A8C
:1034C0001278D60707D538483649066809682E4C61
:1034D000314021600160940707D5344831490668BE
:1034E0004968294C314001606160500707D5304878
:1034F0002C4906688968244C31400160A16011079D
:1035000008D52749274A0868D2681F49024024483D
:103510000260CA6062B68EE7264B1B78002B3FF430
:1035200030AF3388128803EB830302EB8313B3F5C8
:10353000963FBFF6F4AD204A126822F81300174BED
:1035400093F800B0EEE5154B93F800B0FEE6EF23DC
:1035500040F23F125946584601E7184A184E14885F
:103560000E4A308892F800B0C5E6144A144E03E7BC
:103570002C29FF1F3529FF1F00C0024001401F00FA
:1035800000001F80D82BFF1FC82BFF1F00E100E0A9
:1035900004E100E008E100E00CE100E02821FF1F69
:1035A0008CE100E0B82BFF1F80E100E084E100E047
:1035B00088E100E0A020FF1F481EFF1FC828FF1F52
:1035C000CA28FF1F2DE9F04F83B09A460D461646D4
:1035D000044628F0B5F9584B1B7807464BB1574BBA
:1035E0001B78002B75D105EBD57506EBD6766D10E3
:1035F0007610534B1B78C3BB42F20F739D4200F011
:103600008D8042F20E739D426ED0002F2ADDBAF1FA
:10361000000F3ED04FF00009DFF82C810134CB467B
:103620000CE014F8010CCDF800A05B460BF1010B87
:10363000FFF7BCFC5F4504F1010413D098F80400C7
:103640004B46324629460028EBD114F8010CCDF840
:1036500000A0FFF7EDFB0BF1010B5F45814404F186
:103660000104EBD103B0BDE8F08F42F20F739D422D
:1036700046D042F20E739D42C7D1DFF8CC8098F855
:10368000045007FB05F5C5F1F00505EBD5756D1088
:10369000BBE7DFF8B48001372744C146013408E0B6
:1036A00014F8010CFFF742FB013005440134A74236
:1036B000D8D098F8043029463246002BF0D029465D
:1036C000324614F8010CFFF751F999F804301D4403
:1036D000ECE71C4B1B78002B8BD105EBD57506EB6B
:1036E000D6766D10761084E7DFF85C8098F8045089
:1036F00007FB05F5C5F5A07505EBD5756D1084E7DD
:10370000DFF8448098F8045007FB05F5C5F1F00593
:1037100042F20E739D427FF478AFAEE7DFF8288067
:1037200098F8045007FB05F5C5F5A07542F20E7335
:103730009D427FF46AAFD7E77029FF1F3C21FF1F2E
:103740002821FF1FA020FF1F2021FF1F2DE9F04788
:10375000294C2A4F208B618BA28BE38B3D68DFF8CD
:10376000B880DFF8B89002440B442E0A033A0330C5
:10377000033B033188F8006089F80050FEF760FED3
:103780001F4A204B12681A6092F800A083F804A028
:1037900055781D495D7190780968666A9871D2788C
:1037A00089F800103046090ADA7188F8001028F00C
:1037B000C7F8A18B238BB4F81EE03F68628B03EB44
:1037C00051036D0800FB0AF0C5EB5E05A3EB500149
:1037D0007B1C2A440DD00D480D4B3C0A04701F7011
:1037E00000250C4C304625700023BDE8F047FFF75C
:1037F000E9BE0125F5E700BF7429FF1F2C21FF1F3B
:103800002828FF1F2021FF1F582BFF1F7E27FF1F87
:103810002428FF1F521EFF1F2C29FF1F3529FF1FC1
:103820002DE9F04F294CDFF8B88020886188A28804
:10383000E388DFF8B09002440B4481B0BE277F26B6
:10384000033A0330033B033188F8007089F80060C5
:10385000FEF7F6FD1E4A1F4B12681A6092F800B080
:1038600083F804B055781C495D719078D4F80CA0A9
:1038700009689871D27889F800105046090A88F8CA
:103880000010DA7128F05CF8B4F806C0B4F804E06F
:103890002388628800FB0BF16D081048C5EB5C05BE
:1038A00003EB5E030024DFF840C0DFF840E0077060
:1038B000A3EB510150462A4423468CF800608EF851
:1038C000004001B0BDE8F04FFFF77CBE7429FF1F38
:1038D0002828FF1F2021FF1F582BFF1F7E27FF1FB7
:1038E0002C29FF1F3529FF1F2428FF1F521EFF1FF1
:1038F000F8B505464CF65960FEF716FD144B154C0D
:103900001878207128465D78657123609D78124E85
:10391000DB781249124AA571E3710025CE2333707A
:103920000D70104F104E3D70592111702B46192209
:1039300042F20E713570FFF745FE0C4B236018788C
:1039400059789A78DB78E37120716171A271F8BDC2
:10395000E4EE03002021FF1F7E27FF1F521EFF1FE2
:103960002428FF1F2C29FF1F3529FF1FC8FA030039
:103970002DE9F04706211F4F1F4E204D204C824657
:103980004FF0CE0908464FF05908EA234FF49D72D4
:1039900087F8009086F80080FEF762FE194BDFF88A
:1039A00070E083F8009000228EF8008095F800C047
:1039B00095F801E014493A70AF783270EE780A70E9
:1039C00013465046192242F20E7184F804C0256055
:1039D00084F805E0A771E671FFF7F4FD0B4B236057
:1039E000187859789A78DB78E37120716171A27147
:1039F000BDE8F0872C29FF1F3529FF1FE4EE0300E7
:103A00002021FF1F7E27FF1F521EFF1FC8FA030041
:103A10002428FF1F2DE9F0418568DFF844E0DFF836
:103A2000448005F1080323F0070300AFADEB030D5D
:103A30004FEA122C14460E466A1C694600238EF883
:103A400000C088F8004022F0F1F8324668460023B2
:103A500042F20E71FFF7B6FDBD46BDE8F08100BF32
:103A60002C29FF1F3529FF1FF0B5064685B04CF6FF
:103A70005960FEF759FC4B4B4B4C1F7859786171DC
:103A8000277123609978494DDB78E3714848494AAA
:103A9000A171CE232B70592300250370314668464F
:103AA000157021F0A5FE68461F221421FFF7B2FF12
:103AB000684621F071FF404B2360197858789A7856
:103AC000DB782171607106F110016846E371A27123
:103AD00021F08EFE2A4668463721FFF79BFF684695
:103AE00021F05AFF06F12001684621F081FE2A46A6
:103AF00068465021FFF78EFF684621F04DFF06F122
:103B00003001684621F074FE2A4668466921FFF7B5
:103B100081FF684621F040FF06F14001684621F030
:103B200067FE2A4668468221FFF774FF684621F047
:103B300033FF06F15001684621F05AFE2A466846D6
:103B40009B21FFF767FF684621F026FF06F1600121
:103B5000684621F04DFE2A466846B421FFF75AFF19
:103B6000684621F019FF6846144921F015FE6846A1
:103B70001F22D421FFF74EFF684621F00DFF03E01E
:103B800021F05EFA002809DCFDF7FAFD0028F7D0E5
:103B9000FDF7F6FD0028FBD105B0F0BDFDF762F999
:103BA000F2E700BFE4EE03002021FF1F7E27FF1F86
:103BB0002428FF1F521EFF1FC8FA0300901703009E
:103BC0002DE9F041856805F1080424F0070400AFF1
:103BD000ADEB040D16460C4698466A1C6946002358
:103BE00022F024F84346324621466846FFF7EAFCB5
:103BF000BD46BDE8F08100BF2DE9F0478EB000283A
:103C00000E46174698469DF858101CD1002B6ED0D2
:103C1000012B74DD5C1E0DF11C092246484627F07D
:103C2000C5F90EAB181998443022002300F81C2C5B
:103C300008F81C3C3A46314648460023FFF7C2FCD0
:103C40000EB0BDE8F087B4BF01250025DFF8BCE069
:103C5000B8BF4042AC460DF1FF3300248EFB002973
:103C6000C217C2EBA90202EB8202A0EB4202801A49
:103C70008EFB00A9C0173032D0EBA90004F101047B
:103C800003F8012FEAD10EAB234403F8380CBCF142
:103C9000000F02D02D238DF81C3004EB050AD0450F
:103CA00016DC4FF000080DF11C0905EB0803013B81
:103CB00069464B446C4414F8012D03F8012FA142CE
:103CC000F9D10EAB9844C24400230AF81C3CB1E77A
:103CD000C4EB0808C5EB0808B8F1000FE1DD0DF1F1
:103CE0001C0909EB0500424627F060F9DDE73023A7
:103CF0008DF81D808DF81C300DF11C099AE70446E3
:103D00004FF001080DF11C098BE700BF676666667E
:103D10002DE9F04F8BB00746159E01934FF03840C8
:103D2000149D8B469246FDF74DF9012EA04B00F0F5
:103D300081801A78019B002A00F0AB80002B67DDA0
:103D4000BBB2B2B20893013B1AFB02339BB207929B
:103D50004FEA4A020993AB18964F02930AF1FF33D8
:103D60000593002306921FFA8BFBB8463C4604934A
:103D7000002E3FDD002303935B449BB21946099A52
:103D80000898FDF701FE2C20FDF77AFD059B002B1E
:103D90002BDB9C46884BDDF8089093F800A04FF091
:103DA00080554FEA0A4A39F8021D41EA0A0141F0FA
:103DB000C05100223868796302E013F0F00F36D169
:103DC000FB6A13F0805FF8D0E5622060E36A13F0CD
:103DD000F00F04D0BB6BFB6A13F0F00FFAD1013285
:103DE0009642E7D11CF1FF3CDDD2039B01339E429A
:103DF0000393C1D1079B029A06999B440A44049BF2
:103E00000292019A01339A4204931FFA8BFBAFD1BD
:103E10000021084640F23F13EF22FDF7B5FD2C20AC
:103E2000FDF72EFDFDF720F90BB0BDE8F08FD8F8B7
:103E30003830C5E71B78002B00F09F80019B002BDA
:103E4000E6DD5B445C4607EB0A069B464FEA4A0305
:103E5000013E0193A946D0462346324621463846C4
:103E6000FEF7CCF8BAF1000F0CDD05EB4803149512
:103E700025461C4634F8020DFDF75AFDA145F9D13F
:103E80002C46149D019B01345C459944D044E3D1F8
:103E9000BEE7002B66DDBBB2B1B20693013B1AFB55
:103EA0000133444C05919BB207934FEA4A031FFA32
:103EB0008BF10292AB46274625460393CDF820A00E
:103EC000059B079A0698CB189BB20493FDF75CFDFF
:103ED0002C20FDF7D5FC002E39DD374B93F80090F0
:103EE000039B4FEA09490BEB03084FF0000A4FF020
:103EF000805E089B002BC8BFDC4621DD3CF8021B1E
:103F000041EA090141F0C05100222068616302E0EA
:103F100013F0F00F19D1E36A13F0805FF8D0C5F801
:103F20002CE02860EB6A13F0F00F04D0A36BE36A77
:103F300013F0F00FFAD101329642E6D1E045DDD11F
:103F40000AF1010A5645D4D104E0BB6BE3E7039BB9
:103F50000BEB0308029B019A049901339A420293E6
:103F6000C346ADD100210846EF2340F23F12FDF7D2
:103F70000BFD2C20FDF784FC54E7019C23465B4499
:103F800007EB0A025946013B0AFB04FB013A38469B
:103F9000FEF734F8BBF1000FC8BF05EB4B0BE1DDBA
:103FA00035F8020BFDF7C4FCAB45F9D1DAE700BFE9
:103FB0002821FF1F00C002406C1EFF1F2DE9F8439F
:103FC00004460F46164698464FF03840DDF82090DC
:103FD000099DFCF7F7FFB9B2A0B208F1FF33721EDA
:103FE0000B4402449BB292B2FDF7CEFC604B614998
:103FF0001B781B0443F0004343F02C034B63CB6A54
:1040000003F4704213F0F00F18BF8B6BB2F5405FF2
:10401000F5D8B8F1000F40F3A680574F554C3878CB
:10402000042E49464FEA004054DDB6460B789B0902
:1040300035F81330034343F010436363E36A03F43A
:10404000704213F0F00F18BFA36BB2F5405FF5D8C4
:104050000B78C3F3011335F81330034343F01043D7
:104060006363E36A03F4704213F0F00F18BFA36BAD
:10407000B2F5405FF5D80B78C3F3810335F8133000
:10408000034343F010436363E36A03F4704213F0A5
:10409000F00F18BFA36BB2F5405FF5D811F8013BE4
:1040A00003F0030335F81330034343F01043636315
:1040B000E36A03F4704213F0F00F18BFA36BB2F57C
:1040C000405FF5D8AEF1040E1FFA8EF3042B0FFA01
:1040D00083FEABD80B789B0935F81330034343F0CC
:1040E00010436363E36A03F4704213F0F00F18BFE8
:1040F000A36BB2F5405FF5D80B78C3F3011335F825
:104100001330034343F010436363E36A03F47042E4
:1041100013F0F00F18BFA36BB2F5405FF5D80B7822
:10412000C3F3810335F81330034343F01043636353
:10413000E36A03F4704213F0F00F18BFA36BB2F5FB
:10414000405FF5D80B7803F0030301F1010935F85E
:104150001300FDF7EDFB08F1FF339BB20FFA83F874
:10416000002B7FF45CAFFCF77FFFBDE8F88300BF56
:10417000542BFF1F00C002406C1EFF1F2DE9F843A7
:1041800004460F46164698464FF03840DDF820901A
:10419000099DFCF717FFB9B2A0B208F1FF33721EF8
:1041A0000B4402449BB292B2FDF7EEFB394B3A4905
:1041B0001B781B0443F0004343F02C034B63CB6A92
:1041C00003F4704213F0F00F18BF8B6BB2F5405F31
:1041D000F5D8B8F1000F58DD304F2F4C3878022E4B
:1041E00049464FEA00402EDDB6460B781B0935F8EC
:1041F0001330034343F010436363E36A03F47042F4
:1042000013F0F00F18BFA36BB2F5405FF5D811F8AB
:10421000013B03F00F0335F81330034343F0104321
:104220006363E36A03F4704213F0F00F18BFA36BEB
:10423000B2F5405FF5D8AEF1020E1FFA8EF3022BF5
:104240000FFA83FED1D80B781B0935F813300343DE
:1042500043F010436363E36A03F4704213F0F00F1A
:1042600018BFA36BB2F5405FF5D80B7803F00F03CE
:1042700001F1010935F81300FDF75AFB08F1FF338E
:104280009BB20FFA83F8002BA8D1FCF7EDFEBDE836
:10429000F88300BF542BFF1F00C002406C1EFF1F9D
:1042A00000B5124B1B7883B03BB11149114B4FF451
:1042B00080704FF4107208601A600F4B1B781BB9A6
:1042C0000E4A1278012A09D00D48FCF77BFE002126
:1042D0000F201FF0EFFA03B05DF804FB094901A8B5
:1042E000FCF73EFE0198FCF76DFEF0E7562BFF1F32
:1042F00014B0044004C004403C21FF1FC528FF1F28
:10430000000001BA80C3C9012DE9F04F00F001029D
:104310004308960003EB830316445A0187B002EB6F
:104320000612C2F59556DFF880E15B4F01960592C3
:104330001646C2F5155202929EF8008097F800A02A
:10434000029A564C564B94F800901C68554BC6F593
:104350009547C6F5605E019E04970139009106F10C
:104360001F0100EB800501911146049AAD013F3118
:10437000C5F595477F3200EB800B02910EF13F01AE
:1043800004926E4203914FEA4B1B7F37A035002207
:104390001AE0B9F1000F25D002EB0B0104EB810EFE
:1043A00024F8210004EB4501AEF8020024F81500C2
:1043B00048800132502A03F10203A7F10207A6F157
:1043C000020605F1020535D01879597951EA002025
:1043D00031D0B8F1010F1DD0BAF1000FD9D1B9F128
:1043E000000FD9D002EB0B01A1F515513F3906F5AD
:1043F000944C06F5944EC1EB81710CF15F0C0EF1FB
:104400005E0E24F8170024F8210024F81C0024F87C
:104410001E00CEE70099B9F1000F05D10329C8D8D5
:10442000DFE801F035302B260329C2D8DFE801F0A0
:104430001B140D06012007B0BDE8F08F0599511837
:1044400001F5615124F81100B3E70599511801F500
:10445000165124F81100ACE70599511801F5965151
:1044600024F81100A5E70599511824F81100A0E7D8
:104470000199891A24F811009BE70299891A24F8F6
:10448000110096E70399891A24F8110091E704991D
:10449000891A24F811008CE7562BFF1F0A29FF1FE9
:1044A0003C1EFF1F8027FF1FC528FF1F2DE9F04F6F
:1044B0009B4B9C4D1B7883B0012B0CBF0423012325
:1044C0000193FFF7EDFE01232C4600934FF0000807
:1044D000B8F1FF0F00F08280934F4FF0010B07F10E
:1044E000A3064FF0000A2B6839788F4F4FF0004237
:1044F00043F480632B601046EA625FFA8AF93A4619
:104500006963BE465178EB6A002BFCDAA76B23681F
:1045100043F480632360E062616302F8017BB2428E
:10452000F0D17746EB6A002BFCDA3B78A26B87F878
:10453000A32003F00F020F2A7B4902D04A784A4594
:104540002DD01FF025FA08F101085FFA88F8064619
:1045500000E000BF1FF01CFA801BB0F5487FF8D3C5
:10456000B9F13C0FB4D1009B019A03F1010A5FFA43
:104570008AF39A420093A9D26C4B01221A60FCF78D
:1045800073FD6B4B1B783BB16A496B4B4FF410705A
:104590004FF4807208601A6003B0BDE8F08FB9F183
:1045A000140F0FD000994846FFF7AEFE0028C8D080
:1045B000BBF13C0FD7D00BF1010B5FFA8BFB0AF17B
:1045C000010A90E7564A1278012A00F0908000997B
:1045D0001420FFF799FE0028EDD1B2E7574B1B7866
:1045E000DBB2012B00F08B80504A554E0123136043
:1045F0003378BBB1D80703D55249534A09681160D3
:10460000990703D54F49514A496811605A0703D5A4
:104610004C494F4A896811601F0703D5494A4D4BE1
:10462000D2681A60424B1B783BB1424A424B4FF46E
:10463000107111604FF480721A60BA201FF0CCF92B
:104640003B4B1B783BB13B4A3B4B4FF480711160B5
:104650004FF410721A60404B1B781BB9304B1B781B
:10466000012B58D03278364B002A2CD072B61B78EA
:10467000D80707D539493A4A0E681268314832409E
:1046800002600A60990707D53649354A0E685268B4
:104690002C4832400A6042605A0708D53249304AF5
:1046A00008689268274902402F4802608A601B0709
:1046B00008D52E4A2A4B1168DB68224A0B402B4949
:1046C0000B60D36062B6EA68294B9A4206D0294A49
:1046D0002A602949294AEB6029612A6000210F20BC
:1046E0001FF0E8F8012300934FF00008F4E61B11D7
:1046F0003FF427AF009A9A427FF423AF67E70B4A53
:104700001360FCF7B1FC0A4B1B78002B7FF43CAF25
:1047100003B0BDE8F08F4FF03840FCF753FCDDE705
:10472000C528FF1F00C002408027FF1F84F00F40F4
:10473000562BFF1F14B0044004C004407C20FF1F10
:10474000D82BFF1FC82BFF1F00E100E004E100E0B1
:1047500008E100E00CE100E03C21FF1F80E100E007
:10476000B82BFF1F84E100E088E100E08CE100E06D
:10477000000001BA01401F00000001FA00001F8084
:1047800070B52149214B224C4FF480704FF41072C8
:1047900008601A6004F26C4104F58C600223142254
:1047A0001CF0F0FC78B91A481CF006FA2379174A75
:1047B000154C5B084FF410754FF48071256000FBB9
:1047C00003F0116070BD04F23C401AF013FB0121AC
:1047D00020461CF08BFA80B10D4D05F23C46304668
:1047E00029461AF0CDFC0028DDD095F83C3413F0B2
:1047F000700F1CBF074B1E60D5E7014620461CF01A
:1048000075FA0028E8D1CEE714B0044004C0044093
:104810000C23FF1FB02BFF1F2DE9F041214F224D2C
:1048200022484FF480764FF410783E608CB0C5F883
:1048300000801DF071F81E4B00F2FF74C4F3CF240A
:104840001860C7F800802E6044B3FFF799FF0A2272
:10485000810A684621F062F8694604A820F0C8FF82
:10486000144904A821F088F90A220546611E08A807
:1048700021F054F808A9284621F03EF90E4921F00C
:104880007BF901460D4821F08FF808A821F084F843
:1048900004A821F081F8684621F07EF80CB0BDE84C
:1048A000F08100BF14B0044004C004406C27FF1F17
:1048B0003029FF1FAC170300B0170300CC28FF1FDF
:1048C00038B51D481D4B1E494FF410724FF48074CB
:1048D00004601A60A1F10C00022314221CF052FCA7
:1048E00048B900201449154B4FF410744FF48072EE
:1048F0000C601A6038BD13481AF07CFA0121124886
:104900001CF0F4F988B1104C04F23C4528462146CD
:104910001AF036FC0028E4D094F83C3413F070030D
:1049200016BF0A4B18461D60DCE7014606481CF01E
:10493000DDF90028E7D1D4E714B0044004C00440F6
:104940007827FF1F4827FF1F0C23FF1FB02BFF1FD7
:10495000F8B5344C4FF400720021204626F026FBB7
:10496000314A3248324900780968324B12781E6861
:10497000B1FBF0F512FB00F200FB1515B1FBF2F3F1
:104980009F080135DFF8B4E084F8C13107F0C007B3
:1049900065F30507AA259EF800E084F8FF518D19FC
:1049A000013D84F8C07184F8C2E1B5FBF2F71FFA4B
:1049B00087FE4FF0550CBEF5806F02FB131384F891
:1049C000FEC1B3FBF0F384F8BF3112D3FF20FE2207
:1049D00084F8C50184F8C32184F8C401C4F8C61161
:1049E000C4F8CA610F4A14480021BDE8F8401DF020
:1049F00051B894F8C431B5FBF0FE4FEA272C00FB08
:104A00001E5E0EF1010E6CF387136EF3050302FBBD
:104A1000175284F8C571B2FBF0F084F8C43184F801
:104A2000C301DBE7741EFF1F5A1EFF1F5529FF1F1E
:104A30008C20FF1FE822FF1F6C27FF1F5B1EFF1F3C
:104A40002DE9F04F7A4E7B4BD6F800E01D78DFF869
:104A50000C82DFF80CA2AEF58070B0FBF5F000F22E
:104A60000112120A54004FF4807104F1A1078F4221
:104A7000C8F8002083B0CAF8001088BF4FF4C07295
:104A800001D8D2E06246C2EB0E00B0FBF5F000F2B6
:104A90000111090A4C0004F1A107974202F1800CB0
:104AA000F0D8CAF80020C8F80010D21B04F1210188
:104AB000DFF8B091604C614FDFF8ACB100FB05103E
:104AC00002F18005C9F8005047F6A775813201212F
:104AD000A84220603A60ABF8001000F29E80584A6D
:104AE0001170584D0193FFF733FF4FF4007200210E
:104AF000284626F05BFA019BBBF800E05249226889
:104B0000A5F80EE055244FF0AA0E504893F800C0C7
:104B10000978D8F800302A6285F8FE41EB2290240B
:104B200085F8FFE14FF0F80E007885F80DC02A7087
:104B30004FF0290C8022AC7085F815E000244FF06E
:104B4000203EEB8269830223D9F80010C5F803E008
:104B5000C5F807E0E96185F8242085F826C02B73A5
:104B60002B74AB742883EC726C7436681EF010FFE3
:104B7000374B384A3602064403CBC5F82B00C5F83C
:104B80002F1003CAB3F800C09B78C5F83600C5F8EB
:104B90003A102A46D9F80010C5F82760A5F833C0A6
:104BA00085F835302C481CF075FFD7F80090DAF8FE
:104BB00000602146C9EB06064FF40072284626F035
:104BC000F5F93246494624481DF03CF936B1013426
:104BD0001C4921481DF058F8A642F8D11E481DF086
:104BE00093F94FF400720021164826F0DFF94FF6D2
:104BF000F8744FF6FF733968124A17486B802C809F
:104C00001CF048FF3968D8F800300E4A12481944A1
:104C100003B0BDE8F04F1CF03DBFB0F5803F084A3F
:104C200034BF0421062111705BE70A463DE700BF4F
:104C30003029FF1F2B29FF1FE822FF1FF022FF1F33
:104C40005B1EFF1F741EFF1F5A1EFF1F5529FF1FEB
:104C50002408FF1F4008FF1F6C27FF1F441EFF1F73
:104C60004421FF1F8C20FF1F3828FF1F2DE9F04F24
:104C7000974CDFF88C92D4F800C099F800E0954F7B
:104C8000954EDFF88082ACF58041B1FBFEF101F179
:104C90008103DB095D0005F5005A4FF480400AF1FD
:104CA000090A4FF40052824583B03B603260C8F875
:104CB000000040F20B814FF4C04000E05046C0EBD2
:104CC0000C01B1FBFEF101F18103DB095D0005F58B
:104CD00000520932824200F5005AEFD8A0F5005286
:104CE0003B60C8F8000093B2DFF81CB27B4ADFF8E3
:104CF0001CA2DFF81C825D1B01FB0E01ABB27848E1
:104D0000784DABF8003091428CBF0C220B2203F59A
:104D10000053A1F50051C8F80030CAF80010027025
:104D2000FFF716FE4FF400720021284626F03EF9E8
:104D30002268BBF80040DAF800306B486B49EC8120
:104D4000EB242B622C709023F82499F800C090F883
:104D500000E0AB7008783B6831686C75062485F814
:104D60000DC0A5F818E04FF0010C4FF0800E6883DD
:104D7000E96129204FF020316B626C860223002408
:104D8000A5F830C012024FF0550B4FF0AA0A85F873
:104D900040E0C5F80310C5F807102B732B74EB62C5
:104DA00085F84200EC72019285F8FEB185F8FFA10A
:104DB0001EF0EEFD019A4E4BDFF858E1024403CBA2
:104DC000C5F84700C5F84B10BEE80300B3F800E093
:104DD0009B78A5F84FE085F85130C5F84320C5F819
:104DE0005200C5F856102A46316842481CF052FE5F
:104DF000316840482A4606311CF04CFE21464FF4EB
:104E00000072284626F0D2F831683A4885F8FEB19B
:104E10002A46023185F8FFA11CF03CFE3168354876
:104E20002A4608311CF036FE3168334BDFF8E8E0E3
:104E30002B604FF0FF33C5F8E4E1C5F8E831C5F861
:104E4000EC312A4601312B481CF024FE31682948F8
:104E500007312A461CF01EFE99F800303E68D8F84B
:104E6000009003EB460621464FF40072284626F0D8
:104E70009DF8324649461F481CF0E4FF36B1013424
:104E800018491C481CF000FFA642F8D119481DF033
:104E90003BF84FF400720021124826F087F8174BB8
:104EA000D8F800102B600F4A12486FF070436B6007
:104EB000AB601CF0EFFDD8F800103B68094A0D48C4
:104EC000194403B0BDE8F04F1CF0E4BD13460BE7F6
:104ED0003029FF1F441EFF1F8C20FF1F0004FB0012
:104EE0005B1EFF1F741EFF1F5529FF1F5A1EFF1F49
:104EF0002408FF1F6C27FF1F52526141F8FFFF0F6C
:104F00002B29FF1F4421FF1F3828FF1FE822FF1F06
:104F1000F022FF1F3408FF1F727241613D4B3E4972
:104F20003E4810B54FF410724FF480740C601A6054
:104F30001CF0F2FC3A4A3B4B106000F2FF70C0F3E9
:104F4000CF201028188015D8374C3848384A02230B
:104F50002021237003701170364B1B78DBB1FFF7F3
:104F600085FE2D492B4B4FF410704FF48072086072
:104F70001A6010BD20282C4B10D804221A70202251
:104F80002B4B90421A7015D8284B04221A70294BCB
:104F90001B78002BE3D1FFF753FDE2E7402815D93A
:104FA00080281FD810221A70B0F5807FE7D9204BD7
:104FB0003F221A7080281D4B05D9B0F5FC7F08D818
:104FC00010221A70C8E708221A70C5E708221A7062
:104FD000EAE7B0F57C7F12D9B0F5FC6F12D8402219
:104FE0001A70B9E7B0F5806F02D820221A70DBE79B
:104FF000B0F5004F94BF402280221A70D4E72022DF
:105000001A70A9E7B0F57C6F94BF8022FF221A7056
:10501000A2E700BF04C0044014B004406C27FF1F87
:105020003029FF1FDC22FF1F2B29FF1F5A1EFF1FE5
:105030005529FF1F3C21FF1FF0B41C4B1C4C1D4881
:105040001D494FF400121A602260026822F4802287
:1050500002604FF000674FF080564FF000554FF060
:1050600080444FF000421F601E601D601C601A608B
:105070000B68114A1806FBD41368590603D5136848
:1050800043F0400313600D4B1A68120603D51A68EB
:1050900042F080021A600A480A490B4AA0240470B0
:1050A00000230B60F0BC1360704700BF84E100E098
:1050B00084E200E03480044024B00B4000B00B4098
:1050C00000400640448004404880044008B5002069
:1050D0001DF0C0FFAE2800D008BD002108461DF01D
:1050E000D3FF72B6FFF7A8FF48F68000C0F20300B6
:1050F000D0F800D0D0F804F008BD00BF38B5094D95
:10510000094C2888000A20F09BF8287820F098F8AD
:105110002088000A20F094F82078BDE8384020F07C
:105120008FB800BF2229FF1F2829FF1F2DE9F0415A
:10513000164B1B78012B17D0B0B9154E804608F5D9
:10514000A077444633681D5B280A20F079F80434C0
:10515000E8B220F075F8BC42F4D108F52078B8F533
:10516000164FECD1BDE8F081094E00243368185B7E
:10517000000A20F065F83368185D023420F060F80A
:10518000B4F5164FF2D1BDE8F08100BFC528FF1F6E
:105190003C1EFF1F38B5124B1C7814B1114B1C7804
:1051A00074B9114D2B68185B000A20F049F82B6880
:1051B000185D023420F044F8B4F5164FF2D138BD32
:1051C0000A4D00242B68185B000A20F039F82B6880
:1051D000185D023420F034F8B4F5163FF2D138BD32
:1051E0003C21FF1FA020FF1F3C1EFF1F481EFF1F6A
:1051F00008B5194B1878032808BF002020F020F8C4
:10520000164B187820F01CF8154B187820F018F879
:10521000144B187820F014F8134B187820F010F87D
:10522000124B187820F00CF8114B187820F008F881
:10523000104B187820F004F80F4B187820F000F885
:105240000E4B187818B10E4B187880F00100BDE8AD
:1052500008401FF0F5BF00BFC528FF1F0A29FF1F28
:10526000C628FF1F552BFF1F3E21FF1F6C29FF1F64
:10527000591EFF1F3A28FF1F7129FF1F511EFF1FD4
:105280002A21FF1F10B50F4C82B020781FF0D8FFE5
:10529000237823B100201FF0D3FF02B010BD0A4BCA
:1052A0000A4A1B680193019B126809489B1AA0FBDC
:1052B00003308009C0F11E00C0B21FF0C1FF02B070
:1052C00010BD00BF5B28FF1F042CFF1FE422FF1F3F
:1052D000D34D621070B5164B82B01B688DF8043048
:1052E000190A1A0C01AC1B0E8DF805108DF806205A
:1052F0008DF80730254602AE15F8010B1FF0A0FF10
:10530000B542F9D10B4B1B688DF80430190A1A0C01
:105310001B0E8DF805108DF806208DF8073014F857
:10532000010B1FF08DFFB442F9D102B070BD00BF78
:105330003428FF1F3021FF1F30B50C4B83B01B6892
:105340008DF80430190A1A0C1B0E8DF805108DF813
:1053500006208DF8073001AC02AD14F8010B1FF0E8
:105360006FFFAC42F9D103B030BD00BF4021FF1F39
:105370002DE9F041664CA2B023680293029D1FF014
:105380005FFE30B923680393039B5B1BB3F57A7F01
:10539000F5D31FF055FE002835D006A878225D49C8
:1053A00020F094F9042306A91AA8002220F058FC42
:1053B0000A2240F2E1711EA820F0B0FA1EA91AA834
:1053C00020F01EFC014616A820F06AFA12A900235C
:1053D000052216A820F02AFC12A825F07FF9044621
:1053E00016A820F0D9FA1EA820F0D6FA1AA820F0A4
:1053F000D3FA74B974201FF023FF06A820F0CCFA6A
:1054000022B0BDE8F08174201FF01AFF22B0BDE881
:10541000F0810AA806A90D230B2220F021FC1EA969
:105420000AA80023052220F001FC1EA825F056F949
:1054300006A9044610230EA80E2220F011FC1EA976
:105440000EA80023052220F0F1FB1EA825F046F946
:1054500006A90546132312A8112220F001FC1EA95B
:105460000023052212A820F0E1FB1EA825F036F942
:1054700006A906460A2316A8082220F0F1FB1EA959
:105480000023052216A820F0D1FB1EA825F026F93E
:1054900006A9074607231AA8052220F0E1FB1EA94A
:1054A000002305221AA820F0C1FB1EA825F016F93A
:1054B00006A9804604231EA8002220F0D1FB04A9DF
:1054C000002305221EA820F0B1FB04A825F006F950
:1054D0003B46324629460190CDF8008020461DF01B
:1054E0000BFA1EA820F058FA1AA820F055FA16A8B0
:1054F00020F052FA12A820F04FFA0EA820F04CFA31
:105500000AA820F049FA1DF02DF91EF0C5F871E740
:10551000042CFF1FAC2DFF1F70B50D4CA51C04F50E
:10552000C07635F8020C000A1FF08AFE15F8020C4E
:105530001FF086FE6088000A1FF082FE043414F813
:10554000020C1FF07DFEB44205F10405E9D170BDE7
:105550005C21FF1F08B51FF073FD002810DD1FF050
:1055600033FDC0B201280BD878B1094B01221A7063
:105570000022084B82201A70BDE808401FF060BE70
:105580000020BDE808401FF05BBE0122F1E700BF2C
:10559000511EFF1F2A21FF1F08B51FF051FD0028D3
:1055A00004DD1FF011FDC1B2012904D90020BDE8BE
:1055B00008401FF045BE064B01F0010265201A703D
:1055C0001DF062FD8520BDE808401FF039BE00BF18
:1055D000552BFF1F08B51FF033FD002804DD1FF019
:1055E000F3FCC1B2012904D90020BDE808401FF036
:1055F00027BE064B01F0010269201A701DF044FD20
:105600008620BDE808401FF01BBE00BF3E21FF1FE3
:1056100008B51FF015FD002804DD1FF0D5FCC1B250
:10562000012904D90020BDE808401FF009BE064B3F
:1056300001F001026A201A701DF026FD8720BDE8E6
:1056400008401FF0FDBD00BF6C29FF1F08B51FF00B
:10565000F7FC002804DD1FF0B7FCC3B2032B04D90C
:105660000020BDE808401FF0EBBD054A19467F2029
:1056700013701DF009FD8820BDE808401FF0E0BD53
:10568000591EFF1F08B51FF0DBFC002804DD1FF0CA
:105690009BFCC3B2022B04D90020BDE808401FF0D8
:1056A000CFBD054A1946732013701DF0EDFC7A201A
:1056B000BDE808401FF0C4BD7129FF1F034B1878D7
:1056C00008B1034B18781FF0BBBD00BF3C21FF1F82
:1056D000A020FF1F2DE9F0411FF0B2FCB0F5C07F04
:1056E00024DB154D4FF6FF7705F5C0764FF0000827
:1056F0001FF06AFC04461FF067FC00EB042080B238
:10570000B84214BF25F8020C25F8028C1FF05CFC8F
:1057100004461FF059FC00EB042025F8040BB542A9
:10572000E6D18920BDE8F0411FF08ABD0020BDE828
:10573000F0411FF085BD00BF5E21FF1F70B51C4DFD
:1057400086B02B6802930A20029E1EF045F92A6853
:10575000184B0192019C1B78A41BFBB106E0B4F529
:105760007A7F07DC2B680393039CA41BFCF708F8E3
:105770000028F4D12B680593059B9B1BB3F57A7F1A
:1057800012DA0D4BB52200201A7006B070BDB4F5C8
:105790007A7FEFDC2B680493049CA41B05201EF089
:1057A000ADF80028E6D1F2E7012006B070BD00BFD9
:1057B000042CFF1F3429FF1F3008FF1FF8B5992064
:1057C0002DED028B1DF046FC431EDBB2022B13D9DC
:1057D0005749584F584E594D59485A4A00234FF08F
:1057E0007C540B704FF07E513B7033702B70046013
:1057F0001160BDEC028BF8BD01283FD17E201DF069
:1058000029FCC828E4D17C201DF024FC484B9FEDE6
:105810004E8A187079201DF01DFC474B18707A20B5
:105820001DF018FC454B18707B201DF013FC414BFC
:1058300018707D201DF00EFC07EE900AB8EEE77A96
:105840003F4BC7EE087AA520C3ED007A1DF002FC9D
:1058500007EE900AB8EEE77A3A4BC7EE087A9FED6A
:105860003B7AC3ED007AF4EEC77AF1EE10FA2ED54A
:10587000BDEC028B4FF07E521A60F8BD02282ED08C
:1058800098201DF0E7FBC828A2D194201DF0E2FB70
:10589000274B9FED2D8A187091201DF0DBFB264BC6
:1058A000187092201DF0D6FB244B187093201DF029
:1058B000D1FB204B187095201DF0CCFB07EE900A11
:1058C000B8EEE77A1E4BC7EE087AA720BCE7B7EE22
:1058D000007AF4EEC77AF1EE10FAC9DC89E790207D
:1058E0001DF0B8FBC8287FF473AF8E201DF0B2FB0B
:1058F0000F4B9FED158A18708B201DF0ABFB0E4BE4
:1059000018708C201DF0A6FB0C4B18708D201DF01C
:10591000A1FB084B18708F201DF09CFB07EE900A2E
:10592000B8EEE77A064BC7EE087AA6208CE700BFF0
:10593000691EFF1F0829FF1F5429FF1F3C29FF1F55
:10594000641EFF1F7820FF1F0000C8423333333F1F
:1059500000B5832083B01DF07DFB8DF8040084200A
:105960001DF078FB8DF8050085201DF073FB8DF888
:10597000060086201DF06EFB8DF80700019A024B91
:105980001A6003B05DF804FB3021FF1F10B56520DD
:105990001DF060FB724A012894BF00F00103002350
:1059A000662013701DF056FB6E4B122894BF024602
:1059B0000D2267201A701DF04DFB6B4A012894BF21
:1059C00000F001030023682013701DF043FB012841
:1059D00040F2B9800023654A6B2013701DF03AFB3A
:1059E000634A012894BF00F0010300236C20137068
:1059F0001DF030FB5F4A012894BF00F00103002333
:105A00006D2013701DF026FB5B4A012894BF00F047
:105A1000010300236F2013701DF01CFB574A01285F
:105A200094BF00F001030023692013701DF012FBE6
:105A300001287FD90023524A732013701DF00AFBFE
:105A4000034610B1022818BF01234E4A6A20137082
:105A50001DF000FB4C4A012894BF00F00103012314
:105A6000712013701DF0F6FA0228034659D8474AF0
:105A7000127812F0040F08BF0023454A72201370F9
:105A80001DF0E8FA0428034640D9424B0024872041
:105A90001C701DF0DFFA022845D83F4B187078B112
:105AA00089201DF0D7FA044688201DF0D3FA3B4B1D
:105AB00000EB04248A201C801DF0CCFA384B1870AF
:105AC00082201DF0C7FA374B1B78032B2ED0C82835
:105AD00043D0354B354A1A607F201DF0BBFA344A5B
