:10000000000003205171020039710200F1700200FA
:10001000F1700200F1700200F1700200F170020054
:10002000F1700200F1700200F170020039710200FB
:1000300039710200F1700200C9AE020041B1020044
:100040003971020039710200397102003971020000
:1000500039710200397102003971020039710200F0
:1000600039710200397102003971020039710200E0
:1000700039710200397102003971020039710200D0
:1000800039710200397102003971020039710200C0
:1000900039710200397102003971020039710200B0
:1000A00099F7010065FD0100397102003971020004
:1000B000397102003971020039710200458702006E
:1000C0003971020031A70200397102008DA80200C7
:1000D00039710200BDA902003971020039710200B4
:1000E0003971020039710200397102003971020060
:1000F0003971020039710200397102003971020050
:10010000397102003971020039710200397102003F
:1001100039710200518A02003971020039710200FE
:10012000397102003971020039710200397102001F
:10013000397102003971020039710200397102000F
:100140003971020039710200EDAA02003971020012
:1001500039710200397102003971020039710200EF
:1001600039710200397102008D03020039710200F9
:1001700039710200397102003971020039710200CF
:1001800039710200397102003971020039710200BF
:1001900039710200397102001DAC02003971020090
:1001A000397102003971020039710200B50902008B
:1001B000397102003971020039710200397102008F
:1001C000397102003971020039710200397102007F
:1001D000FFFFFFFFFFFFFFFFFFFFFFFFFFFFFFFF2F
:1001E000FFFFFFFFFFFFFFFFFFFFFFFFFFFFFFFF1F
:10040000FFFFFFFFFFFFFFFFFFFFFFFFDEF9FFFF23
:1004100010B5054C237833B9044B13B10448AFF33E
:1004200000800123237010BD501EFF1F000000003C
:1004300084350400084B10B51BB108490848AFF3D8
:1004400000800848036803B910BD074B002BFBD0A0
:10045000BDE81040184700BF00000000541EFF1FF9
:1004600084350400501EFF1F00000000002070476C
:100470002DE9F04F9088D58885B0A84202916ED8BA
:1004800042F68C1142F67413C1F6FF71C1F6FF7388
:100490000F781E7841F6996142F64013C1F6FF715C
:1004A000C1F6FF73C7EB87781B7891F800B0C7EBF4
:1004B000880841F6856C41F6786406EB860608EB01
:1004C0000601C1F6FF7CC1F6FF744FF4C8694FF610
:1004D000C01E09FB0B19CFF6FF7EC3EB83779CF898
:1004E0000010D4F800A003910EFB0399C3EB87031F
:1004F00001930021052313FB0B03EF2B2BDC019B46
:10050000D84228D413885488A34224D8039D00EBF2
:10051000800C4FEA8C1C35BB029D05EB41059F19F1
:10052000B7F5A07F0EDA13EB080F03EB0C0709D425
:100530002C884F441CB94FF001042C8001242AF868
:100540001740548801339BB29C4201F1010105F12F
:100550000205E4D2D588013080B2A842CAD9012070
:1005600005B0BDE8F08F029D05EB410503EB060EDB
:10057000BEF5A07F03F1010701F1010111DA13EBD0
:10058000080F63440DD44B442C88AAEB430303F5B6
:1005900015331CB94FF001042C800124A3F8FE434D
:1005A0005488BBB2A34205F10205DFD9D2E700BFF0
:1005B0002DE9F04F89B0B2F804E00191D1888E4561
:1005C00000F2B08042F68C13C1F6FF7342F6741449
:1005D00041F69960C1F6FF74C1F6FF701B78007890
:1005E00094F800800390924642F64012C1F6FF72E2
:1005F000C3EB8335044608EB880B1078C3EB850208
:100600000BEB020542F6923242F66219C1F6FF7216
:10061000C1F6FF7941F68567C1F6FF77127804923B
:1006200041F66C6699F80020029204EB840C0EEB04
:100630008E0BC0EBC004C1F6FF763A78009205EB52
:100640004B1B0CEB8C0C04EB04140BEB4C1B3268B7
:10065000079204EB041C41F69465C0EB8074C0EB78
:100660008402C1F6FF750BEB4C1C0692C3EB837B37
:10067000D5ED004A049A1FFA8CFCC3EB8B0B4FF0AC
:1006800005090027B7EE004ABDF80C00052313FB4F
:1006900000E3772B3CDC069B1EEB030F38D4BAF843
:1006A0000030BAF802509D4232D30137CDF814E041
:1006B000BFB2DDF81CE021E0C3F19F01C9B219FB14
:1006C00008149F2C13DC11EB0B0F10D4029C614417
:1006D000022C89B2019C2ED034F81040009828B327
:1006E000C1F595417F312EF81140BAF8025001331F
:1006F0009BB2791C9D4289B206D30F46781E80B208
:10070000002AD9D0D9B2DAE7DDF814E0BAF8061039
:100710000EF1010E1FFA8EFE0CF1A00C8E451FFA91
:100720008CFCB1D9012009B0BDE8F08F2EF8114042
:10073000BAF80250DBE734F810000412C51004F0D8
:10074000F80407EE904A05F0FC0406EE904A009C7F
:10075000C000002C4AD0C1F595467F363EF81640C1
:10076000E51005F0FC0507EE105AF8EEE66AC0B297
:10077000F8EEC75A34EE646A07EE100A66EEA46A11
:10078000E000C0B22512E6EE256A05F0F80405EE99
:10079000900AB8EEC77AB8EEE55AF8EEE77A05EEB9
:1007A000904A27EE247AF8EEE55A67EEA47AA6EE90
:1007B000057AE5EE867AFCEEE66ABCEEC77ACDED08
:1007C000046AFCEEE77A9DF8106017EE105A17EEF7
:1007D000900AF40004F0E004C5F3C40500F0F8004A
:1007E0002C4340EA561044EA002477E73EF81140D3
:1007F000B6E700BF083022F067BB00BF00B583B08A
:1008000002AB012203F8011D0830194622F05CFBFF
:1008100003B05DF804FB00BF38B5856FAC88EB888A
:10082000E41A944228BF144631B10846296822468A
:10083000194426F031F9EB882344EB80204638BD7B
:10084000F8B50E46074625F0AFFF054625F094FFA4
:10085000044625F079FF6401C0B204F4FF54ADB240
:10086000A5F2BC75044344EA45243C8025F024FFEE
:10087000054625F039FF044625F04EFFED026401E0
:1008800005F4FF2504F4FF542C43C0F34600044351
:100890003480F8BD00F58C6024F0EEBE2DE9F04107
:1008A00041F6B063C1F6FF7342F698151B7884B029
:1008B000C1F6FF750BB92B78FBB12A7842F6981375
:1008C000022AC1F6FF7355D01A78032A02D004B069
:1008D000BDE8F08101221A7041F6D860C1F6FF70C0
:1008E0001EF052FE41F6D860C1F6FF701EF088FE81
:1008F0000028F1D104B0BDE8F08142F22313C1F623
:10090000FF731B78002BD8D141F67068C1F6FF78D1
:1009100098F80030002BD0D141F68063C1F6FF7308
:100920001B78002BC9D142F64046C1F6FF760A205B
:1009300033680293029F27F0BFFA33680193019C4A
:10094000E41B41F6D860C1F6FF701EF01DFE41F6B3
:10095000D860C1F6FF701EF053FE18B3B4F57A7F6D
:100960001BDD01232B702A7842F69813022AC1F668
:10097000FF73A9D103221A7041F6D860C1F6FF7047
:100980001EF002FE41F6D860C1F6FF701EF038FE80
:100990000028F1D104B0BDE8F08133680393039CD3
:1009A000E41BCEE7B4F57A7FDBDA022388F8003067
:1009B00083E700BF27F032B800F58C6025F050BA0D
:1009C00000F58C6024F012BB00F58C6024F054BA62
:1009D000083022F029BA00BF2DE9F04F2DED028B2F
:1009E0004FF0000A8FB04FF0000BCDE904ABCDE91A
:1009F00002ABCDE900AB01F5C8730C46D046D94631
:100A00000992851E069335F8026F30462CF066F881
:100A100002460B46404649462BF014FF80463046BE
:100A200089462CF04BF802460B462CF0BDF80246E6
:100A30000B46DDE900012BF005FF07EE906AB4ECF0
:100A4000018AF8EEE77ACDE9000167EE887A17EEC1
:100A5000900A2CF055F802460B46DDE902012BF016
:100A6000F1FECDE9020118EE100A2CF049F8064615
:100A70000F4602460B46DDE904012BF0E3FE324649
:100A8000CDE904013B46304639462CF08DF80B4643
:100A90000246594650462BF0D5FE069BA34282469D
:100AA0008B46B0D142464B46404649462CF07CF836
:100AB000002304460D460022C4F25903DDE900017B
:100AC0002CF072F822462B462BF0BAFE00220023AF
:100AD000CDE906012CF0D0FA0646002840F08C80C3
:100AE000DDE90423404649462CF05EF80023CDE9B9
:100AF0000A010022C4F25903DDE902012CF054F886
:100B0000DDE90A232BF09CFEDDE906232CF076F9C3
:100B10002CF022FB41F67871C1F6FF71DDE9042368
:100B20000860DDE900012CF03FF8DDE90223CDE9A2
:100B30000C01404649462CF037F802460B46DDE9E9
:100B40000C012BF07DFEDDE906232CF057F92CF08B
:100B500003FB42F27C63C1F6FF73099F1860002F0C
:100B60005ED0DDE90423104619462CF01DF8002361
:100B70000022C4F259032CF041F902460B465046BC
:100B800059462BF05DFE0023804689460022C4F2C0
:100B90005903204629462CF031F902460B46DDE97F
:100BA00000012BF04DFE02460B46404649462BF015
:100BB000FBFF41EC100B2AF097FB0023DDE90A0153
:100BC0000022C4F259038DED000B2CF017F90246F8
:100BD0000B46DDE902012BF033FEDDE900341A4655
:100BE00023462CF00BF92CF0B7FA386030460FB0E2
:100BF000BDEC028BBDE8F08F42F27C62C1F6FF7261
:100C0000002341F678711360C1F6FF710126099A3D
:100C10000B60304613600FB0BDEC028BBDE8F08F67
:100C20003E4630460FB0BDEC028BBDE8F08F00BFF2
:100C300070B502788AB000232F2A8DF804308DF821
:100C4000053021D042F290510246012301A8C1F69D
:100C5000FF7121F003FE064678B19DF8043013F0D1
:100C600070030DD001AC0FCC42F29055C1F6FF7568
:100C70000FC50FCC0FC523682B6030460AB070BD7E
:100C80001E4630460AB070BD4378002BDAD142F2DE
:100C90009050C1F6FF7021F097FC42F25411C1F65A
:100CA000FF7101F23C4021F059FE064630460AB081
:100CB00070BD00BF10B542F66C13C1F6FF7382B071
:100CC0001B78002B60D141F6B461C1F6FF71684614
:100CD0001DF09AFABDF80020BDF80200A2F10A0347
:100CE0009BB2822B0BD8A0F10A01462907D842F605
:100CF0005913C1F6FF7301221A7002B010BDA2F1A0
:100D0000B40189B282290FD9822B1AD98D3A262AA9
:100D1000F3D851384E28F0D842F65913C1F6FF7374
:100D200007221A7002B010BDA0F1A004462C06D80C
:100D300042F65913C1F6FF7305221A70DDE7822BC4
:100D400037D859280FD996280DD842F27464C1F6C5
:100D5000FF742468012C1FD042F65913C1F6FF73AB
:100D600003221A70C9E7822903D8A0F10A03462B8F
:100D700018D9A0F1A003462BC8D842F65913C1F6E2
:100D8000FF7306221A70B8E742F67C11C1F6FF71B4
:100D900068461DF01FF99DE78229EAD8A0F10A01F3
:100DA000462918D842F65913C1F6FF7302221A7069
:100DB000A3E7A0F15A013C2910D842F27461C1F6B0
:100DC000FF7109680129E9D042F65913C1F6FF7392
:100DD00004221A7091E7822BCBD997E7A0F10A037E
:100DE000462BDFD992E700BF10B582B028F04EFD48
:100DF000C0B27F284DD00CDD8A282FD08D281FD07F
:100E0000812802D1F32028F099FE28F0CBFE02B011
:100E100010BD71282DD07C2807D06428F5D128F08A
:100E20008DFE28F0BFFE02B010BD41F69863C1F6FA
:100E3000FF73187828F082FE28F0B4FE02B010BDCF
:100E400041F68473C1F6FF731B78DBB141F6E863AA
:100E5000C1F6FF73187828F071FED6E741F6847367
:100E6000C1F6FF73187828F069FE28F09BFE02B0E7
:100E700010BD42F69304C1F6FF74207828F05EFEA0
:100E800023788BB1002028F059FE28F08BFE02B0A9
:100E900010BD40F65103C1F6FF73187828F04EFEDE
:100EA00028F080FE02B010BD42F64043C1F6FF7349
:100EB00042F228121B680193C1F6FF72019B12686F
:100EC00044F6D3509B1AC1F26200A0FB03308009A4
:100ED000C0F11E00C0B228F031FE96E7F0B5002A3E
:100EE0004FF4074E42F6D247C0F2040714BF4FF04A
:100EF00060554FF06455C0F2933E002602E0172C77
:100F000008D0264637F8022F9EFBF2F2914206F1F6
:100F10000104F4D31A0701D545F0806542F6045266
:100F2000C0F204025B0752F8262007D5130903F428
:100F3000706322F4704245F000751A431543056052
:100F4000F0BD00BF30B442F61443C1F6FF731A7807
:100F5000002A3DD072B61B78DC0710D54EF2801106
:100F600042F6F434CEF20001C1F6FF740D68226837
:100F700042F60444C1F6FF742A4022600A609907D1
:100F800010D54EF2841142F6F434CEF20001C1F6CF
:100F9000FF740D68626842F60444C1F6FF742A408B
:100FA00062600A605A0710D54EF2881142F6F43496
:100FB000CEF20001C1F6FF740D68A26842F6044447
:100FC000C1F6FF742A40A2600A601B0716D462B6FD
:100FD0004FF44043C4F20203DA6882420CD044F278
:100FE00001010022C0F21F0140F08044C8F21F023C
:100FF0001960D8601C611A6030BC70474EF28C12C8
:1010000042F6F431CEF20002C1F6FF711468CB68EB
:1010100042F60441C1F6FF712340CB601360D6E76E
:1010200042F61443C1F6FF731B787BB3D80709D58A
:1010300042F60442C1F6FF724FF46141CEF2000164
:1010400012680A60990709D542F60442C1F6FF7298
:101050004EF20411CEF2000152680A605A0709D517
:1010600042F60442C1F6FF724EF20811CEF20001C0
:1010700092680A601B0709D542F60443C1F6FF7364
:101080004EF20C12CEF20002DB681360704700BF14
:10109000F0B54BF2140E4CF20407C4F2040E4CF2FD
:1010A0000C064BF21C03C4F204074FF48072C4F226
:1010B0000403C4F204060C464FF41071CEF800206D
:1010C00083B0396005464FF410614FF40070306012
:1010D000C0F23D011A6001A800230122FFF7FEFEC5
:1010E0000198FFF72FFF4FF288024FF44043C4F2FC
:1010F0000203C4F20F021021EDB24FF00040116064
:10110000D86219465D63CA6A4FF44043002AC4F2AC
:101110000203F8DAE4B24FF00042996BDA62184643
:101120005C63C26A4FF44043002AC4F20203F8DA57
:101130004FF28402C4F20F0210219B6B1160FFF783
:101140006FFF4CF20C044BF21C004BF214014CF2FA
:101150000403C4F20404C4F20400C4F20401C4F29F
:1011600004034FF480724FF400764FF41075226040
:1011700006600D601A6003B0F0BD00BF2DE9F041BC
:101180004BF21401C4F204014CF204064CF20C03BD
:101190004BF21C02C4F20403C4F204024FF4807543
:1011A000C4F204060D6082B04FF4107E4FF4007755
:1011B0004FF41061C6F800E0C0F23D011F60044624
:1011C0000023156001A80122FFF788FE0198FFF7B0
:1011D000B9FE4FF288024FF44043C4F20203C4F256
:1011E0000F021021E4B24FF000401160D86219469E
:1011F0005C63CA6A4FF44043002AC4F20203F8DA7F
:101200004FF000410022986BD96219465A63CA6AAE
:101210004FF44043002AC4F20203F8DA4FF284028A
:10122000C4F20F021021D3F838801160FFF7F8FEE6
:101230004CF20C054BF21C044BF214014CF204036B
:10124000C4F20405C4F20404C4F20401C4F20403A9
:101250004FF480724FF400774FF410765FFA88F005
:101260002A6027600E601A6002B0BDE8F08100BFFE
:1012700008B501218420FFF70BFF01218420FFF72F
:1012800007FF02218420BDE80840FFF701BF00BF2F
:101290002DE9F84F9DF8284080460D4691461E46A0
:1012A000002C73D142F6A514C1F6FF74002341F25D
:1012B000E03042F641171A465621C1F6FF70C1F6DA
:1012C000FF7728F025FE002341F2E0301A463978F6
:1012D000C1F6FF7028F01CFE002341F2E0301A46F0
:1012E000C1F6FF70414628F013FEB9F1000F10D08F
:1012F00009F1FF3955FA89F9013D002315F8011F5D
:1013000041F2E0301A46C1F6FF7028F001FEA9450F
:10131000F3D1002242F6980A134622709146C1F694
:10132000FF7A09E025786B1C237027F087F90AF80B
:1013300005004FF0000923789E4213D027F06CF986
:101340000028EFDC09F1010901205FFA89F926F094
:10135000B3FDB9F1C80FEED12378B34202D000201B
:10136000BDE8F88F42F69803C1F6FF731A78762A23
:10137000F5D13A7859789142F1D19A784245EED137
:10138000D878B0FA80F04009BDE8F88F42F6A5148D
:10139000C1F6FF74002742F6980B2770C1F6FF7B59
:1013A0000DE094F800A00AF10103237027F046F93C
:1013B0000BF80A0000272378642B3FF477AF27F05F
:1013C0002BF90028EDDC01370120FFB226F074FD77
:1013D0000A2FF0D16AE700BF30B585B004A942F604
:1013E000A61400250123C1F6FF74ADF80C500222AB
:1013F00001F8043D3620009305232580FFF748FFC0
:1014000005B030BD2DE9F04F4CF20C0387B04FF41E
:1014100040444BF21C054CF20406C4F20204C4F230
:101420000403C4F20405C4F2040682468B469046C7
:10143000A1460193029503961D464BF214024FF408
:1014400000732B60C4F20402029B4FF4807018609A
:101450001060039805464FF410614FF41070C0F20D
:101460003D0100230122286005A8FFF737FD0598FC
:10147000FFF768FD4FF28803C4F20F0310204FF00E
:1014800000413C221860E1626263E36A002BFCDAEF
:1014900041F6B063C1F6FF7300271D46D8F800304F
:1014A000D9F83820394699424FF0FF061CD22B78E4
:1014B000012B00F091804FF000420023E262636351
:1014C000E36A002BFCDAD9F83830DBB2002F5ED0AB
:1014D0000AF801300131142967D0D92B2CD01E46CF
:1014E000D8F800309942E2D34FF28403C4F20F03DC
:1014F00010221A60FFF794FD01994FF480730B607E
:1015000002994BF214020846C4F204024FF400712F
:1015100001604FF410711160039A1360BBF1000F6A
:1015200032D041F68473C1F6FF731B78012B78D05B
:10153000FFF752FF019B7FE7FF2ED0D14FF28403CC
:10154000C4F20F03102200914CF20C051A60FFF751
:1015500067FDC4F204054BF21C044BF214004CF27C
:1015600004034FF48072C4F20404C4F20400C4F211
:1015700004032A604FF400764FF41075009926603A
:1015800005601A60C8F8001007B0BDE8F08FD82BCE
:10159000A1D1FF2E9FD1FF21D8228AF800108AF80E
:1015A0000120012702211E469AE7BBF1000F94D1CA
:1015B00041F68562C1F6FF721278002A8DD046F698
:1015C000AC71C0F2030164220AF11400009325F00B
:1015D00063FA7821009B80E74FF28403C4F20F0383
:1015E00010221A60FFF71CFD4CF20C044BF21C0099
:1015F0004BF214014CF20403C4F20404C4F20400DC
:10160000C4F20401C4F204034FF480724FF4007674
:101610004FF41075226006600D601A6007B0BDE8D7
:10162000F08FFFF725FE019B06E700BF70B542F281
:10163000841684B043F2D400C0F2030626F094FC72
:101640000F2026F039FC01243068029002A90523FE
:10165000042200942420FFF71BFE41F2470026F0ED
:1016600083FC0F2026F028FC42F6A610C1F6FF707E
:101670000025009402A90580052302223620ADF83A
:1016800008508DF80840FFF703FE30BB0546642084
:1016900026F012FC0523224602A9009426208DF88C
:1016A0000850FFF7F5FD43F2D40026F05DFC0F2053
:1016B00026F002FC306802900523042202A900945F
:1016C0002420FFF7E5FD41F2470026F04DFC0F20F6
:1016D00026F0F2FBFFF780FE30B30124052512212E
:1016E00004202B4606228DF80B108DF80C0002A961
:1016F00000945F2631208DF808508DF809408DF850
:101700000A408DF80D60FFF7C3FD42F28012C0F26F
:10171000030200941288ADF808202B4602A9022289
:101720003620FFF7B5FD204604B070BDF0B585B09A
:10173000012405254FF0190E8DF80D00002702A990
:101740002B4604260094062231208DF80CE00297E7
:101750008DF808508DF80A408DF80960FFF798FD64
:101760002B46224602A9009426208DF80870FFF728
:101770008FFD4FF4967026F09FFB43F2D40026F0C5
:10178000F3FB0F2026F098FB42F28413C0F2030310
:101790003246186802902B4602A900942420FFF7D5
:1017A00077FD41F2470026F0DFFB0F2026F084FB97
:1017B00005B0F0BDF0B542F67C1083B0C1F6FF7005
:1017C00080211CF079FC38B142F66C13C1F6FF732E
:1017D00001221A7003B0F0BD044641F6B460C1F6B0
:1017E000FF701CF0F7FC42F66C13C1F6FF7341F674
:1017F000B461C1F6FF7168461C701CF005FD0A203B
:10180000BDF90060BDF9027026F056FB052026F0F8
:10181000E1FA0A240125052026F0DCFA00284FF021
:101820000A0008BF002526F047FB013CF3D141F632
:101830008563C1F6FF731B7883B92346B34213D087
:10184000BC4201D0002DC5D040F65103C1F6FF7354
:101850001A7822F008021A7003B0F0BD4FF4A0739A
:10186000B3424FF0F004EBD1BC42EDD1002DB1D129
:10187000EAE700BF08B542F66C13C1F6FF731B78A8
:101880006BB142F67C10C1F6FF701CF0DFFB28B193
:1018900042F68803C1F6FF7301221A7008BD41F6B3
:1018A000B460C1F6FF701CF02BFFF0E72DE9F041AA
:1018B00041F6B065C1F6FF7586B02B78002B4DD18F
:1018C00042F69813C1F6FF731B78002B46D142F203
:1018D0002316C1F6FF763378002B3FD141F67063B3
:1018E000C1F6FF731B78002B38D141F68063C1F637
:1018F000FF731B7893BB42F64048C1F6FF780A207D
:10190000D8F800300493049F26F0D6FA42F66C1300
:10191000D8F800200592C1F6FF73059C1B78E41BE4
:1019200043B926E0B4F57A7F08DCD8F80030039399
:10193000039CE41BFFF79EFF0028F3D1D8F800308A
:101940000193019BDB1BB3F57A7F18DA2A7841F605
:10195000B063C1F6FF730AB901221A7006B0BDE880
:10196000F081B4F57A7FE9DCD8F800300293029C6C
:10197000E41B052026F02EFA0028DFD1F1E742F61D
:101980006213C1F6FF731B78012BE7D0012333707C
:1019900006B0BDE8F08100BF10B442F69033C1F646
:1019A000FF734FF440421B78C4F2020240EA034046
:1019B00040F00063114610685363144602E012F0D1
:1019C000F00F17D1CA6A4FF4404312F0805FC4F29F
:1019D0000203F4D04FF08052DA621860DA6A12F033
:1019E000F00F04D09A6BDA6A12F0F00FFAD15DF8BA
:1019F000044B7047A36BE5E710B441F69C63C1F656
:101A0000FF734FF440421B78C4F2020240EA0340E5
:101A100040F00063114610685363144602E012F070
:101A2000F00F17D1CA6A4FF4404312F0805FC4F23E
:101A30000203F4D04FF08052DA621860DA6A12F0D2
:101A4000F00F04D09A6BDA6A12F0F00FFAD15DF859
:101A5000044B7047A36BE5E710B441F69C63C1F6F5
:101A6000FF734FF440421B78C4F2020240EA034085
:101A700040F0C053114610685363144602E012F060
:101A8000F00F17D1CA6A4FF4404312F0805FC4F2DE
:101A90000203F4D04FF08052DA621860DA6A12F072
:101AA000F00F04D09A6BDA6A12F0F00FFAD15DF8F9
:101AB000044B7047A36BE5E7F0B442F69034C1F6EF
:101AC000FF744FF440472678360446F00044C4F2D1
:101AD000020744F02A047C63FC6A04F4704514F0A5
:101AE000F00F18BFBC6BB5F5405FF5D841F69C64AC
:101AF000C1F6FF744FF4404725782D042843C4F203
:101B0000020740F010407863F86A00F4704410F067
:101B1000F00F18BFB86BB4F5405FF5D84FF44044F0
:101B20002A43C4F2020442F010426263E26A02F401
:101B3000704012F0F00F18BFA26BB0F5405FF5D8FF
:101B40004FF4404446F00046C4F2020446F02B062F
:101B50006663E26A02F4704012F0F00F18BFA26BE5
:101B6000B0F5405FF5D84FF440402943C4F202007D
:101B700041F010414163C26A02F4704112F0F00F6B
:101B800018BF826BB1F5405FF5D84FF440412B434D
:101B9000C4F2020143F010434B63CB6A03F470427A
:101BA00013F0F00F18BF8B6BB2F5405FF5D8F0BCA7
:101BB000704700BF38B50D4604464FF03840FFF778
:101BC000C1F9A2B2ABB219461046FFF775FF42F653
:101BD0009033C1F6FF734FF440421B781B0443F06F
:101BE0000043C4F2020243F02C035363D36A03F4AC
:101BF000704113F0F00F18BF936BB1F5405FF5D84B
:101C000042F6641242F66D13C1F6FF72C1F6FF731D
:101C100010781B7843EA0020FFF71EFFFFF700FA59
:101C200038BD00BF8318B3F5A07F70B5C8BFC0F53D
:101C3000A07504464FF03840D8BF15460E46FFF752
:101C400081F9A0B2421EB3B22A4492B21946FFF7FC
:101C500033FF42F69033C1F6FF734FF440421B78D6
:101C60001B0443F00043C4F2020243F02C0353630D
:101C7000D36A03F4704113F0F00F18BF936BB1F502
:101C8000405FF5D842F6641142F66D12C1F6FF715D
:101C9000C1F6FF7241F69C63C1F6FF7312780878B3
:101CA0001B7842EA00202A4640EA03434FF44044AE
:101CB000012A43F01045C4F202040DDD6563E36AB6
:101CC00003F4704113F0F00F18BFA36BB1F5405F40
:101CD000F5D8013A012AF1DCFFF7BEFEFFF7A0F9C3
:101CE00070BD00BF8B1870B5F02B0C4606464FF048
:101CF0003840CCBFC1F1F0051546FFF723F9A1B27A
:101D00004B1EB2B22B449BB21046FFF7D5FE42F6F3
:101D10009033C1F6FF734FF440421B781B0443F02D
:101D20000043C4F2020243F02C035363D36A03F46A
:101D3000704113F0F00F18BF936BB1F5405FF5D809
:101D400042F6641142F66D12C1F6FF71C1F6FF72E0
:101D500041F69C63C1F6FF73127808781B7842EA5B
:101D600000202A4640EA03434FF44044012A43F04E
:101D70001045C4F202040DDD6563E36A03F47041AB
:101D800013F0F00F18BFA36BB1F5405FF5D8013A1F
:101D9000012AF1DCFFF760FEFFF742F970BD00BFDA
:101DA00070B505464FF038400E46FFF7CBF84FF4BC
:101DB0004041C4F202014FF6FF73CA6A013B12F4BC
:101DC000704F9BB201D0002BF7D14FF44043C4F2C7
:101DD00002034FF00042DA621A464FF6FF73D16AEF
:101DE000013B00299BB201DB002BF8D14FF44043AB
:101DF000C4F20203DC6AC4F30314002C44D142F69B
:101E00009032C1F6FF724FF4404310780004C4F2E0
:101E1000020340F0004141F69C6241F0D901C1F655
:101E2000FF725963127828431036150440F00040C1
:101E30002E435E63194658634FF6FF725D63CB6AAB
:101E4000013A13F4704F92B201D0002AF7D14FF447
:101E50004043C4F202034FF00042DA621A464FF6E2
:101E6000FF73D16A013B00299BB201DB002BF8D143
:101E70004FF44043C4F20203DA6A12F0F00F64D167
:101E8000FFF7CEF8204670BD9C6BDA6A12F0F00FB7
:101E9000E4B2B4D09C6BDA6A12F0F00FE4B2AED0C8
:101EA0009C6BDA6A12F0F00FE4B2A8D09C6BDA6A8D
:101EB00012F0F00FE4B2A2D09C6BDA6A12F0F00FCD
:101EC000E4B29CD09C6BDA6A12F0F00FE4B296D0C8
:101ED0009C6BDA6A12F0F00FE4B290D09C6BDA6A75
:101EE00012F0F00FE4B28AD09C6BDB6A13F0F00FB3
:101EF000E4B284D04FF44043C4F202039C6BDA6A2C
:101F000012F0F00FE4B23FF47AAF9C6BDA6A12F091
:101F1000F00FE4B23FF473AF9C6BDA6A12F0F00F8B
:101F2000E4B23FF46CAF9C6BDA6A12F0F00FE4B2EB
:101F30003FF465AF9C6BDA6A12F0F00FE4B23FF445
:101F40005EAF9C6BDB6AE4B259E79C6BDA6A12F015
:101F5000F00FE4B294D09C6BDA6A12F0F00FE4B2A6
:101F60008ED09C6BDA6A12F0F00FE4B288D09C6BD2
:101F7000DA6A12F0F00FE4B282D09C6BDA6A12F0E7
:101F8000F00FE4B23FF47CAF9C6BDA6A12F0F00F12
:101F9000E4B23FF475AF9C6BDA6A12F0F00FE4B272
:101FA0003FF46EAF9C6BDA6A12F0F00FE4B23FF4CC
:101FB00067AF9C6BDB6A13F0F00FE4B23FF460AFE5
:101FC0004FF44043C4F202039C6BDA6A12F0F00F44
:101FD000E4B23FF455AF9C6BDA6A12F0F00FE4B252
:101FE0003FF44EAF9C6BDA6A12F0F00FE4B23FF4AC
:101FF00047AF9C6BDA6A12F0F00FE4B23FF440AFE7
:102000009C6BDA6A12F0F00FE4B23FF439AF9C6BCC
:10201000DB6AE4B234E700BF10B504464FF0384045
:10202000FEF790FF42F69033C1F6FF734FF4404243
:102030001B781B0443F00043C4F2020243F0360352
:102040005363D36A03F4704113F0F00F18BF936B1E
:10205000B1F5405FF5D842F2786304F00300C1F6B1
:10206000FF73022818701DD003280DD0012817D047
:102070004820FFF7C1FC41F67073C1F6FF730122DF
:102080001A70FEF7CDFF10BDE820FFF7B5FC41F652
:102090007073C1F6FF7300221A70FEF7C1FF10BD06
:1020A0002820F2E78820E4E7F8B5152024F0D2F8DC
:1020B00041F69C65C1F6FF7542F690362870062001
:1020C00024F0C8F82B78C1F6FF76034300210F20D7
:1020D0003370FFF765FE04464FF03840FEF732FFDD
:1020E000042796F800E02D7841F2A42C4FF44041EB
:1020F0007E1E4FEA0E4E2D04C0F2040CC4F2020103
:10210000F6B287B39CF8013043EA0E0343F0004374
:102110004B630CF10207CB6A03F4704213F0F00F2B
:1021200018BF8B6BB2F5405FF5D8B31C9C443846A2
:10213000604511D010F8013B2B4343F000434B6343
:10214000CB6A03F4704213F0F00F18BF8B6BB2F53B
:10215000405FF5D86045EDD107EB060CBF5D7E1EF4
:10216000F6B2002FCED11120FFF716FCFEF758FF74
:10217000782025F0A1FE4FF03840FEF7E3FE29203D
:10218000FFF70AFCFEF74CFF41F6687241F68263E6
:10219000C1F6FF72C1F6FF732D201F701760FFF7A5
:1021A0003BFF42F6A813C1F6FF7320461F70F8BD2F
:1021B00030B541F67074C1F6FF74054620780128E9
:1021C00085B011D042F6A810C1F6FF700078C8B1F2
:1021D00042F6001242F60213C1F6FF72C1F6FF7317
:1021E0001580198005B030BDC2F1EF001A46C5F167
:1021F000EF030D46014642F6A810C1F6FF700078C5
:102200000028E5D14FF03840039302920191FEF788
:1022100099FE039B029A01999BB292B289B2A8B22D
:10222000FFF74AFC2C20FFF7B7FBFEF7F9FE05B0DD
:1022300030BD00BFF8B505464FF03840FEF782FECE
:1022400041F67073C1F6FF731B7803B33026334633
:10225000EF2231465020FFF7ABFF05F5A0773C4653
:1022600034F8020DFFF7F8FBAC42F9D10136A82E85
:102270003D46ECD10021084640F23F13EF22FFF724
:102280001BFC2C20FFF788FBFEF7CAFEF8BDA72336
:10229000EF2230215020FFF78BFF05F51546FE3663
:1022A000AC1E34F8020FFFF7D7FBA642F9D100218C
:1022B0000846EF2340F23F12FFF7FEFB2C20FFF70A
:1022C0006BFBFEF7ADFEF8BD2DE9F04F824683B003
:1022D0004FF0384098460D461746FEF733FE41F65C
:1022E0007073C1F6FF731B789BB3B8F1000F21DD4B
:1022F0000AEB070908EB05030C9C019309F1FF3970
:102300004FEA470B3E462B464A4629465046FFF7C2
:102310004FFF002F08DD0C9B03EB460838F8020D39
:10232000FFF79AFBA045F9D1019B01359D425C4422
:102330003E44E8D10021084640F23F13EF22FFF768
:10234000BBFB2C20FFF728FBFEF76AFE03B0BDE8BD
:10235000F08F05EB08030AEB0702013B2946013A1F
:10236000504608FB07F8FFF723FFB8F1000F08DD20
:102370000C9C04EB480534F8020BFFF76DFBAC42F4
:10238000F9D100210846EF2340F23F12FFF794FBFA
:102390002C20FFF701FBFEF743FE03B0BDE8F08FF2
:1023A00041F67073C1F6FF73197831B10021084608
:1023B00040F23F13EF22FFF7FBBEEF2340F23F1244
:1023C0000846FFF7F5BE00BF42F6A813C1F6FF733B
:1023D0001B78002B40D041F68473C1F6FF731B7845
:1023E000012B19D042F60213C1F6FF7342F6001218
:1023F000C1F6FF721B88128803EB830302EB4313C1
:10240000B3F5964F07DA41F66C62C1F6FF721268B7
:1024100022F813007047704741F6E863C1F6FF7376
:102420001B78002BDED042F60213C1F6FF7342F692
:102430000012C1F6FF721B88128803EB830302EBC4
:102440008313B3F5963FE6DA41F67862C1F6FF7280
:10245000126822F81300704710B54CF2803182B038
:10246000C0F2C9110122044601A8FEF737FD019808
:10247000FEF768FDA0B2FFF7EFFAFEF7D1FD02B05C
:1024800010BD00BF2DE9F04F42F6A814C1F6FF744D
:102490009346227883B01E4605460C46F2B141F6BB
:1024A0008473C1F6FF731B78002B53D104EBD474F3
:1024B00006EBD6766410761005EBD5750BEBDB7B5F
:1024C000B4424FEA65054FEA6B0B4CD05D4509D12C
:1024D0004FF0FF33CBEB0507019309E099426AD037
:1024E000584572D05D45F3DA0123C5EB0B07019324
:1024F000A642CBBFC4EB0608C6EB040801234FF08D
:10250000FF33B845009333D94FEA580B42F6641AAB
:1025100042F66D19CBF1000BC1F6FF7AC1F6FF79D7
:10252000234621462A462846FFF742FE99F8003006
:102530009AF8000043EA0020FFF746FF009BB442F0
:102540001C4412D01BEB070BEAD4019BC8EB0B0B0E
:102550001D44E5E741F6E863C1F6FF731B78002BE5
:10256000A4D0B442B2D12646B0E703B0BDE8F08FA4
:102570007E0842F6641A42F66D197642C1F6FF7A79
:10258000C1F6FF792A46284623462146FFF710FE6A
:1025900099F800309AF8000043EA0020FFF714FF92
:1025A000019B5D451D44E0D016EB0806EAD4009B74
:1025B000F61B1C44E6E7B5F5A07F01DAEF2C0DDD34
:1025C00003B0BDE8F04FFFF7EBBEB5F5A07FF7DA3B
:1025D000EF2CF5DC321BFFF785FBF1E7C5EB0B02B7
:1025E000FFF720FBECE700BFF8B505464FF0384099
:1025F000FEF7A8FC0021EF2340F23F120846FFF748
:102600005BFA42F69033C1F6FF734FF440421B78F9
:102610001B0443F00043C4F2020243F02C03536353
:10262000D36A03F4704113F0F00F18BF936BB1F548
:10263000405FF5D841F69C664FF44044ADB2C1F618
:10264000FF76C4F20204F027307845EA004040F0FB
:10265000104040F23F116063E36A03F4704213F0EC
:10266000F00F18BFA36BB2F5405FF5D80139F2D176
:102670002846FFF7F1F9013FE6D1FEF7D1FCF8BD9E
:1026800090422DE9F041044617460D461E4601DDF5
:1026900014460746B54202DD2B4635461E46B4F5C4
:1026A000A07F07DAEF2DC4EB070812DDEF2E22DD45
:1026B000BDE8F081B7F5A07F09DAEF2DF8DC761BD5
:1026C000324629463846BDE8F041FFF70BBBBDE86E
:1026D000F081424629462046FFF7A4FAEF2E0ADD94
:1026E000761B204632462946FFF7FCFAB7F5A07F55
:1026F000E6DBBDE8F081424631462046FFF792FA1C
:10270000EF2DEDDDBDE8F0812DE9F041904282B082
:1027100004460F4601DD144602469F4202DD39465B
:102720001F460B46B4F5A07F73DAEF2F71DCB2F5CC
:10273000A07FD4BF161BC4F5A0764CF28031F02BDD
:10274000D8BFDD1BC0F2C9114FF000034FF00102EA
:1027500001A8C8BFC7F1F005FEF7C0FB0198FEF75E
:10276000F1FBA0B2B9B24B1E421E2B4432449BB2C5
:1027700092B2FFF7A1F942F69033C1F6FF734FF41E
:1027800040421B781B0443F00043C4F2020243F0B2
:102790002C035363D36A03F4704113F0F00F18BF96
:1027A000936BB1F5405FF5D842F6641242F66D13B3
:1027B000C1F6FF72C1F6FF7317781B78002D43EA4C
:1027C000072724DD4FF44044C4F202041FFA87F8BF
:1027D000012E17DD41F69C63C1F6FF733146187870
:1027E00047EA004040F010406063E36A03F470423F
:1027F00013F0F00F18BFA36BB2F5405FF5D80139A5
:102800000129F1D14046FFF727F9013DE0D1FEF75C
:1028100007FC02B0BDE8F0812DE9F04F904283B093
:10282000054616460C461F4601DD15460646BC42C7
:1028300002DD23463C461F46C5EB0608B8F1040FEF
:1028400039DDC4EB0709B9F1040F34DD05F1010AE4
:10285000BAF5A07F04F1010330D306F1FF3BBBF5CD
:10286000A07F32D305F1020ABAF5A07F05DAEF2C7A
:10287000A8F1040846DDEF2F3EDDB5F5A07F04F199
:102880000204A9F1040911DAEF2C14DC28464A46A7
:102890002146FFF727FAB6F5A07F0CDA4A46214613
:1028A000304603B0BDE8F04FFFF71CBAB6F5A07F85
:1028B00001DAEF2CF2DD03B0BDE8F08FEF2B2CD95D
:1028C00006F1FF3BBBF5A07F2ED2EF2B20D9BAF546
:1028D000A07F07F1FF330CD2EF2BC3D81946504627
:1028E0000193FFF767F9019B19465846FFF762F914
:1028F000B8E7EF2BB6D8F7E7424639465046FFF720
:1029000091F9BAE7424621465046FFF78BF9B2E704
:1029100019465846FFF74EF9D9E719465046019334
:10292000FFF748F9019BCBE7791EEF299AD850466B
:10293000FFF740F996E700BF2DE9F04F904285B0D0
:1029400006460F469B4601DD164602465F4502DD00
:1029500039465F468B46951B042D34DDC7EB0B08CB
:10296000B8F1040F2FDD7B1C00930BF1FF330193B3
:10297000AB1E02932B1F4FEA680806F1020A06F10C
:102980000109002403930CBBBAF5A07F04DAEF2FF2
:102990001FDDBBF1EF0F24DDB9F5A07F05DA009B49
:1029A000EF2B34DD019BEF2B2BDD0224B6F5A07F4E
:1029B00006DA3919EF291FDDC4EB0B01EF2916DD0B
:1029C00001344445DFDD05B0BDE8F08F012CE3D0D4
:1029D000ECE7039A39465046FFF724F9BBF1EF0FB5
:1029E000DADC039A59465046FFF71CF9D4E72A4629
:1029F0003046FFF717F9E3E72A463046FFF712F9AA
:102A0000DAE71946029A4846FFF70CF9CDE7029A31
:102A100019464846FFF706F9C4E700BF2DE9F04F15
:102A200042F6A813C1F6FF738BB01B78099003918F
:102A30009246ABB141F68473C1F6FF731B78002B4D
:102A400040F0FC80099B03EBD371039B03EBD37233
:102A500049100AEBDA735210099103924FEA630AA4
:102A6000039FDDF8248042F6641542F66D14C1F62A
:102A7000FF75C1F6FF7407EB0A094FEA4A0649469B
:102A80004B464246404676420896FFF791FB237834
:102A90002878CAEB070243EA00203E460792174611
:102AA000FFF792FC4246394610463B46FFF780FB53
:102AB0002378287808EB0A0B43EA0020FFF784FC10
:102AC0005A46584633463146FFF772FB237828783A
:102AD000CAEB08010F4643EA00200691FFF774FC99
:102AE0003A46384633463146FFF762FB237828786A
:102AF00043EA0020CAF101030193FFF765FCBAF134
:102B0000000F40F396800127CDF8089009990497AB
:102B10007E0001EB0709C6EB09030093039B03EB5F
:102B20000708C6EB080306F1010E019E0593002E6F
:102B30004A46484607F1010713DB089B02331E444F
:102B40000893039B01960AF1FF3A03EB0A06CAEBCE
:102B5000030302960793019ECAEB010301EB0A0BE4
:102B60000693029976440B460196FFF721FB2378E2
:102B7000287843EA0020FFF727FC029900980B46CB
:102B80000246FFF715FB2378287843EA0020FFF779
:102B90001BFC079E4A46314633464846FFF708FB72
:102BA0002378287843EA0020FFF70EFC009A31468C
:102BB00010463346FFF7FCFA2378287843EA0020D2
:102BC000FFF702FC414643465A465846FFF7F0FAE3
:102BD0002378287843EA0020FFF7F6FB069E41465B
:102BE000434632463046FFF7E3FA2378287843EA33
:102BF0000020FFF7E9FBDDF814805A4641464346C2
:102C00005846FFF7D5FA2378287843EA0020FFF7E3
:102C1000DBFB4346324641463046FFF7C9FA23788C
:102C2000287843EA0020FFF7CFFB049B9A453FF743
:102C30006DAF0BB0BDE8F04FFFF7B2BB41F6E863F4
:102C4000C1F6FF731B78002B7FF40AAFFAE600BFD2
:102C50002DE9F04F42F6A818C1F6FF7891B098F828
:102C600000300491054603928BB141F68473C1F69E
:102C7000FF731B78002B40F06A81049B03EBD37237
:102C8000039B03EBD37352105B100492039341F642
:102C90008263C1F6FF731A78002A6DD141F6707312
:102CA000C1F6FF7341F6687A1C78C1F6FF7A002CF2
:102CB00000F056819AF804109AF805009AF8064038
:102CC000CB0813FB00F02C1B00FB04F4043401942C
:102CD00000284CD042F2C65942F664180292C1F65E
:102CE000FF79C1F6FF780498029AB2FBF3F30A1851
:102CF00003990B441946013AFFF75AFA9AF804105F
:102D0000CB085F1E3BB342F26C6642F66D15C1F60E
:102D1000FF76C1F6FF75DAF80030DA19019BD45C52
:102D20004FF0000B44FA0BF3D90747BF98F80000A7
:102D30002B7899F8000033780BF1010B43EA00205F
:102D4000FFF742FBBBF1080FECD117F1FF37E2D2DE
:102D50009AF80410CB0802989AF80520019C1844B0
:102D600003FB02F21C44824202900194BBD811B0D2
:102D7000BDE8F04FFFF714BB41F6687AC1F6FF7A61
:102D80009AF804309AF805209AF80600DB0803FB4D
:102D900002F12D1A01FB05F5291D0891002AE6D044
:102DA0004EF20C11CEF200014EF204100E91039976
:102DB000CDF824A0CEF200000F9001F1010B03F03A
:102DC000FF01002B00F0B7804EF20813CEF2000393
:102DD0000D930BF1FF330193049B059342F6001210
:102DE000C3F1EE0341F67079C1F6FF72069300233A
:102DF000C1F6FF7902920793099B089A1B68069F08
:102E0000059D1344079A072413F802A016E098F8CA
:102E1000000001995B463246F0B142F60213C1F65A
:102E2000FF73029A198015804AFA04F3DA0758D41E
:102E3000013C631C354607F1FF3766D099F8003036
:102E4000012B05F10106E2D198F80000019D7B1CE1
:102E50005A4639460028E0D14FF038400C920B9189
:102E60000A93FEF76FF80A9B0C9A0B999BB292B2E9
:102E700089B2A8B2FEF720FE2C20FEF78DFD42F6A7
:102E80001443C1F6FF731B78002BCDD0DA0709D5A8
:102E900042F60442C1F6FF724FF46141CEF20001E6
:102EA00012680A609D0706D542F60442C1F6FF7219
:102EB0000F9952680A60580706D542F60442C1F6D7
:102EC000FF720D9992680A601907ADD542F6044366
:102ED000C1F6FF730E9ADB6813604AFA04F3DA074F
:102EE000A6D542F6641242F66D13C1F6FF72C1F622
:102EF000FF7310781B78013C43EA0020FFF764FA67
:102F0000631C354607F1FF3798D1099B059C079A4A
:102F10001B7908340132DB080594069C07921046A1
:102F2000D9B241F66872083C81420694C1F6FF723C
:102F30003FF762AF52790398089CC0EB0B000C443A
:102F4000824208940BF1010B3FF639AF0FE741F6CF
:102F5000E863C1F6FF731B78002B7FF498AE8CE614
:102F600003989AF805309AF804200146034404981F
:102F70000244013B013AFFF71BF99AF804209AF842
:102F800005309AF80690D20812FB03F3C9EB050945
:102F900003FB09F909F10409002B3FF4E8AE42F202
:102FA000C65842F26C6742F6641642F66D150194FB
:102FB000C1F6FF78C1F6FF77C1F6FF76C1F6FF755F
:102FC000DAF8003013F809404FF0070B44FA0BF21F
:102FD000D00747BF30782A7898F800003A7842EA5C
:102FE0000020FFF7F1F91BF1FF3BEFD29AF8042024
:102FF00001999AF80530D208013112FB03F38B4294
:10300000019109F10109DBD811B0BDE8F04FFFF7DC
:10301000C7B900BF41F66873C1F6FF73F0B41B680F
:1030200004331A780A705C784C609E788E60DD7884
:10303000CD601C797F2CC8BFC4F580740C619F1DC6
:1030400082425B794B610BD0FF2A12D016FB05F54B
:103050006EB16B1E48BFAB1D07EBE3030133E0E726
:10306000B2F1FF0018BF01208F61F0BC70473B46F2
:10307000D7E700208F61F0BC704700BF2DE9F04F0B
:103080008BB08B4603A90192FFF7C4FF002858D0EC
:1030900042F6641442F66D1541F68263C1F6FF7480
:1030A000C1F6FF75C1F6FF7321782A781B7842EAD2
:1030B00001220092002B47D0059B002B40D0069A9E
:1030C000002A3DDD4FF00008099FC1464646802595
:1030D000002B2EDD019A00210C4602EB080A09E0C4
:1030E0002A4616424FEA550510D10134E4B29C42FB
:1030F00021461DDA03FB08125207F1D13E788022E7
:1031000016424FF0400507F10107EED0079A049BE5
:103110005A440A44534419461046FFF749F80098A8
:10312000FFF752F90134059BE4B29C422146E1DBF2
:10313000069A09F101095FFA89F99145C846C7DB8A
:1031400008980BB0BDE8F08F41F66873C1F6FF73C5
:1031500042F2C650089A019F5B7942F26C61C1F657
:10316000FF70C1F6FF7100780E7820705A443B441E
:103170000132394658462E70FFF7C6FA009A2A7077
:10318000130A2370059B002B99D1D9E72DE9F04F45
:103190002DED068B8DB009EE101A05A9994609EEA2
:1031A000902AFFF737FF002800F08E80079A002A48
:1031B00000F087801C9B9FED587A039207EE903AAF
:1031C000F8EEE77A67EE877A17EE900A29F098FC16
:1031D00041EC100B41EC1A0B27F0C6FF51EC100B21
:1031E00029F0BAFFB0EE4A0AF0EE6A0A08EE100AB9
:1031F00028F01AF851EC100B29F0AEFF089B002BB9
:1032000008EE900A5DDD42F6641042F66D11C1F6DB
:10321000FF70C1F6FF7142F2C65290F800B0097813
:10322000DDF82C80C1F6FF7242F26C60002541F699
:10323000826A0192C1F6FF70039A029041EA0B2B59
:103240002F46C1F6FF7A8026002A37DDF8EEC9AA9C
:10325000B8EEE9AA002425E031467608069BEB1873
:1032600006EE903A04EB090307EE903AF8EEE66AB0
:10327000B8EEE76A66EEE87A28EE867AE8EE067A35
:103280000F42A8EE267A77EEAA7A37EE0A7AFDEE9A
:10329000E77ABDEEC77A1CD19AF8003043B3013407
:1032A00094420ADA02FB05435B07D5D198F8007017
:1032B000402608F101088021D0E7089B01359D4296
:1032C000C2DBFFF76DF80A980DB0BDEC068BBDE8C8
:1032D000F08F17EE902A17EE900A17EE103A17EEBD
:1032E000101AFEF765FF5846FFF76EF8079AD6E703
:1032F00017EE103A17EE902A17EE900A17EE101AF2
:10330000FEF756FF019B1878029B1B7843EA0020CA
:10331000FFF75AF8079AC2E7295C8F3C2DE9F04F76
:103320002DED028B9BB09FED737A269C169207EED3
:10333000904AF8EEE77A044667EE877A41F66879B4
:1033400017EE900AC1F6FF790E93159129F0D8FB7C
:1033500099F8046099F8055041EC180B99F80600AB
:10336000F30803FB05F2201A02FB00F0021D129283
:10337000002D00F06E8341F67072C1F6FF720F925D
:1033800092F800804EF20812CEF200024EF20C11BA
:103390004EF20410CEF200011892CEF2000000228C
:1033A000179119901492344603F0FF01002B00F09E
:1033B0001982159829F092FBB0EE480AF0EE680ADF
:1033C000CDE9020127F0D0FE14985BEC10AB8DED37
:1033D000040B29F083FBB0EE480AF0EE680A0646BB
:1033E0000F4627F021FF304653EC102B39468DED68
:1033F000060B29F0D9FBCDE90801169829F06EFBE0
:103400003246CDE90A013B465046594629F0CCFBED
:1034100042F61445CDE90C01C1F6FF7542F6A81637
:1034200000231195C1F6FF761093129AD9F8003057
:103430001344109A9B5C01934EF28C13D700CEF28A
:10344000000307371393072520460E9A7B1B02FBC8
:10345000003029F043FBDDE9042382468B4629F046
:10346000A3FBDDE9082329F0EBF9DDE9022329F0CC
:10347000E9F929F049FEDDE906230446594650469C
:1034800029F092FBDDE90C2329F0DCF9DDE90A23C0
:1034900029F0D8F929F038FEB8F1010F00F1010345
:1034A00004F1010228D0317881B3019942F600136A
:1034B00042F60212C1F6FF73C1F6FF7241FA05FE31
:1034C000A4B280B21EF0010F1C80108040F0538126
:1034D00041F68261C1F6FF710978002900F09C81F4
:1034E0000F9B93F8008015F1FF35C0F06B8199F8C0
:1034F0000400AAE7295C8F3CC2F1EF011A46C4F12F
:10350000EF030446084631780029CED11199097895
:10351000002954D072B642F61441C1F6FF71097801
:1035200011F0010F15D04EF2801C42F6F43ECEF29F
:10353000000CC1F6FF7EDCF800A0DEF800E042F6E9
:103540000448C1F6FF780AEA0E0EC8F800E0CCF88D
:1035500000E011F0020F15D04EF2841C42F6F43E4A
:10356000CEF2000CC1F6FF7EDCF800A0DEF804E02D
:1035700042F60448C1F6FF780AEA0E0EC8F804E0E5
:10358000CCF800E011F0040F15D04EF2881C42F682
:10359000F43ECEF2000CC1F6FF7EDCF800A0DEF8AF
:1035A00008E042F60448C1F6FF780AEA0E0EC8F8B1
:1035B00008E0CCF800E0090700F1CF8162B64FF4D3
:1035C0004041C4F20201D1F80CE0BEF1384F13D0F3
:1035D00044F2010CC0F21F0C4FF0000EC1F800C005
:1035E000C8F21F0E4FF038484FF0784CC1F80C80ED
:1035F000C1F810C0C1F800E09BB281B292B2A0B293
:10360000FEF75AFA2C20FEF7C7F9119B1B7803B37B
:10361000DC0709D542F60442C1F6FF724FF461415E
:10362000CEF2000112680A60980706D542F60442FD
:10363000C1F6FF72199952680A60590700F1858135
:103640001A0706D542F60442C1F6FF721799D268EE
:103650000A60019A2A41D40700F1198141F6826378
:10366000C1F6FF731B78002B7FF43AAF42F2C652CB
:1036700042F26C63C1F6FF72C1F6FF7310781A78DC
:10368000337842EA0020002B40F0FE81119A137833
:10369000002B51D072B61378DC0712D54EF2801190
:1036A00042F6F432CEF20001C1F6FF72D1F800E02A
:1036B000126842F60444C1F6FF740EEA0202226068
:1036C0000A60990712D54EF2841142F6F432CEF216
:1036D0000001C1F6FF72D1F800E0526842F60444DE
:1036E000C1F6FF740EEA020262600A605A0712D540
:1036F0004EF2881142F6F432CEF20001C1F6FF72AA
:10370000D1F800E0926842F60444C1F6FF740EEA74
:103710000202A2600A601C070DD542F6F432C1F61F
:10372000FF72139CD368216842F60442C1F6FF720F
:103730000B40D360236062B64FF44043C4F20203EF
:10374000DA68B2F1384F0ED044F20101C0F21F0125
:1037500000221960C8F21F024FF038444FF0784140
:10376000DC6019611A60FEF777F9119B1B78002B5A
:1037700040F0BF80B4E642F6641242F66D13C1F623
:10378000FF72C1F6FF7392F800E01B7843EA0E2E39
:1037900041F68473C1F6FF7300EB80001B78012BA8
:1037A00060D004EB4014B4F5964FBFF69CAE41F6E2
:1037B0006C63C1F6FF7315F1FF351B6823F814E045
:1037C000BFF495AE109A99F804400132E308104610
:1037D000D9B21092814241F66872C1F6FF723FF78A
:1037E00024AE5579149A12980132D2B20844AA42F2
:1037F00014921290FFF4D8ADB8F1000F00F03081B0
:103800000021084640F23F13EF221BB0BDEC028BB3
:10381000BDE8F04FFEF7CCBC42F2C65042F26C61FC
:10382000C1F6FF70C1F6FF710078097841EA002007
:1038300041F68471C1F6FF71128809781B8801294D
:1038400002EB820200F0EC8003EB4212B2F5964FDD
:10385000BFF646AE41F66C63C1F6FF731B6823F8F2
:1038600012003DE641F6E863C1F6FF731B78002BBA
:1038700097D004EB8014B4F5963FBFF634AE41F612
:103880007863C1F6FF731B6823F814E02BE642F659
:10389000641142F66D12C1F6FF71C1F6FF7291F824
:1038A00000E01178327841EA0E2E002A40F0DE80E6
:1038B000002B67D14FF44043C4F20203DA68B2F13F
:1038C000384F0ED044F20101C0F21F0100221960EE
:1038D000C8F21F024FF038404FF07841D8601961AC
:1038E0001A607046FEF7B8F8119B1B78002B3FF466
:1038F000F7ADD80709D542F60442C1F6FF724FF47E
:103900006141CEF2000112680A60990706D542F6BD
:103910000442C1F6FF72199952680A605A0706D527
:1039200042F60442C1F6FF72189992680A601B07BA
:103930007FF5D6AD42F60443C1F6FF73179ADB68F4
:1039400013600F9B93F80080CDE542F60442C1F668
:10395000FF72189992680A6072E642F6F43E139973
:10396000C1F6FF7ED1F800C0DEF80C1042F6044E1E
:103970000CEA010CC1F6FF7E1399CEF80CC0C1F819
:1039800000C01BE672B6119B1B78D80710D54EF20B
:10399000801142F6F432CEF20001C1F6FF720C68DB
:1039A000126842F60440C1F6FF70224002600A60CD
:1039B000990710D54EF2841142F6F432CEF200018E
:1039C000C1F6FF720C68526842F60440C1F6FF70FF
:1039D000224042600A605A0710D54EF2881142F622
:1039E000F432CEF20001C1F6FF720C68926842F622
:1039F0000440C1F6FF70224082600A601B070DD5AB
:103A000042F6F432C1F6FF721398D368016842F6A9
:103A10000442C1F6FF720B40D360036062B649E70F
:103A200041F6E861C1F6FF71097800293FF40CAF57
:103A300003EB8212B2F5963FBFF652AD41F67863C2
:103A4000C1F6FF731B6823F812000F9B93F80080E8
:103A500049E541F67073C1F6FF7393F80080CBE639
:103A6000EF2340F23F1241464046CEE642F60013B5
:103A7000C1F6FF7342F60212C1F6FF721C880F9B5B
:103A8000108893F8008083E642F6001342F6021293
:103A9000C1F6FF73C1F6FF72CAE600BF2DE9F04F11
:103AA00083B09A460D46164604462AF0C9FC42F6F3
:103AB000A813C1F6FF7380461B7863B141F6847387
:103AC000C1F6FF731B78002B7ED105EBD57506EB95
:103AD000D6766D10761041F67073C1F6FF731B78C1
:103AE000002B3AD142F20F739D4200F0988042F2CF
:103AF0000E739D4277D0B8F1000F2BDDBAF1000FA5
:103B000040D04FF0000941F668770134CB46C1F64A
:103B1000FF770CE014F8010CCDF800A05B460BF128
:103B2000010BFFF7FBFBD84504F1010412D03879F3
:103B30004B46324629460028ECD114F8010CCDF84A
:103B400000A0FFF723FB0BF1010BD845814404F1E2
:103B50000104ECD103B0BDE8F08F42F20F739D4237
:103B60004ED042F20E739D42C5D141F66877C1F640
:103B7000FF773D7908FB05F5C5F1F00505EBD57537
:103B80006D10B8E741F6687708F10108C1F6FF77D4
:103B9000A044B946013408E014F8010CFFF76EFAAE
:103BA000013005440134A045D4D03B792946324642
:103BB000002BF1D02946324614F8010CFFF748F8E3
:103BC00099F804301D44EDE741F6E863C1F6FF7350
:103BD0001B78002B7FF47FAF05EBD57506EBD6760F
:103BE0006D10761077E741F66877C1F6FF773D797B
:103BF00008FB05F5C5F5A07505EBD5756D107AE7E1
:103C000041F66877C1F6FF7742F20E733D7908FB03
:103C100005F5C5F1F0059D427FF46DAFA5E741F6CE
:103C20006877C1F6FF7742F20E733D7908FB05F520
:103C3000C5F5A0759D427FF45EAFD4E72DE9F0474E
:103C400042F6B014C1F6FF7441F67477C1F6FF77FF
:103C5000208B618BA28BE38B3D6842F6641842F6A1
:103C60006D1902440B44C1F6FF78C1F6FF792E0AA4
:103C7000033A0330033B033188F8006089F80050B1
:103C8000FEF742FD42F27062C1F6FF7241F66873C0
:103C9000C1F6FF7312681A6092F800A083F804A0BE
:103CA00042F6943155785D71C1F6FF7190780968DC
:103CB000666A9871D27889F800103046090ADA717C
:103CC00088F800102AF0BCFBA18B238BB4F81EE00F
:103CD0003F68628B03EB51036D0800FB0AF0C5EBF4
:103CE0005E05A3EB50017B1C2A4416D042F2C6505D
:103CF00042F26C63C1F6FF70C1F6FF733C0A0470B8
:103D00001F70002541F68264C1F6FF7430462570AD
:103D10000023BDE8F047FFF7C1BE0125F2E700BF71
:103D20002DE9F04F42F6B014C1F6FF7442F6641864
:103D300020886188A288E38842F66D19C1F6FF7871
:103D4000C1F6FF7902440B4481B0BE277F26033AB7
:103D50000330033B033188F8007089F80060FEF7F8
:103D6000D3FC42F27062C1F6FF7241F66873C1F68D
:103D7000FF7312681A6092F800B083F804B042F63C
:103D8000943155785D71C1F6FF719078D4F80CA02C
:103D900009689871D27889F800105046090A88F8A5
:103DA0000010DA712AF04CFBE1882388B4F8048013
:103DB00062886D08C5EB510542F2C65C42F26C6E3A
:103DC00041F6826400FB0BFB03EB5801C1F6FF7C5C
:103DD000C1F6FF7EC1F6FF742A4400255046A1EBD0
:103DE0005B012B468CF800708EF80060257001B0E6
:103DF000BDE8F04FFFF752BE2DE9F04180464CF68A
:103E00005960FEF7F1FB41F6C423C0F2040341F60A
:103E10006874C1F6FF7493F800E084F804E093F846
:103E200001E084F805E0236042F2C65593F802E011
:103E3000DB78E371C1F6FF7542F26C6241F6826194
:103E4000C1F6FF72C1F6FF71CE2342F6641742F647
:103E50006D162B70C1F6FF7700255923C1F6FF764A
:103E6000137040462B4619220D7042F20E7184F8F1
:103E700006E03D703570FFF711FE42F2A863C0F214
:103E800004032360187859789A78DB78E3712071FD
:103E90006171A271BDE8F0812DE9F04742F6641727
:103EA00042F66D16C1F6FF77C1F6FF7606214FF098
:103EB000CE0982464FF059080846EA234FF49D7216
:103EC00087F8009086F80080FEF736FD42F2C65C67
:103ED000C1F6FF7C41F6C42542F26C6EC0F20405C7
:103EE0000022C1F6FF7E41F682613A7032708CF892
:103EF0000090C1F6FF7141F66874C1F6FF7495F841
:103F0000009095F801C08EF80080AF78EE780A70C6
:103F100013465046192242F20E7184F8049025602F
:103F200084F805C0A771E671FFF7B8FD42F2A863F7
:103F3000C0F204032360187859789A78DB78E3712B
:103F400020716171A271BDE8F08700BF2DE9F041D9
:103F5000D0F808E00EF1080323F0070342F66D15D0
:103F600042F6641400AFC1F6FF75ADEB030DC1F668
:103F7000FF744FEA122C164688460EF1010269467C
:103F8000002384F800C02E7026F0E4FA424668460A
:103F9000002342F20E71FFF781FDBD46BDE8F081BE
:103FA00070B5064684B04CF65960FEF71DFB41F62D
:103FB000C423C0F2040341F66874C1F6FF741D788F
:103FC00025715D786571236042F2C65142F26C60E2
:103FD0009D78DB78E371C1F6FF71C1F6FF7041F6A1
:103FE00082625923C1F6FF72A571CE2503700D7050
:103FF000684600253146157026F08EF868461F2267
:104000001421FFF7A3FF684626F05AF942F2A8638D
:10401000C0F2040306F110011A7858782360227167
:104020009A78DB7860716846E371A27126F074F8C3
:104030002A4668463721FFF789FF684626F040F98F
:1040400006F12001684626F067F82A4668465021A6
:10405000FFF77CFF684626F033F906F13001684629
:1040600026F05AF82A4668466921FFF76FFF68462E
:1040700026F026F906F14001684626F04DF82A465A
:1040800068468221FFF762FF684626F019F906F1BB
:104090005001684626F040F82A4668469B21FFF703
:1040A00055FF684626F00CF906F16001684626F0D7
:1040B00033F82A466846B421FFF748FF684626F0E1
:1040C000FFF844F2D4516846C0F2030125F0F8FF2E
:1040D00068461F22D421FFF739FF684626F0F0F822
:1040E00003E025F013FC002809DCFDF7C3FB0028E2
:1040F000F7D0FDF7BFFB0028FBD104B070BDFCF783
:1041000073FEF2E72DE9F041856805F1080424F01B
:10411000070400AFADEB040D16460C4698466A1C2A
:104120006946002326F016FA434632462146684681
:10413000FFF7B4FCBD46BDE8F08100BF2DE9F047B4
:104140008EB000280E46174698469DF858101CD190
:10415000002B70D0012B76DD5C1E0DF11C09224670
:10416000484629F0B3FC0EAB1819984430220023BE
:1041700000F81C2C08F81C3C3A46314648460023FF
:10418000FFF78CFC0EB0BDE8F087B4BF0125002519
:1041900046F26763B8BF4042AC46C6F266630DF1B3
:1041A000FF3E002483FB0029C217C2EBA90202EBE9
:1041B0008202A0EB4202801A83FB00A9C0173032B2
:1041C000D0EBA90004F101040EF8012FEAD10EABE7
:1041D000234403F8380CBCF1000F02D02D238DF8D6
:1041E0001C3004EB050AD04516DC4FF000080DF139
:1041F0001C0905EB0803013B69464B446C4414F869
:10420000012D03F8012FA142F9D10EAB9844C2440D
:1042100000230AF81C3CAFE7C4EB0808C5EB08080C
:10422000B8F1000FE1DD0DF11C0909EB0500424674
:1042300029F04CFCDDE730238DF81D808DF81C3013
:104240000DF11C0998E704464FF001080DF11C0917
:1042500089E700BF2DE9F84304460F461646984605
:104260004FF03840DDF82090099DFCF76BFEA0B2BE
:10427000B9B208F1FF33721E0B4402449BB292B2F2
:10428000FDF71AFC42F69033C1F6FF734FF440423B
:104290001B781B0443F00043C4F2020243F02C03DA
:1042A0005363D36A03F4704113F0F00F18BF936B9C
:1042B000B1F5405FF5D8B8F1000F40F3AC8041F69E
:1042C0009C674FF44044C1F6FF77C4F2020438788B
:1042D000042E49464FEA004054DDB6460B789B0950
:1042E00035F81330034343F010436363E36A03F488
:1042F000704213F0F00F18BFA36BB2F5405FF5D812
:104300000B78C3F3011335F81330034343F0104324
:104310006363E36A03F4704213F0F00F18BFA36BFA
:10432000B2F5405FF5D80B78C3F3810335F813304D
:10433000034343F010436363E36A03F4704213F0F2
:10434000F00F18BFA36BB2F5405FF5D811F8013B31
:1043500003F0030335F81330034343F01043636362
:10436000E36A03F4704213F0F00F18BFA36BB2F5C9
:10437000405FF5D8AEF1040E1FFA8EF3042B0FFA4E
:1043800083FEABD80B789B0935F81330034343F019
:1043900010436363E36A03F4704213F0F00F18BF35
:1043A000A36BB2F5405FF5D80B78C3F3011335F872
:1043B0001330034343F010436363E36A03F4704232
:1043C00013F0F00F18BFA36BB2F5405FF5D80B7870
:1043D000C3F3810335F81330034343F010436363A1
:1043E000E36A03F4704213F0F00F18BFA36BB2F549
:1043F000405FF5D80B7803F0030301F1010935F8AC
:104400001300FDF729FB08F1FF339BB20FFA83F885
:10441000002B7FF45CAFFCF703FEBDE8F88300BF20
:104420002DE9F84304460F46164698464FF03840AB
:10443000DDF82090099DFCF785FDA0B2B9B208F126
:10444000FF33721E0B4402449BB292B2FDF734FB61
:1044500042F69033C1F6FF734FF440421B781B04C1
:1044600043F00043C4F2020243F02C035363D36AC7
:1044700003F4704113F0F00F18BF936BB1F5405F78
:10448000F5D8B8F1000F5EDD41F69C674FF440446B
:10449000C1F6FF77C4F202043878022E49464FEA8B
:1044A00000402EDDB6460B781B0935F81330034368
:1044B00043F010436363E36A03F4704213F0F00FB8
:1044C00018BFA36BB2F5405FF5D811F8013B03F0BC
:1044D0000F0335F81330034343F010436363E36A7B
:1044E00003F4704213F0F00F18BFA36BB2F5405FF6
:1044F000F5D8AEF1020E1FFA8EF3022B0FFA83FEEF
:10450000D1D80B781B0935F81330034343F010431F
:104510006363E36A03F4704213F0F00F18BFA36BF8
:10452000B2F5405FF5D80B7803F00F0301F10109F4
:1045300035F81300FDF790FA08F1FF339BB20FFA3C
:1045400083F8002BA8D1FCF76BFDBDE8F88300BF12
:1045500000B542F69233C1F6FF7383B01B786BB19E
:104560004BF214024CF20403C4F20402C4F204033A
:104570004FF480704FF410711060196041F684732D
:10458000C1F6FF731B7833B942F6FD02C1F6FF7224
:104590001278012A0BD00020CBF60120FCF7D2FCC8
:1045A00000210F2023F0F0FB03B05DF804FB4CF278
:1045B0008031C0F2C91101A8FCF790FC0198FCF70A
:1045C000C1FCEDE72DE9F04F00F0010213B24FEA14
:1045D000500E0EEB8E0E9C0023444FEA4E148DB00D
:1045E00004EB0313002A1A46039200EB80084FEAFB
:1045F0008813C2F56058039ACDF81080C2F515589B
:10460000039ACDF81880C2F59558039ACDF820800A
:10461000C2F59548049A02911146069ACDF8288071
:1046200001F13F01049108BF4FF0500E114618BF31
:104630004FF0000E089AA6443F31CEF5605806911F
:1046400011460A9ACDF814801F31CEF515580891FD
:104650001146059ACDF81C807F310A9142F69236B8
:104660001146079A3F3141F6846C42F6FD0741F648
:10467000856541F66C6BC1F6FF76CEF59558C1F6AF
:10468000FF77C1F6FF750591C1F6FF7C1146C1F6B3
:10469000FF7B3678CDF82480CEF5954E3F31CDF8AE
:1046A0002CE097F80090009695F800A007919CF8F0
:1046B0000080DBF80050099A11460B9A42F2C85468
:1046C0007F3200EB8000C3F5954E1F31C1F6FF74B9
:1046D0000B92420109915F4203F1A00101920EF198
:1046E0007F0E26460023B8F1000F2CD096F8A200CA
:1046F00096F8A32042EA002010B3B9F1010F42D08E
:10470000009A2AB3BAF1000F25D0019A9A1805EB46
:10471000820C25F8220005EB4102ACF8020025F8D6
:10472000110050800133502BAEF1020EA7F10207A9
:1047300001F1020104F10204A6F10206D3D1012025
:104740000DB0BDE8F08F2079627942EA0020D3E70E
:10475000BAF1000FD9D0019A25F81E009A18A2F5D7
:1047600015523F3A07F5944B07F5944CC2EB827211
:104770000BF15F0B0CF15E0C25F8220025F81B00F5
:1047800025F81C00CEE7029ABAF1000F0ED1022ADA
:1047900041D02FD9032A1ED0042AC3D1B8F1000F6B
:1047A00050D0099AD21A25F81200BBE7022A2BD062
:1047B00019D9032A08D0042AB4D1039A9A1802F509
:1047C000615225F81200ADE7039A9A1802F51652C5
:1047D00025F81200A6E7B8F1000F2ED0079AD21ADA
:1047E00025F812009EE7012A9CD1039A9A1825F811
:1047F000120097E7012A95D1B8F1000F18D00B9A53
:10480000D21A25F812008DE7039A9A1802F59652EB
:1048100025F8120086E7B8F1000F04D0059AD21AE5
:1048200025F812007EE7049AD21A25F8120079E7DB
:104830000A9AD21A25F8120074E7069AD21A25F8B5
:1048400012006FE7089AD21A25F812006AE700BF33
:104850002DE9F04F42F6FD0389B0C1F6FF730393D3
:104860001B78012B0CBF042301230493FFF770FE78
:1048700042F69233C1F6FF734FF440454FF2840283
:104880004EF28C11C4F202050293C4F20F02CEF272
:10489000000101232C460692079101934EF28813E2
:1048A000CEF2000305934FF00008B8F1FF0F00F0BF
:1048B000948042F2C857C1F6FF7707F1A3064FF084
:1048C000010B4FF0000A2B68397842F2C8574FF0BD
:1048D0000042C1F6FF7743F480632B601046EA6222
:1048E0005FFA8AF93A466963BE465178EB6A002B53
:1048F000FCDAA76B236843F480632360E0626163A2
:1049000002F8017BB242F0D17746EB6A002BFCDA69
:104910003A78A36B87F8A33002F00F0142F2C85334
:104920000F29C1F6FF7302D05B784B4536D023F0D8
:104930009BFA08F101085FFA88F8064600E000BF1C
:1049400023F092FA801BB0F5487FF8D3B9F13C0F01
:10495000ABD1019B049A03F1010A5FFA8AF39A42F0
:1049600001939BD24FF28403C4F20F0301221A6019
:10497000FCF756FB029B1B786BB14BF214024CF216
:104980000403C4F20402C4F204034FF410704FF4A1
:1049900080711060196009B0BDE8F08FB9F1140F93
:1049A0000FD001994846FFF70DFE0028BFD0BBF19C
:1049B0003C0FCED00BF1010B5FFA8BFB0AF1010A21
:1049C00081E7039B1B78012B00F0E68001991420FE
:1049D000FFF7F8FD0028EDD1A9E741F6B063C1F675
:1049E000FF731B78DBB2012B00F0DE8042F6144629
:1049F000069A0123C1F6FF76136033787BB3D8079C
:104A000009D542F60442C1F6FF724FF46141CEF27D
:104A1000000112680A60990709D542F60442C1F6FE
:104A2000FF724EF20411CEF2000152680A605A077A
:104A300009D542F60442C1F6FF724EF20811CEF2D9
:104A4000000192680A601F0709D542F60443C1F6C7
:104A5000FF734EF20C12CEF20002DB681360029B71
:104A60001B786BB14BF21402C4F204024CF2040343
:104A7000C4F204034FF4107111604FF480721A6095
:104A8000BA2023F019FA029B1B786BB14BF2140287
:104A9000C4F204024CF20403C4F204034FF4807124
:104AA00011604FF410721A6041F68473C1F6FF73FF
:104AB0001B7823B9039B1B78012B00F0848032788C
:104AC00042F61443C1F6FF73002A48D072B61B7831
:104AD000D80710D54EF2801142F6F430CEF2000124
:104AE000C1F6FF700E68026842F60440C1F6FF701E
:104AF000324002600A60990710D54EF2841142F6E6
:104B0000F430CEF20001C1F6FF700E68426842F642
:104B10000440C1F6FF70324042600A605A070DD56A
:104B200042F6F431C1F6FF71059E8A68306842F69C
:104B30000441C1F6FF7102408A6032601B070DD547
:104B400042F6F432C1F6FF720798D368016842F664
:104B50000442C1F6FF720B40D360036062B60023CB
:104B6000EA68CBF601239A420DD044F20102C0F26A
:104B70001F022A6000210022CFF60121C8F21F0285
:104B8000EB6029612A6000210F2023F0FDF801234A
:104B900001934FF000088CE612113FF4C8AE019B60
:104BA00093427FF4C4AE11E74FF28402C4F20F02C5
:104BB0001360FCF735FA029B1B78002B7FF4DDAE07
:104BC00009B0BDE8F08F4FF03840FCF7BBF9DAE7E9
:104BD0004BF214024CF2040370B5C4F20402C4F2A6
:104BE000040342F254144FF480714FF41070C1F674
:104BF000FF741160186004F26C4104F58C600223AC
:104C000014221FF061FFC0B942F25410C1F6FF70C8
:104C10001FF016FC23794BF214014CF20402C4F28B
:104C20000401C4F204025B084FF410754FF4807461
:104C30000D6000FB03F0146070BD04F23C401DF0F9
:104C4000C3FC012120461FF095FCB0B142F254157F
:104C5000C1F6FF7505F23C46304629461DF07EFE42
:104C60000028D1D095F83C3413F0700FCCD042F628
:104C7000EC33C1F6FF731E60C6E7014620461FF005
:104C800079FC0028E2D1BFE72DE9F0414BF2140690
:104C90004CF20405C4F20406C4F204054FF4807714
:104CA0004FF4107842F2B45037608CB0C1F6FF7008
:104CB000C5F8008020F0EEFB42F66813C1F6FF73E2
:104CC00000F2FF74C4F3CF241860C6F800802F6090
:104CD0008CB3FFF77DFF0A22810A684625F0B2FAFD
:104CE000694604A825F018FA44F2F051C0F2030115
:104CF00004A825F0D5FB0A220546611E08A825F068
:104D0000A1FA08A9284625F08BFB44F2F451C0F221
:104D1000030125F0C5FB014642F60410C1F6FF7001
:104D200025F0D6FA08A825F0CBFA04A825F0C8FA91
:104D3000684625F0C5FA0CB0BDE8F08138B54BF2F5
:104D400014024CF20403C4F20402C4F2040342F25B
:104D5000C0514FF48070C1F6FF714FF410741060B1
:104D60001C60A1F10C00022314221FF0ADFE78B9E3
:104D700000204BF214024CF20403C4F20402C4F209
:104D800004034FF410744FF480711460196038BD3F
:104D900042F29050C1F6FF701DF016FC42F2541022
:104DA0000121C1F6FF701FF0E5FB0146B8B142F2E8
:104DB0005414C1F6FF7404F23C45284621461DF008
:104DC000CDFD0028D4D094F83C3413F070031BBF01
:104DD00042F6EC33C1F6FF7318461D60C9E742F294
:104DE0005410C1F6FF701FF0C5FB0028DFD1BFE7EC
:104DF000F8B542F28864C1F6FF744FF400720021E6
:104E0000204628F063FE41F6876242F68D1141F696
:104E1000D460C1F6FF70C1F6FF72C1F6FF7142F2B5
:104E20002C13056809781278B5FBF1F0C1F6FF7311
:104E300012FB01F21E68B5FBF2F341F6886E9F0883
:104E400001FB10500130C1F6FF7E07F0C00760F390
:104E50000507AA209EF800E084F8FF01A819013890
:104E600084F8C07184F8C2E1B0FBF2F71FFA87FE44
:104E70004FF0550CBEF5806F84F8C13184F8FEC147
:104E800002FB1353B3FBF1F384F8BF3118D3FF21B6
:104E9000FE2284F8C51184F8C32184F8C41142F2BB
:104EA000886242F2B450C4F8C651C4F8CA61C1F66F
:104EB000FF720021C1F6FF70BDE8F84020F0DCBBB6
:104EC00094F8C431B0FBF1FE4FEA272C01FB1E0E13
:104ED0000EF1010E6CF387136EF3050302FB17024C
:104EE00084F8C571B2FBF1F184F8C43184F8C311C0
:104EF000D5E700BF2DE9F04F42F66813C1F6FF7306
:104F000042F6631B1E68C1F6FF7BA6F580729BF814
:104F100000E0B2FBFEF202F20110000A41F67467F3
:104F200041F68C7A4FEA400C4FF48071C1F6FF775E
:104F3000C1F6FF7A0CF1A1058D42CAF8001083B0CA
:104F4000386088BF4FF4C07101D811E02146721A51
:104F5000B2FBFEF202F20110000A4FEA400C0CF123
:104F6000A1058D4201F18004F0D8CAF80010386024
:104F700041F6D469491BC1F6FF7901F1800542F27F
:104F80002C1442F2341642F280680CF1210C02FB20
:104F90000EC2C1F6FF74C1F6FF76C1F6FF78C9F8FC
:104FA000005047F6A77581310120AA422260316086
:104FB000A8F8000000F2CD8041F68862C1F6FF72C9
:104FC000107042F28865C1F6FF750193FFF710FF7C
:104FD0004FF400720021284628F078FD019BB8F8B4
:104FE00000C0196822683B68A5F80EC041F68760CA
:104FF00042F68D1EC1F6FF705524C1F6FF7E007883
:105000002A624FEA01284FF0AA0CEB2285F8FE41F4
:105010009021F8249EF800E09BF800B085F8FFC1CD
:105020002A704FF0203C8022A9706C752921002441
:10503000EB8268830223D9F80000A5F818E0C5F8D0
:1050400003C0C5F807C085F8242085F826102B7307
:105050002B74AB7485F80DB0E861EC726C7422F0BF
:1050600003FF40F64403C1F6FF73804403CB40F6D0
:105070003002C1F6FF72C5F82B00C5F82F1003CA25
:105080001A88C5F836009B78A5F8332042F2B45050
:1050900085F835302A46C5F83A10C5F82780D9F882
:1050A0000010C1F6FF7020F0E7FADAF80030D6F809
:1050B000009021464FF400722846C9EB030828F0FF
:1050C00005FD42F2B45042464946C1F6FF7020F059
:1050D00051FDB8F1000F0CD042F2886142F2B45099
:1050E0000134C1F6FF71C1F6FF7020F021FCA0452C
:1050F000F2D142F2B450C1F6FF7020F0AFFD42F29F
:1051000088604FF400720021C1F6FF7028F0DEFCC9
:1051100042F2886242F2B4504FF6FF7331686B80FE
:10512000C1F6FF724FF6F874C1F6FF702C8020F0C4
:10513000A3FA31683B6842F2B45042F28862C1F689
:10514000FF701944C1F6FF7203B0BDE8F04F20F0C4
:1051500093BAB2F5803F41F68862C1F6FF7234BF60
:105160000421062111702CE72DE9F04F42F6681555
:10517000C1F6FF7542F66319D5F800C0C1F6FF7994
:10518000ACF5804199F800E0B1FBFEF101F181033B
:10519000DB09580041F6746741F6D46641F68C7815
:1051A00000F5005A4FF48044C1F6FF77C1F6FF7650
:1051B000C1F6FF780AF1090A4FF40052A24583B004
:1051C0003B603260C8F8004018D94FF4C04400E09A
:1051D0005446C4EB0C01B1FBFEF101F18103DB0984
:1051E000580000F500520932A24204F5005AEFD8E7
:1051F000A4F50052C8F800403B6092B2101A42F287
:10520000341842F2806A4FF4806C41F6886342F2AF
:105210002C1B01FB0E4180B2C1F6FF73C1F6FF7A71
:10522000C1F6FF7BC1F6FF78C0F2FB0C42F2886446
:10523000C1F6FF7461458CBF4FF00C0C4FF00B0CA6
:1052400000F50052A1F5005183F800C0AAF8000053
:10525000CBF80010C8F80020FFF7CAFD4FF4007229
:105260000021204628F032FC41F68763C1F6FF7327
:1052700042F68D11C1F6FF71BAF800C0DBF80000EC
:1052800093F800A02A6899F8005091F800E0A4F87B
:105290000EC09023316820624FF0EB0CF820A37011
:1052A00065733B6884F800C006254FF0010C6075FB
:1052B000A4F818E029204FF0800EE16163624FF0FE
:1052C000203102236586002584F840E01202A4F80C
:1052D0001AA04FF0550B4FF0AA0AA4F830C0C4F83A
:1052E0000310C4F8071023732374E36284F84200A8
:1052F000E572019284F8FEB184F8FFA122F0B4FDBA
:10530000019A40F64403C1F6FF7302EB000C03CB95
:1053100040F65402C1F6FF72C4F84700C4F84B10BF
:1053200003CA1A88C4F852009B78C4F843C042F2FA
:10533000B45084F85130A4F84F20C4F856102246D7
:105340003168C1F6FF7020F097F9316842F2B4502D
:1053500022460631C1F6FF7020F08EF929464FF43F
:105360000072204628F0B2FB316884F8FEB142F2A8
:10537000B45022460231C1F6FF7084F8FFA120F03C
:105380007BF9316842F2B45022460831C1F6FF7011
:1053900020F072F9316845F2522C47F2722EC4F2B5
:1053A000611CC6F2411E4FF0FF3342F2B450C4F804
:1053B00000C0C4F8E4E1C4F8E831C4F8EC31224696
:1053C0000131C1F6FF7020F057F9316842F2B45054
:1053D00007312246C1F6FF7020F04EF999F80030EF
:1053E0003E68D8F8009029464FF40072204603EB3F
:1053F000460628F06BFB42F2B45032464946C1F6ED
:10540000FF7020F0B7FB66B142F2886142F2B450FF
:105410000135C1F6FF71C1F6FF7020F089FAAE4286
:10542000F2D142F2B450C1F6FF7020F017FC42F204
:1054300088604FF400720021C1F6FF7028F046FB2F
:105440004FF6F87542F2886242F2B4506FF0704342
:10545000D8F800106360C0F6FF75C1F6FF72C1F6A0
:10546000FF70A360256020F007F9D8F800103B68B2
:1054700042F2B45042F28862C1F6FF701944C1F69C
:10548000FF7203B0BDE8F04F20F0F6B84BF2140203
:10549000C4F204024CF20403C4F204034FF480701B
:1054A00010B510604FF4107142F2B4501960C1F69B
:1054B000FF701FF0EFFF42F6681142F2201200F277
:1054C000FF73C3F3CF23C1F6FF71C1F6FF72102B38
:1054D0000860138027D842F6631141F6876242F6CE
:1054E0008D13C1F6FF71C1F6FF72C1F6FF73022082
:1054F0002024087010701C7041F68473C1F6FF738D
:105500001B786BB3FFF730FE4BF214024CF204032E
:10551000C4F20402C4F204034FF410704FF480711B
:105520001060196010BD42F66312202BC1F6FF72A5
:1055300019D80421117042F68D122021C1F6FF7294
:105540008B4211701ED841F68763C1F6FF730422A7
:105550001A7041F68473C1F6FF731B78002BD1D10A
:10556000FFF7C8FCD0E7402B1FD9802B2DD8102186
:105570001170B3F5807FDED942F68D12C1F6FF724D
:105580003F211170802B09D9B3F5FC7F10D841F66B
:105590008763C1F6FF7310221A70ADE741F6876387
:1055A000C1F6FF7308221A70A6E708211170E0E720
:1055B000B3F57C7F16D9B3F5FC6F1AD841F6876333
:1055C000C1F6FF7340221A7096E7B3F5806F02D8D8
:1055D00020211170CDE7B3F5004F94BF4021802109
:1055E0001170C6E741F68763C1F6FF7320221A7077
:1055F00082E7B3F57C6F41F68763C1F6FF7394BF12
:105600008022FF221A7077E74EF284134EF2842133
:10561000CEF20003CEF2000148F234024FF4001043
:10562000C4F20402F0B418600860116821F480210B
:1056300011604FF000674FF080564FF000554FF06B
:1056400080444FF000404BF224011F60C4F20B0174
:105650001E601D601C6018600A684BF2240310066F
:10566000C4F20B03F8D41A68510603D51A6842F045
:1056700040021A604FF43043C4F20B031A6812065A
:1056800003D51A6842F080021A604FF4804048F255
:10569000440148F24803C4F20600A024C4F2040105
:1056A000C4F20403047000220A60F0BC1A60704760
:1056B00008B5002021F0D2FCAE2800D008BD0021A2
:1056C000084621F0E5FC72B6FFF79EFF48F6800021
:1056D000C0F20300D0F800D0D0F804F008BD00BF3D
:1056E00038B542F65A15C1F6FF7542F6601428889F
:1056F000C1F6FF74000A24F021FA287824F01EFA7B
:105700002088000A24F01AFA2078BDE8384024F0F6
:1057100015BA00BF2DE9F04142F6FD03C1F6FF7353
:105720001B78012B1AD0C8B941F66C668046C1F6C9
:10573000FF7608F5A077444633681D5B280A24F0FD
:10574000FDF90434E8B224F0F9F9BC42F4D108F5CB
:105750002078B8F5164FECD1BDE8F08141F66C66C3
:105760000024C1F6FF763368185B000A24F0E6F9DE
:105770003368185D023424F0E1F9B4F5164FF2D124
:10578000BDE8F08138B541F68473C1F6FF731C782B
:105790002CB141F6E863C1F6FF731C788CB941F671
:1057A0006C65C1F6FF752B68185B000A24F0C6F91A
:1057B0002B68185D023424F0C1F9B4F5164FF2D10C
:1057C00038BD41F67865C1F6FF7500242B68185B7B
:1057D000000A24F0B3F92B68185D023424F0AEF906
:1057E000B4F5163FF2D138BD08B542F6FD03C1F657
:1057F000FF731878032808BF002024F09FF941F6B2
:105800008563C1F6FF73187824F098F942F6FE0319
:10581000C1F6FF73187824F091F942F69133C1F67E
:10582000FF73187824F08AF941F68673C1F6FF7386
:10583000187824F083F942F6A413C1F6FF731878A0
:1058400024F07CF941F68663C1F6FF73187824F0E2
:1058500075F942F28263C1F6FF73187824F06EF98D
:1058600042F6A913C1F6FF73187824F067F941F6E0
:105870008163C1F6FF73187830B141F67273C1F6D7
:10588000FF73187880F00100BDE8084024F056B995
:1058900010B542F69304C1F6FF7482B0207824F06C
:1058A0004DF9237823B1002024F048F902B010BD4F
:1058B00042F64043C1F6FF7342F228121B6801937F
:1058C000C1F6FF72019B126844F6D3509B1AC1F2D5
:1058D0006200A0FB03308009C0F11E00C0B224F0BA
:1058E0002DF902B010BD00BF70B542F27C63C1F665
:1058F000FF7382B01B688DF80430190A1A0C01ACD2
:105900001B0E8DF805108DF806208DF80730254602
:1059100002AE15F8010B24F011F9B542F9D141F6A8
:105920007873C1F6FF731B688DF80430190A1A0CDE
:105930001B0E8DF805108DF806208DF8073014F831
:10594000010B24F0FBF8B442F9D102B070BD00BFE6
:1059500030B541F68873C1F6FF7383B01B688DF8CC
:105960000430190A1A0C1B0E01AC8DF805108DF8C5
:1059700006208DF8073002AD14F8010B24F0DEF894
:10598000AC42F9D103B030BD2DE9F04142F64044BC
:10599000C1F6FF74A2B023680293029D23F0B6FF04
:1059A00030B923680393039B5B1BB3F57A7FF5D370
:1059B00023F0ACFF002838D041F2F03106A8C1F640
:1059C000FF71782224F030FB042306A91AA80022D4
:1059D00024F0DAFD0A2240F2E1711EA824F032FC24
:1059E0001EA91AA824F0A0FD014616A824F0ECFB7D
:1059F00012A90023052216A824F0ACFD12A827F056
:105A000001FC044616A824F05BFC1EA824F058FCF8
:105A10001AA824F055FC74B9742024F08FF806A855
:105A200024F04EFC22B0BDE8F081742024F086F80A
:105A300022B0BDE8F0810AA806A90D230B2224F0AC
:105A4000A3FD1EA90AA80023052224F083FD1EA899
:105A500027F0D8FB06A9044610230EA80E2224F036
:105A600093FD1EA90EA80023052224F073FD1EA895
:105A700027F0C8FB06A90546132312A8112224F01B
:105A800083FD1EA90023052212A824F063FD1EA891
:105A900027F0B8FB06A906460A2316A8082224F018
:105AA00073FD1EA90023052216A824F053FD1EA88D
:105AB00027F0A8FB06A9074607231AA8052224F009
:105AC00063FD1EA9002305221AA824F043FD1EA889
:105AD00027F098FB06A9804604231EA8002224F084
:105AE00053FD04A9002305221EA824F033FD04A8B9
:105AF00027F088FB3B46324629460190CDF80080CE
:105B0000204620F06BFE1EA824F0DAFB1AA824F031
:105B1000D7FB16A824F0D4FB12A824F0D1FB0EA8C2
:105B200024F0CEFB0AA824F0CBFB20F067FD21F087
:105B30007BFF71E770B541F6A074C1F6FF74A51C38
:105B400004F5C07635F8020C000A23F0F7FF15F8CB
:105B5000020C23F0F3FF6088000A23F0EFFF043407
:105B600014F8020C23F0EAFFB44205F10405E9D170
:105B700070BD00BF08B523F0C9FE002816DD23F074
:105B800085FEC0B2012811D8A8B141F68163C1F6E3
:105B9000FF7301221A70002241F67273C1F6FF737F
:105BA00082201A70BDE8084023F0C8BF0020BDE87D
:105BB000084023F0C3BF0122EEE700BF08B523F081
:105BC000A5FE002804DD23F061FEC1B2012904D93D
:105BD0000020BDE8084023F0B1BF42F69133C1F682
:105BE000FF7301F0010265201A7021F051FA85203F
:105BF000BDE8084023F0A2BF08B523F087FE0028C7
:105C000004DD23F043FEC1B2012904D90020BDE820
:105C1000084023F093BF41F68673C1F6FF7301F08D
:105C2000010269201A7021F033FA8620BDE808408D
:105C300023F084BF08B523F069FE002804DD23F0BB
:105C400025FEC1B2012904D90020BDE8084023F097
:105C500075BF42F6A413C1F6FF7301F001026A207A
:105C60001A7021F015FA8720BDE8084023F066BFBE
:105C700008B523F04BFE002804DD23F007FEC3B275
:105C8000032B04D90020BDE8084023F057BF41F69C
:105C90008662C1F6FF7219467F20137021F0F8F971
:105CA0008820BDE8084023F049BF00BF08B523F0B5
:105CB0002DFE002804DD23F0E9FDC3B2022B04D938
:105CC0000020BDE8084023F039BF42F6A912C1F612
:105CD000FF7219467320137021F0DAF97A20BDE8BB
:105CE000084023F02BBF00BF41F68473C1F6FF7359
