:020000040000FA
:2000000000800020BD0100006DB8010025B8010025B8010025B8010025B8010025B8010006
:2000200025B8010025B8010025B801006DB801006DB8010025B801006DB8010015B8010008
:200040006DB801006DB801006DB801006DB801006DB801006DB801006DB801006DB8010070
:200060006DB801006DB801006DB801006DB801006DB801006DB801006DB801006DB8010050
:200080006DB801006DB801006DB801006DB801006DB801006DB801006DB801006DB8010030
:2000A000818801008D8801006DB801006DB801006DB801006DB801006DB801006DB801003C
:2000C0006DB801006DB801006DB801006DB801006DB801006DB801006DB801006DB80100F0
:2000E0006DB801006DB801006DB801006DB801006DB8010055C701006DB80100FDDC010025
:200100006DB8010029DE01006DB801006DB801006DB801006DB801006DB801006DB80100CD
:200120006DB801006DB801006DB801006DB801006DB801006DB801006DB801006DB801008F
:200140006DB801006DB801006DB801006DB801006DB801006DB801006DB801006DB801006F
:200160006DB80100D1C901006DB801006DB801006DB801006DB801006DB801006DB80100DA
:200180006DB801006DB801006DB801006DB801006DB801006DB801006DB801006DB801002F
:2001A0006DB801006DB801006DB801006DB801006DB801006DB801006DB80100564B4CF256
:2001C000205210B51A804DF628121A8000BF00BF1BF050FB514B4FF010621A60504A9A6008
:2001E000504ADA60504A136813F4807304D14F490B604FF4A85313604D4B1A78110703D579
:200200001A7842F008021A704A4B4B492A221A704A4A4B4B8B4204D252F8040F43F8040B13
:20022000F8E7484B484900228B4202D243F8042BFAE74649464A002352F8230041F82300A2
:2002400001336F2BF8D1434B434A802103F8011B9342FBD1414B3D4A1A60414B8A221A7044
:20026000A3F5805324225A70A0221A709A799207FCD59A79D406FCD43A4A937903F00C03EB
:20028000082B384BF9D103221A714C225A719A799006FCD5334A9179324B4906FBD5324ADC
:2002A0004FF0017111600421516020221A709A7902F00C020C2AFAD12C4B2D4A1A602D4B86
:2002C0002D4A1A6000225A60072243F8042C2B4AC3F80C2D62B61BF0ABFE144B1B68DA07C5
:2002E00005D527481BF004FE264B274A1A60274B1B785B0609D5234C234B22689A4204D1F0
:200300001F481BF0F5FD0023236020F065F904F0EFFC1DF089FAFEE70E20054030800440AA
:20032000823F04000100002B10D0034014D0034002D0074000E00740A098FF1FF45E030097
:200340002087FF1FA098FF1F30A9FF1F0082FF1F0000000000E400E05FE400E008ED00E02F
:2003600000500640004006404480044004800440C010050014E000E07F32020000002020F5
:20038000F37280031CE00340A5C3945A00F00740FFFFFFFFFFFFFFFFFFFFFFFFFFFFFFFFB9
:2003A000FFFFFFFFFFFFFFFFFFFFFFFFFFFFFFFFFFFFFFFFFFFFFFFFFFFFFFFFFFFFFFFF5D
:2003C000FFFFFFFFFFFFFFFFFFFFFFFFFFFFFFFFFFFFFFFFFFFFFFFFFFFFFFFFFFFFFFFF3D
:2003E000FFFFFFFFFFFFFFFFFFFFFFFFFFFFFFFFFFFFFFFFFFFFFFFFFFFFFFFFFFFFFFFF1D
:20040000FFFFFFFFFFFFFFFFFFFFFFFFDEF9FFFF10B5054C237833B9044B13B10448AFF375
:2004200000800123237010BDA098FF1F00000000F05E0300084B10B51BB108490848AFF3EA
:2004400000800848036803B910BD074B002BFBD0BDE81040184700BF00000000A498FF1F23
:20046000F05E0300A098FF1F00000000002070472DE9F04F85B094880391D188A14266D34F
:200480003548364B007893F800E0354D354B95F800B01B78344E354F354DD6F800903F780C
:2004A0000097C0EB8078C0EB88080EEB8E0E0EEB080A4FF4C86000FB0BA0C3EB837605FB6F
:2004C000030AC3EB860302930020052313FB0B43EF2B38DC029BDC4235D4138856889E4254
:2004E00031D30399019404EB840C4FEA8C1C01EB40010AE0A7F8FE63568801339BB29E4211
:2005000000F1010001F102011BD303EB0E05B5F5A07FF2DA13EB080F03EB0C05EDD4554402
:200520000E88A9EB450707F515371EB94FF001040C800126009C002CDCD129F81560568846
:20054000DBE7019CD1880134A4B2A142BDD2012005B0BDE8F08F00BFECA3FF1FD4A3FF1FEB
:200560005AA0FF1F9CA3FF1FC898FF1F9EA3FF1FC0F9FFFF2DE9F04FD388B2F8048043450C
:2005800091B0C0F093800292894A089189491078894C8A4A09788A4E8A4D94F800A009915E
:2005A00014788949894A36782D78126807960495C0EB80360D6809990692C0EB86020AEBCF
:2005C0008A061644059501EB810208EB8805C4EBC40106EB451502EB820201EB011105EB8A
:2005E000421501EB01117A4F05EB411189B2C4EB847EC0EB80720191C0EB8202C4EB8E0113
:200600003F780F9103924FF0050B0026C146BDF82410052212FB0192772A3DDC0F9A19EB5B
:20062000020F39D402990C884A88A24234D30136B6B2CDF83890534623E0C4F19F05EDB2F0
:200640001BFB03509F2815DC0398C54212D4019A1544079A022AADB2089A31D032F8118073
:20066000049A3AB3C5F59545059A7F3522F81580029A52880134A4B2711CA24289B206D3D3
:200680000E46711E89B2002FD7D0E5B2D8E79A46029BDDF83890DB8809F101021FFA82F902
:2006A000019AA03292B24B450192B0D2012011B0BDE8F08F059A22F81580029A5288D9E75A
:2006C00032F8112011124FEAE20AD2000B92049A01F0F8010A910AF0FC0A002A64D0C5F5CD
:2006E00095427F32059931F8128006990D934FF07E501FF0E7FB81464FEAE80000F0FC0008
:200700001FF096FC49461FF0E7FC0C9050461FF08FFC06991FF0E0FC0C9A014610461FF00F
:20072000D3FB1FF0DBFE4FEAC8025FFA80FA02F0F8001FF07DFC49461FF0CEFC0B9B0C9011
:2007400003F0F8001FF074FC06991FF0C5FC0C9A014610461FF0B8FB1FF0C0FE4FEA282E5F
:200760004FEACA0808F0E002C0F3C4010EF0F80041EA02081FF05CFC49461FF0ADFC81467C
:200780000A981FF055FC06991FF0A6FC014648461FF09AFB1FF0A2FE00F0F80040EA5A1A59
:2007A00048EA0A280D9B5BE7059A32F815809CE7ECA3FF1F5AA0FF1FD4A3FF1F9CA3FF1F53
:2007C000CE98FF1F9EA3FF1FBC98FF1FE89AFF1FEFA5FF1F083018F08FBD00BF00B583B03F
:2007E00002AB012203F8011D0830194618F084FD03B05DF804FB00BF38B5856FAC88EB88A2
:20080000E41A944228BF144631B108462968224619441AF04BFDEB882344EB80204638BD4B
:20082000F8B50E4607461AF0EBFC05461AF0D8FC04461AF0C5FC6401C0B204F4FF54ADB2BA
:20084000A5F2BC75044344EA45243C801AF088FC05461AF095FC04461AF0A2FCED0264017C
:2008600005F4FF2504F4FF542C43C0F3460004433480F8BD00F58C601AF080B82DE9F0418E
:200880002F4B304F1B7884B00BB93B78B3B13A782C4B022A3BD01A78032A02D004B0BDE873
:2008A000F08101221A70284816F0CCFE264816F0A7FE0028F7D104B0BDE8F081234B1B7806
:2008C000002BE4D1DFF8908098F80030002BDED11F4B1B78002BDAD11E4D2B6802930A2027
:2008E000029E1BF055FB2B680193019CA41B164816F0A8FE144816F083FED0B1B4F57A7F6A
:2009000012DD01233B703A780E4B022AC3D103221A700D4816F096FE0B4816F071FE0028C0
:20092000F7D104B0BDE8F0812B680393039CA41BDDE7B4F57A7FE4DA022388F80030A6E718
:20094000009BFF1FF8A3FF1F1C9BFF1FDFA1FF1FCD98FF1F50A6FF1FC098FF1F1BF0C2BA1E
:2009600000F58C601AF0E6B800F58C6019F09CBF00F58C6019F0DCBE083018F0B7BC00BFB3
:200980000F4A137A526A03F0080303F0FF00B3B142F295539A4211D042F215739A420DD013
:2009A00049F215639A4209D049F295739A4205D0044BD01AB0FA80F04009704701207047B0
:2009C00070A3FF1F42600900024A137823F00103137070472188FF1F00201CF0B1BD00BFF3
:2009E000144938B5A1F10C000223142219F0C4FD00B938BD104818F0CFF801210F4819F093
:200A000095FB80B10D4C04F23C452846214618F049FA38B194F83C3413F0700F1CBF084B90
:200A20001D6038BD38BD0146044819F07FFB0028E8D138BD38A0FF1F08A0FF1FCC9BFF1F22
:200A400020A6FF1FF0B5DFF834E13C4C3C4FE27A3C4E3D4D4FF48073CEF800304FF4107EA1
:200A6000C7F800E04FF4007737602B60EAB172B6E37ADF071A4606D5344DE2682E683240E7
:200A8000A2612A601A469E0706D5314D23692E68E27A3340E3612B60550705D52D4A636932
:200AA00015682B402362136062B623682A4ADD68954206D0294F2A4E2A4D1F60DA601E61AE
:200AC0001D60294DC0B210264FF000422E60DA625863DA6A002AFCDAC9B24FF00042986B32
:200AE000DA625963DA6A002AFCDAE27A1F499B6B124810230B60134682B1D10703D51C4B55
:200B0000816919601346920703D51A4AE169E37A11605B0702D5184B226A1A60094E0A4CDD
:200B20001649074A4FF480734FF400754FF410703360256008601360F0BD00BF1C8DFF1F2E
:200B400004C004400CC004401CB0044080E100E084E100E088E100E00110013801401F00F4
:200B60000110017800001F8088F00F4084F00F4000E100E004E100E008E100E014B004406B
:200B8000F0B43C493C4F3D4ECA7A3D4D3D4C4FF480733B604FF4107737604FF400762E6046
:200BA0002360EAB172B6CB7ADC071A4606D5364CCA6825682A408A6122601A469B0706D597
:200BC000324C0B692568CA7A2B40CB612360570705D52F4A4B69146823400B62136062B6FC
:200BE0000B682C4ADC68944206D02B4E2B4D2C4C1E60DA601D611C602A4CC0B210254FF0A5
:200C000000422560DA625863DA6A002AFCDA4FF0004000229C6BD8625A63DA6A002AFCDAEF
:200C2000986B214ACB7A134D10241460C0B21A4683B1DE0703D51D4AAC6914601A469C0743
:200C400003D51B4BCC69CA7A1C60530702D5194B0A6A1A600A4F0B4D0749084A4FF4807355
:200C60004FF400764FF410743B602E600C601360F0BC70471C8DFF1F14B0044004C00440B2
:200C80000CC004401CB0044080E100E084E100E088E100E00110013801401F000110017831
:200CA00000001F8088F00F4084F00F4000E100E004E100E008E100E038B54220FFF760FF18
:200CC00004464320FFF75CFF05464420FFF758FF44EA052400F07F0044EA004038BD00BF32
:200CE000F0B4244B244CD97A244E254D25484FF4007727604FF480724FF4107432602A6074
:200D00000460E9B172B6DA7AD407114606D51E48D96804682140996101601146900706D5B4
:200D20001A481A690468D97A2240DA6102604A0705D517495A69086802401A620A6062B612
:200D40001A68144BD168994206D0134C134814491460D36010611160124810244FF000411A
:200D60003C230460D1625363D36A002BFCDA936BF0BC70471C8DFF1F0CC004401CB0044041
:200D800014B0044004C0044080E100E084E100E088E100E00110013801401F000110017840
:200DA00000001F8088F00F4070B4144A1448D37A102404608BB1DC07194603D51149906961
:200DC00008601946980703D50F4BD069D17A18604B0702D50D4B126A1A600D4E0D4C0E49FD
:200DE0000E4A4FF480734FF400754FF4107033602560086070BC1360704700BF1C8DFF1F8E
:200E000084F00F4000E100E004E100E008E100E00CC004401CB0044014B0044004C0044090
:200E200008B501218420FFF70DFE01218420FFF709FE02218420BDE80840FFF703BE00BF41
:200E4000002370B5064615460C461A4656210F481CF0F6FC0E4B0D48197800231A461CF057
:200E6000EFFC002331461A4608481CF0E9FC65B1013D54FA85F5013C002314F8011F034859
:200E80001A461CF0DDFCAC42F6D170BD348EFF1F9DA3FF1F2DE9F843124C00252570F1B1E2
:200EA000F0B188460746DFF840900AE02678731C23701BF0DDFB09F8060000252078B84284
:200EC0000ED01BF0C5FB0028F0DC01350120EDB21BF05EF8A845F1D12078BDE8F883084669
:200EE000BDE8F88305A4FF1FF4A2FF1F094B1A78762A01D000207047074A597812789142AA
:200F0000F8D19A788242F5D1D878B0FA80F04009704700BFF4A2FF1F9DA3FF1FF0B583B059
:200F200005469DF820700E461C4697B931462846FFF786FFC8212046FFF7ACFF844202D053
:200F4000002003B0F0BD284603B0BDE8F040FFF7CDBF0A2164200192FFF79CFF019AE5E75F
:200F600010B5074A84B00123148800930222052303A93620ADF80C40FFF7D0FF04B010BD4F
:200F80009854020000B5074A85B010680390012300930422052303A92420FFF7BFFF05B0BF
:200FA0005DF804FB9C540200F0B585B0052501248DF80D00002002902B460094042719260F
:200FC000062202A931208DF808508DF80A408DF809708DF80C60FFF7A1FF05B0F0BD00BF9B
:200FE000F0B585B0012405258DF80D002B46009412270426062202A931208DF808508DF848
:2010000009408DF80A408DF80B708DF80C60FFF785FF05B0F0BD00BF2DE9F04100258846F2
:20102000471D2E46AF420ED01BF012FB6B1C0028DCB20ADD1BF01CFB08F805002546AF424A
:201040004FF00006F0D1BDE8F08101360120F6B21AF09EFF0A2EE5D1BDE8F08130B585B0AF
:2010600004A900240123074DADF80C40022201F8043D3620009305232C80FFF74FFF05B022
:2010800030BD00BF06A4FF1F2DE9F04F83B0394FDFF8F0800191064691464FF0000AFFF791
:2010A0001FFE0024D9F8003022469A424FF0FF0E4FF0004C4FF0D80B19D23B78012B50D0C7
:2010C000D8F80010C1F82CC0C1F834A0CB6A002BFCDA8D6BEDB204B3B5540132142A2AD006
:2010E000D92D0FD0AE46D9F800309A42E5D3FFF75BFE019B73B1204B1B78012B36D0FFF74D
:20110000ADFFCCE7BEF1FF0FECD11446FFF74CFEC9F8004003B0BDE8F08FD82DDED1BEF121
:20112000FF0FDBD14FF0FF33337086F801B001240222AE46D7E701990029D1D10F4B1B7865
:20114000002BCDD00B460E4806F11302FF2101E010F8011F02F8011F0133642BF8D17822AB
:20116000BEE703B0BDE8F04FFFF71EBEFFF758FE95E700BF009BFF1FC89BFF1F9EA3FF1F41
:2011800010A702001C8DFF1F30B585B00124002500940923022203A934208DF80C408DF831
:2011A0000D50FFF7BBFE50B1064B58799979DA791B7A41EA002042EA002043EA002005B06D
:2011C00030BD00BFF4A2FF1FF0B5124C238887B0002206461812039202920A2504920092B2
:2011E0000C278DF80D008DF80E3002A905230D2232208DF812608DF808708DF80A508DF8BB
:201200001450FFF78BFE10B123881E44268007B0F0BD00BF06A4FF1F08B541F64C501AF0F2
:20122000C9FF0F201AF0B4FEFFF7ACFE40F6C4101AF0C0FF0F20BDE808401AF0A9BE00BF3C
:2012400010B584B0FFF7E8FFFFF708FF88B9044664201AF09DFE04A9012201F8044D0523C5
:2012600000922620FFF75AFEFFF7D6FFFFF7F6FE28B15F20FFF7B4FEFFF772FE012004B058
:2012800010BD00BF00B585B0FFF78EFE04A90122002301F8043D262000920523FFF73EFEF7
:2012A0004FF496701AF074FEFFF7B6FF05B05DF804FB00BF074B1B7810B5044623B90649D7
:2012C00015F000FD204610BD044915F087FA204610BD00BFCCA3FF1FD4A2FF1FDCA3FF1F56
:2012E00010B582B06846FFF7E5FFBDF80020BDF80200A2F10A039BB2822B08D8A0F10A01CD
:20130000462904D82C4B01221A7002B010BDA2F1B40189B282290CD9822B14D98D3A262A1B
:20132000F3D851384E28F0D8234B07221A7002B010BDA0F1A004462C03D81F4B05221A70DE
:20134000E3E7822B19D8592809D9962807D81B4C2468012C1DD0184B03221A70D5E782299F
:2013600003D8A0F10A03462B19D9A0F1A003462BD4D8114B06221A70C7E7A0F15A013C2933
:2013800014D80E490968012905D00B4B04221A70BBE78229E9D8A0F10A01462903D8064B4F
:2013A00002221A70B1E7822BDFD9B7E7A0F10A03462BF4D9B2E700BFB5A3FF1FC0A2FF1FBA
:2013C000F0B5802183B0234815F09EFA20B1224B01221A7003B0F0BD0446204815F0F0FAA0
:2013E0001D4B68461C70FFF765FF0A20BDF90060BDF902701AF0CCFD05201AF091FD0A24CB
:20140000012505201AF08CFD00284FF00A0008BF00251AF0BDFD013CF3D1114B1B786BB9B9
:201420002346B34210D0A74201D0002DD2D00D4A137823F00803137003B0F0BD4FF4A073AC
:20144000B3424FF0F004EED1A742F0D1002DC1D1EDE700BFDCA3FF1FCCA3FF1FD4A2FF1FEB
:201460009EA3FF1F2188FF1F08B5074B1B783BB1064815F01FFA10B1054B01221A7008BDC9
:20148000044815F05BFCF6E7CCA3FF1FDCA3FF1FE4A2FF1FD4A2FF1F2DE9F0412A4D2B7804
:2014A00086B0002B39D1294B1B78002B35D1284E3378002B31D1274B1B7873BB264B1B7804
:2014C0005BBBDFF8A080D8F8003004930A20049F1AF05EFDD8F80020204B0592059C1B7810
:2014E000E41B43B924E0B4F57A7F08DCD8F800300393039CE41BFFF7B7FF0028F3D1D8F8CB
:2015000000300193019BDB1BB3F57A7F16DB144B1B78012B01D00123337006B0BDE8F08161
:20152000B4F57A7FEBDCD8F800300293029CE41B05201AF0F5FC0028E1D1F1E701232B707F
:2015400006B0BDE8F08100BF009BFF1FF8A3FF1FDFA1FF1FC098FF1FCD98FF1FCCA3FF1F6A
:20156000CE98FF1F50A6FF1F10B4124B124A1B78146840EA034040F00063114653631046E4
:2015800002E013F0F00F13D1CB6A0B4A13F0805FF7D04FF08053D3621460D36A13F0F00F56
:2015A00004D0936BD36A13F0F00FFAD110BC7047836BE9E7ECA5FF1F00C0024010B4124B3C
:2015C000124A1B78146840EA034040F0006311465363104602E013F0F00F13D1CB6A0B4AEB
:2015E00013F0805FF7D04FF08053D3621460D36A13F0F00F04D0936BD36A13F0F00FFAD16C
:2016000010BC7047836BE9E7EF9AFF1F00C0024010B4124B124A1B78146840EA034040F0B7
:20162000C05311465363104602E013F0F00F13D1CB6A0B4A13F0805FF7D04FF08053D362F2
:201640001460D36A13F0F00F04D0936BD36A13F0F00FFAD110BC7047836BE9E7EF9AFF1F13
:2016600000C00240F0B4324C324F2678360446F0004444F02A047C63FC6A04F4704514F01B
:20168000F00F18BFBC6BB5F5405FF5D82A4C294F25782D04284340F010407863F86A00F45F
:2016A000704410F0F00F18BFB86BB4F5405FF5D82A43204C42F010426263E26A02F4704054
:2016C00012F0F00F18BFA26BB0F5405FF5D846F00046184C46F02B066663E26A02F4704012
:2016E00012F0F00F18BFA26BB0F5405FF5D82943104841F010414163C26A02F4704112F035
:20170000F00F18BF826BB1F5405FF5D82B43094943F010434B63CB6A03F4704213F0F00F20
:2017200018BF8B6BB2F5405FF5D8F0BC704700BFECA5FF1F00C00240EF9AFF1F70B5334CAB
:20174000E37AEBB172B6E37ADD071A4606D5304DE2682E683240A2612A601A469E0706D5B0
:201760002C4D23692E68E27A3340E3612B60550705D5294A636915682B402362136062B6C3
:201780002568EB68B3F1384F09D0244A2A60244B4FF038464FF07842EE602A612B608BB2A7
:2017A00082B219461046FFF75DFF1E4B1E491B781B0443F0004343F02C034B63CB6A03F4BA
:2017C000704213F0F00F18BF8B6BB2F5405FF5D8164A174B10781B7843EA0020FFF718FF3E
:2017E000E37A0A491A4683B1D80703D5114A896911601A46990703D50F4BE169E27A1960DF
:20180000530702D50D4B226A1A6070BD1C8DFF1F80E100E084E100E088E100E001401F0016
:2018200000001F80ECA5FF1F00C00240C5A3FF1FCDA3FF1F00E100E004E100E008E100E0F5
:20184000F8B5444E8318B3F5A07FF37ACCBFC0F5A0751546EBB172B6F37ADC071A4606D57B
:201860003D4CF26827683A40B26122601A469F0706D53A4C33692768F27A3B40F361236097
:20188000540705D5364A7369146823403362136062B63368DA68B2F1384F09D0314C1C60DF
:2018A000314A4FF038474FF07844DF601C611A6080B2421E8BB22A44194692B2FFF7D2FE18
:2018C0002A4B2B491B781B0443F0004343F02C034B63CB6A03F4704213F0F00F18BF8B6B3A
:2018E000B2F5405FF5D82349234A244B127808781B781F4C42EA00202A4640EA0343012A2E
:2019000043F010450DDD6563E36A03F4704113F0F00F18BFA36BB1F5405FF5D8013A012A39
:20192000F1DCFFF775FEF37A0A491A4683B1D80703D5134A896911601A46990703D5114B72
:20194000F169F27A1960530702D50F4B326A1A60F8BD00BF1C8DFF1F80E100E084E100E0E6
:2019600088E100E001401F0000001F80ECA5FF1F00C00240C5A3FF1FCDA3FF1FEF9AFF1FB3
:2019800000E100E004E100E008E100E0F8B5434E8B18F02BF37ACCBFC1F1F0051546EBB166
:2019A00072B6F37ADC071A4606D53D4CF26827683A40B26122601A469F0706D5394C3369F1
:2019C0002768F27A3B40F3612360540705D5364A7369146823403362136062B63368DA684D
:2019E000B2F1384F09D0314C1C60314A4FF038474FF07844DF601C611A6089B24B1E82B2A9
:201A00002B449BB21046FFF72DFE2A4B2A491B781B0443F0004343F02C034B63CB6A03F447
:201A2000704213F0F00F18BF8B6BB2F5405FF5D82249234A234B127808781B781E4C42EA99
:201A400000202A4640EA0343012A43F010450DDD6563E36A03F4704113F0F00F18BFA36B45
:201A6000B1F5405FF5D8013A012AF1DCFFF7D0FDF37A0A491A4683B1D80703D5124A896905
:201A800011601A46990703D5104BF169F27A1960530702D50E4B326A1A60F8BD1C8DFF1F47
:201AA00080E100E084E100E088E100E001401F0000001F80ECA5FF1F00C00240C5A3FF1F21
:201AC000CDA3FF1FEF9AFF1F00E100E004E100E008E100E0F0B5584EF57AF5B172B6F37A8D
:201AE000DF071A4606D5554CF26825682A40B26122601A469D0706D5514C33692568F27A2D
:201B00002B40F3612360540705D54E4A7369146823403362136062B6F57A3368DA68B2F1EC
:201B2000384F09D0484C1C60484A4FF038474FF07844DF601C611A60454C4FF6FF73E26A20
:201B4000013B12F4704F9BB201D0002BF7D1404B4FF00042DA621C464FF6FF73E26A013B8A
:201B6000002A9BB201DB002BF8D1394CE36AC3F30313002B4FD1374A354F1478DFF8E4E009
:201B8000220442F0004444F0D9047C639EF8004002431031200442F00042014379633C4623
:201BA0007A634FF6FF727863E16A013A11F4704F92B201D0002AF7D1254A4FF00041D16244
:201BC00011464FF6FF72C86A013A002892B201DB002AF8D11E49CA6A12F0F00F0FD165B1BE
:201BE000E80724D4A90703D51B4AF169F57A11606A0702D5194A316A11601846F0BD0F22E4
:201C00008B6BCC6A013A14F0F00FDBB292B2E6D0002AF5D1E3E70F22A36BE76A013A17F047
:201C2000F00FDBB292B2A6D0002AF5D1A3E70C4AB169F57A1160D5E71C8DFF1F80E100E0D0
:201C400084E100E088E100E001401F0000001F8000C00240ECA5FF1F04E100E008E100E0B8
:201C600000E100E0EF9AFF1F38B53F4CE37AEBB172B6E37AD9071A4606D53C49E2680D68A7
:201C80002A40A2610A601A469B0706D5384923690D68E27A2B40E3610B60550705D5354AE3
:201CA000636911680B402362136062B62368DA68B2F1384F09D030491960304A4FF038458C
:201CC0004FF07841DD6019611A602D4B2D491B781B0443F0004343F036034B63CB6A03F47F
:201CE000704213F0F00F18BF8B6BB2F5405FF5D800F00300244B022818702DD003281DD027
:201D0000012822D04820FFF759FC204B01221A70E37A15491A4683B1D80703D51C4A89697F
:201D200011601A46990703D51A4BE169E27A1960530702D5184B226A1A6038BDE820FFF749
:201D40003DFC124B00221A70E2E72820FFF736FC0E4B00221A70DBE78820FFF72FFC0B4B22
:201D600001221A70D4E700BF1C8DFF1F80E100E084E100E088E100E001401F0000001F80A7
:201D8000ECA5FF1F00C00240C4A2FF1FB49BFF1F00E100E004E100E008E100E02DE9F0410B
:201DA000814D06222846152118F054FF28B97F4A7F4B10701870BDE8F0811521284618F0F0
:201DC00077FF7A4F7A4E38700621284618F070FF3B78002103430F203370FFF77BFEEB7A88
:201DE0000446BBB172B6EB7AD8071A4600F1D380990706D56F492B690868EA7A0340EB61F3
:201E00000B60530705D56C4A6B6911680B402B62136062B62B68DA68B2F1384F09D0674935
:201E20001960674A4FF038404FF07841D86019611A6096F800803F7862486349042303F167
:201E4000FF3E4FEA08483F045FFA8EFE9BB3437843EA080343F000434B6300F1020CCB6AFB
:201E600003F4704213F0F00F18BF8B6BB2F5405FF5D80EF1020606446046B04211D010F805
:201E8000013B3B4343F000434B63CB6A03F4704213F0F00F18BF8B6BB2F5405FF5D8B042B2
:201EA000EDD11CF80E300CEB0E0003F1FF3E5FFA8EFE002BCBD11120FFF756FBEB7A3A49D0
:201EC0001A4683B1D80703D5404A896911601A469F0703D53E4BE969EA7A1960560702D500
:201EE0003C4B2A6A1A6078201AF052F8EB7A2E49EBB172B6CB7AD8071A4606D53648CA68B2
:201F0000066832408A6102601A469F0706D529492B690868EA7A0340EB610B60560705D5A8
:201F2000254A6B6911680B402B62136062B62B68DA68B2F1384F09D020491960204A4FF01F
:201F400038404FF07841D86019611A602920FFF70BFBEB7A14491A4683B1D80703D51B4A2E
:201F6000896911601A46990703D5194BE969EA7A1960530702D5174B2A6A1A60174A184B2E
:201F800000252D201D701560FFF76EFE154B20461D70BDE8F0811049EA6808680240AA619A
:201FA0000A601A4624E700BF1C8DFF1FEF9AFF1FECA5FF1F84E100E088E100E001401F0082
:201FC00000001F80B03D030000C0024000E100E004E100E008E100E080E100E0AC9BFF1F7B
:201FE000D098FF1F08A4FF1F10B5FFF7D7FEE02818BF0A2410D00A2019F0CAFFFFF7CEFE56
:20200000E02804F1FF3307D013F0FF04F3D1084A137823F002031370702019F0B9FB054BDB
:20202000012895BF00F00100002218701A7010BD2188FF1F9EA3FF1FF8B5364C2478012C13
:2020400007D0354C24787CB1344A354B10801980F8BDC2F1EF041A46C0F1EF030846214625
:202060002D4C2478002CEFD12E4CE57A1DB372B6E57AEF072E4609D5DFF8C4E0E768DEF847
:2020800000603E40A661CEF800602E46AF0709D5DFF8B0E02769DEF80050E67A3D40E561ED
:2020A000CEF80050750705D51F4E656937683D402562356062B62568EE68B6F1384F09D03F
:2020C0001A4F2F604FF03847EF60194E4FF078472F612E609BB292B289B280B2FFF7C2FAC8
:2020E0002C20FFF741FAE37A0E491A46002BAFD0D80703D50F4A896911601A46990703D55A
:202100000D4BE169E27A19605307A1D50B4B226A1A60F8BDB49BFF1F08A4FF1F5CA3FF1F13
:202120005EA3FF1F1C8DFF1F88E100E001401F0000001F8000E100E004E100E008E100E022
:2021400080E100E084E100E0074B197831B10021084640F23F13EF22FFF76EBFEF2340F2C9
:202160003F120846FFF768BFB49BFF1F38B53A4B1B789BB1394B1B78012B59D0384B394A73
:202180001B88128803EB830302EB4313B3F5964F03DA354A126822F8130038BD334CE37AEA
:2021A000EBB172B6E37AD9071A4606D53049E2680D682A40A2610A601A469B0706D52D4981
:2021C00023690D68E27A2B40E3610B60550705D5294A636911680B402362136062B62368B4
:2021E000DA68B2F1384F09D024491960244A4FF038454FF07841DD6019611A6080B2FFF739
:2022000007FAE37A19491A46002BC6D0D80703D51C4A896911601A46990703D51A4BE169D6
:20222000E27A19605307B8D5184B226A1A6038BD174B1B78002BA1D0094B0A4A1B8812880E
:2022400003EB830302EB8313B3F5963FA5DA114A126822F8130038BD08A4FF1FC89BFF1F49
:202260005EA3FF1F5CA3FF1FBC98FF1F1C8DFF1F80E100E084E100E088E100E001401F00BA
:2022800000001F8000E100E004E100E008E100E02C9BFF1FC898FF1F2DE9F04F564C267858
:2022A00085B093461F4605460C46002E48D0534B1B78002B7CD104EBD47407EBD777641034
:2022C0007F1005EBD5750BEBDB7BBC424FEA65054FEA6B0B73D05D4536D1CBEB0503A74206
:2022E00001934FF0FF3838DCE31B0293029A01998A424FF0FF3938D8019BDFF80CA1CDF8BF
:202300000C905E083E4B76422F46994623463A4621463846FFF790FE9AF8000099F8003081
:2023200043EA0020FFF722FF5D45454449D0029BF61803D4039B1C44019BF61A4744E5E772
:20234000994241D0904249D05D45C6DAC5EB0B03A74201934FF00108C6DD3B1B0293029AB7
:2023600001998A424FF00109C6D9254BDFF898A0CDF80C8056087642A34698465B462A4651
:2023800059462846FFF758FE9AF8000098F8003043EA0020FFF7EAFEBC424C4411D0019B5C
:2023A000F61803D4039B1D44029BF61ACB44E5E7144B1B78002B3FF47EAFBC428BD127466D
:2023C00089E705B0BDE8F08FB5F5A07F01DAEF2C0DDD05B0BDE8F04FFFF7B6BEB5F5A07F3F
:2023E000F7DAEF2CF5DC3A1BFFF7D0FAF1E7C5EB0B02FFF725FAECE708A4FF1FC89BFF1F43
:20240000CDA3FF1F2C9BFF1FC5A3FF1F2DE9F041404DEB7A0646EBB172B6EB7AD9071A46D5
:2024200006D53D49EA6808680240AA610A601A469F0706D539492B690868EA7A0340EB6168
:202440000B60540705D5364A6B6911680B402B62136062B62B68DA68B2F1384F09D031495A
:202460001960314A4FF038404FF07841D86019611A600021EF2340F23F120846FFF7F2F8A9
:202480002A4B2B4A1B781B0443F0004343F02C0353631346DA6A02F4704112F0F00F18BFF6
:2024A0009A6BB1F5405FF5D8DFF89480204CB6B2F02798F8000046EA004040F0104040F27D
:2024C0003F116063E36A03F4704213F0F00F18BFA36BB2F5405FF5D80139F2D13046FFF790
:2024E00097F8013FE5D1EB7A0A491A4683B1D80703D5104A896911601A46990703D50E4B66
:20250000E969EA7A1960530702D50C4B2A6A1A60BDE8F0811C8DFF1F80E100E084E100E093
:2025200088E100E001401F0000001F80ECA5FF1F00C0024000E100E004E100E008E100E053
:20254000EF9AFF1F90422DE9F041044617460D461E4601DD14460746B54202DD2B46354616
:202560001E46B4F5A07F07DAEF2DC4EB070812DDEF2E22DDBDE8F081B7F5A07F09DAEF2D89
:20258000F8DC761B324629463846BDE8F041FFF7FDB9BDE8F081424629462046FFF750F93D
:2025A000EF2E0ADD761B204632462946FFF7EEF9B7F5A07FE6DBBDE8F08142463146204655
:2025C000FFF73EF9EF2DEDDDBDE8F08190422DE9F84302DD044610462246994202DD0C46BC
:2025E00019462346B0F5A07F80F29680EF2900F39380B2F5A07F504FD4BF161AC0F5A076B6
:20260000F02BD8BF5D1AFB7AC8BFC1F1F005D3B172B6FB7ADC071A4600F182809B0709D517
:20262000DFF844E13C69DEF80030FA7A2340FB61CEF80030540705D5404A7B691468234048
:202640003B62136062B63B68DA68B2F1384F09D03B4C1C604FF03844DC603A4A4FF07844F1
:202660001C611A6089B280B24B1E421E2B4432449BB292B2FEF7F6FF334B34491B781B0420
:2026800043F0004343F02C034B63CB6A03F4704213F0F00F18BF8B6BB2F5405FF5D82C4A7E
:2026A0002C4B92F800801B78002D43EA08281EDD264C1FFA88F9012E14DD274B187848EA21
:2026C000004040F0104031466063E36A03F4704213F0F00F18BFA36BB2F5405FF5D80139D6
:2026E0000129F1D14846FEF793FF013DE3D1FB7A11491A4693B1D80703D5184A89691160F8
:202700001A46990703D5164BF969FA7A1960530702D5144B3A6A1A60BDE8F883BDE8F88343
:20272000DFF848E0FC68DEF800202240BA61CEF800201A4672E700BF1C8DFF1F88E100E055
:2027400001401F0000001F80ECA5FF1F00C00240C5A3FF1FCDA3FF1FEF9AFF1F00E100E04D
:2027600004E100E008E100E084E100E080E100E02DE9F04F904283B0054616460C461F468D
:2027800001DD15460646BC4202DD23463C461F46C5EB0608B8F1040F39DDC4EB0709B9F18E
:2027A000040F34DD05F1010ABAF5A07F04F1010330D306F1FF3BBBF5A07F32D305F1020A23
:2027C000BAF5A07F05DAEF2CA8F1040846DDEF2F3EDDB5F5A07F04F10204A9F1040911DADA
:2027E000EF2C14DC28464A462146FFF7CFF8B6F5A07F0CDA4A462146304603B0BDE8F04FF8
:20280000FFF7C4B8B6F5A07F01DAEF2CF2DD03B0BDE8F08FEF2B2CD906F1FF3BBBF5A07FC1
:202820002ED2EF2B20D9BAF5A07F07F1FF330CD2EF2BC3D8194650460193FEF77FFF019B62
:2028400019465846FEF77AFFB8E7EF2BB6D8F7E7424639465046FEF7F3FFBAE742462146D4
:202860005046FEF7EDFFB2E719465846FEF766FFD9E7194650460193FEF760FF019BCBE706
:20288000791EEF299AD85046FEF758FF96E700BF2DE9F04F904283B005460F461E4601DDBD
:2028A00015460246B74202DD3B4637461E46541B042C38DDC7EB0608B8F1040F33DD07F103
:2028C000010BA31E4FF00009CDF800B04FEA6808B34605F1010A264601934C4634BB05F154
:2028E0000209B9F5A07F06DAEF2FA6F1040420DDBBF1EF0F25DDBAF5A07F06DA009BEF2B57
:2029000034DD0BF1FF31EF292BDD0224B5F5A07F06DA3919EF291FDDC4EB0B01EF2916DD5F
:2029200001344445DADD03B0BDE8F08F012CE2D0ECE7224639464846FEF782FFBBF1EF0F04
:20294000D9DC224648465946FEF77AFFD3E732462846FEF775FFE3E732462846FEF770FFA2
:20296000DAE7019A5046FEF76BFFCEE7019A19465046FEF765FFC4E72DE9F04F834B8BB05F
:202980001B7809900391924693B1814B1B78002B40F0F680099B03EBD371039B03EBD37284
:2029A00049100AEBDA735210099103924FEA630A039FDDF82480774C774D07EB0A094FEA65
:2029C0004A0649464B464246404676420896FFF733FB2B782078CAEB070243EA00203E4635
:2029E00007921746FFF7C2FB4246394610463B46FFF722FB2B78207808EB0A0B43EA0020AD
:202A0000FFF7B4FB5A46584633463146FFF714FB2B782078CAEB08010F4643EA00200691AC
:202A2000FFF7A4FB3A46384633463146FFF704FB2B78207843EA0020CAF101030193FFF74D
:202A400095FBBAF1000F40F396800127CDF80890099904977E0001EB0709C6EB0903009357
:202A6000039B03EB0708C6EB080306F1010E019E0593002E4A46484607F1010712DB089BE6
:202A800002331E440893039B01960AF1FF3A03EB0A06CAEB03030793CAEB0103029601EB0B
:202AA0000A0B06930299019E0B4676440196FFF7C3FA2B78207843EA0020FFF757FB02996E
:202AC00000980B460246FFF7B7FA2B78207843EA0020FFF74BFB079E4A46314633464846A7
:202AE000FFF7AAFA2B78207843EA0020FFF73EFB009A314610463346FFF79EFA2B782078DC
:202B000043EA0020FFF732FB414643465A465846FFF792FA2B78207843EA0020FFF726FBD6
:202B2000069E4146434632463046FFF785FA2B78207843EA0020FFF719FBDDF814805A46E3
:202B4000414643465846FFF777FA2B78207843EA0020FFF70BFB4346324641463046FFF7E8
:202B60006BFA2B78207843EA0020FFF7FFFA049B9A453FF76DAF0BB0BDE8F04FFFF7E4BA76
:202B8000064B1B78002B7FF413AF03E708A4FF1FC89BFF1FC5A3FF1FCDA3FF1F2C9BFF1FC3
:202BA0002DE9F04F924B85B01B7803910546019273B1904B1B78002B40F0C780039B03EBE9
:202BC000D372019B03EBD37352105B1003920193894B1A78002A60D1884BDFF830A21C7819
:202BE000002C00F0B8809AF804109AF805009AF806B0CB0813FB00F0CBEB050B00FB0BFB64
:202C00000BF104040094002842D0DFF80892DFF8F88102920398029AB2FBF3F30A18019907
:202C20000B441946013AFFF707FA9AF80410CB085F1E0BB3724E734DDAF80030DA19009BF0
:202C4000D45C4FF0000B44FA0BF3DA0747BF98F800002B7899F8000033780BF1010B43EA33
:202C60000020FFF783FABBF1080FECD117F1FF37E2D29AF80410CB0802989AF80520009CE9
:202C8000184403FB02F21C44824202900094C1D805B0BDE8F04FFFF757BADFF870A19AF8E9
:202CA00004209AF805109AF80600D20802FB01F32D1A03FB05F52B1D00930029E8D0019B4F
:202CC0005F1C02F0FF038AB3DDF80CB007F1FF384FF00009DAF80030009A4B4458469E5C7D
:202CE000072402E0631C284617D0451C3B462A464146FFF7A1F946FA04F313F0010F04F14B
:202D0000FF34EFD0404B18783E4B1B7843EA0020FFF72CFA631C2846E7D19AF8043009F1BC
:202D20000109DB084B450BF1080BD3DC019A00989AF80510BA1A18449142009007F10107EB
:202D4000A6D9324B1A79D208BBE7314B1B78002B7FF43EAF32E701999AF805309AF804209E
:202D600003980B440244013B013AFFF765F99AF804109AF806309AF80520C908ED1A11FB4F
:202D800002F202FB05F52B1D0093002A80D0DFF88490DFF86C801C4F1A4EA346DAF8003087
:202DA000009A9C5C072544FA05F2D10747BF3878327899F8000098F8002042EA0020FFF765
:202DC000D5F915F1FF35EED29AF804209AF80530D20812FB03F3009A0BF1010B01325B455C
:202DE0000092DBD805B0BDE8F04FFFF7ADB900BF08A4FF1FC89BFF1FD098FF1FB49BFF1F9C
:202E0000B8A2FF1FCDA3FF1FC5A3FF1FAC9BFF1F2C9BFF1F10A2FF1F174BF0B41B6804334C
:202E20001A780A705C784C609E788E60DD78CD601C797F2CC8BFC4F580740C619F1D82421F
:202E40005B794B610BD0FF2A12D016FB05F56EB16B1E48BFAB1D07EBE3030133E0E7B2F114
:202E6000FF0018BF01208F61F0BC70473B46D7E700208F61F0BC7047AC9BFF1F2DE9F04F9C
:202E80008BB08B4603A90192FFF7C6FF00284FD0354C364D364B21782A781B7842EA012243
:202EA0000092002B47D0059B002B40D0069A002A3DDD4FF00008099FC14646468025002B2D
:202EC0002EDD019A00210C4602EB080A09E02A4616424FEA550510D10134E4B29C422146A5
:202EE0001DDA03FB08125207F1D13E78802216424FF0400507F10107EED0079A049B5A44D8
:202F00000A44534419461046FFF796F80098FFF72DF90134059BE4B29C422146E1DB069AD3
:202F200009F101095FFA89F99145C846C7DB08980BB0BDE8F08F0F490F4B0978089A5B7904
:202F40000E482170019906782E705A440B4401325846FFF73BFB009A2A70130A2370059B66
:202F6000002BA3D1E3E700BFC5A3FF1FCDA3FF1FD098FF1F10A2FF1FAC9BFF1FB8A2FF1FE2
:202F80002DE9F04F93B008910BA909920593FFF743FF002800F08F80DDF83480B8F1000F79
:202FA00000F086801C981DF043F853491DF094F81CF008FC04460D461AF0E8FF1CF02EFF13
:202FC0002946009020461BF02BF81CF027FF0E9B002B83466CDD4948494900780978119A7F
:202FE0000692002741EA0022079202974FF0800AC146B9F1000F58DD08981DF019F8039084
:2030000009981DF015F800240490C8463CE0CDF804A04FEA5A0A059BE0181DF009F805461C
:203020000C9838441DF004F82946064600981DF053F83146814658461DF04EF801464846B8
:203040001CF040FF03991CF03FFF1DF021FA3146814600981DF040F82946064658461DF096
:203060003BF8014630461CF02FFF04991CF02CFF1DF00EFA029B019A13421FD1214B1B78C1
:2030800043B30134A0450EDD08FB07435B07BED1069A1378029313460133069380234FF02F
:2030A000400A0193B7E70E9BC1460137BB42A0DCFFF74AF8109813B0BDE8F08F03460146DC
:2030C0004A464846FEF7B8FF0798FFF74FF8DDF83480D6E7034601464A464846FEF7ACFFB6
:2030E000094B1878094B1B7843EA0020FFF73EF8DDF83480C5E700BF295C8F3CC5A3FF1FC2
:20310000CDA3FF1FD098FF1F10A2FF1FB8A2FF1F2DE9F04F95B004461E9813929B46129190
:203120001CF086FF6449DFF8A0811CF0D5FF1CF049FB98F8046098F80630CDE9100198F818
:203140000510F208E41A02FB01F303FB04F3181D0E90002900F0AA8000210F9102F0FF03B1
:20316000002A00F08B8012981CF01AFBCDE90001DDE910011AF00AFF81468A460F98CDE9CA
:20318000029A1CF00DFB04460D46DDE910011AF047FF02460B4620462946CDE904231CF064
:2031A00065FBCDE9060113981CF0FAFA2B46CDE908012246484651461CF058FBCDE90A016A
:2031C00000230D93D8F800300E9A0D9913444FEAC10913F801A009F107090724304608E045
:2031E000364B1B78002B58D014F1FF343DD398F80400C4EB09030BFB00301CF0D1FADDE9FE
:20320000022306460F461CF031FBDDE906231CF079F9DDE900231CF077F91CF0D7FDDDE938
:2032200004230546394630461CF020FBDDE90A231CF06AF9DDE908231CF066F91CF0C6FD73
:203240006A1C431C01462846FEF7F6FE4AFA04F3DB07C5D51A4A1B4B10781B7843EA002002
:20326000FEF784FF14F1FF34C1D20D9B98F8046001331A460D93F3089342A3DC0F990E9C9A
:2032800098F8052010480131C9B21C448A420F910E940BD90679F20860E70C4B18780C4B24
:2032A0001B7843EA0020FEF761FF9DE715B0BDE8F04FFEF749BF00BF295C8F3CD098FF1F1A
:2032C000C5A3FF1FCDA3FF1FAC9BFF1F10A2FF1FB8A2FF1F2DE9F04F83B098460C46174618
:2032E00006461EF04DFA4E4B1B7882464BB14D4B1B78002B61D104EBD47407EBD7776410CA
:203300007F10494B1B78002B43D142F20F739C4277D042F20E739C425AD0BAF1000F16DD73
:203320004FF0000BDFF804915D46B8F1000F11D199F8043021463A46CBB93078FFF79EFD31
:20334000013004440135AA4506F10106EDD103B0BDE8F08F99F804005B463A46214678B9EE
:203360003078CDF80080FFF70BFE8344EAE721463A463078FFF714FC2C4B1B791C44E1E701
:203380003078CDF800802B463A462146FFF7C0FED8E742F20F739C4226D042F20E739C4258
:2033A000BBD1DFF8889099F804400AFB04F4C4F1F00404EBD4746410AFE71D4B1B78002BB0
:2033C0009FD104EBD47407EBD77764107F1098E7DFF8589099F804400AFB04F4C4F5A07426
:2033E00004EBD474641098E7DFF8409099F804400AFB04F4C4F1F00442F20E739C428CD191
:20340000CFE7DFF8289099F804400AFB04F4C4F5A07442F20E739C427FF47FAFD8E700BF16
:2034200008A4FF1FC89BFF1FB49BFF1FAC9BFF1F2C9BFF1F2DE9F041856805F1080424F040
:20344000070400AFADEB040D16460C4698466A1C694600231AF0D6FB434632462146684634
:20346000FFF738FFBD46BDE8F08100BF2DE9F0418568DFF84080DFF840E088F8003005F1DF
:20348000080424F0070400AFADEB040D4FEA132C0C46164669466A1C00238EF800C01AF0DB
:2034A000B1FB3246214668460023FFF713FFBD46BDE8F081CDA3FF1FC5A3FF1F2DE9F0472E
:2034C0008EB000289DF858C01CD1002B6FD0012B79DD07A89D1E05440DF11B0404F801CF64
:2034E000A542FBD15C1E0EAD2C442B443026002504F81C6C03F81C5C0023FFF7EBFE0EB0D3
:20350000BDE8F087B4BF01260026DFF8C4E0B8BF4042B0460DF1FF3700258EFB0049C4175F
:20352000C4EBA90404EB8404A0EB4404001B8EFB00A9C0173034D0EBA90005F1010507F8FE
:20354000014FEAD10EAC2C4404F8380CB8F1000F02D02D208DF81C00AF19BB420EDD5B1B58
:203560009B1B002B0ADD741E03EB040E07A88644044404F801CF7445FBD101E0002307A82C
:20358000F418013CEE4604446D4415F8016D04F8016F7545F9D10EAC23443B44002403F88B
:2035A0001C4C0023FFF796FE0EB0BDE8F08730208DF81D308DF81C00002307A8FFF78AFE09
:2035C0000EB0BDE8F0870446012307A88BE700BF676666662DE9F04FA14D89B0ED7A129C99
:2035E000139F049306469346002D25D072B69C4BDB7AD8071A4608D59A48994A0568D2684F
:203600002A40974DAA6102601A469B0709D59648934B05681B69924A2B40914DD27AEB61A5
:203620000360550707D5914A8D4B10685B6903408B480362136062B6894B1B68DA68B2F1BE
:20364000384F09D08A4818604FF03840D860894A4FF0784018611A60012F874B00F0BB80E7
:203660001A78049B002A6AD0002B43DDB3B2BAB20193013B1BFB02339BB202934FEA4B0315
:203680000693002307921FFA81FA0593CDF80CB0069B002F04EB0309C8BF4FF000081EDD94
:2036A0000AEB08039BB21946029A0198FDF7DAFF2C20FDF759FF039B002BC8BF4E460ADDF9
:2036C00036F802BD002501355846FDF7A1FFAF42F9D1B442F4D108F101084745E0D1079B19
:2036E000049A9A44059B01339A4205931FFA8AFA4C46CDD10021084640F23F13EF22FDF741
:20370000B1FF2C20FDF730FF554B5549DB7A1A4693B1D80703D5594A896911601A46990796
:2037200004D54F4A564BD169D27A1960530703D54B4A544B126A1A6009B0BDE8F08F002B13
:203740003EDDB3B2B8B20693013B1BFB00339BB207934FEA4B03059089B201920293059B5B
:20376000079A069801EB030A1FFA8AF30393FDF779FF2C20FDF7F8FE029B002F04EB03087D
:20378000C8BF4FF0000913DDBBF1000FC8BFA2460ADD3AF8026B002501353046FDF738FFBE
:2037A000AF42F9D1D045F4D109F101094F45EBD1019B049A039901339A4201934446CED17D
:2037C00000210846EF2340F23F12FDF74BFF2C20FDF7CAFE98E71B7843B3049B002B89DD67
:2037E000049B06EB0B080B44019308F1FF330D4602934FEA4B0A2746D9462B46029A29469A
:203800003046FEF719FCBBF1000FC8BF04EB490805DD38F8020DFDF7FBFE4745F9D1019BA6
:2038200001359D425744D944E7D163E7049D2B460B4406EB0B02013B0BFB05FB013A304667
:20384000FEF7FAFBBBF1000FC8BF04EB4B0BB7DD34F8020BFDF7DCFEA345F9D1B0E700BF54
:203860001C8DFF1F80E100E084E100E088E100E001401F0000001F80B49BFF1F00E100E085
:2038800004E100E008E100E02DE9F0478D4FDDF820A0FC7A099D8E4616469946BCB172B61C
:2038A000FB7AD9071A4600F105819B0706D5864C39692368FA7A0B40FB612360540705D58D
:2038C000824A7B69146823403B62136062B63B68DA68B2F1384F09D07D4C1C604FF0384449
:2038E000DC607C4A4FF078441C611A601FFA8EF180B209F1FF33721E0B4402449BB292B228
:20390000FDF7B0FE744B75491B781B0443F0004343F02C034B63CB6A03F4704213F0F00F70
:2039200018BF8B6BB2F5405FF5D8B9F1000F40F3A880DFF8BC81694C98F80000042E514671
:203940004FEA004054DDB6460B789B0935F81330034343F010436363E36A03F4704213F09F
:20396000F00F18BFA36BB2F5405FF5D80B78C3F3011335F81330034343F010436363E36AB4
:2039800003F4704213F0F00F18BFA36BB2F5405FF5D80B78C3F3810335F81330034343F0DE
:2039A00010436363E36A03F4704213F0F00F18BFA36BB2F5405FF5D811F8013B03F00303C0
:2039C00035F81330034343F010436363E36A03F4704213F0F00F18BFA36BB2F5405FF5D8F5
:2039E000AEF1040E1FFA8EF3042B0FFA83FEABD80B789B0935F81330034343F01043636317
:203A0000E36A03F4704213F0F00F18BFA36BB2F5405FF5D80B78C3F3011335F813300343B3
:203A200043F010436363E36A03F4704213F0F00F18BFA36BB2F5405FF5D80B78C3F381038D
:203A400035F81330034343F010436363E36A03F4704213F0F00F18BFA36BB2F5405FF5D874
:203A60000B7803F0030301F1010A35F81300FDF7CFFD09F1FF339BB20FFA83F9002B7FF431
:203A80005BAFFB7A0F491A4693B1D80703D5144A896911601A46990703D5124BF969FA7A28
:203AA0001960530702D5104B3A6A1A60BDE8F087BDE8F0870D4CF96822680A40BA61226080
:203AC0001A46F2E61C8DFF1F84E100E088E100E001401F0000001F80ECA5FF1F00C00240A9
:203AE00000E100E004E100E008E100E080E100E0EF9AFF1F2DE9F047664FDDF820A0FC7A82
:203B0000099D8E4616469946BCB172B6FB7AD9071A4600F1B7809B0706D55F4C3969236829
:203B2000FA7A0B40FB612360540705D55B4A7B69146823403B62136062B63B68DA68B2F19A
:203B4000384F09D0564C1C604FF03844DC60554A4FF078441C611A601FFA8EF180B209F19B
:203B6000FF33721E0B4402449BB292B2FDF77AFD4D4B4E491B781B0443F0004343F02C0339
:203B80004B63CB6A03F4704213F0F00F18BF8B6BB2F5405FF5D8B9F1000F5ADDDFF820814F
:203BA000424C98F80000022E51464FEA00402EDDB6460B781B0935F81330034343F01043BD
:203BC0006363E36A03F4704213F0F00F18BFA36BB2F5405FF5D811F8013B03F00F0335F8B8
:203BE0001330034343F010436363E36A03F4704213F0F00F18BFA36BB2F5405FF5D8AEF161
:203C0000020E1FFA8EF3022B0FFA83FED1D80B781B0935F81330034343F010436363E36AA4
:203C200003F4704213F0F00F18BFA36BB2F5405FF5D80B7803F00F0301F1010A35F813001C
:203C4000FDF7E6FC09F1FF339BB20FFA83F9002BA7D1FB7A0F491A4693B1D80703D5144A67
:203C6000896911601A46990703D5124BF969FA7A1960530702D5104B3A6A1A60BDE8F08797
:203C8000BDE8F0870D4CF96822680A40BA6122601A4640E71C8DFF1F84E100E088E100E001
:203CA00001401F0000001F80ECA5FF1F00C0024000E100E004E100E008E100E080E100E0C4
:203CC000EF9AFF1F2DE9F8437F4DEB7A80460C46EBB172B6EB7AD9071A4606D57B49EA6849
:203CE00008680240AA610A601A469F0706D578492B690868EA7A0340EB610B60560705D562
:203D0000744A6B6911680B402B62136062B62B68DA68B2F1384F09D06F4919606F4A4FF034
:203D200038404FF07841D86019611A600021EF2340F23F120846FDF795FC694B694A1B7864
:203D40001B0443F0004343F02C0353631346DA6A02F4704112F0F00F18BF9A6BB1F5405F50
:203D6000F5D8002C00F0918008F517495E4E5D4C08F59E7709F13C09A8F1020896F800E035
:203D800040464FEA0E4E30F8021F41EA0E0141F010416163E36A03F4704213F0F00F18BF70
:203DA000A36BB2F5405FF5D86163E36A03F4704213F0F00F18BFA36BB2F5405FF5D8874265
:203DC000E1D1788840EA0E0343F010436363E36A03F4704213F0F00F18BFA36BB2F5405F87
:203DE000F5D8FDF715FC96F800E040464FEA0E4E30F8021F41EA0E0141F010416163E36A52
:203E000003F4704213F0F00F18BFA36BB2F5405FF5D86163E36A03F4704213F0F00F18BF6C
:203E2000A36BB2F5405FF5D88742E1D1788840EA0E0343F010436363E36A03F4704213F066
:203E4000F00F18BFA36BB2F5405FF5D807F5A077FDF7DEFBB94508F5A0788FD1EB7A1A4950
:203E60001A4683B1D80703D5204A896911601A46990703D51E4BE969EA7A1960530702D589
:203E80001C4B2A6A1A60BDE8F883174B1549187808F51534000404F2FE3638F8023B034316
:203EA00043F010434B63CB6A03F4704213F0F00F18BF8B6BB2F5405FF5D84645EDD1B4F819
:203EC000FE03FDF7A5FBC9E71C8DFF1F80E100E084E100E088E100E001401F0000001F8008
:203EE000ECA5FF1F00C00240EF9AFF1F00E100E004E100E008E100E010B52A4904461CF08D
:203F00009DFA08B1642010BD4FF0814120461CF095FA08B15A2010BD234920461CF08EFA98
:203F200008B1502010BD214920461CF087FA08B1462010BD1E4920461CF080FA08B13C20DA
:203F400010BD1C4920461CF079FA08B1322010BD194920461CF072FA08B1282010BD174904
:203F600020461CF06BFA08B11E2010BD144920461CF064FA08B1142010BD124920461CF0F2
:203F80005DFA08B10A2010BD20460F491CF056FA4FF0010300B9034683F00100C0B2404253
:203FA00010BD00BF333383401F857B40EC5178408FC2754033337340D7A3704052B86E40F7
:203FC000CDCC6C40713D6A40000040401E4B1B7810B43BB11D491E4B4FF480704FF4107251
:203FE00008601A601B4BDA7AEAB172B6DA7AD407114606D51848D968046821409961016038
:204000001146900706D515481A690468D97A2240DA6102604A0705D511495A69086802403F
:204020001A620A6062B61B680E4AD968914206D00D4C0E480E491C60DA60186119600021EE
:204040000F2010BC17F066BFEFA5FF1F14B0044004C004401C8DFF1F80E100E084E100E02A
:2040600088E100E0000001BA01401F00000001FA00001F8010B4124A1248D37A01240460F2
:204080008BB1DC07194603D50F49906908601946980703D50D4BD069D17A18604B0702D5BE
:2040A0000B4B126A1A600B4B1B783BB10A490B4B4FF410704FF4807208601A6010BC7047D9
:2040C0001C8DFF1F84F00F4000E100E004E100E008E100E0EFA5FF1F14B0044004C0044045
:2040E0002DE9F04F00F001024308960003EB830316445A0187B002EB0612C2F59556DFF8B9
:2041000080E15B4F019605921646C2F5155202929EF8008097F800A0029A564C564B94F8A8
:2041200000901C68554BC6F59547C6F5605E019E04970139009106F11F0100EB800501919D
:204140001146049AAD013F31C5F595477F3200EB800B02910EF13F0104926E4203914FEAAA
:204160004B1B7F37A03500221AE0B9F1000F25D002EB0B0104EB810E24F8210004EB45019B
:20418000AEF8020024F8150048800132502A03F10203A7F10207A6F1020605F1020535D096
:2041A0001879597951EA002031D0B8F1010F1DD0BAF1000FD9D1B9F1000FD9D002EB0B01DB
:2041C000A1F515513F3906F5944C06F5944EC1EB81710CF15F0C0EF15E0E24F8170024F8F3
:2041E000210024F81C0024F81E00CEE70099B9F1000F05D10329C8D8DFE801F035302B2615
:204200000329C2D8DFE801F01B140D06012007B0BDE8F08F0599511801F5615124F8110006
:20422000B3E70599511801F5165124F81100ACE70599511801F5965124F81100A5E7059985
:20424000511824F81100A0E70199891A24F811009BE70299891A24F8110096E70399891A2E
:2042600024F8110091E70499891A24F811008CE7EFA5FF1F9EA3FF1FBC98FF1F14A2FF1F62
:2042800059A3FF1F70B5124CA42205460E461148214616F02DFD237803F00F020F2A04D080
:2042A0006278AA4203D0032070BD012070BD142A01D0002070BD084A1278012AF9D11B116E
:2042C00001D1042070BDB34214BF0220002070BD14A2FF1F1C8DFF1F59A3FF1F2DE9F8437E
:2042E000224BDFF88C801B78012B0CBF4FF004094FF00109FFF76AFE01260027FF2F27D07E
:20430000002405E02846FFF7EBFE50B13C2C17D0E5B231462846FFF7B5FF013431460028FD
:20432000F0D017F011FE0137FFB2044600E000BF17F00AFE001BB0F5C87FF8D33C2DDDD1DD
:204340000136F6B2B145D8D2BDE8F843FFF792BE98F80030012BF7D0FFF78CFEBA2017F0A4
:2043600017FE0126FFF732FE0027C9E759A3FF1F009BFF1F2DE9F0410B4E0C4CDFF83080B2
:204380004FF480754FF4107735602760FCF728FB404615F073FE98F8043037605B0800FB34
:2043A00003F02560BDE8F08114B0044004C00440CC9BFF1FF8B50A4E0A4C0B484FF48075F4
:2043C0004FF410773560276016F0F8F9074A00F2FF7310603760C3F3CF202560F8BD00BFA6
:2043E00014B0044004C004402CA0FF1FC8A3FF1F30B58DB0FFF7DEFF48B30446FFF7BAFF51
:204400000A22810A684619F049FB694604A819F013FB104904A819F0CBFB0A220546611EAE
:2044200008A819F03BFB08A9284619F0B9FB0A4919F0BEFB0146094819F058FB08A819F0EF
:20444000A7FA04A819F0A4FA684619F0A1FA0DB030BD00BF087C02000C7C020060A3FF1F7C
:2044600038B51D481D4B1E494FF410724FF4807404601A60A1F10C000223142216F07CF8CE
:2044800048B900201449154B4FF410744FF480720C601A6038BD134814F07EFB0121124813
:2044A00015F044FE88B1104C04F23C452846214614F0F8FC0028E4D094F83C3413F070038E
:2044C00016BF0A4B18461D60DCE70146064815F02DFE0028E7D1D4E714B0044004C00440A4
:2044E00038A0FF1F08A0FF1FCC9BFF1F20A6FF1F08B50E490E4819F001FBFFF7B1FF70B959
:204500000C4B1B783BB10C4B1B7823B90B4A137823F0100313700A4B0A4A1A6008BDFFF798
:2045200067FF074B074A1A6008BD00BF107C020060A3FF1FEFA5FF1FC89BFF1F2188FF1FCB
:2045400024A6FF1F21080000F8B5344C4FF40072002120461CF04AFC314A324832490078A7
:204560000968324B12781E68B1FBF0F512FB00F200FB1515B1FBF2F39F080135DFF8B4E0AF
:2045800084F8C13107F0C00765F30507AA259EF800E084F8FF518D19013D84F8C07184F86D
:2045A000C2E1B5FBF2F71FFA87FE4FF0550CBEF5806F02FB131384F8FEC1B3FBF0F384F874
:2045C000BF3112D3FF20FE2284F8C50184F8C32184F8C401C4F8C611C4F8CA610F4A1448B5
:2045E0000021BDE8F84016F0C9B994F8C431B5FBF0FE4FEA272C00FB1E5E0EF1010E6CF3A6
:2046000087136EF3050302FB175284F8C571B2FBF0F084F8C43184F8C301DBE7DC98FF1FED
:20462000DD9AFF1FEDA3FF1F189BFF1FE8A1FF1F2CA0FF1FDE9AFF1F38B54FF40072044653
:204640000D460B4800211CF0D1FB21462A46094816F0ECF9002435B101340549054816F0C8
:20466000B1F9A542F8D10348BDE8384016F008BADC98FF1F2CA0FF1F2DE9F84FDFF804926A
:20468000754BD9F800E01878744D754FAEF58071B1FBF0F101F201131B0A5C004FF48072B6
:2046A00004F1A10696422B603A6088BF4FF4C07301D8CEE06346C3EB0E01B1FBF0F101F237
:2046C0000112120A540004F1A1069E4203F1800CF0D83B602A609B1B04F12102614EDFF81A
:2046E000A8A1614CDFF8A48101FB002103F18000306047F6A770813301228142CAF80010E7
:204700002360A8F8002000F29C80584B1A70DFF880B1FFF719FF4FF40072002158461CF085
:2047200065FB5A46EB2090218BF80000552002F8021FAA218BF8FE018BF8FF110BF10A00C4
:20474000202102F8011F8242FBD1DAF800204248CBF820204649474A90F800C0B8F80000D7
:2047600091F800E0D9F800301278ABF80E0002204FF0000A29688BF80DC0ABF818E04FF06E
:20478000F80CABF81A208BF80C0032688BF810008BF812004FF0800E29208BF815C04FEA40
:2047A0000329ABF81610CBF81C208BF824E08BF80BA08BF811A08BF8260017F0C5FB2E4A34
:2047C000DFF8D0802D4B814403CACBF82B00C8F8041003CBB2F800E0C8F80F103168967808
:2047E000CBF83600A8F12B02A8F808E088F80A602348CBF8279016F0C1F820683968091A98
:20480000FFF71AFF5146A8F12B004FF400721CF0EDFA4FF6F877A8F12B0221681848ABF880
:2048200000704FF6FF76ABF8026016F0A7F821682B681348A8F12B021944BDE8F84F16F018
:204840009DB8B1F5803F094B34BF042206221A705DE713463FE700BFC4A3FF1FC498FF1FFE
:2048600044A0FF1F189BFF1FF0A1FF1FDE9AFF1FEDA3FF1FDD9AFF1F1488FF1F3088FF1F4D
:204880002CA0FF1FC8A3FF1FE8A1FF1FCCA2FF1FDC98FF1F0799FF1F2DE9F84F944F954EFF
:2048A000D7F8008096F800C0934D944CDFF87C92A8F58041B1FBFCF101F18103DB0958000D
:2048C00000F5005A4FF4804E0AF1090A4FF40052F2452B602260C9F800E018D94FF4C04EAE
:2048E00000E0D646CEEB0801B1FBFCF101F18103DB09580000F50052093272450EF5005A19
:20490000EFD8AEF50052C9F800E02B6092B27C4BDFF81CB2DFF81CA2DFF81C82DFF81C9270
:2049200001FB0CE1101A9942A1F50052754BCAF8002080B294BF0B220C22ABF8000000F587
:2049400000501A70C9F80000FFF7FEFD4FF40072002140461CF04AFA4346EB21902288F858
:204960000010552103F8022FAA2288F8FE1188F8FF2108F10A01202203F8012F8B42FBD180
:204980006149624ADAF8003009781278C8F8203002233078A8F81810A8F81A2088F80C3079
:2049A000226888F81030C8F82C30F8212B68BBF800E088F80D004FF0000B88F81510C8F816
:2049C0001C2006218022C8F8243001202923A8F80EE0A8F8321088F8402088F8423088F88F
:2049E0000BB0A8F830003F6817F0AEFA484B494A4FEA072A824403CB474FC8F8470079603C
:204A000003CAC7F80F10C8F8520018889B78BB7221683881A7F14702C8F843A03F4815F0A7
:204A2000ADFF21683D48A7F14702063115F0A6FF5946A7F147004FF400721CF0D7F9216862
:204A400036485523A7F1470288F8FE310231AA2388F8FF3115F092FF21683048A7F14702A8
:204A6000083115F08BFF21682D4BC8F800302D48C8F8E4014FF0FF33C8F8E831C8F8EC313C
:204A8000A7F147020131254815F078FF21682348A7F14702073115F071FF33782968D9F88B
:204AA000000003EB4101FFF7C7FD5946A7F147004FF400721CF09AF91B4BD9F80010C8F833
:204AC0000030A7F147026FF070431448C8F80430C8F8083015F052FFD9F800102B680F484A
:204AE000A7F147021944BDE8F84F15F047BF00BFC8A3FF1FC4A3FF1FC498FF1F189BFF1F69
:204B00000004FB00DE9AFF1FEDA3FF1FDD9AFF1F1488FF1F2488FF1F2399FF1F2CA0FF1F75
:204B20005252614172724161F8FFFF0F44A0FF1FCCA2FF1FE8A1FF1FDC98FF1FF0A1FF1F2E
:204B40003D4B3E493E4810B54FF410724FF480740C601A6015F032FE3A4A3B4B106000F278
:204B6000FF70C0F3CF201028188015D8374C3848384A02232021237003701170364B1B78E1
:204B8000DBB1FFF789FE2D492B4B4FF410704FF4807208601A6010BD20282C4B10D80422AC
:204BA0001A7020222B4B90421A7015D8284B04221A70294B1B78002BE3D1FFF75DFDE2E748
:204BC000402815D980281FD810221A70B0F5807FE7D9204B3F221A7080281D4B05D9B0F5D7
:204BE000FC7F08D810221A70C8E708221A70C5E708221A70EAE7B0F57C7F12D9B0F5FC6F6F
:204C000012D840221A70B9E7B0F5806F02D820221A70DBE7B0F5004F94BF402280221A704D
:204C2000D4E720221A70A9E7B0F57C6F94BF8022FF221A70A2E700BF04C0044014B00440D5
:204C40002CA0FF1FC8A3FF1FDCA1FF1FC4A3FF1FDD9AFF1FEDA3FF1FC89BFF1FF0B41C4BF2
:204C60001C4C1D481D494FF400721A602260026822F4802202604FF400074FF080764FF00E
:204C800000754FF080644FF000621F601E601D601C601A600B68114A1806FBD413685906D6
:204CA00003D5136843F0400313600D4B1A68120603D51A6842F080021A600A480A490B4A44
:204CC000A024047000230B60F0BC1360704700BF88E100E088E200E03480044024B00B40CF
:204CE00000B00B4000400640448004404880044008B5002016F04CFDAE2800D008BD002167
:204D0000084616F05FFD72B6FFF7A8FF48F68000C0F20300D0F800D0D0F804F008BD00BFD3
:204D200000B583B069460023052218F06BFF68461BF0FAFB03B05DF804FB00BF38B5094D69
:204D4000094C2888000A18F0FBFB287818F0F8FB2088000A18F0F4FB2078BDE8384018F045
:204D6000EFBB00BFB6A3FF1FBCA3FF1F2DE9F041164B1B78012B17D0B0B9154E804608F5F9
:204D8000A077444633681D5B280A18F0D9FB0434E8B218F0D5FBA742F4D108F52078B8F5B7
:204DA000164FECD1BDE8F081094E00243368185B000A18F0C5FB3368185D023418F0C0FB57
:204DC000B4F5164FF2D1BDE8F08100BF59A3FF1FBC98FF1F38B5124B1C7814B1114B1C780E
:204DE00074B9114D2B68185B000A18F0A9FB2B68185D023418F0A4FBB4F5164FF2D138BDC1
:204E00000A4D00242B68185B000A18F099FB2B68185D023418F094FBB4F5163FF2D138BDE0
:204E2000C89BFF1F2C9BFF1FBC98FF1FC898FF1F08B5194B1878032808BF002018F080FBD6
:204E4000164B187818F07CFB154B187818F078FB144B187818F074FB134B187818F070FBB0
:204E6000124B187818F06CFB114B187818F068FB104B187818F064FB0F4B187818F060FBE0
:204E80000E4B187818B10E4B187880F00100BDE8084018F055BB00BF59A3FF1F9EA3FF1FC9
:204EA0005AA3FF1FEEA5FF1F3CA0FF1F04A4FF1FDC9AFF1FCEA2FF1F09A4FF1FCF98FF1FF4
:204EC000B69BFF1F10B50F4C82B0207818F038FB237823B1002018F033FB02B010BD0A4BA5
:204EE0000A4A1B680193019B126809489B1AA0FB03308009C0F11E00C0B218F021FB02B0BD
:204F000010BD00BFEFA2FF1F50A6FF1FE4A1FF1FD34D621070B51B4B82B01B6801ACD8B296
:204F2000190A1A0C25461B0E0DF107068DF804008DF805108DF806208DF8073018F000FBFC
:204F4000B54205D015F8010F18F0FAFAB542F9D10D4B1B68D8B2190A1A0C1B0E8DF804004B
:204F60008DF805108DF806208DF8073018F0E8FAB44205D014F8010F18F0E2FAB442F9D1BB
:204F800002B070BDC8A2FF1FBC9BFF1F30B50F4B1B6883B0D8B2190A1A0C01AC1B0E0DF199
:204FA00007058DF804008DF805108DF806208DF8073018F0C5FAAC4205D014F8010F18F0AD
:204FC000BFFAAC42F9D103B030BD00BF40A0FF1F2DE9F041514CA0B023680293029D18F008
:204FE00001FA30B923680393039B5B1BB3F57A7FF5D318F0F7F978B304A87822484918F02D
:2050000095FC042304A918A8002218F015FE0A2240F2E1711CA818F041FD1CA918A818F0E7
:20502000EBFD014614A818F025FD14A8FFF778FE044614A818F0ACFC1CA818F0A9FC18A84C
:2050400018F0A6FC74B9742018F07AFA04A818F09FFC20B0BDE8F081742018F071FA20B05D
:20506000BDE8F08104A908A80D230B2218F0E4FD08A8FFF755FE10230DEB030104460E22D5
:205080000CA818F0D9FD0CA8FFF74AFE04A90546132310A8112218F0CFFD10A8FFF740FEB3
:2050A00004A906460A23082214A818F0C5FD14A8FFF736FE04A907460723052218A818F021
:2050C000BBFD18A8FFF72CFE04A98046042300221CA818F0B1FD1CA8FFF722FE3B4632462F
:2050E00029460190CDF80080204616F09BF81CA818F04EFC18A818F04BFC14A818F048FC3F
:2051000010A818F045FC0CA818F042FC08A818F03FFC15F0D5FF16F0EBFE94E750A6FF1F4A
:20512000448EFF1F70B50D4CA51C04F5C07635F8020C000A18F004FA15F8020C18F000FAA9
:205140006088000A18F0FCF9043414F8020C18F0F7F9B44205F10405E9D170BD5CA0FF1F20
:2051600008B518F03FF900281DDD18F0FFF8C0B2012808D860B90E4B01221A708220BDE830
:20518000084018F0DDB90020BDE8084018F0D8B9074B08490120002208701A708220BDE854
:2051A000084018F0CDB9BDE80840FBF715BC00BFB69BFF1FCF98FF1F08B518F013F90028BD
:2051C00009DD18F0D3F8C1B2012908D90020BDE8084018F0B5B9BDE80840FBF7FDBB064B2D
:2051E00001F0010265201A7016F0ECFA8520BDE8084018F0A5B900BFEEA5FF1F08B518F093
:20520000F1F8002809DD18F0B1F8C1B2012908D90020BDE8084018F093B9BDE80840FBF728
:20522000DBBB064B01F0010269201A7016F0CAFA8620BDE8084018F083B900BF3CA0FF1F26
:2052400008B518F0CFF8002809DD18F08FF8C1B2012908D90020BDE8084018F071B9BDE8C3
:205260000840FBF7B9BB064B01F001026A201A7016F0A8FA8720BDE8084018F061B900BF0A
:2052800004A4FF1F08B518F0ADF8002814DD18F06DF8C3B2032B04D90020BDE8084018F0C3
:2052A0004FB9074A19467F20137016F08BFA8820BDE8084018F044B9BDE80840FBF78CBBC9
:2052C000DC9AFF1F08B518F08DF8002814DD18F04DF8C3B2022B04D90020BDE8084018F0F6
:2052E0002FB9074A19467320137016F06BFA7A20BDE8084018F024B9BDE80840FBF76CBB23
:2053000009A4FF1F044B1B781BB1044B187818F017B9FBF761BB00BFC89BFF1F2C9BFF1F2A
:2053200008B518F023F8C0B26438292819D8DFE800F015181818181818181818181818222F
:205340001818181818181818181828181830183818181818181818183F18181C642018F0AE
:20536000EFF8BDE8084018F01BB9FFF7CBFFBDE8084018F015B9FFF7A5FDBDE8084018F06D
:205380000FB90F4B187818F0DBF8BDE8084018F007B90C4B187818F0D3F8BDE8084018F01C
:2053A000FFB8F02018F0CCF8BDE8084018F0F8B8054B187818F0C4F8BDE8084018F0F0B874
:2053C000CC98FF1F2188FF1FC89BFF1F2DE9F04118F008F8B0F5C07F24DB144D4FF6FF77B5
:2053E00005F5C0764FF0000817F0C0FF044617F0BDFF00EB042080B2B84214BF25F8020C2A
:2054000025F8028C17F0B2FF044617F0AFFF00EB042025F8040BB542E6D18920BDE8F041C2
:2054200018F08EB8BDE8F041FBF7D6BA5EA0FF1F70B5184D84B02B6802930A20029E16F0F4
:20544000A7FD2B680193019CA41B134812F0FAF8114812F0D5F8A0B1B4F57A7F0CDD0F4B78
:20546000B6221A700C4812F0EDF80B4812F0C8F80028F7D104B070BD2B680393039CA41B22
:20548000E3E7B4F57A7FEADA044BB4221A7004B070BD00BF50A6FF1F1C9BFF1F2088FF1FDE
:2054A00070B51C4D86B02B6802930A20029E16F06FFD2A68184B0192019C1B78A41BFBB1A1
:2054C00006E0B4F57A7F07DC2B680393039CA41BFBF7CAFF0028F4D12B680593059B9B1BB1
:2054E000B3F57A7F12DA0D4BB52200201A7006B070BDB4F57A7FEFDC2B680493049CA41B6D
:20550000052016F00DFD0028E6D1F2E7012006B070BD00BF50A6FF1FCCA3FF1F2088FF1F74
:2055200070B5992016F034F9431EDBB2022B11D9514B524E524D534C5348544A4FF07C5196
:20554000196000234FF07E5133702B7023700370116070BD012835D17E2016F019F9C828EA
:20556000E6D17C2016F014F9444B434C1870792016F00EF9434B454D18707A2016F008F930
:20558000414B18707B2016F003F93D4B18707D2016F0FEF81AF04CFD3D491AF051FE2060FF
:2055A000A52016F0F5F81AF043FD39491AF048FE3849286004461AF02DFF58B34FF07E5373
:2055C0002B6070BD022830D0982016F0E1F8C828AED1942016F0DCF8284B274C1870912036
:2055E00016F0D6F8274B294D1870922016F0D0F8254B1870932016F0CBF8214B18709520CA
:2056000016F0C6F81AF014FD21491AF019FE2060A720C6E720464FF07E511AF019FF00286E
:2056200097D04FF07E532B6070BD902016F0B0F8C8287FF47DAF8E2016F0AAF80F4B0E4C44
:2056400018708B2016F0A4F80E4B104D18708C2016F09EF80C4B18708D2016F099F8084B79
:2056600018708F2016F094F81AF0E2FC08491AF0E7FD2060A62094E7E89AFF1F5AA0FF1FC1
:205680009CA3FF1FECA3FF1FD4A3FF1FFC9AFF1F0000C8423333333F30B583B001AD832468
:2056A000204616F075F80134872C05F8010BF7D1024B019A1A6003B030BD00BFBC9BFF1F22
:2056C00010B5652016F064F87A4B012896BF00F00100002218704FF0660088BF1A7016F0C4
:2056E00057F8754B12288CBF0D2218704FF0670088BF1A7016F04CF8704B01289ABF00F071
:205700000100187000224FF0680088BF1A7016F03FF8012840F2C080694B00221A706B20A3
:2057200016F036F8674B012896BF00F00100002218704FF06C0088BF1A7016F029F8624B1A
:20574000012896BF00F00100002218704FF06D0088BF1A7016F01CF85C4B012896BF00F084
:205760000100002218704FF06F0088BF1A7016F00FF8574B01289ABF00F001001870002233
:205780004FF0690088BF1A7016F002F801287AD9504B00221A70732015F0FAFF4E4B022879
:2057A0008CBF012218704FF06A0088BF1A7015F0EFFF4A4B01289ABF00F0010018700122D3
:2057C0004FF0710088BF1A7015F0E2FF022803D8434B1B785B074CD4424B00221A707220EF
:2057E00015F0D6FF404B042894BF187000224FF0870088BF1A7015F0CBFF02283B4B3BD8F2
:20580000187078B1892015F0C3FF0446882015F0BFFF374B00EB04248A201C8015F0B8FF1B
:20582000344B1870822015F0B3FF334B1B78032B25D0C8283AD0314B314A1A607F2015F0C5
:20584000A7FF304B03288ABF002218701A702E4B1C78012C09D1A82015F09AFF2B4B012866
:205860009ABF00F0010018701C70BDE81040FFF757BE1C4B1870B2E700221A70D2E71F4B73
:20588000234A1A60DAE7164B1B78DA0780D5114B00F0010018707EE7114B1B7859077FF539
:2058A0003BAF074B00F00100187038E7FFF7F4FEC4E700BFEEA5FF1F5AA3FF1FDEA1FF1F59
:2058C000EEA2FF1FD898FF1FC298FF1FEDA5FF1FEAA3FF1F3CA0FF1F09A4FF1F04A4FF1F2E
:2058E0002188FF1FCE98FF1FCEA2FF1FB4A3FF1F089BFF1FCFA2FF1F59A3FF1FBC9BFF1F7B
:205900008FC2F53CDC9AFF1FC89BFF1F2C9BFF1F0AD7233C30B5134B1B6883B0180A832409
:20592000D9B21A0C8DF805001B0E20468DF804108DF806208DF8073015F044FF862C01ADF5
:2059400007D0013415F8011F204615F03BFF862CF7D1C821822015F035FF034B02221A702F
:2059600003B030BDBC9BFF1FEFA2FF1F30B583B017F038FD032816DD0E4B1B78032B12D0F5
:2059800001AC02AD17F0F2FC04F8010BAC42F9D1094B019A1A60FFF7BDFF7E2003B0BDE8E5
:2059A000304017F0CDBD002003B0BDE8304017F0C7BD00BF59A3FF1FC8A2FF1F30B583B0FA
:2059C00017F010FD032816DD0E4B1B78032B12D001AC02AD17F0CAFC04F8010BAC42F9D1B0
:2059E000094B019A1A60FFF795FF7D2003B0BDE8304017F0A5BD002003B0BDE8304017F0F7
:205A00009FBD00BF59A3FF1FBC9BFF1F38B5124C2578ADB10021052016F090FA2378012BF9
:205A20000CBF03210021022016F088FA0121162016F084FA01211620BDE8384016F06ABA31
:205A40000121042016F07AFA2946042016F062FA024B1D70DEE700BFC89BFF1FEBA3FF1F06
:205A600008B50121062016F069FA0121092016F065FA01210F2016F061FA0121142016F0FA
:205A80005DFA0121152016F059FA01210A2016F055FA0121062016F03DFA0121092016F088
:205AA00039FA01210F2016F035FA0121142016F031FA0121152016F02DFA0A20012116F0D0
:205AC00029FA0248BDE8084015F05AB81C8DFF1F2DE9F041174D6F7BD5F8108086B03846E8
:205AE00011F0FEFE00240126134B01903946404603932246234604960294009412F000F845
:205B00000E4B28691A78697B4FF47A73B242C0F8683207D000963346324612F071F806B030
:205B2000BDE8F0810092234612F06AF806B0BDE8F08100BF0CA6FF1FA0860100C89BFF1FED
:205B400038B54FF4B27017F077FE114C054611F005F928464FF0FF320421256011F054F9FA
:205B600020684FF0FF320C2111F026F920684FF0FF32022111F034F9206802214FF0FF327C
:205B800011F038F900211720BDE8384016F0D6B9D0A3FF1F08B5094B1B78012B06D04FF44F
:205BA00016401AF05FFD064B186008BD4FF416301AF058FD034B1860F1E700BFC89BFF1FD5
:205BC000BC98FF1FC898FF1F084B1B78012B04D0074B01211868FEF775B8064B1B78002BCA
:205BE000F6D0054B00211868FEF76CB8C89BFF1FBC98FF1F2C9BFF1FC898FF1F0E4B10B561
:205C00001C784CB18720FCF72FF80C4B1B7863B10B4B01221A7010BD2D20FCF725F8074BB5
:205C20001B7833B9074A537010BD064B01225A7010BD034B1C7010BD9EA3FF1FCCA3FF1F66
:205C4000DCA3FF1FD4A2FF1F10B517F0CBFB002809DD17F08BFBC0B2012808D90020BDE8A5
:205C6000104017F06DBCBDE81040FAF7B5BE074C00F001002070FFF7C1FF2178702015F093
:205C8000A1FD8B20BDE8104017F05ABC9EA3FF1F08B5802015F07CFD02280D4B08D80128E4
:205CA000187008D002280CD00A4B00221A7008BD00221A7008BD00220749084812F082FE03
:205CC000F2E700220649054812F07CFEECE700BFF8A1FF1FE4A2FF1FE09304004CA0FF1F43
:205CE000804F12002DE9F04F430089B0DFF8CCB2DFF8CC82A74AA84E039003EB000A04936F
:205D00009BF8000098F800301178A44AA44C127827684FEACA0A06EB0A0943EA00230693B6
:205D2000B9F8083042EA01221907059242D5B9F90650D9F81430B9F9042036F90A00B9F97F
:205D4000021001932B46D9F810500095FDF79CFDB9F80830DA0600F10581DD074CBF914BCE
:205D6000914B039A1B6888F800301B0A8BF80030049BDFF850A21344DD0006EB0509705B39
:205D8000B9F80210B9F80630B9F804200B440244FCF7EEFC705BB9F80210B9F80630B9F8EC
:205DA00004200B4402440133013201390138FCF7DFFC94E07D4B36F80A001A68B9F804C017
:205DC000B9F80210B9F8063088F800204FEA122E0B440CEB00028BF800E0FCF759FD724B4F
:205DE00036F80A001A68B9F804C0B9F80210B9F8063088F800204FEA122E0B440CEB000269
:205E00008BF800E0FCF7B4FC36F80A00B9F80210B9F80420B9F8063002440B4401320138C4
:205E200001330139FCF7A4FCB9F80830D8074CBF5C4A5F4A126888F8002099074FEA122218
:205E40008BF8002066D45B4B04991A682260137823711D46039B92F801A084F805A0CB18CF
:205E6000DB0006EB03099178A171D278D9F80C000793E2711BF084FC079BB9F80610F35ADA
:205E8000B9F802E0B9F804204FEA5A0ACAEB510A03EB520900FB05F00AEB0E030793A9EB80
:205EA0005009424BDFF81CA11B685A1C5DD03B4A384913701B0A00220B708AF80020039AB8
:205EC000049B134406EBC306079AF06800234946FDF700FA338903F00603062B49D02760F0
:205EE0003B7823717B786371BB78A371069B059DFA7888F80030180A8BF800002748E27181
:205F000005702448290A002301708AF8003009B0BDE8F08F284B03981968049B216003EBAD
:205F2000000C0A7822714FEACC0C06EB0C0E4B786371BEF806A091F80290BEF80400BEF8A6
:205F400002E084F806905B0836F80CC0C978E1715208C3EB5A03C2EB5002734402EB0C0940
:205F600007939EE7DFF85CA0B9E701238AF80030A5E7079D2179F068C1EB09012A4600234E
:205F8000FDF7A8F92179F0682A4649440023FDF7A1F9A4E710A2FF1F0CA4FF1FB8A2FF1F2B
:205FA000AC9BFF1FF0A2FF1FE8A2FF1FB89BFF1FF0A5FF1FBCA2FF1FF09AFF1FC5A3FF1F56
:205FC000CDA3FF1FD098FF1F2DE9F04F89B0724FDFF8D481019006A88946FBF76BF93E7818
:205FE00098F800306D4DBDF91A20BDF918B043EA0623009392462B4600204FF0FF3402E013
:206000000130142827D09A7A1E88B3F802C09988B3F806E02AB11E3EACF1140C3C310EF1E3
:20602000280E1A8912F4004F03F11803E8D1D207E6D4621CE4D15E453144E1DC8B45DFDC44
:20604000D445DDDCE644F245D4BF04464FF0FF3401301428D7D1601C0BD04FEA440A0AEBD6
:206060000403DB0005EB030E4C48BEF80810C9066DD5B9F1000F4BD0DFF83091D9F800305D
:206080000293DDF808A0FBF7EFF938B1D9F800300393039BCAEB0303312BF4D9631C2ED095
:2060A0004FEA440A0AEB0403DB0005EB030E3B48BEF80810CA0622D4394AC05A126888F8D3
:2060C0000020120ABEF802103A70BEF80630BEF80420A24402440B444FEACA0AFCF748FB8E
:2060E00005EB0A0235F80A005188D38892880B4402440133013201390138FCF739FB009AEF
:2061000088F80020130A20463B7009B0BDE8F08F019B9BB1DFF89490D9F800300493DDF884
:2061200010A0FBF7A1F90028B8D0D9F800300593059BCAEB0303952BF3D9AFE7FBF794F9DE
:206140000028ABD0FBF790F90028F7D1A6E7154AC05A126888F80020120ABEF802103A7083
:20616000BEF80630BEF80420A24402440B444FEACA0AFCF7FDFA05EB0A0235F80A005188DB
:20618000D38892880B4402440133013201390138FCF7EEFA6DE700BFC5A3FF1F0CA4FF1FD9
:2061A000E8A2FF1FFCA3FF1FCDA3FF1F50A6FF1F2DE9F04F00EB40002D4FDFF8CCA0DFF8C2
:2061C000CCB0C600BC19B85B6188E388A2880B44024483B04FF0BE094FF07F08033B033111
:2061E000033A03308AF800908BF80080FCF7EEF9204B214A186810600178117145781F4B58
:206200005571D3F800E083789371E36890F803C08BF800E018464FEA1E2E01918AF800E03E
:20622000009382F807C01BF0ABFABE5BB4F806C0A78862880199124C009BDFF854E084F81C
:2062400000906D0806EB570400FB01F10026C5EB5C050C4F8EF8008018462A44A4EB5101BB
:2062600033463E7003B0BDE8F04FFDF733B800BF0CA4FF1FBCA2FF1FAC9BFF1FF0A5FF1F60
:2062800010A2FF1FD098FF1FC5A3FF1FCDA3FF1FB8A2FF1F2DE9F04F00EB4000DFF8DC8069
:2062A000DFF8DC90DFF8DCB0D9F80050DFF8D8A08BF80050C60008EB060438F80600618813
:2062C000E388A2880B44024483B0033B0331033A03302D0A8AF80050FCF778F9214A224B3A
:2062E000116819600A781A714D785D711F488F789F710068E76891F803E08BF80000010ADD
:20630000384683F807E001928AF800101BF038FAA18838F80630019AB4F806E0D9F800604E
:20632000648800FB02F003EB51036D08C5EB5E05A3EB5001731C05EB04020ED00C480D4CCB
:206340000D4B0670360A0020267018703846002303B0BDE8F04FFCF7BDBF074B012018704F
:20636000F4E700BFBCA2FF1FAC9BFF1FF0A5FF1FB8A2FF1F10A2FF1FD098FF1F0CA4FF1F53
:20638000B89BFF1FCDA3FF1FC5A3FF1F124BF0B4124D03F5F07400224FF400401A805A80A3
:2063A0009A80DA801881DD601833A3424FF00001F4D10B4F0B4A0C4E0C4D0D4C0D480E4BF5
:2063C00039601F2717604FF6FF7231602960216001601A60F0BC70470CA4FF1F4C8B020031
:2063E000E8A2FF1FFCA3FF1FBCA2FF1FF09AFF1FF0A5FF1FF0A2FF1FB89BFF1F134B144985
:206400001B78022B10D0012B14D0032B17D0042B04D0104AFF230B70137070470D4B00200B
:206420001F2208701A7070470A4BF820002208701A707047074A00230B7013707047054BA1
:206440000420002208701A70704700BFCEA2FF1FC5A3FF1FCDA3FF1F10B516F0C3FF002827
:2064600016DD16F083FFC0B2042804D90020BDE8104017F065B8084C2070FFF7BFFF2178BC
:20648000722015F09FF98320BDE8104017F058B8BDE81040FAF7A0BACEA2FF1F2DE9F04109
:2064A000044669B31A4E1B4DCE220621592732700846EA234FF49D722F70FCF7E9F9164AEC
:2064C000164B10781871204654785C711A6094781349D278DA71DFF850E0124F9C715922E4
:2064E00000240A70CE238EF800303C70234634702C706E2242F20E71BDE8F041FCF7EABE4E
:206500004CF65960FBF782FF014E024DD7E700BFC5A3FF1FCDA3FF1FB4510300AC9BFF1F71
:20652000B8A2FF1FD098FF1F10A2FF1F2DE9F041574C4FF0FF3206460D462068172110F0D4
:206540006DFC00218046206810F040FC0746404619F06EFD4FF07F5119F0BEFD4D4919F06E
:20656000BBFD0446384619F05FFD0146204619F067FE0446282015F045F847490746204604
:2065800019F03EFF00284BD0322F4FDC434A137823F020031370424B1B78002B50D1414B1D
:2065A0001B782046002B5DD03F4919F08DFC0446002D3CD021463D4819F084FC3C4919F0EA
:2065C0008BFD0021054619F039FF002855D04FF07C51284619F078FC19F05AFF43B2C1B278
:2065E000344DAA202B7015F0EDF81EBB95F9000048B119F01DFD2E4919F022FE01462046FB
:2066000019F062FC04462046FDF776FC2A4B40B21428187002DC013000D0CEB9BDE8F08156
:20662000322FC5DC1E4B1B7853B9B8E715BB214D002EDBD0AA2015F0ABF840B22870D7E7E0
:2066400020461E4919F040FC0446002DEFD0B1E71B480021FFF722FF4FF47A70BDE8F041BC
:2066600015F096BC4FF07A5119F02EFC0446002DDDD09FE703210B46B2E74FF07C51284654
:2066800019F020FC19F004FF43B2C1B2A8E700BFD0A3FF1F33335340000080BF2188FF1F83
:2066A000C89BFF1FEFA5FF1FCDCC4C3DCDCC84400000C842EDA2FF1FCC98FF1F9A99193E65
:2066C000287C020000B5154883B014F0E1FD14F097FDB0F5FC6F04DC962015F059F8C82869
:2066E00002D003B05DF804FB00210D48FFF7D6FE4FF47A7015F04CFC0022012340F2E1713D
:20670000019100931146104614F08CFD14F0D8FC03B05DF804EB15F0EBBB00BF5D0900007B
:20672000487C020038B5174B1B7873B1164B1B78012B0AD0154D2B7804463BB10021042013
:2067400015F0E8FB00232B708CB938BD0121042015F0E0FB01212970002CF6D00C48FFF73C
:206760009DFE4FF47A70BDE8384015F011BC09480121FFF793FE4FF47A70BDE8384015F019
:2067800007BC00BFEFA5FF1FC89BFF1FEBA3FF1F787C0200647C020010B5962014F0F8FF4A
:2067A000C82800D010BDFA2014F0F2FFF0280446F8D0234B1B788BB9972014F0E9FFC8283B
:2067C0000CD0642420460021013414F0FBFFFA2CF8D100211B48FFF761FEFEE7EF2C25D8D6
:2067E000C72C18D8642420460021013414F0EAFFFA2CF8D10021992014F0E4FF00217E2016
:2068000014F0E0FF0021902014F0DCFF0021982014F0D8FF01E0D42CECD900210A48FFF722
:206820003DFEF021FA2014F0CDFFFEE700210748FFF734FEF021FA2014F0C4FFFEE700BF0F
:20684000EFA5FF1F8C7C0200B07C0200D47C0200F8B50546FFF7D2FD164A174C174B107892
:2068600057789678164920711B78D07822600122E0716771A6710A702846A3B96E2242F283
:206880000E71FCF727FD0F4B2360187859789A78DB78E37120716171A2714FF47A70BDE823
:2068A000F84015F075BB0023462242F20E71FCF711FDE8E7D0450300AC9BFF1F3CA0FF1FE6
:2068C000D098FF1FB4510300F0B5164B164C1D7825715D78657123609D78144FDB78E3714A
:2068E00083B00023124E3B70A571124A1249134D302700973370CE27592613700F700223DE
:20690000502242F20E712E70FCF7D8FD0C4B2360187859789A78DB78E37120716171A27182
