:1000000000000320C9750200B17502006975020085
:100010006975020069750200697502006975020060
:10002000697502006975020069750200B175020008
:10003000B175020069750200B175020059750200C0
:10004000B1750200B1750200B1750200B175020010
:10005000B1750200B1750200B1750200B175020000
:10006000B1750200B1750200B1750200B1750200F0
:10007000B1750200B1750200B1750200B1750200E0
:10008000B1750200B1750200B1750200B1750200D0
:10009000B1750200B1750200B1750200B1750200C0
:1000A00001FC0100CD010200B1750200B175020032
:1000B000B1750200B1750200B1750200BD8B02007E
:1000C000B17502006DAB0200B1750200C9AC02004F
:1000D000B1750200F9AD0200B1750200B175020000
:1000E000B1750200B1750200B1750200B175020070
:1000F000B1750200B1750200B1750200B175020060
:10010000B1750200B1750200B1750200B17502004F
:10011000B1750200C98E0200B1750200B17502000E
:10012000B1750200B1750200B1750200B17502002F
:10013000B1750200B1750200B1750200B17502001F
:10014000B1750200B175020029AF0200B17502005D
:10015000B1750200B1750200B1750200B1750200FF
:10016000B1750200B1750200F5070200B175020019
:10017000B1750200B1750200B1750200B1750200DF
:10018000B1750200B1750200B1750200B1750200CF
:10019000B1750200B175020059B00200B1750200DC
:1001A000B1750200B1750200B17502001D0E0200AA
:1001B000B1750200B1750200B1750200B17502009F
:1001C000B1750200B1750200B1750200B17502008F
:1001D000FFFFFFFFFFFFFFFFFFFFFFFFFFFFFFFF2F
:1001E000FFFFFFFFFFFFFFFFFFFFFFFFFFFFFFFF1F
:10040000FFFFFFFFFFFFFFFFFFFFFFFFDEF9FFFF23
:1004100010B5054C237833B9044B13B10448AFF33E
:1004200000800123237010BD501EFF1F000000003C
:10043000C4360400084B10B51BB108490848AFF397
:1004400000800848036803B910BD074B002BFBD0A0
:10045000BDE81040184700BF00000000541EFF1FF9
:10046000C4360400501EFF1F00000000002070472B
:100470002DE9F04F9088D58885B0A84202916ED8BA
:1004800042F6941142F67C13C1F6FF71C1F6FF7378
:100490000F781E7841F69D6142F64813C1F6FF7150
:1004A000C1F6FF73C7EB87781B7891F800B0C7EBF4
:1004B000880841F68A6C41F6786406EB860608EBFC
:1004C0000601C1F6FF7CC1F6FF744FF4C8694FF610
:1004D000C01E09FB0B19CFF6FF7EC3EB83779CF898
:1004E0000010D4F800A003910EFB0399C3EB87031F
:1004F00001930021052313FB0B03EF2B2BDC019B46
:10050000D84228D413885488A34224D8039D00EBF2
:10051000800C4FEA8C1C35BB029D05EB41059F19F1
:10052000B7F5A07F0EDA13EB080F03EB0C0709D425
:100530002C884F441CB94FF001042C8001242AF868
:100540001740548801339BB29C4201F1010105F12F
:100550000205E4D2D588013080B2A842CAD9012070
:1005600005B0BDE8F08F029D05EB410503EB060EDB
:10057000BEF5A07F03F1010701F1010111DA13EBD0
:10058000080F63440DD44B442C88AAEB430303F5B6
:1005900015331CB94FF001042C800124A3F8FE434D
:1005A0005488BBB2A34205F10205DFD9D2E700BFF0
:1005B0002DE9F04F89B0B2F804E00191D1888E4561
:1005C00000F2B08042F69413C1F6FF7342F67C1439
:1005D00041F69D60C1F6FF74C1F6FF701B7800788C
:1005E00094F800800390924642F64812C1F6FF72DA
:1005F000C3EB8335044608EB880B1078C3EB850208
:100600000BEB020542F68A3242F66A19C1F6FF7216
:10061000C1F6FF7941F68A67C1F6FF771278049236
:1006200041F66C6699F80020029204EB840C0EEB04
:100630008E0BC0EBC004C1F6FF763A78009205EB52
:100640004B1B0CEB8C0C04EB04140BEB4C1B3268B7
:10065000079204EB041C41F69865C0EB8074C0EB74
:100660008402C1F6FF750BEB4C1C0692C3EB837B37
:10067000D5ED004A049A1FFA8CFCC3EB8B0B4FF0AC
:1006800005090027B7EE004ABDF80C00052313FB4F
:1006900000E3772B3CDC069B1EEB030F38D4BAF843
:1006A0000030BAF802509D4232D30137CDF814E041
:1006B000BFB2DDF81CE021E0C3F19F01C9B219FB14
:1006C00008149F2C13DC11EB0B0F10D4029C614417
:1006D000022C89B2019C2ED034F81040009828B327
:1006E000C1F595417F312EF81140BAF8025001331F
:1006F0009BB2791C9D4289B206D30F46781E80B208
:10070000002AD9D0D9B2DAE7DDF814E0BAF8061039
:100710000EF1010E1FFA8EFE0CF1A00C8E451FFA91
:100720008CFCB1D9012009B0BDE8F08F2EF8114042
:10073000BAF80250DBE734F810000412C51004F0D8
:10074000F80407EE904A05F0FC0406EE904A009C7F
:10075000C000002C4AD0C1F595467F363EF81640C1
:10076000E51005F0FC0507EE105AF8EEE66AC0B297
:10077000F8EEC75A34EE646A07EE100A66EEA46A11
:10078000E000C0B22512E6EE256A05F0F80405EE99
:10079000900AB8EEC77AB8EEE55AF8EEE77A05EEB9
:1007A000904A27EE247AF8EEE55A67EEA47AA6EE90
:1007B000057AE5EE867AFCEEE66ABCEEC77ACDED08
:1007C000046AFCEEE77A9DF8106017EE105A17EEF7
:1007D000900AF40004F0E004C5F3C40500F0F8004A
:1007E0002C4340EA561044EA002477E73EF81140D3
:1007F000B6E700BF083022F09BBD00BF00B583B054
:1008000002AB012203F8011D0830194622F090FDC9
:1008100003B05DF804FB00BF38B5856FAC88EB888A
:10082000E41A944228BF144631B10846296822468A
:10083000194426F065FBEB882344EB80204638BD45
:10084000F8B50E46074626F0E3F9054626F0C8F946
:10085000044626F0ADF96401C0B204F4FF54ADB211
:10086000A5F2BC75044344EA45243C8026F058F9BF
:10087000054626F06DF9044626F082F9ED02640182
:1008800005F4FF2504F4FF542C43C0F34600044351
:100890003480F8BD00F58C6025F022B92DE9F041D7
:1008A00042F2B003C1F6FF7342F697151B7884B08D
:1008B000C1F6FF750BB92B78FBB12A7842F6971376
:1008C000022AC1F6FF7355D01A78032A02D004B069
:1008D000BDE8F08101221A7042F2CC00C1F6FF702F
:1008E0001FF086F842F2CC00C1F6FF701FF0BCF892
:1008F0000028F1D104B0BDE8F08142F21B33C1F60B
:10090000FF731B78002BD8D141F67068C1F6FF78D1
:1009100098F80030002BD0D141F68063C1F6FF7308
:100920001B78002BC9D142F63846C1F6FF760A2063
:1009300033680293029F27F0FBFC33680193019C0C
:10094000E41B42F2CC00C1F6FF701FF051F842F2F6
:10095000CC00C1F6FF701FF087F818B3B4F57A7FAA
:100960001BDD01232B702A7842F69713022AC1F669
:10097000FF73A9D103221A7042F2CC00C1F6FF70B6
:100980001FF036F842F2CC00C1F6FF701FF06CF891
:100990000028F1D104B0BDE8F08133680393039CD3
:1009A000E41BCEE7B4F57A7FDBDA022388F8003067
:1009B00083E700BF27F06EBA00F58C6025F084BC99
:1009C00000F58C6024F046BD00F58C6024F088BCF6
:1009D000083022F05DBC00BF2DE9F04F2DED028BF9
:1009E0004FF0000A8FB04FF0000BCDE904ABCDE91A
:1009F00002ABCDE900AB01F5C8730C46D046D94631
:100A00000992851E069335F8026F30462CF0EAF8FD
:100A100002460B46404649462BF098FF804630463A
:100A200089462CF0CFF802460B462CF041F90246DD
:100A30000B46DDE900012BF089FF07EE906AB4EC6C
:100A4000018AF8EEE77ACDE9000167EE887A17EEC1
:100A5000900A2CF0D9F802460B46DDE902012BF092
:100A600075FFCDE9020118EE100A2CF0CDF806460C
:100A70000F4602460B46DDE904012BF067FF3246C4
:100A8000CDE904013B46304639462CF011F90B46BE
:100A90000246594650462BF059FF069BA342824618
:100AA0008B46B0D142464B46404649462CF000F9B1
:100AB000002304460D460022C4F25903DDE900017B
:100AC0002CF0F6F822462B462BF03EFF00220023A6
:100AD000CDE906012CF054FB0646002840F08C803E
:100AE000DDE90423404649462CF0E2F80023CDE935
:100AF0000A010022C4F25903DDE902012CF0D8F802
:100B0000DDE90A232BF020FFDDE906232CF0FAF9BA
:100B10002CF0A6FB42F26C11C1F6FF71DDE9042353
:100B20000860DDE900012CF0C3F8DDE90223CDE91E
:100B30000C01404649462CF0BBF802460B46DDE965
:100B40000C012BF001FFDDE906232CF0DBF92CF082
:100B500087FB42F67403C1F6FF73099F1860002FEC
:100B60005ED0DDE90423104619462CF0A1F80023DD
:100B70000022C4F259032CF0C5F902460B46504638
:100B800059462BF0E1FE0023804689460022C4F23C
:100B90005903204629462CF0B5F902460B46DDE9FB
:100BA00000012BF0D1FE02460B46404649462CF090
:100BB0007FF841EC100B2AF01BFC0023DDE90A0151
:100BC0000022C4F259038DED000B2CF09BF9024674
:100BD0000B46DDE902012BF0B7FEDDE900341A46D1
:100BE00023462CF08FF92CF03BFB386030460FB0D9
:100BF000BDEC028BBDE8F08F42F67402C1F6FF72C5
:100C0000002342F26C111360C1F6FF710126099AAC
:100C10000B60304613600FB0BDEC028BBDE8F08F67
:100C20003E4630460FB0BDEC028BBDE8F08F00BFF2
:100C300010B542F67413C1F6FF7382B01B78002B17
:100C400060D142F68001C1F6FF7168461DF010FDCB
:100C5000BDF80020BDF80200A2F10A039BB2822B6E
:100C60000BD8A0F10A01462907D842F66113C1F654
:100C7000FF7301221A7002B010BDA2F1B40189B253
:100C800082290FD9822B1AD98D3A262AF3D85138C6
:100C90004E28F0D842F66113C1F6FF7307221A708E
:100CA00002B010BDA0F1A004462C06D842F6611394
:100CB000C1F6FF7305221A70DDE7822B37D8592859
:100CC0000FD996280DD842F66C04C1F6FF7424683B
:100CD000012C1FD042F66113C1F6FF7303221A7074
:100CE000C9E7822903D8A0F10A03462B18D9A0F13D
:100CF000A003462BC8D842F66113C1F6FF73062243
:100D00001A70B8E742F68411C1F6FF7168461DF00B
:100D100095FB9DE78229EAD8A0F10A01462918D857
:100D200042F66113C1F6FF7302221A70A3E7A0F125
:100D30005A013C2910D842F66C01C1F6FF710968CE
:100D40000129E9D042F66113C1F6FF7304221A703B
:100D500091E7822BCBD997E7A0F10A03462BDFD985
:100D600092E700BF10B582B028F0CCFFC0B27F2858
:100D70004DD00CDD8A282FD08D281FD0812802D19C
:100D8000F22029F017F929F049F902B010BD7128B5
:100D90002DD07C2807D06428F5D129F00BF929F053
:100DA0003DF902B010BD41F69C63C1F6FF7318789F
:100DB00029F000F929F032F902B010BD42F278139F
:100DC000C1F6FF731B78DBB142F2DC03C1F6FF739F
:100DD000187829F0EFF8D6E742F27813C1F6FF73DE
:100DE000187829F0E7F829F019F902B010BD42F699
:100DF0009B04C1F6FF74207829F0DCF823788BB1CE
:100E0000002029F0D7F829F009F902B010BD40F60A
:100E10004503C1F6FF73187829F0CCF829F0FEF8E5
:100E200002B010BD42F63843C1F6FF7342F22032E1
:100E30001B680193C1F6FF72019B126844F6D35000
:100E40009B1AC1F26200A0FB03308009C0F11E00B2
:100E5000C0B229F0AFF896E7F0B5002A4FF4074E7C
:100E600042F61267C0F2040714BF4FF060554FF00E
:100E70006455C0F2933E002602E0172C08D02646A7
:100E800037F8022F9EFBF2F2914206F10104F4D3EF
:100E90001A0701D545F0806542F64462C0F20402AB
:100EA0005B0752F8262007D5130903F4706322F478
:100EB000704245F000751A4315430560F0BD00BF50
:100EC00030B442F60C43C1F6FF731A78002A3DD0C5
:100ED00072B61B78DC0710D54EF2801142F6EC3466
:100EE000CEF20001C1F6FF740D68226842F6FC34B0
:100EF000C1F6FF742A4022600A60990710D54EF2AD
:100F0000841142F6EC34CEF20001C1F6FF740D6894
:100F1000626842F6FC34C1F6FF742A4062600A60DF
:100F20005A0710D54EF2881142F6EC34CEF2000189
:100F3000C1F6FF740D68A26842F6FC34C1F6FF7476
:100F40002A40A2600A601B0716D462B64FF44043E1
:100F5000C4F20203DA6882420CD044F2010100229A
:100F6000C0F21F0140F08044C8F21F021960D8602F
:100F70001C611A6030BC70474EF28C1242F6EC31A4
:100F8000CEF20002C1F6FF711468CB6842F6FC3164
:100F9000C1F6FF712340CB601360D6E742F60C43E5
:100FA000C1F6FF731B787BB3D80709D542F6FC3234
:100FB000C1F6FF724FF46141CEF2000112680A607F
:100FC000990709D542F6FC32C1F6FF724EF20411C0
:100FD000CEF2000152680A605A0709D542F6FC3287
:100FE000C1F6FF724EF20811CEF2000192680A605B
:100FF0001B0709D542F6FC33C1F6FF734EF20C1203
:10100000CEF20002DB681360704700BF2DE9F043A9
:101010000C788BB000232F2C8DF8043007469146B6
:101020008DF8053028D007F23C480A4601A8414611
:10103000012321F047FE0646C8B19DF8043013F0A5
:10104000700F14D001AC0FCC45460FC50FCC0FC5A7
:1010500023682B60B9F1000F04D097F83C3413F0EB
:10106000700F26D1012630460BB0BDE8F083002674
:1010700030460BB0BDE8F0834B78002BD3D100F2A3
:101080003C44204621F0D4FC3946204621F09AFE0B
:1010900006460028EBD0B9F1000FE3D097F83C34B6
:1010A00013F0700FE3D042F6E433C1F6FF731C6017
:1010B000DEE742F6E433C1F6FF733046C3F8008042
:1010C0000BB0BDE8F08300BFF0B54BF2140E4CF24C
:1010D0000407C4F2040E4CF20C064BF21C03C4F2DB
:1010E00004074FF48072C4F20403C4F204060C46F1
:1010F0004FF41071CEF8002083B0396005464FF4EC
:1011000010614FF400703060C0F23D011A6001A818
:1011100000230122FFF7A0FE0198FFF7D1FE4FF256
:1011200088024FF44043C4F20203C4F20F021021BC
:10113000EDB24FF000401160D86219465D63CA6A93
:101140004FF44043002AC4F20203F8DAE4B24FF04D
:101150000042996BDA6218465C63C26A4FF44043FE
:10116000002AC4F20203F8DA4FF28402C4F20F023A
:1011700010219B6B1160FFF711FF4CF20C044BF236
:101180001C004BF214014CF20403C4F20404C4F238
:101190000400C4F20401C4F204034FF480724FF45B
:1011A00000764FF41075226006600D601A6003B07F
:1011B000F0BD00BF2DE9F0414BF21401C4F204016F
:1011C0004CF204064CF20C034BF21C02C4F2040372
:1011D000C4F204024FF48075C4F204060D6082B0BC
:1011E0004FF4107E4FF400774FF41061C6F800E022
:1011F000C0F23D011F6004460023156001A80122D2
:10120000FFF72AFE0198FFF75BFE4FF288024FF4CA
:101210004043C4F20203C4F20F021021E4B24FF0C3
:1012200000401160D86219465C63CA6A4FF44043BB
:10123000002AC4F20203F8DA4FF000410022986B52
:10124000D96219465A63CA6A4FF44043002AC4F26D
:101250000203F8DA4FF28402C4F20F021021D3F82D
:1012600038801160FFF79AFE4CF20C054BF21C041B
:101270004BF214014CF20403C4F20405C4F204045A
:10128000C4F20401C4F204034FF480724FF40077F7
:101290004FF410765FFA88F02A6027600E601A60BB
:1012A00002B0BDE8F08100BF08B501218420FFF73E
:1012B0000BFF01218420FFF707FF02218420BDE8F6
:1012C0000840FFF701BF00BF2DE9F84F9DF8284007
:1012D00080460D4691461E46002C73D142F6A1145D
:1012E000C1F6FF74002341F2E03042F649171A4676
:1012F0005621C1F6FF70C1F6FF7729F045F80023AB
:1013000041F2E0301A463978C1F6FF7029F03CF816
:10131000002341F2E0301A46C1F6FF70414629F041
:1013200033F8B9F1000F10D009F1FF3955FA89F9F6
:10133000013D002315F8011F41F2E0301A46C1F6C5
:10134000FF7029F021F8A945F3D1002242F6A00A46
:10135000134622709146C1F6FF7A09E025786B1C8E
:10136000237027F0A7FB0AF805004FF00009237847
:101370009E4213D027F08CFB0028EFDC09F1010915
:1013800001205FFA89F926F0D3FFB9F1C80FEED139
:101390002378B34202D00020BDE8F88F42F6A003C4
:1013A000C1F6FF731A78762AF5D13A7859789142C6
:1013B000F1D19A784245EED1D878B0FA80F0400960
:1013C000BDE8F88F42F6A114C1F6FF74002742F67B
:1013D000A00B2770C1F6FF7B0DE094F800A00AF186
:1013E0000103237027F066FB0BF80A00002723781F
:1013F000642B3FF477AF27F04BFB0028EDDC01377F
:101400000120FFB226F094FF0A2FF0D16AE700BF57
:1014100030B585B004A942F6A21400250123C1F617
:10142000FF74ADF80C50022201F8043D3620009301
:1014300005232580FFF748FF05B030BD2DE9F04FAB
:101440004CF20C0387B04FF440444BF21C054CF2B5
:101450000406C4F20204C4F20403C4F20405C4F294
:10146000040682468B469046A14601930295039658
:101470001D464BF214024FF400732B60C4F20402B9
:10148000029B4FF4807018601060039805464FF47B
:1014900010614FF41070C0F23D010023012228605A
:1014A00005A8FFF7D9FC0598FFF70AFD4FF288035E
:1014B000C4F20F0310204FF000413C221860E1629B
:1014C0006263E36A002BFCDA42F2B003C1F6FF73F9
:1014D00000271D46D8F80030D9F8382039469942FF
:1014E0004FF0FF061CD22B78012B00F091804FF0BB
:1014F00000420023E2626363E36A002BFCDAD9F85E
:101500003830DBB2002F5ED00AF8013001311429E7
:1015100067D0D92B2CD01E46D8F800309942E2D3A0
:101520004FF28403C4F20F0310221A60FFF736FD56
:1015300001994FF480730B6002994BF21402084634
:10154000C4F204024FF4007101604FF41071116095
:10155000039A1360BBF1000F32D042F27813C1F648
:10156000FF731B78012B78D0FFF752FF019B7FE7B9
:10157000FF2ED0D14FF28403C4F20F03102200914A
:101580004CF20C051A60FFF709FDC4F204054BF29A
:101590001C044BF214004CF204034FF48072C4F2AA
:1015A0000404C4F20400C4F204032A604FF4007679
:1015B0004FF410750099266005601A60C8F8001095
:1015C00007B0BDE8F08FD82BA1D1FF2E9FD1FF210E
:1015D000D8228AF800108AF80120012702211E462D
:1015E0009AE7BBF1000F94D141F68A62C1F6FF720F
:1015F0001278002A8DD047F23C11C0F20301642218
:101600000AF11400009325F07BFC7821009B80E711
:101610004FF28403C4F20F0310221A60FFF7BEFCDE
:101620004CF20C044BF21C004BF214014CF204037C
:10163000C4F20404C4F20400C4F20401C4F20403BA
:101640004FF480724FF400764FF4107522600660FC
:101650000D601A6007B0BDE8F08FFFF725FE019B13
:1016600006E700BFF0B542F2C42785B043F2D400CC
:10167000C0F2030726F0B4FE0F2026F059FE012425
:101680003868029002A9052304220094242042F61F
:10169000A215FFF719FEC1F6FF7541F2470026F0CB
:1016A0009FFE00260F2026F043FE009402A905238A
:1016B000022236202E80ADF808608DF80840FFF732
:1016C00003FE80BB0646642026F032FE0523224638
:1016D00002A9009426208DF80860FFF7F5FD43F27B
:1016E000D40026F07DFE0F2026F022FE38680290FE
:1016F0000523042202A900942420FFF7E5FD41F20E
:10170000470026F06DFE0F2026F012FE0094052300
:10171000022202A936202E80ADF808608DF808401C
:10172000FFF7D2FD30B301240525122104202B46FA
:1017300006228DF80B108DF80C0002A900945F268C
:1017400031208DF808508DF809408DF80A408DF849
:101750000D60FFF7B9FD42F2C022C0F2030200940F
:101760001288ADF808202B4602A902223620FFF786
:10177000ABFD204605B0F0BDF0B585B001240525D0
:101780004FF0190E8DF80D00002702A92B460426F4
:101790000094062231208DF80CE002978DF8085055
:1017A0008DF80A408DF80960FFF78EFD2B46224622
:1017B00002A9009426208DF80870FFF785FD4FF4EC
:1017C000967026F0B5FD43F2D40026F009FE0F20F6
:1017D00026F0AEFD42F2C423C0F20303324618687D
:1017E00002902B4602A900942420FFF76DFD41F2E0
:1017F000470026F0F5FD0F2026F09AFD05B0F0BD5C
:10180000F0B542F6841083B0C1F6FF7080211CF061
:1018100087FE38B142F67413C1F6FF7301221A70C5
:1018200003B0F0BD044642F68000C1F6FF701CF024
:1018300005FF42F67413C1F6FF7342F68001C1F64C
:10184000FF7168461C701CF013FF0A20BDF9006090
:10185000BDF9027026F06CFD052026F0F7FC0A2485
:101860000125052026F0F2FC00284FF00A0008BFF1
:10187000002526F05DFD013CF3D141F68A63C1F6F7
:10188000FF731B7883B92346B34213D0BC4201D007
:10189000002DC5D040F64503C1F6FF731A7822F03B
:1018A00008021A7003B0F0BD4FF4A073B3424FF0BA
:1018B000F004EBD1BC42EDD1002DB1D1EAE700BF7D
:1018C00008B542F67413C1F6FF731B786BB142F68C
:1018D0008410C1F6FF701CF0EDFD28B142F69003B4
:1018E000C1F6FF7301221A7008BD42F68000C1F6EE
:1018F000FF701DF039F9F0E72DE9F04142F2B00533
:10190000C1F6FF7586B02B78002B4DD142F69713A8
:10191000C1F6FF731B78002B46D142F21B36C1F68D
:10192000FF763378002B3FD141F67063C1F6FF7329
:101930001B78002B38D141F68063C1F6FF731B780A
:1019400093BB42F63848C1F6FF780A20D8F8003039
:101950000493049F26F0ECFC42F67413D8F80020A0
:101960000592C1F6FF73059C1B78E41B43B926E082
:10197000B4F57A7F08DCD8F800300393039CE41BAD
:10198000FFF79EFF0028F3D1D8F800300193019BA8
:10199000DB1BB3F57A7F18DA2A7842F2B003C1F67E
:1019A000FF730AB901221A7006B0BDE8F081B4F5E0
:1019B0007A7FE9DCD8F800300293029CE41B052012
:1019C00026F044FC0028DFD1F1E742F66A13C1F6A5
:1019D000FF731B78012BE7D00123337006B0BDE8FD
:1019E000F08100BF10B442F68833C1F6FF734FF4A4
:1019F00040421B78C4F2020240EA034040F0006318
:101A0000114610685363144602E012F0F00F17D12C
:101A1000CA6A4FF4404312F0805FC4F20203F4D06C
:101A20004FF08052DA621860DA6A12F0F00F04D0D8
:101A30009A6BDA6A12F0F00FFAD15DF8044B704736
:101A4000A36BE5E710B441F6A063C1F6FF734FF452
:101A500040421B78C4F2020240EA034040F00063B7
:101A6000114610685363144602E012F0F00F17D1CC
:101A7000CA6A4FF4404312F0805FC4F20203F4D00C
:101A80004FF08052DA621860DA6A12F0F00F04D078
:101A90009A6BDA6A12F0F00FFAD15DF8044B7047D6
:101AA000A36BE5E710B441F6A063C1F6FF734FF4F2
:101AB00040421B78C4F2020240EA034040F0C053A7
:101AC000114610685363144602E012F0F00F17D16C
:101AD000CA6A4FF4404312F0805FC4F20203F4D0AC
:101AE0004FF08052DA621860DA6A12F0F00F04D018
:101AF0009A6BDA6A12F0F00FFAD15DF8044B704776
:101B0000A36BE5E7F0B442F68834C1F6FF744FF4F6
:101B100040472678360446F00044C4F2020744F0F9
:101B20002A047C63FC6A04F4704514F0F00F18BFBB
:101B3000BC6BB5F5405FF5D841F6A064C1F6FF7403
:101B40004FF4404725782D042843C4F2020740F0A3
:101B500010407863F86A00F4704410F0F00F18BF7A
:101B6000B86BB4F5405FF5D84FF440442A43C4F253
:101B7000020442F010426263E26A02F4704012F022
:101B8000F00F18BFA26BB0F5405FF5D84FF440449A
:101B900046F00046C4F2020446F02B066663E26A91
:101BA00002F4704012F0F00F18BFA26BB0F5405F66
:101BB000F5D84FF440402943C4F2020041F01041EF
:101BC0004163C26A02F4704112F0F00F18BF826BD9
:101BD000B1F5405FF5D84FF440412B43C4F2020108
:101BE00043F010434B63CB6A03F4704213F0F00FE1
:101BF00018BF8B6BB2F5405FF5D8F0BC704700BFE3
:101C000038B50D4604464FF03840FFF759F9A2B2F7
:101C1000ABB219461046FFF775FF42F68833C1F69E
:101C2000FF734FF440421B781B0443F00043C4F29F
:101C3000020243F02C035363D36A03F4704113F0A0
:101C4000F00F18BF936BB1F5405FF5D842F66C12F8
:101C500042F67513C1F6FF72C1F6FF7310781B7858
:101C600043EA0020FFF71EFFFFF798F938BD00BFD9
:101C70008318B3F5A07F70B5C8BFC0F5A075044642
:101C80004FF03840D8BF15460E46FFF719F9A0B2FD
:101C9000421EB3B22A4492B21946FFF733FF42F60E
:101CA0008833C1F6FF734FF440421B781B0443F0A6
:101CB0000043C4F2020243F02C035363D36A03F4DB
:101CC000704113F0F00F18BF936BB1F5405FF5D87A
:101CD00042F66C1142F67512C1F6FF71C1F6FF7241
:101CE00041F6A063C1F6FF73127808781B7842EAC8
:101CF00000202A4640EA03434FF44044012A43F0BF
:101D00001045C4F202040DDD6563E36A03F470411B
:101D100013F0F00F18BFA36BB1F5405FF5D8013A8F
:101D2000012AF1DCFFF7BEFEFFF738F970BD00BFF6
:101D30008B1870B5F02B0C4606464FF03840CCBFE0
:101D4000C1F1F0051546FFF7BBF8A1B24B1EB2B2C8
:101D50002B449BB21046FFF7D5FE42F68833C1F6FE
:101D6000FF734FF440421B781B0443F00043C4F25E
:101D7000020243F02C035363D36A03F4704113F05F
:101D8000F00F18BF936BB1F5405FF5D842F66C11B8
:101D900042F67512C1F6FF71C1F6FF7241F6A063FB
:101DA000C1F6FF73127808781B7842EA00202A46B1
:101DB00040EA03434FF44044012A43F01045C4F283
:101DC00002040DDD6563E36A03F4704113F0F00F64
:101DD00018BFA36BB1F5405FF5D8013A012AF1DCD9
:101DE000FFF760FEFFF7DAF870BD00BF70B505467B
:101DF0004FF038400E46FFF763F84FF44041C4F20D
:101E000002014FF6FF73CA6A013B12F4704F9BB296
:101E100001D0002BF7D14FF44043C4F202034FF03E
:101E20000042DA621A464FF6FF73D16A013B00297D
:101E30009BB201DB002BF8D14FF44043C4F2020304
:101E4000DC6AC4F30314002C44D142F68832C1F694
:101E5000FF724FF4404310780004C4F2020340F0D4
:101E6000004141F6A06241F0D901C1F6FF72596309
:101E7000127828431036150440F000402E435E636C
:101E8000194658634FF6FF725D63CB6A013A13F44B
:101E9000704F92B201D0002AF7D14FF44043C4F200
:101EA00002034FF00042DA621A464FF6FF73D16A1E
:101EB000013B00299BB201DB002BF8D14FF44043DA
:101EC000C4F20203DA6A12F0F00F64D1FFF766F889
:101ED000204670BD9C6BDA6A12F0F00FE4B2B4D009
:101EE0009C6BDA6A12F0F00FE4B2AED09C6BDA6A47
:101EF00012F0F00FE4B2A8D09C6BDA6A12F0F00F87
:101F0000E4B2A2D09C6BDA6A12F0F00FE4B29CD07B
:101F10009C6BDA6A12F0F00FE4B296D09C6BDA6A2E
:101F200012F0F00FE4B290D09C6BDA6A12F0F00F6E
:101F3000E4B28AD09C6BDB6A13F0F00FE4B284D079
:101F40004FF44043C4F202039C6BDA6A12F0F00FC4
:101F5000E4B23FF47AAF9C6BDA6A12F0F00FE4B2AD
:101F60003FF473AF9C6BDA6A12F0F00FE4B23FF407
:101F70006CAF9C6BDA6A12F0F00FE4B23FF465AF1D
:101F80009C6BDA6A12F0F00FE4B23FF45EAF9C6B28
:101F9000DB6AE4B259E79C6BDA6A12F0F00FE4B244
:101FA00094D09C6BDA6A12F0F00FE4B28ED09C6B86
:101FB000DA6A12F0F00FE4B288D09C6BDA6A12F0A1
:101FC000F00FE4B282D09C6BDA6A12F0F00FE4B248
:101FD0003FF47CAF9C6BDA6A12F0F00FE4B23FF48E
:101FE00075AF9C6BDA6A12F0F00FE4B23FF46EAF9B
:101FF0009C6BDA6A12F0F00FE4B23FF467AF9C6BAF
:10200000DB6A13F0F00FE4B23FF460AF4FF44043EB
:10201000C4F202039C6BDA6A12F0F00FE4B23FF4F0
:1020200055AF9C6BDA6A12F0F00FE4B23FF44EAF9A
:102030009C6BDA6A12F0F00FE4B23FF447AF9C6B8E
:10204000DA6A12F0F00FE4B23FF440AF9C6BDA6A48
:1020500012F0F00FE4B23FF439AF9C6BDB6AE4B2EC
:1020600034E700BF10B504464FF03840FEF728FFB4
:1020700042F68833C1F6FF734FF440421B781B04CD
:1020800043F00043C4F2020243F036035363D36AC1
:1020900003F4704113F0F00F18BF936BB1F5405F7C
:1020A000F5D842F6700304F00300C1F6FF7302286E
:1020B00018701DD003280DD0012817D04820FFF735
:1020C000C1FC42F26413C1F6FF7301221A70FEF7DD
:1020D00065FF10BDE820FFF7B5FC42F26413C1F6BE
:1020E000FF7300221A70FEF759FF10BD2820F2E797
:1020F0008820E4E7F8B5152024F0E0FA41F6A06561
:10210000C1F6FF7542F688362870062024F0D6FA0C
:102110002B78C1F6FF76034300210F203370FFF7C1
:1021200065FE04464FF03840FEF7CAFE042796F8D5
:1021300000E02D7841F2E43C4FF440417E1E4FEA2E
:102140000E4E2D04C0F2040CC4F20201F6B287B3A5
:102150009CF8013043EA0E0343F000434B630CF15B
:102160000207CB6A03F4704213F0F00F18BF8B6BB9
:10217000B2F5405FF5D8B31C9C443846604511D099
:1021800010F8013B2B4343F000434B63CB6A03F44D
:10219000704213F0F00F18BF8B6BB2F5405FF5D8AB
:1021A0006045EDD107EB060CBF5D7E1EF6B2002F39
:1021B000CED11120FFF716FCFEF7F0FE782026F0B6
:1021C000B7F84FF03840FEF77BFE2920FFF70AFCF6
:1021D000FEF7E4FE42F25C1241F68263C1F6FF7242
:1021E000C1F6FF732D201F701760FFF73BFF42F60B
:1021F000A413C1F6FF7320461F70F8BDF0B542F27C
:102200006414C1F6FF7405462078012883B00C469B
:1022100016461F4611D042F6A413C1F6FF731B7871
:10222000CBB142F6081242F60A13C1F6FF72C1F6AC
:10223000FF7315801C8003B0F0BDC2F1EF031C4694
:1022400042F6A413C1F6FF733E461B78C5F1EF07B3
:102250000D46002BE5D14CF28031C0F2C9110122AC
:1022600001A8FEF7F9FD0198FEF72AFEBBB2B2B253
:10227000A1B2A8B2FFF746FC2C20FFF7B3FBFEF794
:102280008DFE03B0F0BD00BFF8B505464FF03840F5
:10229000FEF716FE42F26413C1F6FF731B7803B318
:1022A00030263346EF2231465020FFF7A7FF05F5D1
:1022B000A0773C4634F8020DFFF7F4FBAC42F9D1AD
:1022C0000136A82E3D46ECD10021084640F23F13CE
:1022D000EF22FFF717FC2C20FFF784FBFEF75EFED2
:1022E000F8BDA723EF2230215020FFF787FF05F527
:1022F0001546FE36AC1E34F8020FFFF7D3FBA6429C
:10230000F9D100210846EF2340F23F12FFF7FAFB14
:102310002C20FFF767FBFEF741FEF8BD2DE9F041E9
:1023200006464FF0384088461746FEF7C9FD42F290
:102330006413C1F6FF73187840B3B8F1000F17DDCE
:10234000B04407F52077334640F23F123146002073
:10235000FFF754FFA7F520753C4634F8020DFFF750
:10236000A1FBAC42F9D10136464507F52077EAD109
:102370000021084640F23F13EF22FFF7C3FB2C2059
:10238000FFF730FBFEF70AFEBDE8F08106EB08031D
:10239000013B08EB8808314640F23F12FFF72EFF61
:1023A0004FEA8813002BC8BF07EBC81405DD37F8C8
:1023B000020BFFF777FBBC42F9D100210846EF235F
:1023C00040F23F12FFF79EFB2C20FFF70BFBFEF7BE
:1023D000E5FDBDE8F08100BF42F26413C1F6FF7372
:1023E000197831B10021084640F23F13EF22FFF780
:1023F00005BFEF2340F23F120846FFF7FFBE00BFC4
:1024000042F6A413C1F6FF731B78002B40D042F2B2
:102410007813C1F6FF731B78012B19D042F60A130B
:10242000C1F6FF7342F60812C1F6FF721B881288CC
:1024300003EB830302EB4313B3F5964F07DA41F640
:102440006C62C1F6FF72126822F813007047704781
:1024500042F2DC03C1F6FF731B78002BDED042F69C
:102460000A13C1F6FF7342F60812C1F6FF721B8809
:10247000128803EB830302EB8313B3F5963FE6DA8E
:1024800041F67862C1F6FF72126822F813007047B5
:1024900010B54CF2803182B0C0F2C911012204465D
:1024A00001A8FEF7D9FC0198FEF70AFDA0B2FFF7DC
:1024B000F9FAFEF773FD02B010BD00BF2DE9F04F31
:1024C00042F6A414C1F6FF749346227883B01E46E8
:1024D00005460C46F2B142F27813C1F6FF731B7841
:1024E000002B53D104EBD47406EBD676641076102F
:1024F00005EBD5750BEBDB7BB4424FEA65054FEA84
:102500006B0B4CD05D4509D14FF0FF33CBEB05078A
:10251000019309E099426AD0584572D05D45F3DADB
:102520000123C5EB0B070193A642CBBFC4EB060802
:10253000C6EB040801234FF0FF33B845009333D9AD
:102540004FEA580B42F66C1A42F67519CBF1000BA4
:10255000C1F6FF7AC1F6FF79234621462A4628466E
:10256000FFF74CFE99F800309AF8000043EA00208B
:10257000FFF746FF009BB4421C4412D01BEB070B35
:10258000EAD4019BC8EB0B0B1D44E5E742F2DC03E8
:10259000C1F6FF731B78002BA4D0B442B2D12646FB
:1025A000B0E703B0BDE8F08F7E0842F66C1A42F641
:1025B00075197642C1F6FF7AC1F6FF792A46284698
:1025C00023462146FFF71AFE99F800309AF80000DA
:1025D00043EA0020FFF714FF019B5D451D44E0D056
:1025E00016EB0806EAD4009BF61B1C44E6E7B5F59B
:1025F000A07F01DAEF2C0DDD03B0BDE8F04FFFF74F
:10260000EBBEB5F5A07FF7DAEF2CF5DC321BFFF758
:102610008FFBF1E7C5EB0B02FFF72AFBECE700BFEE
:10262000F8B505464FF03840FEF74AFC0021EF238D
:1026300040F23F120846FFF765FA42F68833C1F6CA
:10264000FF734FF440421B781B0443F00043C4F275
:10265000020243F02C035363D36A03F4704113F076
:10266000F00F18BF936BB1F5405FF5D841F6A06647
:102670004FF44044ADB2C1F6FF76C4F20204F02735
:10268000307845EA004040F0104040F23F1160636E
:10269000E36A03F4704213F0F00F18BFA36BB2F5B6
:1026A000405FF5D80139F2D12846FFF7FBF9013F29
:1026B000E6D1FEF773FCF8BD90422DE9F0410446E7
:1026C00017460D461E4601DD14460746B54202DD9B
:1026D0002B4635461E46B4F5A07F07DAEF2DC4EB36
:1026E000070812DDEF2E22DDBDE8F081B7F5A07FEF
:1026F00009DAEF2DF8DC761B324629463846BDE86C
:10270000F041FFF715BBBDE8F0814246294620465F
:10271000FFF7AEFAEF2E0ADD761B20463246294639
:10272000FFF706FBB7F5A07FE6DBBDE8F081424688
:1027300031462046FFF79CFAEF2DEDDDBDE8F08134
:102740002DE9F041904282B004460F4601DD144667
:1027500002469F4202DD39461F460B46B4F5A07F74
:1027600073DAEF2F71DCB2F5A07FD4BF161BC4F56E
:10277000A0764CF28031F02BD8BFDD1BC0F2C9111E
:102780004FF000034FF0010201A8C8BFC7F1F005E8
:10279000FEF762FB0198FEF793FBA0B2B9B24B1EA5
:1027A000421E2B4432449BB292B2FFF7ABF942F681
:1027B0008833C1F6FF734FF440421B781B0443F08B
:1027C0000043C4F2020243F02C035363D36A03F4C0
:1027D000704113F0F00F18BF936BB1F5405FF5D85F
:1027E00042F66C1242F67513C1F6FF72C1F6FF7322
:1027F00017781B78002D43EA072724DD4FF4404467
:10280000C4F202041FFA87F8012E17DD41F6A06317
:10281000C1F6FF733146187847EA004040F0104097
:102820006063E36A03F4704213F0F00F18BFA36B08
:10283000B2F5405FF5D801390129F1D14046FFF7E3
:1028400031F9013DE0D1FEF7A9FB02B0BDE8F0810E
:102850002DE9F04F904283B0054616460C461F46C0
:1028600001DD15460646BC4202DD23463C461F46B6
:10287000C5EB0608B8F1040F39DDC4EB0709B9F15F
:10288000040F34DD05F1010ABAF5A07F04F101035C
:1028900030D306F1FF3BBBF5A07F32D305F1020A2E
:1028A000BAF5A07F05DAEF2CA8F1040846DDEF2F7A
:1028B0003EDDB5F5A07F04F10204A9F1040911DAA7
:1028C000EF2C14DC28464A462146FFF731FAB6F5CC
:1028D000A07F0CDA4A462146304603B0BDE8F04FEF
:1028E000FFF726BAB6F5A07F01DAEF2CF2DD03B0D0
:1028F000BDE8F08FEF2B2CD906F1FF3BBBF5A07F95
:102900002ED2EF2B20D9BAF5A07F07F1FF330CD2DE
:10291000EF2BC3D8194650460193FFF771F9019B7D
:1029200019465846FFF76CF9B8E7EF2BB6D8F7E72A
:10293000424639465046FFF79BF9BAE742462146E0
:102940005046FFF795F9B2E719465846FFF758F990
:10295000D9E7194650460193FFF752F9019BCBE79F
:10296000791EEF299AD85046FFF74AF996E700BF3B
:102970002DE9F04F904285B006460F469B4601DD9B
:10298000164602465F4502DD39465F468B46951B7B
:10299000042D34DDC7EB0B08B8F1040F2FDD7B1CD1
:1029A00000930BF1FF330193AB1E02932B1F4FEAF1
:1029B000680806F1020A06F10109002403930CBB22
:1029C000BAF5A07F04DAEF2F1FDDBBF1EF0F24DD96
:1029D000B9F5A07F05DA009BEF2B34DD019BEF2BCF
:1029E0002BDD0224B6F5A07F06DA3919EF291FDDA9
:1029F000C4EB0B01EF2916DD01344445DFDD05B0E2
:102A0000BDE8F08F012CE3D0ECE7039A394650463D
:102A1000FFF72EF9BBF1EF0FDADC039A5946504667
:102A2000FFF726F9D4E72A463046FFF721F9E3E716
:102A30002A463046FFF71CF9DAE71946029A48465B
:102A4000FFF716F9CDE7029A19464846FFF710F945
:102A5000C4E700BF2DE9F04F42F6A413C1F6FF739F
:102A60008BB01B78099003919246ABB142F2781378
:102A7000C1F6FF731B78002B40F0FC80099B03EB31
:102A8000D371039B03EBD37249100AEBDA73521034
:102A9000099103924FEA630A039FDDF8248042F60E
:102AA0006C1442F67515C1F6FF74C1F6FF7507EB9D
:102AB0000A094FEA4A0649464B4642464046764294
:102AC0000896FFF79BFB2B782078CAEB070243EAB6
:102AD00000203E4607921746FFF792FC42463946D1
:102AE00010463B46FFF78AFB2B78207808EB0A0B51
:102AF00043EA0020FFF784FC5A46584633463146E5
:102B0000FFF77CFB2B782078CAEB08010F4643EADD
:102B100000200691FFF774FC3A46384633463146AA
:102B2000FFF76CFB2B78207843EA0020CAF1010301
:102B30000193FFF765FCBAF1000F40F3968001277F
:102B4000CDF80890099904977E0001EB0709C6EBC0
:102B500009030093039B03EB0708C6EB080306F188
:102B6000010E019E0593002E4A46484607F10107D3
:102B700013DB089B02331E440893039B01960AF162
:102B8000FF3A03EB0A06CAEB030302960793019E82
:102B9000CAEB010301EB0A0B0693029976440B463C
:102BA0000196FFF72BFB2B78207843EA0020FFF7F4
:102BB00027FC029900980B460246FFF71FFB2B7873
:102BC000207843EA0020FFF71BFC079E4A46314667
:102BD00033464846FFF712FB2B78207843EA002063
:102BE000FFF70EFC009A314610463346FFF706FB0E
:102BF0002B78207843EA0020FFF702FC4146434649
:102C00005A465846FFF7FAFA2B78207843EA002014
:102C1000FFF7F6FB069E4146434632463046FFF735
:102C2000EDFA2B78207843EA0020FFF7E9FBDDF886
:102C300014805A46414643465846FFF7DFFA2B7840
:102C4000207843EA0020FFF7DBFB4346324641464B
:102C50003046FFF7D3FA2B78207843EA0020FFF7BD
:102C6000CFFB049B9A453FF76DAF0BB0BDE8F04F2B
:102C7000FFF7B2BB42F2DC03C1F6FF731B78002BF7
:102C80007FF40AAFFAE600BF2DE9F04F42F6A41830
:102C9000C1F6FF7891B098F8003004910546039290
:102CA0008BB142F27813C1F6FF731B78002B40F012
:102CB0006A81049B03EBD372039B03EBD373521023
:102CC0005B100492039341F68263C1F6FF731A7896
:102CD000002A6DD142F26413C1F6FF7342F25C1A0E
:102CE0001C78C1F6FF7A002C00F056819AF8041087
:102CF0009AF805009AF80640CB0813FB00F02C1B4D
:102D000000FB04F40434019400284CD042F2BE7954
:102D100042F66C180292C1F6FF79C1F6FF7804986A
:102D2000029AB2FBF3F30A1803990B441946013ACD
:102D3000FFF764FA9AF80410CB085F1E3BB342F623
:102D4000640642F67515C1F6FF76C1F6FF75DAF82E
:102D50000030DA19019BD45C4FF0000B44FA0BF3FE
:102D6000D90747BF98F800002B7899F8000033780E
:102D70000BF1010B43EA0020FFF742FBBBF1080F08
:102D8000ECD117F1FF37E2D29AF80410CB08029881
:102D90009AF80520019C184403FB02F21C4482426D
:102DA00002900194BBD811B0BDE8F04FFFF714BBFF
:102DB00042F25C1AC1F6FF7A9AF804309AF80520BC
:102DC0009AF80600DB0803FB02F12D1A01FB05F55A
:102DD000291D0891002AE6D04EF20C11CEF2000116
:102DE0004EF204100E910399CDF824A0CEF200000B
:102DF0000F9001F1010B03F0FF01002B00F0B780F1
:102E00004EF20813CEF200030D930BF1FF33019342
:102E1000049B059342F60812C3F1EE0342F26419D3
:102E2000C1F6FF7206930023C1F6FF790292079361
:102E3000099B089A1B68069F059D1344079A07245F
:102E400013F802A016E098F8000001995B4632469C
:102E5000F0B142F60A13C1F6FF73029A1980158089
:102E60004AFA04F3DA0758D4013C631C354607F1EB
:102E7000FF3766D099F80030012B05F10106E2D149
:102E800098F80000019D7B1C5A4639460028E0D185
:102E90004FF038400C920B910A93FEF711F80A9B01
:102EA0000C9A0B999BB292B289B2A8B2FEF72AFE95
:102EB0002C20FEF797FD42F60C43C1F6FF731B78FA
:102EC000002BCDD0DA0709D542F6FC32C1F6FF72ED
:102ED0004FF46141CEF2000112680A609D0706D5E9
:102EE00042F6FC32C1F6FF720F9952680A60580729
:102EF00006D542F6FC32C1F6FF720D9992680A605F
:102F00001907ADD542F6FC33C1F6FF730E9ADB68A4
:102F100013604AFA04F3DA07A6D542F66C1242F6B9
:102F20007513C1F6FF72C1F6FF7310781B78013C70
:102F300043EA0020FFF764FA631C354607F1FF37C8
:102F400098D1099B059C079A1B7908340132DB084C
:102F50000594069C07921046D9B242F25C12083CD6
:102F600081420694C1F6FF723FF762AF527903982F
:102F7000089CC0EB0B000C44824208940BF1010B3F
:102F80003FF639AF0FE742F2DC03C1F6FF731B785F
:102F9000002B7FF498AE8CE603989AF805309AF8E7
:102FA00004200146034404980244013B013AFFF720
:102FB00025F99AF804209AF805309AF80690D20874
:102FC00012FB03F3C9EB050903FB09F909F1040935
:102FD000002B3FF4E8AE42F2BE7842F6640742F6B8
:102FE0006C1642F675150194C1F6FF78C1F6FF77AD
:102FF000C1F6FF76C1F6FF75DAF8003013F8094024
:103000004FF0070B44FA0BF2D00747BF30782A780D
:1030100098F800003A7842EA0020FFF7F1F91BF136
:10302000FF3BEFD29AF8042001999AF80530D208B4
:10303000013112FB03F38B42019109F10109DBD845
:1030400011B0BDE8F04FFFF7C7B900BF42F25C1303
:10305000C1F6FF73F0B41B6804331A780A705C7809
:103060004C609E788E60DD78CD601C797F2CC8BF67
:10307000C4F580740C619F1D82425B794B610BD05B
:10308000FF2A12D016FB05F56EB16B1E48BFAB1DB3
:1030900007EBE3030133E0E7B2F1FF0018BF0120C3
:1030A0008F61F0BC70473B46D7E700208F61F0BCD2
:1030B000704700BF2DE9F04F8BB08B4603A90192FA
:1030C000FFF7C4FF002858D042F66C1442F675157D
:1030D00041F68263C1F6FF74C1F6FF75C1F6FF7356
:1030E00021782A781B7842EA01220092002B47D0EF
:1030F000059B002B40D0069A002A3DDD4FF00008CA
:10310000099FC14646468025002B2EDD019A0021ED
:103110000C4602EB080A09E02A4616424FEA55051A
:1031200010D10134E4B29C4221461DDA03FB08129F
:103130005207F1D13E78802216424FF0400507F148
:103140000107EED0079A049B5A440A445344194697
:103150001046FFF753F80098FFF752F90134059B2A
:10316000E4B29C422146E1DB069A09F101095FFACB
:1031700089F99145C846C7DB08980BB0BDE8F08FC8
:1031800042F25C13C1F6FF7342F2BE70089A019FCF
:103190005B7942F66401C1F6FF70C1F6FF710078F9
:1031A0000E7820705A443B440132394658462E70FE
:1031B000FFF7C6FA009A2A70130A2370059B002BAA
:1031C00099D1D9E72DE9F04F2DED068B8DB009EEA1
:1031D000101A05A9994609EE902AFFF737FF002833
:1031E00000F08E80079A002A00F087801C9B9FEDDC
:1031F000587A039207EE903AF8EEE77A67EE877A0C
:1032000017EE900A29F000FD41EC100B41EC1A0B6F
:1032100028F02EF851EC100B2AF022F8B0EE4A0AF2
:10322000F0EE6A0A08EE100A28F082F851EC100B52
:103230002AF016F8089B002B08EE900A5DDD42F696
:103240006C1042F67511C1F6FF70C1F6FF7142F2C3
:10325000BE7290F800B00978DDF82C80C1F6FF72DC
:1032600042F66400002541F6826A0192C1F6FF70C1
:10327000039A029041EA0B2B2F46C1F6FF7A802673
:10328000002A37DDF8EEC9AAB8EEE9AA002425E045
:1032900031467608069BEB1806EE903A04EB0903DC
:1032A00007EE903AF8EEE66AB8EEE76A66EEE87A7C
:1032B00028EE867AE8EE067A0F42A8EE267A77EEB6
:1032C000AA7A37EE0A7AFDEEE77ABDEEC77A1CD10C
:1032D0009AF8003043B3013494420ADA02FB054302
:1032E0005B07D5D198F80070402608F101088021CD
:1032F000D0E7089B01359D42C2DBFFF76DF80A98C5
:103300000DB0BDEC068BBDE8F08F17EE902A17EEDE
:10331000900A17EE103A17EE101AFEF76FFF584694
:10332000FFF76EF8079AD6E717EE103A17EE902AD5
:1033300017EE900A17EE101AFEF760FF019B18783F
:10334000029B1B7843EA0020FFF75AF8079AC2E76E
:10335000295C8F3C2DE9F04F2DED028B9BB09FED4A
:10336000737A269C169207EE904AF8EEE77A0446A6
:1033700067EE877A42F25C1917EE900AC1F6FF7980
:103380000E93159129F040FC99F8046099F80550C6
:1033900041EC180B99F80600F30803FB05F2201A1C
:1033A00002FB00F0021D1292002D00F06E8342F22B
:1033B0006412C1F6FF720F9292F800804EF208126A
:1033C000CEF200024EF20C114EF20410CEF20001C9
:1033D0001892CEF2000000221791199014923446F0
:1033E00003F0FF01002B00F01982159829F0FAFB79
:1033F000B0EE480AF0EE680ACDE9020127F038FF86
:1034000014985BEC10AB8DED040B29F0EBFBB0EEE8
:10341000480AF0EE680A06460F4627F089FF304654
:1034200053EC102B39468DED060B29F041FCCDE90C
:103430000801169829F0D6FB3246CDE90A013B4631
:103440005046594629F034FC42F60C45CDE90C01B2
:10345000C1F6FF7542F6A41600231195C1F6FF765A
:103460001093129AD9F800301344109A9B5C019380
:103470004EF28C13D700CEF20003073713930725C3
:1034800020460E9A7B1B02FB003029F0ABFBDDE9E6
:10349000042382468B4629F00BFCDDE9082329F042
:1034A00053FADDE9022329F051FA29F0B1FEDDE9F2
:1034B000062304465946504629F0FAFBDDE90C2361
:1034C00029F044FADDE90A2329F040FA29F0A0FEA8
:1034D000B8F1010F00F1010304F1010228D03178A5
:1034E00081B3019942F6081342F60A12C1F6FF733E
:1034F000C1F6FF7241FA05FEA4B280B21EF0010FC0
:103500001C80108040F0538141F68261C1F6FF714A
:103510000978002900F09C810F9B93F8008015F139
:10352000FF35C0F06B8199F80400AAE7295C8F3C55
:10353000C2F1EF011A46C4F1EF03044608463178A0
:103540000029CED111990978002954D072B642F6DB
:103550000C41C1F6FF71097811F0010F15D04EF240
:10356000801C42F6EC3ECEF2000CC1F6FF7EDCF889
:1035700000A0DEF800E042F6FC38C1F6FF780AEA67
:103580000E0EC8F800E0CCF800E011F0020F15D0E4
:103590004EF2841C42F6EC3ECEF2000CC1F6FF7EE9
:1035A000DCF800A0DEF804E042F6FC38C1F6FF7853
:1035B0000AEA0E0EC8F804E0CCF800E011F0040F9F
:1035C00015D04EF2881C42F6EC3ECEF2000CC1F64D
:1035D000FF7EDCF800A0DEF808E042F6FC38C1F619
:1035E000FF780AEA0E0EC8F808E0CCF800E00907F8
:1035F00000F1CF8162B64FF44041C4F20201D1F82C
:103600000CE0BEF1384F13D044F2010CC0F21F0C95
:103610004FF0000EC1F800C0C8F21F0E4FF038483E
:103620004FF0784CC1F80C80C1F810C0C1F800E030
:103630009BB281B292B2A0B2FEF764FA2C20FEF7E0
:10364000D1F9119B1B7803B3DC0709D542F6FC3294
:10365000C1F6FF724FF46141CEF2000112680A60B8
:10366000980706D542F6FC32C1F6FF7219995268E6
:103670000A60590700F185811A0706D542F6FC3227
:10368000C1F6FF721799D2680A60019A2A41D407DD
:1036900000F1198141F68263C1F6FF731B78002B9C
:1036A0007FF43AAF42F2BE7242F66403C1F6FF7293
:1036B000C1F6FF7310781A78337842EA0020002BA5
:1036C00040F0FE81119A1378002B51D072B6137816
:1036D000DC0712D54EF2801142F6EC32CEF2000138
:1036E000C1F6FF72D1F800E0126842F6FC34C1F670
:1036F000FF740EEA020222600A60990712D54EF2A8
:10370000841142F6EC32CEF20001C1F6FF72D1F81C
:1037100000E0526842F6FC34C1F6FF740EEA020281
:1037200062600A605A0712D54EF2881142F6EC32F6
:10373000CEF20001C1F6FF72D1F800E0926842F6C5
:10374000FC34C1F6FF740EEA0202A2600A601C0794
:103750000DD542F6EC32C1F6FF72139CD368216896
:1037600042F6FC32C1F6FF720B40D360236062B6B2
:103770004FF44043C4F20203DA68B2F1384F0ED07E
:1037800044F20101C0F21F0100221960C8F21F02B9
:103790004FF038444FF07841DC6019611A60FEF751
:1037A00081F9119B1B78002B40F0BF80B4E642F6F4
:1037B0006C1242F67513C1F6FF72C1F6FF7392F8F0
:1037C00000E01B7843EA0E2E42F27813C1F6FF7335
:1037D00000EB80001B78012B60D004EB4014B4F5A3
:1037E000964FBFF69CAE41F66C63C1F6FF7315F1C0
:1037F000FF351B6823F814E0BFF495AE109A99F8D2
:1038000004400132E3081046D9B21092814242F2DC
:103810005C12C1F6FF723FF724AE5579149A1298E4
:103820000132D2B20844AA4214921290FFF4D8ADE9
:10383000B8F1000F00F030810021084640F23F133C
:10384000EF221BB0BDEC028BBDE8F04FFEF7D6BCFB
:1038500042F2BE7042F66401C1F6FF70C1F6FF711C
:103860000078097841EA002042F27811C1F6FF7130
:10387000128809781B88012902EB820200F0EC8093
:1038800003EB4212B2F5964FBFF646AE41F66C63BB
:10389000C1F6FF731B6823F812003DE642F2DC0319
:1038A000C1F6FF731B78002B97D004EB8014B4F59E
:1038B000963FBFF634AE41F67863C1F6FF731B68DE
:1038C00023F814E02BE642F66C1142F67512C1F6AD
:1038D000FF71C1F6FF7291F800E01178327841EA89
:1038E0000E2E002A40F0DE80002B67D14FF44043BB
:1038F000C4F20203DA68B2F1384F0ED044F201018B
:10390000C0F21F0100221960C8F21F024FF03840B8
:103910004FF07841D86019611A607046FEF7C2F81E
:10392000119B1B78002B3FF4F7ADD80709D542F661
:10393000FC32C1F6FF724FF46141CEF20001126811
:103940000A60990706D542F6FC32C1F6FF72199952
:1039500052680A605A0706D542F6FC32C1F6FF7279
:10396000189992680A601B077FF5D6AD42F6FC33C2
:10397000C1F6FF73179ADB6813600F9B93F8008002
:10398000CDE542F6FC32C1F6FF72189992680A60E2
:1039900072E642F6EC3E1399C1F6FF7ED1F800C004
:1039A000DEF80C1042F6FC3E0CEA010CC1F6FF7E7C
:1039B0001399CEF80CC0C1F800C01BE672B6119B7B
:1039C0001B78D80710D54EF2801142F6EC32CEF2B9
:1039D0000001C1F6FF720C68126842F6FC30C1F6B5
:1039E000FF70224002600A60990710D54EF28411E0
:1039F00042F6EC32CEF20001C1F6FF720C6852685A
:103A000042F6FC30C1F6FF70224042600A605A075D
:103A100010D54EF2881142F6EC32CEF20001C1F61A
:103A2000FF720C68926842F6FC30C1F6FF702240CB
:103A300082600A601B070DD542F6EC32C1F6FF72B8
:103A40001398D368016842F6FC32C1F6FF720B404E
:103A5000D360036062B649E742F2DC01C1F6FF7150
:103A6000097800293FF40CAF03EB8212B2F5963FC0
:103A7000BFF652AD41F67863C1F6FF731B6823F8B9
:103A800012000F9B93F8008049E542F26413C1F6DF
:103A9000FF7393F80080CBE6EF2340F23F124146DC
:103AA0004046CEE642F60813C1F6FF7342F60A120C
:103AB000C1F6FF721C880F9B108893F8008083E684
:103AC00042F6081342F60A12C1F6FF73C1F6FF72FE
:103AD000CAE600BF2DE9F04F83B09A460D46164660
:103AE00004462AF04DFD42F6A413C1F6FF7380464A
:103AF0001B7863B142F27813C1F6FF731B78002B79
:103B00007ED105EBD57506EBD6766D10761042F2B8
:103B10006413C1F6FF731B78002B3AD142F20F7386
:103B20009D4200F0988042F20E739D4277D0B8F12A
:103B3000000F2BDDBAF1000F40D04FF0000942F228
:103B40005C170134CB46C1F6FF770CE014F8010C8A
:103B5000CDF800A05B460BF1010BFFF7FBFBD8454E
:103B600004F1010412D038794B4632462946002828
:103B7000ECD114F8010CCDF800A0FFF723FB0BF1FA
:103B8000010BD845814404F10104ECD103B0BDE838
:103B9000F08F42F20F739D424ED042F20E739D425F
:103BA000C5D142F25C17C1F6FF773D7908FB05F5F8
:103BB000C5F1F00505EBD5756D10B8E742F25C175D
:103BC00008F10108C1F6FF77A044B946013408E0C6
:103BD00014F8010CFFF76EFA013005440134A045DA
:103BE000D4D03B7929463246002BF1D029463246C3
:103BF00014F8010CFFF748F899F804301D44EDE77C
:103C000042F2DC03C1F6FF731B78002B7FF47FAF19
:103C100005EBD57506EBD6766D10761077E742F298
:103C20005C17C1F6FF773D7908FB05F5C5F5A07572
:103C300005EBD5756D107AE742F25C17C1F6FF7798
:103C400042F20E733D7908FB05F5C5F1F0059D4282
:103C50007FF46DAFA5E742F25C17C1F6FF7742F241
:103C60000E733D7908FB05F5C5F5A0759D427FF4FF
:103C70005EAFD4E72DE9F04742F6A814C1F6FF7411
:103C800042F26817C1F6FF77208B618BA28BE38B22
:103C90003D6842F66C1842F6751902440B44C1F6B1
:103CA000FF78C1F6FF792E0A033A0330033B033154
:103CB00088F8006089F80050FEF742FD42F668027D
:103CC000C1F6FF7242F25C13C1F6FF7312681A600C
:103CD00092F800A083F804A042F68C3155785D710B
:103CE000C1F6FF7190780968666A9871D27889F890
:103CF00000103046090ADA7188F800102AF040FCFA
:103D0000A18B238BB4F81EE03F68628B03EB510359
:103D10006D0800FB0AF0C5EB5E05A3EB50017B1CB0
:103D20002A4416D042F2BE7042F66403C1F6FF7018
:103D3000C1F6FF733C0A04701F70002541F68264CF
:103D4000C1F6FF74304625700023BDE8F047FFF749
:103D5000C1BE0125F2E700BF2DE9F04F42F6A814DD
:103D6000C1F6FF7442F66C1820886188A288E38847
:103D700042F67519C1F6FF78C1F6FF7902440B448B
:103D800081B0BE277F26033A0330033B033188F816
:103D9000007089F80060FEF7D3FC42F66802C1F6B5
:103DA000FF7242F25C13C1F6FF7312681A6092F858
:103DB00000B083F804B042F68C3155785D71C1F6DD
:103DC000FF719078D4F80CA009689871D27889F8BE
:103DD00000105046090A88F80010DA712AF0D0FB6A
:103DE000E1882388B4F8048062886D08C5EB51052A
:103DF00042F2BE7C42F6640E41F6826400FB0BFB8D
:103E000003EB5801C1F6FF7CC1F6FF7EC1F6FF74DB
:103E10002A4400255046A1EB5B012B468CF800702C
:103E20008EF80060257001B0BDE8F04FFFF752BE7C
:103E30002DE9F04180464CF65960FEF7F1FB41F662
:103E40000443C0F2040342F25C14C1F6FF7493F819
:103E500000E084F804E093F801E084F805E02360D2
:103E600042F2BE7593F802E0DB78E371C1F6FF75AC
:103E700042F6640241F68261C1F6FF72C1F6FF713B
:103E8000CE2342F66C1742F675162B70C1F6FF77FB
:103E900000255923C1F6FF76137040462B461922A0
:103EA0000D7042F20E7184F806E03D703570FFF738
:103EB00011FE42F2E873C0F20403236018785978C7
:103EC0009A78DB78E37120716171A271BDE8F081AD
:103ED0002DE9F04742F66C1742F67516C1F6FF77EA
:103EE000C1F6FF7606214FF0CE0982464FF0590801
:103EF0000846EA234FF49D7287F8009086F8008008
:103F0000FEF736FD42F2BE7CC1F6FF7C41F6044569
:103F100042F6640EC0F204050022C1F6FF7E41F6AF
:103F200082613A7032708CF80090C1F6FF7142F2F3
:103F30005C14C1F6FF7495F8009095F801C08EF8F6
:103F40000080AF78EE780A7013465046192242F28C
:103F50000E7184F80490256084F805C0A771E6719D
:103F6000FFF7B8FD42F2E873C0F20403236018784B
:103F700059789A78DB78E37120716171A271BDE89C
:103F8000F08700BF2DE9F041D0F808E00EF10803FA
:103F900023F0070342F6751542F66C1400AFC1F624
:103FA000FF75ADEB030DC1F6FF744FEA122C1646F8
:103FB00088460EF101026946002384F800C02E7085
:103FC00026F004FD42466846002342F20E71FFF7D8
:103FD00081FDBD46BDE8F08170B5064684B04CF663
:103FE0005960FEF71DFB41F60443C0F2040342F2A0
:103FF0005C14C1F6FF741D7825715D7865712360CE
:1040000042F2BE7142F664009D78DB78E371C1F63E
:10401000FF71C1F6FF7041F682625923C1F6FF724B
:10402000A571CE2503700D706846002531461570C8
:1040300026F0AEFA68461F221421FFF7A3FF684658
:1040400026F07AFB42F2E873C0F2040306F1100195
:104050001A785878236022719A78DB786071684604
:10406000E371A27126F094FA2A4668463721FFF7D9
:1040700089FF684626F060FB06F12001684626F0BD
:1040800087FA2A4668465021FFF77CFF684626F0EB
:1040900053FB06F13001684626F07AFA2A46684654
:1040A0006921FFF76FFF684626F046FB06F14001E5
:1040B000684626F06DFA2A4668468221FFF762FFBD
:1040C000684626F039FB06F15001684626F060FA92
:1040D0002A4668469B21FFF755FF684626F02CFBD1
:1040E00006F16001684626F053FA2A466846B42174
:1040F000FFF748FF684626F01FFB44F2B8616846A8
:10410000C0F2030126F018FA68461F22D421FFF7F7
:1041100039FF684626F010FB03E025F033FE002847
:1041200009DCFDF7CDFB0028F7D0FDF7C9FB00281F
:10413000FBD104B070BDFCF715FEF2E72DE9F041AC
:1041400000288EB015D1202330228DF820008DF864
:104150001C308DF81D308DF81E308DF81F2007AFF4
:10416000002338461A463121FFF7B4FC0EB0BDE8F3
:10417000F081B4BF0125002546F26761B8BF404217
:104180002F46C6F266610DF1FF36002481FB003236
:10419000C317C3EBA20303EB8303A0EB4303C01AD3
:1041A00081FB00E2C0173033D0EBA20004F1010420
:1041B00006F8013FEAD10EAB234403F8380C17B1DF
:1041C0002D238DF81C3004EB0508B8F1030F13DD27
:1041D000002607AFAA19013A68463A44031913F8B2
:1041E000011D02F8011F9842F9D10EAB1E44B044E4
:1041F000002308F81C3CB3E7C4F10406761B002E2C
:10420000E6DD07AF78193246202129F0E7FCE1E727
:104210002DE9F041856805F1080424F0070400AF9A
:10422000ADEB040D16460C4698466A1C6946002301
:1042300026F0CCFB4346324621466846FFF74AFC4F
:10424000BD46BDE8F08100BF2DE9F0478EB00028E3
:104250000E46174698469DF858101CD1002B70D07A
:10426000012B76DD5C1E0DF11C092246484629F023
:10427000B5FC0EAB181998443022002300F81C2C12
:1042800008F81C3C3A46314648460023FFF722FC1A
:104290000EB0BDE8F087B4BF0125002546F2676384
:1042A000B8BF4042AC46C6F266630DF1FF3E002443
:1042B00083FB0029C217C2EBA90202EB8202A0EB2A
:1042C0004202801A83FB00A9C0173032D0EBA9004C
:1042D00004F101040EF8012FEAD10EAB234403F8D8
:1042E000380CBCF1000F02D02D238DF81C3004EBEC
:1042F000050AD04516DC4FF000080DF11C0905EB4E
:104300000803013B69464B446C4414F8012D03F843
:10431000012FA142F9D10EAB9844C24400230AF800
:104320001C3CAFE7C4EB0808C5EB0808B8F1000F68
:10433000E1DD0DF11C0909EB0500424629F04EFCB8
:10434000DDE730238DF81D808DF81C300DF11C0940
:1043500098E704464FF001080DF11C0989E700BFFA
:104360002DE9F84304460F46164698464FF038406C
:10437000DDF82090099DFCF7A3FDA0B2B9B208F1C9
:10438000FF33721E0B4402449BB292B2FDF7BAFB9C
:1043900042F68833C1F6FF734FF440421B781B048A
:1043A00043F00043C4F2020243F02C035363D36A88
:1043B00003F4704113F0F00F18BF936BB1F5405F39
:1043C000F5D8B8F1000F40F3AC8041F6A0674FF488
:1043D0004044C1F6FF77C4F202043878042E4946FF
:1043E0004FEA004054DDB6460B789B0935F8133090
:1043F000034343F010436363E36A03F4704213F032
:10440000F00F18BFA36BB2F5405FF5D80B78C3F37C
:10441000011335F81330034343F010436363E36A39
:1044200003F4704213F0F00F18BFA36BB2F5405FB6
:10443000F5D80B78C3F3810335F81330034343F009
:1044400010436363E36A03F4704213F0F00F18BF84
:10445000A36BB2F5405FF5D811F8013B03F00303FD
:1044600035F81330034343F010436363E36A03F406
:10447000704213F0F00F18BFA36BB2F5405FF5D890
:10448000AEF1040E1FFA8EF3042B0FFA83FEABD8A5
:104490000B789B0935F81330034343F010436363F3
:1044A000E36A03F4704213F0F00F18BFA36BB2F588
:1044B000405FF5D80B78C3F3011335F8133003438D
:1044C00043F010436363E36A03F4704213F0F00FA8
:1044D00018BFA36BB2F5405FF5D80B78C3F3810327
:1044E00035F81330034343F010436363E36A03F486
:1044F000704213F0F00F18BFA36BB2F5405FF5D810
:104500000B7803F0030301F1010935F81300FDF7FF
:10451000C9FA08F1FF339BB20FFA83F8002B7FF43E
:104520005CAFFCF73BFDBDE8F88300BF2DE9F84325
:1045300004460F46164698464FF03840DDF8209066
:10454000099DFCF7BDFCA0B2B9B208F1FF33721EA1
:104550000B4402449BB292B2FDF7D4FA42F6883380
:10456000C1F6FF734FF440421B781B0443F0004335
:10457000C4F2020243F02C035363D36A03F4704184
:1045800013F0F00F18BF936BB1F5405FF5D8B8F199
:10459000000F5EDD41F6A0674FF44044C1F6FF779F
:1045A000C4F202043878022E49464FEA00402EDD5C
:1045B000B6460B781B0935F81330034343F010431C
:1045C0006363E36A03F4704213F0F00F18BFA36B48
:1045D000B2F5405FF5D811F8013B03F00F0335F851
:1045E0001330034343F010436363E36A03F4704200
:1045F00013F0F00F18BFA36BB2F5405FF5D8AEF122
:10460000020E1FFA8EF3022B0FFA83FED1D80B781D
:104610001B0935F81330034343F010436363E36A27
:1046200003F4704213F0F00F18BFA36BB2F5405FB4
:10463000F5D80B7803F00F0301F1010935F81300E9
:10464000FDF730FA08F1FF339BB20FFA83F8002B25
:10465000A8D1FCF7A3FCBDE8F88300BF00B542F683
:104660008A33C1F6FF7383B01B786BB14BF214022F
:104670004CF20403C4F20402C4F204034FF4807049
:104680004FF410711060196042F27813C1F6FF7395
:104690001B7833B942F60512C1F6FF721278012A6F
:1046A0000BD00020CBF60120FCF70AFC00210F20E4
:1046B00023F0A6FD03B05DF804FB4CF28031C0F29C
:1046C000C91101A8FCF7C8FB0198FCF7F9FBEDE75D
:1046D0002DE9F04F00F0010213B24FEA500E0EEB3D
:1046E0008E0E9C0023444FEA4E148DB004EB03134E
:1046F000002A1A46039200EB80084FEA8813C2F59D
:104700006058039ACDF81080C2F51558039ACDF879
:104710001880C2F59558039ACDF82080C2F59548C7
:10472000049A02911146069ACDF8288001F13F01C2
:10473000049108BF4FF0500E114618BF4FF0000E05
:10474000089AA6443F31CEF56058069111460A9A60
:10475000CDF814801F31CEF5155808911146059AF1
:10476000CDF81C807F310A9142F68A361146079AAD
:104770003F3141F6896C42F6051741F68A6541F6EC
:104780006C6BC1F6FF76CEF59558C1F6FF77C1F692
:10479000FF750591C1F6FF7C1146C1F6FF7B3678A7
:1047A000CDF82480CEF5954E3F31CDF82CE097F82A
:1047B0000090009695F800A007919CF80080DBF827
:1047C0000050099A11460B9A42F2C0747F3200EBF6
:1047D0008000C3F5954E1F31C1F6FF740B92420164
:1047E00009915F4203F1A00101920EF17F0E26466E
:1047F0000023B8F1000F2CD096F8A20096F8A32061
:1048000042EA002010B3B9F1010F42D0009A2AB356
:10481000BAF1000F25D0019A9A1805EB820C25F801
:10482000220005EB4102ACF8020025F8110050808F
:104830000133502BAEF1020EA7F1020701F1020184
:1048400004F10204A6F10206D3D101200DB0BDE8A7
:10485000F08F2079627942EA0020D3E7BAF1000FA5
:10486000D9D0019A25F81E009A18A2F515523F3AA0
:1048700007F5944B07F5944CC2EB82720BF15F0B7A
:104880000CF15E0C25F8220025F81B0025F81C0011
:10489000CEE7029ABAF1000F0ED1022A41D02FD9E9
:1048A000032A1ED0042AC3D1B8F1000F50D0099AB0
:1048B000D21A25F81200BBE7022A2BD019D9032AF5
:1048C00008D0042AB4D1039A9A1802F5615225F847
:1048D0001200ADE7039A9A1802F5165225F8120055
:1048E000A6E7B8F1000F2ED0079AD21A25F81200C9
:1048F0009EE7012A9CD1039A9A1825F8120097E79F
:10490000012A95D1B8F1000F18D00B9AD21A25F8C8
:1049100012008DE7039A9A1802F5965225F81200B4
:1049200086E7B8F1000F04D0059AD21A25F81200D4
:104930007EE7049AD21A25F8120079E70A9AD21A69
:1049400025F8120074E7069AD21A25F812006FE7CC
:10495000089AD21A25F812006AE700BF2DE9F04F35
:1049600042F6051389B0C1F6FF7303931B78012B40
:104970000CBF042301230493FFF770FE42F68A3331
:10498000C1F6FF734FF440454FF284024EF28C1192
:10499000C4F202050293C4F20F02CEF20001012319
:1049A0002C460692079101934EF28813CEF2000333
:1049B00005934FF00008B8F1FF0F00F0948042F229
:1049C000C077C1F6FF7707F1A3064FF0010B4FF058
:1049D000000A2B68397842F2C0774FF00042C1F6E6
:1049E000FF7743F480632B601046EA625FFA8AF92E
:1049F0003A466963BE465178EB6A002BFCDAA76B36
:104A0000236843F480632360E062616302F8017B02
:104A1000B242F0D17746EB6A002BFCDA3A78A36B0E
:104A200087F8A33002F00F0142F2C0730F29C1F6DC
:104A3000FF7302D05B784B4536D023F051FC08F170
:104A400001085FFA88F8064600E000BF23F048FC42
:104A5000801BB0F5487FF8D3B9F13C0FABD1019B77
:104A6000049A03F1010A5FFA8AF39A4201939BD2F6
:104A70004FF28403C4F20F0301221A60FCF78EFA8E
:104A8000029B1B786BB14BF214024CF20403C4F28C
:104A90000402C4F204034FF410704FF480711060EC
:104AA000196009B0BDE8F08FB9F1140F0FD001996A
:104AB0004846FFF70DFE0028BFD0BBF13C0FCED01B
:104AC0000BF1010B5FFA8BFB0AF1010A81E7039BF3
:104AD0001B78012B00F0E68001991420FFF7F8FD08
:104AE0000028EDD1A9E742F2B003C1F6FF731B78AD
:104AF000DBB2012B00F0DE8042F60C46069A012361
:104B0000C1F6FF76136033787BB3D80709D542F638
:104B1000FC32C1F6FF724FF46141CEF2000112681F
:104B20000A60990709D542F6FC32C1F6FF724EF2CF
:104B30000411CEF2000152680A605A0709D542F604
:104B4000FC32C1F6FF724EF20811CEF200019268FB
:104B50000A601F0709D542F6FC33C1F6FF734EF217
:104B60000C12CEF20002DB681360029B1B786BB163
:104B70004BF21402C4F204024CF20403C4F2040324
:104B80004FF4107111604FF480721A60BA2023F054
:104B9000CFFB029B1B786BB14BF21402C4F20402F0
:104BA0004CF20403C4F204034FF4807111604FF41B
:104BB00010721A6042F27813C1F6FF731B7823B9A2
:104BC000039B1B78012B00F08480327842F60C4363
:104BD000C1F6FF73002A48D072B61B78D80710D5EB
:104BE0004EF2801142F6EC30CEF20001C1F6FF70B9
:104BF0000E68026842F6FC30C1F6FF703240026077
:104C00000A60990710D54EF2841142F6EC30CEF2CC
:104C10000001C1F6FF700E68426842F6FC30C1F632
:104C2000FF70324042600A605A070DD542F6EC31FF
:104C3000C1F6FF71059E8A68306842F6FC31C1F604
:104C4000FF7102408A6032601B070DD542F6EC32DC
:104C5000C1F6FF720798D368016842F6FC32C1F6CC
:104C6000FF720B40D360036062B60023EA68CBF6A4
:104C700001239A420DD044F20102C0F21F022A60C1
:104C800000210022CFF60121C8F21F02EB6029614A
:104C90002A6000210F2023F0B3FA012301934FF083
:104CA00000088CE612113FF4C8AE019B93427FF4DA
:104CB000C4AE11E74FF28402C4F20F021360FCF796
:104CC0006DF9029B1B78002B7FF4DDAE09B0BDE8C7
:104CD000F08F4FF03840FCF7F3F8DAE74BF21402AC
:104CE0004CF2040370B5C4F20402C4F2040342F2AD
:104CF0004C344FF480714FF41070C1F6FF741160A2
:104D0000186004F26C4104F58C600223142220F038
:104D10000FF9C0B942F24C30C1F6FF701FF0C4FD6C
:104D200023794BF214014CF20402C4F20401C4F2E0
:104D300004025B084FF410754FF480740D6000FBA3
:104D400003F0146070BD04F23C401DF071FE0121BF
:104D500020461FF043FEB0B142F24C35C1F6FF755C
:104D600005F23C46304629461EF02CF80028D1D0EA
:104D700095F83C3413F0700FCCD042F6E433C1F612
:104D8000FF731E60C6E7014620461FF027FE00287D
:104D9000E2D1BFE72DE9F0414BF214064CF20405D5
:104DA000C4F20406C4F204054FF480774FF410787F
:104DB00042F2AC7037608CB0C1F6FF70C5F800806D
:104DC00020F09CFD42F67013C1F6FF7300F2FF74F1
:104DD000C4F3CF241860C6F800802F608CB3FFF7AF
:104DE0007DFF0A22810A684625F068FC694604A80E
:104DF00025F0CEFB44F2D461C0F2030104A825F0F3
:104E00008BFD0A220546611E08A825F057FC08A95B
:104E1000284625F041FD44F2D861C0F2030125F097
:104E20007BFD014642F60C10C1F6FF7025F08CFCAC
:104E300008A825F081FC04A825F07EFC684625F032
:104E40007BFC0CB0BDE8F08138B54BF214024CF29B
:104E50000403C4F20402C4F2040342F2B8714FF432
:104E60008070C1F6FF714FF4107410601C60A1F1E6
:104E70000C000223142220F05BF878B900204BF2DA
:104E800014024CF20403C4F20402C4F204034FF40B
:104E900010744FF480711460196038BD42F288704C
:104EA000C1F6FF701DF0C4FD42F24C300121C1F685
:104EB000FF701FF093FD0146B8B142F24C34C1F6C9
:104EC000FF7404F23C45284621461DF07BFF002874
:104ED000D4D094F83C3413F070031BBF42F6E43393
:104EE000C1F6FF7318461D60C9E742F24C30C1F6A7
:104EF000FF701FF073FD0028DFD1BFE7F8B541F662
:104F0000A864C1F6FF744FF400720021204628F017
:104F100065FE41F68C6242F6951142F2C000C1F680
:104F2000FF70C1F6FF72C1F6FF7142F224330568CB
:104F300009781278B5FBF1F0C1F6FF7312FB01F2AC
:104F40001E68B5FBF2F341F68D6E9F0801FB105011
:104F50000130C1F6FF7E07F0C00760F30507AA2005
:104F60009EF800E084F8FF01A819013884F8C071A8
:104F700084F8C2E1B0FBF2F71FFA87FE4FF0550C40
:104F8000BEF5806F84F8C13184F8FEC102FB135373
:104F9000B3FBF1F384F8BF3118D3FF21FE2284F86C
:104FA000C51184F8C32184F8C41141F6A86242F205
:104FB000AC70C4F8C651C4F8CA61C1F6FF720021D2
:104FC000C1F6FF70BDE8F84020F08ABD94F8C43106
:104FD000B0FBF1FE4FEA272C01FB1E0E0EF1010E75
:104FE0006CF387136EF3050302FB170284F8C57197
:104FF000B2FBF1F184F8C43184F8C311D5E700BFE6
:105000002DE9F04F42F67013C1F6FF7342F66B1BA9
:105010001E68C1F6FF7BA6F580729BF800E0B2FB2C
:10502000FEF202F20110000A41F6746742F2801AA1
:105030004FEA400C4FF48071C1F6FF77C1F6FF7A5A
:105040000CF1A1058D42CAF8001083B0386088BF0A
:105050004FF4C07101D811E02146721AB2FBFEF282
:1050600002F20110000A4FEA400C0CF1A1058D423A
:1050700001F18004F0D8CAF80010386042F2C0098B
:10508000491BC1F6FF7901F1800542F2243442F256
:105090002C3642F678080CF1210C02FB0EC2C1F648
:1050A000FF74C1F6FF76C1F6FF78C9F8005047F6E5
:1050B000A77581310120AA4222603160A8F8000062
:1050C00000F2CD8041F68D62C1F6FF72107041F69C
:1050D000A865C1F6FF750193FFF710FF4FF400724A
:1050E0000021284628F07AFD019BB8F800C0196815
:1050F00022683B68A5F80EC041F68C6042F6951E0A
:10510000C1F6FF705524C1F6FF7E00782A624FEA8F
:1051100001284FF0AA0CEB2285F8FE419021F824DB
:105120009EF800E09BF800B085F8FFC12A704FF0B0
:10513000203C8022A9706C7529210024EB826883B1
:105140000223D9F80000A5F818E0C5F803C0C5F897
:1051500007C085F8242085F826102B732B74AB74B8
:1051600085F80DB0E861EC726C7423F0B9F840F684
:105170003803C1F6FF73804403CB40F65402C1F6F6
:10518000FF72C5F82B00C5F82F1003CA1A88C5F89E
:1051900036009B78A5F8332042F2AC7085F83530A4
:1051A0002A46C5F83A10C5F82780D9F80010C1F68C
:1051B000FF7020F095FCDAF80030D6F80090214618
:1051C0004FF400722846C9EB030828F007FD42F2AD
:1051D000AC7042464946C1F6FF7020F0FFFEB8F1C0
:1051E000000F0CD041F6A86142F2AC700134C1F658
:1051F000FF71C1F6FF7020F0CFFDA045F2D142F261
:10520000AC70C1F6FF7020F05DFF41F6A8604FF46E
:1052100000720021C1F6FF7028F0E0FC41F6A862A0
:1052200042F2AC704FF6FF7331686B80C1F6FF72CB
:105230004FF6F874C1F6FF702C8020F051FC3168F5
:105240003B6842F2AC7041F6A862C1F6FF701944A7
:10525000C1F6FF7203B0BDE8F04F20F041BCB2F5DB
:10526000803F41F68D62C1F6FF7234BF04210621F2
:1052700011702CE72DE9F04F42F67015C1F6FF755D
:1052800042F66B19D5F800C0C1F6FF79ACF5804144
:1052900099F800E0B1FBFEF101F18103DB09580050
:1052A00041F6746742F2C00642F2801800F5005AD7
:1052B0004FF48044C1F6FF77C1F6FF76C1F6FF7860
:1052C0000AF1090A4FF40052A24583B03B603260F4
:1052D000C8F8004018D94FF4C04400E05446C4EB6D
:1052E0000C01B1FBFEF101F18103DB09580000F56F
:1052F00000520932A24204F5005AEFD8A4F5005238
:10530000C8F800403B6092B2101A42F22C3842F6C4
:10531000780A4FF4806C41F68D6342F2243B01FB26
:105320000E4180B2C1F6FF73C1F6FF7AC1F6FF7B72
:10533000C1F6FF78C0F2FB0C41F6A864C1F6FF7419
:1053400061458CBF4FF00C0C4FF00B0C00F5005278
:10535000A1F5005183F800C0AAF80000CBF80010B6
:10536000C8F80020FFF7CAFD4FF400720021204664
:1053700028F034FC41F68C63C1F6FF7342F69511B8
:10538000C1F6FF71BAF800C0DBF8000093F800A086
:105390002A6899F8005091F800E0A4F80EC0902314
:1053A000316820624FF0EB0CF820A37065733B6806
:1053B00084F800C006254FF0010C6075A4F818E0D1
:1053C00029204FF0800EE16163624FF0203102230B
:1053D0006586002584F840E01202A4F81AA04FF078
:1053E000550B4FF0AA0AA4F830C0C4F80310C4F853
:1053F000071023732374E36284F84200E57201927C
:1054000084F8FEB184F8FFA122F06AFF019A40F609
:105410003803C1F6FF7302EB000C03CB40F64802E1
:10542000C1F6FF72C4F84700C4F84B1003CA1A88CB
:10543000C4F852009B78C4F843C042F2AC7084F8C0
:105440005130A4F84F20C4F8561022463168C1F6F6
:10545000FF7020F045FB316842F2AC702246063105
:10546000C1F6FF7020F03CFB29464FF40072204645
:1054700028F0B4FB316884F8FEB142F2AC702246E9
:105480000231C1F6FF7084F8FFA120F029FB3168DA
:1054900042F2AC7022460831C1F6FF7020F020FBCA
:1054A000316845F2522C47F2722EC4F2611CC6F2EA
:1054B000411E4FF0FF3342F2AC70C4F800C0C4F894
:1054C000E4E1C4F8E831C4F8EC3122460131C1F618
:1054D000FF7020F005FB316842F2AC7007312246C4
:1054E000C1F6FF7020F0FCFA99F800303E68D8F859
:1054F000009029464FF40072204603EB460628F040
:105500006DFB42F2AC7032464946C1F6FF7020F0A6
:1055100065FD66B141F6A86142F2AC700135C1F695
:10552000FF71C1F6FF7020F037FCAE42F2D142F2BB
:10553000AC70C1F6FF7020F0C5FD41F6A8604FF4D5
:1055400000720021C1F6FF7028F048FB4FF6F87595
:1055500041F6A86242F2AC706FF07043D8F80010C8
:105560006360C0F6FF75C1F6FF72C1F6FF70A360FD
:10557000256020F0B5FAD8F800103B6842F2AC7014
:1055800041F6A862C1F6FF701944C1F6FF7203B07C
:10559000BDE8F04F20F0A4BA4BF21402C4F20402AA
:1055A0004CF20403C4F204034FF4807010B5106091
:1055B0004FF4107142F2AC701960C1F6FF7020F028
:1055C0009DF942F6701142F2183200F2FF73C3F3F4
:1055D000CF23C1F6FF71C1F6FF72102B0860138054
:1055E00027D842F66B1141F68C6242F69513C1F64C
:1055F000FF71C1F6FF72C1F6FF730220202408700C
:1056000010701C7042F27813C1F6FF731B786BB3F5
:10561000FFF730FE4BF214024CF20403C4F2040212
:10562000C4F204034FF410704FF4807110601960DD
:1056300010BD42F66B12202BC1F6FF7219D804215F
:10564000117042F695122021C1F6FF728B42117043
:105650001ED841F68C63C1F6FF7304221A7042F221
:105660007813C1F6FF731B78002BD1D1FFF7C8FC6C
:10567000D0E7402B1FD9802B2DD810211170B3F506
:10568000807FDED942F69512C1F6FF723F2111707C
:10569000802B09D9B3F5FC7F10D841F68C63C1F695
:1056A000FF7310221A70ADE741F68C63C1F6FF73E9
:1056B00008221A70A6E708211170E0E7B3F57C7F95
:1056C00016D9B3F5FC6F1AD841F68C63C1F6FF7397
:1056D00040221A7096E7B3F5806F02D8202111702E
:1056E000CDE7B3F5004F94BF402180211170C6E78C
:1056F00041F68C63C1F6FF7320221A7082E7B3F57E
:105700007C6F41F68C63C1F6FF7394BF8022FF2249
:105710001A7077E74EF284134EF28421CEF2000322
:10572000CEF2000148F234024FF40010C4F2040239
:10573000F0B418600860116821F4802111604FF006
:1057400000674FF080564FF000554FF080444FF007
:1057500000404BF224011F60C4F20B011E601D606B
:105760001C6018600A684BF224031006C4F20B0395
:10577000F8D41A68510603D51A6842F040021A603C
:105780004FF43043C4F20B031A68120603D51A68AB
:1057900042F080021A604FF4804048F2440148F21F
:1057A0004803C4F20600A024C4F20401C4F20403B6
:1057B000047000220A60F0BC1A60704708B500202F
:1057C00021F080FEAE2800D008BD0021084621F05F
:1057D00093FE72B6FFF79EFF48F68000C0F203000A
:1057E000D0F800D0D0F804F008BD00BF38B542F6BC
:1057F0006215C1F6FF7542F668142888C1F6FF7479
:10580000000A24F0D7FB287824F0D4FB2088000A73
:1058100024F0D0FB2078BDE8384024F0CBBB00BF9B
:105820002DE9F04142F60513C1F6FF731B78012BF9
:105830001AD0C8B941F66C668046C1F6FF7608F505
:10584000A077444633681D5B280A24F0B3FB043478
:10585000E8B224F0AFFBBC42F4D108F52078B8F5EB
:10586000164FECD1BDE8F08141F66C660024C1F61C
:10587000FF763368185B000A24F09CFB3368185DE0
:10588000023424F097FBB4F5164FF2D1BDE8F08155
:1058900038B542F27813C1F6FF731C782CB142F28E
:1058A000DC03C1F6FF731C788CB941F66C65C1F658
:1058B000FF752B68185B000A24F07CFB2B68185DD1
:1058C000023424F077FBB4F5164FF2D138BD41F61F
:1058D0007865C1F6FF7500242B68185B000A24F078
:1058E00069FB2B68185D023424F064FBB4F5163FA5
:1058F000F2D138BD08B542F60513C1F6FF7318782A
:10590000032808BF002024F055FB41F68A63C1F646
:10591000FF73187824F04EFB42F60613C1F6FF73AE
:10592000187824F047FB42F68933C1F6FF731878E4
:1059300024F040FB42F27A13C1F6FF73187824F08A
:1059400039FB42F6A013C1F6FF73187824F032FB3E
:1059500041F68B63C1F6FF73187824F02BFB42F6F7
:105960007A03C1F6FF73187824F024FB42F6A513DE
:10597000C1F6FF73187824F01DFB41F68163C1F670
:10598000FF73187830B142F26613C1F6FF731878CE
:1059900080F00100BDE8084024F00CBB10B542F6D1
:1059A0009B04C1F6FF7482B0207824F003FB2378B7
:1059B00023B1002024F0FEFA02B010BD42F63843B5
:1059C000C1F6FF7342F220321B680193C1F6FF72E9
:1059D000019B126844F6D3509B1AC1F26200A0FBEF
:1059E00003308009C0F11E00C0B224F0E3FA02B017
:1059F00010BD00BF70B542F67403C1F6FF7382B0EC
:105A00001B688DF80430190A1A0C01AC1B0E8DF8B6
:105A100005108DF806208DF80730254602AE15F8E2
:105A2000010B24F0C7FAB542F9D142F26C13C1F66A
:105A3000FF731B688DF80430190A1A0C1B0E8DF8C1
:105A400005108DF806208DF8073014F8010B24F0AE
:105A5000B1FAB442F9D102B070BD00BF30B542F224
:105A60007C13C1F6FF7383B01B688DF80430190AEC
:105A70001A0C1B0E01AC8DF805108DF806208DF860
:105A8000073002AD14F8010B24F094FAAC42F9D1BE
:105A900003B030BD2DE9F04142F63844C1F6FF7441
:105AA000A2B023680293029D24F06CF930B92368F8
:105AB0000393039B5B1BB3F57A7FF5D324F062F964
:105AC000002838D041F2F03106A8C1F6FF717822E3
:105AD00024F0E6FC042306A91AA8002224F090FF73
:105AE0000A2240F2E1711EA824F0E8FD1EA91AA8BE
:105AF00024F056FF014616A824F0A2FD12A90023A7
:105B0000052216A824F062FF12A827F0FFFB044626
:105B100016A824F011FE1EA824F00EFE1AA824F0E8
:105B20000BFE74B9742024F045FA06A824F004FE94
:105B300022B0BDE8F081742024F03CFA22B0BDE828
:105B4000F0810AA806A90D230B2224F059FF1EA9F3
:105B50000AA80023052224F039FF1EA827F0D6FB4F
:105B600006A9044610230EA80E2224F049FF1EA900
:105B70000EA80023052224F029FF1EA827F0C6FB4B
:105B800006A90546132312A8112224F039FF1EA9E5
:105B90000023052212A824F019FF1EA827F0B6FB47
:105BA00006A906460A2316A8082224F029FF1EA9E2
:105BB0000023052216A824F009FF1EA827F0A6FB43
:105BC00006A9074607231AA8052224F019FF1EA9D3
:105BD000002305221AA824F0F9FE1EA827F096FB40
:105BE00006A9804604231EA8002224F009FF04A968
:105BF000002305221EA824F0E9FE04A827F086FB56
:105C00003B46324629460190CDF80080204621F0DF
:105C100019F81EA824F090FD1AA824F08DFD16A8EE
:105C200024F08AFD12A824F087FD0EA824F084FD3C
:105C30000AA824F081FD20F015FF22F031F971E768
:105C400070B542F29814C1F6FF74A51C04F5C07635
:105C500035F8020C000A24F0ADF915F8020C24F016
:105C6000A9F96088000A24F0A5F9043414F8020C9C
:105C700024F0A0F9B44205F10405E9D170BD00BFDC
:105C800008B524F07FF8002816DD24F03BF8C0B2F8
:105C9000012811D8A8B141F68163C1F6FF73012232
:105CA0001A70002242F26613C1F6FF7382201A7046
:105CB000BDE8084024F07EB90020BDE8084024F08B
:105CC00079B90122EEE700BF08B524F05BF800289F
:105CD00004DD24F017F8C1B2012904D90020BDE881
:105CE000084024F067B942F68933C1F6FF7301F02A
