:1000000000000320D101000019870100DD860100F6
:10001000DD860100DD860100DD860100DD86010050
:10002000DD860100DD860100DD8601001987010003
:1000300019870100DD86010019870100CD860100C6
:10004000198701001987010019870100198701002C
:10005000198701001987010019870100198701001C
:10006000198701001987010019870100198701000C
:1000700019870100198701001987010019870100FC
:1000800019870100198701001987010019870100EC
:1000900019870100198701001987010019870100DC
:1000A0003D5801004D5801001987010019870100D2
:1000B000198701001987010019870100699501005E
:1000C00019870100D9B001001987010061B601004C
:1000D000198701008DBC01001987010019870100F3
:1000E000198701001987010019870100198701008C
:1000F000198701001987010019870100198701007C
:10010000198701001987010019870100198701006B
:100110001987010051980100198701001987010012
:10012000198701001987010019870100198701004B
:10013000198701001987010019870100198701003B
:100140001987010019870100DDC10100198701002D
:10015000198701001987010019870100198701001B
:1001600019870100198701005D58010019870100F6
:1001700019870100198701001987010019870100FB
:100180001987010005720100198701001987010014
:1001900019870100198701003DC801001987010076
:1001A0001987010019870100198701006D580100A6
:1001B00019870100198701001987010019870100BB
:1001C00019870100198701001987010019870100AB
:1001D0005C4B4CF2205210B51A804DF628121A8052
:1001E00000BF00BF18F09CFA574B4FF030621A6006
:1001F000564A9A60564ADA60564B4FF470021A60BB
:10020000554B564A1A60564B1A6812F4807204D144
:1002100054490A604FF4A8521A60534B1A781107D8
:1002200003D51A7842F008021A70504B504C5148CE
:10023000AA221A70504A00239918A14203D21958D1
:1002400099500433F8E74D4B4D4900228B4202D2BE
:1002500043F8042BFAE74B484B4900235A581A50ED
:100260000433B3F5E87FF9D1484B494A802103F8BC
:10027000011B9342FBD1474B424A1A60464B8A22EC
:100280001A70A3F5805324225A70A0221A709A790A
:100290009207FCD59A79D406FCD4404B9A7902F0A7
:1002A0000C02082AFAD13E4B60221A7002331A78E7
:1002B000802AFCD1394B00221A714E225A719A7948
:1002C0009006FCD59979354A4906FBD5354B364918
:1002D00019600821596020231370937903F00C03EF
:1002E0000C2BFAD1314B324A1A60324B324A1A6027
:1002F00000225A60072243F8042C304AC3F80C2D20
:1003000062B618F063FD174B1B68DA0705D52C4859
:1003100018F020FC2B4B2C4A1A602C4B1B785B06E8
:1003200009D5284C284A2368934204D1244818F060
:1003300011FC002323601EF0DFFE04F0C3FB1AF063
:100340000DF9FEE70E20054030800440823F040096
:100350000100002B88ED00E0002008E0030000858C
:1003600010D0034014D0034002D0074000E0074003
:10037000281DFF1FA84703006007FF1F281DFF1F40
:10038000E42FFF1F0002FF1F0000000000E400E058
:1003900064E400E008ED00E0005006400040064044
:1003A00001E007404480044000000703048004404B
:1003B000C010050014E000E07FA903000000202029
:1003C000881DC7041CE00340A5C3945A00F00740F1
:1003D000FFFFFFFFFFFFFFFFFFFFFFFFFFFFFFFF2D
:1003E000FFFFFFFFFFFFFFFFFFFFFFFFFFFFFFFF1D
:1003F000FFFFFFFFFFFFFFFFFFFFFFFFFFFFFFFF0D
:10040000FFFFFFFFFFFFFFFFFFFFFFFFDEF9FFFF23
:1004100010B5054C237833B9044B13B10448AFF33E
:1004200000800123237010BD281DFF1F0000000065
:10043000A047030008B5064B1BB106480649AFF3B9
:1004400000800648036813B1054B03B1984708BD07
:1004500000000000A04703002C1DFF1F281DFF1FE8
:10046000000000002DE9F00F82B00191B2F804A065
:10047000D38853455AD30024DFF8C4802E490B7823
:1004800003EB83035344EF2B49DC2C4D2B78C3EB58
:100490008371C3EB81031AEB030F40D41388518897
:1004A00099423CD30AEB8A094FEA8919019E06EB6F
:1004B00044070021DFF88CC01E4698F8000000EBCE
:1004C00080001D18B5F5A07F22DADFF87CB09BF81C
:1004D0000050C5EB857BC5EB8B05EB4218D44E4431
:1004E00035442844154E3578DFF860B00BFB050025
:1004F000114E35784FF4C86B0BFB05007D5A15B9CA
:100500004FF001057D527D5ADCF8006026F810504E
:10051000013401339BB2023150889842CCD20AF1A7
:10052000010A1FFA8AFAD3885345A7D2012002B0E4
:10053000BDE8F00F704700BF1C28FF1FE01EFF1F23
:100540006A28FF1F501DFF1F5028FF1FC0F9FFFF23
:100550002DE9F00F84B003919088D3888342C0F0D6
:10056000EE8000EB80035B019BB202930021DFF879
:10057000F491754F754C237803EB83030344772B79
:1005800000F3D280724D2B78C3EB8374C3EB8403EA
:10059000D84200F1C980138854889C42C0F0C480BE
:1005A000013189B26B4EF7EE005A019001F1FF3A2A
:1005B0001FFA8AFA99F8004024B9C3F19F085FFA3C
:1005C00088F801E05FFA83F83D7805EB8504444440
:1005D0009F2C00F39F80604890F800C0CCEB8C7497
:1005E000CCEB840418EB040F00F19480CCEB8C343A
:1005F000CCEB840C05EB85056544544C94F800B0B5
:100600000BEB8B0B0BEB8B0B05EB4B14504D95F859
:1006100000B0CBEBCB0B0BEB0B1B0BEB0B1B04EB77
:100620004B14DDF808C01CFA84F418FA84F4A4B260
:100630004A480578022D67D1DDF80CC03CF81A5005
:10064000306830F814C04648D0ED007A35EEE77ACD
:100650000CF4FC684FEAD80806EE108AB8EEC66AB9
:1006600027EE066A05F4FC684FEAD80806EE908A81
:10067000F8EEE66A67EEA66A76EE266AFCEEE66AB1
:1006800016EE908A5FFA88F808F01C0B4FEACC0A45
:100690005FFA8AFA06EE10AAB8EEC66A27EE066A74
:1006A0004FEAC50A5FFA8AFA06EE90AAF8EEE66A01
:1006B00067EEA66A76EE266AFCEEE66A16EE90AA69
:1006C000CAF3C40A4AEACB0A0CF4784C4FEA1C2C51
:1006D00006EE10CAF8EEC66A26EE877A05F478456B
:1006E0002D0A06EE105AF8EEC66A67EEA67A77EE85
:1006F000277AFCEEE77A17EE905A05F0F80545EAFE
:1007000068184AEA082A02E0039830F81AA0356807
:1007100025F814A001339BB24C1CA5B254889C420E
:1007200001D3294642E70198013080B2029C04F1CE
:10073000A0039BB20293D3888342BFF41BAF012076
:1007400004B0BDE8F00F70475028FF1FE01EFF1FE8
:100750001C28FF1F441DFF1F6A28FF1F3E28FF1F84
:10076000D41DFF1F722AFF1F08B5083015F050FD79
:1007700008BD00BF00B583B002AB03F8011D08300F
:100780001946012215F044FD03B05DF804FB00BFDB
:1007900038B51546846FA288E388D01AA84298BF5E
:1007A000054629B122680846D1182A4617F0C8FC28
:1007B000E3882B44E380284638BD00BFF8B50546E2
:1007C0000C4617F08FFC064617F082FC074617F020
:1007D00075FCFFB2C0B240EA4717B6B2A6F2BC76CB
:1007E00047EA46272F8017F04BFC054617F052FCCE
:1007F000064617F059FCF6B2EDB2ED0245EA461690
:10080000C0F3460006432680F8BD00BF08B518F0C7
:100810009BF908BD70B582B006460D460F4C2046C8
:10082000302114F0F9F923681B682046F1B298478B
:1008300023681B682046E9B298472169627B002340
:1008400000932046012314F0D5FC20B9012018F0B4
:10085000A7FA012000E0002002B070BDA42AFF1F0B
:1008600070B582B005460E46144C2046302114F077
:10087000D3F923681B682046294698472169627B83
:10088000002500952046012314F0B4FC2069617B0B
:10089000012300930195302214F0C0FC2069D0F8A8
:1008A0003821D0F834319A4202D014F0D5FC30709F
:1008B000012018F075FA012002B070BDA42AFF1FB4
:1008C00070B5041D34F8046C34F8025C30462946D7
:1008D000FFF7A0FF0434FF2DF4D1FF2EF2D1012049
:1008E00070BD00BF38B505460C46504B1B78002B39
:1008F00035D072B64D4B1B7813F0010F07D04C4B1F
:1009000019684C4A12680A404B490A601A60474B02
:100910001B7813F0020F07D0484B1968454A5268FC
:100920000A4045494A601A60404B1B7813F0040F97
:1009300007D0434B19683F4A92680A403E498A6093
:100940001A603A4B1B7813F0080F07D03D4B19681B
:10095000384AD2680A403849CA601A6062B63A4BCF
:10096000DA683A4B9A4209D0374B394A1A60374A0B
:10097000DA6002F180421A61364A1A604FF400725E
:10098000354B1A604FF48072A3F57F631A600A201A
:10099000002118F0EFF82C4B4FF00042DA62EDB274
:1009A0005D631A46D36A002BFCDA274B9A6B4FF033
:1009B0000042DA62E4B25C631A46D36A002BFCDAC6
:1009C000214B9B6B0A20012118F0D4F84FF4807260
:1009D000214B1A604FF40072A3F57F631A60134B2A
:1009E0001B780BB313F0010F03D0134B1A681B4B8A
:1009F0001A600E4B1B7813F0020F03D00E4B5A688F
:100A0000174B1A60094B1B7813F0040F03D00A4BE5
:100A10009A68144B1A60054B1B7813F0080F03D02B
:100A2000054BDA68104B1A6038BD00BFFC2AFF1F67
:100A300080E100E0DC2AFF1FEC2AFF1F84E100E0D8
:100A400088E100E08CE100E000C0024001100038C5
:100A500001401F0000001F800CC0044000E100E0C6
:100A600004E100E008E100E00CE100E010B504461C
:100A7000504B1B78002B35D072B64E4B1B7813F0C1
:100A8000010F07D04C4B19684C4A12680A404C4978
:100A90000A601A60474B1B7813F0020F07D0494BCE
:100AA0001968464A52680A4045494A601A60414BF3
:100AB0001B7813F0040F07D0434B19683F4A926824
:100AC0000A403F498A601A603A4B1B7813F0080FBE
:100AD00007D03E4B1968394AD2680A403849CA6083
:100AE0001A6062B63A4BDA683A4B9A4209D0384BF0
:100AF000394A1A60374ADA6002F180421A61374A8D
:100B00001A604FF40072364B1A604FF48072A3F5EE
:100B10007F631A600A20002118F02CF82C4B4FF04C
:100B20000042DA62E4B25C631A46D36A002BFCDA54
:100B3000274B9A6B4FF00042DA6200225A631A4642
:100B4000D36A002BFCDA224B9C6BE4B20A20012111
:100B500018F010F84FF48072214B1A604FF40072B5
:100B6000A3F57F631A60134B1B780BB313F0010FCF
:100B700003D0134B1A681B4B1A600E4B1B7813F0F3
:100B8000020F03D00E4B5A68174B1A60094B1B78A3
:100B900013F0040F03D00A4B9A68144B1A60054BEC
:100BA0001B7813F0080F03D0054BDA68104B1A605E
:100BB000204610BDFC2AFF1F80E100E0DC2AFF1F59
:100BC000EC2AFF1F84E100E088E100E08CE100E016
:100BD00000C002400110003801401F0000001F80CB
:100BE0000CC0044000E100E004E100E008E100E0A6
:100BF0000CE100E008B500F07F00FFF737FF08BD0B
:100C000008B540F08000FFF76DFE08BD00B583B069
:100C100000205521FFF7F4FF0020FFF7EBFF5528D8
:100C200036D1FF200121FFF7F5FD0A200DF1060165
:100C3000FFF716FE0B200DF10701FFF711FE9DF8DF
:100C40000630262B26D19DF80730422B24D1FF20D9
:100C50000121FFF7DFFD12208021FFF7DBFD64207B
:100C600018F09EF80E48FFF72BFE0E48FFF728FEFF
:100C70000D48FFF725FEFF200121FFF7CBFD1520D2
:100C80000021FFF7C7FD0948FFF71AFE012004E025
:100C9000002002E0002000E0002003B05DF804FB2B
:100CA0002C4302000440020058C5020030880200B4
:100CB00008B508282AD8DFE800F005090D11151934
:100CC0001D2125001348FFF7FBFD08BD1248FFF763
:100CD000F7FD08BD1148FFF7F3FD08BD1048FFF709
:100CE000EFFD08BD0F48FFF7EBFD08BD0E48FFF70D
:100CF000E7FD08BD0D48FFF7E3FD08BD0C48FFF711
:100D0000DFFD08BD0B48FFF7DBFD08BD0348FFF71B
:100D1000D7FD08BDB0A8020098DB020030880200B1
:100D200050550200C0A40200B819030064A50200D7
:100D3000ECDA02001CA1020038B54220FFF75AFF8E
:100D400004464320FFF756FF05464420FFF752FFB5
:100D500044EA052400F07F0044EA0040C0F3160096
:100D600038BD00BF08B5314B1B78002B35D072B6AB
:100D70002E4B1B7813F0010F07D02D4B19682D4A0D
:100D800012680A402C490A601A60284B1B7813F03D
:100D9000020F07D0294B1968264A52680A40264993
:100DA0004A601A60214B1B7813F0040F07D0244BC4
:100DB0001968204A92680A401F498A601A601B4BD2
:100DC0001B7813F0080F07D01E4B1968194AD26818
:100DD0000A401949CA601A6062B61B4BDA681B4B9D
:100DE0009A4209D0184B1A4A1A60184ADA6002F17E
:100DF00080421A61174A1A604FF40072164B1A604B
:100E00004FF48072A3F57F631A600A20002117F067
:100E1000B1FE0D4B4FF00042DA623C225A631A4693
:100E2000D36A002BFCDA084B9B6B08BDFC2AFF1F22
:100E300080E100E0DC2AFF1FEC2AFF1F84E100E0D4
:100E400088E100E08CE100E000C0024003200038AF
:100E500001401F0000001F800CC0044008B50A209C
:100E6000012117F087FE4FF48072164B1A604FF481
:100E70000072A3F57F631A60134B1B780BB313F05A
:100E8000010F03D0114B1A68114B1A600E4B1B78DF
:100E900013F0020F03D00D4B5A680E4B1A600A4B29
:100EA0001B7813F0040F03D0084B9A680A4B1A60A2
:100EB000054B1B7813F0080F03D0044BDA68074B7F
:100EC0001A6008BD0CC00440FC2AFF1FEC2AFF1F5B
:100ED00000E100E004E100E008E100E00CE100E0F6
:100EE00008B504200121FFF78BFE08BD08B50420DA
:100EF0000221FFF785FE08BD08B504200121FFF798
:100F00007FFE08BD08B5FFF7EBFFFFF7F5FFFFF722
:100F1000EDFF08BDF8B50646FFF724FF0025FF21C9
:100F20002C46124A4FF0004728464FF0010C4FF074
:100F3000020E00E01946D7625063D36A002BFCDA38
:100F4000936BDBB215B13355013407E0FF2905D1AE
:100F5000D82B03D13170737065467446D92BE9D113
:100F6000FF29E7D1FFF77AFFF8BD00BF00C00240BC
:100F7000F8B507460E461546124C2046562100226B
:100F8000134619F0FBFA20460F4B1978002213463E
:100F900019F0F4FA204639460022134619F0EEFA09
:100FA00075B1741E6F1E56FA87F7064E002530463F
:100FB00014F8011F2A462B4619F0E0FABC42F6D17C
:100FC000F8BD00BFB82CFF1FF51DFF1F2DE9F8432A
:100FD00006460022124B1A708946E1B1D8B1154677
:100FE0001C46DFF84080174618F034FA002807DC6A
:100FF000012017F0D5FE0135EDB2A94508D10AE070
:1010000025786B1C237018F035FA08F805003D466A
:101010002378B342E8D1024B1878BDE8F88300BFCB
:101020008528FF1F601DFF1F0D4B1B78762B10D1ED
:101030000B4B5A780B4B1B789A420CD1084B9B7880
:1010400083420AD1064BD878D0F1010038BF002086
:10105000704700207047002070470020704700BF95
:10106000601DFF1FF51DFF1FF8B505460F4616460C
:101070001C469DF818301BB164200A21FFF7A6FF1B
:10108000284639463246FFF773FF2046C821FFF74E
:101090009DFF844203D12846FFF7C6FFF8BD00201C
:1010A000F8BD00BF00B585B004A9002301F8043DD8
:1010B0000122009226200523FFF7D6FF05B05DF838
:1010C00004FB00BF00B585B0074B1B88ADF80C30A2
:1010D00001230093362003A902220523FFF7C4FF52
:1010E00005B05DF804FB00BF183D020000B585B0F7
:1010F000064B1868039001230093242003A90422BF
:101100000523FFF7B1FF05B05DF804FB1C3D0200AD
:1011100000B585B00023029305238DF80830042222
:101120008DF8092001228DF80A2019218DF80C1064
:101130008DF80D000092312002A90622FFF794FFDE
:1011400005B05DF804FB00BF00B585B005238DF840
:10115000083001228DF809208DF80A2012218DF81F
:101160000B1004218DF80C108DF80D000092312029
:1011700002A90622FFF778FF05B05DF804FB00BF67
:101180002DE9F8438846461D0024254627464FF0A2
:10119000010918F05FF9002808DC484617F000FE46
:1011A0000135EDB20A2D09D1BDE8F883651CEDB219
:1011B00018F060F908F804002C463D46B442E8D126
:1011C000BDE8F88300B585B001238DF80C308DF8AB
:1011D0000D000093362003A902220523FFF744FFE8
:1011E00005B05DF804FB00BF08B50020024B188075
:1011F000FFF7E8FF08BD00BF8628FF1F00B585B0D8
:1012000001238DF80C3000228DF80D20009334203E
:1012100003A902220923FFF727FF58B1074B58798A
:101220009A7942EA0020DA7942EA00201B7A43EAFE
:10123000002000E0002005B05DF804FB601DFF1FEA
:1012400010B586B0044600230293039304930C2246
:101250008DF808200A228DF80A208DF814200C4AF7
:10126000128811128DF80D108DF80E208DF81200D5
:101270000093322002A90D220523FFF7F5FE034655
:1012800018B1034A11880C441480184606B010BDEA
:101290008628FF1F08B543F2D40017F02DFE0F205B
:1012A00017F07EFDFFF722FF41F2470017F024FE02
:1012B0000F2017F075FD08BD08B5FFF7EBFFFFF72E
:1012C00093FF50B9642017F06BFDFFF7EBFEFFF7BB
:1012D000E1FFFFF789FF034628B15F20FFF734FFE6
:1012E000FFF7F0FE0123184608BD00BF08B5FFF761
:1012F0000FFFFFF7D7FE4FF4967017F051FDFFF781
:10130000C9FF08BD08B5054B1B78012B02D1FFF7BB
:10131000F9FD08BDFFF768FF08BD00BFC01EFF1F35
:1013200008B5164B187001280FD010B1022818D03C
:1013300008BD134B1B78012B03D10220FFF7B8FC2B
:1013400008BD2220FFF7D2FF08BD0D4B1B78012BF3
:1013500003D10220FFF7ACFC08BD1120FFF7C6FF48
:1013600008BD074B1B78012B03D10420FFF7A0FC1D
:1013700008BD0020FFF7BAFF08BD00BF9020FF1F87
:10138000C01EFF1F10B50446054B1B781BB1054955
:1013900011F0E6FF02E0044912F074FA204610BD95
:1013A0004828FF1F5828FF1FF81DFF1F10B582B0E7
:1013B0006846FFF7E7FFBDF80020BDF80230A2F154
:1013C0000A0189B2822908D8A3F10A0080B246280E
:1013D00003D801222B4B1A7052E0A2F1B40080B264
:1013E000822847D8A3F1A004A4B2462C45D80522F0
:1013F000244B1A7044E0A3F15A04A4B23C2C14D834
:10140000214C2468012C32D003221E4B1A7037E085
:10141000A3F15A0080B23C2809D81B480068012873
:1014200005D00422174B1A702AE082280AD8A3F1AB
:101430000A0080B2462803D80222124B1A701FE01D
:10144000822908D8A3F1A00189B2462903D806222F
:101450000C4B1A7014E08D3A92B2262A10D8513BE8
:101460009BB24E2B0CD80722064B1A7008E082283C
:10147000DDD9E7E78229BED9E2E78229BBD9C7E7F0
:1014800002B010BD3528FF1FBC25FF1F08B5074B54
:101490001B781BB1064811F0C3FF02E0054812F0AB
:1014A00017FA10B10122044B1A7008BD4828FF1F1B
:1014B0005828FF1FF81DFF1FC827FF1FF0B587B072
:1014C0002D4B1B7813F0FF0F53D12C4B1B7813F0CF
:1014D000FF0F4ED12A4B1B7813F0FF0F49D1294B38
:1014E0001B7813F0FF0F44D1274B1B7813F0FF0F2D
:1014F0003FD124E0254DFFF7C9FF60B1B4F57A7FF5
:101500002DDD08E00525214F284617F057FB10B9BF
:10151000B4F57A7F28DD1D4B1B680593059B9E1B48
:10152000B6F57A7F03DA0122134B1A7021E0184BCB
:101530001B78012B1DD00122114B1A7019E0134C9E
:1015400023680193019E0A2017F02AFC2368029366
:10155000029CA41B0F4B1B78002BCBD1D2E72B682E
:101560000393039CA41BC6E73B680493049CA41B41
:10157000CAE707B0F0BD00BFF41DFF1F7828FF1FAA
:101580006720FF1F481DFF1F581DFF1F282BFF1F2F
:101590003E28FF1F4828FF1F044B1B7813B1044B44
:1015A00018707047034B5870704700BF4828FF1FE2
:1015B0005828FF1FF81DFF1F054AD36A13F0F00FCC
:1015C00018BF916B03F47043B3F5405FF5D87047D3
:1015D00000C002400C4AD36A13F0805F04D113F0BC
:1015E000F00FF8D0936BF6E7074B4FF08052DA62BA
:1015F0001860DB6A13F0F00F05D0034B9A6BDA6AC0
:1016000012F0F00FFAD1704700C0024008B5054B48
:101610001B7840EA034040F00043034A5363FFF75E
:10162000CBFF08BD702AFF1F00C0024008B5054B64
:101630001B7840EA034040F00043034A5363FFF73E
:10164000BBFF08BDE11DFF1F00C0024008B5054BF0
:101650001B7840EA034040F01043034A5363FFF70E
:10166000ABFF08BDE11DFF1F00C0024008B5064BDF
:101670001A680649097840EA014040F00061596360
:101680001046FFF7A7FF08BD00C00240702AFF1FE9
:1016900008B5064B1A680649097840EA014040F04F
:1016A000006159631046FFF795FF08BD00C0024076
:1016B000E11DFF1F08B5064B1A680649097840EA84
:1016C000014040F0C05159631046FFF783FF08BD49
:1016D00000C00240E11DFF1FF8B507460D46164643
:1016E0001C462A20FFF792FF3846FFF7AFFF30462F
:1016F000FFF7ACFF2B20FFF789FF2846FFF7A6FF77
:101700002046FFF7A3FFF8BD30B4694B1B78002BD0
:1017100035D072B6664B1B7813F0010F07D0654BBE
:101720001C68654A12682240644C22601A60604B53
:101730001B7813F0020F07D0614B1C685E4A526899
:1017400022405E4C62601A60594B1B7813F0040F04
:1017500007D05C4B1C68584A92682240574CA260E4
:101760001A60534B1B7813F0080F07D0564B1C68B8
:10177000514AD2682240514CE2601A6062B6534B23
:10178000DB68B3F1384F0AD0504B514A1A604FF022
:101790003842DA604FF078421A614E4A1A604FF6CA
:1017A000FF724A4CE36A13F4704F03D0013A92B2CD
:1017B000002AF7D14FF00042444BDA624FF6FF7334
:1017C000424CE26A002A03DB013B9BB2002BF8D1BA
:1017D000102500223D4B01E09A6BD2B2DC6A14F076
:1017E000F00F03D0013DADB2002DF5D13A4B1D787D
:1017F0002D0445F0004444F0D904344B5C63374C6D
:1018000024782404103121435963284340F00040D8
:1018100058635C634FF6FF711846C36A13F4704F48
:1018200003D0013989B20029F7D14FF00041274B8D
:10183000D9624FF6FF732548C16A002903DB013BDB
:101840009BB2002BF8D11020204B01E09A6BD2B252
:10185000D96A11F0F00F03D0013880B20028F5D119
:10186000134B1B780BB313F0010F03D0134B196804
:101870001B4B19600E4B1B7813F0020F03D00F4B5C
:101880005968184B19600A4B1B7813F0040F03D0EA
:101890000A4B9968144B1960054B1B7813F0080F1D
:1018A00003D0064BD968114B1960104630BC704705
:1018B000FC2AFF1F80E100E0DC2AFF1FEC2AFF1F4B
:1018C00084E100E088E100E08CE100E000C002403B
:1018D00001401F0000001F80702AFF1FE11DFF1F35
:1018E00000E100E004E100E008E100E00CE100E0DC
:1018F00010B504464B4B1B78002B35D072B6494BC4
:101900001B7813F0010F07D0474B1968474A12683C
:101910000A4047490A601A60424B1B7813F0020FD5
:1019200007D0444B1968414A52680A4040494A600E
:101930001A603C4B1B7813F0040F07D03E4B19681C
:101940003A4A92680A403A498A601A60354B1B78D5
:1019500013F0080F07D0394B1968344AD2680A408F
:101960003349CA601A6062B6354BDB68B3F1384F51
:101970000AD0334B334A1A604FF03842DA604FF0E6
:1019800078421A61304A1A603620FFF73FFE04F0B1
:1019900003002E4B187003281ED8DFE800F0020960
:1019A00010174820FFF774FE0122294B1A7013E02C
:1019B0002820FFF76DFE0022254B1A700CE08820CE
:1019C000FFF766FE0122224B1A7005E0E820FFF7C0
:1019D0005FFE00221E4B1A70124B1B780BB313F0E4
:1019E000010F03D0124B1A681A4B1A600D4B1B786B
:1019F00013F0020F03D00E4B5A68174B1A60094BB5
:101A00001B7813F0040F03D0094B9A68134B1A602C
:101A1000044B1B7813F0080F03D0054BDA68104B0A
:101A20001A6010BDFC2AFF1F80E100E0DC2AFF1FC6
:101A3000EC2AFF1F84E100E088E100E08CE100E097
:101A400000C0024001401F0000001F80C025FF1F92
:101A5000AC1EFF1F00E100E004E100E008E100E04F
:101A60000CE100E0F8B51520062116F0C7F80028B3
:101A70005CD0152016F0D8F88E4C2070062016F099
:101A8000D3F8237818438C4A10700F200021FFF7F9
:101A90003BFE0746894B1B78002B35D072B6874B2F
:101AA0001B7813F0010F07D0854B1968854A12681F
:101AB0000A4085490A601A60804B1B7813F0020FB8
:101AC00007D0824B19687F4A52680A407E494A60B3
:101AD0001A607A4B1B7813F0040F07D07C4B1968FF
:101AE000784A92680A4078498A601A60734B1B787A
:101AF00013F0080F07D0774B1968724AD2680A4072
:101B00007149CA601A6062B6734BDB68B3F1384F33
:101B10000AD0714B714A1A604FF03842DA604FF0C8
:101B200078421A616E4A1A606E4D06E00020614BE1
:101B30001870614B1870F8BD25462E7886B1AC1C24
:101B40006878FFF763FDB51EEDB2012EF4D00135C4
:101B5000254414F8010BFFF769FDAC42F9D1ECE71D
:101B60001120FFF783FD554B1B780BB313F0010FCA
:101B700003D0554B1A685C4B1A60504B1B7813F01E
:101B8000020F03D0504B5A68584B1A604B4B1B78CE
:101B900013F0040F03D04C4B9A68554B1A60474B17
:101BA0001B7813F0080F03D0474BDA68514B1A60CB
:101BB000782017F0F5F8414B1B78002B35D072B622
:101BC0003E4B1B7813F0010F07D03D4B19683D4A7F
:101BD00012680A403C490A601A60384B1B7813F0BF
:101BE000020F07D0394B1968364A52680A40364905
:101BF0004A601A60314B1B7813F0040F07D0344B46
:101C00001968304A92680A402F498A601A602B4B43
:101C10001B7813F0080F07D02E4B1968294AD26899
:101C20000A402949CA601A6062B62B4BDB68B3F1DF
:101C3000384F0AD0284B294A1A604FF03842DA60F0
:101C40004FF078421A61264A1A602920FFF70EFDEC
:101C50001A4B1B780BB313F0010F03D01A4B1A6801
:101C6000214B1A60154B1B7813F0020F03D0164B53
:101C70005A681E4B1A60114B1B7813F0040F03D0E7
:101C8000114B9A681A4B1A600C4B1B7813F0080F13
:101C900003D00D4BDA68174B1A600024164B1C60FA
:101CA000164B1C702D20FFF723FE154B1C70384679
:101CB000F8BD00BFE11DFF1F702AFF1FFC2AFF1F98
:101CC00080E100E0DC2AFF1FEC2AFF1F84E100E036
:101CD00088E100E08CE100E000C0024001401F000C
:101CE00000001F80A423030000E100E004E100E005
:101CF00008E100E00CE100E0A41EFF1F5A1DFF1FD9
:101D00005128FF1F70B5474C2478012C06D1C2F131
:101D1000EF041A46C0F1EF0308462146424C2478EE
:101D2000002C79D1414C2478002C35D072B63F4C30
:101D3000247814F0010F07D03D4C26683D4D2D68E6
:101D400035403D4E35602560384C247814F0020F44
:101D500007D03A4C2668374D6D683540364E756071
:101D60002560324C247814F0040F07D0344C2668D8
:101D7000304DAD683540304EB56025602B4C247831
:101D800014F0080F07D02F4C26682A4DED68354017
:101D9000294EF560256062B62B4CE468B4F1384FEB
:101DA0000AD0294C294D25604FF03845E5604FF0A9
:101DB00078452561264D256080B289B292B29BB2EA
:101DC000FFF78AFC2C20FFF751FC184B1B78002BE7
:101DD00026D013F0010F03D0174B1A681D4B1A6061
:101DE000124B1B7813F0020F03D0134B5A681A4B97
:101DF0001A600E4B1B7813F0040F03D00E4B9A6839
:101E0000164B1A60094B1B7813F0080F08D00A4BC9
:101E1000DA68134B1A6070BD124B1880124B198090
:101E200070BD00BFAC1EFF1F5128FF1FFC2AFF1F03
:101E300080E100E0DC2AFF1FEC2AFF1F84E100E0C4
:101E400088E100E08CE100E000C0024001401F009A
:101E500000001F8000E100E004E100E008E100E094
:101E60000CE100E0DA27FF1FDC27FF1F08B5094B54
:101E70001B783BB90020014640F23F12EF23FFF7E9
:101E800041FF08BD00200146EF2240F23F13FFF75B
:101E900039FF08BDAC1EFF1F10B5B0F5A07F80F064
:101EA0008280EF297FD8404B1B78002B35D072B64B
:101EB0003D4B1B7813F0010F07D03C4B1C683C4A8C
:101EC000126822403B4C22601A60374B1B7813F09B
:101ED000020F07D0384B1C68354A52682240354CF7
:101EE00062601A60304B1B7813F0040F07D0334B3D
:101EF0001C682F4A926822402E4CA2601A602A4B1E
:101F00001B7813F0080F07D02D4B1C68284AD268A5
:101F10002240284CE2601A6062B62A4BDB68B3F1BB
:101F2000384F0AD0274B284A1A604FF03842DA60FF
:101F30004FF078421A61254A1A6082B28BB210467D
:101F40001946FFF7C9FB2C20FFF760FB204B1878E0
:101F5000204B1B7843EA0020FFF7ACFB124B1B78A9
:101F60000BB313F0010F03D0124B1A681A4B1A600F
:101F70000D4B1B7813F0020F03D00E4B5A68174B12
:101F80001A60094B1B7813F0040F03D0094B9A68B1
:101F9000134B1A60044B1B7813F0080F03D0054B4A
:101FA000DA68104B1A6010BDFC2AFF1F80E100E0C8
:101FB000DC2AFF1FEC2AFF1F84E100E088E100E03B
:101FC0008CE100E000C0024001401F0000001F80C3
:101FD0004028FF1F4928FF1F00E100E004E100E066
:101FE00008E100E00CE100E070B51546B0F5A07F17
:101FF00080F29680EF2900F393808318013BB3F5BC
:10200000A07FA8BFC0F5A075464B1B78002B35D02C
:1020100072B6444B1B7813F0010F07D0424B1C687B
:10202000424A12682240424C22601A603D4B1B78A3
:1020300013F0020F07D03F4B1C683C4A5268224005
:102040003B4C62601A60374B1B7813F0040F07D0CB
:10205000394B1C68354A92682240354CA2601A60A0
:10206000304B1B7813F0080F07D0344B1C682F4AF5
:10207000D26822402E4CE2601A6062B6304BDB68B8
:10208000B3F1384F0AD02E4B2E4A1A604FF0384227
:10209000DA604FF078421A612B4A1A6080B28BB234
:1020A000421E2A44194692B2FFF716FB2C20FFF776
:1020B000ADFA264B1E78264B1B7843EA06266C1E8B
:1020C000012D05DDB5B22846FFF7C0FA013CFAD173
:1020D0003046FFF7EFFA134B1B780BB313F0010FE9
:1020E00003D0134B1A681B4B1A600E4B1B7813F06E
:1020F000020F03D00E4B5A68174B1A60094B1B781E
:1021000013F0040F03D00A4B9A68144B1A60054B66
:102110001B7813F0080F03D0054BDA68104B1A60D8
:1021200070BD00BFFC2AFF1F80E100E0DC2AFF1F1A
:10213000EC2AFF1F84E100E088E100E08CE100E090
:1021400000C0024001401F0000001F804028FF1F08
:102150004928FF1F00E100E004E100E008E100E0A1
:102160000CE100E070B51546B0F5A07F80F29580D7
:10217000EF2900F392808B18013BEF2BC8BFC1F110
:10218000F005464B1B78002B35D072B6434B1B78BD
:1021900013F0010F07D0424B1C68424A12682240DC
:1021A000414C22601A603D4B1B7813F0020F07D0A0
:1021B0003E4B1C683B4A526822403B4C62601A60AE
:1021C000364B1B7813F0040F07D0394B1C68354A87
:1021D00092682240344CA2601A60304B1B7813F096
:1021E000080F07D0334B1C682E4AD26822402E4C71
:1021F000E2601A6062B6304BDB68B3F1384F0AD048
:102200002D4B2E4A1A604FF03842DA604FF0784278
:102210001A612B4A1A6082B289B24B1E2B441046B7
:102220009BB2FFF759FA2C20FFF7F0F9254B1E78E7
:10223000254B1B7843EA06266C1E012D05DDB5B241
:102240002846FFF703FA013CFAD13046FFF732FA8D
:10225000124B1B780BB313F0010F03D0124B1A680B
:102260001A4B1A600D4B1B7813F0020F03D00E4B64
:102270005A68174B1A60094B1B7813F0040F03D0F0
:10228000094B9A68134B1A60044B1B7813F0080F24
:1022900003D0054BDA68104B1A6070BDFC2AFF1F93
:1022A00080E100E0DC2AFF1FEC2AFF1F84E100E050
:1022B00088E100E08CE100E000C0024001401F0026
:1022C00000001F804028FF1F4928FF1F00E100E099
:1022D00004E100E008E100E00CE100E008B54B4B50
:1022E0001B78002B73D14A4B1B78002B35D072B66C
:1022F000474B1B7813F0010F07D0464B1968464A2D
:1023000012680A4045490A601A60414B1B7813F075
:10231000020F07D0424B19683F4A52680A403F49B2
:102320004A601A603A4B1B7813F0040F07D03D4BFC
:102330001968394A92680A4038498A601A60344BF1
:102340001B7813F0080F07D0374B1968324AD26850
:102350000A403249CA601A6062B6344BDB68B3F196
:10236000384F0AD0314B324A1A604FF03842DA60A7
:102370004FF078421A612F4A1A6080B2FFF79AF93B
:10238000234B1B78002B3FD013F0010F03D0234BBE
:102390001A68294B1A601E4B1B7813F0020F03D0EA
:1023A0001E4B5A68254B1A60194B1B7813F0040F0B
:1023B00003D01A4B9A68224B1A60154B1B7813F006
:1023C000080F21D0154BDA681E4B1A6008BD1E4B52
:1023D0001B78012B0CD11D4B1B881D4A128803EB67
:1023E000830302EB83131B4A126822F8130008BD13
:1023F000164B1B88164A128803EB830302EB431328
:10240000154A126822F8130008BD00BF5128FF1FAB
:10241000FC2AFF1F80E100E0DC2AFF1FEC2AFF1FDF
:1024200084E100E088E100E08CE100E000C00240CF
:1024300001401F0000001F8000E100E004E100E017
:1024400008E100E00CE100E0C01EFF1FDC27FF1FD9
:10245000DA27FF1F501DFF1F441DFF1F08B541EA6B
:102460000020FFF73BFF08BD2DE9F04F85B0054682
:102470000C4692469946474B1B78002B7ED0464B24
:102480001B78002B7DD100EBD0756D1001EBD17462
:10249000641002EBD27A4FEA6A0A09EBD9794FEA63
:1024A00069096EE028462146C5EB0A02FFF79CFD4C
:1024B00061E028462146C4EB0902FFF753FE5AE0CB
:1024C000554504DAC5EB0A070123029304E0CAEB81
:1024D00005074FF6FF7302934C45B9BFC4EB0908DB
:1024E0000123C9EB04084FF6FF730393474521D23C
:1024F0004FEA58067642DFF8A4A0DFF8A4B0039BA9
:102500001BB20193284621462A462346FFF7FAFBD1
:102510009AF800009BF80010FFF7A0FF4C4536D05A
:10252000019B1C44BE19EDD4029B05FA83F5C8EB50
:102530000606E7E77E087642DFF86090DFF860B0D5
:10254000029B1BB20193284621462A462346FFF7E9
:10255000D9FB99F800009BF80010FFF77FFF554565
:1025600015D0019B1D4418EB0606ECD4039B04FA1E
:1025700083F4F61BE7E7FFF779FC08E0494503D150
:1025800090E755459CD1A2E7904299D191E705B0DB
:10259000BDE8F08F5128FF1FC01EFF1F4028FF1FFE
:1025A0004928FF1FF8B50546454B1B78002B35D051
:1025B00072B6434B1B7813F0010F07D0414B1968DB
:1025C000414A12680A4041490A601A603C4B1B7834
:1025D00013F0020F07D03E4B19683B4A52680A407D
:1025E0003A494A601A60364B1B7813F0040F07D043
:1025F000384B1968344A92680A4034498A601A6034
:102600002F4B1B7813F0080F07D0334B19682E4A55
:10261000D2680A402D49CA601A6062B62F4BDB6847
:10262000B3F1384F0AD02D4B2D4A1A604FF0384283
:10263000DA604FF078421A612A4A1A600020014697
:1026400040F23F12EF23FFF747F82C20FEF7DEFFA2
:10265000F02640F23F17ADB209E02846FEF7F6FF3C
:10266000013CFAD12846FFF725F8013E01D03C464F
:10267000F3E7134B1B780BB313F0010F03D0134B8D
:102680001A68194B1A600E4B1B7813F0020F03D017
:102690000E4B5A68154B1A60094B1B7813F0040F48
:1026A00003D00A4B9A68124B1A60054B1B7813F043
:1026B000080F03D0054BDA680E4B1A60F8BD00BF57
:1026C000FC2AFF1F80E100E0DC2AFF1FEC2AFF1F2D
:1026D00084E100E088E100E08CE100E000C002401D
:1026E00001401F0000001F8000E100E004E100E065
:1026F00008E100E00CE100E02DE9F04105460C4660
:1027000017461E46904201DD15460746B44202DDDB
:10271000234634461E46C5EB070828462146424656
:10272000FFF762FC284631464246FFF75DFC361B48
:10273000284621463246FFF715FD384621463246E7
:10274000FFF710FDBDE8F0812DE9F041904202DD78
:10275000044610462246994202DD0C46194623469D
:10276000B0F5A07F80F2A780EF2900F3A480541E6B
:10277000B4F5A07FB4BFC0EB0207C0F5A0775A1E26
:10278000EF2AD4BFC1EB0306C1F1F0064B4B1B7817
:10279000002B35D072B6494B1B7813F0010F07D0D0
:1027A000474B1C68474A12682240474C22601A6017
:1027B000424B1B7813F0020F07D0444B1C68414A70
:1027C00052682240404C62601A603C4B1B7813F008
:1027D000040F07D03E4B1C683A4A926822403A4C9C
:1027E000A2601A60354B1B7813F0080F07D0394BE5
:1027F0001C68344AD2682240334CE2601A6062B6E8
:10280000354BDB68B3F1384F0AD0334B334A1A608B
:102810004FF03842DA604FF078421A61304A1A605D
:1028200080B289B2421E3A444B1E334492B29BB2EC
:10283000FEF752FF2C20FEF7E9FE2A4B1D782A4BAB
:102840001B7843EA0525002E10DDB8460AE028462D
:10285000FEF7FCFE013C012CF9D12846FEF72AFFC9
:10286000013E03D0012FF8DD4446F0E7134B1B78FF
:102870000BB313F0010F03D0134B1A681B4B1A60F4
:102880000E4B1B7813F0020F03D00F4B5A68184BF6
:102890001A600A4B1B7813F0040F03D00A4B9A6896
:1028A000144B1A60054B1B7813F0080F03D0064B2E
:1028B000DA68114B1A60BDE8F08100BFFC2AFF1FE7
:1028C00080E100E0DC2AFF1FEC2AFF1F84E100E02A
:1028D00088E100E08CE100E000C0024001401F0000
:1028E00000001F804028FF1F4928FF1F00E100E073
:1028F00004E100E008E100E00CE100E02DE9F04F28
:1029000083B004460E4615461F46904201DD14462C
:102910000546BE4202DD33463E461F46C4EB05086F
:10292000B8F1040F37DDC6EB0709B9F1040F32DD4A
:1029300004F1010B06F1010A58465146FFF7ACFAC3
:102940006B1E019318465146FFF7A6FA07F1FF3AAE
:1029500058465146FFF7A0FA01985146FFF79CFAF6
:1029600004F1020AA8F10408504631464246FFF736
:102970003BFB504639464246FFF736FB0236A9F18B
:102980000409204631464A46FFF7ECFB284631460B
:102990004A46FFF7E7FB03B0BDE8F08F2DE9F04FA3
:1029A00083B007460D461E46904201DD174602469B
:1029B000B54202DD2B4635461E46C7EB0208B8F18C
:1029C000040F3EDDC5EB0609B9F1040F39DD09EB53
:1029D000D9794FEA690909F10103002B31DD9946E4
:1029E000002407F1020BA8F1040300937B1C019360
:1029F00014B1012C0BD017E058462946009AFFF776
:102A0000F3FA58463146009AFFF7EEFA16E0A8F1BD
:102A1000020A0198691C5246FFF7E6FA0198711EF6
:102A20005246FFF7E1FA09E0384661194246FFF7DE
:102A3000DBFA3846311B4246FFF7D6FA01344C45E3
:102A4000D6D103B0BDE8F08F2DE9F04F87B00190EB
:102A500002911646624B1B786BB1624B1B7853B9DF
:102A600000EBD0735B10019301EBD1735B10029309
:102A700002EBD2767610C6F1010A73005B42039333
:102A800001990491029B3344084619460246FFF718
:102A900039F9554D554C28782178FFF7DFFC029A1B
:102AA000931B019819460246FFF72CF928782178E4
:102AB000FFF7D4FC019A3244029B05931046194655
:102AC000FFF720F928782178FFF7C8FC01998A1BC5
:102AD000104602990B46FFF715F928782178FFF781
:102AE000BDFC002E76DD4FF00109BAF1000F04DBCA
:102AF000013E039A0232039292444FEA4903009343
:102B000001339A44DDF81080C844029F37444046A0
:102B1000394642463B46FFF7F5F828782178FFF71B
:102B20009DFC0099C1EB080B584639465A463B4676
:102B3000FFF7E8F828782178FFF790FC029A971BB6
:102B40004046394642463B46FFF7DCF82878217874
:102B5000FFF784FC584639465A463B46FFF7D2F801
:102B600028782178FFF77AFCDDF804B0B344059F9C
:102B70004F44584639465A463B46FFF7C3F8287833
:102B80002178FFF76BFC019BC6EB030840463946F2
:102B900042463B46FFF7B6F828782178FFF75EFCFF
:102BA00000997F1A584639465A463B46FFF7AAF81D
:102BB00028782178FFF752FC4046394642463B468A
:102BC000FFF7A0F828782178FFF748FC4E4509F177
:102BD00001098ADCFFF74AF907B0BDE8F08F00BFB2
:102BE0005128FF1FC01EFF1F4028FF1F4928FF1F3D
:102BF000020A024B1A70024B187070474028FF1FE0
:102C00004928FF1F034B1878034B1B7843EA002029
:102C1000704700BF4028FF1F4928FF1FB0F1FF3F4A
:102C200003D10122054B1A707047020A044B1A7037
:102C3000044B18700022014B1A7070475A1DFF1F79
:102C40000D25FF1FB425FF1F034B1878034B1B787E
:102C500043EA0020704700BF0D25FF1FB425FF1F6A
:102C60002DE9F04F85B0054601910292874B1B7804
:102C700053B1874B1B783BB901EBD1735B100193C8
:102C800002EBD2735B100293824B1B78002B40F057
:102C9000A580814B1B78002B4AD1804C227901986A
:102CA0000244637902990B44013A013BFFF72AF889
:102CB0002379DB08627902FB03F3A279AD1A03FBE7
:102CC00005FB0BF1040B002B00F0DB804FF0000A3A
:102CD000A146DFF8D881724F724ED9F8003013F850
:102CE0000B50072445FA04F313F0010F07D0307896
:102CF0006D4B1B7843EA0020FFF7F0FA06E098F8E6
:102D000000003B7843EA0020FFF7E8FA013CB4F109
:102D1000FF3FE7D10BF1010B0AF1010A99F80430EA
:102D2000DB0899F8052002FB03F35345D5D8A8E04A
:102D30005A490A79D308487900FB03F089796D1A5A
:102D400000FB05FA0AF1040A002800F09A8000202E
:102D50000090DFF85891DFF848810099B1FBF3F358
:102D60000298034401990A4408461946013AFEF7BD
:102D7000C9FF4A4B1F79FF08012F22D49B46494EB9
:102D8000DBF8003053443B4413F8015C002445FA5F
:102D900004F313F0010F07D03078434B1B7843EA5C
:102DA0000020FFF79BFA07E099F8000098F8003040
:102DB00043EA0020FFF792FA0134082CE7D1013FE3
:102DC000DED136490A79D3089A4400981844009015
:102DD000497901FB03F18142BFD852E02F4B5A7968
:102DE00099796D1A1B79DB0802FB03F303FB05F3EA
:102DF00004330093002A44D00299039101F1010B9E
:102E000035E04646DAF800304B44009A9F5C0724D0
:102E100006F10805A846F01D001B0BF1FF312A1B27
:102E20005B46FEF76FFF47FA04F313F0010F07D07C
:102E30001C4B18781C490B7843EA0020FFF74EFA28
:102E4000013CB4F1FF3FE5D109F101099AF80430E2
:102E5000DB084B45D5DC009A1A4400920398C0EB7E
:102E60000B030E4A52799A420BF1010B09D90B4B15
:102E70001B79DB08EFD0019E4FF00009DFF81CA0A2
:102E8000C0E7FEF7F3FF05B0BDE8F08F5128FF1F44
:102E9000C01EFF1F5A1DFF1FAC1EFF1FA41EFF1FD9
:102EA000B425FF1F4028FF1F4928FF1F0D25FF1FC6
:102EB000F0B4164B1B6804331A780A705C784C60C7
:102EC0009D788D60DE78CE601C797F2CC8BFC4F5FC
:102ED00080740C619F1D5C794C6182420BD0FF2A8B
:102EE00009D075B106FB05F5013D48BF073507EB75
:102EF000E5056B1CE0E78F61B2F1FF0018BF012010
:102F000001E03B46D8E7F0BC704700BFA41EFF1F9E
:102F10002DE9F04F8DB00091029205A9FFF7C8FF8F
:102F2000002859D0FFF76EFE01902D4B1B7893B906
:102F30002C4B5C79FFF788FEFFF75AFE0A9B009A3C
:102F40001A440098029901320B462344FFF7FCFB18
:102F50000198FFF74DFE0B9E079B002B3AD0089B74
:102F6000002B37DD4FF00008C24680254746CDF8DC
:102F70000C80A94625E003FB082313F0070F02D1BC
:102F8000377801364D463D420CD0099B00990B44E1
:102F90001A44069B5B4410461946FEF7B3FE01989F
:102FA000FFF79CF96D080134E4B22246079B9C426E
:102FB000E1DB0AF1010A5FFA8AFAD046089B9A45DA
:102FC00008DA079B002BF4DD0022039CDDF808B033
:102FD000C344D0E70A9800E000200DB0BDE8F08FB0
:102FE0005A1DFF1FA41EFF1F2DE9F04F2DED068B6C
:102FF0008BB00AEE101A09EE902A994603A9FFF742
:1030000057FF002800F09980099FFFF7FBFD019012
:10301000059B002B00F08D80DDED1A7AB8EEE77A83
:10302000DFED497A67EE277A17EE900A1BF09AFCDB
:1030300041EC180B41EC100B19F0E2FF51EC100BB6
:103040001BF0A6FF09EE100AB0EE480AF0EE680A7F
:103050001AF056F851EC100B1BF09AFF08EE100A0C
:10306000069B002B65DD00268025B046DFF8DCA03E
:1030700056E003FB064313F0070F03D197F80080D7
:1030800001375D4604EB090307EE903AF8EEE77A64
:10309000049BF31807EE103AB8EEC77A27EE896A58
:1030A00067EE086A76EE666A78EEA66ABDEEE66AB4
:1030B000F8EEE96A29EE077A68EE277A37EE277A82
:1030C00076EE877AFDEEE77A15EA080F0DD016EE58
:1030D000100A17EE901A16EE102A17EE903AFEF725
:1030E00011FE0198FFF7FAF810E09AF800306BB97A
:1030F00016EE100A17EE901A16EE102A17EE903AF6
:10310000FEF700FEFFF7A0FDFFF7E8F8C5F347055F
:103110000134059BA342ACDC0136069BB34208DDBB
:10312000059B002BF8DD00244FF0800BF8EECA8AD7
:103130009FE7FEF79BFE089800E000200BB0BDEC77
:10314000068BBDE8F08F00BF295C8F3C5A1DFF1F26
:103150002DE9F04F2DED0E8B85B004468846914643
:103160009B46DDED1C7AB8EEE77ADFED687A67EE14
:10317000277A17EE900A1BF0F5FB41EC1C0B644B11
:103180005A799979641A1B79DB0802FB03F303FB74
:1031900004F304330293002A00F0B180002203926A
:1031A000DFF86CA17BE0DAF80030029A1344019A50
:1031B0009F5CD6000724F31D1B1B9AF804000BFB31
:1031C00000301BF0BDFB41EC180B40461BF0B8FB78
:1031D00041EC190B51EC180B53EC1E2B1BF016FC99
:1031E00053EC1A2B1BF05EFA02460B4651EC190BFE
:1031F0001BF05AFA1BF0A4FE054648461BF0A0FB44
:1032000041EC190B51EC180B53EC1D2B1BF0FEFB82
:1032100002460B4651EC1B0B1BF046FA02460B46CE
:1032200051EC190B1BF040FA1BF08AFE03462846AE
:1032300019466A1C0133FEF765FD47FA04F313F0E3
:10324000010F08D0334B1878334B1B7843EA00202A
:10325000FFF744F80AE0314A13783BB9304B18784D
:10326000304A137843EA0020FFF738F8013CB4F104
:10327000FF3FA0D1019B013301939AF80430DB0892
:10328000019A93428FDC029A1A440292039A531CC9
:10329000DBB203939AF80530039A93422FD99AF838
:1032A0000430DB08EFD0B0EE4C0AF0EE6C0A19F0F7
:1032B000A7FEB0EE40EAF0EE60EA03981BF040FB98
:1032C00004460D46B0EE4C0AF0EE6C0A19F018FFF9
:1032D000B0EE40DAF0EE60DA2046294653EC102BCF
:1032E0001BF094FB41EC1A0B51EC1E0B22462B46B3
:1032F0001BF08CFB41EC1B0B0023019353E7FEF703
:10330000B5FD05B0BDEC0E8BBDE8F08F295C8F3CA0
:10331000A41EFF1F4028FF1F4928FF1F5A1DFF1F23
:103320000D25FF1FB425FF1F2DE9F04F83B0054683
:103330000E4691461F461CF0E9FE82463D4B1B7827
:103340004BB13D4B1B7833B906EBD676761009EBC3
:10335000D9794FEA6909394B1B78CBB942F20F731F
:103360009E4205D1364B1E7900FB06F6C6F5A076C7
:1033700042F20E739E4208D1314B1E7900FB06F6D5
:10338000C6F5A07606EBD6767610002818DC4DE060
:1033900042F20F739E4205D1294B1E7900FB06F6BF
:1033A000C6F1F00642F20E739E42EED1244B1E7916
:1033B00000FB06F6C6F1F00606EBD6767610E4E7DB
:1033C00001354FF0000B5C46DFF87480AFB998F818
:1033D000043043B915F8010C31464A46FFF798FD11
:1033E000013006441EE015F8010C31464A46FFF74D
:1033F00037FC98F804301E4414E098F804304BB9B8
:1034000015F8010C009731464A465B46FFF7ECFD84
:10341000834407E015F8010C009731464A462346DD
:10342000FFF796FE01340135A245CFD103B0BDE8C8
:10343000F08F00BF5128FF1FC01EFF1FAC1EFF1FD3
:10344000A41EFF1F2DE9E84100AF884616461D4621
:10345000826802F1080323F00703ADEB030D694610
:103460000132002317F09AFA6846414632462B464D
:10347000FFF75AFFBD46BDE8E88100BFF8B500AFD1
:1034800004460E4615468068083020F00700ADEB74
:10349000000D1846FFF7ACFBA268204669460132D2
:1034A000002317F07BFA684631462A460023FFF7CF
:1034B0003BFFBD46F8BD00BF2DE9F0418EB09DF841
:1034C00050E00446F8B9BBB1581E00280ADD0DF1E2
:1034D0001B000DF11A041C4400F801EFA042FBD1BF
:1034E000013B00E000230EA80344302003F81C0C2D
:1034F000002003F81B0C62E030238DF81C30002301
:103500008DF81D305BE00028BABF44424FF0010C3B
:103510004FF0000C002C18DD00252C4E86FB040714
:10352000E017C0EBA70000EB8000A4EB400000F127
:1035300030070DF805700135201A86FB0074C0179E
:10354000C0EBA404002CE9DC00E0002500240EA858
:10355000284400F8384CBCF1000F02D02D208DF823
:103560001C00E0460CEB0507BB4210DD5B1BCCEBFF
:103570000306002E0DDD0EA860441D380DF11B035F
:103580009C44B44400F801EF6045FBD102E0002602
:1035900000E00026002D0CDD6C466D4406EB0803B0
:1035A0000EA803441D3B15F8010D03F8010FA542B9
:1035B000F9D10EAB1E443744002307F81C3C07A882
:1035C0000023FFF7B1FE0EB0BDE8F08167666666C6
:1035D0002DE9F04788B055EC104B894690469A4645
:1035E0009DF84470064618B1052E28BF052600E058
:1035F0000126204629461BF0CBFC00EE100A10984D
:10360000314601AA15F028F9BAF12E0F0AD001A807
:103610000DF11F0310F8016B2E2E08BF00F801AC4E
:103620009842F7D1202F23D020462946002200239C
:103630001BF05EFC88B12D238DF804300DF10503DD
:103640000DF11F0113F8012B202A01D02D2A01D1E1
:1036500003F8017C8B42F5D10AE001AB0DF11F01AB
:1036600013F8012B202A08BF03F8017C8B42F7D105
:1036700001A8494642460023FFF756FE08B0BDE8C0
:10368000F08700BF054B186002781A7142785A71B2
:1036900082789A71C278DA71704700BFA41EFF1F4A
:1036A0002DE9F04F8BB0064601920593149C159DB1
:1036B0008B4B1B78002B35D072B6894B1B7813F0DF
:1036C000010F07D0874B1868874A12680240874865
:1036D00002601A60824B1B7813F0020F07D0844BF4
:1036E0001868814A52680240804842601A607C4BE8
:1036F0001B7813F0040F07D07E4B18687A4A926843
:1037000002407A4882601A60754B1B7813F0080FEC
:1037100007D0794B1868744AD26802407348C26077
:103720001A6062B6754BDB68B3F1384F0AD0734B41
:10373000734A1A604FF03842DA604FF078421A61EB
:10374000704A1A60012D5AD16F4B1B781BB1059836
:10375000002823DC48E0019A3244059B0B443046A4
:10376000013A013BFEF7CEFA0599019A01FB02F3FB
:10377000002B08DD254604EB430435F8020BFDF76A
:1037800099FFA542F9D10020014640F23F12EF23F4
:10379000FDF7A2FF2C20FDF769FFF3E00F46019B28
:1037A0004FEA430A04EB0A08DDF814B08B443344B3
:1037B000013B0293019800F1FF3930463946029AE5
:1037C0003B46FEF79FFA4C46B9F1000F08DB454631
:1037D00035F8020DFDF76EFF013CB4F1FF3FF7D164
:1037E0000137D0445F45E8D100200146EF2240F286
:1037F0003F13FDF771FF2C20FDF738FFC2E0424B6D
:103800001B78C3B1059A002A40F3B280ABB207938C
:10381000B6B20396731E0798019A02FB00339BB25F
:10382000049389B20291530008939B46A34400205D
:103830000690814697E0059A002A46DDABB20793D1
:10384000B6B20896731E0798019A02FB00339BB22A
:10385000099389B253000693029400200390834693
:10386000079B0B449BB204930898099AFDF734FF19
:103870002C20FDF7FBFE002D1BDDDDF818800299E2
:1038800088444FF000098A460EE037F8026B5C4628
:103890003046FDF70FFF0134AC42F9D14745F4D172
:1038A00009F10109A94504D0019A002AF8DD57461B
:1038B000EBE7039B013303930298069908440290B7
:1038C000059A934201D00499CAE70020014640F2CC
:1038D0003F12EF23FDF700FF2C20FDF7C7FE51E05C
:1038E000FC2AFF1F80E100E0DC2AFF1FEC2AFF1FFB
:1038F00084E100E088E100E08CE100E000C00240EB
:1039000001401F0000001F80AC1EFF1F029B53449C
:103910009BB203981946049AFDF7DEFE2C20FDF7B2
:10392000A5FE019B5F1E0DD4D84638F8026D4C46AB
:103930003046FDF7BFFE0134AC42F9D1013FB7F18B
:10394000FF3FF2D10AF1010AAA45DFD10698013002
:103950000690029B07990B449BB20293089A9344EA
:10396000059B984204D0002DF0DD4FF0000ACDE712
:1039700000200146EF2240F23F13FDF7ADFE2C2060
:10398000FDF774FE134B1B780BB313F0010F03D03C
:10399000114B1A68114B1A600E4B1B7813F0020F73
:1039A00003D00D4B5A680E4B1A600A4B1B7813F06C
:1039B000040F03D0084B9A680A4B1A60054B1B781A
:1039C00013F0080F03D0044BDA68074B1A600BB0F2
:1039D000BDE8F08FFC2AFF1FEC2AFF1F00E100E08A
:1039E00004E100E008E100E00CE100E02DE9F0472F
:1039F00091469846089C099D694B1B78002B35D051
:103A000072B6674B1B7813F0010F07D0654B1E6829
:103A1000654A12683240654E32601A60604B1B780E
:103A200013F0020F07D0624B1E685F4A52683240A3
:103A30005E4E72601A605A4B1B7813F0040F07D069
:103A40005C4B1E68584A92683240584EB2601A6009
:103A5000534B1B7813F0080F07D0574B1E68524A80
:103A6000D2683240514EF2601A6062B6534BDB6846
:103A7000B3F1384F0AD0514A514B13604FF03843DD
:103A8000D3604FF0784313614E4B136080B289B21C
:103A900009F1FF32024408F1FF330B4492B29BB2AA
:103AA000FDF71AFE2C20FDF7B1FDB8F1000F50DD37
:103AB000CA4649E014F8013B9B0935F81300FDF7AD
:103AC000C5FD274614F8013CC3F3011335F8130074
:103AD000FDF7BCFD14F8013CC3F3810335F8130076
:103AE000FDF7B4FD14F8013C03F0030335F81300AF
:103AF000FDF7ACFD043E36B2042EDBDC00E02746C9
:103B00003B789B0935F81300FDF7A0FD3B78C3F324
:103B1000011335F81300FDF799FD3C4614F8013BFD
:103B2000C3F3810335F81300FDF790FD3B7803F0F4
:103B3000030335F81300FDF7BDFD08F1FF380FFA58
:103B400088F8B8F1000F04D0B9F1040FD7DD56465C
:103B5000B0E7134B1B780BB313F0010F03D0134BDB
:103B60001A68194B1A600E4B1B7813F0020F03D022
:103B70000E4B5A68154B1A60094B1B7813F0040F53
:103B800003D00A4B9A68124B1A60054B1B7813F04E
:103B9000080F03D0054BDA680E4B1A60BDE8F087BA
:103BA000FC2AFF1F80E100E0DC2AFF1FEC2AFF1F38
:103BB00084E100E088E100E08CE100E000C0024028
:103BC00001401F0000001F8000E100E004E100E070
:103BD00008E100E00CE100E02DE9F047914698464D
:103BE000089C099E5A4B1B78002B35D072B6584B57
:103BF0001B7813F0010F07D0564B1D68564A126808
:103C00002A40564D2A601A60514B1B7813F0020F60
:103C100007D0534B1D68504A52682A404F4D6A6086
:103C20001A604B4B1B7813F0040F07D04D4B1D68E7
:103C3000494A92682A40494DAA601A60444B1B7851
:103C400013F0080F07D0484B1D68434AD2682A403A
:103C5000424DEA601A6062B6444BDB68B3F1384FFC
:103C60000AD0424A424B13604FF03843D3604FF0C2
:103C7000784313613F4B136080B289B209F1FF3280
:103C8000024408F1FF330B4492B29BB2FDF724FDCE
:103C90002C20FDF7BBFCB8F1000F32DDCA462BE04B
:103CA00014F8013B1B0936F81300FDF7CFFC27463B
:103CB00014F8013C03F00F0336F81300FDF7C6FCBF
:103CC000023D2DB2022DEBDC00E027463C4614F805
:103CD000013B1B0936F81300FDF7B8FC3B7803F0F5
:103CE0000F0336F81300FDF7E5FC08F1FF380FFA73
:103CF00088F8B8F1000F04D0B9F1020FE5DD5546A0
:103D0000CEE7134B1B780BB313F0010F03D0134B0B
:103D10001A68194B1A600E4B1B7813F0020F03D070
:103D20000E4B5A68154B1A60094B1B7813F0040FA1
:103D300003D00A4B9A68124B1A60054B1B7813F09C
:103D4000080F03D0054BDA680E4B1A60BDE8F08708
:103D5000FC2AFF1F80E100E0DC2AFF1FEC2AFF1F86
:103D600084E100E088E100E08CE100E000C0024076
:103D700001401F0000001F8000E100E004E100E0BE
:103D800008E100E00CE100E02DE9F04105460C46B9
:103D9000734B1B78002B35D072B6714B1B7813F028
:103DA000010F07D06F4B19686F4A12680A406F49BC
:103DB0000A601A606A4B1B7813F0020F07D06C4B35
:103DC0001968694A52680A4068494A601A60644B37
:103DD0001B7813F0040F07D0664B1968624A92688B
:103DE0000A4062498A601A605D4B1B7813F0080F25
:103DF00007D0614B19685C4AD2680A405B49CA60C7
:103E00001A6062B65D4BDB68B3F1384F0AD05B4B8A
:103E10005B4A1A604FF03842DA604FF078421A611C
:103E2000584A1A600020014640F23F12EF23FDF786
:103E300053FC2C20FDF7EAFB14B905F516373EE0DC
:103E400005F59F7705F5164828E02088FDF7FEFB6D
:103E500034F8020BFDF7FAFBB442F6D1B5F83E0197
:103E6000FDF7F4FBB5F83E01FDF724FC2C46208855
:103E7000FDF7ECFB34F8020BFDF7E8FBB442F6D19A
:103E8000B5F83E01FDF7E2FB05F5A07535F8020C2B
:103E9000FDF710FC07F5A07745453AD03E462C4685
:103EA000D3E735F8020BFDF7D1FBA542F9D106F5B2
:103EB000207535F8020CFDF7FDFBBD4203D02E4600
:103EC00005F27E24EDE7264B1B78002B46D013F03D
:103ED000010F03D0254B1A682B4B1A60204B1B781F
:103EE00013F0020F03D0214B5A68284B1A601C4B69
:103EF0001B7813F0040F03D01C4B9A68244B1A60F4
:103F0000174B1B7813F0080F03D0184BDA68214BBE
:103F10001A60134B1B780BB313F0010F03D0134B34
:103F20001A68194B1A600E4B1B7813F0020F03D05E
:103F30000E4B5A68154B1A60094B1B7813F0040F8F
:103F400003D00A4B9A68124B1A60054B1B7813F08A
:103F5000080F03D0054BDA680E4B1A60BDE8F081FC
:103F6000FC2AFF1F80E100E0DC2AFF1FEC2AFF1F74
:103F700084E100E088E100E08CE100E000C0024064
:103F800001401F0000001F8000E100E004E100E0AC
:103F900008E100E00CE100E0DFED327AB4EEE70A80
:103FA000F1EE10FA49DAF1EE007AB4EEE70AF1EE3A
:103FB00010FA44DADFED2C7AB4EEE70AF1EE10FAEB
:103FC0003FDADFED2A7AB4EEE70AF1EE10FA3ADAD8
:103FD000DFED277AB4EEE70AF1EE10FA35DADFED1D
:103FE000257AB4EEE70AF1EE10FA30DADFED227A44
:103FF000B4EEE70AF1EE10FA2BDADFED207AB4EE38
:10400000E70AF1EE10FA26DADFED1D7AB4EEE70AE0
:10401000F1EE10FA21DADFED1B7AB4EEE70AF1EEE9
:1040200010FA1CDAF0EE087AB4EEE70AF1EE10FAB4
:10403000ACBF00206FF000007047642070475A202A
:10404000704750207047462070473C207047322010
:104050007047282070471E207047142070470A20A0
:10406000704700BF333383401F857B40EC5178405D
:104070008FC2754033337340D7A3704052B86E403F
:10408000CDCC6C40713D6A4010B400290ADD034676
:1040900044180020054913F8012B5040085CA34246
:1040A000F9D100E000205DF8044B70471CA002002D
:1040B00070B582B004460E4623485A2110F0ACFD7C
:1040C0002CB1214803681B680621984704E01E486C
:1040D00003681B68072198471B4C2169627B0025F8
:1040E000009520462B4611F085F82069617B01235D
:1040F000009301955A22032311F090F82369D3F815
:104100003821D3F83431D31A032B1CBF2B4633701C
:104110000D4C206911F0A0F80546206911F09CF8BB
:104120000646206911F098F82169627B002300930C
:104130002046012311F05EF806F07F00EDB205EB9A
:10414000002002B070BD00BFA42AFF1F38B504468E
:104150000D46FFF7ADFF07EE900AB8EEE77ADFED08
:104160001B7A67EE277A9FED1A7A77EEC77A9FED72
:10417000197A77EEC77AA4B19FED177AF4EEC77A71
:10418000F1EE10FA06D49FED157AF4EEC77AF1EE4F
:1041900010FA02DD00232B7038BD114BC3ED007AFD
:1041A00038BD9FED107AF4EEC77AF1EE10FA06D41E
:1041B0009FED0D7AF4EEC77AF1EE10FA02DD0023DE
:1041C0002B7038BD094BC3ED007A38BD0AD7A33C2C
:1041D0000AD7233C33938843000020C20000FA42F0
:1041E000DC1EFF1F00008CC20000BE43C41EFF1F68
:1041F00070B582B0012002A901F8010DFFF7A6FFFA
:1042000064240A25012608E030460DF10701FFF776
:104210009DFF631E13F0FF040AD0284614F0C0FD72
:104220009DF80720002AEFD0034B93ED000A01E030
:104230009FED020A02B070BDDC1EFF1F00000000EF
:1042400070B582B002A9012301F8013D0020FFF7FB
:104250007DFF64240A25002608E030460DF10701A1
:10426000FFF774FF631E13F0FF040AD0284614F012
:1042700097FD9DF80720002AEFD0044B93ED000A2C
:1042800001E09FED030A02B070BD00BFC41EFF1F16
:1042900000000000F0B48C46254C2278254B1968AC
:1042A00041F4806119604FF00041D9625A6304F112
:1042B000A3076678DA6A002A1FDBFBE7D36A002BC4
:1042C00028DBFBE71A4A527882420CD1142A0CD11F
:1042D000194A1278012A0AD11B090AD0634514BF72
:1042E0000220002021E003201FE000201DE000202C
:1042F0001BE0042019E0012017E09A6B1D6845F4CB
:1043000080651D60D9625E6304F8012BBC42D0D188
:10431000084AD3E7074B9A6B054B83F8A3201B7819
:1043200003F00F020F2ACDD1E5E7F0BC704700BFC4
:104330001025FF1F00C00240D827FF1F10B582B014
:10434000124C20462A2110F067FC23681B68204687
:104350000021984723681B6820460421984723685A
:104360001B6820460221984723681B68204642218B
:1043700098472169627B002300932046012310F0B7
:1043800039FF003018BF012002B010BDA42AFF1F62
:1043900030B583B005460C4C20462A2110F03CFC79
:1043A00023681B6820460021984723681B68204625
:1043B000294698472169627B002300932046012308
:1043C00010F018FF03B030BDA42AFF1F30B583B032
:1043D000FFF7DEFF0B4C2069617B01230093002374
:1043E00001932A22022310F019FF206910F034FFF4
:1043F00085B2206910F030FF2D02ADB2284380B2A3
:1044000003B030BDA42AFF1F10B51B4901F58C6015
:1044100001F58E6114224FF0384313F0A7F840B332
:10442000154C04F58C63236004F23C4011F07EFDD2
:104430002046012112F04EFE20B92046002112F044
:1044400049FE90B10C4901F23C4011F009FB0346D2
:1044500068B1094A92F83C2412F0700F1DBF074959
:10446000074A11600023184610BD002010BD00202F
:1044700010BD002010BD00BF9420FF1FD024FF1FDF
:10448000CC2AFF1F10B50446074800214FF40072E4
:104490001BF0E2F934B1044B552283F8FE21AA2225
:1044A00083F8FF2110BD00BFC825FF1F10B50146CE
:1044B0000448D0F86024946800F58C60024AA04754
:1044C00010BD00BF9420FF1FC825FF1F044B1B78A1
:1044D000044A127802FB03F3B0FBF3F080B270479A
:1044E0005C1DFF1F6B28FF1F064B1B78064A1278C6
:1044F00003FB02F2B0FBF2F101FB1200B0FBF3F0A0
:10450000C0B270476B28FF1F5C1DFF1F70B50120F4
:10451000FFF7B8FF314C002384F8BE31304B1D68E3
:104520002846FFF7D3FF021294F8C03162F38713D5
:1045300084F8C03184F8C1012846FFF7D5FF84F81C
:10454000BF01284B1E78B5FBF6F206FB1252013272
:1045500094F8C03162F3050384F8C031224B1B7814
:1045600084F8C231214B1B681D44013D2846FFF7EA
:10457000ADFFB0F5806F19D2021294F8C43162F326
:10458000871384F8C43184F8C5012846FFF7ACFFCF
:1045900084F8C301B5FBF6F306FB1355013594F817
:1045A000C43165F3050384F8C43109E00B4BFF22E5
:1045B00083F8C521FE2283F8C321FF2283F8C4219A
:1045C000064B074A1268C3F8C621084A1268C3F8A6
:1045D000CA210020FFF76AFF70BD00BFC825FF1F7A
:1045E000141EFF1F6B28FF1FC81DFF1F6C20FF1F1D
:1045F000F8B504460D460020FFF744FF0948214660
:104600002A4613F007FA4DB10024064F064E3846ED
:10461000314613F0D3F90134AC42F8D1014813F01C
:104620001DFAF8BDF424FF1FC825FF1F10B5034B6A
:104630001C68240214F090FB204410BD4428FF1F86
:10464000F8B54FF48072604B1A60604B1E78604B77
:104650001A68A2F58072B2FBF6F202F20111090AA1
:104660005C4B1960490001F1A100B0F5807F16D8BC
:104670004FF48073181A00F18004574B1C6001241A
:10468000564B1C808130564C2060213106FB0212B3
:10469000544B1A6047F6A7739A421AD91DE04C4B47
:1046A0001F684A4B1E784FF4C073FA1AB2FBF6F239
:1046B00002F20114240A610001F1A10003F1800556
:1046C000834204D3404D2B60424D2C60D2E72B46F1
:1046D000EBE70122444B1A7006E0B2F5803F34BF8D
:1046E00004220622404B1A70FFF710FF0120FFF74B
:1046F000C9FE3E49EB230B7000234B7090238B7057
:104700004B1E073120220133DA708B42FBD1374C2C
:104710000027E772022323732C4B1B7863732F4B04
:104720001B88E3810223237423694FF4007262F330
:1047300017232361F8236375264E3368E3822C4BDD
:104740001B7823832B4B1B786383234D2B68E361FA
:10475000244B1B682362802384F82430292384F8A7
:104760002630FFF763FFC4F82700234B03CBC4F8C0
:104770002B00C4F82F1019889B78A4F8331084F804
:1047800035301E4B03CBC4F83600C4F83A10286805
:10479000FFF78CFE124D2B680B4A11681846C91A98
:1047A000FFF726FF3846FFF76DFE4FF6F8732380BC
:1047B0004FF6FF7363802868FFF778FE30682B6838
:1047C0001844FFF773FEF8BDCC1EFF1F3F28FF1FE4
:1047D0004428FF1F4C1DFF1F141EFF1FC225FF1F73
:1047E0007420FF1F6C20FF1FC81DFF1FC825FF1F5F
:1047F0006B28FF1F5C1DFF1F5408FF1F7008FF1F61
:104800002DE9F8434FF40052734B1A604FF4804285
:10481000724B1A60724B1D78724B1968A1F580417A
:10482000B1FBF5F101F18102D2096F4B1A6042F23E
:10483000090303EB4203B3F5804F18D9694B1F6896
:104840004FF4C04342F20906F91AB1FBF5F101F148
:104850008102D20903F5005406EB4200834201D2E3
:104860002346F1E75D4803605F48026001E04FF4D2
:104870008043A3F50050A0EB420292B25B48028055
:1048800002F500525A48026005FB0131A1F50052C1
:10489000584B1A60584B994294BF0B220C22574B2D
:1048A0001A70FFF733FE0120FFF7ECFD5449EB23AC
:1048B0000B7000234B7090238B704B1E073120220E
:1048C0000133DA708B42FBD14D4C0027E772022393
:1048D0002373DFF80C8198F800306373434B1B8817
:1048E000E38102232374F8226275464A12782283F8
:1048F000454A12786283384D2A68E2613D4A12685F
:104900002262394E32686262E3624FF00109A4F814
:10491000309006236386802384F84030292384F86E
:104920004230FFF783FEC4F84300384B03CBC4F892
:104930004700C4F84B1019889B78A4F84F1084F8EE
:104940005130334B03CBC4F85200C4F856102868DA
:10495000FFF7ACFD28680630FFF7A8FD4846FFF7D3
:1049600091FD28680230FFF7A1FD28680830FFF7A5
:104970009DFD284B236003F1FF5303F500532033C3
:10498000C4F8E4314FF0FF33C4F8E831C4F8EC3137
:1049900028684844FFF78AFD28680730FFF786FD3E
:1049A000134D98F800103368286801EB4301FFF7B6
:1049B0001FFE3846FFF766FD174B23606FF070430C
:1049C0006360A3602868FFF771FD30682B681844A6
:1049D000FFF76CFDBDE8F883141EFF1FCC1EFF1F00
:1049E0003F28FF1F4428FF1F4C1DFF1FC225FF1F2C
:1049F0007420FF1F6C20FF1F0004FB00C81DFF1F59
:104A0000C825FF1F6B28FF1F5C1DFF1F5408FF1FD9
:104A10006408FF1F52526141F8FFFF0F48F6800003
:104A2000C0F20300D0F800D0D0F804F0704700BF07
:104A30001D4B4FF400121A601C490A601C4A116891
:104A400021F4802111604FF000621A604FF0805213
:104A50001A604FF000521A604FF080421A604FF017
:104A600000421A60134A136813F0800FFBD1114BF8
:104A70001B6813F0400F04D00E4B1A6842F040023E
:104A80001A600D4B1B6813F0800F04D00A4B1A6894
:104A900042F080021A60A022084B1A700023084AD4
:104AA000136004321360704784E100E084E200E0A8
:104AB0003480044024B00B4000B00B40004006405E
:104AC0004480044008B5002013F0C4FDAE2808D18E
:104AD0000020014613F0D4FD72B6FFF7A9FFFFF7DF
:104AE0009DFF08BD08B50020AE2113F0C9FD024AA4
:104AF000024B1A6008BD00BF0400FA050CED00E08F
:104B000000B583B069460522002315F047FF6846CB
:104B10001AF094FA03B05DF804FB00BF38B50D4CF1
:104B200023680D4D29881B682046090A9847236889
:104B30001B682046297898472368084D29881B68F8
:104B40002046090A984723681B6820462978984719
:104B500038BD00BFC82CFF1F3628FF1F3C28FF1F91
:104B60002DE9F0411C4B1B78012B00D018B100241B
:104B70001A4D1B4E1DE00027DFF86480174D16E02C
:104B8000D8F800302344DE5B2B681B682846310AC6
:104B900098472B681B682846F1B298470434B4F54F
:104BA000A07FEDD107F52077B7F5164F12D000247E
:104BB000E6E72B683268115B1B682846090A9847AC
:104BC0002A68336812682846195D90470234B4F5A4
:104BD000164FEED1BDE8F081D827FF1FC82CFF1F6C
:104BE000441DFF1F70B5164B1B78A3B90024154D4B
:104BF000154E2B683268115B1B682846090A9847D6
:104C00002A68336812682846195D90470234B4F563
:104C1000164FEED170BD00240A4D0C4E2B68326841
:104C2000115B1B682846090A98472A68336812688E
:104C30002846195D90470234B4F5163FEED170BD99
:104C4000C01EFF1FC82CFF1F441DFF1F501DFF1F4C
:104C500010B51D4B187815F003FB1C4C23681B681E
:104C600020461B4A117898471A4B187815F0F8FA25
:104C700023681B682046184A1178984723681B68E8
:104C80002046164A1178984723681B682046144A24
:104C900011789847134B187815F0E2FA124B1878F0
:104CA00015F0DEFA114B187815F0DAFA104B1B7874
:104CB00023B1104B197881F0010100E00021034875
:104CC00003681B68984710BDD827FF1FC82CFF1F1B
:104CD0001D28FF1FD927FF1F712AFF1FC81EFF1F96
:104CE0008428FF1F0C25FF1FC425FF1F8828FF1FD6
:104CF000591DFF1FAE1EFF1F2DE9F041ACB0524BF6
:104D00001B680293029D504C15F002FA30B92368DB
:104D10000393039B5B1BB3F57A7FF5D315F0F8F98A
:104D200028B94A4803681B687421984789E004A899
:104D30004649782215F092FC0CA804A9002204230D
:104D400015F044FE10A84FF4FC610A2215F07AFD1C
:104D50000CA810A915F01CFE014608A815F05EFD70
:104D600008A8FFF7CDFE044608A815F0CFFC10A850
:104D700015F0CCFC0CA815F0C9FC002C59D014A8D7
:104D800004A90B220D2315F021FE14A8FFF7B8FE8D
:104D9000074618A804A90E22102315F017FE18A81C
:104DA000FFF7AEFE06461CA804A91122132315F036
:104DB0000DFE1CA8FFF7A4FE054620A804A90822A2
:104DC0000A2315F003FE20A8FFF79AFE044624A844
:104DD00004A90522072315F0F9FD24A8FFF790FE8A
:104DE000804628A804A90022042315F0EFFD28A876
:104DF000FFF786FECDF800800190384631462A46FE
:104E0000234613F075F928A815F080FC24A815F0A6
:104E10007DFC20A815F07AFC1CA815F077FC18A8DA
:104E200015F074FC14A815F071FC13F0DBF813F006
:104E300091FE064803681B687421984704A815F082
:104E400065FC2CB0BDE8F081282BFF1FC82CFF1F8C
:104E5000F8B5114DAE1C05F5C077104C236836F837
:104E6000021C1B682046090A984723681B682046D5
:104E700016F8021C9847236869881B682046090AAF
:104E8000984723681B682046A9789847043504365C
:104E9000BD42E3D1F8BD00BFE41EFF1FC82CFF1FB9
:104EA00008B5034803681B68024A1178984708BD93
:104EB000C82CFF1F6928FF1F08B5024B187815F092
:104EC000CFF908BDAD1EFF1F08B5034803681B6876
:104ED000024A1178984708BDC82CFF1FD81DFF1F34
:104EE00008B5034803681B68E721984708BD00BF61
:104EF000C82CFF1F08B515F0BFF8C0B218B90122C1
:104F0000084B1A7007E0012805D10122064B1A70E0
:104F10000022044B1A70054803681B6882219847D9
:104F200008BD00BFAE1EFF1F591DFF1FC82CFF1F6D
:104F300008B515F0A1F8C0B2012807D8011C18BFA8
:104F40000121054B1970652013F09AFB0348036893
:104F50001B688521984708BD712AFF1FC82CFF1FB9
:104F600008B515F089F8C0B2012807D8011C18BF90
:104F70000121054B1970692013F082FB0348036877
:104F80001B688621984708BDC81EFF1FC82CFF1F3D
:104F900008B515F071F8C0B2012807D8011C18BF78
:104FA0000121054B19706A2013F06AFB034803685E
:104FB0001B688721984708BD8428FF1FC82CFF1F46
:104FC00008B515F059F8C1B2032904D8054B19707A
:104FD0007F2013F055FB044803681B68882198471D
:104FE00008BD00BF0C25FF1FC82CFF1F08B515F01A
:104FF00043F8C1B2022904D8054B1970732013F08D
:105000003FFB044803681B687A21984708BD00BF2E
:105010008828FF1FC82CFF1F08B5024B187815F011
:105020001FF908BDC01EFF1F08B5024B187815F008
:1050300017F908BD6108FF1F70B50E4C04F5C07666
:1050400015F01AF8054615F017F800EB052020803A
:1050500015F012F8054615F00FF800EB05206080FA
:105060000434B442ECD1044803681B688921984792
:1050700070BD00BFE41EFF1FC82CFF1F08B515F050
:1050800047F800282BDD14F0F7FFC0B2643826285B
:1050900023D8DFE800F01D2222222222222222220F
:1050A00022222222222222222222222222222222E0
:1050B000221A221422222222222222221700FFF761
:1050C0000FFF0AE0FFF7A8FF07E0FFF7ADFF04E0DE
:1050D000034803681B686421984715F0CDF808BDA4
:1050E000C82CFF1F10EE103A0370C3F30722427062
:1050F000C3F3074282701B0EC370704730B583B094
:1051000001A80F4B93ED000AFFF7ECFF0DF1070527
:105110000DF1030414F8010F15F0A2F8AC42F9D117
:1051200001A8084B93ED000AFFF7DCFF0DF1030423
:1051300014F8010F15F094F8AC42F9D103B030BD6A
:10514000DC1DFF1FB41EFF1F30B583B001A8084B44
:1051500093ED000AFFF7C6FF0DF103040DF10705FB
:1051600014F8010F15F07CF8AC42F9D103B030BD52
:10517000C41EFF1FC27883781B0443EA02630278CF
:105180001343427843EA022200EE102A704700BF20
:1051900008B54FF48072054B1A604FF4107203F596
:1051A0007F631A6008B1FFF72FF908BD14B00440FF
:1051B00008B5534B1B7813B10020FFF7E9FF514BA3
:1051C0001B78002B4ED1504B1B78012B4AD14F4BF3
:1051D0001B78002B35D072B64C4B1B7813F0010FA7
:1051E00007D04B4B19684B4A12680A404A490A607B
:1051F0001A60464B1B7813F0020F07D0474B196813
:10520000444A52680A4044494A601A603F4B1B783E
:1052100013F0040F07D0424B19683E4A92680A40C7
:105220003D498A601A60394B1B7813F0080F07D08C
:105230003C4B1968374AD2680A403749CA601A603D
:1052400062B6394BDB68B3F1384F54D0364B374A2E
:105250001A604FF03842DA604FF078421A61344AEF
:105260001A6048E0294B1B78002B35D072B6274BCB
:105270001B7813F0010F07D0254B1968254A1268D7
:105280000A4025490A601A60204B1B7813F0020F70
:1052900007D0224B19681F4A52680A401E494A60CB
:1052A0001A601A4B1B7813F0040F07D01C4B1968B7
:1052B000184A92680A4018498A601A60134B1B7892
:1052C00013F0080F07D0174B1968124AD2680A402A
:1052D0001149CA601A6062B6134BDA68154B9A42DC
:1052E00009D0114B114A1A60124ADA6002F1804269
:1052F0001A610F4A1A600F20002113F03BFC08BD11
:10530000722AFF1FC01EFF1FD827FF1FFC2AFF1F86
:1053100080E100E0DC2AFF1FEC2AFF1F84E100E0AF
:1053200088E100E08CE100E000C0024001401F0085
:1053300000001F80000001BA4FF41072034B1A6086
:105340004FF4807203F57F631A60704714B0044015
:1053500008B50122164B1A60164B1B780BB313F0DD
:10536000010F03D0144B1A68144B1A60114B1B78B1
:1053700013F0020F03D0104B5A68114B1A600D4BFB
:105380001B7813F0040F03D00B4B9A680D4B1A6077
:10539000084B1B7813F0080F03D0074BDA680A4B51
:1053A0001A600A4B1B780BB1FFF7C6FF08BD00BFA0
:1053B00084F00F40FC2AFF1FEC2AFF1F00E100E0F1
:1053C00004E100E008E100E00CE100E0722AFF1FC8
:1053D00008B5FFF7BDFFBA2013F0E2FCFFF7E8FEC7
:1053E00008BD00BF2DE9F04F83B083468A46019285
:1053F000852019F0A9FE8046019A012A02D10020D9
:10540000FFF7C6FE4FF000096CE0BAF1800FB4BFA1
:1054100055468025ECB22F4626462046FBF710FF66
:105420000028F8D020464146FBF7AAFE019BA3B90D
:1054300015F0FF0752D018F8031009EB030292B2DF
:105440000BF802100133BB42F5D109F10109013F0C
:1054500017FA89F91FFA89F940E0019A022A1BD14B
:10546000B9F1000F13D1294A137883B94046282196
:1054700014F078FE2648642114F074FEE9B208F1B5
:105480002800283914F06EFE4FF0010926E040464E
:10549000F9B214F067FE21E0019B012B1ED1B9F196
:1054A000000F16D1194A13789BB91A484146282291
:1054B00010F0AEFE17481649642210F0A9FEEAB2B9
:1054C000144808F12801283A10F0A2FE4FF0010913
:1054D00004E010484146FAB210F09AFEC6EB0A0A00
:1054E0001FFA8AFABAF1000F8FD1404619F034FE44
:1054F000FBF7E8FD019B012B04D1064810F016FDD7
:10550000FFF71AFF03B0BDE8F08F00BF722AFF1F3C
:10551000D8880200F827FF1F70B582B005464D4BB2
:105520001B78012B0AD141242046FBF763FB10F0C6
:10553000080FF9D0FBF700FC044602E0FBF75EFE23
:105540000446022D0CD1444E33681B683046C4F328
:105550000721984733681B683046E1B2984701E05D
:10556000002D6BD03B4B1B781BB900223B4B1A60C4
:105570005FE0012B04D13A4B1A68384B1A6058E0AF
:10558000204619F0E1FD354B1860324B1B78012B9A
:1055900026D11DB90121FBF7BDFC29E0012D13D156
:1055A0002E4E30680021FBF7B5FC0020FFF7F0FD20
:1055B0002C4D28463168224610F02AFE284610F06D
:1055C000B5FCFFF7B9FE43E0022D41D1234D286819
:1055D0000021FBF79FFC2868214614F0C3FD37E04B
:1055E0001E4B1868A1B22A46FFF7FCFE002D2FD1F2
:1055F000FBF788FE1C4B194A12681A609C80002237
:10560000DA801A4A1268009319481A4940F61C4376
:105610000DF034F80F4B1B78012B15480CBF1649C1
:10562000164900220DF0D2FA0C4B186819F094FDBF
:105630000EE0084B1B78012BD2D1AFE7204619F0C2
:1056400083FD064B1860034B1B78012BC8D1A1E7E3
:1056500002B070BDC01EFF1FC82CFF1F541DFF1FCE
:10566000501DFF1FF827FF1F7028FF1F101EFF1F70
:10567000281EFF1F9107000065040000510500006F
:1056800010B50120FFF784FD054C204611F0D4FC35
:105690002479640804FB00F4FFF74EFE204610BD99
:1056A0009420FF1F10B50020FFF772FD064812F08E
:1056B00089F80446054B1860FFF73EFE04F2FF70C0
:1056C000C0F3CF2010BD00BFF424FF1F4428FF1FEC
:1056D00030B58DB0FFF7E6FF044640B3FFF7D0FFCB
:1056E000810A04A80A2215F0ADF8684604A915F04D
:1056F00077F868460F4915F021F9054608A8611E9C
:105700000A2215F09FF8284608A915F00DF90A4954
:1057100015F014F90146094815F058F808A814F0D6
:10572000F5FF684614F0F2FF04A814F0EFFF0DB087
:1057300030BD00BF4068020044680200E027FF1F40
:1057400008B50020FFF724FD384812F03BF8384B2D
:10575000186000F2FF70C0F3CF20364B188010287D
:1057600003D80222344B1A701FE0202803D80422E9
:10577000314B1A7019E0402803D808222E4B1A70BA
:1057800013E0802803D810222B4B1A700DE0B0F5DF
:10579000806F03D82022284B1A7006E0B0F5004F26
:1057A00094BF40228022244B1A70B0F5807F8CBFBA
:1057B0003F222022214B1A70102803D80222204BAE
:1057C0001A7027E0202803D804221D4B1A7021E00C
:1057D000802803D808221A4B1A701BE0B0F5FC7F12
:1057E00003D81022164B1A7014E0B0F57C7F03D852
:1057F0002022134B1A700DE0B0F5FC6F03D8402245
:105800000F4B1A7006E0B0F57C6F94BF8022FF2228
:105810000B4B1A700B4B1B7813B9FEF711FF01E00D
:10582000FEF7EEFFFFF788FD08BD00BFF424FF1F61
:105830004428FF1F6420FF1F3F28FF1F6B28FF1F06
:105840005C1DFF1FC01EFF1F10B5094B1B781BB14D
:10585000084B1B78012B08D10020FFF799FCFEF7BD
:10586000D3FD0446FFF768FD00E00124204610BD8B
:10587000722AFF1FC01EFF1F10B52DED028B99204D
:1058800012F0E8FE0446431EDBB2022B00F2D18088
:10589000012859D17E2012F0DDFEC82856D124E01F
:1058A000902012F0D7FEC82840F0B18051E0982037
:1058B00012F0D0FEC82840F0AA8079E05F4BD3ED0B
:1058C000007A9FED5F7AF4EEC77AF1EE10FA07D412
:1058D000B7EE007AF4EEC77AF1EE10FA40F3AB803F
:1058E0004FF07E52554B1A60A5E07C2012F0B2FEBC
:1058F000544B1870792012F0ADFE534B18707A207B
:1059000012F0A8FE514B18707B2012F0A3FE504BF2
:1059100018707D2012F09EFE07EE100AF8EEC77A8E
:105920009FED4C8AC7EE887A4B4BC3ED007AA520D9
:1059300012F090FE07EE100AF8EEC77A87EE888A1A
:105940003E4B83ED008AB9E70228A9D0032C5ED133
:10595000ADE78E2012F07EFE3A4B18708B2012F0CD
:1059600079FE394B18708C2012F074FE374B18708A
:105970008D2012F06FFE364B18708F2012F06AFEE9
:1059800007EE100AF8EEC77A9FED328AC7EE887AE2
:10599000314BC3ED007AA62012F05CFE07EE100A30
:1059A000F8EEC77A87EE888A244B83ED008A85E774
:1059B000942012F04FFE234B1870912012F04AFEF3
:1059C000214B1870922012F045FE204B1870932046
:1059D00012F040FE1E4B1870952012F03BFE07EEB1
:1059E000100AF8EEC77A9FED1B8AC7EE887A1A4B29
:1059F000C3ED007AA72012F02DFE07EE100AF8EE94
:105A0000C77A87EE888A0D4B83ED008A56E700231C
:105A10000C4A13700E4A13700B4A13700B4A137022
:105A20004FF07C520C4B1A604FF07E52034B1A60C1
:105A300001E000248AE7BDEC028B10BDF01DFF1FC2
:105A40003333333FE01EFF1F6A28FF1F5028FF1F1C
:105A50001C28FF1F0000C842D41DFF1F38B50024BA
:105A600025462046294612F00BFE0134B4F5805F2E
:105A7000F7D138BD10B582B0002404F1830012F0D4
:105A8000E9FD01AB18550134042CF6D11846FFF797
:105A900071FB024B83ED000A02B010BDB41EFF1F64
:105AA00010B5652012F0D6FD012805D8003018BFCA
:105AB00001206C4B187002E000226A4B1A706620BD
:105AC00012F0C8FD122802D8674B187002E00D22B0
:105AD000654B1A70672012F0BDFD012805D8003013
