:020000040000FA
:2000000000800020BD01000061800100258001002580010025800100258001002580010062
:200020002580010025800100258001006180010061800100258001006180010015800100EC
:20004000618001006180010061800100618001006180010061800100618001006180010090
:20006000618001006180010061800100618001006180010061800100618001006180010070
:20008000618001006180010061800100618001006180010061800100618001006180010050
:2000A0003952010049520100618001006180010061800100618001006180010061800100CC
:2000C000618001006180010061800100618001006180010061800100618001006180010010
:2000E0006180010061800100618001006180010061800100658D01006180010089A801008F
:200100006180010005AE0100618001006180010061800100618001006180010061800100FD
:200120006180010061800100618001006180010061800100618001006180010061800100AF
:2001400061800100618001006180010061800100618001006180010061800100618001008F
:20016000618001004D90010061800100618001006180010061800100618001006180010073
:2001800061800100618001006180010061800100618001006180010061800100618001004F
:2001A00061800100618001006180010061800100618001006180010061800100574B4CF231
:2001C000205210B51A804DF628121A8000BF00BF17F04AFF524B4FF010621A60514A9A600C
:2001E000514ADA60A3F53043203B1A6812F4807204D14E490A604FF4A8521A604C4B1A7894
:20020000110703D51A7842F008021A70494B4A4C4A482A221A704A4A00239918A14203D2E4
:20022000195899500433F8E7464B474900228B4202D243F8042BFAE74448454900235A5830
:200240001A500433B3F5DE7FF9D1424B424A802103F8011B9342FBD1404B3C4A1A60404BA6
:200260008A221A70A3F5805324225A70A0221A709A799207FCD59A79D406FCD4394A9379B8
:2002800003F00C03082B374BF9D103221A714C225A719A799006FCD5324A9179314B490629
:2002A000FBD5314A4FF0017111600421516020221A709A7902F00C020C2AFAD12B4B2C4A2F
:2002C0001A602C4B2C4A1A6000225A60072243F8042C2A4AC3F80C2D62B618F0E3F9134B0B
:2002E0001B68DA0705D5264818F0A0F8254B264A1A60264B1B785B0609D5224C224A2368B0
:20030000934204D11E4818F091F8002323601DF099FA04F0D7F919F017FDFEE70E200540BD
:2003200030800440823F04000100002B14D0034002D0074000E007407897FF1F6C2C0300A9
:200340006087FF1F7897FF1F54A8FF1F0082FF1F0000000000E400E05FE400E008ED00E0F5
:2003600000500640004006404480044004800440C010050014E000E07F32020000002020F5
:20038000D3E2C7041CE00340A5C3945A00F00740FFFFFFFFFFFFFFFFFFFFFFFFFFFFFFFF21
:2003A000FFFFFFFFFFFFFFFFFFFFFFFFFFFFFFFFFFFFFFFFFFFFFFFFFFFFFFFFFFFFFFFF5D
:2003C000FFFFFFFFFFFFFFFFFFFFFFFFFFFFFFFFFFFFFFFFFFFFFFFFFFFFFFFFFFFFFFFF3D
:2003E000FFFFFFFFFFFFFFFFFFFFFFFFFFFFFFFFFFFFFFFFFFFFFFFFFFFFFFFFFFFFFFFF1D
:20040000FFFFFFFFFFFFFFFFFFFFFFFFDEF9FFFF10B5054C237833B9044B13B10448AFF375
:2004200000800123237010BD7897FF1F00000000642C030008B5064B1BB106480649AFF3DF
:2004400000800648036813B1054B03B1984708BD00000000642C03007C97FF1F7897FF1F06
:20046000000000002DE9F00F82B00191B2F804A0D38853455AD30024DFF8C4802E490B78FC
:2004800003EB83035344EF2B49DC2C4D2B78C3EB8371C3EB81031AEB030F40D41388518883
:2004A00099423CD30AEB8A094FEA8919019E06EB44070021DFF88CC01E4698F8000000EBF1
:2004C00080001D18B5F5A07F22DADFF87CB09BF80050C5EB857BC5EB8B05EB4218D44E4421
:2004E00035442844154E3578DFF860B00BFB0500114E35784FF4C86B0BFB05007D5A15B9E3
:200500004FF001057D527D5ADCF8006026F81050013401339BB2023150889842CCD20AF10A
:20052000010A1FFA8AFAD3885345A7D2012002B0BDE8F00F704700BF68A2FF1F3099FF1FAB
:20054000B6A2FF1FA097FF1F9CA2FF1FC0F9FFFF2DE9F04F89B005919046B2F804B0D3880A
:200560005B45C0F0F9800BEB8B035B019BB201934FF0000ADFF8049256465F46784A1378AD
:2005800003EB83033B44772B00F3DA80754B1B78C3EB8372C3EB8203DF4200F1D180B8F83D
:2005A00000A0B8F802305345C0F0CA80731C9EB20797701E80B299F800301BB9CAF19F01FA
:2005C000C9B201E05FFA8AF1674C237803EB83020A449F2A00F3A780644C2278C2EB82740C
:2005E000C2EB8404E14200F19E80C2EB8234C2EB840203EB83031344594A147804EB84048D
:2006000004EB840403EB4414564B1D78C5EBC50505EB051505EB051504EB4514019A12FA6A
:2006200084F411FA84F4A4B2514A1378022B73D1059B33F8100002904E4A136833F81430E3
:2006400003934D4BD3F800B04FF07E5059461CF06BFD0546039A02F4FC60C0081CF01AFEAB
:20066000014628461CF06AFE0746029B03F4FC60C0081CF00FFE014658461CF05FFE01469E
:2006800038461CF053FD1DF05BF8C7B207F01C03DB000493039AD00000F0F8001CF0FAFDC7
:2006A000014628461CF04AFE0690029BD80000F0F8001CF0EFFD014658461CF03FFE0146D1
:2006C00006981CF033FD1DF03BF8C0F3C400049A104304907F11039B03F47840000A1CF011
:2006E000D9FD29461CF02AFE0546029A02F47840000A1CF0CFFD014658461CF01FFE0146B5
:2007000028461CF013FD1DF01BF800F0F8000743049B43EA072B02E0059A32F810B0154A35
:20072000136823F814B00AF1010A1FFA8AFA731C9AB2B8F80230534501D3164639E7079F71
:200740007B1C9FB2019C04F1A0039BB20193B8F80630BB42BFF412AF012009B0BDE8F08F46
:200760003099FF1F68A2FF1F9CA2FF1FB6A2FF1F8AA2FF1F9497FF1F2498FF1FBEA4FF1FAB
:2007800008B5083015F068FA08BD00BF00B583B002AB03F8011D08301946012215F05CFAB6
:2007A00003B05DF804FB00BF38B51546846FA288E388D01AA84298BF054629B1226808467B
:2007C000D1182A4617F068F9E3882B44E380284638BD00BFF8B505460C4617F02FF9064634
:2007E00017F022F9074617F015F9FFB2C0B240EA4717B6B2A6F2BC7647EA46272F8017F044
:20080000EBF8054617F0F2F8064617F0F9F8F6B2EDB2ED0245EA4616C0F3460006432680CC
:20082000F8BD00BF08B517F0FBFD08BD70B582B006460D460F4C2046302113F0DBFE236854
:200840001B682046F1B2984723681B682046E9B298472169627B002300932046012314F094
:20086000A1F920B9012017F007FF012000E0002002B070BDDCA4FF1F70B582B005460E4643
:20088000144C2046302113F0B5FE23681B682046294698472169627B00250095204601231E
:2008A00014F080F92069617B012300930195302214F08CF92069D0F83821D0F834319A427B
:2008C00002D014F0A1F93070012017F0D5FE012002B070BDDCA4FF1F70B5041D34F8046C8D
:2008E00034F8025C30462946FFF7A0FF0434FF2DF4D1FF2EF2D1012070BD00BF38B5054696
:200900000C46454B1B78002B28D072B6424B1B7813F0010F07D0414B1968414A12680A40B1
:2009200040490A601A603C4B1B7813F0020F07D03D4B19683A4A52680A403A494A601A600D
:20094000354B1B7813F0040F07D0384B1968344A92680A4033498A601A6062B6344BDA6818
:20096000344B9A4209D0324B334A1A60314ADA6002F180421A61314A1A604FF40072304BC5
:200980001A604FF48072A3F57F631A600A20002117F05CFD264B4FF00042DA62EDB25D637C
:2009A0001A46D36A002BFCDA214B9A6B4FF00042DA62E4B25C631A46D36A002BFCDA1C4B11
:2009C0009B6B0A20012117F041FD4FF480721C4B1A604FF40072A3F57F631A600E4B1B78D5
:2009E000C3B113F0010F03D00E4B1A68154B1A60094B1B7813F0020F03D00A4B5A68124BA6
:200A00001A60054B1B7813F0040F03D0054B9A680E4B1A6038BD00BF10A5FF1F80E100E0A3
:200A2000F8A4FF1F04A5FF1F84E100E088E100E000C002400000013801401F0000001F806D
:200A40000CC0044000E100E004E100E008E100E010B50446454B1B78002B28D072B6434B2C
:200A60001B7813F0010F07D0414B1968414A12680A4041490A601A603C4B1B7813F0020F01
:200A800007D03E4B19683B4A52680A403A494A601A60364B1B7813F0040F07D0384B196840
:200AA000344A92680A4034498A601A6062B6354BDA68354B9A4209D0324B344A1A60324A93
:200AC000DA6002F180421A61314A1A604FF40072304B1A604FF48072A3F57F631A600A20BA
:200AE000002117F0B3FC274B4FF00042DA62E4B25C631A46D36A002BFCDA224B9A6B4FF04C
:200B00000042DA6200225A631A46D36A002BFCDA1C4B9C6BE4B20A20012117F097FC4FF4AD
:200B200080721C4B1A604FF40072A3F57F631A600E4B1B78C3B113F0010F03D00E4B1A6818
:200B4000154B1A60094B1B7813F0020F03D00A4B5A68124B1A60054B1B7813F0040F03D033
:200B6000054B9A680E4B1A60204610BD10A5FF1F80E100E0F8A4FF1F04A5FF1F84E100E043
:200B800088E100E000C002400000013801401F0000001F800CC0044000E100E004E100E03C
:200BA00008E100E008B500F07F00FFF751FF08BD08B540F08000FFF7A1FE08BD00B583B086
:200BC00000205521FFF7F4FF0020FFF7EBFF552836D1FF200121FFF729FE0A200DF1060185
:200BE000FFF74AFE0B200DF10701FFF745FE9DF80630262B26D19DF80730422B24D1FF20ED
:200C00000121FFF713FE12208021FFF70FFE642017F032FD0E48FFF75FFE0E48FFF75CFECC
:200C20000D48FFF759FEFF200121FFF7FFFD15200021FFF7FBFD0948FFF74EFE012004E003
:200C4000002002E0002000E0002003B05DF804FB4C2A02002427020078AC0200506F0200BF
:200C600008B508282AD8DFE800F005090D1115191D2125001348FFF72FFE08BD1248FFF77E
:200C80002BFE08BD1148FFF727FE08BD1048FFF723FE08BD0F48FFF71FFE08BD0E48FFF77E
:200CA0001BFE08BD0D48FFF717FE08BD0C48FFF713FE08BD0B48FFF70FFE08BD0348FFF7B5
:200CC0000BFE08BDD08F0200B8C20200506F0200703C0200E08B0200D8000300848C0200A0
:200CE0000CC202003C88020038B54220FFF75AFF04464320FFF756FF05464420FFF752FFD2
:200D000044EA052400F07F0044EA0040C0F3160038BD00BF08B52B4B1B78002B28D072B611
:200D2000284B1B7813F0010F07D0274B1968274A12680A4026490A601A60224B1B7813F045
:200D4000020F07D0234B1968204A52680A4020494A601A601B4B1B7813F0040F07D01E4B72
:200D600019681A4A92680A4019498A601A6062B61A4BDA681A4B9A4209D0184B194A1A606B
:200D8000174ADA6002F180421A61174A1A604FF40072164B1A604FF48072A3F57F631A60F4
:200DA0000A20002117F052FB0C4B4FF00042DA623C225A631A46D36A002BFCDA074B9B6B6F
:200DC00008BD00BF10A5FF1F80E100E0F8A4FF1F04A5FF1F84E100E088E100E000C002406A
:200DE0000110013801401F0000001F800CC0044008B50A20012117F029FB4FF48072124BD4
:200E00001A604FF40072A3F57F631A600F4B1B78C3B113F0010F03D00D4B1A680D4B1A60BC
:200E20000A4B1B7813F0020F03D0094B5A680A4B1A60064B1B7813F0040F03D0044B9A68E0
:200E4000064B1A6008BD00BF0CC0044010A5FF1F04A5FF1F00E100E004E100E008E100E04A
:200E600008B504200121FFF7A3FE08BD08B504200221FFF79DFE08BD08B504200121FFF7C0
:200E800097FE08BD08B5FFF7EBFFFFF7F5FFFFF7EDFF08BDF8B50646FFF73CFF0025FF215B
:200EA0002C46124A4FF0004728464FF0010C4FF0020E00E01946D7625063D36A002BFCDA6C
:200EC000936BDBB215B13355013407E0FF2905D1D82B03D13170737065467446D92BE9D1A1
:200EE000FF29E7D1FFF784FFF8BD00BF00C00240F8B507460E461546124C2046562100221D
:200F0000134618F031FF20460F4B19780022134618F02AFF204639460022134618F024FFB8
:200F200075B1741E6F1E56FA87F7064E0025304614F8011F2A462B4618F016FFBC42F6D1C0
:200F4000F8BD00BFCCA6FF1F4598FF1F2DE9F84306460022124B1A708946E1B1D8B11546A7
:200F60001C46DFF84080174617F072FE002807DC012017F081FB0135EDB2A94508D10AE06F
:200F800025786B1C237017F073FE08F805003D462378B342E8D1024B1878BDE8F88300BF95
:200FA000D1A2FF1FB097FF1F0D4B1B78762B10D10B4B5A780B4B1B789A420CD1084B9B789E
:200FC00083420AD1064BD878D0F1010038BF0020704700207047002070470020704700BFFC
:200FE000B097FF1F4598FF1FF8B505460F4616461C469DF818301BB164200A21FFF7A6FF93
:20100000284639463246FFF773FF2046C821FFF79DFF844203D12846FFF7C6FFF8BD00208A
:20102000F8BD00BF00B585B004A9002301F8043D0122009226200523FFF7D6FF05B05DF850
:2010400004FB00BF00B585B0074B1B88ADF80C3001230093362003A902220523FFF7C4FF54
:2010600005B05DF804FB00BF3824020000B585B0064B1868039001230093242003A904222F
:201080000523FFF7B1FF05B05DF804FB3C24020000B585B00023029305238DF8083004226A
:2010A0008DF8092001228DF80A2019218DF80C108DF80D000092312002A90622FFF794FF04
:2010C00005B05DF804FB00BF00B585B005238DF8083001228DF809208DF80A2012218DF841
:2010E0000B1004218DF80C108DF80D000092312002A90622FFF778FF05B05DF804FB00BF92
:201100002DE9F8438846461D0024254627464FF0010917F09DFD002808DC484617F0ACFA20
:201120000135EDB20A2D09D1BDE8F883651CEDB217F09EFD08F804002C463D46B442E8D13F
:20114000BDE8F88300B585B001238DF80C308DF80D000093362003A902220523FFF744FFF4
:2011600005B05DF804FB00BF08B50020024B1880FFF7E8FF08BD00BFD2A2FF1F00B585B008
:2011800001238DF80C3000228DF80D200093342003A902220923FFF727FF58B1074B58796B
:2011A0009A7942EA0020DA7942EA00201B7A43EA002000E0002005B05DF804FBB097FF1FE1
:2011C00010B586B0044600230293039304930C228DF808200A228DF80A208DF814200C4A20
:2011E000128811128DF80D108DF80E208DF812000093322002A90D220523FFF7F5FE03462D
:2012000018B1034A11880C441480184606B010BDD2A2FF1F08B541F64C5017F09FFA0F2069
:2012200017F02AFAFFF722FF40F6C41017F096FA0F2017F021FA08BD08B5FFF7EBFFFFF722
:2012400093FF50B9642017F017FAFFF7EBFEFFF7E1FFFFF789FF034628B15F20FFF734FF5A
:20126000FFF7F0FE0123184608BD00BF08B5FFF70FFFFFF7D7FE4FF4967017F0FDF9FFF7BC
:20128000C9FF08BD08B5054B1B78012B02D1FFF7F9FD08BDFFF768FF08BD00BF1099FF1FC9
:2012A00008B5164B187001280FD010B1022818D008BD134B1B78012B03D10220FFF7D0FC13
:2012C00008BD2220FFF7D2FF08BD0D4B1B78012B03D10220FFF7C4FC08BD1120FFF7C6FF07
:2012E00008BD074B1B78012B03D10420FFF7B8FC08BD0020FFF7BAFF08BD00BFE09AFF1FC6
:201300001099FF1F10B50446054B1B781BB1054911F034FE02E0044912F0BCF8204610BDAF
:2013200094A2FF1FA4A2FF1F4898FF1F10B582B06846FFF7E7FFBDF80020BDF80230A2F127
:201340000A0189B2822908D8A3F10A0080B2462803D801222B4B1A7052E0A2F1B40080B2D5
:20136000822847D8A3F1A004A4B2462C45D80522244B1A7044E0A3F15A04A4B23C2C14D8A7
:20138000214C2468012C32D003221E4B1A7037E0A3F15A0080B23C2809D81B48006801289D
:2013A00005D00422174B1A702AE082280AD8A3F10A0080B2462803D80222124B1A701FE08D
:2013C000822908D8A3F1A00189B2462903D806220C4B1A7014E08D3A92B2262A10D8513BFC
:2013E0009BB24E2B0CD80722064B1A7008E08228DDD9E7E78229BED9E2E78229BBD9C7E731
:2014000002B010BD81A2FF1F08A0FF1F08B5074B1B781BB1064811F011FE02E0054812F049
:201420005FF810B10122044B1A7008BD94A2FF1FA4A2FF1F4898FF1F14A2FF1FF0B587B06D
:201440002D4B1B7813F0FF0F53D12C4B1B7813F0FF0F4ED12A4B1B7813F0FF0F49D1294B6B
:201460001B7813F0FF0F44D1274B1B7813F0FF0F3FD124E0254DFFF7C9FF60B1B4F57A7FA6
:201480002DDD08E00525214F284617F003F810B9B4F57A7F28DD1D4B1B680593059B9E1B04
:2014A000B6F57A7F03DA0122134B1A7021E0184B1B78012B1DD00122114B1A7019E0134C2F
:2014C00023680193019E0A2017F0D6F823680293029CA41B0F4B1B78002BCBD1D2E72B68D2
:2014E0000393039CA41BC6E73B680493049CA41BCAE707B0F0BD00BF4498FF1FC4A2FF1F60
:20150000B79AFF1F9897FF1FA897FF1F3CA5FF1F8AA2FF1F94A2FF1F044B1B7813B1044B20
:2015200018707047034B5870704700BF94A2FF1FA4A2FF1F4898FF1F054AD36A13F0F00F9C
:2015400018BF916B03F47043B3F5405FF5D8704700C002400C4AD36A13F0805F04D113F0F4
:20156000F00FF8D0936BF6E7074B4FF08052DA621860DB6A13F0F00F05D0034B9A6BDA6AFF
:2015800012F0F00FFAD1704700C0024008B5054B1B7840EA034040F00043034A5363FFF74D
:2015A000CBFF08BDBCA4FF1F00C0024008B5054B1B7840EA034040F00043034A5363FFF7A3
:2015C000BBFF08BD3198FF1F00C0024008B5054B1B7840EA034040F01043034A5363FFF71A
:2015E000ABFF08BD3198FF1F00C0024008B5064B1A680649097840EA014040F0006159637B
:201600001046FFF7A7FF08BD00C00240BCA4FF1F08B5064B1A680649097840EA014040F098
:20162000006159631046FFF795FF08BD00C002403198FF1F08B5064B1A680649097840EA75
:20164000014040F0C05159631046FFF783FF08BD00C002403198FF1FF8B507460D46164627
:201660001C462A20FFF792FF3846FFF7AFFF3046FFF7ACFF2B20FFF789FF2846FFF7A6FF2C
:201680002046FFF7A3FFF8BD30B45E4B1B78002B28D072B65B4B1B7813F0010F07D05A4B64
:2016A0001C685A4A12682240594C22601A60554B1B7813F0020F07D0564B1C68534A5268EB
:2016C0002240534C62601A604E4B1B7813F0040F07D0514B1C684D4A926822404C4CA26007
:2016E0001A6062B64D4BDB68B3F1384F0AD04B4B4B4A1A604FF03842DA604FF078421A616C
:20170000484A1A604FF6FF72444CE36A13F4704F03D0013A92B2002AF7D14FF000423F4B15
:20172000DA624FF6FF733D4CE26A002A03DB013B9BB2002BF8D110250022384B01E09A6B9C
:20174000D2B2DC6A14F0F00F03D0013DADB2002DF5D1354B1D782D0445F0004444F0D90489
:201760002E4B5C63314C24782404103121435963284340F0004058635C634FF6FF71184627
:20178000C36A13F4704F03D0013989B20029F7D14FF00041214BD9624FF6FF731F48C16AAD
:2017A000002903DB013B9BB2002BF8D110201B4B01E09A6BD2B2D96A11F0F00F03D0013856
:2017C00080B20028F5D10F4B1B78C3B113F0010F03D00F4B1968164B19600A4B1B7813F002
:2017E000020F03D00A4B5968124B1960054B1B7813F0040F03D0064B99680F4B19601046D2
:2018000030BC704710A5FF1F80E100E0F8A4FF1F04A5FF1F84E100E088E100E000C0024000
:2018200001401F0000001F80BCA4FF1F3198FF1F00E100E004E100E008E100E010B50446E6
:20184000404B1B78002B28D072B63E4B1B7813F0010F07D03C4B19683C4A12680A403C4942
:201860000A601A60374B1B7813F0020F07D0394B1968364A52680A4035494A601A60314BDD
:201880001B7813F0040F07D0334B19682F4A92680A402F498A601A6062B6304BDB68B3F1B6
:2018A000384F0AD02D4B2E4A1A604FF03842DA604FF078421A612B4A1A603620FFF766FE57
:2018C00004F00300284B187003281ED8DFE800F0020910174820FFF79BFE0122234B1A70FA
:2018E00013E02820FFF794FE0022204B1A700CE08820FFF78DFE01221C4B1A7005E0E820F8
:20190000FFF786FE0022194B1A700E4B1B78C3B113F0010F03D00E4B1A68154B1A60094BEE
:201920001B7813F0020F03D0094B5A68114B1A60044B1B7813F0040F03D0054B9A680E4BCB
:201940001A6010BD10A5FF1F80E100E0F8A4FF1F04A5FF1F84E100E088E100E000C002401B
:2019600001401F0000001F800CA0FF1FFC98FF1F00E100E004E100E008E100E0F8B51520BB
:20198000062115F0F1FD00284FD0152015F002FE784C2070062015F0FDFD23781843764A7D
:2019A00010700F200021FFF76FFE0746734B1B78002B28D072B6714B1B7813F0010F07D0D2
:2019C0006F4B19686F4A12680A406F490A601A606A4B1B7813F0020F07D06C4B1968694A95
:2019E00052680A4068494A601A60644B1B7813F0040F07D0664B1968624A92680A40624912
:201A00008A601A6062B6634BDB68B3F1384F0AD0604B614A1A604FF03842DA604FF0784298
:201A20001A615E4A1A605E4D06E00020514B1870514B1870F8BD25462E7886B1AC1C68786B
:201A4000FFF7A4FDB51EEDB2012EF4D00135254414F8010BFFF7AAFDAC42F9D1ECE711207A
:201A6000FFF7C4FD454B1B78C3B113F0010F03D0454B1A684B4B1A60404B1B7813F0020FDE
:201A800003D0414B5A68484B1A603C4B1B7813F0040F03D03C4B9A68444B1A60782016F0E5
:201AA000EBFD364B1B78002B28D072B6334B1B7813F0010F07D0324B1968324A12680A40A6
:201AC00031490A601A602D4B1B7813F0020F07D02E4B19682B4A52680A402B494A601A60A7
:201AE000264B1B7813F0040F07D0294B1968254A92680A4024498A601A6062B6254BDB68B1
:201B0000B3F1384F0AD0234B234A1A604FF03842DA604FF078421A61204A1A602920FFF7E1
:201B200065FD164B1B78C3B113F0010F03D0164B1A681C4B1A60114B1B7813F0020F03D05B
:201B4000114B5A68184B1A600C4B1B7813F0040F03D00D4B9A68154B1A600024144B1C6084
:201B6000144B1C702D20FFF769FE134B1C703846F8BD00BF3198FF1FBCA4FF1F10A5FF1FBC
:201B800080E100E0F8A4FF1F04A5FF1F84E100E088E100E000C0024001401F0000001F80F4
:201BA000C40A030000E100E004E100E008E100E0F498FF1FAA97FF1F9DA2FF1F70B53B4CF3
:201BC0002478012C06D1C2F1EF041A46C0F1EF0308462146364C2478002C62D1354C24786D
:201BE000002C28D072B6334C247814F0010F07D0314C2668314D2D683540314E3560256067
:201C00002C4C247814F0020F07D02E4C26682B4D6D6835402A4E75602560264C247814F016
:201C2000040F07D0284C2668244DAD683540244EB560256062B6254CE468B4F1384F0AD0D6
:201C4000224C234D25604FF03845E5604FF078452561204D256080B289B292B29BB2FFF7B8
:201C6000FBFC2C20FFF7C2FC124B1B78EBB113F0010F03D0124B1A68174B1A600D4B1B7855
:201C800013F0020F03D00E4B5A68144B1A60094B1B7813F0040F08D0094B9A68104B1A6069
:201CA00070BD104B1880104B198070BDFC98FF1F9DA2FF1F10A5FF1F80E100E0F8A4FF1F06
:201CC00004A5FF1F84E100E088E100E000C0024001401F0000001F8000E100E004E100E028
:201CE00008E100E026A2FF1F28A2FF1F08B5094B1B783BB90020014640F23F12EF23FFF7C3
:201D00005DFF08BD00200146EF2240F23F13FFF755FF08BDFC98FF1F10B5B0F5A07F6BD21F
:201D2000EF2969D8354B1B78002B28D072B6334B1B7813F0010F07D0314B1C68314A1268FC
:201D40002240314C22601A602C4B1B7813F0020F07D02E4B1C682B4A526822402A4C6260ED
:201D60001A60264B1B7813F0040F07D0284B1C68244A92682240244CA2601A6062B6254BC3
:201D8000DB68B3F1384F0AD0224B234A1A604FF03842DA604FF078421A61204A1A6082B228
:201DA0008BB210461946FFF757FC2C20FFF7EEFB1B4B18781B4B1B7843EA0020FFF73AFC55
:201DC0000E4B1B78C3B113F0010F03D00E4B1A68154B1A60094B1B7813F0020F03D00A4BE5
:201DE0005A68124B1A60054B1B7813F0040F03D0054B9A680E4B1A6010BD00BF10A5FF1FFA
:201E000080E100E0F8A4FF1F04A5FF1F84E100E088E100E000C0024001401F0000001F8071
:201E20008CA2FF1F95A2FF1F00E100E004E100E008E100E070B51546B0F5A07F7EDAEF29FE
:201E40007CDC8318013BB3F5A07FA8BFC0F5A0753B4B1B78002B28D072B6394B1B7813F0DD
:201E6000010F07D0374B1C68374A12682240374C22601A60324B1B7813F0020F07D0344B1F
:201E80001C68314A52682240304C62601A602C4B1B7813F0040F07D02E4B1C682A4A92680D
:201EA00022402A4CA2601A6062B62B4BDB68B3F1384F0AD0284B294A1A604FF03842DA60A5
:201EC0004FF078421A61264A1A6080B28BB2421E2A44194692B2FFF7BFFB2C20FFF756FB81
:201EE000204B1E78204B1B7843EA06266C1E012D05DDB5B22846FFF769FB013CFAD1304643
:201F0000FFF798FB0E4B1B78C3B113F0010F03D00E4B1A68154B1A60094B1B7813F0020F42
:201F200003D00A4B5A68124B1A60054B1B7813F0040F03D0054B9A680E4B1A6070BD00BF03
:201F400010A5FF1F80E100E0F8A4FF1F04A5FF1F84E100E088E100E000C0024001401F00FC
:201F600000001F808CA2FF1F95A2FF1F00E100E004E100E008E100E070B51546B0F5A07F8E
:201F80007DDAEF297BDC8B18013BEF2BC8BFC1F1F0053B4B1B78002B28D072B6384B1B78DA
:201FA00013F0010F07D0374B1C68374A12682240364C22601A60324B1B7813F0020F07D05B
:201FC000334B1C68304A52682240304C62601A602B4B1B7813F0040F07D02E4B1C682A4A4A
:201FE00092682240294CA2601A6062B62A4BDB68B3F1384F0AD0284B284A1A604FF03842A7
:20200000DA604FF078421A61254A1A6082B289B24B1E2B4410469BB2FFF71EFB2C20FFF7EE
:20202000B5FA204B1E78204B1B7843EA06266C1E012D05DDB5B22846FFF7C8FA013CFAD16A
:202040003046FFF7F7FA0E4B1B78C3B113F0010F03D00E4B1A68154B1A60094B1B7813F03E
:20206000020F03D0094B5A68114B1A60044B1B7813F0040F03D0054B9A680E4B1A6070BD73
:2020800010A5FF1F80E100E0F8A4FF1F04A5FF1F84E100E088E100E000C0024001401F00BB
:2020A00000001F808CA2FF1F95A2FF1F00E100E004E100E008E100E008B5404B1B78002B8B
:2020C0005DD13F4B1B78002B28D072B63C4B1B7813F0010F07D03B4B19683B4A12680A4016
:2020E0003A490A601A60364B1B7813F0020F07D0374B1968344A52680A4034494A601A6054
:202100002F4B1B7813F0040F07D0324B19682E4A92680A402D498A601A6062B62E4BDB685D
:20212000B3F1384F0AD02C4B2C4A1A604FF03842DA604FF078421A61294A1A6080B2FFF7B7
:2021400079FA1F4B1B78002B36D013F0010F03D01E4B1A68234B1A60194B1B7813F0020F1A
:2021600003D01A4B5A68204B1A60154B1B7813F0040F21D0154B9A681C4B1A6008BD1C4B17
:202180001B78012B0CD11B4B1B881B4A128803EB830302EB8313194A126822F8130008BDD5
:2021A000144B1B88144A128803EB830302EB4313134A126822F8130008BD00BF9DA2FF1F89
:2021C00010A5FF1F80E100E0F8A4FF1F04A5FF1F84E100E088E100E000C0024001401F007A
:2021E00000001F8000E100E004E100E008E100E01099FF1F28A2FF1F26A2FF1FA097FF1F07
:202200009497FF1F08B541EA0020FFF755FF08BD2DE9F04F85B005460C4692469946474BEE
:202220001B78002B7ED0464B1B78002B7DD100EBD0756D1001EBD174641002EBD27A4FEA31
:202240006A0A09EBD9794FEA69096EE028462146C5EB0A02FFF7EEFD61E028462146C4EB94
:202260000902FFF789FE5AE0554504DAC5EB0A070123029304E0CAEB05074FF6FF730293B9
:202280004C45B9BFC4EB09080123C9EB04084FF6FF730393474521D24FEA58067642DFF89F
:2022A000A4A0DFF8A4B0039B1BB20193284621462A462346FFF782FC9AF800009BF8001059
:2022C000FFF7A0FF4C4536D0019B1C44BE19EDD4029B05FA83F5C8EB0606E7E77E0876425F
:2022E000DFF86090DFF860B0029B1BB20193284621462A462346FFF761FC99F800009BF80D
:202300000010FFF77FFF554515D0019B1D4418EB0606ECD4039B04FA83F4F61BE7E7FFF706
:20232000E5FC08E0494503D190E755459CD1A2E7904299D191E705B0BDE8F08F9DA2FF1F81
:202340001099FF1F8CA2FF1F95A2FF1FF8B505463A4B1B78002B28D072B6384B1B7813F0A1
:20236000010F07D0364B1968364A12680A4036490A601A60314B1B7813F0020F07D0334B55
:202380001968304A52680A402F494A601A602B4B1B7813F0040F07D02D4B1968294A926846
:2023A0000A4029498A601A6062B62A4BDB68B3F1384F0AD0274B284A1A604FF03842DA60D7
:2023C0004FF078421A61254A1A600020014640F23F12EF23FFF740F92C20FFF7D7F8F0264E
:2023E00040F23F17ADB209E02846FFF7EFF8013CFAD12846FFF71EF9013E01D03C46F3E7D3
:202400000E4B1B78C3B113F0010F03D00E4B1A68134B1A60094B1B7813F0020F03D00A4BA0
:202420005A68104B1A60054B1B7813F0040F03D0054B9A680C4B1A60F8BD00BF10A5FF1FCF
:2024400080E100E0F8A4FF1F04A5FF1F84E100E088E100E000C0024001401F0000001F802B
:2024600000E100E004E100E008E100E02DE9F04105460C4617461E46904201DD1546074610
:20248000B44202DD234634461E46C5EB0708284621464246FFF7CEFC284631464246FFF7E1
:2024A000C9FC361B284621463246FFF765FD384621463246FFF760FDBDE8F0812DE9F04154
:2024C000904202DD044610462246994202DD0C4619462346B0F5A07F80F29180EF2900F31D
:2024E0008E80541EB4F5A07FB4BFC0EB0207C0F5A0775A1EEF2AD4BFC1EB0306C1F1F00620
:20250000404B1B78002B28D072B63E4B1B7813F0010F07D03C4B1C683C4A126822403C4C57
:2025200022601A60374B1B7813F0020F07D0394B1C68364A52682240354C62601A60314BC2
:202540001B7813F0040F07D0334B1C682F4A926822402F4CA2601A6062B6304BDB68B3F1B3
:20256000384F0AD02D4B2E4A1A604FF03842DA604FF078421A612B4A1A6080B289B2421E6D
:202580003A444B1E334492B29BB2FFF765F82C20FEF7FCFF244B1D78244B1B7843EA052560
:2025A000002E10DDB8460AE02846FFF70FF8013C012CF9D12846FFF73DF8013E03D0012F9E
:2025C000F8DD4446F0E70F4B1B78C3B113F0010F03D00F4B1A68164B1A600A4B1B7813F0DC
:2025E000020F03D00A4B5A68124B1A60054B1B7813F0040F03D0064B9A680F4B1A60BDE871
:20260000F08100BF10A5FF1F80E100E0F8A4FF1F04A5FF1F84E100E088E100E000C0024065
:2026200001401F0000001F808CA2FF1F95A2FF1F00E100E004E100E008E100E02DE9F04F56
:2026400083B004460E4615461F46904201DD14460546BE4202DD33463E461F46C4EB050897
:20266000B8F1040F37DDC6EB0709B9F1040F32DD04F1010B06F1010A58465146FFF74CFB88
:202680006B1E019318465146FFF746FB07F1FF3A58465146FFF740FB01985146FFF73CFBFD
:2026A00004F1020AA8F10408504631464246FFF7C1FB504639464246FFF7BCFB0236A9F111
:2026C0000409204631464A46FFF756FC284631464A46FFF751FC03B0BDE8F08F2DE9F04F54
:2026E00083B007460D461E46904201DD17460246B54202DD2B4635461E46C7EB0208B8F1C3
:20270000040F3EDDC5EB0609B9F1040F39DD09EBD9794FEA690909F10103002B31DD9946F2
:20272000002407F1020BA8F1040300937B1C019314B1012C0BD017E058462946009AFFF7B1
:2027400079FB58463146009AFFF774FB16E0A8F1020A0198691C5246FFF76CFB0198711E1B
:202760005246FFF767FB09E0384661194246FFF761FB3846311B4246FFF75CFB01344C4549
:20278000D6D103B0BDE8F08F2DE9F04F87B0019002911646624B1B786BB1624B1B7853B907
:2027A00000EBD0735B10019301EBD1735B10029302EBD2767610C6F1010A73005B42039399
:2027C00001990491029B3344084619460246FFF7F5F9554D554C28782178FFF713FD029ABF
:2027E000931B019819460246FFF7E8F928782178FFF708FD019A3244029B059310461946E5
:20280000FFF7DCF928782178FFF7FCFC01998A1B104602990B46FFF7D1F928782178FFF756
:20282000F1FC002E76DD4FF00109BAF1000F04DB013E039A0232039292444FEA49030093B5
:2028400001339A44DDF81080C844029F37444046394642463B46FFF7B1F928782178FFF7FC
:20286000D1FC0099C1EB080B584639465A463B46FFF7A4F928782178FFF7C4FC029A971B25
:202880004046394642463B46FFF798F928782178FFF7B8FC584639465A463B46FFF78EF905
:2028A00028782178FFF7AEFCDDF804B0B344059F4F44584639465A463B46FFF77FF928783C
:2028C0002178FFF79FFC019BC6EB03084046394642463B46FFF772F928782178FFF792FC4A
:2028E00000997F1A584639465A463B46FFF766F928782178FFF786FC4046394642463B4654
:20290000FFF75CF928782178FFF77CFC4E4509F101098ADCFFF7EAF907B0BDE8F08F00BF55
:202920009DA2FF1F1099FF1F8CA2FF1F95A2FF1F020A024B1A70024B187070478CA2FF1F17
:2029400095A2FF1F034B1878034B1B7843EA0020704700BF8CA2FF1F95A2FF1FB0F1FF3F20
:2029600003D10122054B1A707047020A044B1A70044B18700022014B1A707047AA97FF1F05
:20298000599FFF1F00A0FF1F034B1878034B1B7843EA0020704700BF599FFF1F00A0FF1F0D
:2029A0002DE9F04F85B0054601910292874B1B7853B1874B1B783BB901EBD1735B1001932B
:2029C00002EBD2735B100293824B1B78002B40F0A580814B1B78002B4AD1804C2279019840
:2029E0000244637902990B44013A013BFFF7E6F82379DB08627902FB03F3A279AD1A03FB53
:202A000005FB0BF1040B002B00F0DB804FF0000AA146DFF8D881724F724ED9F8003013F848
:202A20000B50072445FA04F313F0010F07D030786D4B1B7843EA0020FFF73EFB06E098F80B
:202A400000003B7843EA0020FFF736FB013CB4F1FF3FE7D10BF1010B0AF1010A99F80430A4
:202A6000DB0899F8052002FB03F35345D5D8A8E05A490A79D308487900FB03F089796D1AC4
:202A800000FB05FA0AF1040A002800F09A8000200090DFF85891DFF848810099B1FBF3F3C6
:202AA0000298034401990A4408461946013AFFF785F84A4B1F79FF08012F22D49B46494E20
:202AC000DBF8003053443B4413F8015C002445FA04F313F0010F07D03078434B1B7843EA3B
:202AE0000020FFF7E9FA07E099F8000098F8003043EA0020FFF7E0FA0134082CE7D1013F27
:202B0000DED136490A79D3089A44009818440090497901FB03F18142BFD852E02F4B5A793C
:202B200099796D1A1B79DB0802FB03F303FB05F304330093002A44D00299039101F1010B67
:202B400035E04646DAF800304B44009A9F5C072406F10805A846F01D001B0BF1FF312A1BF8
:202B60005B46FFF72BF847FA04F313F0010F07D01C4B18781C490B7843EA0020FFF79CFAC1
:202B8000013CB4F1FF3FE5D109F101099AF80430DB084B45D5DC009A1A4400920398C0EBA1
:202BA0000B030E4A52799A420BF1010B09D90B4B1B79DB08EFD0019E4FF00009DFF81CA018
:202BC000C0E7FFF793F805B0BDE8F08F9DA2FF1F1099FF1FAA97FF1FFC98FF1FF498FF1F15
:202BE00000A0FF1F8CA2FF1F95A2FF1F599FFF1FF0B4164B1B6804331A780A705C784C6015
:202C00009D788D60DE78CE601C797F2CC8BFC4F580740C619F1D5C794C6182420BD0FF2A47
:202C200009D075B106FB05F5013D48BF073507EBE5056B1CE0E78F61B2F1FF0018BF012065
:202C400001E03B46D8E7F0BC704700BFF498FF1F2DE9F04F8DB00091029205A9FFF7C8FF65
:202C6000002859D0FFF76EFE01902D4B1B7893B92C4B5C79FFF788FEFFF75AFE0A9B009A64
:202C80001A440098029901320B462344FFF716FC0198FFF74DFE0B9E079B002B3AD0089BB3
:202CA000002B37DD4FF00008C24680254746CDF80C80A94625E003FB082313F0070F02D1FA
:202CC000377801364D463D420CD0099B00990B441A44069B5B4410461946FEF76FFF019845
:202CE000FFF7EAF96D080134E4B22246079B9C42E1DB0AF1010A5FFA8AFAD046089B9A459C
:202D000008DA079B002BF4DD0022039CDDF808B0C344D0E70A9800E000200DB0BDE8F08FA4
:202D2000AA97FF1FF498FF1F2DE9F04F91B004910592069309A9FFF75BFF002800F09A80FB
:202D40000F990291FFF7FEFD07900B9B002B00F08D801A981AF09EFA48491AF0EFFA19F001
:202D600079FE04460D4618F049FA1AF089F983462046294618F0A4FA1AF082F901900C9B67
:202D8000002B73DD4FF000088025CDF80C8068E003FB084313F0070F06D1029A127803923F
:202DA000029B013302938025069820441AF072FA06460A9840441AF06DFA074604981AF0BA
:202DC00069FA8146304659461AF0B8FA8246384601991AF0B3FA014650461AF0A5F9014695
:202DE00048461AF0A3F91AF085FC824605981AF051FA8146584639461AF0A0FA07460198EC
:202E000031461AF09BFA014638461AF08FF9014648461AF08BF91AF06DFC034603990D423B
:202E200008D0504619465246FEF7C8FE0798FFF743F90BE012490A7842B950461946524651
:202E4000FEF7BCFEFFF7A0FDFFF736F9C5F3470501340B9BA3429BDC08F101080C9B43459F
:202E600004DD0B9B002BF7DD002491E7FEF73EFF0E9800E0002011B0BDE8F08F295C8F3C23
:202E8000AA97FF1F2DE9F04F93B004460A910B920C931C981AF0FEF966491AF04FFA19F05A
:202EA000D9FDCDE91001644B5A799979641A1B79DB0802FB03F303FB04F304330E93002A02
:202EC00000F0B28000220F92DFF86C9184E0D9F800300E9A13440D9A9B5C01934FEAC20A9E
:202EE0004FF007080AF10703C8EB030399F804000C9A02FB003019F09BFD04460D460A987E
:202F000019F096FD06460F4620462946DDE9022319F0F4FDDDE9062319F03CFC02460B46F1
:202F20003046394619F038FC1AF082F883460B9819F07EFD06460F4620462946DDE9042388
:202F400019F0DCFD02460B46DDE9080119F024FC02460B463046394619F01EFC1AF068F8E3
:202F60000346584619460BF101020133FEF726FE019A42FA08F313F0010F08D02F4B1878F8
:202F80002F4B1B7843EA0020FFF796F80AE02D4A13783BB92C4B18782C4A137843EA00201E
:202FA000FFF78AF808F1FF38B8F1FF3F9AD10D9B01330D9399F80430DB080D9A934286DC15
:202FC0000E9A1A440E920F9A531CDBB20F9399F805300F9A934227D999F80430DB08EFD059
:202FE000DDE9100118F00AF9CDE902010F9819F01FFD04460D46DDE9100118F061F9CDE9DE
:20300000040120462946DDE9042319F077FDCDE90601DDE9020122462B4619F06FFDCDE9E2
:20302000080100230D9352E7FEF760FE13B0BDE8F08F00BF295C8F3CF498FF1F8CA2FF1F4C
:2030400095A2FF1FAA97FF1F599FFF1F00A0FF1F2DE9F04F83B005460E4691461F461BF07A
:20306000FBFB82463D4B1B784BB13D4B1B7833B906EBD676761009EBD9794FEA6909394B3C
:203080001B78CBB942F20F739E4205D1364B1E7900FB06F6C6F5A07642F20E739E4208D15F
:2030A000314B1E7900FB06F6C6F5A07606EBD6767610002818DC4DE042F20F739E4205D1BD
:2030C000294B1E7900FB06F6C6F1F00642F20E739E42EED1244B1E7900FB06F6C6F1F00643
:2030E00006EBD6767610E4E701354FF0000B5C46DFF87480AFB998F8043043B915F8010C13
:2031000031464A46FFF7A4FD013006441EE015F8010C31464A46FFF743FC98F804301E441C
:2031200014E098F804304BB915F8010C009731464A465B46FFF7F8FD834407E015F8010CC7
:20314000009731464A462346FFF79CFE01340135A245CFD103B0BDE8F08F00BF9DA2FF1FF3
:203160001099FF1FFC98FF1FF498FF1F2DE9E84100AF884616461D46826802F1080323F0B6
:203180000703ADEB030D69460132002316F0FCFF6846414632462B46FFF75AFFBD46BDE862
:2031A000E88100BFF8B500AF04460E4615468068083020F00700ADEB000D1846FFF7B8FBAF
:2031C000A268204669460132002316F0DDFF684631462A460023FFF73BFFBD46F8BD00BF39
:2031E0002DE9F0418EB09DF850E00446F8B9BBB1581E00280ADD0DF11B000DF11A041C4404
:2032000000F801EFA042FBD1013B00E000230EA80344302003F81C0C002003F81B0C62E0E5
:2032200030238DF81C3000238DF81D305BE00028BABF44424FF0010C4FF0000C002C18DD5B
:2032400000252C4E86FB0407E017C0EBA70000EB8000A4EB400000F130070DF805700135E8
:20326000201A86FB0074C017C0EBA404002CE9DC00E0002500240EA8284400F8384CBCF190
:20328000000F02D02D208DF81C00E0460CEB0507BB4210DD5B1BCCEB0306002E0DDD0EA848
:2032A00060441D380DF11B039C44B44400F801EF6045FBD102E0002600E00026002D0CDDA4
:2032C0006C466D4406EB08030EA803441D3B15F8010D03F8010FA542F9D10EAB1E443744CD
:2032E000002307F81C3C07A80023FFF7B1FE0EB0BDE8F081676666662DE9F04389B00446A4
:203300000D461F469DF844809DF84C6091462AB1B9F1050F28BF4FF0050901E04FF001098D
:203320002046294619F0ACFE12994A4601AB14F0FBFEB8F12E0F0AD001AA0DF11F0312F88C
:20334000010B2E2808BF02F8018C9A42F7D1202E23D0204629460022002319F041FE88B13D
:203360002D238DF804300DF105020DF11F0112F8013B202B01D02D2B01D102F8016C8A4262
:20338000F5D10AE001AA0DF11F0112F8013B202B08BF02F8016C8A42F7D101A83946109A8F
:2033A0000023FFF755FE09B0BDE8F083054B186002781A7142785A7182789A71C278DA71F4
:2033C000704700BFF498FF1F2DE9F04F8BB0064601920593149C159D9E4B1B78002B28D0C5
:2033E00072B69C4B1B7813F0010F07D09A4B18689A4A126802409A4802601A60954B1B780B
:2034000013F0020F07D0974B1868944A52680240934842601A608F4B1B7813F0040F07D034
:20342000914B18688D4A926802408D4882601A6062B68E4BDB68B3F1384F0AD08B4B8C4A07
:203440001A604FF03842DA604FF078421A61894A1A60012D5AD1884B1B781BB105980028EE
:2034600023DC48E0019A3244059B0B443046013A013BFEF7A3FB0599019A01FB02F3002B50
:2034800008DD254604EB430435F8020BFEF7D2F8A542F9D10020014640F23F12EF23FEF70B
:2034A000DBF82C20FEF7A2F8F2E00F46019B4FEA430A04EB0A08DDF814B08B443344013BF9
:2034C0000293019800F1FF3930463946029A3B46FEF774FB4C46B9F1000F08DB454635F839
:2034E000020DFEF7A7F8013CB4F1FF3FF7D10137D0445F45E8D100200146EF2240F23F139C
:20350000FEF7AAF82C20FEF771F8C1E05A4B1B78C3B1059A002A40F3B180ABB20793B6B291
:203520000396731E0798019A02FB00339BB2049389B20291530008939B46A34400200690D9
:20354000814681E0059A002A46DDABB20793B6B20896731E0798019A02FB00339BB2099376
:2035600089B2530006930294002003908346079B0B449BB204930898099AFEF76DF82C2054
:20358000FEF734F8002D1BDDDDF81880029988444FF000098A460EE037F8026B5C46304657
:2035A000FEF748F80134AC42F9D14745F4D109F10109A94504D0019A002AF8DD5746EBE7C9
:2035C000039B013303930298069908440290059A934201D00499CAE70020014640F23F12EF
:2035E000EF23FEF739F82C20FEF700F850E0029B53449BB203981946049AFEF72DF82C20AB
:20360000FDF7F4FF019B5F1E0DD4D84638F8026D4C463046FEF70EF80134AC42F9D1013FDC
:20362000B7F1FF3FF2D10AF1010AAA45DFD1069801300690029B07990B449BB20293089AC7
:203640009344059B984219D0002DF0DD4FF0000ACDE700BF10A5FF1F80E100E0F8A4FF1FAC
:2036600004A5FF1F84E100E088E100E000C0024001401F0000001F80FC98FF1F00200146DB
:20368000EF2240F23F13FDF7E7FF2C20FDF7AEFF0F4B1B78C3B113F0010F03D00D4B1A68AD
:2036A0000D4B1A600A4B1B7813F0020F03D0094B5A680A4B1A60064B1B7813F0040F03D0B7
:2036C000044B9A68064B1A600BB0BDE8F08F00BF10A5FF1F04A5FF1F00E100E004E100E010
:2036E00008E100E02DE9F04791469846089C099D5E4B1B78002B28D072B65C4B1B7813F0F1
:20370000010F07D05A4B1E685A4A126832405A4E32601A60554B1B7813F0020F07D0574B93
:203720001E68544A52683240534E72601A604F4B1B7813F0040F07D0514B1E684D4A92687F
:2037400032404D4EB2601A6062B64E4BDB68B3F1384F0AD04B4A4C4B13604FF03843D3604B
:203760004FF078431361494B136080B289B209F1FF32024408F1FF330B4492B29BB2FDF7F7
:203780006BFF2C20FDF702FFB8F1000F50DDCA4649E014F8013B9B0935F81300FDF716FF2B
:2037A000274614F8013CC3F3011335F81300FDF70DFF14F8013CC3F3810335F81300FDF792
:2037C00005FF14F8013C03F0030335F81300FDF7FDFE043E36B2042EDBDC00E027463B7861
:2037E0009B0935F81300FDF7F1FE3B78C3F3011335F81300FDF7EAFE3C4614F8013BC3F3E9
:20380000810335F81300FDF7E1FE3B7803F0030335F81300FDF70EFF08F1FF380FFA88F86B
:20382000B8F1000F04D0B9F1040FD7DD5646B0E70E4B1B78C3B113F0010F03D00E4B1A6837
:20384000134B1A60094B1B7813F0020F03D00A4B5A68104B1A60054B1B7813F0040F03D00A
:20386000054B9A680C4B1A60BDE8F08710A5FF1F80E100E0F8A4FF1F04A5FF1F84E100E02F
:2038800088E100E000C0024001401F0000001F8000E100E004E100E008E100E02DE9F04742
:2038A00091469846089C099E4F4B1B78002B28D072B64D4B1B7813F0010F07D04B4B1D6860
:2038C0004B4A12682A404B4D2A601A60464B1B7813F0020F07D0484B1D68454A52682A40F9
:2038E000444D6A601A60404B1B7813F0040F07D0424B1D683E4A92682A403E4DAA601A60DB
:2039000062B63F4BDB68B3F1384F0AD03C4A3D4B13604FF03843D3604FF0784313613A4B5C
:20392000136080B289B209F1FF32024408F1FF330B4492B29BB2FDF78FFE2C20FDF726FE46
:20394000B8F1000F32DDCA462BE014F8013B1B0936F81300FDF73AFE274614F8013C03F003
:203960000F0336F81300FDF731FE023D2DB2022DEBDC00E027463C4614F8013B1B0936F854
:203980001300FDF723FE3B7803F00F0336F81300FDF750FE08F1FF380FFA88F8B8F1000F53
:2039A00004D0B9F1020FE5DD5546CEE70E4B1B78C3B113F0010F03D00E4B1A68134B1A606D
:2039C000094B1B7813F0020F03D00A4B5A68104B1A60054B1B7813F0040F03D0054B9A680F
:2039E0000C4B1A60BDE8F08710A5FF1F80E100E0F8A4FF1F04A5FF1F84E100E088E100E0B7
:203A000000C0024001401F0000001F8000E100E004E100E008E100E02DE9F04105460C4672
:203A2000644B1B78002B28D072B6624B1B7813F0010F07D0604B1968604A12680A4060498C
:203A40000A601A605B4B1B7813F0020F07D05D4B19685A4A52680A4059494A601A60554B27
:203A60001B7813F0040F07D0574B1968534A92680A4053498A601A6062B6544BDB68B3F124
:203A8000384F0AD0514B524A1A604FF03842DA604FF078421A614F4A1A600020014640F200
:203AA0003F12EF23FDF7D8FD2C20FDF76FFD14B905F516373EE005F59F7705F5164828E08C
:203AC0002088FDF783FD34F8020BFDF77FFDB442F6D1B5F83E01FDF779FDB5F83E01FDF72E
:203AE000A9FD2C462088FDF771FD34F8020BFDF76DFDB442F6D1B5F83E01FDF767FD05F512
:203B0000A07535F8020CFDF795FD07F5A077454531D03E462C46D3E735F8020BFDF756FD00
:203B2000A542F9D106F5207535F8020CFDF782FDBD4203D02E4605F27E24EDE71D4B1B78E8
:203B4000002B34D013F0010F03D01D4B1A68224B1A60184B1B7813F0020F03D0184B5A687D
:203B60001E4B1A60134B1B7813F0040F03D0144B9A681B4B1A600F4B1B78C3B113F0010FD3
:203B800003D00F4B1A68144B1A600A4B1B7813F0020F03D00A4B5A68104B1A60054B1B78FF
:203BA00013F0040F03D0064B9A680D4B1A60BDE8F08100BF10A5FF1F80E100E0F8A4FF1F54
:203BC00004A5FF1F84E100E088E100E000C0024001401F0000001F8000E100E004E100E009
:203BE00008E100E038B504462B4919F059FD00283ED120464FF0814119F052FD002839D1CA
:203C00002046264919F04CFD002835D12046244919F046FD002831D12046224919F040FDEF
:203C200070BB2046204919F03BFD58BB20461F4919F036FD40BB20461D4919F031FD28BB4B
:203C400020461C4919F02CFD10BB20461A4919F027FDF8B94FF001052046184919F020FDC3
:203C600008B94FF0000585F0010040F3000038BD642038BD5A2038BD502038BD462038BDF9
:203C80003C2038BD322038BD282038BD1E2038BD142038BD0A2038BD333383401F857B404C
:203CA000EC5178408FC2754033337340D7A3704052B86E40CDCC6C40713D6A4000004040F1
:203CC00010B400290ADD034644180020054913F8012B5040085CA342F9D100E000205DF8CE
:203CE000044B70473C87020070B582B004460E4623485A2110F07EFC2CB1214803681B6870
:203D00000621984704E01E4803681B68072198471B4C2169627B0025009520462B4610F0FF
:203D200041FF2069617B0123009301955A22032310F04CFF2369D3F83821D3F83431D31AD7
:203D4000032B1CBF2B4633700D4C206910F05CFF0546206910F058FF0646206910F054FFB6
:203D60002169627B002300932046012310F01AFF06F07F00EDB205EB002002B070BD00BFC1
:203D8000DCA4FF1F70B505460E46FFF7ADFF19F081FA144919F0D2FA134919F0C5F91349EA
:203DA00019F0C2F9044675B1114919F065FC20B92046104919F07EFC10B10023337070BD3C
:203DC0000D4B1C6070BD0D4919F056FC20B920460B4919F06FFC10B10023337070BD094B22
:203DE0001C6070BD0AD7A33C0AD7233C33938843000020C20000FA422C99FF1F00008CC23A
:203E00000000BE431499FF1F70B582B0012002A901F8010DFFF7B6FF64240A25012608E03B
:203E200030460DF10701FFF7ADFF631E13F0FF0409D0284614F020FC9DF80720002AEFD0D1
:203E4000024B186800E0002002B070BD2C99FF1F70B582B002A9012301F8013D0020FFF760
:203E600091FF64240A25002608E030460DF10701FFF788FF631E13F0FF0409D0284614F022
:203E8000FBFB9DF80720002AEFD0034B186800E0002002B070BD00BF1499FF1FF0B48C46DA
:203EA000254C2278254B196841F4806119604FF00041D9625A6304F1A3076678DA6A002A14
:203EC0001FDBFBE7D36A002B28DBFBE71A4A527882420CD1142A0CD1194A1278012A0AD1DC
:203EE0001B090AD0634514BF0220002021E003201FE000201DE000201BE0042019E001206E
:203F000017E09A6B1D6845F480651D60D9625E6304F8012BBC42D0D1084AD3E7074B9A6B5F
:203F2000054B83F8A3201B7803F00F020F2ACDD1E5E7F0BC704700BF5C9FFF1F00C002407C
:203F400024A2FF1F10B582B0124C20462A2110F051FB23681B6820460021984723681B68A9
:203F600020460421984723681B6820460221984723681B682046422198472169627B002321
:203F800000932046012310F00DFE003018BF012002B010BDDCA4FF1F30B583B005460C4CF9
:203FA00020462A2110F026FB23681B6820460021984723681B682046294698472169627B92
:203FC000002300932046012310F0ECFD03B030BDDCA4FF1F30B583B0FFF7DEFF0B4C2069AF
:203FE000617B01230093002301932A22022310F0EDFD206910F008FE85B2206910F004FECB
:204000002D02ADB2284380B203B030BDDCA4FF1F10B51B4901F58C6001F26C4114224FF017
:20402000384312F081FF40B3154C04F58C63236004F23C4011F0A8FC2046012112F054FDD2
:2040400020B92046002112F04FFD90B10C4901F23C4011F03BFA034668B1094A92F83C24D8
:2040600012F0700F1DBF0749074A11600023184610BD002010BD002010BD002010BD00BFFD
:20408000E49AFF1F209FFF1FF0A4FF1F10B50446074800214FF4007219F084FF34B1044B01
:2040A000552283F8FE21AA2283F8FF2110BD00BF14A0FF1F08B501460248034A13F03AF959
:2040C00008BD00BF449FFF1F14A0FF1F044B1B78044A127802FB03F3B0FBF3F080B2704765
:2040E000AC97FF1FB7A2FF1F064B1B78064A127803FB02F2B0FBF2F101FB1200B0FBF3F00E
:20410000C0B27047B7A2FF1FAC97FF1F70B50120FFF7BCFF314C002384F8BE31304B1D689C
:204120002846FFF7D3FF021294F8C03162F3871384F8C03184F8C1012846FFF7D5FF84F86A
:20414000BF01284B1E78B5FBF6F206FB1252013294F8C03162F3050384F8C031224B1B781F
:2041600084F8C231214B1B681D44013D2846FFF7ADFFB0F5806F19D2021294F8C43162F3C9
:20418000871384F8C43184F8C5012846FFF7ACFF84F8C301B5FBF6F306FB1355013594F8BF
:2041A000C43165F3050384F8C43109E00B4BFF2283F8C521FE2283F8C321FF2283F8C42178
:2041C000064B074A1268C3F8C621084A1268C3F8CA210020FFF76EFF70BD00BF14A0FF1F6E
:2041E0006498FF1FB7A2FF1F1898FF1FBC9AFF1FF8B504460D460020FFF748FF094821468D
:204200002A4613F0E5F84DB10024064F064E3846314613F0B1F80134AC42F8D1014813F0AA
:20422000FBF8F8BD449FFF1F14A0FF1F10B5034B1C68240214F0FCF9204410BD90A2FF1FCC
:20424000F8B54FF48072604B1A60604B1E78604B1A68A2F58072B2FBF6F202F20111090AB2
:204260005C4B1960490001F1A100B0F5807F16D84FF48073181A00F18004574B1C60012490
:20428000564B1C808130564C2060213106FB0212544B1A6047F6A7739A421AD91DE04C4BD4
:2042A0001F684A4B1E784FF4C073FA1AB2FBF6F202F20114240A610001F1A10003F1800589
:2042C000834204D3404D2B60424D2C60D2E72B46EBE70122444B1A7006E0B2F5803F34BF98
:2042E00004220622404B1A70FFF710FF0120FFF7CDFE3E49EB230B7000234B7090238B70D8
:204300004B1E073120220133DA708B42FBD1374C0027E772022323732C4B1B7863732F4B8B
:204320001B88E3810223237423694FF4007262F317232361F8236375264E3368E3822C4B88
:204340001B7823832B4B1B786383234D2B68E361244B1B682362802384F82430292384F83C
:204360002630FFF763FFC4F82700234B03CBC4F82B00C4F82F1019889B78A4F8331084F87F
:2043800035301E4B03CBC4F83600C4F83A102868FFF790FE124D2B680B4A11681846C91A74
:2043A000FFF726FF3846FFF771FE4FF6F87323804FF6FF7363802868FFF77CFE30682B68E7
:2043C0001844FFF777FEF8BD1C99FF1F8BA2FF1F90A2FF1F9C97FF1F6498FF1F0EA0FF1FBC
:2043E000C49AFF1FBC9AFF1F1898FF1F14A0FF1FB7A2FF1FAC97FF1F5488FF1F7088FF1F45
:204400002DE9F8434FF40052734B1A604FF48042724B1A60724B1D78724B1968A1F580415B
:20442000B1FBF5F101F18102D2096F4B1A6042F2090303EB4203B3F5804F18D9694B1F6850
:204440004FF4C04342F20906F91AB1FBF5F101F18102D20903F5005406EB4200834201D2C7
:204460002346F1E75D4803605F48026001E04FF48043A3F50050A0EB420292B25B480280E3
:2044800002F500525A48026005FB0131A1F50052584B1A60584B994294BF0B220C22574BCA
:2044A0001A70FFF733FE0120FFF7F0FD5449EB230B7000234B7090238B704B1E07312022B2
:2044C0000133DA708B42FBD14D4C0027E77202232373DFF80C8198F800306373434B1B88C6
:2044E000E38102232374F8226275464A12782283454A12786283384D2A68E2613D4A126893
:204500002262394E32686262E3624FF00109A4F8309006236386802384F84030292384F8DF
:204520004230FFF783FEC4F84300384B03CBC4F84700C4F84B1019889B78A4F84F1084F8FD
:204540005130334B03CBC4F85200C4F856102868FFF7B0FD28680630FFF7ACFD4846FFF742
:2045600095FD28680230FFF7A5FD28680830FFF7A1FD284B236003F1FF5303F50053203319
:20458000C4F8E4314FF0FF33C4F8E831C4F8EC3128684844FFF78EFD28680730FFF78AFD4A
:2045A000134D98F800103368286801EB4301FFF71FFE3846FFF76AFD174B23606FF07043BB
:2045C0006360A3602868FFF775FD30682B681844FFF770FDBDE8F8836498FF1F1C99FF1F26
:2045E0008BA2FF1F90A2FF1F9C97FF1F0EA0FF1FC49AFF1FBC9AFF1F0004FB001898FF1F46
:2046000014A0FF1FB7A2FF1FAC97FF1F5488FF1F6488FF1F52526141F8FFFF0F48F68000E3
:20462000C0F20300D0F800D0D0F804F0704700BF1D4B4FF400721A601C490A601C4A1168B6
:2046400021F4802111604FF400021A604FF080721A604FF000721A604FF080621A604FF0C4
:2046600000621A60134A136813F0800FFBD1114B1B6813F0400F04D00E4B1A6842F04002D4
:204680001A600D4B1B6813F0800F04D00A4B1A6842F080021A60A022084B1A700023084A46
:2046A000136004321360704788E100E088E200E03480044024B00B4000B00B4000400640FC
:2046C0004480044008B5002013F06CFCAE2808D10020014613F07CFC72B6FFF7A9FFFFF73D
:2046E0009DFF08BD08B50020AE2113F071FC024A024B1A6008BD00BF0400FA050CED00E0CA
:2047000000B583B069460522002315F03DFD684619F03CF803B05DF804FB00BF38B50D4C82
:2047200023680D4D29881B682046090A984723681B682046297898472368084D29881B6800
:204740002046090A984723681B6820462978984738BD00BFDCA6FF1F82A2FF1F88A2FF1F2F
:204760002DE9F0411C4B1B78012B00D018B100241A4D1B4E1DE00027DFF86480174D16E006
:20478000D8F800302344DE5B2B681B682846310A98472B681B682846F1B298470434B4F5F4
:2047A000A07FEDD107F52077B7F5164F12D00024E6E72B683268115B1B682846090A984729
:2047C0002A68336812682846195D90470234B4F5164FEED1BDE8F08124A2FF1FDCA6FF1FDA
:2047E0009497FF1F70B5164B1B78A3B90024154D154E2B683268115B1B682846090A984796
:204800002A68336812682846195D90470234B4F5164FEED170BD00240A4D0C4E2B68326804
:20482000115B1B682846090A98472A68336812682846195D90470234B4F5163FEED170BDA7
:204840001099FF1FDCA6FF1F9497FF1FA097FF1F10B51D4B187815F0FBF81C4C23681B6828
:2048600020461B4A117898471A4B187815F0F0F823681B682046184A1178984723681B68D7
:204880002046164A1178984723681B682046144A11789847134B187815F0DAF8124B1878FE
:2048A00015F0D6F8114B187815F0D2F8104B1B7823B1104B197881F0010100E000210348FD
:2048C00003681B68984710BD24A2FF1FDCA6FF1F69A2FF1F25A2FF1FBDA4FF1F1899FF1F5E
:2048E000D0A2FF1F589FFF1F10A0FF1FD4A2FF1FA997FF1FFE98FF1F2DE9F041ACB0524B5F
:204900001B680293029D504C14F0FAFF30B923680393039B5B1BB3F57A7FF5D314F0F0FFCD
:2049200028B94A4803681B687421984789E004A84649782215F088FA0CA804A90022042333
:2049400015F03AFC10A84FF4FC610A2215F070FB0CA810A915F012FC014608A815F054FB5D
:2049600008A8FFF7CDFE044608A815F0C5FA10A815F0C2FA0CA815F0BFFA002C59D014A80C
:2049800004A90B220D2315F017FC14A8FFF7B8FE074618A804A90E22102315F00DFC18A8A2
:2049A000FFF7AEFE06461CA804A91122132315F003FC1CA8FFF7A4FE054620A804A90822E5
:2049C0000A2315F0F9FB20A8FFF79AFE044624A804A90522072315F0EFFB24A8FFF790FE08
:2049E000804628A804A90022042315F0E5FB28A8FFF786FECDF800800190384631462A46C1
:204A0000234613F021F828A815F076FA24A815F073FA20A815F070FA1CA815F06DFA18A867
:204A200015F06AFA14A815F067FA12F087FF13F0FDFC064803681B687421984704A815F006
:204A40005BFA2CB0BDE8F0813CA5FF1FDCA6FF1FF8B5114DAE1C05F5C077104C236836F855
:204A6000021C1B682046090A984723681B68204616F8021C9847236869881B682046090A46
:204A8000984723681B682046A978984704350436BD42E3D1F8BD00BF3499FF1FDCA6FF1F9E
:204AA00008B5034803681B68024A1178984708BDDCA6FF1FB5A2FF1F08B5024B187814F0D4
:204AC000C7FF08BDFD98FF1F08B5034803681B68024A1178984708BDDCA6FF1F2898FF1FAB
:204AE00008B5034803681B68E721984708BD00BFDCA6FF1F08B514F0B7FEC0B218B90122D9
:204B0000084B1A7007E0012805D10122064B1A700022044B1A70054803681B68822198471C
:204B200008BD00BFFE98FF1FA997FF1FDCA6FF1F08B514F099FEC0B2012807D8011C18BF79
:204B40000121054B1970652013F042FA034803681B688521984708BDBDA4FF1FDCA6FF1FF4
:204B600008B514F081FEC0B2012807D8011C18BF0121054B1970692013F02AFA0348036826
:204B80001B688621984708BD1899FF1FDCA6FF1F08B514F069FEC0B2012807D8011C18BF42
:204BA0000121054B19706A2013F012FA034803681B688721984708BDD0A2FF1FDCA6FF1FAC
:204BC00008B514F051FEC1B2032904D8054B19707F2013F0FDF9044803681B688821984717
:204BE00008BD00BF589FFF1FDCA6FF1F08B514F03BFEC1B2022904D8054B1970732013F099
:204C0000E7F9044803681B687A21984708BD00BFD4A2FF1FDCA6FF1F08B5024B187814F0AA
:204C200017FF08BD1099FF1F08B5024B187814F00FFF08BD6188FF1F70B50E4C04F5C076AC
:204C400014F012FE054614F00FFE00EB0520208014F00AFE054614F007FE00EB05206080E4
:204C60000434B442ECD1044803681B688921984770BD00BF3499FF1FDCA6FF1F08B514F04E
:204C80003FFE00282BDD14F0EFFDC0B26438262823D8DFE800F01D2222222222222222225A
:204CA00022222222222222222222222222222222221A221422222222222222221700FFF745
:204CC0000FFF0AE0FFF7A8FF07E0FFF7ADFF04E0034803681B686421984714F0C5FE08BDA9
:204CE000DCA6FF1F0170C1F307234370C1F307438370090EC170704730B583B001A80E4B08
:204D00001968FFF7EFFF0DF107050DF1030414F8010F14F09DFEAC42F9D101A8074B196830
:204D2000FFF7E0FF0DF1030414F8010F14F090FEAC42F9D103B030BD2C98FF1F0499FF1FF6
:204D400030B583B001A8084B1968FFF7CBFF0DF103040DF1070514F8010F14F079FEAC426A
:204D6000F9D103B030BD00BF1499FF1FC27883781B0443EA026302781343407843EA002084
:204D8000704700BF08B54FF48072054B1A604FF4107203F57F631A6008B1FFF739F908BD22
:204DA00014B0044008B5464B1B7813B10020FFF7E9FF444B1B78002B41D1434B1B78012B9C
:204DC0003DD1424B1B78002B28D072B63F4B1B7813F0010F07D03E4B19683E4A12680A40FD
:204DE0003D490A601A60394B1B7813F0020F07D03A4B1968374A52680A4037494A601A6018
:204E0000324B1B7813F0040F07D0354B1968314A92680A4030498A601A6062B6314BDB6821
:204E2000B3F1384F47D02F4B2F4A1A604FF03842DA604FF078421A612C4A1A603BE0234BE3
:204E40001B78002B28D072B6204B1B7813F0010F07D01F4B19681F4A12680A401E490A60A3
:204E60001A601A4B1B7813F0020F07D01B4B1968184A52680A4018494A601A60134B1B7812
:204E800013F0040F07D0164B1968124A92680A4011498A601A6062B6124BDA68144B9A42F3
:204EA00009D0104B104A1A60114ADA6002F180421A610E4A1A600F20002113F0C7FA08BD7A
:204EC000BEA4FF1F1099FF1F24A2FF1F10A5FF1F80E100E0F8A4FF1F04A5FF1F84E100E0CD
:204EE00088E100E000C0024001401F0000001F80000001BA4FF41072034B1A604FF48072EB
:204F000003F57F631A60704714B0044008B50122114B1A60114B1B78C3B113F0010F03D07F
:204F20000F4B1A680F4B1A600C4B1B7813F0020F03D00B4B5A680C4B1A60084B1B7813F01E
:204F4000040F03D0064B9A68084B1A60084B1B780BB1FFF7CFFF08BD84F00F4010A5FF1F8A
:204F600004A5FF1F00E100E004E100E008E100E0BEA4FF1F08B5FFF7C9FFBA2013F07CFBCC
:204F8000FFF710FF08BD00BF2DE9F04F83B083468A460192852018F07DFC8046019A012A22
:204FA00002D10020FFF7EEFE4FF000096CE0BAF1800FB4BF55468025ECB22F4626462046B6
:204FC000FCF7FEF80028F8D020464146FCF798F8019BA3B915F0FF0752D018F8031009EB4C
:204FE000030292B20BF802100133BB42F5D109F10109013F17FA89F91FFA89F940E0019A2F
:20500000022A1BD1B9F1000F13D1294A137883B94046282114F09EFC2648642114F09AFCA7
:20502000E9B208F12800283914F094FC4FF0010926E04046F9B214F08DFC21E0019B012BE9
:205040001ED1B9F1000F16D1194A13789BB91A484146282210F000FE17481649642210F00A
:20506000FBFDEAB2144808F12801283A10F0F4FD4FF0010904E010484146FAB210F0ECFD2A
:20508000C6EB0A0A1FFA8AFABAF1000F8FD1404618F008FCFBF7D6FF019B012B04D1064850
:2050A00010F072FCFFF726FF03B0BDE8F08F00BFBEA4FF1FF86F020044A2FF1F70B582B08D
:2050C00005464D4B1B78012B0AD141242046FBF769FD10F0080FF9D0FBF706FE044602E02E
:2050E000FCF74CF80446022D0CD1444E33681B683046C4F30721984733681B683046E1B218
:20510000984701E0002D6BD03B4B1B781BB900223B4B1A605FE0012B04D13A4B1A68384B8E
:205120001A6058E0204618F0B5FB354B1860324B1B78012B26D11DB90121FBF7ABFE29E0D8
:20514000012D13D12E4E30680021FBF7A3FE0020FFF718FE2C4D28463168224610F07CFDE8
:20516000284610F011FCFFF7C5FE43E0022D41D1234D28680021FBF78DFE2868214614F0FE
:20518000E9FB37E01E4B1868A1B22A46FFF7FCFE002D2FD1FCF776F81C4B194A12681A602C
:2051A0009C800022DA801A4A1268009319481A4940F61C430DF070F80F4B1B78012B1548B2
:2051C0000CBF1649164900220DF00EFB0C4B186818F068FB0EE0084B1B78012BD2D1AFE7A3
:2051E000204618F057FB064B1860034B1B78012BC8D1A1E702B070BD1099FF1FDCA6FF1FB2
:20520000A497FF1FA097FF1F44A2FF1FBCA2FF1F6098FF1F7898FF1FA90700006504000003
:205220005105000010B50120FFF7ACFD054C204611F00CFC2479640804FB00F4FFF75AFE89
:20524000204610BDE49AFF1F10B50020FFF79AFD064811F095FF0446054B1860FFF74AFEDA
:2052600004F2FF70C0F3CF2010BD00BF449FFF1F90A2FF1F30B58DB0FFF7E6FF044640B310
:20528000FFF7D0FF810A04A80A2214F0D1FE684604A914F09BFE68460F4914F045FF054682
:2052A00008A8611E0A2214F0C3FE284608A914F031FF0A4914F038FF0146094814F07CFED7
:2052C00008A814F019FE684614F016FE04A814F013FE0DB030BD00BF604F0200644F0200AD
:2052E0002CA2FF1F08B50020FFF74CFD384811F047FF384B186000F2FF70C0F3CF20364B60
:205300001880102803D80222344B1A701FE0202803D80422314B1A7019E0402803D8082201
:205320002E4B1A7013E0802803D810222B4B1A700DE0B0F5806F03D82022284B1A7006E041
:20534000B0F5004F94BF40228022244B1A70B0F5807F8CBF3F222022214B1A70102803D86E
:205360000222204B1A7027E0202803D804221D4B1A7021E0802803D808221A4B1A701BE03A
:20538000B0F5FC7F03D81022164B1A7014E0B0F57C7F03D82022134B1A700DE0B0F5FC6F5F
:2053A00003D840220F4B1A7006E0B0F57C6F94BF8022FF220B4B1A700B4B1B7813B9FEF7B6
:2053C0003FFF01E0FFF71CF8FFF794FD08BD00BF449FFF1F90A2FF1FB49AFF1F8BA2FF1F91
:2053E000B7A2FF1FAC97FF1F1099FF1F10B5094B1B781BB1084B1B78012B08D10020FFF795
:20540000C1FCFEF705FE0446FFF774FD00E00124204610BDBEA4FF1F1099FF1F10B5992029
:2054200012F0C0FD0446431EDBB2022B00F2BC80012850D17E2012F0B5FDC8284DD121E06F
:20544000902012F0AFFDC82840F09C8048E0982012F0A8FDC82840F095806AE0544B1C6889
:205460002046544918F008F938B920464FF07E5118F020F9002800F099804FF07E524C4BC3
:205480001A6010BD7C2012F08DFD4B4B1870792012F088FD494B18707A2012F083FD484B94
:2054A00018707B2012F07EFD464B18707D2012F079FD17F0EFFE444917F0F4FF434B18609D
:2054C000A52012F06FFD17F0E5FE3F4917F0EAFF374B1860C2E70228B2D0032C52D1B6E7F9
:2054E0008E2012F05FFD344B18708B2012F05AFD324B18708C2012F055FD314B18708D20DF
:2055000012F050FD2F4B18708F2012F04BFD17F0C1FE2D4917F0C6FF2C4B1860A62012F082
:2055200041FD17F0B7FE284917F0BCFF204B186094E7942012F036FD1F4B1870912012F052
:2055400031FD1E4B1870922012F02CFD1C4B1870932012F027FD1B4B1870952012F022FDC3
:2055600017F098FE184917F09DFF184B1860A72012F018FD17F08EFE134917F093FF0C4BF2
:2055800018606BE700230C4A13700E4A13700B4A13700B4A13704FF07C520C4B1A604FF09D
:2055A0007E52034B1A6010BD002496E710BD00BF4098FF1F3333333F3099FF1FB6A2FF1F2E
:2055C0009CA2FF1F68A2FF1F0000C8422498FF1F38B5002425462046294612F0F9FC0134E6
:2055E000B4F5006FF7D138BD10B582B0002404F1830012F0D7FC01AB18550134042CF6D129
:205600001846FFF7B3FB024B186002B010BD00BF0499FF1F10B5652012F0C4FC012805D8B8
:20562000003018BF01206C4B187002E000226A4B1A70662012F0B6FC122802D8674B187038
:2056400002E00D22654B1A70672012F0ABFC012805D8003018BF0120614B187002E0002269
:205660005F4B1A70682012F09DFC012805D8003018BF01205B4B187002E00022594B1A7045
:205680006B2012F08FFC012805D8003018BF0120554B187002E00022534B1A706C2012F0E2
:2056A00081FC012805D8003018BF01204F4B187002E000224D4B1A706D2012F073FC0128D0
:2056C00005D8003018BF0120494B187002E00022474B1A706F2012F065FC012805D8003061
:2056E00018BF0120434B187002E00022414B1A70692012F057FC012805D8003018BF012076
:205700003D4B187002E001223B4B1A70732012F049FC022802D8394B187002E00222374BF2
:205720001A706A2012F03EFC012805D8003018BF0120334B187002E00122314B1A70712049
:2057400012F030FC022802D82E4B187002E000222C4B1A70722012F025FC042802D82A4BE1
:20576000187002E00022284B1A70872012F01AFC022803D8254B187020B913E00022234B88
:205780001A700FE0892012F00DFC0446882012F009FC00EB04201E4B18808A2012F002FC29
:2057A0001C4B1870822012F0FDFBC82802D1FFF71BFF02E0184A194B1A607F2012F0F2FBDB
:2057C000032802D8164B187002E00022144B1A70FFF724FE10BD00BFBDA4FF1F25A2FF1FE6
:2057E000B69AFF1F1DA2FF1FAB97FF1F9A97FF1F1199FF1FB4A2FF1F1899FF1FD4A2FF1F10
:20580000D0A2FF1F8AA2FF1F10A0FF1F80A2FF1F5898FF1F11A0FF1FC1A8243D0499FF1F3E
:20582000589FFF1F034B1B7843FA00F000F00100704700BF6188FF1F08B50120FFF7F2FF12
:2058400030B90320FFF7EEFF80F00100C0B208BD002008BD10B504460220FFF7E3FF68B1AA
:205860001CB10220FBF71CFD02E00120FBF718FDFBF708FD0220FFF721FC10BD0248036876
:205880001B680021984710BDDCA6FF1F044B012202FA00F0197821EA00021A70704700BF1C
:2058A0006188FF1F08B540F61C4017F0F3FF0A4B18600A4B1B78012B02D1FBF77FF901E09A
:2058C000FBF7BAFC18B90220FFF7E0FF08BD0220FBF7E6FC08BD00BF6098FF1F1099FF1F3C
:2058E0002DE9F04383B0244880210DF0D1FB18B10122224B1A703CE021480DF02DFC0022A6
:205900001E4B1A706846FBF7FDFCBDF80090BDF802800A2012F0B0FE052012F0BBFD0A2498
:20592000012505272646384612F0B4FD002808BF0025304612F0A0FE013CF4D1114B1B785D
:205940001BB1F0234FF4A07201E000231A460FFA89F9914505D10FFA88F8984506D145B93D
:2059600004E00FFA88F8984500D015B10320FFF78DFF03B0BDE8F083A4A2FF1F94A2FF1F1F
:205980004898FF1F69A2FF1F38B5FBF7F7FFE0280DD00A242546284612F06EFEFBF7EEFFD2
:2059A000E02804D0631E13F0FF04F4D10EE0702012F0F8FA012805D8003018BF0120054BCF
:2059C000187038BD0022034B1A7038BD0120FFF75DFFECE769A2FF1F70B58CB0344C2046A5
:2059E0002A210EF007FE23681B6820460021984723681B6820460421984723681B682046F9
:205A00004821984723681B6820461C2198472169627B00230093204601230FF0C3F830B16C
:205A20000620FFF733FF0222224B1A703DE020482A210EF0DFFD02242046FEF7CBFA10F00D
:205A4000010FF9D10620FEF7C5FA0346184C2069617B01250095002601962A220FF0B6F80F
:205A6000204603A9202214F0D9F92169627B009620462B460FF096F803A80F4919F0A2F8F5
:205A800010B10C4B1E700BE003A80C4919F09AF818B10122074B1A7002E00222054B1A7032
:205AA0006420044B197812F093FA0CB070BD00BFDCA4FF1F24A2FF1F684F0200704F02004F
:205AC0002DE9F04F83B0FFF787FF3F4B1B78022B0DD001223D4B1A70FEF734FA10B106205C
:205AE000FFF7D4FE4FF4FA6012F0C6FD02E00222364B1A70364B1B680093009A354B1A6040
:205B00000023354A13700021344A11600121344A1170344A1370FFF745F9DFF8D4C04FF050
:205B2000010BDE46304D314B05F1A304DFF8C4A0DFF89C90DFF89C80CCF800E02A781968A7
:205B400041F4806119604FF00041D9625A6329464FF000474878DA6A002A1ADBFBE7DA6A00
:205B6000002A22DBFBE7D9F8002001920199D8F800208A1AB2F57A7FDED3FFF7C7F91A4BFE
:205B80001B7803F00F030F2B1AD10720FFF77EFE16E09A6B1E6846F480661E60DF62586394
:205BA00001F8012BA142D5D1D9E79A6B85F8A320CAF800B02A7802F00F020F2ADDD1D2E77B
:205BC00003B0BDE8F08F00BF24A2FF1FFD98FF1F3CA5FF1FB89AFF1F1EA2FF1F2098FF1F75
:205BE000A997FF1FFE98FF1F5C9FFF1F00C0024088F00F4084F00F4008B51648164914F070
:205C0000F1F9164B1B789BB1154B1B7883B90020FFF7B8F8FEF7FCF920B1FFF76BF9FFF75A
:205C200029FB12E00420FFF731FEFFF763F90CE00020FFF7A7F8FEF7EBF920B1FFF75AF91F
:205C4000FFF718FB01E0FFF755F9064A064B1A6008BD00BF2CA2FF1F784F0200BEA4FF1F42
:205C60001099FF1FD5070000F4A4FF1F10B582B001A80B4B1968FFF735F8002404F1830095
:205C800001AB195D12F0A4F90134042CF6D18220C82112F09DF90222024B1A7002B010BD7A
:205CA0000499FF1F1EA2FF1F30B583B00DF103040DF1070513F0D8FD04F8010FAC42F9D188
:205CC00001A8FFF753F8034B1860FFF7CFFF03B030BD00BF2C98FF1F30B583B00DF10304F2
:205CE0000DF1070513F0C0FD04F8010FAC42F9D101A8FFF73BF8034B1860FFF7B7FF03B01F
:205D000030BD00BF0499FF1F10B5054C20460EF017F920460EF0F0F8003018BF012010BD51
:205D20006898FF1F70B584B0294B1A680092009C1B680193019D2D1B254EFFF7E5FF40B38B
:205D4000B5F57A7F2EDD24E0224B1B78B72B03D1B422204B1A7038E01F4B1B7813F0FF0FEA
:205D600008D11C4B1B78B62B21D103E0FFF7CCFF0028FBD1184B1B78DBB2022B25D1154BDF
:205D80001B78B52B1AD120E0FFF7BEFF0028FBD11BE00F4A12680392039B1B1BB3F57A7F26
:205DA000D2DBD9E733680293029D2D1BC5E7B522084B1A700222084B1A70D7E7B622054B18
:205DC0001A700022044B1A70DEE704B070BD00BF3CA5FF1F6088FF1FC4A2FF1F70B584B0F7
:205DE0002D4B1B7813F0FF0F23D12C4B1B7813F0FF0F1ED12A4B1B7813F0FF0F19D1294B12
:205E00001B7813F0FF0F14D1274B1B7813F0FF0F0FD128E0FFF778FF002831D0B4F57A7FC3
:205E200032DD2DE002221F4B1A7002E001221B4B1A701A4B1B78DBB2022B07D10322174B28
:205E40001A70FFF761FF0028FBD122E0134B1B78DBB2032B1DD10122104B1A70FFF754FF81
:205E60000028FBD115E0114C23680193019D0A2012F002FC23680293029C641B0B4EC9E7AF
:205E8000B4F57A7FCEDBD1E733680393039C641BC0E704B070BD00BF4498FF1FC4A2FF1FEB
:205EA000B79AFF1F9897FF1FA897FF1F3CA5FF1F08B5124B1B7853B90420012112F0F8FAD7
:205EC0000420002112F0C2FA00220D4B1A700520002112F0EDFA094B1B78012B4FF0020038
:205EE0000CBF0321002112F0E3FA1620012112F0DFFA1620012112F0A9FA08BD1099FF1FF7
:205F0000B5A2FF1F08B50620012112F0D1FA0920012112F0CDFA0F20012112F0C9FA1420DC
:205F2000012112F0C5FA1520012112F0C1FA0A20012112F0BDFA0620012112F087FA092071
:205F4000012112F083FA0F20012112F07FFA1420012112F07BFA1520012112F077FA0A2013
:205F6000012112F073FA11F095FA08BD70B586B0154C2669657B28460EF082F80023009374
:205F800001900293114A039201220492304629461A460EF047FA20694FF47A73C0F86832A3
:205FA0000B4B1B78012B06D1617B0122009200230EF08EF906E0044B597B012300931A469C
:205FC0000EF086F906B070BDDCA4FF1FA08601001099FF1F38B54FF4B27013F0BDFE05467A
:205FE0000DF08EFA0F4C2560284604214FF0FF320DF0DAFA20680C214FF0FF320DF0ACFAA0
:20600000206802214FF0FF320DF0BAFA206802214FF0FF320DF0BEFA1720002112F048FA48
:2060200038BD00BF98A2FF1F08B5084B1B78012B05D14FF4163017F02DFC054B18604FF4EB
:20604000164017F027FC034B186008BD1099FF1FA097FF1F9497FF1F08B5084B1B78012B01
:2060600005D1074B18680021FDF7D6FC08BD054B18680121FDF7D0FC08BD00BF1099FF1FCF
:20608000A097FF1F9497FF1F08B50021024B19706E2011F09DFF08BD1099FF1F08B5084BE7
:2060A0001B7833B18720FBF7C9FB0120FBF734FA08BD2D20FBF7C2FB0020FBF72DFA08BD0C
:2060C00069A2FF1F10B513F0CFFBC0B201280AD8084C003018BF01202070FFF7DFFF702018
:2060E000217811F075FF044803681B688B21984710BD00BF69A2FF1FDCA6FF1F08B580201B
:2061000011F050FF022814D80C4B1870012805D10B480C4900220FF049F906E0022804D14B
:206120000748094900220FF041F90022074B1A7008BD0022014B1A7008BD00BFCC9AFF1FA0
:206140002099FF1FE0930400804F120014A2FF1F08B51620002112F079F908BD08B51620FC
:20616000012112F073F908BD08B5162012F092F9003018BF012008BDF0B4164CB4F9084062
:20618000002C0BDB134C00250135B4F92060002E02DA142D03D118E01834F5E700250D4F46
:2061A00005EB4506F600BC19B8536180A280E380BDF814202281049AE26000222261626194
:2061C0009DF81820A272284601E04FF0FF30F0BC704700BFDCA2FF1FF0B4164CB4F9084068
:2061E000002C0BDB134C00250135B4F92060002E02DA142D03D118E01834F5E700250D4FE6
:2062000005EB4506F600BC19B8536180A280E380BDF8182042F0080222810022E260049B38
:206220002361059B6361284601E04FF0FF30F0BC704700BFDCA2FF1F2DE9F04F83B0044629
:206240009C4B1F68FCF77EFB0646FCF79DFB054604EB4402984B03EBC2031B8903F00803D5
:206260009BB2002B51D0944A04EB4403DB0002EB0308D05EB8F90210B8F90420B8F906E041
:20628000D8F810300093D8F8143001937346FDF729FAB8F8083003F0100292B2002A40F058
:2062A000FD8013F0010F14BF844B854B1868FCF73FFBDFF804924FEA440B0BEB040A4FEAFD
:2062C000CA0A09EB0A0839F80A20B8F80230B8F804C0B8F806E01046194662447344FCF798
:2062E000ADF939F80A00B8F80210B8F8042002445C4409EBC409B9F806300B4401380139D7
:2063000001320133FCF79AF9C8E06E4B1868FCF70FFBDFF8A4A104EB44094FEAC9090AEB5A
:2063200009083AF80920B8F80230B8F804C0B8F806E01046194662447344FCF7CFF9604B8D
:206340001868FCF7F5FA3AF80920B8F80230B8F804C0B8F806E01046194662447344FCF78F
:206360006DF93AF80900B8F80210B8F804200244B8F806300B440138013901320133FCF79E
:206380005DF9B8F8083013F0010F14BF4B4B4E4B1868FCF7CDFA04EB4403474A02EBC303F6
:2063A0001B8903F002039BB2EBB1484B1868FCF7FDFF414804EB4401C9004318B3F804E0E6
:2063C0003C4A92F804904FEA5909C9EB5E09415A8944D98892F805804FEA5808C8EB5108E6
:2063E0005B88984427E03A4B1868FCF7DFFFDFF8C8B004EB44084FEAC8080BEB080ADAF894
:206400000C0018F029FABAF804203BF8083003EB5202284B93F8049009FB00F0A2EB500956
:20642000BAF8062093F805804FEA5808C8EB5208BAF802309844234B1868FCF78FFA04EBB5
:20644000440A1D4B03EBCA0ADAF80C00494642460023FCF7FDFDBAF8083003F00603062BA8
:206460001CD1DFF854A04FEA440B0BEB04030AEBC303104A1179D868C1EB0901424600239F
:20648000FCF7E6FD5C440AEBC40A0A4B1979DAF80C00494442460023FCF7DAFD3846FCF78B
:2064A00085FF3046FCF744FA2846FCF757FA03B0BDE8F08FF498FF1FDCA2FF1F20A2FF1F02
:2064C00018A2FF1F0099FF1FC0A4FF1F3498FF1F04A0FF1F38B5074D0024B5F90830002B89
:2064E00002DB2046FFF7A8FE01341835142CF4D138BD00BFDCA2FF1F10B500EB4004084B9F
:2065000003EBC403B3F90830002B07DB2346044C04EBC303D9600AB1FFF78EFE10BD00BF65
:20652000DCA2FF1F30B40C4A02F1080302F5F47500214FF40044094823F8081C23F8061CB2
:2065400023F8041C23F8021C1481D06018321833AB42F1D130BC7047DCA2FF1F6C660200AB
:206560002DE9F04F89B08346884606A8FAF7CAFEBDF91860BDF91A90FCF7E4F901907C4ADA
:2065800002F10A0300244FF0FF3533F80A0C33F808EC33F8067C33F804CC114692F80AA0D1
:2065A000BAF1000F05D01E38AEF1140E3C370CF1280C098911F4004F10D111F0010F0DD1DB
:2065C000B5F1FF3F0AD1B04208DC3844864205DCCE4503DCE644F145D8BF2546013418322E
:2065E0001833142CD1D1B5F1FF3F47D005EB45035F4A02EBC3031B8903F010039BB2002BBD
:206600003CD15C4B1868FCF793F905EB4503584A02EBC3031B8903F008039BB273B105EB37
:206620004503DB00D418D25A6388A688E4881046194632442344FCF701F80EE04C4A05EBA8
:206640004503DB00D418D25A6388A688E4881046194632442344FBF7F1FF454905EB450241
:20666000D2008B18885A59889A880244DB880B440138013901320133FBF7E0FFB8F1000F65
:206680000ED03D4B1B680293029E3B4CFAF7BEFEE0B123680393039B9B1B312BF6D915E082
:2066A000BBF1000F0ED0344B1B680493049E324CFAF7ACFE50B123680593059B9B1B952BB3
:2066C000F6D903E0FAF7A2FE0028FBD1B5F1FF3F47D005EB4503264A02EBC3031B8903F096
:2066E00010039BB2002B3CD1244B1868FCF720F905EB45031E4A02EBC3031B8903F0080312
:206700009BB273B105EB4503DB00D418D25A6388A688E4881046194632442344FBF78EFF47
:206720000EE0134A05EB4503DB00D418D25A6388A688E4881046194632442344FBF77EFF5D
:206740000B4905EB4502D2008B18885A59889A880244DB880B440138013901320133FBF790
:206760006DFF0198FCF7E4F8284609B0BDE8F08FDCA2FF1FC8A2FF1F3CA5FF1F18A2FF1FFF
:206780002DE9F04106464BF67F60FCF7D1F81F4D4FEA460808EB0607FF00EC19E85B618867
:2067A000A2880244E3880B4403300331033A033BFBF784FE164B1868FCF7F8FD154B1868B0
:2067C000FCF7B6F8E06818F047F8A288EB5B03EB5202114B1F7907FB00F0A2EB5007E188A4
:2067E0005A795208C2EB51026388D4184BF67F60FCF7B4F8464405EBC605E868394622465A
:206800000023FCF725FCBDE8F08100BFDCA2FF1F04A0FF1FC0A4FF1FF498FF1F2DE9F84391
:206820000646DFF89890D9F80000FCF781F81F4D4FEA460808EB0607FF00EC19E85B6188AD
:20684000A2880244E3880B4403300331033A033BFBF734FE164B1868FCF7A8FD154B1868AF
:20686000FCF766F8E06817F0F7FFA288EB5B03EB5202114B1F7907FB00F0A2EB5007E1889D
:206880005A795208C2EB51026388D418D9F80000FCF764F8464405EBC605E8683946224658
:2068A0000023FCF7D5FBBDE8F88300BFDCA2FF1F04A0FF1FC0A4FF1FF498FF1F0099FF1FD2
:2068C00008B5FFF72FFE0023084A13601F21084A1160084A1360084A1360084A1360084A4C
:2068E00013604FF6FF72074B1A6008BD18A2FF1FC8A2FF1F04A0FF1F3498FF1FC0A4FF1F50
:2069000020A2FF1F0099FF1F70B506460D4608460D4916F013FD16F0EDFE0C4C84FB003466
