:1000000000000320C16F0200A96F0200616F0200AF
:10001000616F0200616F0200616F0200616F020098
:10002000616F0200616F0200616F0200A96F020040
:10003000A96F0200616F0200FD9C0200759F020023
:10004000A96F0200A96F0200A96F0200A96F020048
:10005000A96F0200A96F0200A96F0200A96F020038
:10006000A96F0200A96F0200A96F0200A96F020028
:10007000A96F0200A96F0200A96F0200A96F020018
:10008000A96F0200A96F0200A96F0200A96F020008
:10009000A96F0200A96F0200A96F0200A96F0200F8
:1000A00009F60100D5FB0100A96F0200A96F02004B
:1000B000A96F0200A96F0200A96F0200B5850200B6
:1000C000A96F0200D9A80200A96F020035AA020098
:1000D000A96F020065AB0200A96F0200A96F0200C0
:1000E000A96F0200A96F0200A96F0200A96F0200A8
:1000F000A96F0200A96F0200A96F0200A96F020098
:10010000A96F0200A96F0200A96F0200A96F020087
:10011000A96F0200C1880200A96F0200A96F020046
:10012000A96F0200A96F0200A96F0200A96F020067
:10013000A96F0200A96F0200A96F0200A96F020057
:10014000A96F0200A96F020095AC0200A96F02001E
:10015000A96F0200A96F0200A96F0200A96F020037
:10016000A96F0200A96F0200FD010200A96F020041
:10017000A96F0200A96F0200A96F0200A96F020017
:10018000A96F0200A96F0200A96F0200A96F020007
:10019000A96F0200A96F0200C5AD0200A96F02009D
:1001A000A96F0200A96F0200A96F020025080200D2
:1001B000A96F0200A96F0200A96F0200A96F0200D7
:1001C000A96F0200A96F0200A96F0200A96F0200C7
:1001D000FFFFFFFFFFFFFFFFFFFFFFFFFFFFFFFF2F
:1001E000FFFFFFFFFFFFFFFFFFFFFFFFFFFFFFFF1F
:10040000FFFFFFFFFFFFFFFFFFFFFFFFDEF9FFFF23
:1004100010B5054C237833B9044B13B10448AFF33E
:1004200000800123237010BD501EFF1F000000003C
:1004300014340400084B10B51BB108490848AFF349
:1004400000800848036803B910BD074B002BFBD0A0
:10045000BDE81040184700BF00000000541EFF1FF9
:1004600014340400501EFF1F0000000000207047DD
:100470002DE9F04F9088D58885B0A84202916ED8BA
:1004800042F6901142F67813C1F6FF71C1F6FF7380
:100490000F781E7841F69D6142F64413C1F6FF7154
:1004A000C1F6FF73C7EB87781B7891F800B0C7EBF4
:1004B000880841F68A6C41F6786406EB860608EBFC
:1004C0000601C1F6FF7CC1F6FF744FF4C8694FF610
:1004D000C01E09FB0B19CFF6FF7EC3EB83779CF898
:1004E0000010D4F800A003910EFB0399C3EB87031F
:1004F00001930021052313FB0B03EF2B2BDC019B46
:10050000D84228D413885488A34224D8039D00EBF2
:10051000800C4FEA8C1C35BB029D05EB41059F19F1
:10052000B7F5A07F0EDA13EB080F03EB0C0709D425
:100530002C884F441CB94FF001042C8001242AF868
:100540001740548801339BB29C4201F1010105F12F
:100550000205E4D2D588013080B2A842CAD9012070
:1005600005B0BDE8F08F029D05EB410503EB060EDB
:10057000BEF5A07F03F1010701F1010111DA13EBD0
:10058000080F63440DD44B442C88AAEB430303F5B6
:1005900015331CB94FF001042C800124A3F8FE434D
:1005A0005488BBB2A34205F10205DFD9D2E700BFF0
:1005B0002DE9F04F89B0B2F804E00191D1888E4561
:1005C00000F2B08042F69013C1F6FF7342F6781441
:1005D00041F69D60C1F6FF74C1F6FF701B7800788C
:1005E00094F800800390924642F64412C1F6FF72DE
:1005F000C3EB8335044608EB880B1078C3EB850208
:100600000BEB020542F6923242F66619C1F6FF7212
:10061000C1F6FF7941F68A67C1F6FF771278049236
:1006200041F66C6699F80020029204EB840C0EEB04
:100630008E0BC0EBC004C1F6FF763A78009205EB52
:100640004B1B0CEB8C0C04EB04140BEB4C1B3268B7
:10065000079204EB041C41F69865C0EB8074C0EB74
:100660008402C1F6FF750BEB4C1C0692C3EB837B37
:10067000D5ED004A049A1FFA8CFCC3EB8B0B4FF0AC
:1006800005090027B7EE004ABDF80C00052313FB4F
:1006900000E3772B3CDC069B1EEB030F38D4BAF843
:1006A0000030BAF802509D4232D30137CDF814E041
:1006B000BFB2DDF81CE021E0C3F19F01C9B219FB14
:1006C00008149F2C13DC11EB0B0F10D4029C614417
:1006D000022C89B2019C2ED034F81040009828B327
:1006E000C1F595417F312EF81140BAF8025001331F
:1006F0009BB2791C9D4289B206D30F46781E80B208
:10070000002AD9D0D9B2DAE7DDF814E0BAF8061039
:100710000EF1010E1FFA8EFE0CF1A00C8E451FFA91
:100720008CFCB1D9012009B0BDE8F08F2EF8114042
:10073000BAF80250DBE734F810000412C51004F0D8
:10074000F80407EE904A05F0FC0406EE904A009C7F
:10075000C000002C4AD0C1F595467F363EF81640C1
:10076000E51005F0FC0507EE105AF8EEE66AC0B297
:10077000F8EEC75A34EE646A07EE100A66EEA46A11
:10078000E000C0B22512E6EE256A05F0F80405EE99
:10079000900AB8EEC77AB8EEE55AF8EEE77A05EEB9
:1007A000904A27EE247AF8EEE55A67EEA47AA6EE90
:1007B000057AE5EE867AFCEEE66ABCEEC77ACDED08
:1007C000046AFCEEE77A9DF8106017EE105A17EEF7
:1007D000900AF40004F0E004C5F3C40500F0F8004A
:1007E0002C4340EA561044EA002477E73EF81140D3
:1007F000B6E700BF083022F09FBA00BF00B583B053
:1008000002AB012203F8011D0830194622F094FAC8
:1008100003B05DF804FB00BF38B5856FAC88EB888A
:10082000E41A944228BF144631B10846296822468A
:10083000194426F069F8EB882344EB80204638BD44
:10084000F8B50E46074625F0E7FE054625F0CCFE36
:10085000044625F0B1FE6401C0B204F4FF54ADB209
:10086000A5F2BC75044344EA45243C8025F05CFEB7
:10087000054625F071FE044625F086FEED02640172
:1008800005F4FF2504F4FF542C43C0F34600044351
:100890003480F8BD00F58C6024F026BE2DE9F041CF
:1008A00042F2AC03C1F6FF7342F69C151B7884B08C
:1008B000C1F6FF750BB92B78FBB12A7842F69C1371
:1008C000022AC1F6FF7355D01A78032A02D004B069
:1008D000BDE8F08101221A7042F2C000C1F6FF703B
:1008E0001EF08AFD42F2C000C1F6FF701EF0C0FD8E
:1008F0000028F1D104B0BDE8F08142F21333C1F613
:10090000FF731B78002BD8D141F67068C1F6FF78D1
:1009100098F80030002BD0D141F68063C1F6FF7308
:100920001B78002BC9D142F64046C1F6FF760A205B
:1009300033680293029F27F0F7F933680193019C13
:10094000E41B42F2C000C1F6FF701EF055FD42F2FA
:10095000C000C1F6FF701EF08BFD18B3B4F57A7FAE
:100960001BDD01232B702A7842F69C13022AC1F664
:10097000FF73A9D103221A7042F2C000C1F6FF70C2
:100980001EF03AFD42F2C000C1F6FF701EF070FD8D
:100990000028F1D104B0BDE8F08133680393039CD3
:1009A000E41BCEE7B4F57A7FDBDA022388F8003067
:1009B00083E700BF26F06ABF00F58C6025F088B998
:1009C00000F58C6024F04ABA00F58C6024F08CB9F4
:1009D000083022F061B900BF2DE9F04F2DED028BF8
:1009E0004FF0000A8FB04FF0000BCDE904ABCDE91A
:1009F00002ABCDE900AB01F5C8730C46D046D94631
:100A00000992851E069335F8026F30462BF09EFF43
:100A100002460B46404649462BF04CFE8046304687
:100A200089462BF083FF02460B462BF0F5FF02466A
:100A30000B46DDE900012BF03DFE07EE906AB4ECB9
:100A4000018AF8EEE77ACDE9000167EE887A17EEC1
:100A5000900A2BF08DFF02460B46DDE902012BF0D8
:100A600029FECDE9020118EE100A2BF081FF06469F
:100A70000F4602460B46DDE904012BF01BFE324611
:100A8000CDE904013B46304639462BF0C5FF0B4605
:100A90000246594650462BF00DFE069BA342824665
:100AA0008B46B0D142464B46404649462BF0B4FFF8
:100AB000002304460D460022C4F25903DDE900017B
:100AC0002BF0AAFF22462B462BF0F2FD002200233A
:100AD000CDE906012CF008FA0646002840F08C808B
:100AE000DDE90423404649462BF096FF0023CDE97B
:100AF0000A010022C4F25903DDE902012BF08CFF48
:100B0000DDE90A232BF0D4FDDDE906232CF0AEF855
:100B10002CF05AFA42F26011C1F6FF71DDE90423AC
:100B20000860DDE900012BF077FFDDE90223CDE964
:100B30000C01404649462BF06FFF02460B46DDE9AB
:100B40000C012BF0B5FDDDE906232CF08FF82CF01D
:100B50003BFA42F67003C1F6FF73099F1860002F3D
:100B60005ED0DDE90423104619462BF055FF002323
:100B70000022C4F259032CF079F802460B46504685
:100B800059462BF095FD0023804689460022C4F289
:100B90005903204629462CF069F802460B46DDE948
:100BA00000012BF085FD02460B46404649462BF0DE
:100BB00033FF41EC100B2AF0CFFA0023DDE90A01E4
:100BC0000022C4F259038DED000B2CF04FF80246C1
:100BD0000B46DDE902012BF06BFDDDE900341A461E
:100BE00023462CF043F82CF0EFF9386030460FB074
:100BF000BDEC028BBDE8F08F42F67002C1F6FF72C9
:100C0000002342F260111360C1F6FF710126099AB8
:100C10000B60304613600FB0BDEC028BBDE8F08F67
:100C20003E4630460FB0BDEC028BBDE8F08F00BFF2
:100C300010B542F67013C1F6FF7382B01B78002B1B
:100C400060D142F67C01C1F6FF7168461DF014FACE
:100C5000BDF80020BDF80200A2F10A039BB2822B6E
:100C60000BD8A0F10A01462907D842F65C13C1F659
:100C7000FF7301221A7002B010BDA2F1B40189B253
:100C800082290FD9822B1AD98D3A262AF3D85138C6
:100C90004E28F0D842F65C13C1F6FF7307221A7093
:100CA00002B010BDA0F1A004462C06D842F65C1399
:100CB000C1F6FF7305221A70DDE7822B37D8592859
:100CC0000FD996280DD842F66804C1F6FF7424683F
:100CD000012C1FD042F65C13C1F6FF7303221A7079
:100CE000C9E7822903D8A0F10A03462B18D9A0F13D
:100CF000A003462BC8D842F65C13C1F6FF73062248
:100D00001A70B8E742F68011C1F6FF7168461DF00F
:100D100099F89DE78229EAD8A0F10A01462918D856
:100D200042F65C13C1F6FF7302221A70A3E7A0F12A
:100D30005A013C2910D842F66801C1F6FF710968D2
:100D40000129E9D042F65C13C1F6FF7304221A7040
:100D500091E7822BCBD997E7A0F10A03462BDFD985
:100D600092E700BF10B582B028F0C8FCC0B27F285F
:100D70004DD00CDD8A282FD08D281FD0812802D19C
:100D8000F42028F013FE28F045FE02B010BD7128B3
:100D90002DD07C2807D06428F5D128F007FE28F054
:100DA00039FE02B010BD41F69C63C1F6FF7318789E
:100DB00028F0FCFD28F02EFE02B010BD42F26C13AC
:100DC000C1F6FF731B78DBB142F2D003C1F6FF73AB
:100DD000187828F0EBFDD6E742F26C13C1F6FF73EA
:100DE000187828F0E3FD28F015FE02B010BD42F699
:100DF0009704C1F6FF74207828F0D8FD23788BB1D2
:100E0000002028F0D3FD28F005FE02B010BD40F60A
:100E10005103C1F6FF73187828F0C8FD28F0FAFDD9
:100E200002B010BD42F64043C1F6FF7342F21832E1
:100E30001B680193C1F6FF72019B126844F6D35000
:100E40009B1AC1F26200A0FB03308009C0F11E00B2
:100E5000C0B228F0ABFD96E7F0B5002A4FF4074E7C
:100E600042F66637C0F2040714BF4FF060554FF0EA
:100E70006455C0F2933E002602E0172C08D02646A7
:100E800037F8022F9EFBF2F2914206F10104F4D3EF
:100E90001A0701D545F0806542F69832C0F2040287
:100EA0005B0752F8262007D5130903F4706322F478
:100EB000704245F000751A4315430560F0BD00BF50
:100EC00030B442F61443C1F6FF731A78002A3DD0BD
:100ED00072B61B78DC0710D54EF2801142F6F4345E
:100EE000CEF20001C1F6FF740D68226842F6044498
:100EF000C1F6FF742A4022600A60990710D54EF2AD
:100F0000841142F6F434CEF20001C1F6FF740D688C
:100F1000626842F60444C1F6FF742A4062600A60C7
:100F20005A0710D54EF2881142F6F434CEF2000181
:100F3000C1F6FF740D68A26842F60444C1F6FF745E
:100F40002A40A2600A601B0716D462B64FF44043E1
:100F5000C4F20203DA6882420CD044F2010100229A
:100F6000C0F21F0140F08044C8F21F021960D8602F
:100F70001C611A6030BC70474EF28C1242F6F4319C
:100F8000CEF20002C1F6FF711468CB6842F604414C
:100F9000C1F6FF712340CB601360D6E742F61443DD
:100FA000C1F6FF731B787BB3D80709D542F604421C
:100FB000C1F6FF724FF46141CEF2000112680A607F
:100FC000990709D542F60442C1F6FF724EF20411A8
:100FD000CEF2000152680A605A0709D542F604426F
:100FE000C1F6FF724EF20811CEF2000192680A605B
:100FF0001B0709D542F60443C1F6FF734EF20C12EB
:10100000CEF20002DB681360704700BF2DE9F043A9
:101010000C788BB000232F2C8DF8043007469146B6
:101020008DF8053028D007F23C480A4601A8414611
:10103000012321F04BFB0646C8B19DF8043013F0A4
:10104000700F14D001AC0FCC45460FC50FCC0FC5A7
:1010500023682B60B9F1000F04D097F83C3413F0EB
:10106000700F26D1012630460BB0BDE8F083002674
:1010700030460BB0BDE8F0834B78002BD3D100F2A3
:101080003C44204621F0D8F93946204621F09EFB09
:1010900006460028EBD0B9F1000FE3D097F83C34B6
:1010A00013F0700FE3D042F6EC33C1F6FF731C600F
:1010B000DEE742F6EC33C1F6FF733046C3F800803A
:1010C0000BB0BDE8F08300BFF0B54BF2140E4CF24C
:1010D0000407C4F2040E4CF20C064BF21C03C4F2DB
:1010E00004074FF48072C4F20403C4F204060C46F1
:1010F0004FF41071CEF8002083B0396005464FF4EC
:1011000010614FF400703060C0F23D011A6001A818
:1011100000230122FFF7A0FE0198FFF7D1FE4FF256
:1011200088024FF44043C4F20203C4F20F021021BC
:10113000EDB24FF000401160D86219465D63CA6A93
:101140004FF44043002AC4F20203F8DAE4B24FF04D
:101150000042996BDA6218465C63C26A4FF44043FE
:10116000002AC4F20203F8DA4FF28402C4F20F023A
:1011700010219B6B1160FFF711FF4CF20C044BF236
:101180001C004BF214014CF20403C4F20404C4F238
:101190000400C4F20401C4F204034FF480724FF45B
:1011A00000764FF41075226006600D601A6003B07F
:1011B000F0BD00BF2DE9F0414BF21401C4F204016F
:1011C0004CF204064CF20C034BF21C02C4F2040372
:1011D000C4F204024FF48075C4F204060D6082B0BC
:1011E0004FF4107E4FF400774FF41061C6F800E022
:1011F000C0F23D011F6004460023156001A80122D2
:10120000FFF72AFE0198FFF75BFE4FF288024FF4CA
:101210004043C4F20203C4F20F021021E4B24FF0C3
:1012200000401160D86219465C63CA6A4FF44043BB
:10123000002AC4F20203F8DA4FF000410022986B52
:10124000D96219465A63CA6A4FF44043002AC4F26D
:101250000203F8DA4FF28402C4F20F021021D3F82D
:1012600038801160FFF79AFE4CF20C054BF21C041B
:101270004BF214014CF20403C4F20405C4F204045A
:10128000C4F20401C4F204034FF480724FF40077F7
:101290004FF410765FFA88F02A6027600E601A60BB
:1012A00002B0BDE8F08100BF08B501218420FFF73E
:1012B0000BFF01218420FFF707FF02218420BDE8F6
:1012C0000840FFF701BF00BF2DE9F84F9DF8284007
:1012D00080460D4691461E46002C73D142F6A91455
:1012E000C1F6FF74002341F2E03042F645171A467A
:1012F0005621C1F6FF70C1F6FF7728F0DDFE00230E
:1013000041F2E0301A463978C1F6FF7028F0D4FE79
:10131000002341F2E0301A46C1F6FF70414628F042
:10132000CBFEB9F1000F10D009F1FF3955FA89F958
:10133000013D002315F8011F41F2E0301A46C1F6C5
:10134000FF7028F0B9FEA945F3D1002242F69C0AAD
:10135000134622709146C1F6FF7A09E025786B1C8E
:10136000237027F0A3F80AF805004FF0000923784E
:101370009E4213D027F088F80028EFDC09F101091C
:1013800001205FFA89F926F0CFFCB9F1C80FEED140
:101390002378B34202D00020BDE8F88F42F69C03C8
:1013A000C1F6FF731A78762AF5D13A7859789142C6
:1013B000F1D19A784245EED1D878B0FA80F0400960
:1013C000BDE8F88F42F6A914C1F6FF74002742F673
:1013D0009C0B2770C1F6FF7B0DE094F800A00AF18A
:1013E0000103237027F062F80BF80A000027237826
:1013F000642B3FF477AF27F047F80028EDDC013786
:101400000120FFB226F090FC0A2FF0D16AE700BF5E
:1014100030B585B004A942F6AA1400250123C1F60F
:10142000FF74ADF80C50022201F8043D3620009301
:1014300005232580FFF748FF05B030BD2DE9F04FAB
:101440004CF20C0387B04FF440444BF21C054CF2B5
:101450000406C4F20204C4F20403C4F20405C4F294
:10146000040682468B469046A14601930295039658
:101470001D464BF214024FF400732B60C4F20402B9
:10148000029B4FF4807018601060039805464FF47B
:1014900010614FF41070C0F23D010023012228605A
:1014A00005A8FFF7D9FC0598FFF70AFD4FF288035E
:1014B000C4F20F0310204FF000413C221860E1629B
:1014C0006263E36A002BFCDA42F2AC03C1F6FF73FD
:1014D00000271D46D8F80030D9F8382039469942FF
:1014E0004FF0FF061CD22B78012B00F091804FF0BB
:1014F00000420023E2626363E36A002BFCDAD9F85E
:101500003830DBB2002F5ED00AF8013001311429E7
:1015100067D0D92B2CD01E46D8F800309942E2D3A0
:101520004FF28403C4F20F0310221A60FFF736FD56
:1015300001994FF480730B6002994BF21402084634
:10154000C4F204024FF4007101604FF41071116095
:10155000039A1360BBF1000F32D042F26C13C1F654
:10156000FF731B78012B78D0FFF752FF019B7FE7B9
:10157000FF2ED0D14FF28403C4F20F03102200914A
:101580004CF20C051A60FFF709FDC4F204054BF29A
:101590001C044BF214004CF204034FF48072C4F2AA
:1015A0000404C4F20400C4F204032A604FF4007679
:1015B0004FF410750099266005601A60C8F8001095
:1015C00007B0BDE8F08FD82BA1D1FF2E9FD1FF210E
:1015D000D8228AF800108AF80120012702211E462D
:1015E0009AE7BBF1000F94D141F68A62C1F6FF720F
:1015F0001278002A8DD046F67461C0F2030164228D
:101600000AF11400009325F07FF97821009B80E710
:101610004FF28403C4F20F0310221A60FFF7BEFCDE
:101620004CF20C044BF21C004BF214014CF204037C
:10163000C4F20404C4F20400C4F20401C4F20403BA
:101640004FF480724FF400764FF4107522600660FC
:101650000D601A6007B0BDE8F08FFFF725FE019B13
:1016600006E700BFF0B542F2040785B043F2D400AC
:10167000C0F2030726F0B0FB0F2026F055FB012433
:101680003868029002A9052304220094242042F61F
:10169000AA15FFF719FEC1F6FF7541F2470026F0C3
:1016A0009BFB00260F2026F03FFB009402A9052398
:1016B000022236202E80ADF808608DF80840FFF732
:1016C00003FE80BB0646642026F02EFB052322463F
:1016D00002A9009426208DF80860FFF7F5FD43F27B
:1016E000D40026F079FB0F2026F01EFB386802900C
:1016F0000523042202A900942420FFF7E5FD41F20E
:10170000470026F069FB0F2026F00EFB009405230E
:10171000022202A936202E80ADF808608DF808401C
:10172000FFF7D2FD30B301240525122104202B46FA
:1017300006228DF80B108DF80C0002A900945F268C
:1017400031208DF808508DF809408DF80A408DF849
:101750000D60FFF7B9FD42F20002C0F203020094EF
:101760001288ADF808202B4602A902223620FFF786
:10177000ABFD204605B0F0BDF0B585B001240525D0
:101780004FF0190E8DF80D00002702A92B460426F4
:101790000094062231208DF80CE002978DF8085055
:1017A0008DF80A408DF80960FFF78EFD2B46224622
:1017B00002A9009426208DF80870FFF785FD4FF4EC
:1017C000967026F0B1FA43F2D40026F005FB0F2004
:1017D00026F0AAFA42F20403C0F203033246186864
:1017E00002902B4602A900942420FFF76DFD41F2E0
:1017F000470026F0F1FA0F2026F096FA05B0F0BD6A
:10180000F0B542F6801083B0C1F6FF7080211CF065
:101810008BFB38B142F67013C1F6FF7301221A70C8
:1018200003B0F0BD044642F67C00C1F6FF701CF028
:1018300009FC42F67013C1F6FF7342F67C01C1F653
:10184000FF7168461C701CF017FC0A20BDF900608F
:10185000BDF9027026F068FA052026F0F3F90A2493
:101860000125052026F0EEF900284FF00A0008BFF8
:10187000002526F059FA013CF3D141F68A63C1F6FE
:10188000FF731B7883B92346B34213D0BC4201D007
:10189000002DC5D040F65103C1F6FF731A7822F02F
:1018A00008021A7003B0F0BD4FF4A073B3424FF0BA
:1018B000F004EBD1BC42EDD1002DB1D1EAE700BF7D
:1018C00008B542F67013C1F6FF731B786BB142F690
:1018D0008010C1F6FF701CF0F1FA28B142F68C03BB
:1018E000C1F6FF7301221A7008BD42F67C00C1F6F2
:1018F000FF701CF03DFEF0E72DE9F04142F2AC052F
:10190000C1F6FF7586B02B78002B4DD142F69C13A3
:10191000C1F6FF731B78002B46D142F21336C1F695
:10192000FF763378002B3FD141F67063C1F6FF7329
:101930001B78002B38D141F68063C1F6FF731B780A
:1019400093BB42F64048C1F6FF780A20D8F8003031
:101950000493049F26F0E8F942F67013D8F80020AB
:101960000592C1F6FF73059C1B78E41B43B926E082
:10197000B4F57A7F08DCD8F800300393039CE41BAD
:10198000FFF79EFF0028F3D1D8F800300193019BA8
:10199000DB1BB3F57A7F18DA2A7842F2AC03C1F682
:1019A000FF730AB901221A7006B0BDE8F081B4F5E0
:1019B0007A7FE9DCD8F800300293029CE41B052012
:1019C00026F040F90028DFD1F1E742F66613C1F6B0
:1019D000FF731B78012BE7D00123337006B0BDE8FD
:1019E000F08100BF10B442F69033C1F6FF734FF49C
:1019F00040421B78C4F2020240EA034040F0006318
:101A0000114610685363144602E012F0F00F17D12C
:101A1000CA6A4FF4404312F0805FC4F20203F4D06C
:101A20004FF08052DA621860DA6A12F0F00F04D0D8
:101A30009A6BDA6A12F0F00FFAD15DF8044B704736
:101A4000A36BE5E710B441F6A063C1F6FF734FF452
:101A500040421B78C4F2020240EA034040F00063B7
:101A6000114610685363144602E012F0F00F17D1CC
:101A7000CA6A4FF4404312F0805FC4F20203F4D00C
:101A80004FF08052DA621860DA6A12F0F00F04D078
:101A90009A6BDA6A12F0F00FFAD15DF8044B7047D6
:101AA000A36BE5E710B441F6A063C1F6FF734FF4F2
:101AB00040421B78C4F2020240EA034040F0C053A7
:101AC000114610685363144602E012F0F00F17D16C
:101AD000CA6A4FF4404312F0805FC4F20203F4D0AC
:101AE0004FF08052DA621860DA6A12F0F00F04D018
:101AF0009A6BDA6A12F0F00FFAD15DF8044B704776
:101B0000A36BE5E7F0B442F69034C1F6FF744FF4EE
:101B100040472678360446F00044C4F2020744F0F9
:101B20002A047C63FC6A04F4704514F0F00F18BFBB
:101B3000BC6BB5F5405FF5D841F6A064C1F6FF7403
:101B40004FF4404725782D042843C4F2020740F0A3
:101B500010407863F86A00F4704410F0F00F18BF7A
:101B6000B86BB4F5405FF5D84FF440442A43C4F253
:101B7000020442F010426263E26A02F4704012F022
:101B8000F00F18BFA26BB0F5405FF5D84FF440449A
:101B900046F00046C4F2020446F02B066663E26A91
:101BA00002F4704012F0F00F18BFA26BB0F5405F66
:101BB000F5D84FF440402943C4F2020041F01041EF
:101BC0004163C26A02F4704112F0F00F18BF826BD9
:101BD000B1F5405FF5D84FF440412B43C4F2020108
:101BE00043F010434B63CB6A03F4704213F0F00FE1
:101BF00018BF8B6BB2F5405FF5D8F0BC704700BFE3
:101C000038B50D4604464FF03840FFF759F9A2B2F7
:101C1000ABB219461046FFF775FF42F69033C1F696
:101C2000FF734FF440421B781B0443F00043C4F29F
:101C3000020243F02C035363D36A03F4704113F0A0
:101C4000F00F18BF936BB1F5405FF5D842F66812FC
:101C500042F67113C1F6FF72C1F6FF7310781B785C
:101C600043EA0020FFF71EFFFFF798F938BD00BFD9
:101C70008318B3F5A07F70B5C8BFC0F5A075044642
:101C80004FF03840D8BF15460E46FFF719F9A0B2FD
:101C9000421EB3B22A4492B21946FFF733FF42F60E
:101CA0009033C1F6FF734FF440421B781B0443F09E
:101CB0000043C4F2020243F02C035363D36A03F4DB
:101CC000704113F0F00F18BF936BB1F5405FF5D87A
:101CD00042F6681142F67112C1F6FF71C1F6FF7249
:101CE00041F6A063C1F6FF73127808781B7842EAC8
:101CF00000202A4640EA03434FF44044012A43F0BF
:101D00001045C4F202040DDD6563E36A03F470411B
:101D100013F0F00F18BFA36BB1F5405FF5D8013A8F
:101D2000012AF1DCFFF7BEFEFFF738F970BD00BFF6
:101D30008B1870B5F02B0C4606464FF03840CCBFE0
:101D4000C1F1F0051546FFF7BBF8A1B24B1EB2B2C8
:101D50002B449BB21046FFF7D5FE42F69033C1F6F6
:101D6000FF734FF440421B781B0443F00043C4F25E
:101D7000020243F02C035363D36A03F4704113F05F
:101D8000F00F18BF936BB1F5405FF5D842F66811BC
:101D900042F67112C1F6FF71C1F6FF7241F6A063FF
:101DA000C1F6FF73127808781B7842EA00202A46B1
:101DB00040EA03434FF44044012A43F01045C4F283
:101DC00002040DDD6563E36A03F4704113F0F00F64
:101DD00018BFA36BB1F5405FF5D8013A012AF1DCD9
:101DE000FFF760FEFFF7DAF870BD00BF70B505467B
:101DF0004FF038400E46FFF763F84FF44041C4F20D
:101E000002014FF6FF73CA6A013B12F4704F9BB296
:101E100001D0002BF7D14FF44043C4F202034FF03E
:101E20000042DA621A464FF6FF73D16A013B00297D
:101E30009BB201DB002BF8D14FF44043C4F2020304
:101E4000DC6AC4F30314002C44D142F69032C1F68C
:101E5000FF724FF4404310780004C4F2020340F0D4
:101E6000004141F6A06241F0D901C1F6FF72596309
:101E7000127828431036150440F000402E435E636C
:101E8000194658634FF6FF725D63CB6A013A13F44B
:101E9000704F92B201D0002AF7D14FF44043C4F200
:101EA00002034FF00042DA621A464FF6FF73D16A1E
:101EB000013B00299BB201DB002BF8D14FF44043DA
:101EC000C4F20203DA6A12F0F00F64D1FFF766F889
:101ED000204670BD9C6BDA6A12F0F00FE4B2B4D009
:101EE0009C6BDA6A12F0F00FE4B2AED09C6BDA6A47
:101EF00012F0F00FE4B2A8D09C6BDA6A12F0F00F87
:101F0000E4B2A2D09C6BDA6A12F0F00FE4B29CD07B
:101F10009C6BDA6A12F0F00FE4B296D09C6BDA6A2E
:101F200012F0F00FE4B290D09C6BDA6A12F0F00F6E
:101F3000E4B28AD09C6BDB6A13F0F00FE4B284D079
:101F40004FF44043C4F202039C6BDA6A12F0F00FC4
:101F5000E4B23FF47AAF9C6BDA6A12F0F00FE4B2AD
:101F60003FF473AF9C6BDA6A12F0F00FE4B23FF407
:101F70006CAF9C6BDA6A12F0F00FE4B23FF465AF1D
:101F80009C6BDA6A12F0F00FE4B23FF45EAF9C6B28
:101F9000DB6AE4B259E79C6BDA6A12F0F00FE4B244
:101FA00094D09C6BDA6A12F0F00FE4B28ED09C6B86
:101FB000DA6A12F0F00FE4B288D09C6BDA6A12F0A1
:101FC000F00FE4B282D09C6BDA6A12F0F00FE4B248
:101FD0003FF47CAF9C6BDA6A12F0F00FE4B23FF48E
:101FE00075AF9C6BDA6A12F0F00FE4B23FF46EAF9B
:101FF0009C6BDA6A12F0F00FE4B23FF467AF9C6BAF
:10200000DB6A13F0F00FE4B23FF460AF4FF44043EB
:10201000C4F202039C6BDA6A12F0F00FE4B23FF4F0
:1020200055AF9C6BDA6A12F0F00FE4B23FF44EAF9A
:102030009C6BDA6A12F0F00FE4B23FF447AF9C6B8E
:10204000DA6A12F0F00FE4B23FF440AF9C6BDA6A48
:1020500012F0F00FE4B23FF439AF9C6BDB6AE4B2EC
:1020600034E700BF10B504464FF03840FEF728FFB4
:1020700042F69033C1F6FF734FF440421B781B04C5
:1020800043F00043C4F2020243F036035363D36AC1
:1020900003F4704113F0F00F18BF936BB1F5405F7C
:1020A000F5D842F66C0304F00300C1F6FF73022872
:1020B00018701DD003280DD0012817D04820FFF735
:1020C000C1FC42F25813C1F6FF7301221A70FEF7E9
:1020D00065FF10BDE820FFF7B5FC42F25813C1F6CA
:1020E000FF7300221A70FEF759FF10BD2820F2E797
:1020F0008820E4E7F8B5152023F0E4FF41F6A06559
:10210000C1F6FF7542F690362870062023F0DAFFFC
:102110002B78C1F6FF76034300210F203370FFF7C1
:1021200065FE04464FF03840FEF7CAFE042796F8D5
:1021300000E02D7841F2381C4FF440417E1E4FEAFA
:102140000E4E2D04C0F2040CC4F20201F6B287B3A5
:102150009CF8013043EA0E0343F000434B630CF15B
:102160000207CB6A03F4704213F0F00F18BF8B6BB9
:10217000B2F5405FF5D8B31C9C443846604511D099
:1021800010F8013B2B4343F000434B63CB6A03F44D
:10219000704213F0F00F18BF8B6BB2F5405FF5D8AB
:1021A0006045EDD107EB060CBF5D7E1EF6B2002F39
:1021B000CED11120FFF716FCFEF7F0FE782025F0B7
:1021C000B3FD4FF03840FEF77BFE2920FFF70AFCF5
:1021D000FEF7E4FE42F2501241F68263C1F6FF724E
:1021E000C1F6FF732D201F701760FFF73BFF42F60B
:1021F000AC13C1F6FF7320461F70F8BD30B542F234
:102200005814C1F6FF7405462078012885B011D016
:1022100042F6AC10C1F6FF700078C8B142F6041265
:1022200042F60613C1F6FF72C1F6FF7315801980DE
:1022300005B030BDC2F1EF001A46C5F1EF030D46FF
:10224000014642F6AC10C1F6FF7000780028E5D1D7
:102250004FF03840039302920191FEF731FE039B49
:10226000029A01999BB292B289B2A8B2FFF74AFCD6
:102270002C20FFF7B7FBFEF791FE05B030BD00BF85
:10228000F8B505464FF03840FEF71AFE42F25813F3
:10229000C1F6FF731B7803B330263346EF22314675
:1022A0005020FFF7ABFF05F5A0773C4634F8020D50
:1022B000FFF7F8FBAC42F9D10136A82E3D46ECD130
:1022C0000021084640F23F13EF22FFF71BFC2C20B1
:1022D000FFF788FBFEF762FEF8BDA723EF2230214F
:1022E0005020FFF78BFF05F51546FE36AC1E34F87F
:1022F000020FFFF7D7FBA642F9D100210846EF23D2
:1023000040F23F12FFF7FEFB2C20FFF76BFBFEF7BE
:1023100045FEF8BD2DE9F04106464FF038408846AD
:102320001746FEF7CDFD42F25813C1F6FF73187839
:1023300040B3B8F1000F17DDB04407F520773346FE
:1023400040F23F1231460020FFF758FFA7F52075F5
:102350003C4634F8020DFFF7A5FBAC42F9D101363B
:10236000464507F52077EAD10021084640F23F13A1
:10237000EF22FFF7C7FB2C20FFF734FBFEF70EFE22
:10238000BDE8F08106EB0803013B08EB8808314605
:1023900040F23F12FFF732FF4FEA8813002BC8BF0D
:1023A00007EBC81405DD37F8020BFFF77BFBBC42D7
:1023B000F9D100210846EF2340F23F12FFF7A2FBBC
:1023C0002C20FFF70FFBFEF7E9FDBDE8F08100BF11
:1023D00042F25813C1F6FF73197831B10021084653
:1023E00040F23F13EF22FFF709BFEF2340F23F1205
:1023F0000846FFF703BF00BF42F6AC13C1F6FF73F8
:102400001B78002B40D042F26C13C1F6FF731B788F
:10241000012B19D042F60613C1F6FF7342F60412DF
:10242000C1F6FF721B88128803EB830302EB431390
:10243000B3F5964F07DA41F66C62C1F6FF72126887
:1024400022F813007047704742F2D003C1F6FF73C1
:102450001B78002BDED042F60613C1F6FF7342F65E
:102460000412C1F6FF721B88128803EB830302EB90
:102470008313B3F5963FE6DA41F67862C1F6FF7250
:10248000126822F81300704710B54CF2803182B008
:10249000C0F2C9110122044601A8FEF7DDFC019833
:1024A000FEF70EFDA0B2FFF7FDFAFEF777FD02B0D2
:1024B00010BD00BF2DE9F04F42F6AC14C1F6FF7419
:1024C0009346227883B01E4605460C46F2B142F28E
:1024D0006C13C1F6FF731B78002B53D104EBD4743B
:1024E00006EBD6766410761005EBD5750BEBDB7B2F
:1024F000B4424FEA65054FEA6B0B4CD05D4509D1FC
:102500004FF0FF33CBEB0507019309E099426AD006
:10251000584572D05D45F3DA0123C5EB0B070193F3
:10252000A642CBBFC4EB0608C6EB040801234FF05C
:10253000FF33B845009333D94FEA580B42F6681A77
:1025400042F67119CBF1000BC1F6FF7AC1F6FF79A3
:10255000234621462A462846FFF750FE99F80030C8
:102560009AF8000043EA0020FFF746FF009BB442C0
:102570001C4412D01BEB070BEAD4019BC8EB0B0BDE
:102580001D44E5E742F2D003C1F6FF731B78002B30
:10259000A4D0B442B2D12646B0E703B0BDE8F08F74
:1025A0007E0842F6681A42F671197642C1F6FF7A41
:1025B000C1F6FF792A46284623462146FFF71EFE2C
:1025C00099F800309AF8000043EA0020FFF714FF62
:1025D000019B5D451D44E0D016EB0806EAD4009B44
:1025E000F61B1C44E6E7B5F5A07F01DAEF2C0DDD04
:1025F00003B0BDE8F04FFFF7EBBEB5F5A07FF7DA0B
:10260000EF2CF5DC321BFFF793FBF1E7C5EB0B0278
:10261000FFF72EFBECE700BFF8B505464FF038405A
:10262000FEF74EFC0021EF2340F23F120846FFF771
:1026300069FA42F69033C1F6FF734FF440421B78BB
:102640001B0443F00043C4F2020243F02C03536323
:10265000D36A03F4704113F0F00F18BF936BB1F518
:10266000405FF5D841F6A0664FF44044ADB2C1F6E4
:10267000FF76C4F20204F027307845EA004040F0CB
:10268000104040F23F116063E36A03F4704213F0BC
:10269000F00F18BFA36BB2F5405FF5D80139F2D146
:1026A0002846FFF7FFF9013FE6D1FEF777FCF8BDBA
:1026B00090422DE9F041044617460D461E4601DDC5
:1026C00014460746B54202DD2B4635461E46B4F594
:1026D000A07F07DAEF2DC4EB070812DDEF2E22DD15
:1026E000BDE8F081B7F5A07F09DAEF2DF8DC761BA5
:1026F000324629463846BDE8F041FFF719BBBDE830
:10270000F081424629462046FFF7B2FAEF2E0ADD55
:10271000761B204632462946FFF70AFBB7F5A07F15
:10272000E6DBBDE8F081424631462046FFF7A0FADD
:10273000EF2DEDDDBDE8F08190422DE9F04104463A
:102740000F4601DD144602469F4202DD39461F4610
:102750000B46B4F5A07F6ADAEF2F68DCB2F5A07FF4
:10276000D4BF161BC4F5A0764FF03840F02BD4BF71
:10277000DD1BC7F1F005FEF7A3FBA0B2B9B24B1EFB
:10278000421E2B4432449BB292B2FFF7BBF942F691
:102790009033C1F6FF734FF440421B781B0443F0A3
:1027A0000043C4F2020243F02C035363D36A03F4E0
:1027B000704113F0F00F18BF936BB1F5405FF5D87F
:1027C00042F6681242F67113C1F6FF72C1F6FF734A
:1027D00017781B78002D43EA072724DD4FF4404487
:1027E000C4F202041FFA87F8012E17DD41F6A06338
:1027F000C1F6FF733146187847EA004040F01040B8
:102800006063E36A03F4704213F0F00F18BFA36B28
:10281000B2F5405FF5D801390129F1D14046FFF703
:1028200041F9013DE0D1FEF7B9FBBDE8F081BDE81B
:10283000F08100BF2DE9F04F904283B00546164667
:102840000C461F4601DD15460646BC4202DD234606
:102850003C461F46C5EB0608B8F1040F39DDC4EB52
:102860000709B9F1040F34DD05F1010ABAF5A07FBB
:1028700004F1010330D306F1FF3BBBF5A07F32D357
:1028800005F1020ABAF5A07F05DAEF2CA8F10408D9
:1028900046DDEF2F3EDDB5F5A07F04F10204A9F17E
:1028A000040911DAEF2C14DC28464A462146FFF7CA
:1028B0003FFAB6F5A07F0CDA4A462146304603B00F
:1028C000BDE8F04FFFF734BAB6F5A07F01DAEF2C80
:1028D000F2DD03B0BDE8F08FEF2B2CD906F1FF3B02
:1028E000BBF5A07F2ED2EF2B20D9BAF5A07F07F140
:1028F000FF330CD2EF2BC3D8194650460193FFF794
:102900007FF9019B19465846FFF77AF9B8E7EF2B94
:10291000B6D8F7E7424639465046FFF7A9F9BAE775
:10292000424621465046FFF7A3F9B2E719465846FA
:10293000FFF766F9D9E7194650460193FFF760F9AA
:10294000019BCBE7791EEF299AD85046FFF758F93B
:1029500096E700BF2DE9F04F904285B006460F463E
:102960009B4601DD164602465F4502DD39465F465D
:102970008B46951B042D34DDC7EB0B08B8F1040F13
:102980002FDD7B1C00930BF1FF330193AB1E0293F1
:102990002B1F4FEA680806F1020A06F1010900241C
:1029A00003930CBBBAF5A07F04DAEF2F1FDDBBF158
:1029B000EF0F24DDB9F5A07F05DA009BEF2B34DDA6
:1029C000019BEF2B2BDD0224B6F5A07F06DA391927
:1029D000EF291FDDC4EB0B01EF2916DD013444455F
:1029E000DFDD05B0BDE8F08F012CE3D0ECE7039A02
:1029F00039465046FFF73CF9BBF1EF0FDADC039A9A
:102A000059465046FFF734F9D4E72A463046FFF7D7
:102A10002FF9E3E72A463046FFF72AF9DAE71946A5
:102A2000029A4846FFF724F9CDE7029A194648462C
:102A3000FFF71EF9C4E700BF2DE9F04F42F6AC13D3
:102A4000C1F6FF738BB01B78099003919246ABB12E
:102A500042F26C13C1F6FF731B78002B40F0FC8030
:102A6000099B03EBD371039B03EBD37249100AEB71
:102A7000DA735210099103924FEA630A039FDDF85B
:102A8000248042F6681442F67115C1F6FF74C1F64F
:102A9000FF7507EB0A094FEA4A0649464B4642468C
:102AA000404676420896FFF7A9FB2B782078CAEBC0
:102AB000070243EA00203E4607921746FFF79CFCB8
:102AC0004246394610463B46FFF798FB2B78207864
:102AD00008EB0A0B43EA0020FFF78EFC5A465846E3
:102AE00033463146FFF78AFB2B782078CAEB080182
:102AF0000F4643EA00200691FFF77EFC3A4638462F
:102B000033463146FFF77AFB2B78207843EA0020E2
:102B1000CAF101030193FFF76FFCBAF1000F40F314
:102B200096800127CDF80890099904977E0001EB63
:102B30000709C6EB09030093039B03EB0708C6EBE9
:102B4000080306F1010E019E0593002E4A464846F1
:102B500007F1010713DB089B02331E440893039B14
:102B600001960AF1FF3A03EB0A06CAEB0303029649
:102B70000793019ECAEB010301EB0A0B069302992E
:102B800076440B460196FFF739FB2B78207843EA11
:102B90000020FFF731FC029900980B460246FFF730
:102BA0002DFB2B78207843EA0020FFF725FC079EB9
:102BB0004A46314633464846FFF720FB2B782078BB
:102BC00043EA0020FFF718FC009A314610463346CE
:102BD000FFF714FB2B78207843EA0020FFF70CFC6A
:102BE000414643465A465846FFF708FB2B78207863
:102BF00043EA0020FFF700FC069E4146434632466A
:102C00003046FFF7FBFA2B78207843EA0020FFF7E5
:102C1000F3FBDDF814805A46414643465846FFF719
:102C2000EDFA2B78207843EA0020FFF7E5FB4346D6
:102C3000324641463046FFF7E1FA2B78207843EAE6
:102C40000020FFF7D9FB049B9A453FF76DAF0BB00F
:102C5000BDE8F04FFFF7BCBB42F2D003C1F6FF73F3
:102C60001B78002B7FF40AAFFAE600BF2DE9F04F86
:102C700042F6AC1BC1F6FF7B91B09BF8003003918C
:102C8000054602928BB142F26C13C1F6FF731B78BA
:102C9000002B40F0F281039B03EBD372029B03EB0A
:102CA000D37352105B100392029341F68263C1F614
:102CB000FF731A78002A6DD142F25813C1F6FF73E0
:102CC00042F2501A1C78C1F6FF7A002C00F0DE8127
:102CD0009AF804109AF805009AF80640CB0813FBFE
:102CE00000F02C1B00FB04F40434009400284CD0AA
:102CF00042F2B67942F668180192C1F6FF79C1F640
:102D0000FF780398019AB2FBF3F30A1802990B4477
:102D10001946013AFFF772FA9AF80410CB085F1EC1
:102D20003BB342F65C0642F67115C1F6FF76C1F67A
:102D3000FF75DAF80030DA19009BD45C4FF0000B15
:102D400044FA0BF3DB0747BF98F800002B7899F89B
:102D5000000033780BF1010B43EA0020FFF74CFB36
:102D6000BBF1080FECD117F1FF37E2D29AF804104B
:102D7000CB0801989AF80520009C184403FB02F246
:102D80001C44824201900094BBD811B0BDE8F04FC2
:102D9000FFF71EBB42F2501AC1F6FF7A9AF80430D0
:102DA0009AF805209AF80600DB0803FB02F12D1AB9
:102DB00001FB05F5291D0791002AE6D04EF20C1102
:102DC000CEF200010D910299CDF804B04EF2081038
:102DD0004EF20414CEF20000CEF2000401310E9047
:102DE0000F94CDF824A08B4603F0FF01002B00F0D8
:102DF000388142F61443C1F6FF7308930BF1FF3399
:102E00000B93039B0493C3F1EE0342F2581805930E
:102E10000023C1F6FF780693099B079A1B68069961
:102E2000059E0498DDF82C9013444EF28C12CEF2DD
:102E3000000213F801A00A9207241CE0019FCDF8BC
:102E400000B03F782A46494627B342F6041242F6BC
:102E50000613C1F6FF72C1F6FF73108019804AFA9B
:102E600004F3DA0700F1D280013C631C284606F126
:102E7000FF3600F0E08098F80030012B00F10105EA
:102E8000DCD1019F3F78731C00935A463146484677
:102E9000002FDAD1089F3F78002F5FD072B642F63C
:102EA0001443C1F6FF731B780C93DF0714D54EF261
:102EB000801E42F6F437CEF2000EC1F6FF77DEF840
:102EC00000303F6842F6044CC1F6FF7C1F400C9B6B
:102ED000CCF80070CEF800709F0714D54EF2841E17
:102EE00042F6F437CEF2000EC1F6FF77DEF800307E
:102EF0007F6842F6044CC1F6FF7C1F400C9BCCF867
:102F00000470CEF800705F0714D54EF2881E42F6AA
:102F1000F437CEF2000EC1F6FF77DEF80030BF685E
:102F200042F6044CC1F6FF7C1F400C9BCCF80870A5
:102F3000CEF800701F0710D542F6F4370A9BC1F691
:102F4000FF77D3F800C0FF6842F6044EC1F6FF7E5B
:102F50000CEA0707CEF80C701F6062B64FF44047CA
:102F6000C4F20207D7F80CE0BEF1384F12D044F299
:102F7000010CC0F21F0C4FF0000EC7F800C0C8F2E1
:102F80001F0E4FF0784C4FF03843FB60C7F810C06D
:102F9000C7F800E0BDF8003092B289B280B2FEF707
:102FA000B1FD2C20FEF71EFD089B1B78002B3FF483
:102FB00056AFDA0709D542F60442C1F6FF724FF464
:102FC0006141CEF2000112680A609F0706D542F601
:102FD0000442C1F6FF720F9952680A60580706D57D
:102FE00042F60442C1F6FF720E9992680A60190710
:102FF0007FF535AF42F60443C1F6FF730D9ADB68E7
:1030000013604AFA04F3DA077FF52EAF42F668122E
:1030100042F67113C1F6FF72C1F6FF7310781B7888
:10302000013C43EA0020FFF7E7F9631C284606F15C
:10303000FF367FF420AF099B049C069A1B79083465
:103040000132DB080494059C06921046D9B242F284
:103050005012083C81420594C1F6FF723FF7DCAE86
:1030600052790298079CC0EB0B000C4482420794F3
:103070000BF1010B3FF6B8AE87E642F2D003C1F682
:10308000FF731B78002B7FF410AE04E602989AF8C9
:1030900005309AF804200146034403980244013B9A
:1030A000013AFFF7ABF89AF804209AF805309AF83D
:1030B0000690D20812FB03F3C9EB050903FB09F9DB
:1030C00009F10409002B3FF460AE42F2B67842F6F3
:1030D0005C0742F6681642F671150094C1F6FF7857
:1030E000C1F6FF77C1F6FF76C1F6FF75DAF800305A
:1030F00013F809404FF0070B44FA0BF2D20747BF11
:1031000030782A7898F800003A7842EA0020FFF7F1
:1031100073F91BF1FF3BEFD29AF8042000999AF85B
:103120000530D208013112FB03F38B42009109F103
:103130000109DBD811B0BDE8F04FFFF749B900BF76
:1031400042F25013C1F6FF73F0B41B6804331A78CF
:103150000A705C784C609E788E60DD78CD601C795A
:103160007F2CC8BFC4F580740C619F1D82425B79BF
:103170004B610BD0FF2A12D016FB05F56EB16B1E0A
:1031800048BFAB1D07EBE3030133E0E7B2F1FF00FB
:1031900018BF01208F61F0BC70473B46D7E7002085
:1031A0008F61F0BC704700BF2DE9F04F8BB08B46AC
:1031B00003A90192FFF7C4FF002858D042F6681413
:1031C00042F6711541F68263C1F6FF74C1F6FF75D0
:1031D000C1F6FF7321782A781B7842EA0122009217
:1031E000002B47D0059B002B40D0069A002A3DDDDE
:1031F0004FF00008099FC14646468025002B2EDD72
:10320000019A00210C4602EB080A09E02A46164200
:103210004FEA550510D10134E4B29C4221461DDA33
:1032200003FB08125207F1D13E78802216424FF07C
:10323000400507F10107EED0079A049B5A440A445F
:10324000534419461046FEF7D9FF0098FFF7D4F80B
:103250000134059BE4B29C422146E1DB069A09F168
:1032600001095FFA89F99145C846C7DB08980BB098
:10327000BDE8F08F42F25013C1F6FF7342F2B67010
:10328000089A019F5B7942F65C01C1F6FF70C1F6B6
:10329000FF7100780E7820705A443B440132394661
:1032A00058462E70FFF748FA009A2A70130A2370C6
:1032B000059B002B99D1D9E72DE9F04F2DED068B19
:1032C0008DB009EE101A05A9994609EE902AFFF76C
:1032D00037FF002800F08E80079A002A00F08780D0
:1032E0001C9B9FED587A039207EE903AF8EEE77A2E
:1032F00067EE877A17EE900A29F03AFB41EC100B43
:1033000041EC1A0B27F068FE51EC100B29F05CFE23
:10331000B0EE4A0AF0EE6A0A08EE100A27F0BCFE88
:1033200051EC100B29F050FE089B002B08EE900A80
:103330005DDD42F6681042F67111C1F6FF70C1F60C
:10334000FF7142F2B67290F800B00978DDF82C8077
:10335000C1F6FF7242F65C00002541F6826A0192D6
:10336000C1F6FF70039A029041EA0B2B2F46C1F67B
:10337000FF7A8026002A37DDF8EEC9AAB8EEE9AA5E
:10338000002425E031467608069BEB1806EE903ABD
:1033900004EB090307EE903AF8EEE66AB8EEE76A46
:1033A00066EEE87A28EE867AE8EE067A0F42A8EE14
:1033B000267A77EEAA7A37EE0A7AFDEEE77ABDEE44
:1033C000C77A1CD19AF8003043B3013494420ADA28
:1033D00002FB05435B07D5D198F80070402608F141
:1033E00001088021D0E7089B01359D42C2DBFEF732
:1033F000EFFF0A980DB0BDEC068BBDE8F08F17EE1D
:10340000902A17EE900A17EE103A17EE101AFEF7F0
:10341000F5FE5846FEF7F0FF079AD6E717EE103A8A
:1034200017EE902A17EE900A17EE101AFEF7E6FE36
:10343000019B1878029B1B7843EA0020FEF7DCFF13
:10344000079AC2E7295C8F3C2DE9F04F2DED028BE6
:103450009BB09FED737A269C169207EE904AF8EE89
:10346000E77A044667EE877A42F2501917EE900A1F
:10347000C1F6FF790E93159129F07AFA99F8046054
:1034800099F8055041EC180B99F80600F30803FB76
:1034900005F2201A02FB00F0021D1292002D00F02E
:1034A0006E8342F25812C1F6FF720F9292F80080BA
:1034B0004EF20812CEF200024EF20C114EF204103F
:1034C000CEF200011892CEF200000022179119905E
:1034D0001492344603F0FF01002B00F01982159876
:1034E00029F034FAB0EE480AF0EE680ACDE902019C
:1034F00027F072FD14985BEC10AB8DED040B29F0F6
:1035000025FAB0EE480AF0EE680A06460F4627F0A4
:10351000C3FD304653EC102B39468DED060B29F0D8
:103520007BFACDE90801169829F010FA3246CDE968
:103530000A013B465046594629F06EFA42F61445B8
:10354000CDE90C01C1F6FF7542F6AC1600231195CA
:10355000C1F6FF761093129AD9F800301344109AEE
:103560009B5C01934EF28C13D700CEF20003073719
:103570001393072520460E9A7B1B02FB003029F08F
:10358000E5F9DDE9042382468B4629F045FADDE9B9
:10359000082329F08DF8DDE9022329F08BF829F0C2
:1035A000EBFCDDE9062304465946504629F034FA7F
:1035B000DDE90C2329F07EF8DDE90A2329F07AF809
:1035C00029F0DAFCB8F1010F00F1010304F1010266
:1035D00028D0317881B3019942F6041342F60612DD
:1035E000C1F6FF73C1F6FF7241FA05FEA4B280B2C4
:1035F0001EF0010F1C80108040F0538141F6826163
:10360000C1F6FF710978002900F09C810F9B93F8A7
:10361000008015F1FF35C0F06B8199F80400AAE72E
:10362000295C8F3CC2F1EF011A46C4F1EF03044656
:10363000084631780029CED111990978002954D053
:1036400072B642F61441C1F6FF71097811F0010F0C
:1036500015D04EF2801C42F6F43ECEF2000CC1F6BC
:10366000FF7EDCF800A0DEF800E042F60448C1F678
:10367000FF780AEA0E0EC8F800E0CCF800E011F07E
:10368000020F15D04EF2841C42F6F43ECEF2000C2E
:10369000C1F6FF7EDCF800A0DEF804E042F6044844
:1036A000C1F6FF780AEA0E0EC8F804E0CCF800E094
:1036B00011F0040F15D04EF2881C42F6F43ECEF203
:1036C000000CC1F6FF7EDCF800A0DEF808E042F650
:1036D0000448C1F6FF780AEA0E0EC8F808E0CCF8F4
:1036E00000E0090700F1CF8162B64FF44041C4F217
:1036F0000201D1F80CE0BEF1384F13D044F2010CB6
:10370000C0F21F0C4FF0000EC1F800C0C8F21F0E2F
:103710004FF038484FF0784CC1F80C80C1F810C019
:10372000C1F800E09BB281B292B2A0B2FEF7EAF912
:103730002C20FEF757F9119B1B7803B3DC0709D542
:1037400042F60442C1F6FF724FF46141CEF200012D
:1037500012680A60980706D542F60442C1F6FF7265
:10376000199952680A60590700F185811A0706D530
:1037700042F60442C1F6FF721799D2680A60019AB4
:103780002A41D40700F1198141F68263C1F6FF7323
:103790001B78002B7FF43AAF42F2B67242F65C031C
:1037A000C1F6FF72C1F6FF7310781A78337842EAD7
:1037B0000020002B40F0FE81119A1378002B51D08D
:1037C00072B61378DC0712D54EF2801142F6F4324D
:1037D000CEF20001C1F6FF72D1F800E0126842F6A5
:1037E0000444C1F6FF740EEA020222600A609907DF
:1037F00012D54EF2841142F6F432CEF20001C1F637
:10380000FF72D1F800E0526842F60444C1F6FF743A
:103810000EEA020262600A605A0712D54EF288115F
:1038200042F6F432CEF20001C1F6FF72D1F800E0A8
:10383000926842F60444C1F6FF740EEA0202A260E6
:103840000A601C070DD542F6F432C1F6FF72139CD4
:10385000D368216842F60442C1F6FF720B40D36080
:10386000236062B64FF44043C4F20203DA68B2F157
:10387000384F0ED044F20101C0F21F01002219603E
:10388000C8F21F024FF038444FF07841DC601961F4
:103890001A60FEF707F9119B1B78002B40F0BF80E0
:1038A000B4E642F6681242F67113C1F6FF72C1F631
:1038B000FF7392F800E01B7843EA0E2E42F26C137D
:1038C000C1F6FF7300EB80001B78012B60D004EB86
:1038D0004014B4F5964FBFF69CAE41F66C63C1F64A
:1038E000FF7315F1FF351B6823F814E0BFF495AEA4
:1038F000109A99F804400132E3081046D9B21092A8
:10390000814242F25012C1F6FF723FF724AE557960
:10391000149A12980132D2B20844AA421492129018
:10392000FFF4D8ADB8F1000F00F030810021084657
:1039300040F23F13EF221BB0BDEC028BBDE8F04F0D
:10394000FEF75CBC42F2B67042F65C01C1F6FF7055
:10395000C1F6FF710078097841EA002042F26C114B
:10396000C1F6FF71128809781B88012902EB8202D7
:1039700000F0EC8003EB4212B2F5964FBFF646AE74
:1039800041F66C63C1F6FF731B6823F812003DE635
:1039900042F2D003C1F6FF731B78002B97D004EBE3
:1039A0008014B4F5963FBFF634AE41F67863C1F6A5
:1039B000FF731B6823F814E02BE642F6681142F609
:1039C0007112C1F6FF71C1F6FF7291F800E0117833
:1039D000327841EA0E2E002A40F0DE80002B67D1BB
:1039E0004FF44043C4F20203DA68B2F1384F0ED00C
:1039F00044F20101C0F21F0100221960C8F21F0247
:103A00004FF038404FF07841D86019611A60704625
:103A1000FEF748F8119B1B78002B3FF4F7ADD80751
:103A200009D542F60442C1F6FF724FF46141CEF26D
:103A3000000112680A60990706D542F60442C1F6F1
:103A4000FF72199952680A605A0706D542F6044275
:103A5000C1F6FF72189992680A601B077FF5D6AD10
:103A600042F60443C1F6FF73179ADB6813600F9B9D
:103A700093F80080CDE542F60442C1F6FF72189932
:103A800092680A6072E642F6F43E1399C1F6FF7E30
:103A9000D1F800C0DEF80C1042F6044E0CEA010C1E
:103AA000C1F6FF7E1399CEF80CC0C1F800C01BE62A
:103AB00072B6119B1B78D80710D54EF2801142F6D2
:103AC000F432CEF20001C1F6FF720C68126842F6C1
:103AD0000440C1F6FF70224002600A60990710D5C9
:103AE0004EF2841142F6F432CEF20001C1F6FF72BA
:103AF0000C68526842F60440C1F6FF7022404260F2
:103B00000A605A0710D54EF2881142F6F432CEF20E
:103B10000001C1F6FF720C68926842F60440C1F6DB
:103B2000FF70224082600A601B070DD542F6F43216
:103B3000C1F6FF721398D368016842F60442C1F6D9
:103B4000FF720B40D360036062B649E742F2D001D6
:103B5000C1F6FF71097800293FF40CAF03EB821224
:103B6000B2F5963FBFF652AD41F67863C1F6FF73EA
:103B70001B6823F812000F9B93F8008049E542F27E
:103B80005813C1F6FF7393F80080CBE6EF2340F2A1
:103B90003F1241464046CEE642F60413C1F6FF739B
:103BA00042F60612C1F6FF721C880F9B108893F82C
:103BB000008083E642F6041342F60612C1F6FF7354
:103BC000C1F6FF72CAE600BF2DE9F04F83B09A46F6
:103BD0000D46164604462AF073FB42F6AC13C1F6B6
:103BE000FF7380461B7863B142F26C13C1F6FF731A
:103BF0001B78002B7ED105EBD57506EBD6766D10C4
:103C0000761042F25813C1F6FF731B78002B3AD19D
:103C100042F20F739D4200F0988042F20E739D4273
:103C200077D0B8F1000F2BDDBAF1000F40D04FF084
:103C3000000942F250170134CB46C1F6FF770CE081
:103C400014F8010CCDF800A05B460BF1010BFFF757
:103C5000FBFBD84504F1010412D038794B463246BB
:103C600029460028ECD114F8010CCDF800A0FFF78C
:103C700023FB0BF1010BD845814404F10104ECD185
:103C800003B0BDE8F08F42F20F739D424ED042F276
:103C90000E739D42C5D142F25017C1F6FF773D79B0
:103CA00008FB05F5C5F1F00505EBD5756D10B8E716
:103CB00042F2501708F10108C1F6FF77A044B94657
:103CC000013408E014F8010CFFF76EFA01300544E6
:103CD0000134A045D4D03B7929463246002BF1D09F
:103CE0002946324614F8010CFEF7C0FF99F804305B
:103CF0001D44EDE742F2D003C1F6FF731B78002BA1
:103D00007FF47FAF05EBD57506EBD6766D10761098
:103D100077E742F25017C1F6FF773D7908FB05F5CA
:103D2000C5F5A07505EBD5756D107AE742F2501711
:103D3000C1F6FF7742F20E733D7908FB05F5C5F138
:103D4000F0059D427FF46DAFA5E742F25017C1F632
:103D5000FF7742F20E733D7908FB05F5C5F5A075B6
:103D60009D427FF45EAFD4E72DE9F04742F6B014F0
:103D7000C1F6FF7442F25C17C1F6FF77208B618BAE
:103D8000A28BE38B3D6842F6681842F67119024433
:103D90000B44C1F6FF78C1F6FF792E0A033A0330CF
:103DA000033B033188F8006089F80050FEF7C4FC3B
:103DB00042F66402C1F6FF7242F25013C1F6FF737D
:103DC00012681A6092F800A083F804A042F69431B9
:103DD00055785D71C1F6FF7190780968666A9871CF
:103DE000D27889F800103046090ADA7188F8001094
:103DF0002AF066FAA18B238BB4F81EE03F68628B31
:103E000003EB51036D0800FB0AF0C5EB5E05A3EB65
:103E100050017B1C2A4416D042F2B67042F65C0375
:103E2000C1F6FF70C1F6FF733C0A04701F700025D5
:103E300041F68264C1F6FF74304625700023BDE868
:103E4000F047FFF7C1BE0125F2E700BF2DE9F04FB3
:103E500042F6B014C1F6FF7442F6681820886188F3
:103E6000A288E38842F67119C1F6FF78C1F6FF799E
:103E700002440B4481B0BE277F26033A0330033B44
:103E8000033188F8007089F80060FEF755FC42F6AF
:103E90006402C1F6FF7242F25013C1F6FF7312685A
:103EA0001A6092F800B083F804B042F69431557865
:103EB0005D71C1F6FF719078D4F80CA00968987113
:103EC000D27889F800105046090A88F80010DA7193
:103ED0002AF0F6F9E1882388B4F8048062886D0836
:103EE000C5EB510542F2B67C42F65C0E41F68264A7
:103EF00000FB0BFB03EB5801C1F6FF7CC1F6FF7E14
:103F0000C1F6FF742A4400255046A1EB5B012B4605
:103F10008CF800708EF80060257001B0BDE8F04F9D
:103F2000FFF752BE2DE9F04180464CF65960FEF78E
:103F300073FB41F65813C0F2040342F25014C1F669
:103F4000FF7493F800E084F804E093F801E084F84B
:103F500005E0236042F2B67593F802E0DB78E37186
:103F6000C1F6FF7542F65C0241F68261C1F6FF724E
:103F7000C1F6FF71CE2342F6681742F671162B7018
:103F8000C1F6FF7700255923C1F6FF76137040462E
:103F90002B4619220D7042F20E7184F806E03D7036
:103FA0003570FFF711FE42F23C53C0F20403236068
:103FB000187859789A78DB78E37120716171A27171
:103FC000BDE8F0812DE9F04742F6681742F6711618
:103FD000C1F6FF77C1F6FF7606214FF0CE09824683
:103FE0004FF059080846EA234FF49D7287F8009075
:103FF00086F80080FEF7AEFC42F2B67CC1F6FF7C8C
:1040000041F6581542F65C0EC0F204050022C1F6D6
:10401000FF7E41F682613A7032708CF80090C1F6F2
:10402000FF7142F25014C1F6FF7495F8009095F8B4
:1040300001C08EF80080AF78EE780A7013465046C3
:10404000192242F20E7184F80490256084F805C0AC
:10405000A771E671FFF7B8FD42F23C53C0F20403CA
:104060002360187859789A78DB78E3712071617150
:10407000A271BDE8F08700BF2DE9F041D0F808E05B
:104080000EF1080323F0070342F6711542F6681497
:1040900000AFC1F6FF75ADEB030DC1F6FF744FEA3B
:1040A000122C164688460EF101026946002384F858
:1040B00000C02E7026F022FB42466846002342F2E2
:1040C0000E71FFF781FDBD46BDE8F08170B5064673
:1040D00084B04CF65960FEF79FFA41F65813C0F2CF
:1040E000040342F25014C1F6FF741D7825715D7807
:1040F0006571236042F2B67142F65C009D78DB7810
:10410000E371C1F6FF71C1F6FF7041F68262592377
:10411000C1F6FF72A571CE2503700D7068460025AB
:104120003146157026F0CCF868461F221421FFF79F
:10413000A3FF684626F098F942F23C53C0F204030C
:1041400006F110011A785878236022719A78DB788A
:1041500060716846E371A27126F0B2F82A4668469B
:104160003721FFF789FF684626F07EF906F1200126
:10417000684626F0A5F82A4668465021FFF77CFFDE
:10418000684626F071F906F13001684626F098F885
:104190002A4668466921FFF76FFF684626F064F9F2
:1041A00006F14001684626F08BF82A4668468221CF
:1041B000FFF762FF684626F057F906F1500168469E
:1041C00026F07EF82A4668469B21FFF755FF684691
:1041D00026F04AF906F16001684626F071F82A4691
:1041E0006846B421FFF748FF684626F03DF944F2DF
:1041F00008416846C0F2030126F036F868461F22DF
:10420000D421FFF739FF684626F02EF903E025F0A8
:10421000B5FA002809DCFDF753FB0028F7D0FDF7BD
:104220004FFB0028FBD104B070BDFCF79BFDF2E70B
:104230002DE9F041856805F1080424F0070400AF7A
:10424000ADEB040D16460C4698466A1C69460023E1
:1042500026F054FA4346324621466846FFF7B4FC3E
:10426000BD46BDE8F08100BF2DE9F0478EB00028C3
:104270000E46174698469DF858101CD1002B70D05A
:10428000012B76DD5C1E0DF11C092246484629F003
:1042900055FB0EAB181998443022002300F81C2C53
:1042A00008F81C3C3A46314648460023FFF78CFC90
:1042B0000EB0BDE8F087B4BF0125002546F2676364
:1042C000B8BF4042AC46C6F266630DF1FF3E002423
:1042D00083FB0029C217C2EBA90202EB8202A0EB0A
:1042E0004202801A83FB00A9C0173032D0EBA9002C
:1042F00004F101040EF8012FEAD10EAB234403F8B8
:10430000380CBCF1000F02D02D238DF81C3004EBCB
:10431000050AD04516DC4FF000080DF11C0905EB2D
:104320000803013B69464B446C4414F8012D03F823
:10433000012FA142F9D10EAB9844C24400230AF8E0
:104340001C3CAFE7C4EB0808C5EB0808B8F1000F48
:10435000E1DD0DF11C0909EB0500424629F0EEFAFA
:10436000DDE730238DF81D808DF81C300DF11C0920
:1043700098E704464FF001080DF11C0989E700BFDA
:104380002DE9F84304460F46164698464FF038404C
:10439000DDF82090099DFCF793FDA0B2B9B208F1B9
:1043A000FF33721E0B4402449BB292B2FDF7AAFB8C
:1043B00042F69033C1F6FF734FF440421B781B0462
:1043C00043F00043C4F2020243F02C035363D36A68
:1043D00003F4704113F0F00F18BF936BB1F5405F19
:1043E000F5D8B8F1000F40F3AC8041F6A0674FF468
:1043F0004044C1F6FF77C4F202043878042E4946DF
:104400004FEA004054DDB6460B789B0935F813306F
:10441000034343F010436363E36A03F4704213F011
:10442000F00F18BFA36BB2F5405FF5D80B78C3F35C
:10443000011335F81330034343F010436363E36A19
:1044400003F4704213F0F00F18BFA36BB2F5405F96
:10445000F5D80B78C3F3810335F81330034343F0E9
:1044600010436363E36A03F4704213F0F00F18BF64
:10447000A36BB2F5405FF5D811F8013B03F00303DD
:1044800035F81330034343F010436363E36A03F4E6
:10449000704213F0F00F18BFA36BB2F5405FF5D870
:1044A000AEF1040E1FFA8EF3042B0FFA83FEABD885
:1044B0000B789B0935F81330034343F010436363D3
:1044C000E36A03F4704213F0F00F18BFA36BB2F568
:1044D000405FF5D80B78C3F3011335F8133003436D
:1044E00043F010436363E36A03F4704213F0F00F88
:1044F00018BFA36BB2F5405FF5D80B78C3F3810307
:1045000035F81330034343F010436363E36A03F465
:10451000704213F0F00F18BFA36BB2F5405FF5D8EF
:104520000B7803F0030301F1010935F81300FDF7DF
:10453000B9FA08F1FF339BB20FFA83F8002B7FF42E
:104540005CAFFCF72BFDBDE8F88300BF2DE9F84315
:1045500004460F46164698464FF03840DDF8209046
:10456000099DFCF7ADFCA0B2B9B208F1FF33721E91
:104570000B4402449BB292B2FDF7C4FA42F6903368
:10458000C1F6FF734FF440421B781B0443F0004315
:10459000C4F2020243F02C035363D36A03F4704164
:1045A00013F0F00F18BF936BB1F5405FF5D8B8F179
:1045B000000F5EDD41F6A0674FF44044C1F6FF777F
:1045C000C4F202043878022E49464FEA00402EDD3C
:1045D000B6460B781B0935F81330034343F01043FC
:1045E0006363E36A03F4704213F0F00F18BFA36B28
:1045F000B2F5405FF5D811F8013B03F00F0335F831
:104600001330034343F010436363E36A03F47042DF
:1046100013F0F00F18BFA36BB2F5405FF5D8AEF101
:10462000020E1FFA8EF3022B0FFA83FED1D80B78FD
:104630001B0935F81330034343F010436363E36A07
:1046400003F4704213F0F00F18BFA36BB2F5405F94
:10465000F5D80B7803F00F0301F1010935F81300C9
:10466000FDF720FA08F1FF339BB20FFA83F8002B15
:10467000A8D1FCF793FCBDE8F88300BF00B542F673
:104680009233C1F6FF7383B01B786BB14BF2140207
:104690004CF20403C4F20402C4F204034FF4807029
:1046A0004FF410711060196042F26C13C1F6FF7381
:1046B0001B7833B942F60112C1F6FF721278012A53
:1046C0000BD00020CBF60120FCF7FAFB00210F20D5
:1046D00023F092FA03B05DF804FB4CF28031C0F293
:1046E000C91101A8FCF7B8FB0198FCF7E9FBEDE75D
:1046F0002DE9F04F00F0010213B24FEA500E0EEB1D
:104700008E0E9C0023444FEA4E148DB004EB03132D
:10471000002A1A46039200EB80084FEA8813C2F57C
:104720006058039ACDF81080C2F51558039ACDF859
:104730001880C2F59558039ACDF82080C2F59548A7
:10474000049A02911146069ACDF8288001F13F01A2
:10475000049108BF4FF0500E114618BF4FF0000EE5
:10476000089AA6443F31CEF56058069111460A9A40
:10477000CDF814801F31CEF5155808911146059AD1
:10478000CDF81C807F310A9142F692361146079A85
:104790003F3141F6896C42F6011741F68A6541F6D0
:1047A0006C6BC1F6FF76CEF59558C1F6FF77C1F672
:1047B000FF750591C1F6FF7C1146C1F6FF7B367887
:1047C000CDF82480CEF5954E3F31CDF82CE097F80A
:1047D0000090009695F800A007919CF80080DBF807
:1047E0000050099A11460B9A42F2B8747F3200EBDE
:1047F0008000C3F5954E1F31C1F6FF740B92420144
:1048000009915F4203F1A00101920EF17F0E26464D
:104810000023B8F1000F2CD096F8A20096F8A32040
:1048200042EA002010B3B9F1010F42D0009A2AB336
:10483000BAF1000F25D0019A9A1805EB820C25F8E1
:10484000220005EB4102ACF8020025F8110050806F
:104850000133502BAEF1020EA7F1020701F1020164
:1048600004F10204A6F10206D3D101200DB0BDE887
:10487000F08F2079627942EA0020D3E7BAF1000F85
:10488000D9D0019A25F81E009A18A2F515523F3A80
:1048900007F5944B07F5944CC2EB82720BF15F0B5A
:1048A0000CF15E0C25F8220025F81B0025F81C00F1
:1048B000CEE7029ABAF1000F0ED1022A41D02FD9C9
:1048C000032A1ED0042AC3D1B8F1000F50D0099A90
:1048D000D21A25F81200BBE7022A2BD019D9032AD5
:1048E00008D0042AB4D1039A9A1802F5615225F827
:1048F0001200ADE7039A9A1802F5165225F8120035
:10490000A6E7B8F1000F2ED0079AD21A25F81200A8
:104910009EE7012A9CD1039A9A1825F8120097E77E
:10492000012A95D1B8F1000F18D00B9AD21A25F8A8
:1049300012008DE7039A9A1802F5965225F8120094
:1049400086E7B8F1000F04D0059AD21A25F81200B4
:104950007EE7049AD21A25F8120079E70A9AD21A49
:1049600025F8120074E7069AD21A25F812006FE7AC
:10497000089AD21A25F812006AE700BF2DE9F04F15
:1049800042F6011389B0C1F6FF7303931B78012B24
:104990000CBF042301230493FFF770FE42F6923309
:1049A000C1F6FF734FF440454FF284024EF28C1172
:1049B000C4F202050293C4F20F02CEF200010123F9
:1049C0002C460692079101934EF28813CEF2000313
:1049D00005934FF00008B8F1FF0F00F0948042F209
:1049E000B877C1F6FF7707F1A3064FF0010B4FF040
:1049F000000A2B68397842F2B8774FF00042C1F6CE
:104A0000FF7743F480632B601046EA625FFA8AF90D
:104A10003A466963BE465178EB6A002BFCDAA76B15
:104A2000236843F480632360E062616302F8017BE2
:104A3000B242F0D17746EB6A002BFCDA3A78A36BEE
:104A400087F8A33002F00F0142F2B8730F29C1F6C4
:104A5000FF7302D05B784B4536D023F03DF908F167
:104A600001085FFA88F8064600E000BF23F034F939
:104A7000801BB0F5487FF8D3B9F13C0FABD1019B57
:104A8000049A03F1010A5FFA8AF39A4201939BD2D6
:104A90004FF28403C4F20F0301221A60FCF77EFA7E
:104AA000029B1B786BB14BF214024CF20403C4F26C
:104AB0000402C4F204034FF410704FF480711060CC
:104AC000196009B0BDE8F08FB9F1140F0FD001994A
:104AD0004846FFF70DFE0028BFD0BBF13C0FCED0FB
:104AE0000BF1010B5FFA8BFB0AF1010A81E7039BD3
:104AF0001B78012B00F0E68001991420FFF7F8FDE8
:104B00000028EDD1A9E742F2AC03C1F6FF731B7890
:104B1000DBB2012B00F0DE8042F61446069A012338
:104B2000C1F6FF76136033787BB3D80709D542F618
:104B30000442C1F6FF724FF46141CEF200011268E7
:104B40000A60990709D542F60442C1F6FF724EF297
:104B50000411CEF2000152680A605A0709D542F6E4
:104B60000442C1F6FF724EF20811CEF200019268C3
:104B70000A601F0709D542F60443C1F6FF734EF2DF
:104B80000C12CEF20002DB681360029B1B786BB143
:104B90004BF21402C4F204024CF20403C4F2040304
:104BA0004FF4107111604FF480721A60BA2023F034
:104BB000BBF8029B1B786BB14BF21402C4F20402E7
:104BC0004CF20403C4F204034FF4807111604FF4FB
:104BD00010721A6042F26C13C1F6FF731B7823B98E
:104BE000039B1B78012B00F08480327842F614433B
:104BF000C1F6FF73002A48D072B61B78D80710D5CB
:104C00004EF2801142F6F430CEF20001C1F6FF7090
:104C10000E68026842F60440C1F6FF70324002603E
:104C20000A60990710D54EF2841142F6F430CEF2A4
:104C30000001C1F6FF700E68426842F60440C1F6FA
:104C4000FF70324042600A605A070DD542F6F431D7
:104C5000C1F6FF71059E8A68306842F60441C1F6CC
:104C6000FF7102408A6032601B070DD542F6F432B4
:104C7000C1F6FF720798D368016842F60442C1F694
:104C8000FF720B40D360036062B60023EA68CBF684
:104C900001239A420DD044F20102C0F21F022A60A1
:104CA00000210022CFF60121C8F21F02EB6029612A
:104CB0002A6000210F2022F09FFF012301934FF073
:104CC00000088CE612113FF4C8AE019B93427FF4BA
:104CD000C4AE11E74FF28402C4F20F021360FCF776
:104CE0005DF9029B1B78002B7FF4DDAE09B0BDE8B7
:104CF000F08F4FF03840FCF7E3F8DAE74BF214029C
:104D00004CF2040370B5C4F20402C4F2040342F28C
:104D100044344FF480714FF41070C1F6FF74116089
:104D2000186004F26C4104F58C60022314221FF019
:104D300003FEC0B942F24430C1F6FF701FF0B8FA6A
:104D400023794BF214014CF20402C4F20401C4F2C0
:104D500004025B084FF410754FF480740D6000FB83
:104D600003F0146070BD04F23C401DF065FB0121AE
:104D700020461FF037FBB0B142F24435C1F6FF7553
:104D800005F23C46304629461DF020FD0028D1D0D2
:104D900095F83C3413F0700FCCD042F6EC33C1F6EA
:104DA000FF731E60C6E7014620461FF01BFB00286C
:104DB000E2D1BFE72DE9F0414BF214064CF20405B5
:104DC000C4F20406C4F204054FF480774FF410785F
:104DD00042F2A47037608CB0C1F6FF70C5F8008055
:104DE00020F090FA42F66C13C1F6FF7300F2FF74E4
:104DF000C4F3CF241860C6F800802F608CB3FFF78F
:104E00007DFF0A22810A684625F0F0FA694604A867
:104E100025F056FA44F22441C0F2030104A825F01B
:104E200013FC0A220546611E08A825F0DFFA08A92E
:104E3000284625F0C9FB44F22841C0F2030125F0C1
:104E400003FC014642F60810C1F6FF7025F014FB82
:104E500008A825F009FB04A825F006FB684625F004
:104E600003FB0CB0BDE8F08138B54BF214024CF2F4
:104E70000403C4F20402C4F2040342F2B0714FF41A
:104E80008070C1F6FF714FF4107410601C60A1F1C6
:104E90000C00022314221FF04FFD78B900204BF2C2
:104EA00014024CF20403C4F20402C4F204034FF4EB
:104EB00010744FF480711460196038BD42F2807034
:104EC000C1F6FF701DF0B8FA42F244300121C1F67C
:104ED000FF701FF087FA0146B8B142F24434C1F6C0
:104EE000FF7404F23C45284621461DF06FFC002863
:104EF000D4D094F83C3413F070031BBF42F6EC336B
:104F0000C1F6FF7318461D60C9E742F24430C1F68E
:104F1000FF701FF067FA0028DFD1BFE7F8B541F650
:104F2000A464C1F6FF744FF400720021204628F0FB
:104F300005FD41F68C6242F6911142F2BC00C1F6C9
:104F4000FF70C1F6FF72C1F6FF7142F21C330568B3
:104F500009781278B5FBF1F0C1F6FF7312FB01F28C
:104F60001E68B5FBF2F341F68D6E9F0801FB1050F1
:104F70000130C1F6FF7E07F0C00760F30507AA20E5
:104F80009EF800E084F8FF01A819013884F8C07188
:104F900084F8C2E1B0FBF2F71FFA87FE4FF0550C20
:104FA000BEF5806F84F8C13184F8FEC102FB135353
:104FB000B3FBF1F384F8BF3118D3FF21FE2284F84C
:104FC000C51184F8C32184F8C41141F6A46242F2E9
:104FD000A470C4F8C651C4F8CA61C1F6FF720021BA
:104FE000C1F6FF70BDE8F84020F07EBA94F8C431F5
:104FF000B0FBF1FE4FEA272C01FB1E0E0EF1010E55
:105000006CF387136EF3050302FB170284F8C57176
:10501000B2FBF1F184F8C43184F8C311D5E700BFC5
:105020002DE9F04F42F66C13C1F6FF7342F6671B91
:105030001E68C1F6FF7BA6F580729BF800E0B2FB0C
:10504000FEF202F20110000A41F6746742F2781A89
:105050004FEA400C4FF48071C1F6FF77C1F6FF7A3A
:105060000CF1A1058D42CAF8001083B0386088BFEA
:105070004FF4C07101D811E02146721AB2FBFEF262
:1050800002F20110000A4FEA400C0CF1A1058D421A
:1050900001F18004F0D8CAF80010386042F2BC096F
:1050A000491BC1F6FF7901F1800542F21C3442F23E
:1050B000243642F674080CF1210C02FB0EC2C1F634
:1050C000FF74C1F6FF76C1F6FF78C9F8005047F6C5
:1050D000A77581310120AA4222603160A8F8000042
:1050E00000F2CD8041F68D62C1F6FF72107041F67C
:1050F000A465C1F6FF750193FFF710FF4FF400722E
:105100000021284628F01AFC019BB8F800C0196855
:1051100022683B68A5F80EC041F68C6042F6911EED
:10512000C1F6FF705524C1F6FF7E00782A624FEA6F
:1051300001284FF0AA0CEB2285F8FE419021F824BB
:105140009EF800E09BF800B085F8FFC12A704FF090
:10515000203C8022A9706C7529210024EB82688391
:105160000223D9F80000A5F818E0C5F803C0C5F877
:1051700007C085F8242085F826102B732B74AB7498
:1051800085F80DB0E861EC726C7422F0A5FD40F674
:105190004403C1F6FF73804403CB40F63002C1F6EE
:1051A000FF72C5F82B00C5F82F1003CA1A88C5F87E
:1051B00036009B78A5F8332042F2A47085F835308C
:1051C0002A46C5F83A10C5F82780D9F80010C1F66C
:1051D000FF7020F089F9DAF80030D6F80090214607
:1051E0004FF400722846C9EB030828F0A7FB42F2EF
:1051F000A47042464946C1F6FF7020F0F3FBB8F1B7
:10520000000F0CD041F6A46142F2A4700134C1F643
:10521000FF71C1F6FF7020F0C3FAA045F2D142F24F
:10522000A470C1F6FF7020F051FC41F6A4604FF469
:1052300000720021C1F6FF7028F080FB41F6A462E5
:1052400042F2A4704FF6FF7331686B80C1F6FF72B3
:105250004FF6F874C1F6FF702C8020F045F93168E4
:105260003B6842F2A47041F6A462C1F6FF70194493
:10527000C1F6FF7203B0BDE8F04F20F035B9B2F5CA
:10528000803F41F68D62C1F6FF7234BF04210621D2
:1052900011702CE72DE9F04F42F66C15C1F6FF7541
:1052A00042F66719D5F800C0C1F6FF79ACF5804128
:1052B00099F800E0B1FBFEF101F18103DB09580030
:1052C00041F6746742F2BC0642F2781800F5005AC3
:1052D0004FF48044C1F6FF77C1F6FF76C1F6FF7840
:1052E0000AF1090A4FF40052A24583B03B603260D4
:1052F000C8F8004018D94FF4C04400E05446C4EB4D
:105300000C01B1FBFEF101F18103DB09580000F54E
:1053100000520932A24204F5005AEFD8A4F5005217
:10532000C8F800403B6092B2101A42F2243842F6AC
:10533000740A4FF4806C41F68D6342F21C3B01FB12
:105340000E4180B2C1F6FF73C1F6FF7AC1F6FF7B52
:10535000C1F6FF78C0F2FB0C41F6A464C1F6FF74FD
:1053600061458CBF4FF00C0C4FF00B0C00F5005258
:10537000A1F5005183F800C0AAF80000CBF8001096
:10538000C8F80020FFF7CAFD4FF400720021204644
:1053900028F0D4FA41F68C63C1F6FF7342F69111FE
:1053A000C1F6FF71BAF800C0DBF8000093F800A066
:1053B0002A6899F8005091F800E0A4F80EC09023F4
:1053C000316820624FF0EB0CF820A37065733B68E6
:1053D00084F800C006254FF0010C6075A4F818E0B1
:1053E00029204FF0800EE16163624FF020310223EB
:1053F0006586002584F840E01202A4F81AA04FF058
:10540000550B4FF0AA0AA4F830C0C4F80310C4F832
:10541000071023732374E36284F84200E57201925B
:1054200084F8FEB184F8FFA122F056FC019A40F600
:105430004403C1F6FF7302EB000C03CB40F65402A9
:10544000C1F6FF72C4F84700C4F84B1003CA1A88AB
:10545000C4F852009B78C4F843C042F2A47084F8A8
:105460005130A4F84F20C4F8561022463168C1F6D6
:10547000FF7020F039F8316842F2A47022460631FC
:10548000C1F6FF7020F030F829464FF40072204634
:1054900028F054FA316884F8FEB142F2A470224632
:1054A0000231C1F6FF7084F8FFA120F01DF83168C9
:1054B00042F2A47022460831C1F6FF7020F014F8C1
:1054C000316845F2522C47F2722EC4F2611CC6F2CA
:1054D000411E4FF0FF3342F2A470C4F800C0C4F87C
:1054E000E4E1C4F8E831C4F8EC3122460131C1F6F8
:1054F000FF701FF0F9FF316842F2A47007312246B5
:10550000C1F6FF701FF0F0FF99F800303E68D8F840
:10551000009029464FF40072204603EB460628F01F
:105520000DFA42F2A47032464946C1F6FF7020F0EF
:1055300059FA66B141F6A46142F2A4700135C1F690
:10554000FF71C1F6FF7020F02BF9AE42F2D142F2AA
:10555000A470C1F6FF7020F0B9FA41F6A4604FF4D0
:1055600000720021C1F6FF7028F0E8F94FF6F875D7
:1055700041F6A46242F2A4706FF07043D8F80010B4
:105580006360C0F6FF75C1F6FF72C1F6FF70A360DD
:1055900025601FF0A9FFD8F800103B6842F2A47004
:1055A00041F6A462C1F6FF701944C1F6FF7203B060
:1055B000BDE8F04F1FF098BF4BF21402C4F2040292
:1055C0004CF20403C4F204034FF4807010B5106071
:1055D0004FF4107142F2A4701960C1F6FF701FF011
:1055E00091FE42F66C1142F2103200F2FF73C3F3E7
:1055F000CF23C1F6FF71C1F6FF72102B0860138034
:1056000027D842F6671141F68C6242F69113C1F633
:10561000FF71C1F6FF72C1F6FF73022020240870EB
:1056200010701C7042F26C13C1F6FF731B786BB3E1
:10563000FFF730FE4BF214024CF20403C4F20402F2
:10564000C4F204034FF410704FF4807110601960BD
:1056500010BD42F66712202BC1F6FF7219D8042143
:10566000117042F691122021C1F6FF728B42117027
:105670001ED841F68C63C1F6FF7304221A7042F201
:105680006C13C1F6FF731B78002BD1D1FFF7C8FC58
:10569000D0E7402B1FD9802B2DD810211170B3F5E6
:1056A000807FDED942F69112C1F6FF723F21117060
:1056B000802B09D9B3F5FC7F10D841F68C63C1F675
:1056C000FF7310221A70ADE741F68C63C1F6FF73C9
:1056D00008221A70A6E708211170E0E7B3F57C7F75
:1056E00016D9B3F5FC6F1AD841F68C63C1F6FF7377
:1056F00040221A7096E7B3F5806F02D8202111700E
:10570000CDE7B3F5004F94BF402180211170C6E76B
:1057100041F68C63C1F6FF7320221A7082E7B3F55D
:105720007C6F41F68C63C1F6FF7394BF8022FF2229
:105730001A7077E74EF284134EF28421CEF2000302
:10574000CEF2000148F234024FF40010C4F2040219
:10575000F0B418600860116821F4802111604FF0E6
:1057600000674FF080564FF000554FF080444FF0E7
:1057700000404BF224011F60C4F20B011E601D604B
:105780001C6018600A684BF224031006C4F20B0375
:10579000F8D41A68510603D51A6842F040021A601C
:1057A0004FF43043C4F20B031A68120603D51A688B
:1057B00042F080021A604FF4804048F2440148F2FF
:1057C0004803C4F20600A024C4F20401C4F2040396
:1057D000047000220A60F0BC1A60704708B500200F
:1057E00021F074FBAE2800D008BD0021084621F04E
:1057F00087FB72B6FFF79EFF48F68000C0F20300F9
:10580000D0F800D0D0F804F008BD00BF38B542F69B
:105810005E15C1F6FF7542F664142888C1F6FF7460
:10582000000A24F0C3F8287824F0C0F82088000A81
:1058300024F0BCF82078BDE8384024F0B7B800BFA9
:105840002DE9F04142F60113C1F6FF731B78012BDD
:105850001AD0C8B941F66C668046C1F6FF7608F5E5
:10586000A077444633681D5B280A24F09FF804346F
:10587000E8B224F09BF8BC42F4D108F52078B8F5E2
:10588000164FECD1BDE8F08141F66C660024C1F6FC
:10589000FF763368185B000A24F088F83368185DD7
:1058A000023424F083F8B4F5164FF2D1BDE8F0814C
:1058B00038B542F26C13C1F6FF731C782CB142F27A
:1058C000D003C1F6FF731C788CB941F66C65C1F644
:1058D000FF752B68185B000A24F068F82B68185DC8
:1058E000023424F063F8B4F5164FF2D138BD41F616
:1058F0007865C1F6FF7500242B68185B000A24F058
:1059000055F82B68185D023424F050F8B4F5163FB2
:10591000F2D138BD08B542F60113C1F6FF7318780D
:10592000032808BF002024F041F841F68A63C1F63D
:10593000FF73187824F03AF842F60213C1F6FF73A9
:10594000187824F033F842F69133C1F6FF731878D3
:1059500024F02CF842F26E13C1F6FF73187824F08D
:1059600025F842F6A813C1F6FF73187824F01EF844
:1059700041F68B63C1F6FF73187824F017F842F6EE
:105980007603C1F6FF73187824F010F842F6AD13D1
:10599000C1F6FF73187824F009F841F68163C1F667
:1059A000FF73187830B142F25A13C1F6FF731878BA
:1059B00080F00100BDE8084023F0F8BF10B542F6C2
:1059C0009704C1F6FF7482B0207823F0EFFF2378AC
:1059D00023B1002023F0EAFF02B010BD42F640439D
:1059E000C1F6FF7342F218321B680193C1F6FF72D1
:1059F000019B126844F6D3509B1AC1F26200A0FBCF
:105A000003308009C0F11E00C0B223F0CFFF02B006
:105A100010BD00BF70B542F67003C1F6FF7382B0CF
:105A20001B688DF80430190A1A0C01AC1B0E8DF896
:105A300005108DF806208DF80730254602AE15F8C2
:105A4000010B23F0B3FFB542F9D142F26013C1F666
:105A5000FF731B688DF80430190A1A0C1B0E8DF8A1
:105A600005108DF806208DF8073014F8010B23F08F
:105A70009DFFB442F9D102B070BD00BF30B542F213
:105A80007013C1F6FF7383B01B688DF80430190AD8
:105A90001A0C1B0E01AC8DF805108DF806208DF840
:105AA000073002AD14F8010B23F080FFAC42F9D1AE
:105AB00003B030BD2DE9F04142F64044C1F6FF7419
:105AC000A2B023680293029D23F058FE30B92368E8
:105AD0000393039B5B1BB3F57A7FF5D323F04EFE54
:105AE000002838D041F2F03106A8C1F6FF717822C3
:105AF00024F06EFB042306A91AA8002224F018FE45
:105B00000A2240F2E1711EA824F070FC1EA91AA816
:105B100024F0DEFD014616A824F02AFC12A9002379
:105B2000052216A824F0EAFD12A827F0A3FA0446DD
:105B300016A824F099FC1EA824F096FC1AA824F0BC
:105B400093FC74B9742023F031FF06A824F08CFC78
:105B500022B0BDE8F081742023F028FF22B0BDE818
:105B6000F0810AA806A90D230B2224F0E1FD1EA94D
:105B70000AA80023052224F0C1FD1EA827F07AFA06
:105B800006A9044610230EA80E2224F0D1FD1EA95A
:105B90000EA80023052224F0B1FD1EA827F06AFA02
:105BA00006A90546132312A8112224F0C1FD1EA93F
:105BB0000023052212A824F0A1FD1EA827F05AFAFE
:105BC00006A906460A2316A8082224F0B1FD1EA93C
:105BD0000023052216A824F091FD1EA827F04AFAFA
:105BE00006A9074607231AA8052224F0A1FD1EA92D
:105BF000002305221AA824F081FD1EA827F03AFAF6
:105C000006A9804604231EA8002224F091FD04A9C1
:105C1000002305221EA824F071FD04A827F02AFA0B
:105C20003B46324629460190CDF80080204620F0C0
:105C30000DFD1EA824F018FC1AA824F015FC16A8C7
:105C400024F012FC12A824F00FFC0EA824F00CFC87
:105C50000AA824F009FC20F009FC21F01DFE71E7E0
:105C600070B542F29014C1F6FF74A51C04F5C0761D
:105C700035F8020C000A23F099FE15F8020C23F007
:105C800095FE6088000A23F091FE043414F8020C9B
:105C900023F08CFEB44205F10405E9D170BD00BFCC
:105CA00008B523F06BFD002816DD23F027FDC0B2F8
:105CB000012811D8A8B141F68163C1F6FF73012212
:105CC0001A70002242F25A13C1F6FF7382201A7032
:105CD000BDE8084023F06ABE0020BDE8084023F07C
:105CE00065BE0122EEE700BF08B523F047FD00289E
