:020000040000FA
:2000000000800020BD010000799C01003D9C01003D9C01003D9C01003D9C01003D9C01002A
:200020003D9C01003D9C01003D9C0100799C0100799C01003D9C0100799C01002D9C01004C
:20004000799C0100799C0100799C0100799C0100799C0100799C0100799C0100799C0100F0
:20006000799C0100799C0100799C0100799C0100799C0100799C0100799C0100799C0100D0
:20008000799C0100799C0100799C0100799C0100799C0100799C0100799C0100799C0100B0
:2000A000611B0100711B0100799C0100799C0100799C0100799C0100799C0100799C0100B2
:2000C000799C0100799C0100799C0100799C0100799C0100799C0100799C0100799C010070
:2000E000799C0100799C0100799C0100799C0100799C01004DBF0100799C0100B1C60100F7
:20010000799C01002DCC0100799C0100799C0100799C0100799C0100799C0100799C01004B
:20012000799C0100799C0100799C0100799C0100799C0100799C0100799C0100799C01000F
:20014000799C0100799C0100799C0100799C0100799C0100799C0100799C0100799C0100EF
:20016000799C01004DA60100799C0100799C0100799C0100799C0100799C0100799C0100F1
:20018000799C0100799C0100799C0100799C0100799C0100799C0100799C0100799C0100AF
:2001A000799C0100799C0100799C0100799C0100799C0100799C0100799C0100574B4CF2C5
:2001C000205210B51A804DF628121A8000BF00BF19F056FD524B4FF010621A60514A9A6000
:2001E000514ADA60A3F53043203B1A6812F4807204D14E490A604FF4A8521A604C4B1A7894
:20020000110703D51A7842F008021A70494B4A4C4A482A221A704A4A00239918A14203D2E4
:20022000195899500433F8E7464B474900228B4202D243F8042BFAE74448454900235A5830
:200240001A500433B3F5DE7FF9D1424B424A802103F8011B9342FBD1404B3C4A1A60404BA6
:200260000A221A70A3F5805324225A70A0221A709A799207FCD59A79D406FCD4394A937938
:2002800003F00C03082B374BF9D103221A714C225A719A799006FCD5324A9179314B490629
:2002A000FBD5314A4FF0017111600421516020221A709A7902F00C020C2AFAD12B4B2C4A2F
:2002C0001A602C4B2C4A1A6000225A60072243F8042C2A4AC3F80C2D62B61AF077F8134B76
:2002E0001B68DA0705D5264819F0A4FF254B264A1A60264B1B785B0609D5224C224A2368A4
:20030000934204D11E4819F095FF002323601FF097F901F065F91BF017F8FEE70E2005402A
:2003200030800440823F04000100002B14D0034002D0074000E00740A095FF1FBC4203001D
:200340006087FF1FA095FF1FBC3D00200082FF1F0000000000E400E05FE400E008ED00E0D0
:2003600000500640004006404480044004800440C010050014E000E07F32020000002020F5
:200380000EEAC1041CE00340A5C3945A00F00740FFFFFFFFFFFFFFFFFFFFFFFFFFFFFFFFE4
:2003A000FFFFFFFFFFFFFFFFFFFFFFFFFFFFFFFFFFFFFFFFFFFFFFFFFFFFFFFFFFFFFFFF5D
:2003C000FFFFFFFFFFFFFFFFFFFFFFFFFFFFFFFFFFFFFFFFFFFFFFFFFFFFFFFFFFFFFFFF3D
:2003E000FFFFFFFFFFFFFFFFFFFFFFFFFFFFFFFFFFFFFFFFFFFFFFFFFFFFFFFFFFFFFFFF1D
:20040000FFFFFFFFFFFFFFFFFFFFFFFFDEF9FFFF10B5054C237833B9044B13B10448AFF375
:2004200000800123237010BDA095FF1F00000000B442030008B5064B1BB106480649AFF353
:2004400000800648036813B1054B03B1984708BD00000000B4420300A495FF1FA095FF1F54
:20046000000000002DE9F04F87B00491029291880591D3888B42C0F0CC80684B1B78039318
:20048000674B1B78019300254FF07C57029A14885388A342C0F0B380059901EB81035B0107
:2004A00000930135ADB26B1E9BB2039A002A00F08780049931F8138008F4784B4FEA2B2BD9
:2004C00008F4FC6A4FEAEA0A4FEAC808019A3AB9C4F19F0300990B44524A32F8136004E09A
:2004E000009B23444F4931F8136006F47840000A1EF0E4FD39461EF035FE814658461EF0E8
:20050000DDFD39461EF02EFE014648461EF022FD1FF014F85FFA80FB06F4FC60C0081EF02B
:20052000CDFD39461EF01EFE814650461EF0C6FD39461EF017FE014648461EF00BFD1EF07F
:20054000FDFF5FFA80F9F00000F0F8001EF0B6FD39461EF007FE064608F0F8001EF0AEFDAD
:2005600039461EF0FFFD014630461EF0F3FC1EF0E5FFC0B2019A92B9C4F19F0300990B44AF
:2005800009F01C02C01040EAC2000BF0F80B4BEA691940EA0929234A22F8139025E0009BAD
:2005A000234409F01C02C01040EAC2000BF0F80B4BEA691940EA09291A4921F8139014E0DD
:2005C000019A52B9049931F81320C4F19F0300990B44144921F8132007E0049931F81320B4
:2005E000009B23440F4921F813200134A4B26B1C9AB202994B88A34201D3154653E7059A9C
:20060000531C9BB205930299CB88059A9342BFF43DAF012007B0BDE8F08F00BF3037002043
:20062000A83900204C9EFF1F08B5083012F0D2FB08BD00BF00B583B002AB03F8011D083083
:200640001946012212F0C6FB03B05DF804FB00BF08B500F58C6011F0C3FC08BD08B500F5BA
:200660008C6011F09FFD08BD08B500F58C6011F057FD08BD08B500F58C6011F01DFE08BDF5
:2006800038B51546846FA288E388D01AA84298BF054629B122680846D1182A4619F0A8F95F
:2006A000E3882B44E380284638BD00BFF8B505460C4613F06DFE064613F060FE074613F026
:2006C00053FEFFB2C0B240EA4717B6B2A6F2BC7647EA46272F8013F029FE054613F030FEF9
:2006E000064613F037FEF6B2EDB2ED0245EA4616C0F3460006432680F8BD00BF08B519F093
:2007000093FD08BD10B5044650491EF0DDFE002876D120464E491EF0D7FE002872D12046D3
:200720004FF081411EF0D0FE00286DD1204649491EF0CAFE002869D1204647491EF0C4FE80
:20074000002865D1204645491EF0BEFE002861D1204643491EF0B8FE00285DD12046414927
:200760001EF0B2FE002859D120463F491EF0ACFE002855D120463D491EF0A6FE002851D18D
:2007800020463B491EF0A0FE00284DD1204639491EF09AFE002849D1204637491EF094FE27
:2007A000002845D1204635491EF08EFE002841D1204633491EF088FE00283DD120463149B7
:2007C0001EF082FE002839D120462F491EF07CFE002835D120462D491EF076FE002831D13D
:2007E00020462B491EF070FE00282DD1204629491EF06AFE002814BF05204FF0FF3010BDD4
:20080000642010BD5F2010BD5A2010BD552010BD502010BD4B2010BD462010BD412010BDDC
:200820003C2010BD372010BD322010BD2D2010BD282010BD232010BD1E2010BD192010BDFC
:20084000142010BD0F2010BD0A2010BD333383409A998140A4707D401F857B40713D7A40EF
:20086000EC5178403D0A77408FC27540E17A74403333734085EB7140D7A37040295C6F40D8
:2008800052B86E40A4706D40CDCC6C401F856B40713D6A40000040402DE9F00F84B0039295
:2008A000DDF830804FEA014C9CFBF3FC0CF1010C120492FBF8F20132B8F1000F3FDD4C00BD
:2008C0000094814601925A0002924FF0000BDA461BE007EB224530F8155024F8025B6244D2
:2008E000B442F6D10AF1010A009CA144019A9344C2450AD1029CA61E0644C3EB010C4FEAC0
:200900004C0C00274FF6FF7513E0002BEADD4FEA2B4701FB07F7029E4E444C460022D8E770
:2009200022F8025FA242FBD1013706F5A076474505D09942F8DD06EB0C043246F0E7039A45
:20094000424517DD08EB880300EB83104D004FF6FF74164609E023F8024B9342FBD108F1D4
:20096000010800F5A070B04504D00029F7DD42190346F0E704B0BDE8F00F704770B4104E97
:2009800006F51340803006F51444C034772509E01988A3F84011A3F5A073013AF8D102301F
:2009A000A04202D003462A46F2E7064B06F59F714FF6FF7223F8022F8B42FBD170BC704717
:2009C0004C9EFF1F4A9EFF1F70B4104E06F5A0753246002449F2C0400AE0D118B1F84011D3
:2009E000D15203F5A0738342F7D10232AA4201D02346F2E7064B06F51542FE324FF6FF7181
:200A000023F8021F9342FBD170BC70474C9EFF1F0A33002010B40F4C04F59E70023C08E065
:200A20001A885A8003F5A0738B42F9D10238A04203D000F516410346F2E7002305494FF685
:200A4000FF725A5203F5A073B3F5164FF9D15DF8044B70474C9EFF1F30B4104DA81C05F535
:200A6000A07409E01A8823F8022C03F5A0738B42F8D10230A04203D000F516410346F1E799
:200A800005F516412B464FF6FF72A3F83E2103F5A0738B42F9D130BC704700BF4C9EFF1FD8
:200AA00038B51E4B1B7803EB83034BB100241B4DFFF7D2FF01342B7803EB8303A342F7DC86
:200AC000174B1B7803EB83034BB10024144DFFF7A1FF01342B7803EB8303A342F7DC114B36
:200AE0001B7803EB83034BB100240E4DFFF746FF01342B7803EB8303A342F7DC0A4B1B784D
:200B000003EB83034BB10024074DFFF75DFF01342B7803EB8303A342F7DC38BD869CFF1F62
:200B20002437002076360020309BFF1F70B582B0434B1D68284643491EF014FB0446002199
:200B40001EF0C2FC40B120464FF07C511EF002FA1EF0CEFC044607E020464FF07C511EF0D3
:200B6000F7F91EF0C5FC0446284637491EF0FAFA054600211EF0A8FC38B128464FF07C51FB
:200B80001EF0E8F91EF0B4FC06E028464FF07C511EF0DEF91EF0ACFCA4B286B200962B4816
:200BA000A02178222346FFF777FEC4F1A0001EF085FA4FF07C511EF0D5FA044600211EF0C2
:200BC00083FC38B120464FF07C511EF0C3F91EF08FFC06E020464FF07C511EF0B9F91EF0B2
:200BE00087FC85B22DB10024FFF714FF0134AC42FAD1C6F178001EF061FA4FF07C511EF090
:200C0000B1FA044600211EF05FFC38B120464FF07C511EF09FF91EF06BFC06E020464FF054
:200C20007C511EF095F91EF063FC85B22DB10024FFF7A4FE0134AC42FAD102B070BD00BF81
:200C400070360020000020430000F0424C9EFF1F10B501460A4C20460FF056FB20460FF0B4
:200C6000F7FA4FF4967019F09BFB20464FF4E1310FF028FB20465F210FF07EFB10BD00BFD4
:200C80003839002008B502480FF0A4FB08BD00BF383900202DE9F04782B02D480FF0A2FB79
:200CA0001FFA80FA504601211EF072FC0546BAF1000F20D057460024DFF89480A146402F76
:200CC000B4BF3E464026F6B2404631460FF0AAFBB64666B14B46C15CE21892B2A95401333E
:200CE0007345F8D10134731E13FA84F4A4B2BF1BBFB2002FE3D1164E30460FF0B9FA154CB7
:200D00002560A4F804A00023E38040F61C401EF0BFFC0246104B186000941048104940F697
:200D20001C4313F033FC30460FF00AFB22280B480C490CBF0022012213F0D0FE28461EF059
:200D4000AFFC054B18681EF0ABFC02B0BDE8F087383900204C9BFF1F2037002084360020AE
:200D6000810600006504000070B50D480FF03AFB84B284B10A4E402CB4BF25464025EDB2C4
:200D8000304629460FF04EFB29461AF0E3F8641BA4B2002CEFD102480FF06AFA70BD00BF78
:200DA0003839002010B400290ADD034644180020054913F8012B5040085CA342F9D100E001
:200DC00000205DF8044B70472C86020070B582B004460E4623485A2110F0A2F82CB1214829
:200DE00003681B680621984704E01E4803681B68072198471B4C2169627B002500952046D2
:200E00002B4610F067FB2069617B0123009301955A22032310F072FB2369D3F83821D3F8C3
:200E20003431D31A032B1CBF2B4633700D4C206910F082FB0546206910F07EFB06462069C2
:200E400010F07AFB2169627B002300932046012310F040FB06F07F00EDB205EB002002B065
:200E600070BD00BFC039002070B505460E46FFF7ADFF1EF023F914491EF074F913491EF09B
:200E800067F813491EF064F8044675B111491EF007FB20B9204610491EF020FB10B10023AE
:200EA000337070BD0D4B1C6070BD0D491EF0F8FA20B920460B491EF011FB10B100233370D7
:200EC00070BD094B1C6070BD0AD7A33C0AD7233C33938843000020C20000FA422C370020B6
:200EE00000008CC20000BE43349BFF1FF0B48C46234C2278234B196841F4806119604FF07A
:200F00000041D9625A6304F1A3076678DA6A002A1CDBFBE7D36A002B25DBFBE7184A52785E
:200F200082420BD1142A0BD1174A1278012A09D1BCEB131F14BF002001201FE000201DE0FE
:200F400001201BE0012019E0002017E09A6B1D6845F480651D60D9625E6304F8012BBC42FD
:200F6000D3D1084AD6E7074B9A6B054B83F8A3201B7803F00F020F2AD0D1E5E7F0BC704739
:200F80000896FF1F00C00240509CFF1F30B583B005460C4C20462A210FF0C2FF23681B684F
:200FA00020460021984723681B682046294698472169627B002300932046012310F08AFADE
:200FC00003B030BDC039002030B583B0FFF7DEFF0B4C2069617B01230093002301932A22F7
:200FE000022310F08BFA206910F0A6FA85B2206910F0A2FA2D02ADB2284380B203B030BDF7
:20100000C039002010B50446074800214FF400721EF0C6FE34B1044B552283F8FE21AA22A0
:2010200083F8FF2110BD00BF3437002008B501460248034A11F0B6F808BD00BF8C9CFF1FEA
:2010400034370020044B1B78044A127802FB03F3B0FBF3F080B27047B89CFF1F29370020EF
:20106000064B1B78064A127803FB02F2B0FBF2F101FB1200B0FBF3F0C0B2704729370020ED
:20108000B89CFF1F70B50120FFF7BCFF314C002384F8BE31304B1D682846FFF7D3FF021292
:2010A00094F8C03162F3871384F8C03184F8C1012846FFF7D5FF84F8BF01284B1E78B5FBEC
:2010C000F6F206FB1252013294F8C03162F3050384F8C031224B1B7884F8C231214B1B68EB
:2010E0001D44013D2846FFF7ADFFB0F5806F19D2021294F8C43162F3871384F8C43184F851
:20110000C5012846FFF7ACFF84F8C301B5FBF6F306FB1355013594F8C43165F3050384F825
:20112000C43109E00B4BFF2283F8C521FE2283F8C321FF2283F8C421064B074A1268C3F822
:20114000C621084A1268C3F8CA210020FFF76EFF70BD00BF343700207C9CFF1F2937002086
:20116000AC96FF1F709CFF1FF8B504460D460020FFF748FF094821462A4611F053F84DB1CC
:201180000024064F064E3846314611F02DF80134AC42F8D1014811F06DF8F8BD8C9CFF1FD1
:2011A0003437002010B5034B1C68240219F0D4F8204410BD749CFF1F00B583B069460522F5
:2011C00000231AF0D7FA68461EF0DEF903B05DF804FB00BF08B5064B00221A731A7101E08F
:2011E00019F042FE19F08CFE0028F9DC08BD00BFAC3B002038B50D4C23680D4D29881B682C
:201200002046090A984723681B682046297898472368084D29881B682046090A984723688B
:201220001B6820462978984738BD00BFAC3B00206E360020783600202DE9F0471C4B1B78B1
:20124000012B00D020B11B4C04F516461A4D1EE0DFF8608008F5164A4FF00009164E374663
:2012600013E038F8045033681B683846290A984733681B683846E9B298470434B4F5A07F33
:20128000EFD108F52078D04510D04C46E9E721882B681B682846090A98472B6834F8021BA7
:2012A0001B682846C9B29847B442F0D1BDE8F087509CFF1F4C9EFF1FAC3B002010B5214BC6
:2012C000187819F0C5FE204C23681B6820461F4A117898471E4B187819F0BAFE23681B6839
:2012E00020461C4A1178984723681B6820461A4A11789847194B1B781BB9002019F0A8FEE0
:2013000005E0114803681B68154A11789847134B1B781BB9002019F09BFE05E00A480368B1
:201320001B68104A117898470F4B1B7823B10F4B197881F0010100E00021034803681B680F
:20134000984710BD509CFF1FAC3B0020AC9CFF1FC89CFF1F849CFF1F8A9CFF1F989CFF1F14
:201360007536002074360020B19CFF1F409BFF1F08B5FFF787FCFFF7F7FC08BD2DE9F04149
:20138000ACB04E4B1B680293029D4C4C19F0B8FD30B923680393039B5B1BB3F57A7FF5D3C4
:2013A00019F0AEFD002800F0858004A8444978221AF05AF80CA804A9002204231AF0F2F98E
:2013C00010A84FF4FC610A221AF042F90CA810A91AF0CAF9014608A81AF026F908A8FFF744
:2013E000EBFE044608A81AF097F810A81AF094F80CA81AF091F8002C59D014A804A90B22F1
:201400000D231AF0CFF914A8FFF7D6FE074618A804A90E2210231AF0C5F918A8FFF7CCFEDF
:2014200006461CA804A9112213231AF0BBF91CA8FFF7C2FE054620A804A908220A231AF02D
:20144000B1F920A8FFF7B8FE044624A804A9052207231AF0A7F924A8FFF7AEFE804628A8AC
:2014600004A9002204231AF09DF928A8FFF7A4FECDF800800190384631462A46234612F0C8
:201480008DFF28A81AF048F824A81AF045F820A81AF042F81CA81AF03FF818A81AF03CF884
:2014A00014A81AF039F812F0F3FE18F0C3FE04A81AF032F82CB0BDE8F08100BFA43A0020EA
:2014C000AC3B002070B50A4C04F5C076094D21882B681B682846090A98472B6834F8021B0A
:2014E0001B682846C9B29847B442F0D170BD00BFCC9CFF1FAC3B002008B5034803681B687B
:20150000024A1178984708BDAC3B00206836002008B5024B187819F09BFD08BD273700200F
:2015200008B5034803681B68024A1178984708BDAC3B00201D37002048F68000C0F203004E
:20154000D0F800D0D0F804F0704700BF1D4B4FF400721A601C490A601C4A116821F48021C6
:2015600011604FF400021A604FF080721A604FF000721A604FF080621A604FF000621A60AF
:20158000134A136813F0800FFBD1114B1B6813F0400F04D00E4B1A6842F040021A600D4BEF
:2015A0001B6813F0800F04D00A4B1A6842F080021A60A022084B1A700023084A1360043280
:2015C0001360704788E100E088E200E03480044024B00B4000B00B400040064044800440AE
:2015E00008B5002018F0EAFAAE2808D10020014618F0FAFA72B6FFF7A9FFFFF79DFF08BDF3
:2016000008B50020AE2118F0EFFA024A024B1A6008BD00BF0400FA050CED00E008B580205D
:2016200018F0CCFA022814D80C4B1870012805D10B480C49002210F04DFB06E0022804D1F1
:2016400007480949002210F045FB0022074B1A7008BD0022014B1A7008BD00BFC895FF1FCD
:20166000BC9CFF1FC027090040771B00489BFF1F08B50420012118F01FFE0420002118F0BC
:20168000E9FD0021024B1970022018F015FE08BD6836002008B50620012118F00DFE09206C
:2016A000012118F009FE0A20012118F005FE0F20012118F001FE1420012118F0FDFD1520BD
:2016C000012118F0F9FD0620012118F0C3FD0920012118F0BFFD0A20012118F0BBFD0F2090
:2016E000012118F0B7FD1420012118F0B3FD1520012118F0AFFD12F04FFB08BD30B587B0C6
:201700000F4B1869597B002914BF03230023002400940193029403940125049522462346CC
:201720000FF0BAFA064B18694FF47A72C0F86422597B009522462B460FF00EFA07B030BDCA
:20174000C039002038B50C2019F006FE05460DF0ABFF0F4C2560284604214FF0FF320DF078
:20176000F1FF20680C214FF0FF320DF0CBFF206802214FF0FF320DF0D5FF206802214FF0B7
:20178000FF320DF0D7FF1720002118F095FD38BD0037002010B54FF48072184B1A604FF4ED
:2017A000107203F57F631A6038B3154901F58C6001F26C411422022310F050FBE8B1104CED
:2017C00004F23C4011F09EF92046012112F04CFA20B92046002112F047FA70B1084901F227
:2017E0003C4010F027FF40B1054B93F83C3413F0700F02D0034A044B1A6010BD14B00440CC
:20180000C096FF1FFC9AFF1FD439002008B5444B1B78012B3DD1434B1B78002B28D072B6EE
:20182000404B1B7813F0010F07D03F4B19683F4A12680A403E490A601A603A4B1B7813F0C2
:20184000020F07D03B4B1968384A52680A4038494A601A60334B1B7813F0040F07D0364BEF
:201860001968324A92680A4031498A601A6062B6324BDB68B3F1384F47D0304B304A1A60C0
:201880004FF03842DA604FF078421A612D4A1A603BE0244B1B78002B28D072B6214B1B7889
:2018A00013F0010F07D0204B1968204A12680A401F490A601A601B4B1B7813F0020F07D0F4
:2018C0001C4B1968194A52680A4019494A601A60144B1B7813F0040F07D0174B1968134A14
:2018E00092680A4012498A601A6062B6134BDA68154B9A4209D0114B114A1A60124ADA6051
:2019000002F180421A610F4A1A60104B1B7813B10020FFF73FFF0F20002118F09BFC08BD0A
:20192000509CFF1FF439002080E100E0DC390020E839002084E100E088E100E000C0024009
:2019400001401F0000001F80000001BAA83900204FF41072034B1A604FF4807203F57F6330
:201960001A60704714B00440F8B512480EF03AFD84B20020FFF70EFF9CB10E4F0E4E402C27
:20198000B4BF25464025EDB2384629460EF04AFD014630462A4611F01DFA641BA4B2002CED
:2019A000EDD1054811F0AEF8FFF7D2FF01480EF05FFCF8BD383900205C9BFF1F08B50122D1
:2019C000114B1A60114B1B78C3B113F0010F03D00F4B1A680F4B1A600C4B1B7813F0020F3A
:2019E00003D00B4B5A680C4B1A60084B1B7813F0040F03D0064B9A68084B1A60084B1B7856
:201A00000BB1FFF7A5FF08BD84F00F40F4390020E839002000E100E004E100E008E100E00B
:201A2000A839002010B50120FFF7B4FE054C204612F0CCF82479640804FB00F4FFF788FF21
:201A4000204610BDC096FF1F10B50020FFF7A2FE064810F0F5FA0446054B1860FFF778FFA8
:201A600004F2FF70C0F3CF2010BD00BF8C9CFF1F749CFF1F30B58DB0FFF7E6FF044620B93F
:201A80001748184919F0BEFD28E0FFF7CBFF810A04A80A2219F0DCFD684604A919F0A6FDAE
:201AA0006846114919F036FE054608A8611E0A2219F0CEFD284608A919F022FE0B4919F0C2
:201AC00029FE0146064819F087FD08A819F024FD684619F021FD04A819F01EFD0DB030BD94
:201AE0000C37002074C602007CC6020080C60200F8B50020FFF74EFE974C204604F1090164
:201B00001422022310F0AAF9204610F099FA934B186000F2FF73C3F3CF23914A1380102BC3
:201B200003D802218F4A11701FE0202B03D804218C4A117019E0402B03D80821894A1170F0
:201B400013E0802B03D81021864A11700DE0B3F5806F03D82021834A117006E0B3F5004FBF
:201B600094BF402180217F4A1170B3F5807F8CBF3F2120217C4A1170102B03D802227B4BEC
:201B80001A7027E0202B03D80422784B1A7021E0802B03D80822754B1A701BE0B3F5FC7F02
:201BA00003D81022714B1A7014E0B3F57C7F03D820226E4B1A700DE0B3F5FC6F03D840229E
:201BC0006A4B1A7006E0B3F57C6F94BF8022FF22664B1A704FF48072654B1A60614B1F785A
:201BE000A0F58072B2FBF7F202F20111090A614B1960490001F1A104B4F5807F16D84FF4D1
:201C000080731C1B04F180005B4B186001205B4B188081345A480460213107FB0212594BE1
:201C20001A6047F6A7739A4218D91BE04D4B1F784FF4C073C21AB2FBF7F202F201152D0AB3
:201C4000690001F1A10403F18006A34204D34848036048480560D4E73346EBE701224A4BA8
:201C60001A7006E0B2F5803F34BF04220622464B1A70FFF707FA0120FFF7C4F94349EB23CD
:201C80000B7000234B7090238B704B1E073120220133DA708B42FBD13C4C0027E772022316
:201CA0002373304B1B786373344B1B88E3810223237423694FF4007262F317232361F823F9
:201CC00063752C4E3368E382274B1B782383274B1B786383284D2B68E3612A4B1B68236253
:201CE000802384F82430292384F82630FFF75AFAC4F82700264B03CBC4F82B00C4F82F1005
:201D000019889B78A4F8331084F83530214B03CBC4F83600C4F83A102868FFF787F9184DB2
:201D20002B68134A11681846C91AFFF71DFA3846FFF768F94FF6F87323804FF6FF7363802A
:201D40002868FFF773F930682B681844FFF76EF9FFF7FEFDF8BD00BF8C9CFF1F749CFF1FD4
:201D6000689CFF1F859CFF1F29370020B89CFF1F6C9CFF1F3C9BFF1F7C9CFF1FAE96FF1F5D
:201D8000449BFF1F709CFF1FAC96FF1F343700206487FF1F8087FF1F08B50220002118F0FB
:201DA0008BFA02200649032218F0DEF90520002118F082FA05200349022218F0D5F908BD2F
:201DC00031300000D91D000008B5022018F014FA052018F011FA08BD2DE9F04186B02C4BC6
:201DE0001B7813F0FF0F50D12A4B1B7813F0FF0F4BD131E0284C04F11007DFF8A08094F8D5
:201E000024301BB1384613F075FB02E0204613F0C3FD78B1236A01221A70B5F57A7F29DD9A
:201E200008E005241D4F204618F038FA10B9B5F57A7F25DD194B1B680593059B9E1BB6F594
:201E40007A7F03DA0122124B1A701EE0FFF7BCFF0122134B1A7018E0104B1A680192019EE1
:201E60001B680293029DAD1B0B4B93F82430002BC0D1D6E7D8F800300393039DAD1BBEE792
:201E80003B680493049DAD1BCDE706B0BDE8F081C695FF1F1C370020CC95FF1FA43A0020B6
:201EA000B096FF1F10B5054C20460EF00BF920460EF0E4F8003018BF012010BD9C9CFF1FB5
:201EC00070B584B0294B1A680092009C1B680193019D2D1B254EFFF7E5FF40B3B5F57A7FA5
:201EE0002EDD24E0224B1B78B72B03D1B422204B1A7038E01F4B1B7813F0FF0F08D11C4BEC
:201F00001B78B62B21D103E0FFF7CCFF0028FBD1184B1B7813F0FF0F25D0154B1B78B52BF4
:201F20001AD120E0FFF7BEFF0028FBD11BE00F4A12680392039B1B1BB3F57A7FD2DBD9E7CA
:201F400033680293029D2D1BC5E7B522084B1A700122084B1A70D7E7B622054B1A70002278
:201F6000044B1A70DEE704B070BD00BFA43A00207087FF1F1C37002008B51620002118F081
:201F800069F908BD08B51620012118F063F908BD08B5162018F082F9003018BF012008BD79
:201FA000034B1B7843FA00F000F00100704700BFAF9CFF1F044B012202FA00F0197821EA49
:201FC00000021A70704700BFAF9CFF1F10B5694C23685B682046684918229847204619F02F
:201FE000C3F90020FFF7DCFF48B123685B682046624910229847204619F0B6F909E05D4C1B
:2020000023685B6820465E4914229847204619F0ABF90120FFF7C4FF50B1564C23685B6872
:20202000204658490C229847204619F09DF909E0504C23685B68204653491022984720463B
:2020400019F092F90220FFF7ABFF50B1494C23685B6820464D4912229847204619F084F94B
:2020600009E0444C23685B682046494916229847204619F079F90320FFF792FF50B13D4C75
:2020800023685B682046434911229847204619F06BF909E0374C23685B6820463E4915223D
:2020A0009847204619F060F90420FFF779FF50B1304C23685B68204638490C2298472046C2
:2020C00019F052F909E02B4C23685B682046344910229847204619F047F90520FFF760FFE1
:2020E00050B1244C23685B6820462E4912229847204619F039F909E01E4C23685B68204689
:20210000294916229847204619F02EF90620FFF747FF50B1174C23685B6820462349122286
:202120009847204619F020F909E0124C23685B6820461F4916229847204619F015F907201A
:20214000FFF72EFF50B10B4C23685B682046194910229847204619F007F910BD054C2368C5
:202160005B682046144914229847204619F0FCF810BD00BFAC3B002084C60200A0C602001A
:20218000B4C60200CCC60200DCC60200F0C6020004C702001CC7020030C7020048C7020017
:2021A00058C702006CC7020080C7020098C70200ACC70200C4C70200D8C7020008B5114B63
:2021C0001B787BB11048872116F054FD0F4B93F824301BB101220D4B1A7408BD01220B4B9D
:2021E0005A7008BD08482D2116F044FD074B93F824301BB10022054B1A7408BD0022034B39
:202200005A7008BDAC9CFF1F809BFF1FCC95FF1F10B582B0094C2046012116F055FEFFF7EE
:20222000CDFF074B2360812017F0C8FCC82809D18120002117F0D8FC97E200BF809BFF1FB9
:202240004C9EFF1FAC4C0A230093204619461A4613F0B2FB20464FF4784114F0A3FBA74BF3
:202260001B78002B28D072B6A44B1B7813F0010F07D0A34B1968A34A12680A40A2490A609F
:202280001A609E4B1B7813F0020F07D09F4B19689C4A52680A409C494A601A60974B1B788A
:2022A00013F0040F07D09A4B1968964A92680A4095498A601A6062B6964BDB68B3F1384FFE
:2022C0000AD0944B944A1A604FF03842DA604FF078421A61914A1A60874B93F8CF301B04B6
:2022E00043F0004343F02A038A4A5363D36A13F0F00F18BF916B03F47043B3F5405FF5D8AE
:202300007D4B93F8CE301B0443F0104343F00A03804A5363D36A13F0F00F18BF916B03F4FE
:202320007043B3F5405FF5D8734B93F8CE301B0443F0104343F00A03764A5363D36A13F0F4
:20234000F00F18BF916B03F47043B3F5405FF5D8694B93F8CF301B0443F0004343F02B03B9
:202360006C4A5363D36A13F0F00F18BF916B03F47043B3F5405FF5D85F4B93F8CE301B04CF
:2023800043F0104343F00A03624A5363D36A13F0F00F18BF916B03F47043B3F5405FF5D845
:2023A000554B93F8CE301B0443F0104343F00A03584A5363D36A13F0F00F18BF916B03F4AE
:2023C0007043B3F5405FF5D84B4B93F8CF301B0443F0004343F02E034E4A5363D36A13F08F
:2023E000F00F18BF916B03F47043B3F5405FF5D8484AD36A002BFCDA464B9A6B3E4A92F8D5
:20240000CE20120442F000425A631A464FF2F001D36A13F0F00F18BF906B0B42F8D1364A4E
:2024200092F8CE10090441F000413A4B596392F8CE10090441F00041596392F8CE20120443
:2024400042F000625A631A46D36A13F0805FFBD0304B4FF08052DA629A6B996B986B9A6B08
:20246000264B1B78C3B113F0010F03D0264B1C682B4B1C60214B1B7813F0020F03D0224BC4
:202480005C68284B1C601D4B1B7813F0040F03D01D4B9C68244B1C6001F0F80100F0FC0375
:2024A000DB0043EA0123C2F3C40213431BB213F5006F00F05A814FF47A7017F071FF0E4C12
:2024C0000A230093204619461A4613F075FA20464FF4784114F066FA084B1B78002B43D0BB
:2024E00072B6064B1B7813F0010F22D0044B1968044A12680A4019E0809BFF1FF43900206A
:2025000080E100E0DC390020E839002084E100E088E100E000C0024001401F0000001F8075
:2025200000E100E004E100E008E100E090490A601A60904B1B7813F0020F07D08E4B1968DC
:202540008E4A52680A408A494A601A60894B1B7813F0040F07D08A4B1968884A92680A40E8
:2025600083498A601A6062B6864BDB68B3F1384F0AD0844B844A1A604FF03842DA604FF0B1
:2025800078421A61814A1A60814B93F8CF301B0443F0004343F02A037A4A5363D36A13F0BC
:2025A000F00F18BF916B03F47043B3F5405FF5D8774B93F8CE301B0443F0104343F00A035B
:2025C000704A5363D36A13F0F00F18BF916B03F47043B3F5405FF5D86D4B93F8CE301B045B
:2025E00043F0104343F00A03664A5363D36A13F0F00F18BF916B03F47043B3F5405FF5D8DF
:20260000634B93F8CF301B0443F0004343F02B035C4A5363D36A13F0F00F18BF916B03F427
:202620007043B3F5405FF5D8594B93F8CE301B0443F0104343F00A03524A5363D36A13F02F
:20264000F00F18BF916B03F47043B3F5405FF5D84F4B93F8CE301B0443F0104343F00A03E2
:20266000484A5363D36A13F0F00F18BF916B03F47043B3F5405FF5D8454B93F8CF301B0409
:2026800043F0004343F02E033E4A5363D36A13F0F00F18BF916B03F47043B3F5405FF5D852
:2026A000384AD36A002BFCDA364B9A6B384A92F8CE20120442F000425A631A464FF2F00101
:2026C000D36A13F0F00F18BF906B0B42F8D1304A92F8CE10090441F000412A4B596392F8B7
:2026E000CE10090441F00041596392F8CE20120442F000625A631A46D36A13F0805FFBD098
:20270000204B4FF08052DA629A6B9A6B986B996B184B1B78C3B113F0010F03D0144B1C68BD
:202720001C4B1C60134B1B7813F0020F03D0104B5C68194B1C600F4B1B7813F0040F03D009
:202740000B4B9C68154B1C6002F0F80200F0FC03DB0043EA0222C1F3C40313431BB213F596
:20276000006F02D00120FFF725FC02B010BD00BFE8390020F439002084E100E0DC3900209A
:2027800088E100E000C0024001401F0000001F80809BFF1F00E100E004E100E008E100E067
:2027A00030B583B0054631B918487F210A460B4614F0A4F80FE0154C20467F210A460B4694
:2027C00014F0AAF8EA230093204606210A464FF49D7314F005FD0D4C20460D4915F0DAFC8D
:2027E00020467F210A460B4614F0B2F820464FF6FF7114F09FF8002300932046294642F20F
:202800000E726E2315F0F8FA03B030BD809BFF1F74360300F8B5334C206817214FF0FF32CE
:202820000CF098FF0546206800210CF073FF064628461CF043FC4FF07F511CF093FC2A4981
:202840001CF090FC054630461CF034FC014628461CF03CFD0546206828214FF0FF320CF061
:2028600079FF0746206800210CF054FF064638461CF024FC4FF07F511CF074FC1A491CF0AB
:2028800071FC044630461CF015FC014620461CF01DFD0446284615491CF0F8FD88B1204665
:2028A0004FF07E511CF006FE58B111480021FFF777FF4FF47A7017F073FD0520FFF77AFBD7
:2028C00005E020464FF07E511CF0F4FD20B1284608491CF03FFB05462846FDF713FF064BBC
:2028E0001870F8BD0037002033335340000080BFF0C70200CDCC4C3D1D37002010B51E4C8E
:2029000020464FF4E1310DF0DDFC20465F210DF033FD20460DF05EFD10BB4FF47A7017F056
:202920003FFD20460DF094FC20464FF4E1310DF0C9FC20465F210DF01FFD4FF47A7017F0B8
:202940002FFD20460DF046FD50B90C480021FFF727FF4FF47A7017F023FD0220FFF72AFB7A
:20296000054C20460DF084FC20460DF0E9FC10B10020FEF76DF910BD3839002010C8020067
:2029800070B582B0012002A901F8010DFEF76CFA64240A2501260EE030460DF10701FEF775
:2029A00063FA631E13F0FF0405D108480021FFF7F7FE002008E0284617F0F2FC9DF80720DA
:2029C000002AE9D0024B186802B070BD30C802002C37002070B582B002A9012301F8013D8E
:2029E0000020FEF741FA64240A2500260EE030460DF10701FEF738FA631E13F0FF0405D1BC
:202A000008480021FFF7CCFE002008E0284617F0C7FC9DF80720002AE9D0034B186802B026
:202A200070BD00BF54C80200349BFF1FF0B583B00B271E4C2A260025204631460EF070FA71
:202A400023681B6820462946984723681B6820460421984723681B6820460221984723683B
:202A60001B682046422198472169627B0095204601230EF02FFD90B10A2017F091FC013F3C
:202A800017F0FF07D8D10A480021FFF789FE4FF47A7017F085FC0620FFF78CFA03E04FF413
:202AA000FA6017F07DFC03B0F0BD00BFC039002078C8020070B58CB0344C20462A210EF032
:202AC0002FFA23681B6820460021984723681B6820460421984723681B6820464821984725
:202AE00023681B6820461C2198472169627B00230093204601230EF0EDFC58B12448002122
:202B0000FFF74EFE4FF47A7017F04AFC0620FFF751FA38E01D482A210EF002FA0224204644
:202B2000FEF752FA10F0010FF9D10620FEF74CFA0346164C2069617B012500950026019691
:202B40002A220EF0DBFC204603A9202218F076FC2169627B009620462B460EF0BBFC03A852
:202B60000C491DF02DFF10B10B4B1E700BE003A80A491DF025FF18B10122074B1A7002E05E
:202B80000222054B1A700CB070BD00BFC039002094C80200B8C80200509CFF1FC0C8020002
:202BA0002DE9F04F83B04FF47A7017F0F9FBFFF781FF3F4B1B78022B05D001223D4B1A709B
:202BC000FFF734FF02E002223A4B1A703A4B1B680093009A394B1A600023394A137000213A
:202BE000384A11600121384A1170384A1370FEF70DFEDFF8E8C04FF0010BDE46344D354BC9
:202C000005F1A304DFF8D8A0DFF8AC90DFF8AC80CCF800E02A78196841F4806119604FF01D
:202C20000041D9625A6329464FF000474878DA6A002A22DBFBE7DA6A002A2ADBFBE7D9F833
:202C4000002001920199D8F800208A1AB2F57A7FDED3FEF7B3FE1E4B1B7803F00F030F2B61
:202C600022D11D480021FFF79BFD4FF47A7017F097FB0720FFF79EF916E09A6B1E6846F418
:202C800080661E60DF62586301F8012BA142CDD1D1E79A6B85F8A320CAF800B02A7802F02B
:202CA0000F020F2AD5D1CAE703B0BDE8F08F00BF509CFF1F27370020A43A0020809CFF1F1D
:202CC000989CFF1FC095FF1FB19CFF1F409BFF1F0896FF1F00C00240C8C8020088F00F40B4
:202CE00084F00F4010B52848284918F08BFC284B1B78002B44D00020FEF74CFD254901F5D5
:202D00008C6001F26C41142202230FF0A7F800B3204C04F23C400FF0F5FE2046012110F023
:202D2000A3FF20B92046002110F09EFF88B1194901F23C400FF07EFC034650B1154A92F83E
:202D40003C2412F0700F1DBF1349144A116000235BB913480021FFF723FD4FF47A7017F08E
:202D60001FFB0420FFF726F906E00E4908460931142202230FF072F8FEF7EAFDFEF77AFE2E
:202D8000094A0A4B1A6010BD0C370020E4C80200A8390020C096FF1FFC9AFF1FD4390020DD
:202DA000F0C802008C9CFF1FAD060000D839002038B513480121FFF7F3FC4FF47A7017F0AC
:202DC000EFFAFFF7D9F80F4C04F1100594F824301BB1284612F08EFB02E0204612F0DCFD16
:202DE0000028F3D0074B1B6A012119700648FFF7D7FCFFF7C7F84FF47A7017F0D1FA38BDA6
:202E000008C90200CC95FF1F2CC9020010B511480EF038FFB8B1104B1B78B3B9002010BD66
:202E2000FEF7D2FFFFF7C4FFFEF7B6FF09480EF047FF012010BD0024084B1C7005480EF098
:202E40003FFF204610BD002010BD044B1B78002BF1D1E5E7BC9CFF1FC895FF1F489BFF1F87
:202E600010B50446124B1B7883B10420002117F0F1F900220E4B1A70C4B10E480121FFF701
:202E80008FFC4FF47A7017F08BFA10BD0420012117F0E0F90122064B1A703CB1064811466B
:202EA000FFF77EFC4FF47A7017F07AFA10BD00BF6836002040C9020054C9020010B51F4B57
:202EC0001B78002B37D10020FEF764FC1C4901F58C6001F26C41142202230EF0BFFF00B306
:202EE000174C04F23C400FF00DFE2046012110F0BBFE20B92046002110F0B6FE88B110490C
:202F000001F23C400FF096FB034650B10C4A92F83C2412F0700F1DBF0A490B4A116000238F
:202F200053B90A480021FFF73BFC4FF47A7017F037FA002300E00123184610BDA83900202D
:202F4000C096FF1FFC9AFF1FD439002068C9020010B582B01548164B03621030802112F0EC
:202F6000F3FA20B10122114B83F824201BE00F4C204612F04DFB94F82430A3B968462146FE
:202F800012F0E4FCBDF9003013B9BDF9023053B108480021FFF704FC4FF47A7017F000FA1C
:202FA0000320FFF707F802B010BD00BFCC95FF1F489BFF1F80C9020038B5FA2016F0FEFDE8
:202FC000C9282DD0174B1B7873B9002425462046294616F009FE0134B4F5006FF7D1124802
:202FE0000021FFF7DDFB16E0C82810D8C72809D8002425462046294616F0F6FD0134B4F509
:20300000006FF7D108480021FFF7CAFB03E007480021FFF7C5FBFA20C92116F0E5FDFEE773
:2030200038BD00BFA8390020A0C90200C4C9020070B584B0204B1B7813F0FF0F06D0022081
:2030400017F0DAF800221C4B1A7033E01B4B1A680092009C1B680193019D2D1B174EFEF704
:2030600021FFC8B1B5F57A7F1FDD15E00222144B1A701FE0134B1B7843B113480021FFF7C0
:203080008FFB4FF47A7017F08BF913E0FEF79CFE0122094B1A700DE0084A12680392039B7F
:2030A0001B1BB3F57A7FE5DAE0E733680293029D2D1BD4E704B070BD1C370020A43A00208F
:2030C000C795FF1F31370020ECC9020030B583B0054631B11A487F210A460B4613F00EFC42
:2030E0000FE0174C20467F210A460B4613F014FCEA230093204606210A464FF49D7314F0F0
:203100006FF80F4C20460F4915F044F820467F210A460B4613F01CFC20464FF6FF7113F00E
:2031200009FC002300932046294642F20E72192314F062FE2046044915F02CF803B030BD2F
:20314000809BFF1F902A03007436030008B5114B1B78022B05D110484FF4784113F0EAFBE1
:2031600008BD012B04D10C48002113F0E3FB08BD032B05D108484FF4806113F0DBFB08BD58
:20318000042B05480CBF1F214FF6FF7113F0D2FB08BD00BF1E370020809BFF1F30B583B0D9
:2031A0008A4C20467F210A460B4613F0A7FB2046874914F0EFFF20467F210A460B4613F01B
:2031C000C7FB20464FF6E07113F0B4FB002500952046804942F20E720A2314F00DFE204640
:2031E0007D4914F0D7FF009520467C4942F20E72DC2314F001FE20464FF6FF7113F09AFB06
:203200000095204676493222134614F0F5FD0095204674493222462314F0EEFD00952046F2
:20322000714932225A2314F0E7FD009520466F4932226E2314F0E0FD009520466C4932229E
:20324000822314F0D9FD009520466A493222962314F0D2FD0095204667493222AA2314F091
:20326000CBFD0095204665493222BE2314F0C4FD2846FEF795FE38B1009520466049DC2262
:20328000322314F0B9FD09E0002400944F485D49DC22322314F0B0FD5B4B1C700120FEF7F5
:2032A0007FFE40B10023009348485549DC22462314F0A2FD07E00023009344485149DC22F1
:2032C000462314F099FD0220FEF76AFE40B1002300933E484A49DC225A2314F08DFD09E0BA
:2032E0000024009439484749DC225A2314F084FD464B1C700320FEF753FE40B100230093D8
:2033000032483F49DC226E2314F076FD07E0002300932E483B49DC226E2314F06DFD0420ED
:20332000FEF73EFE40B10023009328483449DC22822314F061FD07E0002300932348314941
:20334000DC22822314F058FD0520FEF729FE40B1002300931D482A49DC22962314F04CFDAD
:2033600007E00023009319482649DC22962314F043FD0620FEF714FE40B1002300931348B6
:203380001F49DC22AA2314F037FD07E0002300930E481C49DC22AA2314F02EFD0720FEF754
:2033A000FFFD40B10023009308481549DC22BE2314F022FD07E00023009304481149DC2279
:2033C000BE2314F019FD03B030BD00BF809BFF1F902A030014CA02007436030024CA020020
:2033E00048CA020058CA020068CA020078CA020088CA020098CA0200A8CA0200B8CA02006D
:20340000C8CA020014C702008A9CFF1F589CFF1F70B5174B1B78FF2B28D0FEF7D7FDFFF7EA
:20342000BDFE144C04F1100594F824301BB1284612F060F802E0204612F0AEFA0028F3D016
:203440000C4B1B6A01221A700A4C04F11006154694F824301BB1304612F04CF802E0204677
:2034600012F09AFA10B1236A1D70F1E770BD00BFAF9CFF1FCC95FF1F30B583B00546104C70
:203480002046104914F086FE20464FF6FF7113F051FA20467F210A460B4613F059FA02235A
:2034A0000093302301932046294642F20E72502314F078FD2046044914F06CFE03B030BD5C
:2034C000809BFF1F902A03007436030070B506460D4608460D491BF045FE1CF009F80C4C2E
:2034E00084FB0034C217C2EB6414642202FB140428461BF0FDFF02463046064984EAE47339
:20350000A3EBE4731CF09AFE70BD00BF0000C8421F85EB51D0CA020070B584B0244E254878
:20352000314616F061FA244C2046314614F032FE2046FF210A460B4613F0E0F920461F4961
:2035400014F028FE2046FF210A460B4613F000FA2046002113F0EEF995230093184B01936A
:20356000184B029320465A2123228C2312F0D0FC002500952046144942F20E72C22314F096
:203580003BFC2046314614F005FE009520460F4942F20E720A2314F02FFC009520460C495D
:2035A00042F20E72DC2314F027FC04B070BD00BF7436030064340020809BFF1F902A030036
:2035C000CC5A02005CB40200D8CA0200E0CA0200F0CA020000B58BB00D4B1B680293029AA9
:2035E0000C4B1B68D21A0C4BA3FB0212920903A80A49C2F13C021CF021FE00230093084841
:2036000003A92D22C82314F0F7FB0BB05DF804FBA43A0020809CFF1FD34D621010CB020018
:20362000809BFF1F10B582B00020FFF7F3F8124B19784BB2B3F1FF3F14D0104C0323009393
:2036400020230193204649B24FF48C72002314F0A9FC00230093204609494FF49B7214F063
:20366000CBFB06E00023009304480649F02214F0C3FB02B010BD00BF1D370020809BFF1F8E
:2036800028DB02002CCB02002DE9F04182B03A4B1B79002B36D010F067FE0146364D4FF0FB
:2036A0000208CDF800803027019728460522002314F078FC314E0024009428463146172247
:2036C000234614F099FB10F059FE0146CDF80080019728461B22234614F064FC00942846F4
:2036E00031462D22234614F087FB10F051FE0146042300932023019328463122234614F0C0
:2037000051FC35E010F030FE01461B4D4FF00208CDF800803027019728460522002314F031
:2037200041FC164E00240094284631461422234614F062FB10F022FE0146CDF80080019707
:2037400028461B22234614F02DFC0094284631462A22234614F050FB10F01AFE0146042325
:2037600000932023019328463122234614F01AFC02B0BDE8F08100BF809BFF1FD0DA02002F
:2037800030B58BB0204B1B799BB1204B1B78002B37D002A81E4917F029FF002300931A4836
:2037A00002A9CF22E42314F0DDFB02A817F0B4FE27E0164B1B78ABB9134C00250095204649
:2037C0001449DC22E42314F017FB0095202301932046C9214FF49172E42314F0E3FB0B4B30
:2037E0001B7873B106A80A4917F000FF00230093054806A9E622E42314F0B4FB06A817F0E2
:203800008BFE0BB030BD00BF809BFF1FA83900200C37002038CB02002DE9F04182B0384B1A
:203820001B79002B34D010F081FD0146344C022600963025019520460522E42314F0B2FB92
:20384000304F4FF00008CDF80080204639461722E42314F0D1FA10F073FD01460096019586
:2038600020461B22E42314F09DFBCDF80080204639462D22E42314F0BFFA10F06BFD014616
:203880000096019520463122E42314F08BFB33E010F04CFD01461A4C022600963025019500
:2038A00020460522E42314F07DFB164F4FF00008CDF80080204639461422E42314F09CFA4B
:2038C00010F03EFD01460096019520461B22E42314F068FBCDF80080204639462A22E423AC
:2038E00014F08AFA10F036FD01460096019520463122E42314F056FB02B0BDE8F08100BFFE
:20390000809BFF1F44CB020030B583B0194C20467F210A460B4612F0FFFFEA230093204633
:2039200006210A464FF49D7313F05AFC20469921A222A32312F0F0FFB425009520460621CE
:2039400024224FF49D7312F073F92046002112F0F1FF2046062124224FF49D7313F0F0FAD4
:20396000204606212A464FF49D7313F0E9FA03B030BD00BF809BFF1FF0B585B01F4C2046CE
:2039800015F0EEFD20461E4916F02EF84D2700971C4B0193002502950126039620460F2126
:2039A0002D22262315F01AFC0097174B019302950396204640F20B112D22262315F00EFC3C
:2039C00028230093114B01930295039520460F21BC22782315F002FC232300930C4B019314
:2039E0000295039520465F218422822315F0F6FB204615F091FD05B0F0BD00BF643400209F
:203A0000902A030048CB02004CCB020050CB020000C7020030B583B005460D4C20460D495D
:203A200014F0B8FB20467F210A460B4612F090FF20464FF6FF7112F07DFF002300932046E2
:203A4000294642F20E720E2314F0D6F903B030BD809BFF1F902A030030B583B00546124CE8
:203A600020464FF6FF7112F065FF6F230093204642213A2240F2011312F0DAF820464FF6B6
:203A8000FF7112F077FF2046FF216A22002312F043FF002300932046294642F20E724D2316
:203AA00014F0AAF903B030BD809BFF1FF0B585B000284AD1FFF728FF3848FFF7ABFF384CA8
:203AC00020464FF6FF7112F035FF20469921A222A32312F03DFF2046324914F05BFB00254D
:203AE00000952046304942F20E723F2314F084F9009520462D4942F20E72602314F07CF99A
:203B00002B4E304615F02CFD2A4F3046394615F06BFF28230093284B019302950395304621
:203B20005A21BC228C2315F059FB304615F0F4FC2046394614F02EFB009520461F4942F210
:203B40000E728C2314F058F926E0154C20467F210A460B4612F0D2FE2046164914F01AFB23
:203B600020467F210A460B4612F0F2FE20464FF6FF7112F0DFFE002500952046074942F20E
:203B80000E72642314F038F9009520460B4942F20E728C2314F030F905B0F0BD58CB020083
:203BA000809BFF1F7436030068CB020088CB020064340020902A0300ACCB0200B4CB020026
:203BC00070B584B0FFF7A0FE3848FFF723FF384C20464FF6FF7112F0ADFE364E20463146B3
:203BE00014F0D8FA20469921A222A32312F0B0FE002500952046304942F20E72422314F0DF
:203C0000FBF820462D4914F0C5FA20467F210A460B4612F09DFE00952046294942F20E72AD
:203C2000C92314F0E9F8274C204615F099FC2046314615F0D9FE37260096234B01930295FB
:203C4000039520460F216A228C2315F0C7FA00961E4B0193029503952046A5216A228C230C
:203C600015F0BCFA204615F057FC194C04F1100594F824301BB1284611F03CFC02E02046C1
:203C800011F08AFE0028F3D0236A012119700D48002215F099FC012802D00028E8D101E0AA
:203CA000012000E0002004B070BD00BFC0CB0200809BFF1F902A0300D0CB02007436030076
:203CC000DCCB02006434002000CC020004CC0200CC95FF1F08B5012808D0022808D0064B53
:203CE000064A00280CBF1046184602E0044800E00448FFF7B1FE08BD28D2020008CC020037
:203D000014CC020020CC020008B5042804D8DFE800F00D0507090B00064808E0064806E0C0
:203D2000064804E0064802E0064800E00648FFF793FE08BD28D2020034CC02003CCC020051
:203D400040CC020048CC02002CCC020030B583B0FFF7DAFD2F48FFF75DFE2F4C2046FF2197
:203D60006A22002312F0D8FD6F23009320464121392240F2011313F0E3FBFFF7FDFD274BEC
:203D80001878FFF7C1FF264C04F1100594F824301BB1284611F0AEFB02E0204611F0FCFD5B
:203DA0000028F3D0236A012119701E48002215F00BFC032808D1194B19781B4B19708A20BA
:203DC00015F012FF012022E002281FD050B9134B1B781BB1013B114A137012E004220F4B3F
:203DE0001A700EE001280CD10C4B1B78032B03D801330A4A137004E0042B02D10022074BED
:203E00001A70064B1878FFF77FFFBFE7002003B030BD00BF50CC0200809BFF1FC495FF1FD0
:203E2000CC95FF1F64340020F495FF1F08B5012808D0022808D0064B064A00280CBF1046FA
:203E4000184602E0044800E00448FFF705FE08BD28D2020060CC02006CCC020050CE020068
:203E600008B512280BD8DFE800F0300C0E10121416181A1C1E20222426282A2C2E0015481A
:203E800024E0154822E0154820E015481EE015481CE015481AE0154818E0154816E0154852
:203EA00014E0154812E0154810E015480EE015480CE015480AE0154808E0154806E01548B2
:203EC00004E0154802E0154800E01548FFF7C4FD08BD00BF28D202007CCC020088CC02004E
:203EE00094CC02009CCC0200A8CC0200B4CC0200C0CC0200C8CC0200D4CC0200DCCC02008E
:203F0000E8CC0200F0CC0200F8CC020000CD020008CD020010CD020018CD020024CD020008
:203F200074CC020008B5012808D0022808D0064B064A00280CBF1046184602E0044800E029
:203F40000448FFF789FD08BD28D202002CCD020034CD02003CCD020070B582B0334B1E7864
:203F6000FFF7D2FC3248FFF755FD324C2046FF216A22002312F0D0FC6F230093204641214D
:203F8000392240F2011313F0DBFAFFF7F5FC3046FFF7C8FF284C04F1100594F824301BB164
:203FA000284611F0A7FA02E0204611F0F5FC0028F3D0236A012119702048002215F004FB06
:203FC000032818D11EB90020FCF742FE04E02220FCF73EFE022E03D00022194B1A7002E059
:203FE0000122174B1A70114B1E707120314615F0FBFD012017E0022814D018B96EB1013E6E
:20400000F6B20BE0012809D1012E02D80136F6B204E0022E08BF002600E002263046FFF7AD
:2040200081FFBAE7002002B070BD00BF3137002048CD0200809BFF1FCC95FF1F6434002092
:204040003037002008B5092868D8DFE800F0050E172029323B444E5C384B1878384B394A0D
:2040600000280CBF1046184665E0374B1878374B374A00280CBF104618465CE0354B18784C
:20408000354B364A00280CBF1046184653E0344B1878344B344A00280CBF104618464AE069
:2040A000324B1878324B334A00280CBF1046184641E0314B1878314B314A00280CBF1046E5
:2040C000184638E02F4B18782F4B304A00280CBF104618462FE02E4B1B78022B20D02D4A16
:2040E0002D48012B08BF104625E02C4B1B78012B18D0022B18D0032B18D0294A2948042BA1
:2041000008BF104617E0284B1B788BB1012B11D0264A2748022B08BF10460CE025480AE0D0
:20412000254808E0254806E0254804E0254802E0254800E02548FFF78FFC08BDBD96FF1FC6
:20414000BCCD020054CD020004370020C8CD020060CD0200789CFF1FD0CD02006CCD020084
:204160008A9CFF1FD8CD020078CD020075360020E0CD020084CD020074360020E8CD0200BF
:204180008CCD020028370020F4CD020098CD0200B09CFF1FA4CD02000CCE02001E370020ED
:2041A00030CE020024CE020025370020D4CC020054CE020028D2020000CE020018CE020015
:2041C000B0CD02003CCE020048CE020094CC0200F0B585B00546824C2046002112F0AAFBB9
:2041E000EB230093204605210A4640F23B1312F0F7FF20467F210A460B4612F08DFBEA238C
:204200000093204606210A464FF49D7312F0E8FF744815F0A5F9002D27D1724E50240094A6
:20422000714B0193714B029300270397304617211C22234615F000F800946D4B01936D4B32
:2042400002930397304678211C22234614F0F4FF0094694B0193694B029303973046D92153
:204260001C22234614F0E8FF53E0012D27D15D4D50240094624B0193624B0293002603965F
:20428000284617211C22234614F0D6FF00945E4B01935E4B02930396284678211C222346A2
:2042A00014F0CAFF00945A4B01935A4B029303962846D9211C22234614F0BEFF63E0022D4F
:2042C00027D1484D50240094534B0193534B029300260396284617211C22234614F0ACFF29
:2042E00000944F4B01934F4B02930396284678211C22234614F0A0FF00944B4B01934B4B8F
:20430000029303962846D9211C22234614F094FF39E0032D37D150230093454A0192454AC1
:204320000292002203922F4817211C2214F084FF414B1B786BB950230093404A0192404ACE
:20434000029200220392274878211C2214F074FF0CE0502300933B4A01923B4A0292002210
:204360000392204878211C2214F066FF50230093364A0192364A0292002203921948D921C1
:204380001C2214F059FF174D50240094314B0193314B029300260396284617218422234682
:2043A00014F04AFF00942D4B01932D4B02930396284678218422234614F03EFF0094294B0B
:2043C0000193294B029303962846D9218422234614F032FF284615F09FF805B0F0BD00BFD0
:2043E000809BFF1F6434002084EB02005CBD02002C870200C44E0200ACFA02002CE90200B8
:204400008C9C0200745402009C060300C4F1020074A80200AC9302007C0F0300849C02003D
:204420001CB702008C030300E44502006CA802006CF402007CEB02003137002064BD02005E
:2044400094060300FC1B030074EB0200BC150300845402006C8D0200CC4E02008C5402009D
:2044600054B10200ECE202007C540200F0B583B007460E46FEF76AFE234C20464FF0FF3179
:2044800012F078FA2046214913F084FE0025009520461F49FA220A2313F0AEFC00952046DA
:2044A0001C4905220A2313F0A7FC012F0ED00095204619490A226E2313F09EFC00952046DD
:2044C000164940F227126E2313F096FC0E4C00250095204612490522D22313F08DFC0095DA
:2044E00020461049DC22D22313F086FC20460E4913F050FE00952046314642F20E720C2322
:2045000013F07AFC03B0F0BD809BFF1F902A030060CE020068CE020048CB02004CCB020036
:2045200070CE020078CE0200743603002DE9F0418EB006465E480021FEF7C8FD5D4D2846DC
:204540004FF6FF7112F0F6F95B4F2846394613F021FE28467F210A460B4612F0F9F9002435
:2045600000942846554942F20E72422313F044FC00942846524942F20E72692313F03CFC27
:20458000009428464F4942F20E727D2313F034FC4D4D284614F0E4FF28464C4915F024FAE5
:2045A0004FF03708CDF80080494B01930294039428460F21A0228C2314F010FECDF800807D
:2045C000444B0193029403942846A521A0228C2314F004FE284614F09FFF2846394615F0DE
:2045E00003FA3D4C04F1100594F824301BB1284610F080FF02E0204611F0CEF90028F3D097
:20460000236A012119703048002214F0DDFF012849D132480021FEF7C3F80020FDF7BAF894
:204620002F4831460EF0D2FA06F10E042D4B1868C6F80E001B7923712B4B1B787BB1002375
:204640008DF814308DF8153005A82549324601230EF060FA18B1224831460EF0B7FA234BF1
:204660001868C6F80E001B792371214B1B787BB100238DF814308DF8153005A8184932465F
:2046800001230EF047FA18B1154831460EF09EFAFDF75EF917480021FEF782F84FF47A701D
:2046A00015F07EFE01E000289ED10EB0BDE8F08180CE0200809BFF1F7436030090CE020097
:2046C000B4CE0200D0CE020064340020902A030000CC020004CC0200CC95FF1FECCE020066
:2046E000FC9AFF1FFCCE0200589CFF1F04CF02006C3600200CCF0200F0B585B0424800212F
:20470000FEF7E4FC414D28464FF6FF7112F012F93F4E2846314613F03DFD28467F210A46F9
:204720000B4612F015F9002400942846394942F20E72422313F060FB00942846364942F244
:204740000E72692313F058FB00942846334942F20E727D2313F050FB314D284614F000FFE8
:204760002846304915F040F9372700972E4B01930294039428460F21A0228C2314F02EFDA7
:2047800000972A4B0193029403942846A521A0228C2314F023FD284614F0BEFE2846314670
:2047A00015F022F9224C04F11006012594F824301BB1304610F09EFE02E0204611F0ECF84F
:2047C00010B1236A1D70F1E7194C04F1100594F824301BB1284610F08DFE02E0204611F0C9
:2047E000DBF80028F3D0236A012119700C48002214F0EAFE10B10128E9D101E0012000E0DB
:20480000002005B0F0BD00BF1CCF0200809BFF1F7436030030CF02004CCF020068CF02002D
:2048200064340020902A030004CC020000CC0200CC95FF1F2DE9F04184B00F46904600211D
:20484000FEF744FC3B4C204614F08AFE46250095394B0193002602960396204614213C2242
:204860002B4614F0BBFC0095344B0193029603962046E6213C222B4614F0B0FC0095304B37
:20488000019302960396204614219622822314F0A5FC00952B4B0193029603962046AA21B5
:2048A0009622822314F09AFC204614F035FE3868FEF7E2FD244C04F1100594F824301BB1CA
:2048C000284610F017FE02E0204611F065F80028F3D0236A01221A70164800210A4614F0B7
:2048E00073FE01280BD1002E01DD013E02E00EB908F1FF3657F82600FEF7BEFDDDE768B916
:2049000008F1FF33B34201DD013602E0B34208BF002657F82600FEF7AFFDCEE7022803D0D6
:204920000328CAD1304601E04FF0FF3004B0BDE8F08100BF6434002018D4020088CF020064
:2049400050CB02008CCF0200CC95FF1F10B582B0104C20464FF6FF7111F0ECFFAA230093A4
:20496000204650213222F02311F062F92046002111F0E0FF20464FF6FF7111F0FBFF0023FD
:2049800000932046044942F20E72642313F034FA02B010BD809BFF1F94CF020070B584B0EF
:2049A00001461D48FEF792FB1C4D284614F0D8FD462600961A4B019300240294039428465F
:2049C00014213C22822314F009FC0096154B0193029403942846AA213C22822314F0FEFBA6
:2049E0000096114B019302940394284614219622822314F0F3FB00960C4B01930294039464
:204A00002846AA219622822314F0E8FB284614F083FD04B070BD00BFA4CF0200643400205A
:204A2000ACCF0200B0CF0200B8CF020050CB02002DE9F04784B001466F48FEF747FB6F4D60
:204A4000284614F08DFD462600966D4B0193002402940394284614213C22334614F0BEFB84
:204A60000096684B0193029403942846E6213C22334614F0B3FB0096634B01930294039429
:204A80002846142196224FF48C7314F0A7FB284614F042FD0FF068FCFEF7EEFC5B4C04F144
:204AA000100594F824301BB1284610F023FD02E0204610F071FF0028F3D0236A01211970CC
:204AC0004E48002214F080FD002842D10FF04CFC0028E6DD0FF048FC01281ADD0FF026FCAC
:204AE00081460FF02DFC80460FF034FC07460FF03BFC06460FF042FC82460FF049FCCDF8F5
:204B000000A00190484641463A46731E0FF046FC1AE00FF029FC012816D10FF007FC804607
:204B20000FF00EFC07460FF015FC06460FF026FC81460FF02DFCCDF80090019040463946C8
:204B400032461F230FF02AFC0FF00EFCFEF794FCA7E7012842D10FF007FC1F28A1DC0FF059
:204B600003FC1E281ADC0FF0E1FB81460FF0E8FB80460FF0EFFB07460FF0F6FB06460FF03F
:204B8000FDFB82460FF004FCCDF800A00190484641463A46731C0FF001FC1AE00FF0E4FB68
:204BA0001F2816D10FF0C2FB80460FF0C9FB07460FF0D0FB06460FF0E1FB81460FF0E8FB9B
:204BC000CDF80090019040463946324601230FF0E5FB0FF0C9FBFEF74FFC62E702287FF486
:204BE00060AF0FF055FB15F025FB0020FFF7D6FE04B0BDE8F08700BFACCF02006434002084
:204C000018D4020088CF020050CB0200CC95FF1F2DE9F04784B001467048FEF757FA704D2E
:204C2000284614F09DFC462600966E4B0193002402940394284614213C22334614F0CEFA83
:204C40000096694B0193029403942846E6213C22334614F0C3FA0096644B01930294039436
:204C60002846142196224FF48C7314F0B7FA284614F052FC0FF082FBFEF7FEFB5C4C04F11B
:204C8000100594F824301BB1284610F033FC02E0204610F081FE0028F3D0236A01211970CC
:204CA0004F48002214F090FC002843D10FF066FB0028E6DD0FF062FB01281BDD0FF036FB77
:204CC00081460FF03DFB80460FF044FB07460FF04BFB06460FF052FB82460FF059FB0AF192
:204CE000FF3300930190484641463A4633460FF055FB1AE00FF042FB012816D10FF016FBAB
:204D000081460FF01DFB80460FF024FB07460FF02BFB06460FF03CFB0C23009301904846FC
:204D200041463A4633460FF039FB0FF027FBFEF7A3FBA6E7012843D10FF020FB0C28A0DC78
:204D40000FF01CFB0B281BDC0FF0F0FA81460FF0F7FA80460FF0FEFA07460FF005FB06461E
:204D60000FF00CFB82460FF013FB0AF1010300930190484641463A4633460FF00FFB1AE024
:204D80000FF0FCFA0C2816D10FF0D0FA81460FF0D7FA80460FF0DEFA07460FF0E5FA06468F
:204DA0000FF0F6FA012300930190484641463A4633460FF0F3FA0FF0E1FAFEF75DFB60E754
:204DC00002287FF45EAF0FF063FA15F033FA0020FFF7E4FD04B0BDE8F08700BFB0CF020094
:204DE0006434002018D4020088CF020050CB0200CC95FF1F2DE9F04784B001465048FEF7C3
:204E000065F9504D284614F0ABFB462600964E4B0193002402940394284614213C22334685
:204E200014F0DCF90096494B0193029403942846E6213C22334614F0D1F90096444B0193DB
:204E4000029403942846142196224FF48C7314F0C5F9284614F060FB0FF09AFAFEF70CFB6A
:204E60003C4C04F1100594F824301BB1284610F041FB02E0204610F08FFD0028F3D0236AFE
:204E8000012119702F48002214F09EFB20BB0FF07FFAB0F5FC6FE6DD0FF048FA81460FF004
:204EA0004FFA80460FF056FA07460FF05DFA06460FF064FA82460FF06BFACDF800A001387E
:204EC0000190484641463A4633460FF067FA0FF05FFAFEF7D1FAC6E7012825D10FF058FA9E
:204EE00040F632039842BEDC0FF020FA81460FF027FA80460FF02EFA07460FF035FA06461F
:204F00000FF03CFA82460FF043FACDF800A001300190484641463A4633460FF03FFA0FF0EC
:204F200037FAFEF7A9FA9EE702289CD10FF0B0F915F080F90020FFF731FD04B0BDE8F08752
:204F4000B8CF02006434002018D4020088CF020050CB0200CC95FF1F70B584B001461D4828
:204F6000FEF7B4F81C4D284614F0FAFA462600961A4B0193002402940394284614213C2274
:204F8000822314F02BF90096154B0193029403942846AA213C22822314F020F90096114B42
:204FA000019302940394284614219622822314F015F900960C4B0193029403942846AA2137
:204FC0009622822314F00AF9284614F0A5FA04B070BD00BFC0CF020064340020C8CF0200DA
:204FE000D0CF0200D8CF020050CB02002DE9F04784B001466E48FEF769F86E4D284614F049
:20500000AFFA462600966C4B0193002402940394284614213C22334614F0E0F80096674BAB
:205020000193029403942846E6213C22334614F0D5F80096624B01930294039428461421EB
:2050400096224FF48C7314F0C9F8284614F064FA0FF080F9FEF710FA5A4C04F1100594F80E
:2050600024301BB1284610F045FA02E0204610F093FC0028F3D0236A012119704D480022B2
:2050800014F0A2FA002841D10FF064F90028E6DB0FF060F900281ADD0FF048F981460FF074
:2050A0004FF980460FF056F907460FF05DF906460FF064F982460FF06BF9CDF800A0019029
:2050C000484641467A1E33460FF068F919E00FF041F9B0B90FF02AF980460FF031F9074651
:2050E0000FF042F906460FF049F981460FF050F9CDF800900190404639463B2233460FF01A
:205100004DF90FF027F9FEF7B7F9A8E7012842D10FF020F93B28A2DC0FF01CF93A281ADC55
:205120000FF004F981460FF00BF980460FF012F907460FF019F906460FF020F982460FF050
:2051400027F9CDF800A00190484641467A1C33460FF024F91AE00FF0FDF83B2816D10FF0C2
:20516000E5F880460FF0ECF807460FF0FDF806460FF004F981460FF00BF9CDF80090019070
:2051800040463946002233460FF008F90FF0E2F8FEF772F963E702287FF461AF0FF078F8D0
:2051A00015F048F80020FFF7D7FE04B0BDE8F087D8CF02006434002018D4020088CF020047
:2051C00050CB0200CC95FF1F2DE9F04784B001466F48FDF77BFF6F4D284614F0C1F94626F2
:2051E00000966D4B0193002402940394284614213C22334613F0F2FF0096684B019302949B
:2052000003942846E6213C22334613F0E7FF0096634B0193029403942846142196224FF41F
:205220008C7313F0DBFF284614F076F90FF088F8FEF722F95B4C04F1100594F824301BB1C5
:20524000284610F057F902E0204610F0A5FB0028F3D0236A012119704E48002214F0B4F91C
:20526000002842D10FF06CF80028E6DB0FF068F800281BDD0FF05AF881460FF061F88046F2
:205280000FF068F807460FF06FF806460FF076F882460FF07DF8CDF800A00190484608F18A
:2052A000FF313A4633460FF079F819E00FF048F8B0B90FF03BF880460FF04CF807460FF02D
:2052C00053F806460FF05AF881460FF061F8CDF80090019040463B213A4633460FF05EF8B1
:2052E0000FF02EF8FEF7C8F8A7E7012843D10FF027F83B28A1DC0FF023F83A281BDC0FF099
:2053000015F881460FF01CF880460FF023F807460FF02AF806460FF031F882460FF038F8ED
:20532000CDF800A00190484608F101013A4633460FF034F81AE00FF003F83B2816D10EF08E
:20534000F5FF80460FF006F807460FF00DF806460FF014F881460FF01BF8CDF8009001902F
:20536000404600213A4633460FF018F80EF0E8FFFEF782F861E702287FF45FAF0EF088FFB2
:2053800014F058FF0020FFF7E7FD04B0BDE8F087D0CF02006434002018D4020088CF020048
:2053A00050CB0200CC95FF1F2DE9F04784B001466F48FDF78BFE6F4D284614F0D1F84626F2
:2053C00000966D4B0193002402940394284614213C22334613F002FF0096684B01930294A9
:2053E00003942846E6213C22334613F0F7FE0096634B0193029403942846142196224FF42F
:205400008C7313F0EBFE284614F086F80EF08EFFFEF732F85B4C04F1100594F824301BB1AA
:20542000284610F067F802E0204610F0B5FA0028F3D0236A012119704E48002214F0C4F80D
:20544000002842D10EF072FF0028E6DB0EF06EFF00281BDD0EF06AFF81460EF071FF8046CC
:205460000EF078FF07460EF07FFF06460EF086FF82460EF08DFFCDF800A0019009F1FF30AE
:2054800041463A4633460EF089FF19E00EF04EFFB0B90EF055FF80460EF05CFF07460EF09D
:2054A00063FF06460EF06AFF81460EF071FFCDF800900190172041463A4633460EF06EFF9A
:2054C0000EF034FFFDF7D8FFA7E7012843D10EF02DFF1728A1DC0EF029FF16281BDC0EF0C6
:2054E00025FF81460EF02CFF80460EF033FF07460EF03AFF06460EF041FF82460EF048FF87
:20550000CDF800A0019009F1010041463A4633460EF044FF1AE00EF009FF172816D10EF0B5
:205520000FFF80460EF016FF07460EF01DFF06460EF024FF81460EF02BFFCDF800900190DB
:20554000002041463A4633460EF028FF0EF0EEFEFDF792FF61E702287FF45FAF0EF098FE90
:2055600014F068FE0020FFF7F7FC04B0BDE8F087C8CF02006434002018D4020088CF020050
:2055800050CB0200CC95FF1FF0B585B007461C483946FDF79BFD1B4D284613F0E1FF4626B4
:2055A0000096194B0193002402940394284614213C22822313F012FE0096144B0193029434
:2055C00003942846AA213C22822313F007FE00960F4B0193029403942846142196224FF4A1
:2055E0008C7313F0FBFD2FB128460221094A234613F0A4FF034813F08FFF05B0F0BD00BFE1
:20560000E0D1020064340020C0CF0200A4CF0200E0CF0200E8CF020070B50646164C04F1E7
:20562000100594F824301BB128460FF063FF02E0204610F0B1F90028F3D0236A01221A70C3
:205640000E4800210A4613F0BFFF18B93046FFF7EFF9E6E7012803D13046FFF7D9FAE0E7CD
:20566000022803D13046FFF7C5FBDAE70328D8D13046FFF789FF70BDCC95FF1F6434002013
:2056800070B50646164C04F1100594F824301BB128460FF02FFF02E0204610F07DF9002800
:2056A000F3D0236A01221A700E4800210A4613F08BFF18B93046FFF777FEE6E7012803D11D
:2056C0003046FFF781FDE0E7022803D13046FFF78DFCDAE70328D8D13046FFF755FF70BDA4
:2056E000CC95FF1F6434002070B584B01D480021FDF7ECFC1C4D284613F032FF46260096AB
:205700001A4B0193002402940394284614213C22822313F063FD0096154B0193029403947F
:205720002846AA213C22822313F058FD0096114B019302940394284614219622822313F01F
:205740004DFD00960C4B0193029403942846AA219622822313F042FD284613F0DDFE04B079
:2057600070BD00BFECCF020064340020F4CF020004D0020014D0020050CB0200F0B585B050
:2057800006464A483146FDF7A1FC494D284613F0E7FE46270097474B0193002402940394BC
:2057A000284614213C22822313F018FD0097424B0193029403942846AA213C22822313F007
:2057C0000DFD7EB100973D4B0193029403942846142196224FF48C7313F000FD0122384B6D
:2057E0001A700DE046230093364B01930023029303932F48142196224FF48C7313F0EEFC40
:205800002B4813F089FE2E4B1B783BB92848002114F02AF82C4C04F1100504E024480121E0
:2058200014F022F8F6E794F824301BB128460FF061FE02E0204610F0AFF80028F3D0236A8E
:2058400001221A701A4800210A4613F0BDFE78B91B4B1B78002BE6D00021194B1970144F8E
:20586000384614F001F83846012114F05DF8DAE701280FD1124B1B78002BD4D10121104BAD
:2058800019700B4F384613F0EFFF3846002114F04BF8C8E70228C6D16820094B197814F0EF
:2058A000A3F90EB9FFF720FF05B0F0BD04D002006434002060CC02001CD00200E8CF0200AB
:2058C000589CFF1F50CB0200CC95FF1FF0B585B006464A483146FDF7F9FB494D284613F0FC
:2058E0003FFE46270097474B0193002402940394284614213C22822313F070FC0097424BB7
:205900000193029403942846AA213C22822313F065FC7EB100973D4B0193029403942846A9
:20592000142196224FF48C7313F058FC0122384B1A700DE046230093364B019300230293FB
:2059400003932F48142196224FF48C7313F046FC2B4813F0E1FD2E4B1B783BB928480021E1
:2059600013F082FF2C4C04F1100504E02448012113F07AFFF6E794F824301BB128460FF03D
:20598000B9FD02E0204610F007F80028F3D0236A01221A701A4800210A4613F015FE78B9CB
:2059A0001B4B1B78002BE6D00021194B1970144F384613F059FF3846012113F0B5FFDAE7AB
:2059C00001280FD1124B1B78002BD4D10121104B19700B4F384613F047FF3846002113F035
:2059E000A3FFC8E70228C6D16720094B197814F0FBF80EB9FFF778FE05B0F0BDF4CF0200D8
:205A00006434002028D0020034D00200E8CF02006C36002050CB0200CC95FF1FF0B585B0DD
:205A2000474B1B784BB947480021FCF7B9FEFDF745FA10B9FFF758FE80E043480021FDF79B
:205A400045FB424D28464FF6FF7110F073FF404E2846314612F09EFB28467F210A460B4625
:205A600010F076FF0024009428463A4942F20E72422312F0C1F900942846374942F20E72FD
:205A8000692312F0B9F900942846344942F20E727D2312F0B1F9324D284613F061FD28468B
:205AA000304913F0A1FF372700972F4B01930294039428460F21A0228C2313F08FFB009767
:205AC0002A4B0193029403942846A521A0228C2313F084FB284613F01FFD2846314613F0F4
:205AE00083FF234C04F1100594F824301BB128460FF000FD02E020460FF04EFF0028F3D016
:205B0000236A012119701648002213F05DFD012810D118480021FCF743FEFBF7E9FF164879
:205B20000021FCF73DFE4FF47A7014F039FCFBF7A1FF01E00028D7D1FFF7D6FD05B0F0BD42
:205B4000A839002040D00200ECCF0200809BFF1F7436030054D0020074D0020090D00200C1
:205B600064340020902A030000CC020004CC0200CC95FF1FB4D00200CCD0020070B584B014
:205B80001D480021FDF7A2FA1C4D284613F0E8FC462600961A4B0193002402940394284677
:205BA00014213C22822313F019FB0096154B0193029403942846AA213C22822313F00EFB97
:205BC0000096114B019302940394284614219622822313F003FB00960C4B01930294039463
:205BE0002846AA219622822313F0F8FA284613F093FC04B070BD00BFE0D002006434002010
:205C0000E8D00200F8D0020008D1020050CB0200F0B585B0064645483146FDF757FA444D08
:205C2000284613F09DFC46270097424B0193002402940394284614213C22822313F0CEFA73
:205C400000973D4B0193029403942846AA213C22822313F0C3FA0097384B0193029403948D
:205C60002846142196224FF48C7313F0B7FA3EB128460221324A234613F060FC314B1C7007
:205C80002B4813F049FC2F4B1B783BB92848002113F0EAFD2C4C04F1100504E024480121D9
:205CA00013F0E2FDF6E794F824301BB128460FF021FC02E020460FF06FFE0028F3D0236AC3
:205CC00001221A701A4800210A4613F07DFC78B91C4B1B78002BE6D000211A4B1970144F4A
:205CE000384613F0C1FD3846012113F01DFEDAE701280FD1134B1B78002BD4D10121114B9E
:205D000019700B4F384613F0AFFD3846002113F00BFEC8E70228C6D165200A4B197813F0EA
:205D200063FF0EB9FFF72AFF05B0F0BDBCD202006434002018D1020020D10200E0CF0200E2
:205D4000E8CF0200849CFF1FCC95FF1F2DE9F04184B0064647483146FDF7B8F9464D28465A
:205D600013F0FEFB46270097444B0193002402940394284614213C22822313F02FFA009746
:205D80003F4B0193029403942846AA213C22822313F024FA00973B4B01930294039428460F
:205DA000142196224FF48C7313F018FA2EB128460221354A234613F0C1FB2F4813F0ACFB67
:205DC000324B1B783BB12C48002113F04DFD304C04F1100504E02848012113F045FDF6E7C7
:205DE00094F824301BB128460FF084FB02E020460FF0D2FD0028F3D0236A01221A701E486A
:205E000000210A4613F0E0FB88B9204B1B78002BE6D101271D4B1F70DFF85C804046002199
:205E200013F022FD4046394613F07EFDD8E7012811D1164B1B78002BD2D00027134B1F701E
:205E4000DFF834804046012113F00EFD4046394613F06AFDC4E70228C2D170200B4B1978B3
:205E600013F0C2FE1EB9FCF7A9F9FFF787FE04B0BDE8F081F8D00200643400202CD102002D
:205E800060CC0200E0CF0200E8CF0200AC9CFF1FCC95FF1F2DE9F04184B03A480021FDF773
:205EA00015F9394D284613F05BFB46260096374B0193002402940394284614213C22822378
:205EC00013F08CF90096324B0193029403942846AA213C22822313F081F900962D4B01930B
:205EE00002940394284614219622822313F076F90096294B0193029403942846AA21962247
:205F0000822313F06BF9284613F006FB2846234B197813F0A9FC224C04F1100694F8243095
:205F20001BB130460FF0E6FA02E020460FF034FD0028F3D0236A01221A70134800210A46D7
:205F400013F042FB054602280ED80F4FDFF84C80384698F8001013F0E7FC88F80050384653
:205F6000E9B213F081FCD9E70328D7D180200B4B197813F039FEFBF751FBFFF7FFFD04B0CE
:205F8000BDE8F08108D102006434002060CC020034D102003CD1020050CB0200C895FF1F7C
:205FA000CC95FF1F70B584B01F480021FDF78EF81E4D284613F0D4FA28461D4913F014FD75
:205FC000462600961B4B0193002402940394284614213C22822313F001F90096164B019346
:205FE000029403942846AA213C22822313F0F6F80096124B01930294039428461421962238
:20600000822313F0EBF800960D4B0193029403942846AA219622822313F0E0F8284613F064
:206020007BFA04B070BD00BF44D102006434002074360300E0D00200ECCF0200E0D10200AD
:2060400050CB020070B506461F4C04F1100594F824301BB128460FF04DFA02E020460FF096
:206060009BFC0028F3D0236A01221A70174800210A4613F0A9FA30B93046FEF76DFF3046B8
:20608000FFF7FEFAE3E7012806D13046FEF786FC3046FFF7C1FADAE70228D8D186B10EF06B
:2060A00077F9B0F5FC6F0DDA09480021FCF778FB4FF47A7014F074F90120FFF765FAC6E7E0
:2060C000FFF770FF70BD00BFCC95FF1F6434002050D1020038B5154C04F1100594F82430DD
:2060E0001BB128460FF006FA02E020460FF054FC0028F3D0236A01221A700D4800210A46E5
:2061000013F062FA10B9FFF7E1FBE7E7012803D10020FFF733FBE1E7022802D1FFF77EFC41
:20612000DCE70328DAD1FFF73DFF38BDCC95FF1F6434002038B5154C04F1100594F8243030
:206140001BB128460FF0D6F902E020460FF024FC0028F3D0236A01221A700D4800210A46E5
:2061600013F032FA10B9FFF753FDE7E7012803D10020FFF7EBFDE1E7022802D1FFF78AFED5
:20618000DCE70328DAD1FFF70DFF38BDCC95FF1F6434002038B5184C04F1100594F82430FD
:2061A0001BB128460FF0A6F902E020460FF0F4FB0028F3D0236A01221A70104800210A46E3
:2061C00013F002FA20B9FFF7D9FCFFF7B3FFE5E7012804D1FFF788FAFFF77CFFDEE70228D2
:2061E00006D10020FFF7D0F90020FFF72BFFD5E70328D3D138BD00BFCC95FF1F6434002033
:2062000070B59AB04C4C20467F210A460B4610F075FB20467F210A460B4610F099FB2046BF
:20622000464911F0B7FF02A8454915F0C1F94FF6FF750095204602A942F20E72142311F0D6
:206240006BFE02A815F068F906A83E4915F0B0F94FF6E0760096204606A942F20E723C2389
:2062600011F05AFE06A815F057F92046364911F091FF0AA8354915F09BF9009520460AA9D5
:2062800042F20E726E2311F047FE0AA815F044F90EA82F4915F08CF9009520460EA942F2E1
:2062A0000E728C2311F038FE0EA815F035F912A8284915F07DF90095204612A942F20E727F
:2062C000AA2311F029FE12A815F026F916A8224915F06EF90096204616A942F20E72D223F2
:2062E00011F01AFE16A815F017F91C4C04F1100594F824301BB128460FF0FCF802E02046EB
:206300000FF04AFB0028F3D0144B1B6A01221A70124C04F11006154694F824301BB13046D7
:206320000FF0E8F802E020460FF036FB10B1236A1D70F1E71AB070BD809BFF1F902A030066
:2063400068D10200E0CA02007436030078D1020098D10200B4D10200C8D10200CC95FF1F52
:20636000F0B5ABB005460F46724C20467F210A460B4610F0C3FA20467F210A460B4610F0B4
:20638000E7FA20466C4911F005FF02A8294615F02DF94FF6E0730093204602A942F20E72C8
:2063A000142311F0B9FD02A815F0B6F82046634911F0F0FE06A805F1100115F017F94FF682
:2063C000FF760096204606A942F20E72372311F0A3FD06A815F0A0F80AA805F1200115F0D5
:2063E00005F9009620460AA942F20E72502311F093FD0AA815F090F80EA805F1300115F017
:20640000F5F8009620460EA942F20E72692311F083FD0EA815F080F812A805F1400115F0F2
:20642000E5F80096204612A942F20E72822311F073FD12A815F070F8002F55D016A805F1CF
:20644000500115F0D3F80096204616A942F20E729B2311F061FD16A815F05EF81AA805F1BE
:20646000600115F0C3F8009620461AA942F20E72B42311F051FD1AA815F04EF81EA8304916
:2064800015F096F84FF6E073009320461EA942F20E72D42311F040FD1EA815F03DF8294CB3
:2064A00004F1100594F824301BB128460FF022F802E020460FF070FA0028F3D0214B1B6A12
:2064C00001221A701F4C04F11006154694F824301BB130460FF00EF802E020460FF05CFA7A
:2064E00028B3236A1D70F1E722A805F1500115F07DF8104C4FF6FF760096204622A942F233
:206500000E72B42311F008FD22A815F005F826A805F1600115F06AF80096204626A942F2C7
:206520000E72CD2311F0F8FC26A814F0F5FF2BB0F0BD00BF809BFF1F902A03007436030046
:20654000C8D10200CC95FF1F70B59EB01EAE02AC00252046294615F02BF81034B442F8D10F
:2065600002A81F4915F04EF806A81E4915F04AF80AA81D4915F046F80EA81C4915F042F8AD
:2065800012A81B4915F03EF816A81A4915F03AF81AA8194915F036F802A80121FFF7E0FE53
:2065A000062300934FF4FC6301930C201E210A460F230DF0F3FE0120FEF7E6FF0120FFF7FC
:2065C00041FD0DF065FE13F035FE1AACADF10805204614F0A1FF103CAC42F9D11EB070BD6D
:2065E000DCD10200ECD102000CD202002CD202004CD202006CD2020090D2020070B59CB018
:206600001CAE6C4600252046294614F0D1FF1034B442F8D16846164914F0F4FF04A815491F
:2066200014F0F0FF08A8144914F0ECFF0CA8134914F0E8FF10A8124914F0E4FF14A8114960
:2066400014F0E0FF18A8104914F0DCFF68460121FFF786FE0120FFF7DBFA18ACADF11005B2
:20666000204614F059FF103CAC42F9D11CB070BDB8D20200ECD10200CCD20200ECD20200B0
:206680000CD3020028D3020048D3020070B59CB01CAE6C4600252046294614F089FF103448
:2066A000B442F8D16846164914F0ACFF04A8154914F0A8FF08A8144914F0A4FF0CA81349E6
:2066C00014F0A0FF10A8124914F09CFF14A8114914F098FF18A8104914F094FF6846012134
:2066E000FFF73EFE0120FFF7F1F818ACADF11005204614F011FF103CAC42F9D11CB070BD7A
:2067000060D3020074D3020094D30200B8D30200D8D30200F8D302001CD4020070B59CB028
:206720001CAE6C4600252046294614F041FF1034B442F8D16846164914F064FF04A815491E
:2067400014F060FF08A8144914F05CFF0CA8134914F058FF10A8124914F054FF14A811497F
:2067600014F050FF18A8104914F04CFF68460121FFF7F6FD0120FFF701F818ACADF110051E
:20678000204614F0C9FE103CAC42F9D11CB070BD3CD4020050D402006CD402008CD40200EF
:2067A000ACD40200CCD40200E8D4020070B59CB06C461CAE00252046294614F0F9FE1034D1
:2067C000B442F8D16846104914F01CFF04A80F4914F018FF08A80E4914F014FF0CA80D498D
:2067E00014F010FF10A80C4914F00CFF14A80B4914F008FF18A80A4914F004FF6846002166
:20680000FFF7AEFDFEE700BF0CD5020020D5020038D5020054D5020070D5020090D5020071
:20682000B4D5020008B5972013F0C8F9C83818BF012008BD70B59CB01CAE6C460025204660
:20684000294614F0B5FE1034B442F8D16846254914F0D8FE04A8244914F0D4FE08A823490E
:2068600014F0D0FE0CA8224914F0CCFE10A8214914F0C8FE14A8204914F0C4FE18A81F495A
:2068800014F0C0FE68460121FFF76AFD04A81C4914F0B8FE08A81B4914F0B4FE0CA81A495D
:2068A00014F0B0FE10A8194914F0ACFE14A8184914F0A8FE18A8174914F0A4FE6846012101
:2068C000FFF74EFD9720C82113F08EF918ACADF11005204614F020FE103CAC42F9D11CB07E
:2068E00070BD00BFCCD50200E0D5020000D6020020D602003CD6020058D6020078D60200EE
:2069000098D60200B4D60200D8D60200FCD602001CD7020040D7020008B5962013F04EF92C
