:1000000000000320D10100008D32020045320200C1
:1000100045320200453202004532020045320200FC
:100020004532020045320200453202008D320200A4
:100030008D320200453202008D320200353202005C
:100040008D3202008D3202008D3202008D320200AC
:100050008D3202008D3202008D3202008D3202009C
:100060008D3202008D3202008D3202008D3202008C
:100070008D3202008D3202008D3202008D3202007C
:100080008D3202008D3202008D3202008D3202006C
:100090008D3202008D3202008D3202008D3202005C
:1000A000F9C3010049C901008D3202008D320200FE
:1000B0008D3202008D3202008D3202002942020090
:1000C0008D320200216502008D3202003D6B02007C
:1000D0008D320200F17102008D3202008D32020079
:1000E0008D3202008D3202008D3202008D3202000C
:1000F0008D3202008D3202008D3202008D320200FC
:100100008D3202008D3202008D3202008D320200EB
:100110008D320200E94402008D3202008D3202006D
:100120008D3202008D3202008D3202008D320200CB
:100130008D3202008D3202008D3202008D320200BB
:100140008D3202008D320200D97702008D3202001A
:100150008D3202008D3202008D3202008D3202009B
:100160008D3202008D320200F5CE01008D32020088
:100170008D3202008D3202008D3202008D3202007B
:100180008D3202008D3202008D3202008D3202006B
:100190008D3202008D320200B97E02008D320200E3
:1001A0008D3202008D3202008D320200A1D4010096
:1001B0008D3202008D3202008D3202008D3202003B
:1001C0008D3202008D3202008D3202008D3202002B
:1001D0005C4B4CF2205210B51A804DF628121A8052
:1001E00000BF00BF23F056F8574B4FF030621A6043
:1001F000564A9A60564ADA60564B4FF470021A60BB
:10020000554B564A1A60564A136813F4807304D14A
:1002100054490B604FF4A8531360534B1A781107DD
:1002200003D51A7842F008021A70504B5049AA229E
:100230001A70504A504B8B4204D252F8040F43F8C4
:10024000040BF8E74D4B4E4900228B4202D243F893
:10025000042BFAE74B494C4A002352F8230041F89B
:1002600023000133742BF8D1484B494A802103F80D
:10027000011B9342FBD1474B424A1A60464B8A22EC
:100280001A70A3F5805324225A70A0221A709A790A
:100290009207FCD59A79D406FCD4404A937903F0AE
:1002A0000C03082BFAD13E4B60221A7002331A78E5
:1002B000802AFCD1394B00221A714E225A719A7948
:1002C0009006FCD59979354A4906FBD5354B364918
:1002D00019600821596020231370937903F00C03EF
:1002E0000C2BFAD1314B324A1A60324B324A1A6027
:1002F00000225A60072243F8042C304AC3F80C2D20
:1003000062B623F083FA174B1B68DA0705D52C4831
:1003100023F06AFA2B4B2C4A1A602C4B1B785B0695
:1003200009D5284C284B22689A4204D1244823F04E
:100330005BFA002323602AF0C3FA04F009FF25F0DA
:10034000BBF9FEE70E20054030800440823F0400E8
:100350000100002B88ED00E0002008E0030000858C
:1003600010D0034014D0034002D0074000E0074003
:10037000201EFF1FB40D04003007FF1F201EFF1FAB
:10038000D430FF1F0002FF1F0000000000E400E067
:1003900064E400E008ED00E0005006400040064044
:1003A00001E007404480044000000703048004404B
:1003B000C010050014E000E07FA903000000202029
:1003C000A72FC7041CE00340A5C3945A00F00740C0
:1003D000FFFFFFFFFFFFFFFFFFFFFFFFFFFFFFFF2D
:1003E000FFFFFFFFFFFFFFFFFFFFFFFFFFFFFFFF1D
:1003F000FFFFFFFFFFFFFFFFFFFFFFFFFFFFFFFF0D
:10040000FFFFFFFFFFFFFFFFFFFFFFFFDEF9FFFF23
:1004100010B5054C237833B9044B13B10448AFF33E
:1004200000800123237010BD201EFF1F000000006C
:10043000B00D0400084B10B51BB108490848AFF3D4
:1004400000800848036803B910BD074B002BFBD0A0
:10045000BDE81040184700BF00000000241EFF1F29
:10046000B00D0400201EFF1F000000002DE9F04F1A
:100470009088D58885B0A84202915BD84149424B0B
:1004800009781E78414C424B94F800B01B78414FDC
:10049000DFF804E1DFF804C1D7F800A09EF80040BF
:1004A0000394C1EB8178C1EB880806EB860608EB64
:1004B00006094FF4C86101FB0B91C3EB83770CFB7A
:1004C0000319C3EB870301930021052313FB0B03DF
:1004D000EF2B2BDC019BD84228D413885488A342ED
:1004E00024D8039D00EB800C4FEA8C1C35BB029D89
:1004F00005EB41059F19B7F5A07F0EDA13EB080F46
:1005000003EB0C0709D42C884F441CB94FF00104AD
:100510002C8001242AF81740548801339BB29C4256
:1005200001F1010105F10205E4D2D588013080B264
:10053000A842CAD9012005B0BDE8F08F029D05EBA5
:10054000410503EB060EBEF5A07F03F1010701F1A3
:10055000010111DA13EB080F63440DD44B442C88CE
:10056000AAEB430303F515331CB94FF001042C80AB
:100570000124A3F8FE435488BBB2A34205F102054F
:10058000DFD9D2E75C29FF1F4429FF1F651EFF1F2B
:100590001029FF1F5428FF1F1229FF1FC0F9FFFF5A
:1005A0002DE9F04F89B0B2F804E00191D1888E4571
:1005B00000F291807B4B7C481C787C4F7C4B90F800
:1005C00000801D783F787B4B029792467A4A7B4E9B
:1005D00012780392C4EB84377948D3ED004A367819
:1005E00000680096C4EB870308EB88071F44039B51
:1005F00007900EEB8E0603EB8303C5EBC50007EBFC
:10060000461603EB83036F4A00EB001006EB43161C
:10061000C5EB857900EB0010C5EB890306EB401CA8
:10062000C4EB847B127806931FFA8CFCC4EB8B0B13
:100630004FF005090027B7EE004ABDF80C0005236E
:1006400013FB00E3772B3CDC069B1EEB030F38D437
:10065000BAF80030BAF802509D4232D30137CDF8D3
:1006600014E0BFB2DDF81CE021E0C3F19F01C9B284
:1006700019FB08149F2C13DC11EB0B0F10D4029CF8
:100680006144022C89B2019C2ED034F810400098AD
:1006900028B3C1F595417F312EF81140BAF80250C8
:1006A00001339BB2791C9D4289B206D30F46781E56
:1006B00080B2002AD9D0D9B2DAE7DDF814E0BAF86E
:1006C00006100EF1010E1FFA8EFE0CF1A00C8E45E5
:1006D0001FFA8CFCB1D9012009B0BDE8F08F2EF8CB
:1006E0001140BAF80250DBE734F810000412C510CC
:1006F00004F0F80407EE904A05F0FC0406EE904A78
:10070000009CC000002C4AD0C1F595467F363EF8CB
:100710001640E51005F0FC0507EE105AF8EEE66A03
:10072000C0B2F8EEC75A34EE646A07EE100A66EEFD
:10073000A46AE000C0B22512E6EE256A05F0F804CE
:1007400005EE900AB8EEC77AB8EEE55AF8EEE77A09
:1007500005EE904A27EE247AF8EEE55A67EEA47A81
:10076000A6EE057AE5EE867AFCEEE66ABCEEC77A7E
:10077000CDED046AFCEEE77A9DF8106017EE105A92
:1007800017EE900AF40004F0E004C5F3C40500F08D
:10079000F8002C4340EA561044EA002477E73EF87C
:1007A0001140B6E75C29FF1F4429FF1F3229FF1FB4
:1007B0001029FF1F601EFF1F651EFF1F1229FF1F4C
:1007C0003C1EFF1F622BFF1F08301EF0E7BF00BF5B
:1007D00000B583B002AB012203F8011D08301946B1
:1007E0001EF0DCFF03B05DF804FB00BF38B5856F79
:1007F000AC88EB88E41A944228BF144631B108460D
:1008000029682246194422F057FAEB882344EB80EA
:10081000204638BDF8B50E46074622F0FFF80546DB
:1008200022F0E8F8044622F0D1F86401C0B204F4E2
:10083000FF54ADB2A5F2BC75044344EA45243C80A4
:1008400022F088F8054622F099F8044622F0AAF82A
:10085000ED02640105F4FF2504F4FF542C43C0F3BA
:10086000460004433480F8BD00F58C6021F0BAB92D
:100870002DE9F0412F4B304F1B7884B00BB93B78FA
:10088000B3B13A782C4B022A3BD01A78032A02D013
:1008900004B0BDE8F08101221A7028481BF0AAFCC0
:1008A00026481BF0DFFC0028F7D104B0BDE8F0813A
:1008B000234B1B78002BE4D1DFF8908098F80030B0
:1008C000002BDED11F4B1B78002BDAD11E4D2B687D
:1008D00002930A20029E23F027F92B680193019CC2
:1008E000A41B16481BF086FC14481BF0BBFCD0B1BF
:1008F000B4F57A7F12DD01233B703A780E4B022A61
:10090000C3D103221A700D481BF074FC0B481BF076
:10091000A9FC0028F7D104B0BDE8F0812B6803934F
:10092000039CA41BDDE7B4F57A7FE4DA022388F8A0
:100930000030A6E77C1EFF1F6829FF1F9C1EFF1FBB
:10094000EF20FF1F501EFF1F102CFF1F401EFF1F18
:1009500022F044BF00F58C6021F042BC00F58C60B1
:1009600020F0B2BE00F58C6020F028BE2DE9F04FDB
:100970002DED028B4FF0000A8FB04FF0000BCDE948
:1009800004ABCDE902ABCDE900AB01F5C8730C4671
:10099000D046D9460992851E069335F8026F304637
:1009A00029F0A0FB02460B464046494629F04EFA84
:1009B00080463046894629F085FB02460B4629F0E1
:1009C000F7FB02460B46DDE9000129F03FFA07EE8E
:1009D000906AB4EC018AF8EEE77ACDE9000167EE9F
:1009E000887A17EE900A29F08FFB02460B46DDE964
:1009F000020129F02BFACDE9020118EE100A29F0C4
:100A000083FB06460F4602460B46DDE9040129F04A
:100A10001DFA3246CDE904013B463046394629F0FD
:100A2000C7FB0B4602465946504629F00FFA069B73
:100A3000A34282468B46B0D142464B464046494689
:100A400029F0B6FB002204460D46524BDDE90001B9
:100A500029F0AEFB22462B4629F0F6F900220023AE
:100A6000CDE9060129F00CFE064600287DD1DDE91E
:100A700004234046494629F09BFB0022CDE90A01A8
:100A8000444B454FDDE9020129F092FBDDE90A23E1
:100A900029F0DAF9DDE9062329F0B4FC29F060FE3B
:100AA0003E4B1860DDE90423DDE9000129F080FBFD
:100AB000DDE90223CDE90C014046494629F078FBE7
:100AC00002460B46DDE90C0129F0BEF9DDE90623FB
:100AD00029F098FC29F044FE3860099F002F52D07D
:100AE000DDE904231046194629F062FB0022294B58
:100AF00029F088FC02460B465046594629F0A4F9D5
:100B0000002280468946234B2046294629F07AFC5C
:100B100002460B46DDE9000129F096F902460B4634
:100B20004046494629F044FB41EC100B27F0E0FE1B
:100B3000DDE90A010022174B8DED000B29F062FC64
:100B400002460B46DDE9020129F07EF99DED000B1E
:100B500053EC102B29F056FC29F002FE3860304689
:100B60000FB0BDEC028BBDE8F08F0B4A0B490023A0
:100B700013600126099A0B60304613600FB0BDEC7C
:100B8000028BBDE8F08F3E4630460FB0BDEC028BC5
:100B9000BDE8F08F000059404826FF1F3C1FFF1F93
:100BA00008B524F0B9FAC0B26438262818D8DFE8AE
:100BB00000F0141717171717171717171717171706
:100BC000171717171717171717171717172A172396
:100BD00017171717171717171B00642024F0D2FBDD
:100BE000BDE8084024F0DABB0B4B187824F0CAFBB0
:100BF000BDE8084024F0D2BBEB2024F0C3FBBDE8E5
:100C0000084024F0CBBB054B187824F0BBFBBDE8B3
:100C1000084024F0C3BB00BF481FFF1F3108FF1F5F
:100C2000144938B5A1F10C000223142220F052FB24
:100C300000B938BD10481EF085F901210F4820F099
:100C4000FDF880B10D4C04F23C45284621461EF0CB
:100C50003FFB38B194F83C3413F0700F1CBF084BC5
:100C60001D6038BD38BD0146044820F0E7F8002873
:100C7000E8D138BD8C25FF1F5C25FF1F2021FF1FF9
:100C8000BC2BFF1F10B53A4B1B7882B0002B4BD109
:100C9000384968461AF0DCF9BDF80020BDF80200BA
:100CA000A2F10A039BB2822B08D8A0F10A014629BF
:100CB00004D8314B01221A7002B010BDA2F1B40168
:100CC00089B282290CD9822B14D98D3A262AF3D8DD
:100CD00051384E28F0D8284B07221A7002B010BDA8
:100CE000A0F1A004462C03D8234B05221A70E3E799
:100CF000822B28D8592809D9962807D81F4C246850
:100D0000012C16D01C4B03221A70D5E7822903D878
:100D1000A0F10A03462B12D9A0F1A003462BD4D888
:100D2000154B06221A70C7E7154968461AF088F86D
:100D3000B2E78229F0D8A0F10A0146290FD80E4B5C
:100D400002221A70B8E7A0F15A013C290AD80B49CF
:100D500009680129EFD0084B04221A70ACE7822BF6
:100D6000DAD9B2E7A0F10A03462BE8D9ADE700BF14
:100D70003C29FF1F801EFF1F2929FF1F4026FF1F40
:100D80004C29FF1F002AF0B5144FDFF858E014BFBC
:100D90004FF060554FF06455002602E0172C08D044
:100DA000264637F8022F9EFBF2F2914206F101042B
:100DB000F4D31A0701D545F08065094A5B0752F85C
:100DC000262007D5130903F4706322F4704245F01E
:100DD00000751A4315430560F0BD00BF060304000B
:100DE000380304000087930330B41E4B1A7812B303
:100DF00072B61B78DC0707D51B491C4A0D681268C0
:100E00001B4C2A4022600A60990707D51949174AE6
:100E10000D685268164C2A400A6062605A0707D56E
:100E20001549124A0D689268114C2A400A60A26066
:100E30001B070ED462B6114BDA68824207D0104904
:100E40001960104AD86040F0804119611A6030BCC6
:100E500070470D4A054B1468DB6805492340136051
:100E6000CB60E7E7E42BFF1F80E100E0C42BFF1F0E
:100E7000D42BFF1F84E100E088E100E000C00240C5
:100E800001401F0000001F808CE100E00D4B1B782B
:100E9000BBB1D80703D50C490C4A09681160990702
:100EA00003D509490A4A496811605A0703D506491A
:100EB000084A896811601B0703D5034A064BD268AC
:100EC0001A607047E42BFF1FD42BFF1F00E100E0E6
:100ED00004E100E008E100E00CE100E02DE9F0436E
:100EE0000C788BB000232F2C8DF8043007469146E8
:100EF0008DF8053028D007F23C480A4601A8414643
:100F000001231EF065F90646C8B19DF8043013F0C0
:100F1000700F14D001AC0FCC45460FC50FCC0FC5D8
:100F200023682B60B9F1000F04D097F83C3413F01C
:100F3000700F23D1012630460BB0BDE8F0830026A8
:100F400030460BB0BDE8F0834B78002BD3D100F2D4
:100F50003C4420461DF0F6FF394620461EF0B8F905
:100F600006460028EBD0B9F1000FE3D097F83C34E7
:100F700013F0700FE3D0054B1C60E1E7034B3046E4
:100F8000C3F800800BB0BDE8F08300BFBC2BFF1F8F
:100F9000F0B5DFF8B4C0254B254A264F83B04FF497
:100FA000107E4FF480760C464FF40071CCF8006050
:100FB0000546C3F800E001A81160002301221E4984
:100FC0003E60FFF7DFFE0198FFF70EFF1B4B1C4949
:100FD000EDB210204FF000420860DA6219465D63FE
:100FE000CB6A164A002BFBDAE4B24FF00043916B58
:100FF000D36210465463C36A104A002BFBDA114BCC
:10100000926B0B4E0B4C10221A60FFF73FFF0E49FC
:10101000064A4FF480734FF400754FF4107033603C
:1010200025600860136003B0F0BD00BF04C0044039
:101030000CC004401CB0044000093D0000C0024048
:1010400088F00F4084F00F4014B004402DE9F041C7
:10105000264BDFF8B4E0264A264E274982B04FF4EB
:10106000807504464FF410774FF40070CEF80050AE
:101070001F60106000230122356001A8FFF782FE87
:101080000198FFF7B1FE1D4B1D49E4B210204FF04F
:1010900000420860DA6219465C63CB6A174A002B8B
:1010A000FBDA4FF000410023906BD162114653638D
:1010B000CB6A124A002BFBDA124BD2F838800C4F65
:1010C0000C4D10221A60FFF7E1FE0F49074A4FF45A
:1010D00080734FF400764FF410745FFA88F03B6031
:1010E0002E600C60136002B0BDE8F08104C00440C3
:1010F0000CC004401CB0044000093D0000C0024088
:1011000088F00F4084F00F4014B00440F0B5144B49
:10111000144A154C154E164983B04FF480704FF4A5
:1011200000774FF410751F601060002301223060BB
:10113000256001A8FFF726FE0198FFF755FE0D4B2D
:101140000D4910244FF000403C220C60D862194633
:101150005A63CB6A074A002BFBDA936B03B0F0BDEE
:101160000CC004401CB0044004C0044014B004404F
:1011700000093D0000C0024088F00F4008B5012181
:101180008420FFF705FF01218420FFF701FF0221E2
:101190008420BDE80840FFF7FBBE00BF2DE9F843FF
:1011A000124C00252570F1B1F0B188460746DFF8F2
:1011B00040900AE02678731C237022F0C3FF09F8E0
:1011C000060000252078B8420ED022F0ABFF0028A0
:1011D000F0DC01350120EDB222F0A6FCA845F1D1EA
:1011E0002078BDE8F8830846BDE8F8837529FF1F1D
:1011F0006828FF1FF8B50D4607460A2164201446EB
:10120000FFF7CCFF00231A4656211A481A4E24F045
:1012100073FA00231A463178164824F06DFA002339
:101220001A463946134824F067FA00231A462978EB
:10123000104824F061FA002369780E481A4624F019
:101240005BFA2046C821FFF7A9FF844201D00020A5
:10125000F8BD0A4B1A78762AF9D13278597891423A
:10126000F5D19A78BA42F2D1D878B0FA80F0400934
:10127000F8BD00BFA82DFF1F1129FF1F6828FF1F01
:1012800038B50A2105466420FFF788FF00231A4677
:1012900056211748174C24F02FFA00231A462178BC
:1012A000134824F029FA00231A462621104824F076
:1012B00023FA002329780E481A4624F01DFAC82183
:1012C0000520FFF76BFF052801D0002038BD0A4B31
:1012D0001A78762AF9D1227859789142F5D19A78FC
:1012E000262AF2D1D878B0FA80F0400938BD00BF84
:1012F000A82DFF1F1129FF1F6828FF1F70B51F4B66
:101300001F4E186882B00A2101906420FFF746FF43
:1013100000231A4656211B4824F0EEF900231A46F2
:101320003178184824F0E8F900231A46242115489A
:1013300024F0E2F901AC02AD002314F8011B1148BE
:101340001A4624F0D9F9AC42F6D1C8210520FFF79E
:1013500025FF052802D0002002B070BD0A4B1A7884
:10136000762AF8D1327859789142F4D19A78242AA1
:10137000F1D1D878B0FA80F04009EDE7BCF702006F
:101380001129FF1FA82DFF1F6828FF1FF0B583B08C
:101390000024042201238DF8050005250A211927C0
:1013A0006420214E00948DF804708DF800508DF863
:1013B00001208DF80230FFF7F1FE23462246562128
:1013C0001A4824F099F9234622463178174824F028
:1013D00093F9234622463121144824F08DF96C46B6
:1013E0000DF10605002314F8011B10481A4624F0DD
:1013F00083F9A542F6D1C8210520FFF7CFFE0528C5
:1014000002D0002003B0F0BD094B1A78762AF8D13B
:10141000327859789142F4D19A78312AF1D1D8783A
:10142000B0FA80F04009EDE71129FF1FA82DFF1F3A
:101430006828FF1FF0B583B00024012304228DF833
:10144000050012250A2105276420224E8DF801305F
:101450008DF802308DF803508DF804208DF800705F
:10146000FFF79CFE2346224656211B4824F044F9F0
:10147000234622463178184824F03EF92346224676
:101480003121154824F038F96C460DF1060500238A
:1014900014F8011B10481A4624F02EF9A542F6D183
:1014A000C8210520FFF77AFE052802D0002003B0EE
:1014B000F0BD0A4B1A78762AF8D1327859789142E1
:1014C000F4D19A78312AF1D1D878B0FA80F0400975
:1014D000EDE700BF1129FF1FA82DFF1F6828FF1F80
:1014E00010B582B002A900230122064CADF80430E9
:1014F000362001F8042D05222380FFF77BFE02B081
:1015000010BD00BF7629FF1F2DE9F04F604C85B05C
:1015100082469046A1460F465E4B5F494FF40072EB
:101520001A60A3F57F634FF480724FF410701A6055
:101530000A6000230122C1F8F00F584903A8FFF701
:1015400021FC0398FFF750FC554910204FF0004252
:101550003C230860E2626363E36A002BFCDA002646
:10156000D9F83830D8F80030DFF850B13146994218
:101570004FF0FF051CD29BF80030012B6ED04FF0CE
:1015800000420023E2626363E36A002BFCDAD9F8CD
:101590003830DBB2002E43D00AF801300131142973
:1015A0004CD0D92B20D01D46D8F800309942E2D338
:1015B0003C4B10221A60FFF769FC3649364A4FF45B
:1015C00080730B60A1F57F614FF4007008604FF4E9
:1015D00010711160C2F8F03FFFB1334B1B78012B43
:1015E00052D0FFF77DFF97E7FF2DDCD12D4B019106
:1015F00010221A60274C2D4DFFF748FC4FF48073E2
:1016000025482B4A23604FF400764FF4107401995B
:101610002E6004601360C8F8001005B0BDE8F08FBC
:10162000D82BBCD1FF2DBAD1FF21D8228AF80010C7
:101630008AF80120012602211D46B5E7002FB0D10E
:101640001C4A1278002AACD01B49019364220AF18B
:10165000140021F031FB7821019BA2E7114B0D4EC4
:10166000124C10221A60FFF711FC0B49104A4FF47C
:1016700080734FF400754FF410703360256008607C
:10168000136005B0BDE8F08FFFF778FD44E700BFB9
:1016900000C002400CC0044014B0044000093D00EA
:1016A00088F00F4084F00F40481FFF1F1CB004401B
:1016B00004C004401229FF1F4C4603007C1EFF1F7C
:1016C0002DE9F0412B4EDFF8B880318884B000243A
:1016D0000D1207460C2001940094234622468DF8F3
:1016E00005508DF806100A2556218DF80000224875
:1016F00002948DF802508DF80C508DF80A7023F08A
:10170000FBFF2346224698F800101B4823F0F4FF05
:10171000234622463221184823F0EEFF6C460DF195
:101720000D05002314F8011B13481A4623F0E4FFAB
:10173000A542F6D1C8210520FFF730FD052803D0CA
:10174000002004B0BDE8F0810C4B1A78762AF7D15E
:1017500098F8002059789142F2D19A78322AEFD144
:10176000DB78002BECD1338801201F44378004B094
:10177000BDE8F0817629FF1FA82DFF1F6828FF1FF5
:101780001129FF1F30B543F2D40083B022F01CFAB8
:101790000F2022F0C9F9FFF7B1FD41F2470022F016
:1017A00013FA0F2022F0C0F9FFF79AFE78B101ACCE
:1017B0005F20FFF73FFE164B21461B88ADF8043033
:1017C00005223620FFF716FD012003B030BD02AC24
:1017D0000546642022F0A8F904F8045D2046FFF7CE
:1017E0004FFD43F2D40022F0EFF90F2022F09CF9D4
:1017F000FFF784FD41F2470022F0E6F90F2022F0C6
:1018000093F9FFF76DFE0028D2D103B030BD00BFC1
:10181000B8F7020000B583B0FFF7B8FD02A80023B7
:1018200000F8043DFFF72CFD4FF4967022F07CF990
:1018300043F2D40022F0C8F90F2022F075F9FFF727
:101840005DFD41F2470022F0BFF90F2022F06CF954
:1018500003B05DF804FB00BF074B1B7810B50446CE
:1018600023B9064919F0F4FB204610BD044919F0CC
:10187000E7FA204610BD00BF3C29FF1F801EFF1F56
:101880004C29FF1FF0B5802183B0234819F03CFBA1
:1018900020B1224B01221A7003B0F0BD044620484B
:1018A00019F0BEFB1D4B1E491C70684619F0D0FB99
:1018B0000A20BDF90060BDF9027022F035F905205B
:1018C00022F0C4F80A240125052022F0BFF80028E0
:1018D0004FF00A0008BF002522F026F9013CF3D1A1
:1018E000104B1B786BB92346B34210D0BC4201D0D9
:1018F000002DD1D00C4A137823F00803137003B0E5
:10190000F0BD4FF4A073B3424FF0F004EED1BC42EF
:10191000F0D1002DC0D1EDE74C29FF1F3C29FF1F5E
:10192000801EFF1F1229FF1F3108FF1F08B5074B3C
:101930001B783BB1064819F0B1FA10B1054B0122F2
:101940001A7008BD044819F091FDF6E73C29FF1F05
:101950004C29FF1F5828FF1F801EFF1F2DE9F04153
:101960002A4D2B7886B0002B39D1294B1B78002BC0
:1019700035D1284E3378002B31D1274B1B7873BBE0
:10198000264B1B785BBBDFF8A080D8F800300493AF
:101990000A20049F22F0C8F8D8F80020204B0592B6
:1019A000059C1B78E41B43B924E0B4F57A7F08DC7E
:1019B000D8F800300393039CE41BFFF7B7FF00281F
:1019C000F3D1D8F800300193019BDB1BB3F57A7F8C
:1019D00016DB144B1B78012B01D00123337006B0AA
:1019E000BDE8F081B4F57A7FEBDCD8F800300293E3
:1019F000029CE41B052022F029F80028E1D1F1E740
:101A000001232B7006B0BDE8F08100BF7C1EFF1FD4
:101A10006829FF1FEF20FF1F401EFF1F501EFF1FE2
:101A20003C29FF1F3229FF1F102CFF1F10B4134B3E
:101A3000134A1B78146840EA034040F000631146E3
:101A40005363104602E013F0F00F14D1CB6A0C4A36
:101A500013F0805FF7D04FF08053D3621460D36AE5
:101A600013F0F00F04D0936BD36A13F0F00FFAD198
:101A70005DF8044B7047836BE8E700BF602BFF1FE6
:101A800000C0024010B4134B134A1B78146840EA9C
:101A9000034040F0006311465363104602E013F028
:101AA000F00F14D1CB6A0C4A13F0805FF7D04FF0DF
:101AB0008053D3621460D36A13F0F00F04D0936B99
:101AC000D36A13F0F00FFAD15DF8044B7047836BC3
:101AD000E8E700BF681EFF1F00C0024010B4134BB0
:101AE000134A1B78146840EA034040F0C053114683
:101AF0005363104602E013F0F00F14D1CB6A0C4A86
:101B000013F0805FF7D04FF08053D3621460D36A34
:101B100013F0F00F04D0936BD36A13F0F00FFAD1E7
:101B20005DF8044B7047836BE8E700BF681EFF1F3A
:101B300000C00240F0B4324C324F2678360446F0F2
:101B4000004444F02A047C63FC6A04F4704514F0F9
:101B5000F00F18BFBC6BB5F5405FF5D82A4C294F84
:101B600025782D04284340F010407863F86A00F48B
:101B7000704410F0F00F18BFB86BB4F5405FF5D8A3
:101B80002A43204C42F010426263E26A02F4704041
:101B900012F0F00F18BFA26BB0F5405FF5D846F019
:101BA0000046184C46F02B066663E26A02F4704069
:101BB00012F0F00F18BFA26BB0F5405FF5D82943C3
:101BC000104841F010414163C26A02F4704112F0C2
:101BD000F00F18BF826BB1F5405FF5D82B43094970
:101BE00043F010434B63CB6A03F4704213F0F00FE1
:101BF00018BF8B6BB2F5405FF5D8F0BC704700BFE3
:101C0000602BFF1F00C00240681EFF1F38B50D4645
:101C100004464FF03840FFF7E7F8A2B2ABB21946DE
:101C20001046FFF787FF0F4B0F4A1B781B0443F04A
:101C3000004343F02C035363D36A03F4704113F061
:101C4000F00F18BF936BB1F5405FF5D8074A084B0A
:101C500010781B7843EA0020FFF740FFFFF716F9E2
:101C600038BD00BF602BFF1F00C002403429FF1F9A
:101C70003D29FF1F8318B3F5A07F70B5C8BFC0F51D
:101C8000A07504464FF03840D8BF15460E46FFF702
:101C9000ABF8A0B2421EB3B22A44194692B2FFF783
:101CA00049FF1B4B1B491B781B0443F0004343F0C7
:101CB0002C034B63CB6A03F4704213F0F00F18BF90
:101CC0008B6BB2F5405FF5D81349144A144B127868
:101CD00008781B780F4C42EA00202A4640EA03436A
:101CE000012A43F010450DDD6563E36A03F470419A
:101CF00013F0F00F18BFA36BB1F5405FF5D8013AB0
:101D0000012AF1DCFFF7EAFEFFF7C0F870BD00BF63
:101D1000602BFF1F00C002403429FF1F3D29FF1F19
:101D2000681EFF1F8B1870B5F02B0C4606464FF04F
:101D30003840CCBFC1F1F0051546FFF755F8A1B208
:101D40004B1EB2B22B449BB21046FFF7F3FE1B4B67
:101D50001B491B781B0443F0004343F02C034B63E7
:101D6000CB6A03F4704213F0F00F18BF8B6BB2F51F
:101D7000405FF5D81349144A144B127808781B7841
:101D80000F4C42EA00202A4640EA0343012A43F06E
:101D900010450DDD6563E36A03F4704113F0F00F45
:101DA00018BFA36BB1F5405FF5D8013A012AF1DC09
:101DB000FFF794FEFFF76AF870BD00BF602BFF1FAE
:101DC00000C002403429FF1F3D29FF1F681EFF1F6E
:101DD00070B505464FF038400E46FFF705F88949C3
:101DE0004FF6FF73CA6A013B12F4704F9BB201D0E9
:101DF000002BF7D1834B4FF00042DA621A464FF6C0
:101E0000FF73D16A013B00299BB201DB002BF8D1A3
:101E10007C4BDC6AC4F30314002C35D17A4B794A2D
:101E200018787A49000440F0004343F0D903536323
:101E30000B78284310361D0440F000402E435663B3
:101E4000114650634FF6FF735563CA6A013B12F4A3
:101E5000704F9BB201D0002BF7D16A4B4FF000427C
:101E6000DA621A464FF6FF73D16A013B00299BB232
:101E700001DB002BF8D1634BDA6A12F0F00F5ED170
:101E8000FFF704F8204670BD9C6BDA6A12F0F00F81
:101E9000E4B2C3D09C6BDA6A12F0F00FE4B2BDD0AA
:101EA0009C6BDA6A12F0F00FE4B2B7D09C6BDA6A7E
:101EB00012F0F00FE4B2B1D09C6BDA6A12F0F00FBE
:101EC000E4B2ABD09C6BDA6A12F0F00FE4B2A5D0AA
:101ED0009C6BDA6A12F0F00FE4B29FD09C6BDA6A66
:101EE00012F0F00FE4B299D09C6BDB6A13F0F00FA4
:101EF000E4B293D0434B9C6BDA6A12F0F00FE4B279
:101F00008CD09C6BDA6A12F0F00FE4B286D09C6B36
:101F1000DA6A12F0F00FE4B280D09C6BDA6A12F049
:101F2000F00FE4B23FF47AAF9C6BDA6A12F0F00F74
:101F3000E4B23FF473AF9C6BDB6AE4B26EE79C6B78
:101F4000DA6A12F0F00FE4B29AD09C6BDA6A12F0FF
:101F5000F00FE4B294D09C6BDA6A12F0F00FE4B2A6
:101F60008ED09C6BDA6A12F0F00FE4B288D09C6BD2
:101F7000DA6A12F0F00FE4B282D09C6BDA6A12F0E7
:101F8000F00FE4B23FF47CAF9C6BDA6A12F0F00F12
:101F9000E4B23FF475AF9C6BDA6A12F0F00FE4B272
:101FA0003FF46EAF9C6BDB6A13F0F00FE4B23FF4CA
:101FB00067AF144B9C6BDA6A12F0F00FE4B23FF497
:101FC0005FAF9C6BDA6A12F0F00FE4B23FF458AFE7
:101FD0009C6BDA6A12F0F00FE4B23FF451AF9C6BE5
:101FE000DA6A12F0F00FE4B23FF44AAF9C6BDA6A9F
:101FF00012F0F00FE4B23FF443AF9C6BDB6AE4B243
:102000003EE700BF00C00240602BFF1F681EFF1F9D
:1020100010B504464FF03840FEF7E6FE204B214A4B
:102020001B781B0443F0004343F036035363D36A29
:1020300003F4704113F0F00F18BF936BB1F5405FDC
:10204000F5D804F00300184B022818701ED003289E
:102050000AD0012811D04820FFF714FD134B0122AC
:102060001A70FEF713FF10BDE820FFF70BFD0F4BB2
:1020700000221A70FEF70AFF10BD2820FFF702FDAC
:102080000A4B00221A70FEF701FF10BD8820FFF7EF
:10209000F9FC064B01221A70FEF7F8FE10BD00BFD6
:1020A000602BFF1F00C002404426FF1F341FFF1F8C
:1020B000F8B5152020F050FA344D354E2870062022
:1020C00020F04AFA2B78002103430F203370FFF7EA
:1020D0007FFE04464FF03840FEF786FE042796F850
:1020E00000E02D782B482C497E1E4FEA0E4E2D0421
:1020F000F6B277B3437843EA0E0343F000434B63F1
:10210000871CCB6A03F4704213F0F00F18BF8B6B7F
:10211000B2F5405FF5D8B31C00EB030C38466045C0
:1021200011D010F8013B2B4343F000434B63CB6AC3
:1021300003F4704213F0F00F18BF8B6BB2F5405FE1
:10214000F5D86045EDD1B819BF5D7E1EF6B2002FFF
:10215000D0D11120FFF76AFCFEF798FE782021F01D
:10216000E3FC4FF03840FEF73FFE2920FFF75EFC0E
:10217000FEF78CFE094A0A4B17602D201F70FFF7EF
:1021800047FF084B20461F70F8BD00BF681EFF1FA9
:10219000602BFF1FDCE8030000C002402C1FFF1F64
:1021A000521EFF1F7829FF1F2DE9F0411A4C267897
:1021B000012E82B005460C461746984609D0174BAB
:1021C0001B788BB1164A174B15801C8002B0BDE8F6
:1021D000F081C2F1EF031C46104B1B7847460D46B9
:1021E000C0F1EF08002BEDD101220F4901A8FEF745
:1021F000C9FD0198FEF7F8FD1FFA88F3BAB2A1B243
:10220000A8B2FFF797FC2C20FFF710FCFEF73EFE6C
:1022100002B0BDE8F08100BF341FFF1F7829FF1F07
:10222000D028FF1FD228FF1F80C3C901074B197890
:1022300031B10021084640F23F13EF22FFF7B4BF4F
:10224000EF2340F23F120846FFF7AEBF341FFF1FD7
:102250001E4B1B7843B31E4B1B78012B10D01D4B1C
:102260001D4A1B88128803EB830302EB4313B3F56B
:10227000964F04DA194A126822F813007047704723
:10228000174B1B78002BEAD0124B134A1B8812887D
:1022900003EB830302EB8313B3F5963FEFDA114AA6
:1022A000126822F81300704710B582B001220E495F
:1022B000044601A8FEF766FD0198FEF795FDA0B261
:1022C000FFF70CFCFEF7E2FD02B010BD7829FF1FFE
:1022D000481FFF1FD228FF1FD028FF1F3C1EFF1FD3
:1022E000AC1EFF1F5428FF1F80C3C9012DE9F04F0A
:1022F0004E4C277883B091461E4605460C46DFB10A
:102300004B4B1B78002B4FD104EBD47406EBD676E5
:102310006410761005EBD57509EBD979B4424FEA14
:1023200065054FEA690945D04D4509D14FF0FF33A6
:10233000C9EB0507019309E099425FD0904267D04D
:102340004D45F3DA0123C5EB09070193A642CBBF44
:10235000C4EB0608C6EB040801234FF0FF33B84571
:1023600000932CD94FEA5809DFF8CCB0DFF8CCA0A5
:10237000C9F10009234621462A462846FFF714FFE3
:102380009AF800309BF8000043EA0020FFF760FF56
:10239000009BB4421C440FD019EB0709EAD4019BFF
:1023A000C8EB09091D44E5E7224B1B78002BABD095
:1023B000B442B9D12646B7E703B0BDE8F08F7E0836
:1023C000DFF874B0DFF874A076422A462846234628
:1023D0002146FFF7E9FE9AF800309BF8000043EA37
:1023E0000020FFF735FF019B4D451D44E4D016EB5F
:1023F0000806EAD4009BF61B1C44E6E7B5F5A07F6F
:1024000001DAEF2C0DDD03B0BDE8F04FFFF70EBF92
:10241000B5F5A07FF7DAEF2CF5DC321BFFF782FC75
:10242000F1E7C5EB0902FFF725FCECE77829FF1F70
:10243000481FFF1FAC1EFF1F3429FF1F3D29FF1F30
:10244000F8B505464FF03840FEF7CEFC0021EF23EB
:1024500040F23F120846FFF76DFB1A4B1A4A1B78F1
:102460001B0443F0004343F02C0353631346DA6A22
:1024700002F4704112F0F00F18BF9A6BB1F5405F93
:10248000F5D8124E104CADB2F027307845EA004036
:1024900040F0104040F23F116063E36A03F4704281
:1024A00013F0F00F18BFA36BB2F5405FF5D80139F8
:1024B000F2D12846FFF712FB013FE6D1FEF7E6FC1A
:1024C000F8BD00BF602BFF1F00C00240681EFF1F49
:1024D00090422DE9F041044617460D461E4601DDA7
:1024E00014460746B54202DD2B4635461E46B4F576
:1024F000A07F07DAEF2DC4EB070812DDEF2E22DDF7
:10250000BDE8F081B7F5A07F09DAEF2DF8DC761B86
:10251000324629463846BDE8F041FFF703BCBDE826
:10252000F081424629462046FFF7A4FBEF2E0ADD44
:10253000761B204632462946FFF7F4FBB7F5A07F0D
:10254000E6DBBDE8F081424631462046FFF792FBCC
:10255000EF2DEDDDBDE8F0812DE9F041904282B034
:1025600004460F4601DD144602469F4202DD39460D
:102570001F460B46B4F5A07F5EDAEF2F5CDCB2F5A8
:10258000A07FD4BF161BC4F5A076F02BD8BFDD1BEF
:102590004FF001024FF00003294901A8C8BFC7F15D
:1025A000F005FEF7EFFB0198FEF71EFCB9B2A0B2F2
:1025B0004B1E421E2B4432449BB292B2FFF7BAFA32
:1025C000204B21491B781B0443F0004343F02C03AC
:1025D0004B63CB6A03F4704213F0F00F18BF8B6BA0
:1025E000B2F5405FF5D8194A194B17781B78002DC2
:1025F00043EA07271EDD144C1FFA87F8012E14DD6D
:10260000144B187847EA004040F0104031466063B0
:10261000E36A03F4704213F0F00F18BFA36BB2F536
:10262000405FF5D801390129F1D14046FFF756FA4C
:10263000013DE3D1FEF72AFC02B0BDE8F08100BF06
:1026400080C3C901602BFF1F00C002403429FF1F57
:102650003D29FF1F681EFF1F2DE9F04F904283B0F8
:10266000054616460C461F4601DD15460646BC4289
:1026700002DD23463C461F46C5EB0608B8F1040FB1
:1026800039DDC4EB0709B9F1040F34DD05F1010AA6
:10269000BAF5A07F04F1010330D306F1FF3BBBF58F
:1026A000A07F32D305F1020ABAF5A07F05DAEF2C3C
:1026B000A8F1040846DDEF2F3EDDB5F5A07F04F15B
:1026C0000204A9F1040911DAEF2C14DC28464A4669
:1026D0002146FFF727FBB6F5A07F0CDA4A462146D4
:1026E000304603B0BDE8F04FFFF71CBBB6F5A07F46
:1026F00001DAEF2CF2DD03B0BDE8F08FEF2B2CD91F
:1027000006F1FF3BBBF5A07F2ED2EF2B20D9BAF507
:10271000A07F07F1FF330CD2EF2BC3D819465046E8
:102720000193FFF773FA019B19465846FFF76EFABB
:10273000B8E7EF2BB6D8F7E7424639465046FFF7E1
:1027400099FABAE7424621465046FFF793FAB2E7B4
:1027500019465846FFF75AFAD9E7194650460193E9
:10276000FFF754FA019BCBE7791EEF299AD8504620
:10277000FFF74CFA96E700BF2DE9F04F904285B085
:1027800006460F469B4601DD164602465F4502DDC2
:1027900039465F468B46951B042D34DDC7EB0B088D
:1027A000B8F1040F2FDD7B1C00930BF1FF33019375
:1027B000AB1E02932B1F4FEA680806F1020A06F1CE
:1027C0000109002403930CBBBAF5A07F04DAEF2FB4
:1027D0001FDDBBF1EF0F24DDB9F5A07F05DA009B0B
:1027E000EF2B34DD019BEF2B2BDD0224B6F5A07F10
:1027F00006DA3919EF291FDDC4EB0B01EF2916DDCD
:1028000001344445DFDD05B0BDE8F08F012CE3D095
:10281000ECE7039A39465046FFF72CFABBF1EF0F6D
:10282000DADC039A59465046FFF724FAD4E72A46E1
:102830003046FFF71FFAE3E72A463046FFF71AFA59
:10284000DAE71946029A4846FFF714FACDE7029AEA
:1028500019464846FFF70EFAC4E700BF2DE9F04FCE
:10286000834B8BB01B7809900391924693B1814BB7
:102870001B78002B40F0F680099B03EBD371039B80
:1028800003EBD37249100AEBDA73521009910392E9
:102890004FEA630A039FDDF82480774C774D07EBFE
:1028A0000A094FEA4A0649464B46424640467642A6
:1028B0000896FFF779FC2B782078CAEB070243EAE9
:1028C00000203E4607921746FFF7C2FC42463946B3
:1028D00010463B46FFF768FC2B78207808EB0A0B84
:1028E00043EA0020FFF7B4FC5A46584633463146C7
:1028F000FFF75AFC2B782078CAEB08010F4643EA11
:1029000000200691FFF7A4FC3A463846334631468C
:10291000FFF74AFC2B78207843EA0020CAF1010334
:102920000193FFF795FCBAF1000F40F39680012761
:10293000CDF80890099904977E0001EB0709C6EBD2
:1029400009030093039B03EB0708C6EB080306F19A
:10295000010E019E0593002E4A46484607F10107E5
:1029600013DB089B02331E440893039B01960AF174
:10297000FF3A03EB0A06CAEB030302960793019E94
:10298000CAEB010301EB0A0B0693029976440B464E
:102990000196FFF709FC2B78207843EA0020FFF727
:1029A00057FC029900980B460246FFF7FDFB2B7877
:1029B000207843EA0020FFF74BFC079E4A46314649
:1029C00033464846FFF7F0FB2B78207843EA002097
:1029D000FFF73EFC009A314610463346FFF7E4FB12
:1029E0002B78207843EA0020FFF732FC414643462B
:1029F0005A465846FFF7D8FB2B78207843EA002048
:102A0000FFF726FC069E4146434632463046FFF716
:102A1000CBFB2B78207843EA0020FFF719FCDDF888
:102A200014805A46414643465846FFF7BDFB2B7873
:102A3000207843EA0020FFF70BFC4346324641462C
:102A40003046FFF7B1FB2B78207843EA0020FFF7F0
:102A5000FFFB049B9A453FF76DAF0BB0BDE8F04F0D
:102A6000FFF7E4BB064B1B78002B7FF413AF03E7A3
:102A70007829FF1F481FFF1F3429FF1F3D29FF1F13
:102A8000AC1EFF1F2DE9F04FDFF8A0928BB099F834
:102A9000003003910546029273B1944B1B78002BD2
:102AA00040F01E81039B03EBD372029B03EBD373B5
:102AB00052105B10039202938D4B1A78002A5ED15C
:102AC0008C4BDFF860A21C78002C00F033819AF860
:102AD00004109AF805009AF80640CB0813FB00F0A2
:102AE0002C1B00FB04F404340094002842D0DFF8CF
:102AF0004092DFF82C8201920398019AB2FBF3F323
:102B00000A1802990B441946013AFFF74DFB9AF84F
:102B10000410CB085D1E0BB3774F784EDAF8003007
:102B20005A19009BD45C4FF0000B44FA0BF3D90701
:102B300047BF98F80000337899F800003B780BF114
:102B4000010B43EA0020FFF783FBBBF1080FECD138
:102B500015F1FF35E2D29AF80410CB0801989AF8E3
:102B60000520009C184403FB02F21C4482420190A1
:102B70000094C1D80BB0BDE8F04FFFF757BBDFF8AA
:102B8000A4A19AF804309AF805109AF80600DB0818
:102B900003FB01F22D1A02FB05F52A1D05920029FF
:102BA000E8D0029ACDF818A002F1010B03F0FF0261
:102BB000002B00F08980039B0093C3F1EE03019387
:102BC00000230BF1FF3A0493069B059A1B68019FB3
:102BD000009D1344049A072413F8028013E099F827
:102BE00000005B4632465146D8B1454B454A1980F4
:102BF000158048FA04F3DA0746D4013C631C3546D5
:102C000007F1FF374ED03B4B1B78012B05F1010636
:102C1000E5D199F800007B1C5A46394655460028F4
:102C2000E3D14FF03840099208910793FEF7DCF8A2
:102C3000079B099A08999BB292B289B2A8B2FEF793
:102C400079FF2C20FEF7F2FE2F4B1B78002BD0D003
:102C5000DA0703D52D492E4A096811609D0703D56F
:102C60002A4A2C4952680A60580703D5274A2A493C
:102C700092680A601907BCD5244B284ADB681360A8
:102C800048FA04F3DA07B8D5254A1C4B10781B78AC
:102C9000013C43EA0020FFF7DBFA631C354607F1ED
:102CA000FF37B0D1069B009C049A1B791D4908345C
:102CB0000132DB080094019C04921046DAB2083C11
:102CC0008242019480DC49790298059CC0EB0B009C
:102CD0001444814205940BF1010B3FF667AF49E7BD
:102CE000114B1B78002B7FF4E7AEDBE6481FFF1F7C
:102CF000521EFF1F341FFF1F3826FF1F3D29FF1FD5
:102D0000D228FF1FD028FF1FE42BFF1FD42BFF1F4B
:102D100000E100E004E100E008E100E00CE100E097
:102D20003429FF1F2C1FFF1FAC1EFF1F7829FF1F18
:102D30009225FF1F9AF805309AF80420029903980B
:102D40000B440244013B013AFFF72EFA9AF80420A3
:102D50009AF805309AF80690D20812FB03F3C9EBF3
:102D6000050903FB09F909F10409002B3FF402AF3F
:102D7000DFF86880164F174E174D0094DAF80030D0
:102D800013F809404FF0070B44FA0BF2D00747BF86
:102D900030782A7898F800003A7842EA0020FFF765
:102DA00057FA1BF1FF3BEFD29AF8042000999AF8EA
:102DB0000530D208013112FB03F38B42009109F177
:102DC0000109DBD80BB0BDE8F04FFFF72FBA00BF09
:102DD0003826FF1F3429FF1F3D29FF1F9225FF1FA3
:102DE000174BF0B41B6804331A780A705C784C6097
:102DF0009E788E60DD78CD601C797F2CC8BFC4F5CD
:102E000080740C619F1D82425B794B610BD0FF2A5D
:102E100012D016FB05F56EB16B1E48BFAB1D07EB5C
:102E2000E3030133E0E7B2F1FF0018BF01208F6137
:102E3000F0BC70473B46D7E700208F61F0BC70477D
:102E40002C1FFF1F2DE9F04F8BB08B4603A9019279
:102E5000FFF7C6FF00284FD0354C364D364B217852
:102E60002A781B7842EA01220092002B47D0059B6A
:102E7000002B40D0069A002A3DDD4FF00008099F44
:102E8000C14646468025002B2EDD019A00210C46C6
:102E900002EB080A09E02A4616424FEA550510D10E
:102EA0000134E4B29C4221461DDA03FB08125207AA
:102EB000F1D13E78802216424FF0400507F101071C
:102EC000EED0079A049B5A440A44534419461046CC
:102ED000FFF76AF90098FFF7BBF90134059BE4B2EC
:102EE0009C422146E1DB069A09F101095FFA89F962
:102EF0009145C846C7DB08980BB0BDE8F08F0F4975
:102F00000F4B0978089A5B790E4821700199067871
:102F10002E705A440B4401325846FFF71DFB009AAD
:102F20002A70130A2370059B002BA3D1E3E700BF8F
:102F30003429FF1F3D29FF1F521EFF1F9225FF1F2F
:102F40002C1FFF1F3826FF1F2DE9F04F2DED068B9C
:102F50008BB009EE101A03A9994609EE902AFFF7E3
:102F60003FFF002879D0059A002A73D0DDED1A7A48
:102F70009FED4E7A0192F8EEE77A67EE877A17EEC8
:102F8000900A27F0C1F841EC100B41EC1A0B25F028
:102F9000EFFB51EC100B27F0E3FBB0EE4A0AF0EE2A
:102FA0006A0A08EE100A25F043FC51EC100B27F0DA
:102FB000D7FB069B002B08EE900A4BDD3C483D49B1
:102FC00090F800B00978DDF82480DFF8F4A0019AC9
:102FD000002541EA0B2B2F468026002A37DDF8EE2C
:102FE000C9AAB8EEE9AA002425E031467608049B78
:102FF000EB1806EE903A04EB090307EE903AF8EE70
:10300000E66AB8EEE76A66EEE87A28EE867AE8EED7
:10301000067A0F42A8EE267A77EEAA7A37EE0A7A77
:10302000FDEEE77ABDEEC77A1CD19AF8003043B3C3
:10303000013494420ADA02FB05435B07D5D198F8C4
:103040000070402608F101088021D0E7069B013579
:103050009D42C2DBFFF7EAF808980BB0BDEC068B87
:10306000BDE8F08F17EE902A17EE900A17EE103A8F
:1030700017EE101AFFF798F85846FFF7E9F8059A87
:10308000D6E717EE103A17EE902A17EE900A17EED1
:10309000101AFFF789F8084B1878084B1B7843EA99
:1030A0000020FFF7D5F8059AC2E700BF295C8F3CE6
:1030B0003429FF1F3D29FF1F9225FF1F3826FF1FC0
:1030C000521EFF1F2DE9F04F2DED028B93B0DDED69
:1030D0001E7A9FED597ADFF878B11192F8EEE77A0F
:1030E000044667EE877A0C9317EE900A109127F04A
:1030F0000BF89BF8046041EC180B9BF806009BF85A
:103100000510F30803FB01F2201A02FB00F0021D78
:103110000E92002900F09E8100220F92344603F0A7
:10312000FF02002B00F08C81109826F0DBFFB0EE40
:10313000480AF0EE680ACDE9000125F019FB0F9866
:1031400059EC108B8DED020B26F0CCFFB0EE480A47
:10315000F0EE680A06460F4625F06AFB304653EC4F
:10316000102B39468DED040B27F022F8CDE906012E
:10317000119826F0B7FF3B46CDE90801324640469C
:10318000494627F015F8CDE90A0100230D930E9A60
:10319000DBF8003013440D9AD70013F802A007376C
:1031A000072520460C9A7B1B02FB003026F09AFF75
:1031B000DDE902238046894626F0FAFFDDE9062391
:1031C00026F042FEDDE9002326F040FE27F0A0FABB
:1031D000DDE9042304464946404626F0E9FFDDE9DF
:1031E0000A2326F033FEDDE9082326F02FFE27F020
:1031F0008FFA124B1978012900F1010304F1010241
:1032000028D00F49097800292FD00E4A0E494AFAD2
:1032100005F3A4B280B2DE071480088000F121819A
:103220000A4B1B78002B00F0338115F1FF35C0F0FD
:10323000FA809BF80400B5E7295C8F3C341FFF1F20
:103240007829FF1FD028FF1FD228FF1F521EFF1F03
:103250002C1FFF1FC2F1EF011A46C4F1EF03044611
:103260000846A04909780029CFD19F49097800294B
:103270003CD072B69C490978CE070FD5DFF88CC2D6
:10328000DFF88CE2DCF80090DEF800E0DFF8608226
:1032900009EA0E0EC8F800E0CCF800E08E070FD562
:1032A000DFF870C2DFF868E2DCF80090DEF804E0D6
:1032B000DFF83C8209EA0E0ECCF800E0C8F804E022
:1032C0004E070FD5DFF850C2DFF844E2DCF800907B
:1032D000DEF808E0DFF8188209EA0E0ECCF800E00C
:1032E000C8F808E00E0700F1708162B67F49D1F896
:1032F0000CE0BEF1384F0FD0DFF824C2C1F800C097
:103300004FF0384CC1F80CC0DFF818E24FF0784CA1
:10331000C1F810C0C1F800E09BB292B281B2A0B275
:10332000FEF708FC2C20FEF781FB6F4B1A78A2B148
:10333000D40703D56E496F4B09681960900703D510
:103340006B4B6D495B680B60510700F139811307C6
:1033500003D5674B6949DB680B604AFA05F3D80768
:1033600000F1F080664B1B78002B7FF45EAF654A5E
:10337000654B10781A785B4B1B7842EA0020002BD3
:1033800040F07981584B1B78002B32D072B6564BE7
:103390001B78D90709D55D495D4AD1F800E012686C
:1033A000534C0EEA020222600A609A0709D5594975
:1033B000574AD1F800E052684D4C0EEA02020A600A
:1033C00062605E0709D55449514AD1F800E092681D
:1033D000474C0EEA02020A60A2601C0708D54F4A59
:1033E0004B4B1168DB68424A0B404C490B60D36081
:1033F00062B63E4BDA68B2F1384F09D048491960DD
:103400004FF03841D960474A4FF0784119611A604E
:10341000FEF764FB344B1B78002B40F0B78015F1AE
:10342000FF35BFF406AF0D9A9BF804403E490132C8
:10343000E30810460D92DAB282423FF7A8AE49790E
:103440000F980E9D0130C0B2154488420F900E9522
:10345000FFF465AE13B0BDEC028BBDE8F04FFEF794
:10346000E5BE324A324B12781B7843EA0223314AD6
:103470001278012A00EB800024D004EB4014B4F54C
:10348000964FBFF6D2AE2C4A126822F81430CCE622
:103490001C481D4B00781B7843EA0020254B1B7805
:1034A000012B00F0D4800B88128803EB830302EB1E
:1034B0004313B3F5964FBFF6B8AE1F4A126822F811
:1034C0001300B2E61D4A1278002AD6D004EB80140D
:1034D000B4F5963FBFF6A9AE194A126822F8143027
:1034E000A3E600BF7829FF1FE42BFF1F00C00240A6
:1034F000D42BFF1F00E100E004E100E00CE100E05C
:10350000521EFF1F9225FF1F3826FF1F80E100E09B
:10351000C42BFF1F84E100E088E100E08CE100E0C3
:1035200001401F0000001F802C1FFF1F3429FF1FB8
:103530003D29FF1F481FFF1F3C1EFF1FAC1EFF1F22
:103540005428FF1F5049514B087851491B7809787E
:1035500043EA0023002940F09180002A43D14D4ADC
:10356000D168B1F1384F09D04B4810604FF0384066
:10357000D0604A494FF07840106111601846FEF75C
:10358000ADFA474B1B78002B3FF44FAED80703D55D
:103590004449454A09681160990703D5414A43499E
:1035A00052680A605A0703D53E4A414992680A6048
:1035B0001B077FF53AAE3B4B3E4ADB68136034E6AF
:1035C000384B3B499B680B60C1E63B4E3B49DFF8FB
:1035D000D4E0D1F800C0F168384E0CEA0101316046
:1035E000CEF80C1081E672B62D4A1278D10709D5B3
:1035F00033483149D0F800E009682A4C0EEA01014D
:1036000021600160960709D52E482B49D0F800E0CB
:103610004968244C0EEA010101606160540709D534
:1036200029482549D0F800E089681E4C0EEA0101BE
:103630000160A160100708D520491F4A0868D268B8
:10364000184902401D480260CA6062B687E71F4BF6
:103650001B78002B3FF427AF0B88128803EB830302
:1036600002EB8313B3F5963FBFF6DFAD184A12683D
:1036700022F81300D9E5174A17490FE71649154AEA
:1036800008881488F3E600BF3429FF1F3D29FF1F77
:103690007829FF1F00C0024001401F0000001F806A
:1036A000E42BFF1FD42BFF1F00E100E004E100E04A
:1036B00008E100E00CE100E0C42BFF1F8CE100E01A
:1036C00080E100E084E100E088E100E0AC1EFF1F43
:1036D0005428FF1FD028FF1FD228FF1F2DE9F04FCD
:1036E00083B09A460D461646044628F0C9F9584B51
:1036F0001B7807464BB1574B1B78002B75D105EB58
:10370000D57506EBD6766D107610534B1B78C3BB80
:1037100042F20F739D4200F08D8042F20E739D4283
:103720006ED0002F2ADDBAF1000F3ED04FF0000915
:10373000DFF82C810134CB460CE014F8010CCDF8F5
:1037400000A05B460BF1010BFFF7BCFC5F4504F1E9
:10375000010413D098F804004B463246294600284D
:10376000EBD114F8010CCDF800A0FFF7EDFB0BF145
:10377000010B5F45814404F10104EBD103B0BDE8C6
:10378000F08F42F20F739D4246D042F20E739D427B
:10379000C7D1DFF8CC8098F8045007FB05F5C5F1D8
:1037A000F00505EBD5756D10BBE7DFF8B480013788
:1037B0002744C146013408E014F8010CFFF742FB2E
:1037C000013005440134A742D8D098F80430294686
:1037D0003246002BF0D02946324614F8010CFFF790
:1037E00051F999F804301D44ECE71C4B1B78002B71
:1037F0008BD105EBD57506EBD6766D10761084E788
:10380000DFF85C8098F8045007FB05F5C5F5A07556
:1038100005EBD5756D1084E7DFF8448098F8045007
:1038200007FB05F5C5F1F00542F20E739D427FF4EA
:1038300078AFAEE7DFF8288098F8045007FB05F56D
:10384000C5F5A07542F20E739D427FF46AAFD7E7CB
:103850007829FF1F481FFF1F341FFF1FAC1EFF1FCB
:103860002C1FFF1F2DE9F047294C2A4F208B618B1D
:10387000A28BE38B3D68DFF8B880DFF8B890024494
:103880000B442E0A033A0330033B033188F80060EF
:1038900089F80050FEF760FE1F4A204B12681A603C
:1038A00092F800A083F804A055781D495D719078C6
:1038B0000968666A9871D27889F800103046090A5A
:1038C000DA7188F8001028F0DBF8A18B238BB4F8AC
:1038D0001EE03F68628B03EB51036D0800FB0AF0AA
:1038E000C5EB5E05A3EB50017B1C2A440DD00D48AF
:1038F0000D4B3C0A04701F7000250C4C304625709F
:103900000023BDE8F047FFF7E9BE0125F5E700BF5A
:103910008029FF1F381FFF1F3C26FF1F2C1FFF1F82
:10392000642BFF1F9225FF1F3826FF1F521EFF1F0B
:103930003429FF1F3D29FF1F2DE9F04F294CDFF8E7
:10394000B88020886188A288E388DFF8B0900244BC
:103950000B4481B0BE277F26033A0330033B03317B
:1039600088F8007089F80060FEF7F6FD1E4A1F4BCC
:1039700012681A6092F800B083F804B055781C49B8
:103980005D719078D4F80CA009689871D27889F8A4
:1039900000105046090A88F80010DA7128F070F813
:1039A000B4F806C0B4F804E02388628800FB0BF189
:1039B0006D081048C5EB5C0503EB5E030024DFF8DF
:1039C00040C0DFF840E00770A3EB510150462A44A5
:1039D00023468CF800608EF8004001B0BDE8F04F3F
:1039E000FFF77CBE8029FF1F3C26FF1F2C1FFF1FF7
:1039F000642BFF1F9225FF1F3429FF1F3D29FF1F46
:103A00003826FF1F521EFF1FF8B505464CF65960B9
:103A1000FEF716FD144B154C1878207128465D787A
:103A2000657123609D78124EDB781249124AA571A8
:103A3000E3710025CE2333700D70104F104E3D7092
:103A4000592111702B46192242F20E713570FFF781
:103A500045FE0C4B2360187859789A78DB78E3712F
:103A600020716171A271F8BDFCF003002C1FFF1FD3
:103A70009225FF1F521EFF1F3826FF1F3429FF1FEC
:103A80003D29FF1FE0FC03002DE9F04706211F4FF1
:103A90001F4E204D204C82464FF0CE0908464FF075
:103AA0005908EA234FF49D7287F8009086F8008049
:103AB000FEF762FE194BDFF870E083F800900022F9
:103AC0008EF8008095F800C095F801E014493A702E
:103AD000AF783270EE780A7013465046192242F2DF
:103AE0000E7184F804C0256084F805E0A771E671C2
:103AF000FFF7F4FD0B4B2360187859789A78DB7840
:103B0000E37120716171A271BDE8F0873429FF1F54
:103B10003D29FF1FFCF003002C1FFF1F9225FF1FF4
:103B2000521EFF1FE0FC03003826FF1F2DE9F04165
:103B30008568DFF844E0DFF8448005F1080323F0EE
:103B4000070300AFADEB030D4FEA122C14460E46EF
:103B50006A1C694600238EF800C088F8004022F0F5
:103B6000FDF832466846002342F20E71FFF7B6FDBB
:103B7000BD46BDE8F08100BF3429FF1F3D29FF1F6E
:103B8000F0B5064685B04CF65960FEF759FC4B4B34
:103B90004B4C1F7859786171277123609978494D92
:103BA000DB78E3714848494AA171CE232B70592331
:103BB0000025037031466846157021F0B1FE684655
:103BC0001F221421FFF7B2FF684621F07DFF404B12
:103BD0002360197858789A78DB782171607106F142
:103BE00010016846E371A27121F09AFE2A466846E8
:103BF0003721FFF79BFF684621F066FF06F12001A1
:103C0000684621F08DFE2A4668465021FFF78EFF58
:103C1000684621F059FF06F13001684621F080FE28
:103C20002A4668466921FFF781FF684621F04CFF6C
:103C300006F14001684621F073FE2A46684682215B
:103C4000FFF774FF684621F03FFF06F15001684618
:103C500021F066FE2A4668469B21FFF767FF68460B
:103C600021F032FF06F16001684621F059FE2A4634
:103C70006846B421FFF75AFF684621F025FF6846E1
:103C8000144921F021FE68461F22D421FFF74EFF80
:103C9000684621F019FF03E021F07AFA002809DCD8
:103CA000FDF744FE0028F7D0FDF740FE0028FBD1C9
:103CB00005B0F0BDFCF774FFF2E700BFFCF00300B5
:103CC0002C1FFF1F9225FF1F3826FF1F521EFF1FAC
:103CD000E0FC0300281C03002DE9F041856805F194
:103CE000080424F0070400AFADEB040D16460C46A3
:103CF00098466A1C6946002322F030F84346324653
:103D000021466846FFF7EAFCBD46BDE8F08100BFEA
:103D10002DE9F0478EB000280E46174698469DF8CC
:103D200058101CD1002B6ED0012B74DD5C1E0DF1E0
:103D30001C092246484627F0D1F90EAB18199844C1
:103D40003022002300F81C2C08F81C3C3A4631466F
:103D500048460023FFF7C2FC0EB0BDE8F087B4BFB1
:103D600001250025DFF8BCE0B8BF4042AC460DF1AC
:103D7000FF3300248EFB0029C217C2EBA90202EB1D
:103D80008202A0EB4202801A8EFB00A9C0173032DB
:103D9000D0EBA90004F1010403F8012FEAD10EAB26
:103DA000234403F8380CBCF1000F02D02D238DF80A
:103DB0001C3004EB050AD04516DC4FF000080DF16D
:103DC0001C0905EB0803013B69464B446C4414F89D
:103DD000012D03F8012FA142F9D10EAB9844C24442
:103DE00000230AF81C3CB1E7C4EB0808C5EB08083F
:103DF000B8F1000FE1DD0DF11C0909EB05004246A9
:103E000027F06CF9DDE730238DF81D808DF81C302C
:103E10000DF11C099AE704464FF001080DF11C0949
:103E20008BE700BF676666662DE9F04F8BB00746EB
:103E30000493159E149D00238A4614467A49012254
:103E400009A8FCF79FFF0998FCF7CEFF012E774BDE
:103E500000F0A9801A78049B002A55D0002B44DD7D
:103E6000BBB2B2B20293013B14FB02339BB2079286
:103E700062000393AB180193002306921FFA8AFA9B
:103E8000013C0593002EC8BF4FF000091FDD0AEB6F
:103E900009039BB21946039A0298FDF74BFE2C20AA
:103EA000FDF7C4FD002C0EDBDDF80480274638F852
:103EB00002BD002501355846FDF710FEAE42F9D18E
:103EC00017F1FF37F3D209F101094E45DFD1079B06
:103ED000019A06999A440A44059B0192049A013377
:103EE0009A4205931FFA8AFACCD10021084640F283
:103EF0003F13EF22FDF71EFE2C20FDF797FDFCF788
:103F0000C5FF0BB0BDE8F08F002B3DDDBBB2B1B2F9
:103F10000593013B14FB01339BB2079363000691A9
:103F200001921FFA8AF10293069B079A059801EB0A
:103F3000030B1FFA8BF30393FDF7FCFD2C20FDF719
:103F400075FD029B002E05EB0309C8BF4FF0000A68
:103F500012DD002CC8BFAB460ADD3BF8028B002700
:103F600001374046FDF7BAFDBE42F9D1D945F4D13B
:103F70000AF1010A5645ECD1019B049A03990133D9
:103F80009A4201934D46CFD100210846EF2340F2DB
:103F90003F12FDF7CFFD2C20FDF748FDFCF776FF23
:103FA0000BB0BDE8F08F1B7833B3049B002B9CDD76
:103FB000534407EB04099B4609F1FF330293630066
:103FC00056460193A846A2463346029A31463846E1
:103FD000FEF7EAF8002CC8BF05EB4A0905DD39F801
:103FE000020DFDF77BFDC845F9D10136019B5E4509
:103FF0009844A244E8D178E7049E33463A195344E2
:1040000004FB06F4013B5146013A3846FEF7CCF872
:10401000002CC8BF05EB4404B6DD35F8020BFDF7F4
:104020005DFDAC42F9D1AFE780C3C901341FFF1F6A
:104030002DE9F04383B004460F4616466C49DDF87F
:1040400028900B9D0122984601A80023FCF79AFEB8
:104050000198FCF7C9FEB9B2A0B208F1FF33721E95
:104060000B4402449BB292B2FDF764FD614B62497E
:104070001B781B0443F0004343F02C034B63CB6AD3
:1040800003F4704213F0F00F18BF8B6BB2F5405F72
:10409000F5D8B8F1000F40F3A680584F564C387849
:1040A000042E49464FEA004054DDB6460B789B0982
:1040B00035F81330034343F010436363E36A03F4BA
:1040C000704213F0F00F18BFA36BB2F5405FF5D844
:1040D0000B78C3F3011335F81330034343F0104357
:1040E0006363E36A03F4704213F0F00F18BFA36B2D
:1040F000B2F5405FF5D80B78C3F3810335F8133080
:10410000034343F010436363E36A03F4704213F024
:10411000F00F18BFA36BB2F5405FF5D811F8013B63
:1041200003F0030335F81330034343F01043636394
:10413000E36A03F4704213F0F00F18BFA36BB2F5FB
:10414000405FF5D8AEF1040E1FFA8EF3042B0FFA80
:1041500083FEABD80B789B0935F81330034343F04B
:1041600010436363E36A03F4704213F0F00F18BF67
:10417000A36BB2F5405FF5D80B78C3F3011335F8A4
:104180001330034343F010436363E36A03F4704264
:1041900013F0F00F18BFA36BB2F5405FF5D80B78A2
:1041A000C3F3810335F81330034343F010436363D3
:1041B000E36A03F4704213F0F00F18BFA36BB2F57B
:1041C000405FF5D80B7803F0030301F1010935F8DE
:1041D0001300FDF783FC08F1FF339BB20FFA83F85D
:1041E000002B7FF45CAFFCF751FE03B0BDE8F08319
:1041F00080C3C901602BFF1F00C00240681EFF1F63
:104200002DE9F84304460F46164698464FF03840CD
:10421000DDF82090099DFCF7E7FDB9B2A0B208F1E6
:10422000FF33721E0B4402449BB292B2FDF782FC34
:10423000394B3A491B781B0443F0004343F02C03ED
:104240004B63CB6A03F4704213F0F00F18BF8B6B13
:10425000B2F5405FF5D8B8F1000F58DD304F2F4C64
:104260003878022E49464FEA00402EDDB6460B78DC
:104270001B0935F81330034343F010436363E36ACB
:1042800003F4704213F0F00F18BFA36BB2F5405F58
:10429000F5D811F8013B03F00F0335F81330034351
:1042A00043F010436363E36A03F4704213F0F00FCA
:1042B00018BFA36BB2F5405FF5D8AEF1020E1FFA3E
:1042C0008EF3022B0FFA83FED1D80B781B0935F839
:1042D0001330034343F010436363E36A03F4704213
:1042E00013F0F00F18BFA36BB2F5405FF5D80B7851
:1042F00003F00F0301F1010935F81300FDF7EEFBA0
:1043000008F1FF339BB20FFA83F8002BA8D1FCF71A
:10431000BDFDBDE8F88300BF602BFF1F00C0024059
:10432000681EFF1F00B5124B1B7883B03BB11149CB
:10433000114B4FF480704FF4107208601A600F4BED
:104340001B781BB90E4A1278012A09D00D48FCF7D8
:104350004BFD00210F201FF055FB03B05DF804FB5F
:10436000094901A8FCF70EFD0198FCF73DFDF0E7B7
:10437000622BFF1F14B0044004C00440481FFF1FFD
:10438000CD28FF1F000001BA80C3C9012DE9F04FFD
:1043900000F001024308960003EB830316445A0120
:1043A00087B002EB0612C2F59556DFF880E15B4F4D
:1043B000019605921646C2F5155202929EF80080AB
:1043C00097F800A0029A564C564B94F800901C683F
:1043D000554BC6F59547C6F5605E019E04970139B9
:1043E000009106F11F0100EB800501911146049A2E
:1043F000AD013F31C5F595477F3200EB800B02914F
:104400000EF13F0104926E4203914FEA4B1B7F373E
:10441000A03500221AE0B9F1000F25D002EB0B0104
:1044200004EB810E24F8210004EB4501AEF80200F4
:1044300024F8150048800132502A03F10203A7F145
:104440000207A6F1020605F1020535D0187959795F
:1044500051EA002031D0B8F1010F1DD0BAF1000FA0
:10446000D9D1B9F1000FD9D002EB0B01A1F515514B
:104470003F3906F5944C06F5944EC1EB81710CF171
:104480005F0C0EF15E0E24F8170024F8210024F8CA
:104490001C0024F81E00CEE70099B9F1000F05D1E9
:1044A0000329C8D8DFE801F035302B260329C2D80C
:1044B000DFE801F01B140D06012007B0BDE8F08F06
:1044C0000599511801F5615124F81100B3E70599D8
:1044D000511801F5165124F81100ACE7059951184F
:1044E00001F5965124F81100A5E70599511824F813
:1044F0001100A0E70199891A24F811009BE702999D
:10450000891A24F8110096E70399891A24F81100F2
:1045100091E70499891A24F811008CE7622BFF1F98
:104520001229FF1F3C1EFF1F9425FF1FCD28FF1FD0
:104530002DE9F04F9B4B9C4D1B7883B0012B0CBF9A
:10454000042301230193FFF7EDFE01232C46009382
:104550004FF00008B8F1FF0F00F08280934F4FF04A
:10456000010B07F1A3064FF0000A2B6839788F4F33
:104570004FF0004243F480632B601046EA625FFA1A
:104580008AF93A466963BE465178EB6A002BFCDA39
:10459000A76B236843F480632360E062616302F8E1
:1045A000017BB242F0D17746EB6A002BFCDA3B7814
:1045B000A26B87F8A32003F00F020F2A7B4902D0D9
:1045C0004A784A452DD01FF08BFA08F101085FFAAE
:1045D00088F8064600E000BF1FF082FA801BB0F5A5
:1045E000487FF8D3B9F13C0FB4D1009B019A03F195
:1045F000010A5FFA8AF39A420093A9D26C4B012216
:104600001A60FCF743FC6B4B1B783BB16A496B4B60
:104610004FF410704FF4807208601A6003B0BDE868
:10462000F08FB9F1140F0FD000994846FFF7AEFE96
:104630000028C8D0BBF13C0FD7D00BF1010B5FFABB
:104640008BFB0AF1010A90E7564A1278012A00F022
:10465000908000991420FFF799FE0028EDD1B2E771
:10466000574B1B78DBB2012B00F08B80504A554E24
:10467000012313603378BBB1D80703D55249534A9D
:1046800009681160990703D54F49514A496811607B
:104690005A0703D54C494F4A896811601F0703D553
:1046A000494A4D4BD2681A60424B1B783BB1424A93
:1046B000424B4FF4107111604FF480721A60BA20AF
:1046C0001FF032FA3B4B1B783BB13B4A3B4B4FF45C
:1046D000807111604FF410721A60404B1B781BB947
:1046E000304B1B78012B58D03278364B002A2CD017
:1046F00072B61B78D80707D539493A4A0E6812684E
:104700003148324002600A60990707D53649354A78
:104710000E6852682C4832400A6042605A0708D539
:104720003249304A08689268274902402F4802609F
:104730008A601B0708D52E4A2A4B1168DB68224A7B
:104740000B402B490B60D36062B6EA68294B9A4252
:1047500006D0294A2A602949294AEB6029612A6042
:1047600000210F201FF04EF9012300934FF00008A5
:10477000F4E61B113FF427AF009A9A427FF423AF6F
:1047800067E70B4A1360FCF781FB0A4B1B78002B91
:104790007FF43CAF03B0BDE8F08F4FF03840FCF73A
:1047A00023FBDDE7CD28FF1F00C002409425FF1F3B
:1047B00084F00F40622BFF1F14B0044004C004407B
:1047C0007C1EFF1FE42BFF1FD42BFF1F00E100E026
:1047D00004E100E008E100E00CE100E0481FFF1FF9
:1047E00080E100E0C42BFF1F84E100E088E100E0ED
:1047F0008CE100E0000001BA01401F00000001FA56
:1048000000001F8070B52149214B224C4FF480706D
:104810004FF4107208601A6004F26C4104F58C6069
:10482000022314221CF056FD78B91A481CF06CFAC9
:104830002379174A154C5B084FF410754FF48071BB
:10484000256000FB03F0116070BD04F23C401AF0DB
:1048500079FB012120461CF0F1FA80B10D4D05F2E3
:104860003C46304629461AF033FD0028DDD095F845
:104870003C3413F0700F1CBF074B1E60D5E7014698
:1048800020461CF0DBFA0028E8D1CEE714B0044043
:1048900004C004402021FF1FBC2BFF1F2DE9F04165
:1048A000214F224D22484FF480764FF410783E601D
:1048B0008CB0C5F800801DF0D7F81E4B00F2FF74D5
:1048C000C4F3CF241860C7F800802E6044B3FFF70C
:1048D00099FF0A22810A684621F0B8F8694604A8BF
:1048E00021F01EF8144904A821F0DEF90A22054639
:1048F000611E08A821F0AAF808A9284621F094F919
:104900000E4921F0D1F901460D4821F0E5F808A83B
:1049100021F0DAF804A821F0D7F8684621F0D4F89D
:104920000CB0BDE8F08100BF14B0044004C00440E6
:104930008025FF1F3829FF1F441C0300481C03006B
:10494000D428FF1F38B51D481D4B1E494FF4107267
:104950004FF4807404601A60A1F10C000223142249
:104960001CF0B8FC48B900201449154B4FF41074E2
:104970004FF480720C601A6038BD13481AF0E2FAE6
:10498000012112481CF05AFA88B1104C04F23C453F
:10499000284621461AF09CFC0028E4D094F83C34C8
:1049A00013F0700316BF0A4B18461D60DCE7014682
:1049B00006481CF043FA0028E7D1D4E714B00440BD
:1049C00004C004408C25FF1F5C25FF1F2021FF1F12
:1049D000BC2BFF1FF8B5344C4FF400720021204669
:1049E00026F07CFB314A3248324900780968324B64
:1049F00012781E68B1FBF0F512FB00F200FB1515F2
:104A0000B1FBF2F39F080135DFF8B4E084F8C1315F
:104A100007F0C00765F30507AA259EF800E084F8B3
:104A2000FF518D19013D84F8C07184F8C2E1B5FBD6
:104A3000F2F71FFA87FE4FF0550CBEF5806F02FBB0
:104A4000131384F8FEC1B3FBF0F384F8BF3112D323
:104A5000FF20FE2284F8C50184F8C32184F8C40134
:104A6000C4F8C611C4F8CA610F4A14480021BDE851
:104A7000F8401DF0B7B894F8C431B5FBF0FE4FEA2A
:104A8000272C00FB1E5E0EF1010E6CF387136EF3F4
:104A9000050302FB175284F8C571B2FBF0F084F8ED
:104AA000C43184F8C301DBE75426FF1F551EFF1FE6
:104AB0005D29FF1F441EFF1FF820FF1F8025FF1FD9
:104AC000561EFF1F2DE9F04F7A4E7B4BD6F800E0C3
:104AD0001D78DFF80C82DFF80CA2AEF58070B0FB19
:104AE000F5F000F20112120A54004FF4807104F143
:104AF000A1078F42C8F8002083B0CAF8001088BF11
:104B00004FF4C07201D8D2E06246C2EB0E00B0FB97
:104B1000F5F000F20111090A4C0004F1A1079742D7
:104B200002F1800CF0D8CAF80020C8F80010D21B9F
:104B300004F12101DFF8B091604C614FDFF8ACB1B6
:104B400000FB051002F18005C9F8005047F6A77573
:104B500081320121A84220603A60ABF8001000F2D7
:104B60009E80584A1170584D0193FFF733FF4FF460
:104B700000720021284626F0B1FA019BBBF800E044
:104B800052492268A5F80EE055244FF0AA0E50486D
:104B900093F800C00978D8F800302A6285F8FE4101
:104BA000EB22902485F8FFE14FF0F80E007885F8AD
:104BB0000DC02A704FF0290C8022AC7085F815E0EA
:104BC00000244FF0203EEB8269830223D9F80010C5
:104BD000C5F803E0C5F807E0E96185F8242085F809
:104BE00026C02B732B74AB742883EC726C743668FC
:104BF0001EF076FF374B384A3602064403CBC5F821
:104C00002B00C5F82F1003CAB3F800C09B78C5F875
:104C10003600C5F83A102A46D9F80010C5F82760C2
:104C2000A5F833C085F835302C481CF0DBFFD7F8E9
:104C30000090DAF800602146C9EB06064FF40072D6
:104C4000284626F04BFA3246494624481DF0A2F980
:104C500036B101341C4921481DF0BEF8A642F8D1F6
:104C60001E481DF0F9F94FF400720021164826F095
:104C700035FA4FF6F8744FF6FF733968124A174841
:104C80006B802C801CF0AEFF3968D8F800300E4ADB
:104C90001248194403B0BDE8F04F1CF0A3BFB0F5B3
:104CA000803F084A34BF0421062111705BE70A46A1
:104CB0003DE700BF3829FF1F3329FF1FF820FF1FE2
:104CC0000021FF1F561EFF1F5426FF1F551EFF1FEA
:104CD0005D29FF1F2408FF1F4008FF1F8025FF1FBD
:104CE000481EFF1F541FFF1F441EFF1F4C26FF1F9F
:104CF0002DE9F04F974CDFF88C92D4F800C099F86A
:104D000000E0954F954EDFF88082ACF58041B1FB15
:104D1000FEF101F18103DB095D0005F5005A4FF456
:104D200080400AF1090A4FF40052824583B03B608B
:104D30003260C8F8000040F20B814FF4C04000E040
:104D40005046C0EB0C01B1FBFEF101F18103DB0920
:104D50005D0005F500520932824200F5005AEFD895
:104D6000A0F500523B60C8F8000093B2DFF81CB217
:104D70007B4ADFF81CA2DFF81C825D1B01FB0E01E1
:104D8000ABB27848784DABF8003091428CBF0C2222
:104D90000B2203F50053A1F50051C8F80030CAF802
:104DA00000100270FFF716FE4FF400720021284633
:104DB00026F094F92268BBF80040DAF800306B481E
:104DC0006B49EC81EB242B622C709023F82499F82A
:104DD00000C090F800E0AB7008783B6831686C75F3
:104DE000062485F80DC0A5F818E04FF0010C4FF02F
:104DF000800E6883E96129204FF020316B626C8658
:104E000002230024A5F830C012024FF0550B4FF0DA
:104E1000AA0A85F840E0C5F80310C5F807102B73FF
:104E20002B74EB6285F84200EC72019285F8FEB1BA
:104E300085F8FFA11EF054FE019A4E4BDFF858E1B1
:104E4000024403CBC5F84700C5F84B10BEE8030089
:104E5000B3F800E09B78A5F84FE085F85130C5F82D
:104E60004320C5F85200C5F856102A46316842481A
:104E70001CF0B8FE316840482A4606311CF0B2FEEC
:104E800021464FF40072284626F028F931683A4846
:104E900085F8FEB12A46023185F8FFA11CF0A2FE7A
:104EA000316835482A4608311CF09CFE3168334B86
:104EB000DFF8E8E02B604FF0FF33C5F8E4E1C5F818
:104EC000E831C5F8EC312A4601312B481CF08AFE46
:104ED0003168294807312A461CF084FE99F80030D1
:104EE0003E68D8F8009003EB460621464FF4007266
:104EF000284626F0F3F8324649461F481DF04AF886
:104F000036B1013418491C481CF066FFA642F8D19E
:104F100019481DF0A1F84FF400720021124826F044
:104F2000DDF8174BD8F800102B600F4A12486FF0CD
:104F300070436B60AB601CF055FED8F800103B6806
:104F4000094A0D48194403B0BDE8F04F1CF04ABEB1
:104F500013460BE73829FF1F481EFF1F441EFF1F83
:104F60000004FB00561EFF1F5426FF1F5D29FF1F74
:104F7000551EFF1F2408FF1F8025FF1F525261414D
:104F8000F8FFFF0F3329FF1F541FFF1F4C26FF1F81
:104F9000F820FF1F0021FF1F3408FF1F72724161BC
:104FA0003D4B3E493E4810B54FF410724FF48074AB
:104FB0000C601A601CF058FD3A4A3B4B106000F23E
:104FC000FF70C0F3CF201028188015D8374C384810
:104FD000384A02232021237003701170364B1B784E
:104FE000DBB1FFF785FE2D492B4B4FF410704FF4CA
:104FF000807208601A6010BD20282C4B10D8042243
:105000001A7020222B4B90421A7015D8284B04227C
:105010001A70294B1B78002BE3D1FFF753FDE2E711
:10502000402815D980281FD810221A70B0F5807F2B
:10503000E7D9204B3F221A7080281D4B05D9B0F5C7
:10504000FC7F08D810221A70C8E708221A70C5E73A
:1050500008221A70EAE7B0F57C7F12D9B0F5FC6F30
:1050600012D840221A70B9E7B0F5806F02D820221A
:105070001A70DBE7B0F5004F94BF402280221A700F
:10508000D4E720221A70A9E7B0F57C6F94BF802284
:10509000FF221A70A2E700BF04C0044014B004400D
:1050A0008025FF1F3829FF1FEC20FF1F3329FF1F1A
:1050B000551EFF1F5D29FF1F481FFF1FF0B41C4B2B
:1050C0001C4C1D481D494FF400121A6022600268F2
:1050D00022F4802202604FF000674FF080564FF0BC
:1050E00000554FF080444FF000421F601E601D606D
:1050F0001C601A600B68114A1806FBD41368590625
:1051000003D5136843F0400313600D4B1A68120671
:1051100003D51A6842F080021A600A480A490B4A0D
:10512000A024047000230B60F0BC1360704700BF24
:1051300084E100E084E200E03480044024B00B40CD
:1051400000B00B40004006404480044048800440CA
:1051500008B500201EF026F8AE2800D008BD0021BA
:1051600008461EF039F872B6FFF7A8FF48F680002F
:10517000C0F20300D0F800D0D0F804F008BD00BFA2
:1051800038B5094D094C2888000A20F0FBF828782A
:1051900020F0F8F82088000A20F0F4F82078BDE824
:1051A000384020F0EFB800BF2A29FF1F3029FF1F29
:1051B0002DE9F041164B1B78012B17D0B0B9154ED5
:1051C000804608F5A077444633681D5B280A20F026
:1051D000D9F80434E8B220F0D5F8BC42F4D108F58F
:1051E0002078B8F5164FECD1BDE8F081094E0024C7
:1051F0003368185B000A20F0C5F83368185D023484
:1052000020F0C0F8B4F5164FF2D1BDE8F08100BF30
:10521000CD28FF1F3C1EFF1F38B5124B1C7814B160
:10522000114B1C7874B9114D2B68185B000A20F0E3
:10523000A9F82B68185D023420F0A4F8B4F5164FD5
:10524000F2D138BD0A4D00242B68185B000A20F00B
:1052500099F82B68185D023420F094F8B4F5163FE5
:10526000F2D138BD481FFF1FAC1EFF1F3C1EFF1FA1
:105270005428FF1F08B5174B187820F083F8164BF9
:10528000187820F07FF8154B187820F07BF8144B35
:10529000187820F077F8134B187820F073F8124B39
:1052A000187820F06FF8114B187820F06BF8104B3D
:1052B000187820F067F80F4B187820F063F80E4B41
:1052C000187818B10D4B187880F00100BDE808403F
:1052D00020F058B8CD28FF1F1229FF1FCE28FF1F2E
:1052E000612BFF1F501FFF1F7429FF1F541EFF1F3C
:1052F0004E26FF1F7929FF1F511EFF1F361FFF1F5C
:1053000010B50F4C82B0207820F03CF8237823B100
:10531000002020F037F802B010BD0A4B0A4A1B6883
:105320000193019B126809489B1AA0FB0330800976
:10533000C0F11E00C0B220F025F802B010BD00BFC1
:105340006328FF1F102CFF1FF420FF1FD34D621096
:1053500070B5164B82B01B688DF80430190A1A0C10
:1053600001AC1B0E8DF805108DF806208DF8073066
:10537000254602AE15F8010B20F004F8B542F9D12C
:105380000B4B1B688DF80430190A1A0C1B0E8DF894
:1053900005108DF806208DF8073014F8010B1FF06A
:1053A000F1FFB442F9D102B070BD00BF4826FF1F23
:1053B0003C1FFF1F30B50C4B83B01B688DF80430C9
:1053C000190A1A0C1B0E8DF805108DF806208DF8A1
:1053D000073001AC02AD14F8010B1FF0D3FFAC4253
:1053E000F9D103B030BD00BF4C1FFF1F2DE9F041C4
:1053F000664CA2B023680293029D1FF0C9FE30B92B
:1054000023680393039B5B1BB3F57A7FF5D31FF0EF
:10541000BFFE002835D006A878225D4920F0F8F9B3
:10542000042306A91AA8002220F0B2FC0A224FF495
:10543000FC611EA820F00AFB1EA91AA820F078FC27
:10544000014616A820F0C4FA12A90023052216A8C6
:1054500020F084FC12A825F0D9F9044616A820F003
:1054600033FB1EA820F030FB1AA820F02DFB74B9E6
:1054700074201FF087FF06A820F026FB22B0BDE8AD
:10548000F08174201FF07EFF22B0BDE8F0810AA8F1
:1054900006A90D230B2220F07BFC1EA90AA80023DD
:1054A000052220F05BFC1EA825F0B0F906A90446F1
:1054B00010230EA80E2220F06BFC1EA90EA80023BC
:1054C000052220F04BFC1EA825F0A0F906A90546F0
:1054D000132312A8112220F05BFC1EA90023052231
:1054E00012A820F03BFC1EA825F090F906A906465C
:1054F0000A2316A8082220F04BFC1EA9002305222F
:1055000016A820F02BFC1EA825F080F906A9074656
:1055100007231AA8052220F03BFC1EA90023052220
:105520001AA820F01BFC1EA825F070F906A98046D9
:1055300004231EA8002220F02BFC04A9002305222E
:105540001EA820F00BFC04A825F060F93B4632466B
:1055500029460190CDF8008020461DF075FA1EA85E
:1055600020F0B2FA1AA820F0AFFA16A820F0ACFA90
:1055700012A820F0A9FA0EA820F0A6FA0AA820F096
:10558000A3FA1DF097F91EF02FF971E7102CFF1FF9
:10559000B82DFF1F70B50D4CA51C04F5C07635F86D
:1055A000020C000A1FF0EEFE15F8020C1FF0EAFED6
:1055B0006088000A1FF0E6FE043414F8020C1FF0A5
:1055C000E1FEB44205F10405E9D170BD6C1FFF1F77
:1055D00008B51FF0DDFD002810DD1FF09DFDC0B2F5
:1055E00001280BD878B1094B01221A700022084B10
:1055F00082201A70BDE808401FF0C4BE0020BDE83C
:1056000008401FF0BFBE0122F1E700BF511EFF1F7F
:10561000361FFF1F08B51FF0BBFD002804DD1FF07B
:105620007BFDC1B2012904D90020BDE808401FF06C
:10563000A9BE064B01F0010265201A701DF0CCFDD9
:105640008520BDE808401FF09DBE00BF612BFF1FF5
:1056500008B51FF09DFD002804DD1FF05DFDC1B2FF
:10566000012904D90020BDE808401FF08BBE064B7D
:1056700001F0010269201A701DF0AEFD8620BDE820
:1056800008401FF07FBE00BF501FFF1F08B51FF06E
:105690007FFD002804DD1FF03FFDC1B2012904D9C0
:1056A0000020BDE808401FF06DBE064B01F001026E
:1056B0006A201A701DF090FD8720BDE808401FF099
:1056C00061BE00BF7429FF1F08B51FF061FD0028EF
:1056D00004DD1FF021FDC3B2032B04D90020BDE877
:1056E00008401FF04FBE054A19467F2013701DF079
:1056F00073FD8820BDE808401FF044BE541EFF1F04
:1057000008B51FF045FD002804DD1FF005FDC3B2FC
:10571000022B04D90020BDE808401FF033BE054A23
:105720001946732013701DF057FD7A20BDE808401C
:105730001FF028BE7929FF1F034B187808B1034BCF
:1057400018781FF01FBE00BF481FFF1FAC1EFF1FB1
:105750002DE9F0411FF01CFDB0F5C07F24DB154D95
:105760004FF6FF7705F5C0764FF000081FF0D4FC28
:1057700004461FF0D1FC00EB042080B2B84214BFF5
:1057800025F8020C25F8028C1FF0C6FC04461FF019
:10579000C3FC00EB042025F8040BB542E6D18920B8
:1057A000BDE8F0411FF0EEBD0020BDE8F0411FF064
:1057B000E9BD00BF6E1FFF1F70B51C4D86B02B6882
:1057C00002930A20029E1EF0AFF92A68184B01923C
:1057D000019C1B78A41BFBB106E0B4F57A7F07DCC3
:1057E0002B680393039CA41BFCF7A0F80028F4D1BA
:1057F0002B680593059B9B1BB3F57A7F12DA0D4B43
:10580000B52200201A7006B070BDB4F57A7FEFDCC7
:105810002B680493049CA41B05201EF017F9002894
:10582000E6D1F2E7012006B070BD00BF102CFF1FCB
:105830003C29FF1F3008FF1FF8B599202DED028B82
:105840001DF0B0FC431EDBB2022B13D95749584F51
:10585000584E594D59485A4A00234FF07C540B700A
:105860004FF07E513B7033702B7004601160BDECC3
:10587000028BF8BD01283FD17E201DF093FCC82883
:10588000E4D17C201DF08EFC484B9FED4E8A1870B1
:1058900079201DF087FC474B18707A201DF082FCA0
:1058A000454B18707B201DF07DFC414B18707D200E
:1058B0001DF078FC07EE900AB8EEE77A3F4BC7EE92
:1058C000087AA520C3ED007A1DF06CFC07EE900A63
:1058D000B8EEE77A3A4BC7EE087A9FED3B7AC3ED14
:1058E000007AF4EEC77AF1EE10FA2ED5BDEC028BF9
:1058F0004FF07E521A60F8BD02282ED098201DF07D
:1059000051FCC828A2D194201DF04CFC274B9FEDE0
:105910002D8A187091201DF045FC264B187092209E
:105920001DF040FC244B187093201DF03BFC204BD5
:10593000187095201DF036FC07EE900AB8EEE77A55
:105940001E4BC7EE087AA720BCE7B7EE007AF4EE4C
:10595000C77AF1EE10FAC9DC89E790201DF022FC2D
:10596000C8287FF473AF8E201DF01CFC0F4B9FEDF9
:10597000158A18708B201DF015FC0E4B18708C20AA
:105980001DF010FC0C4B18708D201DF00BFC084B0B
:1059900018708F201DF006FC07EE900AB8EEE77A2B
:1059A000064BC7EE087AA6208CE700BF651EFF1FD6
:1059B0001029FF1F5C29FF1F4429FF1F601EFF1FC6
:1059C000781EFF1F0000C8423333333F00B58320E9
:1059D00083B01DF0E7FB8DF8040084201DF0E2FB8E
:1059E0008DF8050085201DF0DDFB8DF80600862072
:1059F0001DF0D8FB8DF80700019A024B1A6003B026
:105A00005DF804FB3C1FFF1F10B565201DF0CAFBAD
:105A1000704A012894BF00F0010300236620137030
:105A20001DF0C0FB6C4B122894BF02460D2267206C
:105A30001A701DF0B7FB694A012894BF00F00103FA
:105A40000023682013701DF0ADFB012840F2B880E0
:105A50000023634A6B2013701DF0A4FB614A0128E8
:105A600094BF00F0010300236C2013701DF09AFB1B
:105A70005D4A012894BF00F0010300236D201370DC
:105A80001DF090FB594A012894BF00F00103002348
:105A90006F2013701DF086FB554A012894BF00F05B
:105AA00001030023692013701DF07CFB01287ED9BF
:105AB0000023504A732013701DF074FB034610B18D
:105AC000022818BF01234C4A6A2013701DF06AFB9C
:105AD0004A4A012894BF00F001030123712013708A
