:020000040000FA
:2000000000800020BD010000FD980100C1980100C1980100C1980100C1980100C19801002A
:20002000C1980100C1980100C1980100FD980100FD980100C1980100FD980100B19801004C
:20004000FD980100FD980100FD980100FD980100FD980100FD980100FD980100FD980100F0
:20006000FD980100FD980100FD980100FD980100FD980100FD980100FD980100FD980100D0
:20008000FD980100FD980100FD980100FD980100FD980100FD980100FD980100FD980100B0
:2000A000E5170100F5170100FD980100FD980100FD980100FD980100FD980100FD980100B2
:2000C000FD980100FD980100FD980100FD980100FD980100FD980100FD980100FD98010070
:2000E000FD980100FD980100FD980100FD980100FD980100D1BB0100FD98010035C30100F6
:20010000FD980100B1C80100FD980100FD980100FD980100FD980100FD980100FD9801004B
:20012000FD980100FD980100FD980100FD980100FD980100FD980100FD980100FD9801000F
:20014000FD980100FD980100FD980100FD980100FD980100FD980100FD980100FD980100EF
:20016000FD980100D1A20100FD980100FD980100FD980100FD980100FD980100FD980100F1
:20018000FD980100FD980100FD980100FD980100FD980100FD980100FD980100FD980100AF
:2001A000FD980100FD980100FD980100FD980100FD980100FD980100FD980100574B4CF245
:2001C000205210B51A804DF628121A8000BF00BF19F098FB524B4FF010621A60514A9A60C0
:2001E000514ADA60A3F53043203B1A6812F4807204D14E490A604FF4A8521A604C4B1A7894
:20020000110703D51A7842F008021A70494B4A4C4A482A221A704A4A00239918A14203D2E4
:20022000195899500433F8E7464B474900228B4202D243F8042BFAE74448454900235A5830
:200240001A500433B3F5DE7FF9D1424B424A802103F8011B9342FBD1404B3C4A1A60404BA6
:200260000A221A70A3F5805324225A70A0221A709A799207FCD59A79D406FCD4394A937938
:2002800003F00C03082B374BF9D103221A714C225A719A799006FCD5324A9179314B490629
:2002A000FBD5314A4FF0017111600421516020221A709A7902F00C020C2AFAD12B4B2C4A2F
:2002C0001A602C4B2C4A1A6000225A60072243F8042C2A4AC3F80C2D62B619F0B9FE134B2F
:2002E0001B68DA0705D5264819F0E6FD254B264A1A60264B1B785B0609D5224C224A236864
:20030000934204D11E4819F0D7FD002323601EF0DBFF01F065F91AF059FEFEE70E2005405A
:2003200030800440823F04000100002B14D0034002D0074000E00740A095FF1F8C38030057
:200340006087FF1FA095FF1FAC3D00200082FF1F0000000000E400E05FE400E008ED00E0E0
:2003600000500640004006404480044004800440C010050014E000E07F32020000002020F5
:2003800020694C021CE00340A5C3945A00F00740FFFFFFFFFFFFFFFFFFFFFFFFFFFFFFFFCA
:2003A000FFFFFFFFFFFFFFFFFFFFFFFFFFFFFFFFFFFFFFFFFFFFFFFFFFFFFFFFFFFFFFFF5D
:2003C000FFFFFFFFFFFFFFFFFFFFFFFFFFFFFFFFFFFFFFFFFFFFFFFFFFFFFFFFFFFFFFFF3D
:2003E000FFFFFFFFFFFFFFFFFFFFFFFFFFFFFFFFFFFFFFFFFFFFFFFFFFFFFFFFFFFFFFFF1D
:20040000FFFFFFFFFFFFFFFFFFFFFFFFDEF9FFFF10B5054C237833B9044B13B10448AFF375
:2004200000800123237010BDA095FF1F000000008438030008B5064B1BB106480649AFF38D
:2004400000800648036813B1054B03B1984708BD0000000084380300A495FF1FA095FF1F8E
:20046000000000002DE9F04F87B00491029291880591D3888B42C0F0CC80684B1B78039318
:20048000674B1B78019300254FF07C57029A14885388A342C0F0B380059901EB81035B0107
:2004A00000930135ADB26B1E9BB2039A002A00F08780049931F8138008F4784B4FEA2B2BD9
:2004C00008F4FC6A4FEAEA0A4FEAC808019A3AB9C4F19F0300990B44524A32F8136004E09A
:2004E000009B23444F4931F8136006F47840000A1EF028FC39461EF079FC814658461EF063
:2005000021FC39461EF072FC014648461EF066FB1EF058FE5FFA80FB06F4FC60C0081EF01B
:2005200011FC39461EF062FC814650461EF00AFC39461EF05BFC014648461EF04FFB1EF033
:2005400041FE5FFA80F9F00000F0F8001EF0FAFB39461EF04BFC064608F0F8001EF0F2FBA4
:2005600039461EF043FC014630461EF037FB1EF029FEC0B2019A92B9C4F19F0300990B44E6
:2005800009F01C02C01040EAC2000BF0F80B4BEA691940EA0929234A22F8139025E0009BAD
:2005A000234409F01C02C01040EAC2000BF0F80B4BEA691940EA09291A4921F8139014E0DD
:2005C000019A52B9049931F81320C4F19F0300990B44144921F8132007E0049931F81320B4
:2005E000009B23440F4921F813200134A4B26B1C9AB202994B88A34201D3154653E7059A9C
:20060000531C9BB205930299CB88059A9342BFF43DAF012007B0BDE8F08F00BF2037002053
:2006200098390020409EFF1F08B5083012F014FA08BD00BF00B583B002AB03F8011D08305E
:200640001946012212F008FA03B05DF804FB00BF08B500F58C6011F005FB08BD08B500F538
:200660008C6011F0E1FB08BD08B500F58C6011F099FB08BD08B500F58C6011F05FFC08BD35
:2006800038B51546846FA288E388D01AA84298BF054629B122680846D1182A4618F0EAFF18
:2006A000E3882B44E380284638BD00BFF8B505460C4613F0AFFC064613F0A2FC074613F0A6
:2006C00095FCFFB2C0B240EA4717B6B2A6F2BC7647EA46272F8013F06BFC054613F072FC39
:2006E000064613F079FCF6B2EDB2ED0245EA4616C0F3460006432680F8BD00BF08B519F053
:20070000D5FB08BD10B5044650491EF021FD002876D120464E491EF01BFD002872D120460D
:200720004FF081411EF014FD00286DD1204649491EF00EFD002869D1204647491EF008FDB7
:20074000002865D1204645491EF002FD002861D1204643491EF0FCFC00285DD120464149A2
:200760001EF0F6FC002859D120463F491EF0F0FC002855D120463D491EF0EAFC002851D1C7
:2007800020463B491EF0E4FC00284DD1204639491EF0DEFC002849D1204637491EF0D8FC61
:2007A000002845D1204635491EF0D2FC002841D1204633491EF0CCFC00283DD12046314933
:2007C0001EF0C6FC002839D120462F491EF0C0FC002835D120462D491EF0BAFC002831D177
:2007E00020462B491EF0B4FC00282DD1204629491EF0AEFC002814BF05204FF0FF3010BD50
:20080000642010BD5F2010BD5A2010BD552010BD502010BD4B2010BD462010BD412010BDDC
:200820003C2010BD372010BD322010BD2D2010BD282010BD232010BD1E2010BD192010BDFC
:20084000142010BD0F2010BD0A2010BD333383409A998140A4707D401F857B40713D7A40EF
:20086000EC5178403D0A77408FC27540E17A74403333734085EB7140D7A37040295C6F40D8
:2008800052B86E40A4706D40CDCC6C401F856B40713D6A40000040402DE9F00F84B0039295
:2008A000DDF830804FEA014C9CFBF3FC0CF1010C120492FBF8F20132B8F1000F3FDD4C00BD
:2008C0000094814601925A0002924FF0000BDA461BE007EB224530F8155024F8025B6244D2
:2008E000B442F6D10AF1010A009CA144019A9344C2450AD1029CA61E0644C3EB010C4FEAC0
:200900004C0C00274FF6FF7513E0002BEADD4FEA2B4701FB07F7029E4E444C460022D8E770
:2009200022F8025FA242FBD1013706F5A076474505D09942F8DD06EB0C043246F0E7039A45
:20094000424517DD08EB880300EB83104D004FF6FF74164609E023F8024B9342FBD108F1D4
:20096000010800F5A070B04504D00029F7DD42190346F0E704B0BDE8F00F704770B4104E97
:2009800006F51340803006F51444C034772509E01988A3F84011A3F5A073013AF8D102301F
:2009A000A04202D003462A46F2E7064B06F59F714FF6FF7223F8022F8B42FBD170BC704717
:2009C000409EFF1F3E9EFF1F70B4104E06F5A0753246002449F2C0400AE0D118B1F84011EB
:2009E000D15203F5A0738342F7D10232AA4201D02346F2E7064B06F51542FE324FF6FF7181
:200A000023F8021F9342FBD170BC7047409EFF1FFE32002010B40F4C04F59E70023C08E07E
:200A20001A885A8003F5A0738B42F9D10238A04203D000F516410346F2E7002305494FF685
:200A4000FF725A5203F5A073B3F5164FF9D15DF8044B7047409EFF1F30B4104DA81C05F541
:200A6000A07409E01A8823F8022C03F5A0738B42F8D10230A04203D000F516410346F1E799
:200A800005F516412B464FF6FF72A3F83E2103F5A0738B42F9D130BC704700BF409EFF1FE4
:200AA00038B51E4B1B7803EB83034BB100241B4DFFF7D2FF01342B7803EB8303A342F7DC86
:200AC000174B1B7803EB83034BB10024144DFFF7A1FF01342B7803EB8303A342F7DC114B36
:200AE0001B7803EB83034BB100240E4DFFF746FF01342B7803EB8303A342F7DC0A4B1B784D
:200B000003EB83034BB10024074DFFF75DFF01342B7803EB8303A342F7DC38BD7E9CFF1F6A
:200B2000143700206A360020289BFF1F70B582B0434B1D68284643491EF058F9044600217B
:200B40001EF006FB40B120464FF07C511EF046F81EF012FB044607E020464FF07C511EF00B
:200B60003BF81EF009FB0446284637491EF03EF9054600211EF0ECFA38B128464FF07C51F0
:200B80001EF02CF81EF0F8FA06E028464FF07C511EF022F81EF0F0FAA4B286B200962B480C
:200BA000A02178222346FFF777FEC4F1A0001EF0C9F84FF07C511EF019F9044600211EF03D
:200BC000C7FA38B120464FF07C511EF007F81EF0D3FA06E020464FF07C511DF0FDFF1EF0A2
:200BE000CBFA85B22DB10024FFF714FF0134AC42FAD1C6F178001EF0A5F84FF07C511EF00C
:200C0000F5F8044600211EF0A3FA38B120464FF07C511DF0E3FF1EF0AFFA06E020464FF045
:200C20007C511DF0D9FF1EF0A7FA85B22DB10024FFF7A4FE0134AC42FAD102B070BD00BFF6
:200C400064360020000020430000F042409EFF1F10B501460A4C20460FF098F920460FF08C
:200C600039F94FF4967019F0DDF920464FF4E1310FF06AF920465F210FF0C0F910BD00BFD3
:200C80002839002008B502480FF0E6F908BD00BF283900202DE9F04782B02D480FF0E4F919
:200CA0001FFA80FA504601211EF0B6FA0546BAF1000F20D057460024DFF89480A146402F34
:200CC000B4BF3E464026F6B2404631460FF0ECF9B64666B14B46C15CE21892B2A9540133FE
:200CE0007345F8D10134731E13FA84F4A4B2BF1BBFB2002FE3D1164E30460FF0FBF8154C77
:200D00002560A4F804A00023E38040F61C401EF003FB0246104B186000941048104940F654
:200D20001C4313F075FA30460FF04CF922280B480C490CBF0022012213F012FD28461EF098
:200D4000F3FA054B18681EF0EFFA02B0BDE8F08728390020449BFF1F103700207436002062
:200D6000810600006504000070B50D480FF07CF984B284B10A4E402CB4BF25464025EDB284
:200D8000304629460FF090F9294619F025FF641BA4B2002CEFD102480FF0ACF870BD00BFB0
:200DA0002839002010B400290ADD034644180020054913F8012B5040085CA342F9D100E011
:200DC00000205DF8044B70475486020070B582B004460E4623485A210FF0E4FE2CB12148BA
:200DE00003681B680621984704E01E4803681B68072198471B4C2169627B002500952046D2
:200E00002B4610F0A9F92069617B0123009301955A22032310F0B4F92369D3F83821D3F843
:200E20003431D31A032B1CBF2B4633700D4C206910F0C4F90546206910F0C0F90646206942
:200E400010F0BCF92169627B002300932046012310F082F906F07F00EDB205EB002002B0E5
:200E600070BD00BFB039002070B505460E46FFF7ADFF1DF067FF14491DF0B8FF13491DF01A
:200E8000ABFE13491DF0A8FE044675B111491EF04BF920B9204610491EF064F910B1002397
:200EA000337070BD0D4B1C6070BD0D491EF03CF920B920460B491EF055F910B10023337052
:200EC00070BD094B1C6070BD0AD7A33C0AD7233C33938843000020C20000FA421C370020C6
:200EE00000008CC20000BE432C9BFF1FF0B48C46234C2278234B196841F4806119604FF082
:200F00000041D9625A6304F1A3076678DA6A002A1CDBFBE7D36A002B25DBFBE7184A52785E
:200F200082420BD1142A0BD1174A1278012A09D1BCEB131F14BF002001201FE000201DE0FE
:200F400001201BE0012019E0002017E09A6B1D6845F480651D60D9625E6304F8012BBC42FD
:200F6000D3D1084AD6E7074B9A6B054B83F8A3201B7803F00F020F2AD0D1E5E7F0BC704739
:200F80000096FF1F00C00240489CFF1F30B583B005460C4C20462A210FF004FE23681B681E
:200FA00020460021984723681B682046294698472169627B002300932046012310F0CCF89E
:200FC00003B030BDB039002030B583B0FFF7DEFF0B4C2069617B01230093002301932A2207
:200FE000022310F0CDF8206910F0E8F885B2206910F0E4F82D02ADB2284380B203B030BD37
:20100000B039002010B50446074800214FF400721EF00AFD34B1044B552283F8FE21AA226D
:2010200083F8FF2110BD00BF2437002008B501460248034A10F0F8FE08BD00BF809CFF1FBF
:2010400024370020044B1B78044A127802FB03F3B0FBF3F080B27047AC9CFF1F193700201B
:20106000064B1B78064A127803FB02F2B0FBF2F101FB1200B0FBF3F0C0B2704719370020FD
:20108000AC9CFF1F70B50120FFF7BCFF314C002384F8BE31304B1D682846FFF7D3FF02129E
:2010A00094F8C03162F3871384F8C03184F8C1012846FFF7D5FF84F8BF01284B1E78B5FBEC
:2010C000F6F206FB1252013294F8C03162F3050384F8C031224B1B7884F8C231214B1B68EB
:2010E0001D44013D2846FFF7ADFFB0F5806F19D2021294F8C43162F3871384F8C43184F851
:20110000C5012846FFF7ACFF84F8C301B5FBF6F306FB1355013594F8C43165F3050384F825
:20112000C43109E00B4BFF2283F8C521FE2283F8C321FF2283F8C421064B074A1268C3F822
:20114000C621084A1268C3F8CA210020FFF76EFF70BD00BF24370020749CFF1F19370020AE
:20116000A496FF1F689CFF1FF8B504460D460020FFF748FF094821462A4610F095FE4DB195
:201180000024064F064E3846314610F06FFE0134AC42F8D1014810F0AFFEF8BD809CFF1F4F
:2011A0002437002010B5034B1C68240218F016FF204410BD6C9CFF1F00B583B069460522C5
:2011C00000231AF019F968461EF022F803B05DF804FB00BF08B5064B00221A731A7101E00B
:2011E00019F084FC19F0CEFC0028F9DC08BD00BF9C3B002038B50D4C23680D4D29881B68BC
:201200002046090A984723681B682046297898472368084D29881B682046090A984723688B
:201220001B6820462978984738BD00BF9C3B0020623600206C3600202DE9F0471C4B1B78D9
:20124000012B00D020B11B4C04F516461A4D1EE0DFF8608008F5164A4FF00009164E374663
:2012600013E038F8045033681B683846290A984733681B683846E9B298470434B4F5A07F33
:20128000EFD108F52078D04510D04C46E9E721882B681B682846090A98472B6834F8021BA7
:2012A0001B682846C9B29847B442F0D1BDE8F087489CFF1F409EFF1F9C3B002010B5214BEA
:2012C000187819F007FD204C23681B6820461F4A117898471E4B187819F0FCFC23681B68B8
:2012E00020461C4A1178984723681B6820461A4A11789847194B1B781BB9002019F0EAFCA0
:2013000005E0114803681B68154A11789847134B1B781BB9002019F0DDFC05E00A48036871
:201320001B68104A117898470F4B1B7823B10F4B197881F0010100E00021034803681B680F
:20134000984710BD489CFF1F9C3B0020A19CFF1FBC9CFF1F7C9CFF1F7F9CFF1F8C9CFF1F62
:201360006936002068360020A69CFF1F389BFF1F08B5FFF787FCFFF7F7FC08BD2DE9F04174
:20138000ACB04E4B1B680293029D4C4C19F0FAFB30B923680393039B5B1BB3F57A7FF5D384
:2013A00019F0F0FB002800F0858004A84449782219F09CFE0CA804A9002204231AF034F8C6
:2013C00010A84FF4FC610A2219F084FF0CA810A91AF00CF8014608A819F068FF08A8FFF775
:2013E000EBFE044608A819F0D9FE10A819F0D6FE0CA819F0D3FE002C59D014A804A90B221C
:201400000D231AF011F814A8FFF7D6FE074618A804A90E2210231AF007F818A8FFF7CCFE5D
:2014200006461CA804A91122132319F0FDFF1CA8FFF7C2FE054620A804A908220A2319F0E7
:20144000F3FF20A8FFF7B8FE044624A804A90522072319F0E9FF24A8FFF7AEFE804628A81D
:2014600004A90022042319F0DFFF28A8FFF7A4FECDF800800190384631462A46234612F081
:20148000CFFD28A819F08AFE24A819F087FE20A819F084FE1CA819F081FE18A819F07EFEE1
:2014A00014A819F07BFE12F035FD18F005FD04A819F074FE2CB0BDE8F08100BF943A0020EA
:2014C0009C3B002070B50A4C04F5C076094D21882B681B682846090A98472B6834F8021B1A
:2014E0001B682846C9B29847B442F0D170BD00BFC09CFF1F9C3B002008B5034803681B6897
:20150000024A1178984708BD9C3B00205C36002008B5024B187819F0DDFB08BD17370020FB
:2015200008B5034803681B68024A1178984708BD9C3B00200D37002048F68000C0F203006E
:20154000D0F800D0D0F804F0704700BF1D4B4FF400721A601C490A601C4A116821F48021C6
:2015600011604FF400021A604FF080721A604FF000721A604FF080621A604FF000621A60AF
:20158000134A136813F0800FFBD1114B1B6813F0400F04D00E4B1A6842F040021A600D4BEF
:2015A0001B6813F0800F04D00A4B1A6842F080021A60A022084B1A700023084A1360043280
:2015C0001360704788E100E088E200E03480044024B00B4000B00B400040064044800440AE
:2015E00008B5002018F02CF9AE2808D10020014618F03CF972B6FFF7A9FFFFF79DFF08BD71
:2016000008B50020AE2118F031F9024A024B1A6008BD00BF0400FA050CED00E008B580201C
:2016200018F00EF9022814D80C4B1870012805D10B480C49002210F08FF906E0022804D170
:2016400007480949002210F087F90022074B1A7008BD0022014B1A7008BD00BFC795FF1F8E
:20166000B09CFF1FC027090040771B00409BFF1F08B50420012118F061FC0420002118F090
:201680002BFC0021024B1970022018F057FC08BD5C36002008B50620012118F04FFC0920B7
:2016A000012118F04BFC0A20012118F047FC0F20012118F043FC1420012118F03FFC1520BC
:2016C000012118F03BFC0620012118F005FC0920012118F001FC0A20012118F0FDFB0F208D
:2016E000012118F0F9FB1420012118F0F5FB1520012118F0F1FB12F091F908BD30B587B0C6
:201700000F4B1869597B002914BF03230023002400940193029403940125049522462346CC
:201720000FF0FCF8064B18694FF47A72C0F86422597B009522462B460FF050F807B030BD4A
:20174000B039002038B50C2019F048FC05460DF0EDFD0F4C2560284604214FF0FF320DF008
:2017600033FE20680C214FF0FF320DF00DFE206802214FF0FF320DF017FE206802214FF0F4
:20178000FF320DF019FE1720002118F0D7FB38BDF036002010B54FF48072184B1A604FF47D
:2017A000107203F57F631A6038B3154901F58C6001F26C411422022310F092F9E8B1104CAD
:2017C00004F23C4010F0E0FF2046012112F08EF820B92046002112F089F870B1084901F260
:2017E0003C4010F069FD40B1054B93F83C3413F0700F02D0034A044B1A6010BD14B004408C
:20180000B896FF1FF49AFF1FC439002008B5444B1B78012B3DD1434B1B78002B28D072B60E
:20182000404B1B7813F0010F07D03F4B19683F4A12680A403E490A601A603A4B1B7813F0C2
:20184000020F07D03B4B1968384A52680A4038494A601A60334B1B7813F0040F07D0364BEF
:201860001968324A92680A4031498A601A6062B6324BDB68B3F1384F47D0304B304A1A60C0
:201880004FF03842DA604FF078421A612D4A1A603BE0244B1B78002B28D072B6214B1B7889
:2018A00013F0010F07D0204B1968204A12680A401F490A601A601B4B1B7813F0020F07D0F4
:2018C0001C4B1968194A52680A4019494A601A60144B1B7813F0040F07D0174B1968134A14
:2018E00092680A4012498A601A6062B6134BDA68154B9A4209D0114B114A1A60124ADA6051
:2019000002F180421A610F4A1A60104B1B7813B10020FFF73FFF0F20002118F0DDFA08BDCA
:20192000489CFF1FE439002080E100E0CC390020D839002084E100E088E100E000C0024041
:2019400001401F0000001F80000001BA983900204FF41072034B1A604FF4807203F57F6340
:201960001A60704714B00440F8B512480EF07CFB84B20020FFF70EFF9CB10E4F0E4E402CE7
:20198000B4BF25464025EDB2384629460EF08CFB014630462A4611F05FF8641BA4B2002C6D
:2019A000EDD1054810F0F0FEFFF7D2FF01480EF0A1FAF8BD28390020549BFF1F08B5012262
:2019C000114B1A60114B1B78C3B113F0010F03D00F4B1A680F4B1A600C4B1B7813F0020F3A
:2019E00003D00B4B5A680C4B1A60084B1B7813F0040F03D0064B9A68084B1A60084B1B7856
:201A00000BB1FFF7A5FF08BD84F00F40E4390020D839002000E100E004E100E008E100E02B
:201A20009839002010B50120FFF7B4FE054C204611F00EFF2479640804FB00F4FFF788FFE9
:201A4000204610BDB896FF1F10B50020FFF7A2FE064810F037F90446054B1860FFF778FF6F
:201A600004F2FF70C0F3CF2010BD00BF809CFF1F6C9CFF1F30B58DB0FFF7E6FF044620B953
:201A80001748184919F000FC28E0FFF7CBFF810A04A80A2219F01EFC684604A919F0E8FBEC
:201AA0006846114919F078FC054608A8611E0A2219F010FC284608A919F064FC0B4919F001
:201AC0006BFC0146064819F0C9FB08A819F066FB684619F063FB04A819F060FB0DB030BD54
:201AE000FC360020FCC2020004C3020008C30200F8B50020FFF74EFE974C204604F10901E7
:201B0000142202230FF0ECFF204610F0DBF8934B186000F2FF73C3F3CF23914A1380102B3C
:201B200003D802218F4A11701FE0202B03D804218C4A117019E0402B03D80821894A1170F0
:201B400013E0802B03D81021864A11700DE0B3F5806F03D82021834A117006E0B3F5004FBF
:201B600094BF402180217F4A1170B3F5807F8CBF3F2120217C4A1170102B03D802227B4BEC
:201B80001A7027E0202B03D80422784B1A7021E0802B03D80822754B1A701BE0B3F5FC7F02
:201BA00003D81022714B1A7014E0B3F57C7F03D820226E4B1A700DE0B3F5FC6F03D840229E
:201BC0006A4B1A7006E0B3F57C6F94BF8022FF22664B1A704FF48072654B1A60614B1F785A
:201BE000A0F58072B2FBF7F202F20111090A614B1960490001F1A104B4F5807F16D84FF4D1
:201C000080731C1B04F180005B4B186001205B4B188081345A480460213107FB0212594BE1
:201C20001A6047F6A7739A4218D91BE04D4B1F784FF4C073C21AB2FBF7F202F201152D0AB3
:201C4000690001F1A10403F18006A34204D34848036048480560D4E73346EBE701224A4BA8
:201C60001A7006E0B2F5803F34BF04220622464B1A70FFF707FA0120FFF7C4F94349EB23CD
:201C80000B7000234B7090238B704B1E073120220133DA708B42FBD13C4C0027E772022316
:201CA0002373304B1B786373344B1B88E3810223237423694FF4007262F317232361F823F9
:201CC00063752C4E3368E382274B1B782383274B1B786383284D2B68E3612A4B1B68236253
:201CE000802384F82430292384F82630FFF75AFAC4F82700264B03CBC4F82B00C4F82F1005
:201D000019889B78A4F8331084F83530214B03CBC4F83600C4F83A102868FFF787F9184DB2
:201D20002B68134A11681846C91AFFF71DFA3846FFF768F94FF6F87323804FF6FF7363802A
:201D40002868FFF773F930682B681844FFF76EF9FFF7FEFDF8BD00BF809CFF1F6C9CFF1FE8
:201D6000609CFF1F7D9CFF1F19370020AC9CFF1F649CFF1F349BFF1F749CFF1FA696FF1FA9
:201D80003C9BFF1F689CFF1FA496FF1F243700206487FF1F8487FF1F08B50220002118F01F
:201DA000CDF802200649032218F020F80520002118F0C4F805200349022218F017F808BD2D
:201DC0002D300000D91D000008B5022018F056F8052018F053F808BD2DE9F04186B02C4B4A
:201DE0001B7813F0FF0F50D12A4B1B7813F0FF0F4BD131E0284C04F11007DFF8A08094F8D5
:201E000024301BB1384613F0B7F902E0204613F005FC78B1236A01221A70B5F57A7F29DD19
:201E200008E005241D4F204618F07AF810B9B5F57A7F25DD194B1B680593059B9E1BB6F554
:201E40007A7F03DA0122124B1A701EE0FFF7BCFF0122134B1A7018E0104B1A680192019EE1
:201E60001B680293029DAD1B0B4B93F82430002BC0D1D6E7D8F800300393039DAD1BBEE792
:201E80003B680493049DAD1BCDE706B0BDE8F081C595FF1F0C370020C895FF1F943A0020DB
:201EA000A896FF1F10B5054C20460DF04DFF20460DF026FF003018BF012010BD909CFF1F3A
:201EC00070B584B0294B1A680092009C1B680193019D2D1B254EFFF7E5FF40B3B5F57A7FA5
:201EE0002EDD24E0224B1B78B72B03D1B422204B1A7038E01F4B1B7813F0FF0F08D11C4BEC
:201F00001B78B62B21D103E0FFF7CCFF0028FBD1184B1B7813F0FF0F25D0154B1B78B52BF4
:201F20001AD120E0FFF7BEFF0028FBD11BE00F4A12680392039B1B1BB3F57A7FD2DBD9E7CA
:201F400033680293029D2D1BC5E7B522084B1A700122084B1A70D7E7B622054B1A70002278
:201F6000044B1A70DEE704B070BD00BF943A00207087FF1F0C37002008B51620002117F0A2
:201F8000ABFF08BD08B51620012117F0A5FF08BD08B5162017F0C4FF003018BF012008BDA3
:201FA000034B1B7843FA00F000F00100704700BFA49CFF1F044B012202FA00F0197821EA54
:201FC00000021A70704700BFA49CFF1F10B5694C23685B682046684918229847204619F03A
:201FE00005F80020FFF7DCFF48B123685B682046624910229847204618F0F8FF09E05D4C93
:2020000023685B6820465E4914229847204618F0EDFF0120FFF7C4FF50B1564C23685B682B
:20202000204658490C229847204618F0DFFF09E0504C23685B6820465349102298472046F4
:2020400018F0D4FF0220FFF7ABFF50B1494C23685B6820464D4912229847204618F0C6FFBD
:2020600009E0444C23685B682046494916229847204618F0BBFF0320FFF792FF50B13D4C2E
:2020800023685B682046434911229847204618F0ADFF09E0374C23685B6820463E491522F6
:2020A0009847204618F0A2FF0420FFF779FF50B1304C23685B68204638490C22984720467B
:2020C00018F094FF09E02B4C23685B682046344910229847204618F089FF0520FFF760FF53
:2020E00050B1244C23685B6820462E4912229847204618F07BFF09E01E4C23685B68204642
:20210000294916229847204618F070FF0620FFF747FF50B1174C23685B682046234912223F
:202120009847204618F062FF09E0124C23685B6820461F4916229847204618F057FF07208C
:20214000FFF72EFF50B10B4C23685B682046194910229847204618F049FF10BD054C23687E
:202160005B682046144914229847204618F03EFF10BD00BF9C3B00200CC3020028C30200D8
:202180003CC3020054C3020064C3020078C302008CC30200A4C30200B8C30200D0C30200F3
:2021A000E0C30200F4C3020008C4020020C4020034C402004CC4020060C4020008B5114BC2
:2021C0001B787BB11048872116F096FB0F4B93F824301BB101220D4B1A7408BD01220B4B5D
:2021E0005A7008BD08482D2116F086FB074B93F824301BB10022054B1A7408BD0022034BF9
:202200005A7008BDA19CFF1F789BFF1FC895FF1F10B582B0094C2046012116F097FCFFF7C5
:20222000CDFF074B2360812017F00AFBC82809D18120002117F01AFB97E200BF789BFF1F3F
:20224000409EFF1FAC4C0A230093204619461A4613F0F4F920464FF4784114F0E5F9A74B7F
:202260001B78002B28D072B6A44B1B7813F0010F07D0A34B1968A34A12680A40A2490A609F
:202280001A609E4B1B7813F0020F07D09F4B19689C4A52680A409C494A601A60974B1B788A
:2022A00013F0040F07D09A4B1968964A92680A4095498A601A6062B6964BDB68B3F1384FFE
:2022C0000AD0944B944A1A604FF03842DA604FF078421A61914A1A60874B93F8CF301B04B6
:2022E00043F0004343F02A038A4A5363D36A13F0F00F18BF916B03F47043B3F5405FF5D8AE
:202300007D4B93F8CE301B0443F0104343F00A03804A5363D36A13F0F00F18BF916B03F4FE
:202320007043B3F5405FF5D8734B93F8CE301B0443F0104343F00A03764A5363D36A13F0F4
:20234000F00F18BF916B03F47043B3F5405FF5D8694B93F8CF301B0443F0004343F02B03B9
:202360006C4A5363D36A13F0F00F18BF916B03F47043B3F5405FF5D85F4B93F8CE301B04CF
:2023800043F0104343F00A03624A5363D36A13F0F00F18BF916B03F47043B3F5405FF5D845
:2023A000554B93F8CE301B0443F0104343F00A03584A5363D36A13F0F00F18BF916B03F4AE
:2023C0007043B3F5405FF5D84B4B93F8CF301B0443F0004343F02E034E4A5363D36A13F08F
:2023E000F00F18BF916B03F47043B3F5405FF5D8484AD36A002BFCDA464B9A6B3E4A92F8D5
:20240000CE20120442F000425A631A464FF2F001D36A13F0F00F18BF906B0B42F8D1364A4E
:2024200092F8CE10090441F000413A4B596392F8CE10090441F00041596392F8CE20120443
:2024400042F000625A631A46D36A13F0805FFBD0304B4FF08052DA629A6B996B986B9A6B08
:20246000264B1B78C3B113F0010F03D0264B1C682B4B1C60214B1B7813F0020F03D0224BC4
:202480005C68284B1C601D4B1B7813F0040F03D01D4B9C68244B1C6001F0F80100F0FC0375
:2024A000DB0043EA0123C2F3C40213431BB213F5006F00F05A814FF47A7017F0B3FD0E4CD2
:2024C0000A230093204619461A4613F0B7F820464FF4784114F0A8F8084B1B78002B43D03B
:2024E00072B6064B1B7813F0010F22D0044B1968044A12680A4019E0789BFF1FE439002082
:2025000080E100E0CC390020D839002084E100E088E100E000C0024001401F0000001F8095
:2025200000E100E004E100E008E100E090490A601A60904B1B7813F0020F07D08E4B1968DC
:202540008E4A52680A408A494A601A60894B1B7813F0040F07D08A4B1968884A92680A40E8
:2025600083498A601A6062B6864BDB68B3F1384F0AD0844B844A1A604FF03842DA604FF0B1
:2025800078421A61814A1A60814B93F8CF301B0443F0004343F02A037A4A5363D36A13F0BC
:2025A000F00F18BF916B03F47043B3F5405FF5D8774B93F8CE301B0443F0104343F00A035B
:2025C000704A5363D36A13F0F00F18BF916B03F47043B3F5405FF5D86D4B93F8CE301B045B
:2025E00043F0104343F00A03664A5363D36A13F0F00F18BF916B03F47043B3F5405FF5D8DF
:20260000634B93F8CF301B0443F0004343F02B035C4A5363D36A13F0F00F18BF916B03F427
:202620007043B3F5405FF5D8594B93F8CE301B0443F0104343F00A03524A5363D36A13F02F
:20264000F00F18BF916B03F47043B3F5405FF5D84F4B93F8CE301B0443F0104343F00A03E2
:20266000484A5363D36A13F0F00F18BF916B03F47043B3F5405FF5D8454B93F8CF301B0409
:2026800043F0004343F02E033E4A5363D36A13F0F00F18BF916B03F47043B3F5405FF5D852
:2026A000384AD36A002BFCDA364B9A6B384A92F8CE20120442F000425A631A464FF2F00101
:2026C000D36A13F0F00F18BF906B0B42F8D1304A92F8CE10090441F000412A4B596392F8B7
:2026E000CE10090441F00041596392F8CE20120442F000625A631A46D36A13F0805FFBD098
:20270000204B4FF08052DA629A6B9A6B986B996B184B1B78C3B113F0010F03D0144B1C68BD
:202720001C4B1C60134B1B7813F0020F03D0104B5C68194B1C600F4B1B7813F0040F03D009
:202740000B4B9C68154B1C6002F0F80200F0FC03DB0043EA0222C1F3C40313431BB213F596
:20276000006F02D00120FFF725FC02B010BD00BFD8390020E439002084E100E0CC390020CA
:2027800088E100E000C0024001401F0000001F80789BFF1F00E100E004E100E008E100E06F
:2027A00030B583B0054631B918487F210A460B4613F0E6FE0FE0154C20467F210A460B464D
:2027C00013F0ECFEEA230093204606210A464FF49D7314F047FB0D4C20460D4915F01CFBC5
:2027E00020467F210A460B4613F0F4FE20464FF6FF7113F0E1FE002300932046294642F281
:202800000E726E2315F03AF903B030BD789BFF1F442C0300F8B5334C206817214FF0FF32CF
:202820000CF0DAFD0546206800210CF0B5FD064628461CF087FA4FF07F511CF0D7FA2A497D
:202840001CF0D4FA054630461CF078FA014628461CF080FB0546206828214FF0FF320CF09B
:20286000BBFD0746206800210CF096FD064638461CF068FA4FF07F511CF0B8FA1A491CF0A7
:20288000B5FA044630461CF059FA014620461CF061FB0446284615491CF03CFC88B120465C
:2028A0004FF07E511CF04AFC58B111480021FFF777FF4FF47A7017F0B5FB0520FFF77AFB55
:2028C00005E020464FF07E511CF038FC20B1284608491CF083F905462846FDF713FF064B37
:2028E0001870F8BDF036002033335340000080BF78C40200CDCC4C3D0D37002010B51E4C2A
:2029000020464FF4E1310DF01FFB20465F210DF075FB20460DF0A0FB10BB4FF47A7017F095
:2029200081FB20460DF0D6FA20464FF4E1310DF00BFB20465F210DF061FB4FF47A7017F0B7
:2029400071FB20460DF088FB50B90C480021FFF727FF4FF47A7017F065FB0220FFF72AFBBA
:20296000054C20460DF0C6FA20460DF02BFB10B10020FEF76DF910BD2839002098C4020072
:2029800070B582B0012002A901F8010DFEF76CFA64240A2501260EE030460DF10701FEF775
:2029A00063FA631E13F0FF0405D108480021FFF7F7FE002008E0284617F034FB9DF8072099
:2029C000002AE9D0024B186802B070BDB8C402001C37002070B582B002A9012301F8013D1A
:2029E0000020FEF741FA64240A2500260EE030460DF10701FEF738FA631E13F0FF0405D1BC
:202A000008480021FFF7CCFE002008E0284617F009FB9DF80720002AE9D0034B186802B0E5
:202A200070BD00BFDCC402002C9BFF1FF0B583B00B271E4C2A260025204631460EF0B2F8B5
:202A400023681B6820462946984723681B6820460421984723681B6820460221984723683B
:202A60001B682046422198472169627B0095204601230EF071FB90B10A2017F0D3FA013FBC
:202A800017F0FF07D8D10A480021FFF789FE4FF47A7017F0C7FA0620FFF78CFA03E04FF4D3
:202AA000FA6017F0BFFA03B0F0BD00BFB039002000C5020070B58CB0344C20462A210EF07D
:202AC00071F823681B6820460021984723681B6820460421984723681B68204648219847E5
:202AE00023681B6820461C2198472169627B00230093204601230EF02FFB58B124480021E1
:202B0000FFF74EFE4FF47A7017F08CFA0620FFF751FA38E01D482A210EF044F802242046C4
:202B2000FEF752FA10F0010FF9D10620FEF74CFA0346164C2069617B012500950026019691
:202B40002A220EF01DFB204603A9202218F0B8FA2169627B009620462B460EF0FDFA03A891
:202B60000C491DF071FD10B10B4B1E700BE003A80A491DF069FD18B10122074B1A7002E0DA
:202B80000222054B1A700CB070BD00BFB03900201CC5020040C50200489CFF1F48C502008B
:202BA0002DE9F04F83B04FF47A7017F03BFAFFF781FF3F4B1B78022B05D001223D4B1A705A
:202BC000FFF734FF02E002223A4B1A703A4B1B680093009A394B1A600023394A137000213A
:202BE000384A11600121384A1170384A1370FEF70DFEDFF8E8C04FF0010BDE46344D354BC9
:202C000005F1A304DFF8D8A0DFF8AC90DFF8AC80CCF800E02A78196841F4806119604FF01D
:202C20000041D9625A6329464FF000474878DA6A002A22DBFBE7DA6A002A2ADBFBE7D9F833
:202C4000002001920199D8F800208A1AB2F57A7FDED3FEF7B3FE1E4B1B7803F00F030F2B61
:202C600022D11D480021FFF79BFD4FF47A7017F0D9F90720FFF79EF916E09A6B1E6846F4D8
:202C800080661E60DF62586301F8012BA142CDD1D1E79A6B85F8A320CAF800B02A7802F02B
:202CA0000F020F2AD5D1CAE703B0BDE8F08F00BF489CFF1F17370020943A0020789CFF1F4D
:202CC0008C9CFF1FC095FF1FA69CFF1F389BFF1F0096FF1F00C0024050C5020088F00F4056
:202CE00084F00F4010B52848284918F0CDFA284B1B78002B44D00020FEF74CFD254901F595
:202D00008C6001F26C41142202230EF0E9FE00B3204C04F23C400FF037FD2046012110F09B
:202D2000E5FD20B92046002110F0E0FD88B1194901F23C400FF0C0FA034650B1154A92F87E
:202D40003C2412F0700F1DBF1349144A116000235BB913480021FFF723FD4FF47A7017F08E
:202D600061F90420FFF726F906E00E4908460931142202230EF0B4FEFEF7EAFDFEF77AFEA7
:202D8000094A0A4B1A6010BDFC3600206CC5020098390020B896FF1FF49AFF1FC439002099
:202DA00078C50200809CFF1FAD060000C839002038B513480121FFF7F3FC4FF47A7017F043
:202DC00031F9FFF7D9F80F4C04F1100594F824301BB1284612F0D0F902E0204612F01EFC54
:202DE0000028F3D0074B1B6A012119700648FFF7D7FCFFF7C7F84FF47A7017F013F938BD65
:202E000090C50200C895FF1FB4C5020010B511480EF07AFDB8B1104B1B78B3B9002010BD22
:202E2000FEF7D2FFFFF7C4FFFEF7B6FF09480EF089FD012010BD0024084B1C7005480EF058
:202E400081FD204610BD002010BD044B1B78002BF1D1E5E7B09CFF1FC795FF1F409BFF1F5C
:202E600010B50446124B1B7883B10420002117F033F800220E4B1A70C4B10E480121FFF7C0
:202E80008FFC4FF47A7017F0CDF810BD0420012117F022F80122064B1A703CB106481146EA
:202EA000FFF77EFC4FF47A7017F0BCF810BD00BF5C360020C8C50200DCC5020010B51F4B1B
:202EC0001B78002B37D10020FEF764FC1C4901F58C6001F26C41142202230EF001FE00B3C5
:202EE000174C04F23C400FF04FFC2046012110F0FDFC20B92046002110F0F8FC88B110494C
:202F000001F23C400FF0D8F9034650B10C4A92F83C2412F0700F1DBF0A490B4A116000234F
:202F200053B90A480021FFF73BFC4FF47A7017F079F8002300E00123184610BD98390020FD
:202F4000B896FF1FF49AFF1FC4390020F0C5020010B582B01548164B03621030802112F088
:202F600035F920B10122114B83F824201BE00F4C204612F08FF994F82430A3B9684621467D
:202F800012F026FBBDF9003013B9BDF9023053B108480021FFF704FC4FF47A7017F042F89B
:202FA0000320FFF707F802B010BD00BFC895FF1F409BFF1F08C6020038B5FA2016F040FC2E
:202FC000C8282BD0164B1B7873B9002425462046294616F04BFC0134B4F5006FF7D11148C7
:202FE0000021FFF7DDFB14E0C7280ED8002425462046294616F03AFC0134B4F5006FF7D164
:2030000008480021FFF7CCFB03E007480021FFF7C7FBFA20C82116F029FCFEE738BD00BFB0
:203020009839002028C602004CC6020070B584B0204B1B7813F0FF0F06D0022016F01EFF18
:2030400000221C4B1A7033E01B4B1A680092009C1B680193019D2D1B174EFEF723FFC8B142
:20306000B5F57A7F1FDD15E00222144B1A701FE0134B1B7843B113480021FFF791FB4FF48A
:203080007A7016F0CFFF13E0FEF79EFE0122094B1A700DE0084A12680392039B1B1BB3F523
:2030A0007A7FE5DAE0E733680293029D2D1BD4E704B070BD0C370020943A0020C695FF1F14
:2030C0002137002074C6020030B583B0054631B11A487F210A460B4613F052FA0FE0174CB3
:2030E00020467F210A460B4613F058FAEA230093204606210A464FF49D7313F0B3FE0F4CF5
:2031000020460F4914F088FE20467F210A460B4613F060FA20464FF6FF7113F04DFA0023DB
:2031200000932046294642F20E72192314F0A6FC2046044914F070FE03B030BD789BFF1F9B
:2031400060200300442C030008B5114B1B78022B05D110484FF4784113F02EFA08BD012B5A
:2031600004D10C48002113F027FA08BD032B05D108484FF4806113F01FFA08BD042B054847
:203180000CBF1F214FF6FF7113F016FA08BD00BF0E370020789BFF1F30B583B08A4C2046EE
:2031A0007F210A460B4613F0EBF92046874914F033FE20467F210A460B4613F00BFA204667
:2031C0004FF6E07113F0F8F9002500952046804942F20E720A2314F051FC20467D4914F01A
:2031E0001BFE009520467C4942F20E72DC2314F045FC20464FF6FF7113F0DEF9009520460E
:2032000076493222134614F039FC0095204674493222462314F032FC009520467149322259
:203220005A2314F02BFC009520466F4932226E2314F024FC009520466C493222822314F07D
:203240001DFC009520466A493222962314F016FC0095204667493222AA2314F00FFC009514
:20326000204665493222BE2314F008FC2846FEF797FE38B1009520466049DC22322314F021
:20328000FDFB09E0002400944F485D49DC22322314F0F4FB5B4B1C700120FEF781FE40B15A
:2032A0000023009348485549DC22462314F0E6FB07E00023009344485149DC22462314F0B0
:2032C000DDFB0220FEF76CFE40B1002300933E484A49DC225A2314F0D1FB09E000240094E9
:2032E00039484749DC225A2314F0C8FB464B1C700320FEF755FE40B10023009332483F494A
:20330000DC226E2314F0BAFB07E0002300932E483B49DC226E2314F0B1FB0420FEF740FE38
:2033200040B10023009328483449DC22822314F0A5FB07E00023009323483149DC2282238D
:2033400014F09CFB0520FEF72BFE40B1002300931D482A49DC22962314F090FB07E00023C0
:20336000009319482649DC22962314F087FB0620FEF716FE40B10023009313481F49DC2216
:20338000AA2314F07BFB07E0002300930E481C49DC22AA2314F072FB0720FEF701FE40B146
:2033A0000023009308481549DC22BE2314F066FB07E00023009304481149DC22BE2314F03F
:2033C0005DFB03B030BD00BF789BFF1F602003009CC60200442C0300ACC60200D0C602009F
:2033E000E0C60200F0C6020000C7020010C7020020C7020030C7020040C7020050C70200C7
:203400009CC302007F9CFF1F509CFF1F70B5174B1B78FF2B28D0FEF7D9FDFFF7BDFE144CF0
:2034200004F1100594F824301BB1284611F0A4FE02E0204612F0F2F80028F3D00C4B1B6ACA
:2034400001221A700A4C04F11006154694F824301BB1304611F090FE02E0204612F0DEF832
:2034600010B1236A1D70F1E770BD00BFA49CFF1FC895FF1F30B583B00546104C2046104956
:2034800014F0CAFC20464FF6FF7113F095F820467F210A460B4613F09DF80223009330236D
:2034A00001932046294642F20E72502314F0BCFB2046044914F0B0FC03B030BD789BFF1F8D
:2034C00060200300442C030070B506460D4608460D491BF08BFC1BF04FFE0C4C84FB003499
:2034E000C217C2EB6414642202FB140428461BF043FE02463046064984EAE473A3EBE473C2
:203500001CF0E0FC70BD00BF0000C8421F85EB5158C7020070B584B0244E2548314616F017
:20352000A5F8244C2046314614F076FC2046FF210A460B4613F024F820461F4914F06CFCAB
:203540002046FF210A460B4613F044F82046002113F032F895230093184B0193184B029317
:2035600020465A2123228C2312F014FB002500952046144942F20E72C22314F07FFA20466C
:20358000314614F049FC009520460F4942F20E720A2314F073FA009520460C4942F20E72C2
:2035A000DC2314F06BFA04B070BD00BF442C030058340020789BFF1F60200300F45A0200E0
:2035C00024B7020060C7020068C7020078C7020000B58BB00D4B1B680293029A0C4B1B689D
:2035E000D21A0C4BA3FB0212920903A80A49C2F13C021CF067FC00230093084803A92D22DC
:20360000C82314F03BFA0BB05DF804FB943A0020789CFF1FD34D621098C70200789BFF1F33
:2036200010B582B00020FFF7F5F8124B19784BB2B3F1FF3F14D0104C0323009320230193F3
:20364000204649B24FF48C72002314F0EDFA00230093204609494FF49B7214F00FFA06E009
:203660000023009304480649F02214F007FA02B010BD00BF0D370020789BFF1F74D70200C2
:20368000B4C702002DE9F04182B03A4B1B79002B36D010F0ABFC0146364D4FF00208CDF86B
:2036A00000803027019728460522002314F0BCFA314E00240094284631461722234614F067
:2036C000DDF910F09DFC0146CDF80080019728461B22234614F0A8FA0094284631462D22D5
:2036E000234614F0CBF910F095FC0146042300932023019328463122234614F095FA35E05E
:2037000010F074FC01461B4D4FF00208CDF800803027019728460522002314F085FA164E6E
:2037200000240094284631461422234614F0A6F910F066FC0146CDF80080019728461B2279
:20374000234614F071FA0094284631462A22234614F094F910F05EFC014604230093202334
:20376000019328463122234614F05EFA02B0BDE8F08100BF789BFF1F1CD7020030B58BB062
:20378000204B1B799BB1204B1B78002B37D002A81E4917F06DFD002300931A4802A9CF2278
:2037A000E42314F021FA02A817F0F8FC27E0164B1B78ABB9134C0025009520461449DC2205
:2037C000E42314F05BF90095202301932046C8214FF49172E42314F027FA0B4B1B7873B150
:2037E00006A80A4917F044FD00230093054806A9E622E42314F0F8F906A817F0CFFC0BB08F
:2038000030BD00BF789BFF1F98390020FC360020C0C702002DE9F04182B0384B1B79002B44
:2038200034D010F0C5FB0146344C022600963025019520460522E42314F0F6F9304F4FF00F
:203840000008CDF80080204639461722E42314F015F910F0B7FB01460096019520461B221C
:20386000E42314F0E1F9CDF80080204639462D22E42314F003F910F0AFFB014600960195C6
:2038800020463122E42314F0CFF933E010F090FB01461A4C0226009630250195204605221B
:2038A000E42314F0C1F9164F4FF00008CDF80080204639461422E42314F0E0F810F082FBD7
:2038C00001460096019520461B22E42314F0ACF9CDF80080204639462A22E42314F0CEF8DB
:2038E00010F07AFB01460096019520463122E42314F09AF902B0BDE8F08100BF789BFF1FD1
:20390000CCC7020030B583B0194C20467F210A460B4612F043FEEA230093204606210A462E
:203920004FF49D7313F09EFA20469921A222A32312F034FEB42500952046062124224FF437
:203940009D7311F0B7FF2046002112F035FE2046062124224FF49D7313F034F92046062101
:203960002A464FF49D7313F02DF903B030BD00BF789BFF1FF0B585B01F4C204615F032FCED
:2039800020461E4915F072FE4D2700971C4B0193002502950126039620460F212D22262335
:2039A00015F05EFA0097174B019302950396204640F20B112D22262315F052FA2823009372
:2039C000114B01930295039520460F21BC22782315F046FA232300930C4B01930295039581
:2039E00020465F218422822315F03AFA204615F0D5FB05B0F0BD00BF5834002060200300D2
:203A0000D0C70200D4C70200D8C7020088C3020030B583B005460D4C20460D4914F0FCF911
:203A200020467F210A460B4612F0D4FD20464FF6FF7112F0C1FD002300932046294642F272
:203A40000E720E2314F01AF803B030BD789BFF1F6020030030B583B00546124C20464FF6DF
:203A6000FF7112F0A9FD6F230093204642213A2240F2011311F01EFF20464FF6FF7112F063
:203A8000BBFD2046FF216A22002312F087FD002300932046294642F20E724D2313F0EEFF14
:203AA00003B030BD789BFF1FF0B585B000284AD1FFF728FF3848FFF7ABFF384C20464FF6AC
:203AC000FF7112F079FD20469921A222A32312F081FD2046324914F09FF900250095204637
:203AE000304942F20E723F2313F0C8FF009520462D4942F20E72602313F0C0FF2B4E304614
:203B000015F070FB2A4F3046394615F0AFFD28230093284B01930295039530465A21BC2233
:203B20008C2315F09DF9304615F038FB2046394614F072F9009520461F4942F20E728C2373
:203B400013F09CFF26E0154C20467F210A460B4612F016FD2046164914F05EF920467F217E
:203B60000A460B4612F036FD20464FF6FF7112F023FD002500952046074942F20E72642387
:203B800013F07CFF009520460B4942F20E728C2313F074FF05B0F0BDE0C70200789BFF1F43
:203BA000442C0300F0C7020010C80200583400206020030034C802003CC8020070B584B073
:203BC000FFF7A0FE3848FFF723FF384C20464FF6FF7112F0F1FC364E2046314614F01CF9B1
:203BE00020469921A222A32312F0F4FC002500952046304942F20E72422313F03FFF2046D0
:203C00002D4914F009F920467F210A460B4612F0E1FC00952046294942F20E72C92313F092
:203C20002DFF274C204615F0DDFA2046314615F01DFD37260096234B01930295039520461D
:203C40000F216A228C2315F00BF900961E4B0193029503952046A5216A228C2315F000F9C9
:203C6000204615F09BFA194C04F1100594F824301BB1284611F080FA02E0204611F0CEFC2D
:203C80000028F3D0236A012119700D48002215F0DDFA012802D00028E8D101E0012000E0F0
:203CA000002004B070BD00BF48C80200789BFF1F6020030058C80200442C030064C80200BB
:203CC0005834002088C802008CC80200C895FF1F08B5012808D0022808D0064B064A00288C
:203CE0000CBF1046184602E0044800E00448FFF7B1FE08BD74CE020090C802009CC802007D
:203D0000A8C8020008B512280BD8DFE800F0300C0E10121416181A1C1E20222426282A2C94
:203D20002E00154824E0154822E0154820E015481EE015481CE015481AE0154818E015487B
:203D400016E0154814E0154812E0154810E015480EE015480CE015480AE0154808E0154803
:203D600006E0154804E0154802E0154800E01548FFF770FE08BD00BF74CE0200BCC8020091
:203D8000C8C80200D4C80200DCC80200E8C80200F4C8020000C9020008C9020014C9020060
:203DA0001CC9020028C9020030C9020038C9020040C9020048C9020050C9020058C90200CF
:203DC00064C90200B4C8020008B5012808D0022808D0064B064A00280CBF1046184602E04C
:203DE000044800E00448FFF735FE08BD74CE02006CC9020074C902007CC9020070B582B005
:203E0000334B1E78FFF77EFD3248FFF701FE324C2046FF216A22002312F0C0FB6F23009319
:203E200020464121392240F2011313F0CBF9FFF7A1FD3046FFF7C8FF284C04F1100594F881
:203E400024301BB1284611F097F902E0204611F0E5FB0028F3D0236A01211970204800226D
:203E600015F0F4F9032818D11EB90020FCF7F0FE04E02220FCF7ECFE022E03D00022194BD8
:203E80001A7002E00122174B1A70114B1E707120314615F0EBFC012017E0022814D018B9D2
:203EA0006EB1013EF6B20BE0012809D1012E02D80136F6B204E0022E08BF002600E002261D
:203EC0003046FFF781FFBAE7002002B070BD00BF2137002088C90200789BFF1FC895FF1F20
:203EE000583400202037002008B5092868D8DFE800F0050E172029323B444E5C384B1878D9
:203F0000384B394A00280CBF1046184665E0374B1878374B374A00280CBF104618465CE0B7
:203F2000354B1878354B364A00280CBF1046184653E0344B1878344B344A00280CBF104642
:203F400018464AE0324B1878324B334A00280CBF1046184641E0314B1878314B314A0028DF
:203F60000CBF1046184638E02F4B18782F4B304A00280CBF104618462FE02E4B1B78022BBD
:203F800020D02D4A2D48012B08BF104625E02C4B1B78012B18D0022B18D0032B18D0294A3B
:203FA0002948042B08BF104617E0284B1B788BB1012B11D0264A2748022B08BF10460CE0E9
:203FC00025480AE0254808E0254806E0254804E0254802E0254800E02548FFF73BFD08BD95
:203FE000B596FF1FFCC9020094C90200F436002008CA0200A0C90200709CFF1F10CA0200A3
:20400000ACC902007F9CFF1F18CA0200B8C902006936002020CA0200C4C902006836002091
:2040200028CA0200CCC902001837002034CA0200D8C90200A59CFF1FE4C902004CCA0200BD
:204040000E37002070CA020064CA02001537002014C9020094CA020074CE020040CA020094
:2040600058CA0200F0C902007CCA020088CA0200D4C80200F0B585B00546794C20460021B6
:2040800012F09AFAEB230093204605210A4640F23B1312F0E7FE20467F210A460B4612F0FD
:2040A0007DFAEA230093204606210A464FF49D7312F0D8FE6B4815F095F8002D27D1694EC0
:2040C00050240094684B0193684B029300270397304617211C22234614F0F0FE0094644BFE
:2040E0000193644B02930397304678211C22234614F0E4FE0094604B0193604B0293039705
:204100003046D9211C22234614F0D8FE53E0012D27D1544D50240094594B0193594B02933B
:2041200000260396284617211C22234614F0C6FE0094554B0193554B02930396284678210E
:204140001C22234614F0BAFE0094514B0193514B029303962846D9211C22234614F0AEFEAF
:2041600052E0022D27D13F4D502400944A4B01934A4B029300260396284617211C222346F3
:2041800014F09CFE0094464B0193464B02930396284678211C22234614F090FE0094424BA8
:2041A0000193424B029303962846D9211C22234614F084FE28E0032D26D12A4D502400946D
:2041C0003B4B01933B4B029300260396284617211C22234614F072FE0094374B0193374BFE
:2041E00002930396284678211C22234614F066FE0094334B0193334B029303962846D921C1
:204200001C22234614F05AFE164D502400942E4B01932E4B0293002603962846172184220A
:20422000234614F04BFE0094294B0193294B02930396284678218422234614F03FFE00949F
:20424000254B0193254B029303962846D9218422234614F033FE284614F0A0FF05B0F0BD9D
:20426000789BFF1F583400209CE7020024C00200548702008C510200C4F6020044E5020053
:20428000B49C02009C540200AC020300DCED02009CA80200D49302008C0B0300AC9C0200CB
:2042A000E4B90200A4FF02006C42020094A8020084F0020094E702004C4B02008CE70200CB
:2042C000CC110300AC540200948D020094510200B45402001CB4020004DF0200A454020037
:2042E000F0B583B007460E46FEF72EFF234C20464FF0FF3112F080F92046214913F08CFD08
:204300000025009520461F49FA220A2313F0B6FB009520461C4905220A2313F0AFFB012F87
:204320000ED00095204619490A226E2313F0A6FB00952046164940F227126E2313F09EFBEF
:204340000E4C00250095204612490522D22313F095FB009520461049DC22D22313F08EFB06
:2043600020460E4913F058FD00952046314642F20E720C2313F082FB03B0F0BD789BFF1FC2
:2043800060200300A0CA0200A8CA0200D0C70200D4C70200B0CA0200B8CA0200442C030011
:2043A0002DE9F0418EB006465E480021FEF78CFE5D4D28464FF6FF7112F0FEF85B4F284609
:2043C000394613F029FD28467F210A460B4612F001F9002400942846554942F20E724223AD
:2043E00013F04CFB00942846524942F20E72692313F044FB009428464F4942F20E727D2366
:2044000013F03CFB4D4D284614F0ECFE28464C4915F02CF94FF03708CDF80080494B019354
:204420000294039428460F21A0228C2314F018FDCDF80080444B0193029403942846A5215E
:20444000A0228C2314F00CFD284614F0A7FE2846394615F00BF93D4C04F1100594F824305E
:204460001BB1284610F088FE02E0204611F0D6F80028F3D0236A012119703048002214F0A4
:20448000E5FE012849D132480021FEF789F90020FDF780F92F4831460EF0DAF906F10E048F
:2044A0002D4B1868C6F80E001B7923712B4B1B787BB100238DF814308DF8153005A825490A
:2044C000324601230EF068F918B1224831460EF0BFF9234B1868C6F80E001B792371214B33
:2044E0001B787BB100238DF814308DF8153005A81849324601230EF04FF918B115483146BA
:204500000EF0A6F9FDF724FA17480021FEF748F94FF47A7015F086FD01E000289ED10EB04B
:20452000BDE8F081C0CA0200789BFF1F442C0300D0CA0200F4CA020010CB02005834002050
:204540006020030088C802008CC80200C895FF1F2CCB0200F49AFF1F3CCB0200509CFF1FFD
:2045600044CB0200603600204CCB0200F0B585B042480021FEF7A8FD414D28464FF6FF718B
:2045800012F01AF83F4E2846314613F045FC28467F210A460B4612F01DF800240094284665
:2045A000394942F20E72422313F068FA00942846364942F20E72692313F060FA00942846DB
:2045C000334942F20E727D2313F058FA314D284614F008FE2846304915F048F8372700979F
:2045E0002E4B01930294039428460F21A0228C2314F036FC00972A4B019302940394284601
:20460000A521A0228C2314F02BFC284614F0C6FD2846314615F02AF8224C04F11006012558
:2046200094F824301BB1304610F0A6FD02E0204610F0F4FF10B1236A1D70F1E7194C04F16D
:20464000100594F824301BB1284610F095FD02E0204610F0E3FF0028F3D0236A012119704C
:204660000C48002214F0F2FD10B10128E9D101E0012000E0002005B0F0BD00BF5CCB0200E1
:20468000789BFF1F442C030070CB02008CCB0200A8CB020058340020602003008CC80200E6
:2046A00088C80200C895FF1F2DE9F04184B00F4690460021FEF708FD3B4C204614F092FDEC
:2046C00046250095394B0193002602960396204614213C222B4614F0C3FB0095344B019397
:2046E000029603962046E6213C222B4614F0B8FB0095304B0193029603962046142196226E
:20470000822314F0ADFB00952B4B0193029603962046AA219622822314F0A2FB204614F0DF
:204720003DFD3868FEF7A6FE244C04F1100594F824301BB1284610F01FFD02E0204610F00E
:204740006DFF0028F3D0236A01221A70164800210A4614F07BFD01280BD1002E01DD013E2D
:2047600002E00EB908F1FF3657F82600FEF782FEDDE768B908F1FF33B34201DD013602E07C
:20478000B34208BF002657F82600FEF773FECEE7022803D00328CAD1304601E04FF0FF301F
:2047A00004B0BDE8F08100BF5834002064D00200C8CB0200D8C70200CCCB0200C895FF1F44
:2047C00010B582B0104C20464FF6FF7111F0F4FEAA230093204650213222F02311F06AF877
:2047E0002046002111F0E8FE20464FF6FF7111F003FF002300932046044942F20E72642389
:2048000013F03CF902B010BD789BFF1FD4CB020070B584B001461D48FEF756FC1C4D2846EC
:2048200014F0E0FC462600961A4B0193002402940394284614213C22822314F011FB009600
:20484000154B0193029403942846AA213C22822314F006FB0096114B0193029403942846D5
:2048600014219622822314F0FBFA00960C4B0193029403942846AA219622822314F0F0FA7B
:20488000284614F08BFC04B070BD00BFE4CB020058340020ECCB0200F0CB0200F8CB0200E7
:2048A000D8C702002DE9F04784B001466F48FEF70BFC6F4D284614F095FC462600966D4B63
:2048C0000193002402940394284614213C22334614F0C6FA0096684B01930294039428463D
:2048E000E6213C22334614F0BBFA0096634B0193029403942846142196224FF48C7314F07B
:20490000AFFA284614F04AFC0FF070FBFEF7B2FD5B4C04F1100594F824301BB1284610F05D
:204920002BFC02E0204610F079FE0028F3D0236A012119704E48002214F088FC002842D1F3
:204940000FF054FB0028E6DD0FF050FB01281ADD0FF02EFB81460FF035FB80460FF03CFB9A
:2049600007460FF043FB06460FF04AFB82460FF051FBCDF800A00190484641463A46731EEE
:204980000FF04EFB1AE00FF031FB012816D10FF00FFB80460FF016FB07460FF01DFB06460B
:2049A0000FF02EFB81460FF035FBCDF8009001904046394632461F230FF032FB0FF016FBF8
:2049C000FEF758FDA7E7012842D10FF00FFB1F28A1DC0FF00BFB1E281ADC0FF0E9FA81460C
:2049E0000FF0F0FA80460FF0F7FA07460FF0FEFA06460FF005FB82460FF00CFBCDF800A056
:204A00000190484641463A46731C0FF009FB1AE00FF0ECFA1F2816D10FF0CAFA80460FF049
:204A2000D1FA07460FF0D8FA06460FF0E9FA81460FF0F0FACDF8009001904046394632464C
:204A400001230FF0EDFA0FF0D1FAFEF713FD62E702287FF460AF0FF05DFA15F02DFA0020E6
:204A6000FFF7D6FE04B0BDE8F08700BFECCB02005834002064D00200C8CB0200D8C702000C
:204A8000C895FF1F2DE9F04784B001467048FEF71BFB704D284614F0A5FB462600966E4B86
:204AA0000193002402940394284614213C22334614F0D6F90096694B01930294039428464B
:204AC000E6213C22334614F0CBF90096644B0193029403942846142196224FF48C7314F089
:204AE000BFF9284614F05AFB0FF08AFAFEF7C2FC5C4C04F1100594F824301BB1284610F035
:204B00003BFB02E0204610F089FD0028F3D0236A012119704F48002214F098FB002843D1E2
:204B20000FF06EFA0028E6DD0FF06AFA01281BDD0FF03EFA81460FF045FA80460FF04CFA58
:204B400007460FF053FA06460FF05AFA82460FF061FA0AF1FF3300930190484641463A4615
:204B600033460FF05DFA1AE00FF04AFA012816D10FF01EFA81460FF025FA80460FF02CFA32
:204B800007460FF033FA06460FF044FA0C2300930190484641463A4633460FF041FA0FF079
:204BA0002FFAFEF767FCA6E7012843D10FF028FA0C28A0DC0FF024FA0B281BDC0FF0F8F9A2
:204BC00081460FF0FFF980460FF006FA07460FF00DFA06460FF014FA82460FF01BFA0AF1CF
:204BE000010300930190484641463A4633460FF017FA1AE00FF004FA0C2816D10FF0D8F98D
:204C000081460FF0DFF980460FF0E6F907460FF0EDF906460FF0FEF9012300930190484608
:204C200041463A4633460FF0FBF90FF0E9F9FEF721FC60E702287FF45EAF0FF06BF915F0B5
:204C40003BF90020FFF7E4FD04B0BDE8F08700BFF0CB02005834002064D00200C8CB020066
:204C6000D8C70200C895FF1F2DE9F04784B001465048FEF729FA504D284614F0B3FA462678
:204C800000964E4B0193002402940394284614213C22334614F0E4F80096494B0193029452
:204CA00003942846E6213C22334614F0D9F80096444B0193029403942846142196224FF4B8
:204CC0008C7314F0CDF8284614F068FA0FF0A2F9FEF7D0FB3C4C04F1100594F824301BB1A0
:204CE000284610F049FA02E0204610F097FC0028F3D0236A012119702F48002214F0A6FAC8
:204D000020BB0FF087F9B0F5FC6FE6DD0FF050F981460FF057F980460FF05EF907460FF0A0
:204D200065F906460FF06CF982460FF073F9CDF800A001380190484641463A4633460FF0F6
:204D40006FF90FF067F9FEF795FBC6E7012825D10FF060F940F632039842BEDC0FF028F9E4
:204D600081460FF02FF980460FF036F907460FF03DF906460FF044F982460FF04BF9CDF877
:204D800000A001300190484641463A4633460FF047F90FF03FF9FEF76DFB9EE702289CD1B4
:204DA0000FF0B8F815F088F80020FFF731FD04B0BDE8F087F8CB02005834002064D0020004
:204DC000C8CB0200D8C70200C895FF1F70B584B001461D48FEF778F91C4D284614F002FAE0
:204DE000462600961A4B0193002402940394284614213C22822314F033F80096154B019308
:204E0000029403942846AA213C22822314F028F80096114B019302940394284614219622F7
:204E2000822314F01DF800960C4B0193029403942846AA219622822314F012F8284614F0F0
:204E4000ADF904B070BD00BF00CC02005834002008CC020010CC020018CC0200D8C7020057
:204E60002DE9F04784B001466E48FEF72DF96E4D284614F0B7F9462600966C4B019300244B
:204E800002940394284614213C22334613F0E8FF0096674B0193029403942846E6213C22A5
:204EA000334613F0DDFF0096624B0193029403942846142196224FF48C7313F0D1FF2846B8
:204EC00014F06CF90FF088F8FEF7D4FA5A4C04F1100594F824301BB1284610F04DF902E035
:204EE000204610F09BFB0028F3D0236A012119704D48002214F0AAF9002841D10FF06CF898
:204F00000028E6DB0FF068F800281ADD0FF050F881460FF057F880460FF05EF807460FF067
:204F200065F806460FF06CF882460FF073F8CDF800A00190484641467A1E33460FF070F8B0
:204F400019E00FF049F8B0B90FF032F880460FF039F807460FF04AF806460FF051F88146A7
:204F60000FF058F8CDF800900190404639463B2233460FF055F80FF02FF8FEF77BFAA8E7B6
:204F8000012842D10FF028F83B28A2DC0FF024F83A281ADC0FF00CF881460FF013F88046C8
:204FA0000FF01AF807460FF021F806460FF028F882460FF02FF8CDF800A001904846414617
:204FC0007A1C33460FF02CF81AE00FF005F83B2816D10EF0EDFF80460EF0F4FF07460FF072
:204FE00005F806460FF00CF881460FF013F8CDF80090019040463946002233460FF010F807
:205000000EF0EAFFFEF736FA63E702287FF461AF0EF080FF14F050FF0020FFF7D7FE04B01E
:20502000BDE8F08718CC02005834002064D00200C8CB0200D8C70200C895FF1F2DE9F0478E
:2050400084B001466F48FEF73FF86F4D284614F0C9F8462600966D4B019300240294039464
:20506000284614213C22334613F0FAFE0096684B0193029403942846E6213C22334613F062
:20508000EFFE0096634B0193029403942846142196224FF48C7313F0E3FE284614F07EF8B5
:2050A0000EF090FFFEF7E6F95B4C04F1100594F824301BB1284610F05FF802E0204610F025
:2050C000ADFA0028F3D0236A012119704E48002214F0BCF8002842D10EF074FF0028E6DB01
:2050E0000EF070FF00281BDD0EF062FF81460EF069FF80460EF070FF07460EF077FF064657
:205100000EF07EFF82460EF085FFCDF800A00190484608F1FF313A4633460EF081FF19E0AD
:205120000EF050FFB0B90EF043FF80460EF054FF07460EF05BFF06460EF062FF81460EF04D
:2051400069FFCDF80090019040463B213A4633460EF066FF0EF036FFFEF78CF9A7E701285F
:2051600043D10EF02FFF3B28A1DC0EF02BFF3A281BDC0EF01DFF81460EF024FF80460EF0C8
:205180002BFF07460EF032FF06460EF039FF82460EF040FFCDF800A00190484608F1010163
:2051A0003A4633460EF03CFF1AE00EF00BFF3B2816D10EF0FDFE80460EF00EFF07460EF05C
:2051C00015FF06460EF01CFF81460EF023FFCDF800900190404600213A4633460EF020FFCC
:2051E0000EF0F0FEFEF746F961E702287FF45FAF0EF090FE14F060FE0020FFF7E7FD04B000
:20520000BDE8F08710CC02005834002064D00200C8CB0200D8C70200C895FF1F2DE9F047B4
:2052200084B001466F48FDF74FFF6F4D284613F0D9FF462600966D4B019300240294039456
:20524000284614213C22334613F00AFE0096684B0193029403942846E6213C22334613F070
:20526000FFFD0096634B0193029403942846142196224FF48C7313F0F3FD284613F08EFF9F
:205280000EF096FEFEF7F6F85B4C04F1100594F824301BB128460FF06FFF02E0204610F019
:2052A000BDF90028F3D0236A012119704E48002213F0CCFF002842D10EF07AFE0028E6DBF5
:2052C0000EF076FE00281BDD0EF072FE81460EF079FE80460EF080FE07460EF087FE064634
:2052E0000EF08EFE82460EF095FECDF800A0019009F1FF3041463A4633460EF091FE19E0A6
:205300000EF056FEB0B90EF05DFE80460EF064FE07460EF06BFE06460EF072FE81460EF020
:2053200079FECDF800900190172041463A4633460EF076FE0EF03CFEFEF79CF8A7E701286F
:2053400043D10EF035FE1728A1DC0EF031FE16281BDC0EF02DFE81460EF034FE80460EF006
:205360003BFE07460EF042FE06460EF049FE82460EF050FECDF800A0019009F1010041464C
:205380003A4633460EF04CFE1AE00EF011FE172816D10EF017FE80460EF01EFE07460EF061
:2053A00025FE06460EF02CFE81460EF033FECDF800900190002041463A4633460EF030FEAE
:2053C0000EF0F6FDFEF756F861E702287FF45FAF0EF0A0FD14F070FD0020FFF7F7FC04B0DD
:2053E000BDE8F08708CC02005834002064D00200C8CB0200D8C70200C895FF1FF0B585B04E
:2054000007461C483946FDF75FFE1B4D284613F0E9FE46260096194B019300240294039400
:20542000284614213C22822313F01AFD0096144B0193029403942846AA213C22822313F0B7
:205440000FFD00960F4B0193029403942846142196224FF48C7313F003FD2FB1284602217E
:20546000094A234613F0ACFE034813F097FE05B0F0BD00BF2CCE02005834002000CC020049
:20548000E4CB020020CC020028CC020070B50646164C04F1100594F824301BB128460FF081
:2054A0006BFE02E0204610F0B9F80028F3D0236A01221A700E4800210A4613F0C7FE18B905
:2054C0003046FFF7EFF9E6E7012803D13046FFF7D9FAE0E7022803D13046FFF7C5FBDAE7BD
:2054E0000328D8D13046FFF789FF70BDC895FF1F5834002070B50646164C04F1100594F827
:2055000024301BB128460FF037FE02E0204610F085F80028F3D0236A01221A700E48002168
:205520000A4613F093FE18B93046FFF777FEE6E7012803D13046FFF781FDE0E7022803D15C
:205540003046FFF78DFCDAE70328D8D13046FFF755FF70BDC895FF1F5834002070B584B054
:205560001D480021FDF7B0FD1C4D284613F03AFE462600961A4B0193002402940394284638
:2055800014213C22822313F06BFC0096154B0193029403942846AA213C22822313F060FC17
:2055A0000096114B019302940394284614219622822313F055FC00960C4B01930294039436
:2055C0002846AA219622822313F04AFC284613F0E5FD04B070BD00BF2CCC02005834002053
:2055E00034CC020044CC020054CC0200D8C70200F0B585B006464A483146FDF765FD494DB9
:20560000284613F0EFFD46270097474B0193002402940394284614213C22822313F020FCED
:205620000097424B0193029403942846AA213C22822313F015FC7EB100973D4B01930294BD
:2056400003942846142196224FF48C7313F008FC0122384B1A700DE046230093364B0193E1
:205660000023029303932F48142196224FF48C7313F0F6FB2B4813F091FD2E4B1B783BB93E
:205680002848002113F032FF2C4C04F1100504E02448012113F02AFFF6E794F824301BB19C
:2056A00028460FF069FD02E020460FF0B7FF0028F3D0236A01221A701A4800210A4613F01F
:2056C000C5FD78B91B4B1B78002BE6D00021194B1970144F384613F009FF3846012113F060
:2056E00065FFDAE701280FD1124B1B78002BD4D10121104B19700B4F384613F0F7FE384668
:20570000002113F053FFC8E70228C6D16820094B197814F0ABF80EB9FFF720FF05B0F0BD51
:2057200044CC0200583400205CCC020068CC020028CC0200509CFF1FD8C70200C895FF1F2F
:20574000F0B585B006464A483146FDF7BDFC494D284613F047FD46270097474B01930024D4
:2057600002940394284614213C22822313F078FB0097424B0193029403942846AA213C2264
:20578000822313F06DFB7EB100973D4B0193029403942846142196224FF48C7313F060FBEF
:2057A0000122384B1A700DE046230093364B01930023029303932F48142196224FF48C73C7
:2057C00013F04EFB2B4813F0E9FC2E4B1B783BB92848002113F08AFE2C4C04F1100504E0A0
:2057E0002448012113F082FEF6E794F824301BB128460FF0C1FC02E020460FF00FFF002868
:20580000F3D0236A01221A701A4800210A4613F01DFD78B91B4B1B78002BE6D00021194B0B
:205820001970144F384613F061FE3846012113F0BDFEDAE701280FD1124B1B78002BD4D1B4
:205840000121104B19700B4F384613F04FFE3846002113F0ABFEC8E70228C6D16720094B84
:20586000197814F003F80EB9FFF778FE05B0F0BD34CC02005834002074CC020080CC0200C5
:2058800028CC020060360020D8C70200C895FF1FF0B585B0474B1B784BB947480021FCF79A
:2058A0007FFFFDF70BFB10B9FFF758FE80E043480021FDF709FC424D28464FF6FF7110F0A4
:2058C0007BFE404E2846314612F0A6FA28467F210A460B4610F07EFE0024009428463A4966
:2058E00042F20E72422312F0C9F800942846374942F20E72692312F0C1F8009428463449D0
:2059000042F20E727D2312F0B9F8324D284613F069FC2846304913F0A9FE372700972F4B2B
:2059200001930294039428460F21A0228C2313F097FA00972A4B0193029403942846A52102
:20594000A0228C2313F08CFA284613F027FC2846314613F08BFE234C04F1100594F82430EF
:205960001BB128460FF008FC02E020460FF056FE0028F3D0236A012119701648002213F0A9
:2059800065FC012810D118480021FCF709FFFCF7AFF816480021FCF703FF4FF47A7014F0E1
:2059A00041FBFCF767F801E00028D7D1FFF7D6FD05B0F0BD983900208CCC02002CCC020038
:2059C000789BFF1F442C0300A0CC0200C0CC0200DCCC0200583400206020030088C80200FC
:2059E0008CC80200C895FF1F00CD020018CD020070B584B01D480021FDF766FB1C4D284615
:205A000013F0F0FB462600961A4B0193002402940394284614213C22822313F021FA0096F2
:205A2000154B0193029403942846AA213C22822313F016FA0096114B0193029403942846D5
:205A400014219622822313F00BFA00960C4B0193029403942846AA219622822313F000FA6B
:205A6000284613F09BFB04B070BD00BF2CCD02005834002034CD020044CD020054CD02009F
:205A8000D8C70200F0B585B0064645483146FDF71BFB444D284613F0A5FB46270097424BFE
:205AA0000193002402940394284614213C22822313F0D6F900973D4B01930294039428463B
:205AC000AA213C22822313F0CBF90097384B0193029403942846142196224FF48C7313F0B6
:205AE000BFF93EB128460221324A234613F068FB314B1C702B4813F051FB2F4B1B783BB958
:205B00002848002113F0F2FC2C4C04F1100504E02448012113F0EAFCF6E794F824301BB19D
:205B200028460FF029FB02E020460FF077FD0028F3D0236A01221A701A4800210A4613F01E
:205B400085FB78B91C4B1B78002BE6D000211A4B1970144F384613F0C9FC3846012113F05E
:205B600025FDDAE701280FD1134B1B78002BD4D10121114B19700B4F384613F0B7FC384665
:205B8000002113F013FDC8E70228C6D165200A4B197813F06BFE0EB9FFF72AFF05B0F0BD42
:205BA00008CF02005834002064CD02006CCD020020CC020028CC02007C9CFF1FC895FF1F5D
:205BC0002DE9F04184B0064647483146FDF77CFA464D284613F006FB46270097444B019362
:205BE000002402940394284614213C22822313F037F900973F4B0193029403942846AA2160
:205C00003C22822313F02CF900973B4B0193029403942846142196224FF48C7313F020F9C2
:205C20002EB128460221354A234613F0C9FA2F4813F0B4FA324B1B783BB12C48002113F08A
:205C400055FC304C04F1100504E02848012113F04DFCF6E794F824301BB128460FF08CFA2F
:205C600002E020460FF0DAFC0028F3D0236A01221A701E4800210A4613F0E8FA88B9204B7A
:205C80001B78002BE6D101271D4B1F70DFF85C804046002113F02AFC4046394613F086FC63
:205CA000D8E7012811D1164B1B78002BD2D00027134B1F70DFF834804046012113F016FCFD
:205CC0004046394613F072FCC4E70228C2D170200B4B197813F0CAFD1EB9FCF76FFAFFF77C
:205CE00087FE04B0BDE8F08144CD02005834002078CD02005CCC020020CC020028CC020041
:205D0000A19CFF1FC895FF1F2DE9F04184B03A480021FDF7D9F9394D284613F063FA462609
:205D20000096374B0193002402940394284614213C22822313F094F80096324B01930294F4
:205D400003942846AA213C22822313F089F800962D4B01930294039428461421962282231D
:205D600013F07EF80096294B0193029403942846AA219622822313F073F8284613F00EFA62
:205D80002846234B197813F0B1FB224C04F1100694F824301BB130460FF0EEF902E020461E
:205DA0000FF03CFC0028F3D0236A01221A70134800210A4613F04AFA054602280ED80F4FBB
:205DC000DFF84C80384698F8001013F0EFFB88F800503846E9B213F089FBD9E70328D7D112
:205DE00080200B4B197813F041FDFBF717FCFFF7FFFD04B0BDE8F08154CD0200583400204B
:205E00005CCC020080CD020088CD0200D8C70200C795FF1FC895FF1F70B584B01F4800213B
:205E2000FDF752F91E4D284613F0DCF928461D4913F01CFC462600961B4B019300240294CD
:205E40000394284614213C22822313F009F80096164B0193029403942846AA213C2282230D
:205E600012F0FEFF0096124B019302940394284614219622822312F0F3FF00960D4B0193F9
:205E8000029403942846AA219622822312F0E8FF284613F083F904B070BD00BF90CD02006A
:205EA00058340020442C03002CCD02002CCC02002CCE0200D8C7020070B506461F4C04F160
:205EC000100594F824301BB128460FF055F902E020460FF0A3FB0028F3D0236A01221A703C
:205EE000174800210A4613F0B1F930B93046FEF76DFF3046FFF7FEFAE3E7012806D13046C1
:205F0000FEF786FC3046FFF7C1FADAE70228D8D186B10EF07FF8B0F5FC6F0DDA094800213A
:205F2000FCF73EFC4FF47A7014F07CF80120FFF765FAC6E7FFF770FF70BD00BFC895FF1FA0
:205F4000583400209CCD020038B5154C04F1100594F824301BB128460FF00EF902E020466A
:205F60000FF05CFB0028F3D0236A01221A700D4800210A4613F06AF910B9FFF7E1FBE7E711
:205F8000012803D10020FFF733FBE1E7022802D1FFF77EFCDCE70328DAD1FFF73DFF38BDCB
:205FA000C895FF1F5834002038B5154C04F1100594F824301BB128460FF0DEF802E020462B
:205FC0000FF02CFB0028F3D0236A01221A700D4800210A4613F03AF910B9FFF753FDE7E79D
:205FE000012803D10020FFF7EBFDE1E7022802D1FFF78AFEDCE70328DAD1FFF70DFF38BDD3
:20600000C895FF1F5834002038B5184C04F1100594F824301BB128460FF0AEF802E02046F7
:206020000FF0FCFA0028F3D0236A01221A70104800210A4613F00AF920B9FFF7D9FCFFF7DD
:20604000B3FFE5E7012804D1FFF788FAFFF77CFFDEE7022806D10020FFF7D0F90020FFF720
:206060002BFFD5E70328D3D138BD00BFC895FF1F5834002070B59AB04C4C20467F210A4633
:206080000B4610F07DFA20467F210A460B4610F0A1FA2046464911F0BFFE02A8454915F006
:2060A000C9F84FF6FF750095204602A942F20E72142311F073FD02A815F070F806A83E4918
:2060C00015F0B8F84FF6E0760096204606A942F20E723C2311F062FD06A815F05FF82046E2
:2060E000364911F099FE0AA8354915F0A3F8009520460AA942F20E726E2311F04FFD0AA8C7
:2061000015F04CF80EA82F4915F094F8009520460EA942F20E728C2311F040FD0EA815F069
:206120003DF812A8284915F085F80095204612A942F20E72AA2311F031FD12A815F02EF832
:2061400016A8224915F076F80096204616A942F20E72D22311F022FD16A815F01FF81C4CDD
:2061600004F1100594F824301BB128460FF004F802E020460FF052FA0028F3D0144B1B6A9E
:2061800001221A70124C04F11006154694F824301BB130460EF0F0FF02E020460FF03EFA00
:2061A00010B1236A1D70F1E71AB070BD789BFF1F60200300B4CD020068C70200442C03005A
:2061C000C4CD0200E4CD020000CE020014CE0200C895FF1FF0B5ABB005460F46724C204686
:2061E0007F210A460B4610F0CBF920467F210A460B4610F0EFF920466C4911F00DFE02A83A
:20620000294615F035F84FF6E0730093204602A942F20E72142311F0C1FC02A814F0BEFF8D
:206220002046634911F0F8FD06A805F1100115F01FF84FF6FF760096204606A942F20E726C
:20624000372311F0ABFC06A814F0A8FF0AA805F1200115F00DF8009620460AA942F20E72AD
:20626000502311F09BFC0AA814F098FF0EA805F1300114F0FDFF009620460EA942F20E7282
:20628000692311F08BFC0EA814F088FF12A805F1400114F0EDFF0096204612A942F20E725D
:2062A000822311F07BFC12A814F078FF002F55D016A805F1500114F0DBFF0096204616A99A
:2062C00042F20E729B2311F069FC16A814F066FF1AA805F1600114F0CBFF009620461AA919
:2062E00042F20E72B42311F059FC1AA814F056FF1EA8304914F09EFF4FF6E0730093204631
:206300001EA942F20E72D42311F048FC1EA814F045FF294C04F1100594F824301BB128461F
:206320000EF02AFF02E020460FF078F90028F3D0214B1B6A01221A701F4C04F11006154624
:2063400094F824301BB130460EF016FF02E020460FF064F928B3236A1D70F1E722A805F1D7
:20636000500114F085FF104C4FF6FF760096204622A942F20E72B42311F010FC22A814F001
:206380000DFF26A805F1600114F072FF0096204626A942F20E72CD2311F000FC26A814F019
:2063A000FDFE2BB0F0BD00BF789BFF1F60200300442C030014CE0200C895FF1F70B59EB0A2
:2063C0001EAE02AC00252046294614F033FF1034B442F8D102A81F4914F056FF06A81E4990
:2063E00014F052FF0AA81D4914F04EFF0EA81C4914F04AFF12A81B4914F046FF16A81A49EF
:2064000014F042FF1AA8194914F03EFF02A80121FFF7E0FE062300934FF4FC6301930C2014
:206420001E210A460F230DF0FBFD0120FEF7E6FF0120FFF741FD0DF06DFD13F03DFD1AACEC
:20644000ADF10805204614F0A9FE103CAC42F9D11EB070BD28CE020038CE020058CE020059
:2064600078CE020098CE0200B8CE0200DCCE020070B59CB01CAE6C4600252046294614F04D
:20648000D9FE1034B442F8D16846164914F0FCFE04A8154914F0F8FE08A8144914F0F4FE10
:2064A0000CA8134914F0F0FE10A8124914F0ECFE14A8114914F0E8FE18A8104914F0E4FEDA
:2064C00068460121FFF786FE0120FFF7DBFA18ACADF11005204614F061FE103CAC42F9D142
:2064E0001CB070BD04CF020038CE020018CF020038CF020058CF020074CF020094CF020001
:2065000070B59CB01CAE6C4600252046294614F091FE1034B442F8D16846164914F0B4FE3B
:2065200004A8154914F0B0FE08A8144914F0ACFE0CA8134914F0A8FE10A8124914F0A4FE71
:2065400014A8114914F0A0FE18A8104914F09CFE68460121FFF73EFE0120FFF7F1F818AC06
:20656000ADF11005204614F019FE103CAC42F9D11CB070BDACCF0200C0CF0200E0CF02002B
:2065800004D0020024D0020044D0020068D0020070B59CB01CAE6C4600252046294614F0F4
:2065A00049FE1034B442F8D16846164914F06CFE04A8154914F068FE08A8144914F064FE2F
:2065C0000CA8134914F060FE10A8124914F05CFE14A8114914F058FE18A8104914F054FEF9
:2065E00068460121FFF7F6FD0120FFF701F818ACADF11005204614F0D1FD103CAC42F9D11F
:206600001CB070BD88D002009CD00200B8D00200D8D00200F8D0020018D1020034D10200C9
:2066200070B59CB06C461CAE00252046294614F001FE1034B442F8D16846104914F024FE40
:2066400004A80F4914F020FE08A80E4914F01CFE0CA80D4914F018FE10A80C4914F014FEA8
:2066600014A80B4914F010FE18A80A4914F00CFE68460021FFF7AEFDFEE700BF58D1020098
:206680006CD1020084D10200A0D10200BCD10200DCD1020000D2020008B5972013F0D0F8A0
:2066A000C83818BF012008BD70B59CB01CAE6C4600252046294614F0BDFD1034B442F8D175
:2066C0006846254914F0E0FD04A8244914F0DCFD08A8234914F0D8FD0CA8224914F0D4FDDE
:2066E00010A8214914F0D0FD14A8204914F0CCFD18A81F4914F0C8FD68460121FFF76AFD97
:2067000004A81C4914F0C0FD08A81B4914F0BCFD0CA81A4914F0B8FD10A8194914F0B4FD37
:2067200014A8184914F0B0FD18A8174914F0ACFD68460121FFF74EFD9720C82113F096F87C
:2067400018ACADF11005204614F028FD103CAC42F9D11CB070BD00BF18D202002CD202008B
:206760004CD202006CD2020088D20200A4D20200C4D20200E4D2020000D3020024D30200C7
:2067800048D3020068D302008CD3020008B5962013F056F8C83818BF012008BD08B50728D1
:2067A00005D8DFE800F01406080A0C0E10120A480EE00A480CE00A480AE00A4808E00A4897
:2067C00006E00A4804E00A4802E00A4800E00A48FDF740F908BD00BF74CE020000D402001A
:2067E0000CD4020018D4020024D4020030D402003CD4020048D40200F4D3020070B5002685
:20680000314C04F1100594F824301BB128460EF0B3FC02E020460EF001FF0028F3D0236A6C
:20682000012119702948002212F010FD032830D1072E45D8DFE806F004080D12171C21272A
:206840000120234B188070BD0522214B1A80012070BD0A221E4B1A80012070BD14221C4B4F
:206860001A80012070BD1E22194B1A80012070BD3C22174B1A80012070BD4FF49672144B52
:206880001A80012070BD4FF41672114B1A80012070BD022816D018B96EB1013EF6B20BE02F
:2068A000012809D1062E02D80136F6B204E0072E08BF002600E007263046FFF76FFFA2E772
:2068C000012070BD002070BDC895FF1F583400205E3600202DE9F04184B03C4E30460021A6
:2068E0000FF06AFEEB230093304605210A4640F23B1310F0B7FAFDF705F8354C204612F099
:2069000071FC2046334912F0B1FE4FF04D08CDF80080314B019300250295012703972046AA
